{
  "contractName": "TKMStaking1A",
  "abi": [
    {
      "inputs": [
        {
          "internalType": "address",
          "name": "_TKMNft",
          "type": "address"
        },
        {
          "internalType": "address",
          "name": "_NftHolder",
          "type": "address"
        }
      ],
      "stateMutability": "nonpayable",
      "type": "constructor"
    },
    {
      "anonymous": false,
      "inputs": [
        {
          "indexed": true,
          "internalType": "address",
          "name": "from",
          "type": "address"
        },
        {
          "indexed": true,
          "internalType": "address",
          "name": "to",
          "type": "address"
        }
      ],
      "name": "ChangeOwner",
      "type": "event"
    },
    {
      "anonymous": false,
      "inputs": [
        {
          "indexed": true,
          "internalType": "address",
          "name": "from",
          "type": "address"
        },
        {
          "indexed": false,
          "internalType": "uint256",
          "name": "blockNumber",
          "type": "uint256"
        },
        {
          "indexed": false,
          "internalType": "uint256",
          "name": "stakingIdx",
          "type": "uint256"
        }
      ],
      "name": "Harvest",
      "type": "event"
    },
    {
      "anonymous": false,
      "inputs": [
        {
          "indexed": true,
          "internalType": "address",
          "name": "from",
          "type": "address"
        },
        {
          "indexed": false,
          "internalType": "uint256",
          "name": "blockNumber",
          "type": "uint256"
        },
        {
          "indexed": false,
          "internalType": "uint256",
          "name": "stakeId",
          "type": "uint256"
        },
        {
          "indexed": false,
          "internalType": "uint256",
          "name": "stakingIdx",
          "type": "uint256"
        },
        {
          "indexed": false,
          "internalType": "uint256[]",
          "name": "ids",
          "type": "uint256[]"
        }
      ],
      "name": "Stake",
      "type": "event"
    },
    {
      "anonymous": false,
      "inputs": [
        {
          "indexed": true,
          "internalType": "address",
          "name": "from",
          "type": "address"
        },
        {
          "indexed": false,
          "internalType": "uint256",
          "name": "blockNumber",
          "type": "uint256"
        },
        {
          "indexed": false,
          "internalType": "uint256",
          "name": "stakingIdx",
          "type": "uint256"
        }
      ],
      "name": "Withdraw",
      "type": "event"
    },
    {
      "inputs": [],
      "name": "NftHolder",
      "outputs": [
        {
          "internalType": "address",
          "name": "",
          "type": "address"
        }
      ],
      "stateMutability": "view",
      "type": "function",
      "constant": true
    },
    {
      "inputs": [],
      "name": "TKMNft",
      "outputs": [
        {
          "internalType": "contract ERC721",
          "name": "",
          "type": "address"
        }
      ],
      "stateMutability": "view",
      "type": "function",
      "constant": true
    },
    {
      "inputs": [
        {
          "internalType": "address payable",
          "name": "newOwner_",
          "type": "address"
        }
      ],
      "name": "changeOwner",
      "outputs": [],
      "stateMutability": "nonpayable",
      "type": "function"
    },
    {
      "inputs": [],
      "name": "owner",
      "outputs": [
        {
          "internalType": "address payable",
          "name": "",
          "type": "address"
        }
      ],
      "stateMutability": "view",
      "type": "function",
      "constant": true
    },
    {
      "inputs": [
        {
          "internalType": "uint256",
          "name": "",
          "type": "uint256"
        }
      ],
      "name": "progressing",
      "outputs": [
        {
          "internalType": "address",
          "name": "user",
          "type": "address"
        },
        {
          "internalType": "uint256",
          "name": "stakeId",
          "type": "uint256"
        }
      ],
      "stateMutability": "view",
      "type": "function",
      "constant": true
    },
    {
      "inputs": [
        {
          "internalType": "uint256",
          "name": "",
          "type": "uint256"
        }
      ],
      "name": "stakeIdList",
      "outputs": [
        {
          "internalType": "uint256",
          "name": "",
          "type": "uint256"
        }
      ],
      "stateMutability": "view",
      "type": "function",
      "constant": true
    },
    {
      "inputs": [
        {
          "internalType": "uint256",
          "name": "",
          "type": "uint256"
        }
      ],
      "name": "stakeIds",
      "outputs": [
        {
          "internalType": "bool",
          "name": "",
          "type": "bool"
        }
      ],
      "stateMutability": "view",
      "type": "function",
      "constant": true
    },
    {
      "inputs": [
        {
          "internalType": "uint256",
          "name": "",
          "type": "uint256"
        }
      ],
      "name": "stakedInfoList",
      "outputs": [
        {
          "internalType": "uint256",
          "name": "nftCount",
          "type": "uint256"
        },
        {
          "internalType": "uint256",
          "name": "walletCount",
          "type": "uint256"
        }
      ],
      "stateMutability": "view",
      "type": "function",
      "constant": true
    },
    {
      "inputs": [],
      "name": "stakingIdx",
      "outputs": [
        {
          "internalType": "uint256",
          "name": "",
          "type": "uint256"
        }
      ],
      "stateMutability": "view",
      "type": "function",
      "constant": true
    },
    {
      "inputs": [
        {
          "internalType": "uint256",
          "name": "",
          "type": "uint256"
        }
      ],
      "name": "stakings",
      "outputs": [
        {
          "internalType": "uint256",
          "name": "startTime",
          "type": "uint256"
        },
        {
          "internalType": "uint256",
          "name": "endTime",
          "type": "uint256"
        },
        {
          "internalType": "uint8",
          "name": "nftAmount",
          "type": "uint8"
        }
      ],
      "stateMutability": "view",
      "type": "function",
      "constant": true
    },
    {
      "inputs": [
        {
          "internalType": "uint256",
          "name": "_stakeId",
          "type": "uint256"
        },
        {
          "internalType": "uint256",
          "name": "_startTime",
          "type": "uint256"
        },
        {
          "internalType": "uint256",
          "name": "_endTime",
          "type": "uint256"
        },
        {
          "internalType": "uint8",
          "name": "_nftAmount",
          "type": "uint8"
        }
      ],
      "name": "setStaking",
      "outputs": [],
      "stateMutability": "nonpayable",
      "type": "function"
    },
    {
      "inputs": [
        {
          "internalType": "uint256",
          "name": "_stakeId",
          "type": "uint256"
        },
        {
          "internalType": "uint256[]",
          "name": "_ids",
          "type": "uint256[]"
        }
      ],
      "name": "stake",
      "outputs": [],
      "stateMutability": "nonpayable",
      "type": "function"
    },
    {
      "inputs": [
        {
          "internalType": "uint256",
          "name": "_stakingIdx",
          "type": "uint256"
        }
      ],
      "name": "withdraw",
      "outputs": [],
      "stateMutability": "nonpayable",
      "type": "function"
    },
    {
      "inputs": [
        {
          "internalType": "uint256",
          "name": "_stakingIdx",
          "type": "uint256"
        }
      ],
      "name": "harvest",
      "outputs": [],
      "stateMutability": "nonpayable",
      "type": "function"
    },
    {
      "inputs": [
        {
          "internalType": "uint256",
          "name": "_stakingIdx",
          "type": "uint256"
        }
      ],
      "name": "getIds",
      "outputs": [
        {
          "internalType": "uint256[]",
          "name": "ids",
          "type": "uint256[]"
        }
      ],
      "stateMutability": "view",
      "type": "function",
      "constant": true
    },
    {
      "inputs": [],
      "name": "getStakedInfo",
      "outputs": [
        {
          "internalType": "uint256",
          "name": "blockNumber",
          "type": "uint256"
        },
        {
          "components": [
            {
              "internalType": "uint256",
              "name": "nftCount",
              "type": "uint256"
            },
            {
              "internalType": "uint256",
              "name": "walletCount",
              "type": "uint256"
            }
          ],
          "internalType": "struct TKMStaking1A.stakedInfo[8]",
          "name": "stakedList",
          "type": "tuple[8]"
        }
      ],
      "stateMutability": "view",
      "type": "function",
      "constant": true
    }
  ],
  "bytecode": "0x6080604052604051806101000160405280600160ff168152602001600260ff168152602001600360ff168152602001600460ff168152602001600560ff168152602001600660ff168152602001600760ff168152602001600860ff1681525060039060086200007092919062000249565b503480156200007e57600080fd5b506040516200299c3803806200299c8339818101604052810190620000a491906200031c565b336000806101000a81548173ffffffffffffffffffffffffffffffffffffffff021916908373ffffffffffffffffffffffffffffffffffffffff16021790555081600160006101000a81548173ffffffffffffffffffffffffffffffffffffffff021916908373ffffffffffffffffffffffffffffffffffffffff16021790555080600260006101000a81548173ffffffffffffffffffffffffffffffffffffffff021916908373ffffffffffffffffffffffffffffffffffffffff16021790555060005b6008811015620001cd576001600b60006003846008811062000190576200018f62000363565b5b0154815260200190815260200160002060006101000a81548160ff0219169083151502179055508080620001c490620003cb565b91505062000169565b5060005b6008811015620002405760006040518060400160405280600081526020016000815250905080600d83600881106200020e576200020d62000363565b5b6002020160008201518160000155602082015181600101559050505080806200023790620003cb565b915050620001d1565b50505062000418565b826008810192821562000280579160200282015b828111156200027f578251829060ff169055916020019190600101906200025d565b5b5090506200028f919062000293565b5090565b5b80821115620002ae57600081600090555060010162000294565b5090565b600080fd5b600073ffffffffffffffffffffffffffffffffffffffff82169050919050565b6000620002e482620002b7565b9050919050565b620002f681620002d7565b81146200030257600080fd5b50565b6000815190506200031681620002eb565b92915050565b60008060408385031215620003365762000335620002b2565b5b6000620003468582860162000305565b9250506020620003598582860162000305565b9150509250929050565b7f4e487b7100000000000000000000000000000000000000000000000000000000600052603260045260246000fd5b7f4e487b7100000000000000000000000000000000000000000000000000000000600052601160045260246000fd5b6000819050919050565b6000620003d882620003c1565b91507fffffffffffffffffffffffffffffffffffffffffffffffffffffffffffffffff82036200040d576200040c62000392565b5b600182019050919050565b61257480620004286000396000f3fe608060405234801561001057600080fd5b50600436106101005760003560e01c8063a6f9dae111610097578063c4f0c1fc11610066578063c4f0c1fc146102c1578063c751600a146102f3578063dab3970814610312578063ddc632621461033057610100565b8063a6f9dae114610238578063b3e78bed14610254578063b58634fe14610272578063b62888bd1461029057610100565b806333c400aa116100d357806333c400aa1461019e57806345c0403a146101ce57806361864f87146101fe5780638da5cb5b1461021a57610100565b806316f60557146101055780631aa16ec4146101215780631d80cf32146101525780632e1a7d4d14610182575b600080fd5b61011f600480360381019061011a919061167c565b61034c565b005b61013b600480360381019061013691906116d8565b6108b5565b604051610149929190611714565b60405180910390f35b61016c600480360381019061016791906116d8565b6108df565b6040516101799190611758565b60405180910390f35b61019c600480360381019061019791906116d8565b6108ff565b005b6101b860048036038101906101b391906116d8565b610cf1565b6040516101c59190611831565b60405180910390f35b6101e860048036038101906101e391906116d8565b610d5f565b6040516101f59190611853565b60405180910390f35b610218600480360381019061021391906118a7565b610d7a565b005b610222610f70565b60405161022f919061194f565b60405180910390f35b610252600480360381019061024d9190611996565b610f94565b005b61025c61112e565b60405161026991906119e4565b60405180910390f35b61027a611154565b6040516102879190611853565b60405180910390f35b6102aa60048036038101906102a591906116d8565b61115a565b6040516102b89291906119ff565b60405180910390f35b6102db60048036038101906102d691906116d8565b61119e565b6040516102ea93929190611a37565b60405180910390f35b6102fb6111d5565b604051610309929190611b39565b60405180910390f35b61031a611244565b6040516103279190611bc2565b60405180910390f35b61034a600480360381019061034591906116d8565b61126a565b005b600b600083815260200190815260200160002060009054906101000a900460ff16151560011515146103b3576040517f08c379a00000000000000000000000000000000000000000000000000000000081526004016103aa90611c60565b60405180910390fd5b42601d600084815260200190815260200160002060000154111561040c576040517f08c379a000000000000000000000000000000000000000000000000000000000815260040161040390611cf2565b60405180910390fd5b42601d6000848152602001908152602001600020600101541015610465576040517f08c379a000000000000000000000000000000000000000000000000000000000815260040161045c90611d84565b60405180910390fd5b8051601d600084815260200190815260200160002060020160009054906101000a900460ff1660ff16146104ce576040517f08c379a00000000000000000000000000000000000000000000000000000000081526004016104c590611e16565b60405180910390fd5b60005b601d600084815260200190815260200160002060020160009054906101000a900460ff1660ff16811015610635573373ffffffffffffffffffffffffffffffffffffffff16600160009054906101000a900473ffffffffffffffffffffffffffffffffffffffff1673ffffffffffffffffffffffffffffffffffffffff16636352211e84848151811061056757610566611e36565b5b60200260200101516040518263ffffffff1660e01b815260040161058b9190611853565b602060405180830381865afa1580156105a8573d6000803e3d6000fd5b505050506040513d601f19601f820116820180604052508101906105cc9190611e91565b73ffffffffffffffffffffffffffffffffffffffff1614610622576040517f08c379a000000000000000000000000000000000000000000000000000000000815260040161061990611f30565b60405180910390fd5b808061062d90611f7f565b9150506104d1565b50600c6000815461064590611f7f565b9190508190555060005b601d600084815260200190815260200160002060020160009054906101000a900460ff1660ff1681101561075d57600160009054906101000a900473ffffffffffffffffffffffffffffffffffffffff1673ffffffffffffffffffffffffffffffffffffffff166342842e0e33600260009054906101000a900473ffffffffffffffffffffffffffffffffffffffff168585815181106106f2576106f1611e36565b5b60200260200101516040518463ffffffff1660e01b815260040161071893929190611fc7565b600060405180830381600087803b15801561073257600080fd5b505af1158015610746573d6000803e3d6000fd5b50505050808061075590611f7f565b91505061064f565b506000601e6000600c5481526020019081526020016000209050338160000160006101000a81548173ffffffffffffffffffffffffffffffffffffffff021916908373ffffffffffffffffffffffffffffffffffffffff160217905550828160010181905550818160020190805190602001906107db929190611406565b506003600d6001856107ed9190611ffe565b600881106107fe576107fd611e36565b5b6002020160000160008282546108149190612032565b925050819055506001600d60018561082c9190611ffe565b6008811061083d5761083c611e36565b5b6002020160010160008282546108539190612032565b925050819055503373ffffffffffffffffffffffffffffffffffffffff167f1ee5ed85e4ccf21a09b0d94bae9ce3d430778ea6ca542ab05c99001e698842934385600c54866040516108a89493929190612088565b60405180910390a2505050565b600d81600881106108c557600080fd5b600202016000915090508060000154908060010154905082565b600b6020528060005260406000206000915054906101000a900460ff1681565b600073ffffffffffffffffffffffffffffffffffffffff16601e600083815260200190815260200160002060000160009054906101000a900473ffffffffffffffffffffffffffffffffffffffff1673ffffffffffffffffffffffffffffffffffffffff16036109a4576040517f08c379a000000000000000000000000000000000000000000000000000000000815260040161099b90612146565b60405180910390fd5b3373ffffffffffffffffffffffffffffffffffffffff16601e600083815260200190815260200160002060000160009054906101000a900473ffffffffffffffffffffffffffffffffffffffff1673ffffffffffffffffffffffffffffffffffffffff1614610a48576040517f08c379a0000000000000000000000000000000000000000000000000000000008152600401610a3f906121d8565b60405180910390fd5b6003600d6001601e600085815260200190815260200160002060010154610a6f9190611ffe565b60088110610a8057610a7f611e36565b5b600202016000016000828254610a969190611ffe565b925050819055506001600d6001601e600085815260200190815260200160002060010154610ac49190611ffe565b60088110610ad557610ad4611e36565b5b600202016001016000828254610aeb9190611ffe565b925050819055506000601e6000838152602001908152602001600020600201805480602002602001604051908101604052809291908181526020018280548015610b5457602002820191906000526020600020905b815481526020019060010190808311610b40575b50505050509050601e6000838152602001908152602001600020600080820160006101000a81549073ffffffffffffffffffffffffffffffffffffffff02191690556001820160009055600282016000610bae9190611453565b505060005b8151811015610c9c57600160009054906101000a900473ffffffffffffffffffffffffffffffffffffffff1673ffffffffffffffffffffffffffffffffffffffff166342842e0e600260009054906101000a900473ffffffffffffffffffffffffffffffffffffffff1633858581518110610c3157610c30611e36565b5b60200260200101516040518463ffffffff1660e01b8152600401610c5793929190611fc7565b600060405180830381600087803b158015610c7157600080fd5b505af1158015610c85573d6000803e3d6000fd5b505050508080610c9490611f7f565b915050610bb3565b503373ffffffffffffffffffffffffffffffffffffffff167ff279e6a1f5e320cca91135676d9cb6e44ca8a08c0b88342bcdb1144f6511b5684384604051610ce5929190611714565b60405180910390a25050565b6060601e6000838152602001908152602001600020600201805480602002602001604051908101604052809291908181526020018280548015610d5357602002820191906000526020600020905b815481526020019060010190808311610d3f575b50505050509050919050565b60038160088110610d6f57600080fd5b016000915090505481565b60008054906101000a900473ffffffffffffffffffffffffffffffffffffffff1673ffffffffffffffffffffffffffffffffffffffff163373ffffffffffffffffffffffffffffffffffffffff1614610e08576040517f08c379a0000000000000000000000000000000000000000000000000000000008152600401610dff9061226a565b60405180910390fd5b601d600085815260200190815260200160002060000154600014610ee057601d6000858152602001908152602001600020600001548211610e7e576040517f08c379a0000000000000000000000000000000000000000000000000000000008152600401610e75906122fc565b60405180910390fd5b428211610ec0576040517f08c379a0000000000000000000000000000000000000000000000000000000008152600401610eb79061238e565b60405180910390fd5b81601d600086815260200190815260200160002060010181905550610f6a565b428211610f22576040517f08c379a0000000000000000000000000000000000000000000000000000000008152600401610f199061238e565b60405180910390fd5b6000601d60008681526020019081526020016000209050838160000181905550828160010181905550818160020160006101000a81548160ff021916908360ff160217905550505b50505050565b60008054906101000a900473ffffffffffffffffffffffffffffffffffffffff1681565b60008054906101000a900473ffffffffffffffffffffffffffffffffffffffff1673ffffffffffffffffffffffffffffffffffffffff163373ffffffffffffffffffffffffffffffffffffffff1614611022576040517f08c379a00000000000000000000000000000000000000000000000000000000081526004016110199061226a565b60405180910390fd5b600073ffffffffffffffffffffffffffffffffffffffff168173ffffffffffffffffffffffffffffffffffffffff1603611091576040517f08c379a0000000000000000000000000000000000000000000000000000000008152600401611088906123fa565b60405180910390fd5b806000806101000a81548173ffffffffffffffffffffffffffffffffffffffff021916908373ffffffffffffffffffffffffffffffffffffffff1602179055508073ffffffffffffffffffffffffffffffffffffffff163373ffffffffffffffffffffffffffffffffffffffff167f9aecf86140d81442289f667eb72e1202a8fbb3478a686659952e145e8531965660405160405180910390a350565b600260009054906101000a900473ffffffffffffffffffffffffffffffffffffffff1681565b600c5481565b601e6020528060005260406000206000915090508060000160009054906101000a900473ffffffffffffffffffffffffffffffffffffffff16908060010154905082565b601d6020528060005260406000206000915090508060000154908060010154908060020160009054906101000a900460ff16905083565b60006111df611474565b43600d80600880602002604051908101604052809291906000905b828210156112365783826002020160405180604001604052908160008201548152602001600182015481525050815260200190600101906111fa565b505050509050915091509091565b600160009054906101000a900473ffffffffffffffffffffffffffffffffffffffff1681565b600073ffffffffffffffffffffffffffffffffffffffff16601e600083815260200190815260200160002060000160009054906101000a900473ffffffffffffffffffffffffffffffffffffffff1673ffffffffffffffffffffffffffffffffffffffff160361130f576040517f08c379a00000000000000000000000000000000000000000000000000000000081526004016113069061248c565b60405180910390fd5b3373ffffffffffffffffffffffffffffffffffffffff16601e600083815260200190815260200160002060000160009054906101000a900473ffffffffffffffffffffffffffffffffffffffff1673ffffffffffffffffffffffffffffffffffffffff16146113b3576040517f08c379a00000000000000000000000000000000000000000000000000000000081526004016113aa9061251e565b60405180910390fd5b3373ffffffffffffffffffffffffffffffffffffffff167f71bab65ced2e5750775a0613be067df48ef06cf92a496ebf7663ae066092495443836040516113fb929190611714565b60405180910390a250565b828054828255906000526020600020908101928215611442579160200282015b82811115611441578251825591602001919060010190611426565b5b50905061144f91906114a2565b5090565b508054600082559060005260206000209081019061147191906114a2565b50565b6040518061010001604052806008905b61148c6114bf565b8152602001906001900390816114845790505090565b5b808211156114bb5760008160009055506001016114a3565b5090565b604051806040016040528060008152602001600081525090565b6000604051905090565b600080fd5b600080fd5b6000819050919050565b611500816114ed565b811461150b57600080fd5b50565b60008135905061151d816114f7565b92915050565b600080fd5b6000601f19601f8301169050919050565b7f4e487b7100000000000000000000000000000000000000000000000000000000600052604160045260246000fd5b61157182611528565b810181811067ffffffffffffffff821117156115905761158f611539565b5b80604052505050565b60006115a36114d9565b90506115af8282611568565b919050565b600067ffffffffffffffff8211156115cf576115ce611539565b5b602082029050602081019050919050565b600080fd5b60006115f86115f3846115b4565b611599565b9050808382526020820190506020840283018581111561161b5761161a6115e0565b5b835b818110156116445780611630888261150e565b84526020840193505060208101905061161d565b5050509392505050565b600082601f83011261166357611662611523565b5b81356116738482602086016115e5565b91505092915050565b60008060408385031215611693576116926114e3565b5b60006116a18582860161150e565b925050602083013567ffffffffffffffff8111156116c2576116c16114e8565b5b6116ce8582860161164e565b9150509250929050565b6000602082840312156116ee576116ed6114e3565b5b60006116fc8482850161150e565b91505092915050565b61170e816114ed565b82525050565b60006040820190506117296000830185611705565b6117366020830184611705565b9392505050565b60008115159050919050565b6117528161173d565b82525050565b600060208201905061176d6000830184611749565b92915050565b600081519050919050565b600082825260208201905092915050565b6000819050602082019050919050565b6117a8816114ed565b82525050565b60006117ba838361179f565b60208301905092915050565b6000602082019050919050565b60006117de82611773565b6117e8818561177e565b93506117f38361178f565b8060005b8381101561182457815161180b88826117ae565b9750611816836117c6565b9250506001810190506117f7565b5085935050505092915050565b6000602082019050818103600083015261184b81846117d3565b905092915050565b60006020820190506118686000830184611705565b92915050565b600060ff82169050919050565b6118848161186e565b811461188f57600080fd5b50565b6000813590506118a18161187b565b92915050565b600080600080608085870312156118c1576118c06114e3565b5b60006118cf8782880161150e565b94505060206118e08782880161150e565b93505060406118f18782880161150e565b925050606061190287828801611892565b91505092959194509250565b600073ffffffffffffffffffffffffffffffffffffffff82169050919050565b60006119398261190e565b9050919050565b6119498161192e565b82525050565b60006020820190506119646000830184611940565b92915050565b6119738161192e565b811461197e57600080fd5b50565b6000813590506119908161196a565b92915050565b6000602082840312156119ac576119ab6114e3565b5b60006119ba84828501611981565b91505092915050565b60006119ce8261190e565b9050919050565b6119de816119c3565b82525050565b60006020820190506119f960008301846119d5565b92915050565b6000604082019050611a1460008301856119d5565b611a216020830184611705565b9392505050565b611a318161186e565b82525050565b6000606082019050611a4c6000830186611705565b611a596020830185611705565b611a666040830184611a28565b949350505050565b600060089050919050565b600081905092915050565b6000819050919050565b604082016000820151611aa4600085018261179f565b506020820151611ab7602085018261179f565b50505050565b6000611ac98383611a8e565b60408301905092915050565b6000602082019050919050565b611aeb81611a6e565b611af58184611a79565b9250611b0082611a84565b8060005b83811015611b31578151611b188782611abd565b9650611b2383611ad5565b925050600181019050611b04565b505050505050565b600061022082019050611b4f6000830185611705565b611b5c6020830184611ae2565b9392505050565b6000819050919050565b6000611b88611b83611b7e8461190e565b611b63565b61190e565b9050919050565b6000611b9a82611b6d565b9050919050565b6000611bac82611b8f565b9050919050565b611bbc81611ba1565b82525050565b6000602082019050611bd76000830184611bb3565b92915050565b600082825260208201905092915050565b7f5b544b4d5374616b696e6731415d5b7374616b655d3a20696e76616c6964207360008201527f74616b6520696400000000000000000000000000000000000000000000000000602082015250565b6000611c4a602783611bdd565b9150611c5582611bee565b604082019050919050565b60006020820190508181036000830152611c7981611c3d565b9050919050565b7f5b544b4d5374616b696e6731415d5b7374616b696e675d3a207374616b696e6760008201527f206973206e6f7420737461727465640000000000000000000000000000000000602082015250565b6000611cdc602f83611bdd565b9150611ce782611c80565b604082019050919050565b60006020820190508181036000830152611d0b81611ccf565b9050919050565b7f5b544b4d5374616b696e6731415d5b7374616b696e675d3a207374616b696e6760008201527f20697320656e6465640000000000000000000000000000000000000000000000602082015250565b6000611d6e602983611bdd565b9150611d7982611d12565b604082019050919050565b60006020820190508181036000830152611d9d81611d61565b9050919050565b7f5b544b4d5374616b696e6731415d5b7374616b696e675d3a206e6f742065717560008201527f616c206e6674416d6f756e740000000000000000000000000000000000000000602082015250565b6000611e00602c83611bdd565b9150611e0b82611da4565b604082019050919050565b60006020820190508181036000830152611e2f81611df3565b9050919050565b7f4e487b7100000000000000000000000000000000000000000000000000000000600052603260045260246000fd5b611e6e816119c3565b8114611e7957600080fd5b50565b600081519050611e8b81611e65565b92915050565b600060208284031215611ea757611ea66114e3565b5b6000611eb584828501611e7c565b91505092915050565b7f5b544b4d5374616b696e6731415d5b7374616b696e675d3a206f776e6572206960008201527f6e76616c69640000000000000000000000000000000000000000000000000000602082015250565b6000611f1a602683611bdd565b9150611f2582611ebe565b604082019050919050565b60006020820190508181036000830152611f4981611f0d565b9050919050565b7f4e487b7100000000000000000000000000000000000000000000000000000000600052601160045260246000fd5b6000611f8a826114ed565b91507fffffffffffffffffffffffffffffffffffffffffffffffffffffffffffffffff8203611fbc57611fbb611f50565b5b600182019050919050565b6000606082019050611fdc60008301866119d5565b611fe960208301856119d5565b611ff66040830184611705565b949350505050565b6000612009826114ed565b9150612014836114ed565b92508282101561202757612026611f50565b5b828203905092915050565b600061203d826114ed565b9150612048836114ed565b9250827fffffffffffffffffffffffffffffffffffffffffffffffffffffffffffffffff0382111561207d5761207c611f50565b5b828201905092915050565b600060808201905061209d6000830187611705565b6120aa6020830186611705565b6120b76040830185611705565b81810360608301526120c981846117d3565b905095945050505050565b7f5b544b4d5374616b696e6731415d5b77697468647261775d3a206e6f7420657860008201527f697374207374616b696e67206461746100000000000000000000000000000000602082015250565b6000612130603083611bdd565b915061213b826120d4565b604082019050919050565b6000602082019050818103600083015261215f81612123565b9050919050565b7f5b544b4d5374616b696e6731415d5b77697468647261775d3a206e6f74204f7760008201527f6e65720000000000000000000000000000000000000000000000000000000000602082015250565b60006121c2602383611bdd565b91506121cd82612166565b604082019050919050565b600060208201905081810360008301526121f1816121b5565b9050919050565b7f4f6e6c792074686520636f6e7472616374206f776e65722063616e2063616c6c60008201527f20746869732066756e6374696f6e000000000000000000000000000000000000602082015250565b6000612254602e83611bdd565b915061225f826121f8565b604082019050919050565b6000602082019050818103600083015261228381612247565b9050919050565b7f5b544b4d5374616b696e6731415d5b7365745374616b696e675d3a205f656e6460008201527f54696d6520697320756e646572205f737461727454696d650000000000000000602082015250565b60006122e6603883611bdd565b91506122f18261228a565b604082019050919050565b60006020820190508181036000830152612315816122d9565b9050919050565b7f5b544b4d5374616b696e6731415d5b7365745374616b696e675d3a205f656e6460008201527f54696d6520697320756e646572206e6f77000000000000000000000000000000602082015250565b6000612378603183611bdd565b91506123838261231c565b604082019050919050565b600060208201905081810360008301526123a78161236b565b9050919050565b7f6e6f74207a65726f206164647265737320666f72206e6577206f776e65720000600082015250565b60006123e4601e83611bdd565b91506123ef826123ae565b602082019050919050565b60006020820190508181036000830152612413816123d7565b9050919050565b7f5b544b4d5374616b696e6731415d5b686172766573745d3a206e6f742065786960008201527f7374207374616b696e6720646174610000000000000000000000000000000000602082015250565b6000612476602f83611bdd565b91506124818261241a565b604082019050919050565b600060208201905081810360008301526124a581612469565b9050919050565b7f5b544b4d5374616b696e6731415d5b686172766573745d3a206e6f74204f776e60008201527f6572000000000000000000000000000000000000000000000000000000000000602082015250565b6000612508602283611bdd565b9150612513826124ac565b604082019050919050565b60006020820190508181036000830152612537816124fb565b905091905056fea26469706673582212207ca77411369831eae4c83ae963252b640d41716f5447233aa200fd604e1d3cf164736f6c634300080e0033",
  "immutableReferences": {},
  "source": "// SPDX-License-Identifier: MIT\r\npragma solidity ^0.8.14;\r\n\r\nimport \"@openzeppelin/contracts/token/ERC721/ERC721.sol\";\r\nimport \"./Owner.sol\";\r\n\r\ncontract TKMStaking1A is Owner {\r\n    ERC721 public TKMNft; // tkm nft\r\n    address public NftHolder; // NFT   \r\n\r\n    // stakeId (1 ~ 4: 3km, 5 ~ 8: dtc)\r\n    uint256[8] public stakeIdList = [1, 2, 3, 4, 5, 6, 7, 8];\r\n    mapping(uint256 => bool) public stakeIds;\r\n\r\n    //  \r\n    uint256 public stakingIdx;\r\n\r\n    struct stakedInfo {\r\n        uint256 nftCount; \r\n        uint256 walletCount;\r\n    }\r\n    //  \r\n    stakedInfo[8] public stakedInfoList;\r\n\r\n    //  ( ,  , stakeId,  , nft id )\r\n    event Stake(address indexed from, uint256 blockNumber, uint256 stakeId, uint256 stakingIdx, uint256[] ids);\r\n    //  \r\n    event Withdraw(address indexed from, uint256 blockNumber, uint256 stakingIdx);\r\n    //  \r\n    event Harvest(address indexed from, uint256 blockNumber, uint256 stakingIdx);\r\n\r\n    /////////////////////////////////////////////////////\r\n    // Staking\r\n    // Staking \r\n    struct staking {\r\n        uint256 startTime; //  \r\n        uint256 endTime; //  \r\n        uint8 nftAmount; // 1   NFT (3)\r\n    }\r\n\r\n    // stake id \r\n    mapping(uint256 => staking) public stakings;\r\n\r\n    //  \r\n    struct stakingProgress {\r\n        address user; //   \r\n        uint256 stakeId; // stake id\r\n        uint256[] ids; //  NFT ID\r\n    }\r\n\r\n    //  (  =>  )\r\n    mapping(uint256 => stakingProgress) public progressing;\r\n\r\n    constructor(address _TKMNft, address _NftHolder) {\r\n        TKMNft = ERC721(payable(_TKMNft));\r\n        NftHolder = _NftHolder;\r\n\r\n        // stake id \r\n        for (uint256 i = 0; i < stakeIdList.length; i++) {\r\n            stakeIds[stakeIdList[i]] = true;\r\n        }\r\n\r\n        // stakedInfo \r\n        for (uint256 i = 0; i < stakeIdList.length; i++) {\r\n            stakedInfo memory info = stakedInfo(0, 0);\r\n            stakedInfoList[i] = info;\r\n        }\r\n    }\r\n\r\n    //   \r\n    function setStaking(\r\n        uint256 _stakeId,\r\n        uint256 _startTime,\r\n        uint256 _endTime,\r\n        uint8 _nftAmount\r\n    ) public onlyOwner {\r\n        //    \r\n        if(0 != stakings[_stakeId].startTime) {\r\n            require(_endTime > stakings[_stakeId].startTime, \"[TKMStaking1A][setStaking]: _endTime is under _startTime\");\r\n            require(_endTime > block.timestamp, \"[TKMStaking1A][setStaking]: _endTime is under now\");\r\n            stakings[_stakeId].endTime = _endTime;\r\n            return;\r\n        }\r\n\r\n        //  \r\n        require(_endTime > block.timestamp, \"[TKMStaking1A][setStaking]: _endTime is under now\");\r\n\r\n        staking storage newStake = stakings[_stakeId];\r\n        newStake.startTime = _startTime;\r\n        newStake.endTime = _endTime;\r\n        newStake.nftAmount = _nftAmount;\r\n    }\r\n\r\n    //  \r\n    function stake(uint256 _stakeId, uint256[] memory _ids) public {\r\n        // stake id \r\n        require(true == stakeIds[_stakeId], \"[TKMStaking1A][stake]: invalid stake id\");\r\n\r\n        //  \r\n        require(stakings[_stakeId].startTime <= block.timestamp, \"[TKMStaking1A][staking]: staking is not started\");\r\n        require(stakings[_stakeId].endTime >= block.timestamp, \"[TKMStaking1A][staking]: staking is ended\");\r\n\r\n        // nft  \r\n        require(stakings[_stakeId].nftAmount == _ids.length, \"[TKMStaking1A][staking]: not equal nftAmount\");\r\n\r\n        //  \r\n        for (uint256 i = 0; i < stakings[_stakeId].nftAmount; i++) {\r\n            require(TKMNft.ownerOf(_ids[i]) == msg.sender, \"[TKMStaking1A][staking]: owner invalid\");\r\n        }\r\n\r\n        //   \r\n        ++stakingIdx;\r\n        for (uint256 i = 0; i < stakings[_stakeId].nftAmount; i++) {\r\n            TKMNft.safeTransferFrom(msg.sender, NftHolder, _ids[i]);\r\n        }\r\n\r\n        //  \r\n        stakingProgress storage progress = progressing[stakingIdx];\r\n        progress.user = msg.sender;\r\n        progress.stakeId = _stakeId;\r\n        progress.ids = _ids;\r\n\r\n        // stakedInfo \r\n        stakedInfoList[_stakeId - 1].nftCount += 3;\r\n        stakedInfoList[_stakeId - 1].walletCount += 1;\r\n\r\n        emit Stake(msg.sender, block.number, _stakeId, stakingIdx, _ids);\r\n    }\r\n\r\n    // \r\n    function withdraw(uint256 _stakingIdx) public {\r\n        //      \r\n        require(progressing[_stakingIdx].user != address(0), \"[TKMStaking1A][withdraw]: not exist staking data\");\r\n        require(progressing[_stakingIdx].user == msg.sender, \"[TKMStaking1A][withdraw]: not Owner\");\r\n\r\n        // stakedInfo \r\n        stakedInfoList[progressing[_stakingIdx].stakeId - 1].nftCount -= 3;\r\n        stakedInfoList[progressing[_stakingIdx].stakeId - 1].walletCount -= 1;\r\n\r\n        //  \r\n        uint256[] memory ids = progressing[_stakingIdx].ids;\r\n        delete progressing[_stakingIdx];\r\n\r\n        // nft \r\n        for (uint256 i = 0; i < ids.length; i++) {\r\n            TKMNft.safeTransferFrom(NftHolder, msg.sender, ids[i]);\r\n        }\r\n\r\n        emit Withdraw(msg.sender, block.number, _stakingIdx);\r\n    }\r\n\r\n    // harvest\r\n    function harvest(uint256 _stakingIdx) public {\r\n        //      \r\n        require(progressing[_stakingIdx].user != address(0), \"[TKMStaking1A][harvest]: not exist staking data\");\r\n        require(progressing[_stakingIdx].user == msg.sender, \"[TKMStaking1A][harvest]: not Owner\");\r\n\r\n        emit Harvest(msg.sender, block.number, _stakingIdx);\r\n    }\r\n\r\n    function getIds(uint256 _stakingIdx) public view returns (uint256[] memory ids) {\r\n        return progressing[_stakingIdx].ids;\r\n    }\r\n\r\n    function getStakedInfo() public view returns (uint256 blockNumber, stakedInfo[8] memory stakedList) {\r\n        return (block.number, stakedInfoList);\r\n    }\r\n}\r\n",
  "sourcePath": "C:\\Works\\1_Github\\solidity_tinyping\\contracts\\TKMStaking1A.sol",
  "compiler": {
    "name": "solc",
    "version": "0.8.14+commit.80d49f37.Emscripten.clang"
  },
  "schemaVersion": "3.4.7",
  "updatedAt": "2022-12-08T02:05:28.689Z",
  "networkType": "ethereum",
  "devdoc": {
    "kind": "dev",
    "methods": {},
    "version": 1
  },
  "userdoc": {
    "kind": "user",
    "methods": {},
    "version": 1
  }
}