{
  "contractName": "TKMStaking1A",
  "abi": [
    {
      "inputs": [
        {
          "internalType": "address",
          "name": "_TKMNft",
          "type": "address"
        },
        {
          "internalType": "address",
          "name": "_NftHolder",
          "type": "address"
        }
      ],
      "stateMutability": "nonpayable",
      "type": "constructor"
    },
    {
      "anonymous": false,
      "inputs": [
        {
          "indexed": true,
          "internalType": "address",
          "name": "from",
          "type": "address"
        },
        {
          "indexed": true,
          "internalType": "address",
          "name": "to",
          "type": "address"
        }
      ],
      "name": "ChangeOwner",
      "type": "event"
    },
    {
      "anonymous": false,
      "inputs": [
        {
          "indexed": true,
          "internalType": "address",
          "name": "from",
          "type": "address"
        },
        {
          "indexed": false,
          "internalType": "uint256",
          "name": "blockNumber",
          "type": "uint256"
        },
        {
          "indexed": false,
          "internalType": "uint256",
          "name": "stakingIdx",
          "type": "uint256"
        }
      ],
      "name": "Harvest",
      "type": "event"
    },
    {
      "anonymous": false,
      "inputs": [
        {
          "indexed": true,
          "internalType": "address",
          "name": "from",
          "type": "address"
        },
        {
          "indexed": false,
          "internalType": "uint256",
          "name": "blockNumber",
          "type": "uint256"
        },
        {
          "indexed": false,
          "internalType": "uint256",
          "name": "stakeId",
          "type": "uint256"
        },
        {
          "indexed": false,
          "internalType": "uint256",
          "name": "stakingIdx",
          "type": "uint256"
        },
        {
          "indexed": false,
          "internalType": "uint256[]",
          "name": "ids",
          "type": "uint256[]"
        }
      ],
      "name": "Stake",
      "type": "event"
    },
    {
      "anonymous": false,
      "inputs": [
        {
          "indexed": true,
          "internalType": "address",
          "name": "from",
          "type": "address"
        },
        {
          "indexed": false,
          "internalType": "uint256",
          "name": "blockNumber",
          "type": "uint256"
        },
        {
          "indexed": false,
          "internalType": "uint256",
          "name": "stakingIdx",
          "type": "uint256"
        }
      ],
      "name": "Withdraw",
      "type": "event"
    },
    {
      "inputs": [],
      "name": "NftHolder",
      "outputs": [
        {
          "internalType": "address",
          "name": "",
          "type": "address"
        }
      ],
      "stateMutability": "view",
      "type": "function"
    },
    {
      "inputs": [],
      "name": "TKMNft",
      "outputs": [
        {
          "internalType": "contract ERC721",
          "name": "",
          "type": "address"
        }
      ],
      "stateMutability": "view",
      "type": "function"
    },
    {
      "inputs": [
        {
          "internalType": "address payable",
          "name": "newOwner_",
          "type": "address"
        }
      ],
      "name": "changeOwner",
      "outputs": [],
      "stateMutability": "nonpayable",
      "type": "function"
    },
    {
      "inputs": [],
      "name": "owner",
      "outputs": [
        {
          "internalType": "address payable",
          "name": "",
          "type": "address"
        }
      ],
      "stateMutability": "view",
      "type": "function"
    },
    {
      "inputs": [
        {
          "internalType": "uint256",
          "name": "",
          "type": "uint256"
        }
      ],
      "name": "progressing",
      "outputs": [
        {
          "internalType": "address",
          "name": "user",
          "type": "address"
        },
        {
          "internalType": "uint256",
          "name": "stakeId",
          "type": "uint256"
        }
      ],
      "stateMutability": "view",
      "type": "function"
    },
    {
      "inputs": [
        {
          "internalType": "uint256",
          "name": "",
          "type": "uint256"
        }
      ],
      "name": "stakeIdList",
      "outputs": [
        {
          "internalType": "uint256",
          "name": "",
          "type": "uint256"
        }
      ],
      "stateMutability": "view",
      "type": "function"
    },
    {
      "inputs": [
        {
          "internalType": "uint256",
          "name": "",
          "type": "uint256"
        }
      ],
      "name": "stakeIds",
      "outputs": [
        {
          "internalType": "bool",
          "name": "",
          "type": "bool"
        }
      ],
      "stateMutability": "view",
      "type": "function"
    },
    {
      "inputs": [],
      "name": "stakingIdx",
      "outputs": [
        {
          "internalType": "uint256",
          "name": "",
          "type": "uint256"
        }
      ],
      "stateMutability": "view",
      "type": "function"
    },
    {
      "inputs": [
        {
          "internalType": "uint256",
          "name": "",
          "type": "uint256"
        }
      ],
      "name": "stakings",
      "outputs": [
        {
          "internalType": "uint256",
          "name": "startTime",
          "type": "uint256"
        },
        {
          "internalType": "uint256",
          "name": "endTime",
          "type": "uint256"
        },
        {
          "internalType": "uint8",
          "name": "nftAmount",
          "type": "uint8"
        }
      ],
      "stateMutability": "view",
      "type": "function"
    },
    {
      "inputs": [
        {
          "internalType": "uint256",
          "name": "_stakeId",
          "type": "uint256"
        },
        {
          "internalType": "uint256",
          "name": "_startTime",
          "type": "uint256"
        },
        {
          "internalType": "uint256",
          "name": "_endTime",
          "type": "uint256"
        },
        {
          "internalType": "uint8",
          "name": "_nftAmount",
          "type": "uint8"
        }
      ],
      "name": "setStaking",
      "outputs": [],
      "stateMutability": "nonpayable",
      "type": "function"
    },
    {
      "inputs": [
        {
          "internalType": "uint256",
          "name": "_stakeId",
          "type": "uint256"
        },
        {
          "internalType": "uint256[]",
          "name": "_ids",
          "type": "uint256[]"
        }
      ],
      "name": "stake",
      "outputs": [],
      "stateMutability": "nonpayable",
      "type": "function"
    },
    {
      "inputs": [
        {
          "internalType": "uint256",
          "name": "_stakingIdx",
          "type": "uint256"
        }
      ],
      "name": "withdraw",
      "outputs": [],
      "stateMutability": "nonpayable",
      "type": "function"
    },
    {
      "inputs": [
        {
          "internalType": "uint256",
          "name": "_stakingIdx",
          "type": "uint256"
        }
      ],
      "name": "harvest",
      "outputs": [],
      "stateMutability": "nonpayable",
      "type": "function"
    },
    {
      "inputs": [
        {
          "internalType": "uint256",
          "name": "_stakingIdx",
          "type": "uint256"
        }
      ],
      "name": "getIds",
      "outputs": [
        {
          "internalType": "uint256[]",
          "name": "ids",
          "type": "uint256[]"
        }
      ],
      "stateMutability": "view",
      "type": "function"
    }
  ],
  "bytecode": "0x6080604052604051806101000160405280600160ff168152602001600260ff168152602001600360ff168152602001600460ff168152602001600560ff168152602001600660ff168152602001600760ff168152602001600860ff16815250600390600862000070929190620001e3565b503480156200007e57600080fd5b506040516200255e3803806200255e8339818101604052810190620000a49190620002c3565b336000806101000a81548173ffffffffffffffffffffffffffffffffffffffff021916908373ffffffffffffffffffffffffffffffffffffffff16021790555081600160006101000a81548173ffffffffffffffffffffffffffffffffffffffff021916908373ffffffffffffffffffffffffffffffffffffffff16021790555080600260006101000a81548173ffffffffffffffffffffffffffffffffffffffff021916908373ffffffffffffffffffffffffffffffffffffffff16021790555060005b600380549050811015620001da57600160046000600384815481106200019457620001936200030a565b5b9060005260206000200154815260200190815260200160002060006101000a81548160ff0219169083151502179055508080620001d19062000372565b91505062000169565b505050620003bf565b82805482825590600052602060002090810192821562000227579160200282015b8281111562000226578251829060ff1690559160200191906001019062000204565b5b5090506200023691906200023a565b5090565b5b80821115620002555760008160009055506001016200023b565b5090565b600080fd5b600073ffffffffffffffffffffffffffffffffffffffff82169050919050565b60006200028b826200025e565b9050919050565b6200029d816200027e565b8114620002a957600080fd5b50565b600081519050620002bd8162000292565b92915050565b60008060408385031215620002dd57620002dc62000259565b5b6000620002ed85828601620002ac565b92505060206200030085828601620002ac565b9150509250929050565b7f4e487b7100000000000000000000000000000000000000000000000000000000600052603260045260246000fd5b7f4e487b7100000000000000000000000000000000000000000000000000000000600052601160045260246000fd5b6000819050919050565b60006200037f8262000368565b91507fffffffffffffffffffffffffffffffffffffffffffffffffffffffffffffffff8203620003b457620003b362000339565b5b600182019050919050565b61218f80620003cf6000396000f3fe608060405234801561001057600080fd5b50600436106100ea5760003560e01c8063a6f9dae11161008c578063b62888bd11610066578063b62888bd14610249578063c4f0c1fc1461027a578063dab39708146102ac578063ddc63262146102ca576100ea565b8063a6f9dae1146101f1578063b3e78bed1461020d578063b58634fe1461022b576100ea565b806333c400aa116100c857806333c400aa1461015757806345c0403a1461018757806361864f87146101b75780638da5cb5b146101d3576100ea565b806316f60557146100ef5780631d80cf321461010b5780632e1a7d4d1461013b575b600080fd5b61010960048036038101906101049190611416565b6102e6565b005b61012560048036038101906101209190611472565b6107d1565b60405161013291906114ba565b60405180910390f35b61015560048036038101906101509190611472565b6107f1565b005b610171600480360381019061016c9190611472565b610b39565b60405161017e9190611593565b60405180910390f35b6101a1600480360381019061019c9190611472565b610ba7565b6040516101ae91906115c4565b60405180910390f35b6101d160048036038101906101cc9190611618565b610bcb565b005b6101db610dc1565b6040516101e891906116c0565b60405180910390f35b61020b60048036038101906102069190611707565b610de5565b005b610215610f7f565b6040516102229190611755565b60405180910390f35b610233610fa5565b60405161024091906115c4565b60405180910390f35b610263600480360381019061025e9190611472565b610fab565b604051610271929190611770565b60405180910390f35b610294600480360381019061028f9190611472565b610fef565b6040516102a3939291906117a8565b60405180910390f35b6102b4611026565b6040516102c1919061183e565b60405180910390f35b6102e460048036038101906102df9190611472565b61104c565b005b6004600083815260200190815260200160002060009054906101000a900460ff161515600115151461034d576040517f08c379a0000000000000000000000000000000000000000000000000000000008152600401610344906118dc565b60405180910390fd5b42600660008481526020019081526020016000206000015411156103a6576040517f08c379a000000000000000000000000000000000000000000000000000000000815260040161039d9061196e565b60405180910390fd5b42600660008481526020019081526020016000206001015410156103ff576040517f08c379a00000000000000000000000000000000000000000000000000000000081526004016103f690611a00565b60405180910390fd5b80516006600084815260200190815260200160002060020160009054906101000a900460ff1660ff1614610468576040517f08c379a000000000000000000000000000000000000000000000000000000000815260040161045f90611a92565b60405180910390fd5b60005b6006600084815260200190815260200160002060020160009054906101000a900460ff1660ff168110156105cf573373ffffffffffffffffffffffffffffffffffffffff16600160009054906101000a900473ffffffffffffffffffffffffffffffffffffffff1673ffffffffffffffffffffffffffffffffffffffff16636352211e84848151811061050157610500611ab2565b5b60200260200101516040518263ffffffff1660e01b815260040161052591906115c4565b602060405180830381865afa158015610542573d6000803e3d6000fd5b505050506040513d601f19601f820116820180604052508101906105669190611b0d565b73ffffffffffffffffffffffffffffffffffffffff16146105bc576040517f08c379a00000000000000000000000000000000000000000000000000000000081526004016105b390611bac565b60405180910390fd5b80806105c790611bfb565b91505061046b565b506005600081546105df90611bfb565b9190508190555060005b6006600084815260200190815260200160002060020160009054906101000a900460ff1660ff168110156106f757600160009054906101000a900473ffffffffffffffffffffffffffffffffffffffff1673ffffffffffffffffffffffffffffffffffffffff166342842e0e33600260009054906101000a900473ffffffffffffffffffffffffffffffffffffffff1685858151811061068c5761068b611ab2565b5b60200260200101516040518463ffffffff1660e01b81526004016106b293929190611c43565b600060405180830381600087803b1580156106cc57600080fd5b505af11580156106e0573d6000803e3d6000fd5b5050505080806106ef90611bfb565b9150506105e9565b5060006007600060055481526020019081526020016000209050338160000160006101000a81548173ffffffffffffffffffffffffffffffffffffffff021916908373ffffffffffffffffffffffffffffffffffffffff160217905550828160010181905550818160020190805190602001906107759291906111e8565b503373ffffffffffffffffffffffffffffffffffffffff167f1ee5ed85e4ccf21a09b0d94bae9ce3d430778ea6ca542ab05c99001e698842934385600554866040516107c49493929190611c7a565b60405180910390a2505050565b60046020528060005260406000206000915054906101000a900460ff1681565b600073ffffffffffffffffffffffffffffffffffffffff166007600083815260200190815260200160002060000160009054906101000a900473ffffffffffffffffffffffffffffffffffffffff1673ffffffffffffffffffffffffffffffffffffffff1603610896576040517f08c379a000000000000000000000000000000000000000000000000000000000815260040161088d90611d38565b60405180910390fd5b3373ffffffffffffffffffffffffffffffffffffffff166007600083815260200190815260200160002060000160009054906101000a900473ffffffffffffffffffffffffffffffffffffffff1673ffffffffffffffffffffffffffffffffffffffff161461093a576040517f08c379a000000000000000000000000000000000000000000000000000000000815260040161093190611dca565b60405180910390fd5b60006007600083815260200190815260200160002060020180548060200260200160405190810160405280929190818152602001828054801561099c57602002820191906000526020600020905b815481526020019060010190808311610988575b5050505050905060076000838152602001908152602001600020600080820160006101000a81549073ffffffffffffffffffffffffffffffffffffffff021916905560018201600090556002820160006109f69190611235565b505060005b8151811015610ae457600160009054906101000a900473ffffffffffffffffffffffffffffffffffffffff1673ffffffffffffffffffffffffffffffffffffffff166342842e0e600260009054906101000a900473ffffffffffffffffffffffffffffffffffffffff1633858581518110610a7957610a78611ab2565b5b60200260200101516040518463ffffffff1660e01b8152600401610a9f93929190611c43565b600060405180830381600087803b158015610ab957600080fd5b505af1158015610acd573d6000803e3d6000fd5b505050508080610adc90611bfb565b9150506109fb565b503373ffffffffffffffffffffffffffffffffffffffff167ff279e6a1f5e320cca91135676d9cb6e44ca8a08c0b88342bcdb1144f6511b5684384604051610b2d929190611dea565b60405180910390a25050565b606060076000838152602001908152602001600020600201805480602002602001604051908101604052809291908181526020018280548015610b9b57602002820191906000526020600020905b815481526020019060010190808311610b87575b50505050509050919050565b60038181548110610bb757600080fd5b906000526020600020016000915090505481565b60008054906101000a900473ffffffffffffffffffffffffffffffffffffffff1673ffffffffffffffffffffffffffffffffffffffff163373ffffffffffffffffffffffffffffffffffffffff1614610c59576040517f08c379a0000000000000000000000000000000000000000000000000000000008152600401610c5090611e85565b60405180910390fd5b6006600085815260200190815260200160002060000154600014610d315760066000858152602001908152602001600020600001548211610ccf576040517f08c379a0000000000000000000000000000000000000000000000000000000008152600401610cc690611f17565b60405180910390fd5b428211610d11576040517f08c379a0000000000000000000000000000000000000000000000000000000008152600401610d0890611fa9565b60405180910390fd5b816006600086815260200190815260200160002060010181905550610dbb565b428211610d73576040517f08c379a0000000000000000000000000000000000000000000000000000000008152600401610d6a90611fa9565b60405180910390fd5b6000600660008681526020019081526020016000209050838160000181905550828160010181905550818160020160006101000a81548160ff021916908360ff160217905550505b50505050565b60008054906101000a900473ffffffffffffffffffffffffffffffffffffffff1681565b60008054906101000a900473ffffffffffffffffffffffffffffffffffffffff1673ffffffffffffffffffffffffffffffffffffffff163373ffffffffffffffffffffffffffffffffffffffff1614610e73576040517f08c379a0000000000000000000000000000000000000000000000000000000008152600401610e6a90611e85565b60405180910390fd5b600073ffffffffffffffffffffffffffffffffffffffff168173ffffffffffffffffffffffffffffffffffffffff1603610ee2576040517f08c379a0000000000000000000000000000000000000000000000000000000008152600401610ed990612015565b60405180910390fd5b806000806101000a81548173ffffffffffffffffffffffffffffffffffffffff021916908373ffffffffffffffffffffffffffffffffffffffff1602179055508073ffffffffffffffffffffffffffffffffffffffff163373ffffffffffffffffffffffffffffffffffffffff167f9aecf86140d81442289f667eb72e1202a8fbb3478a686659952e145e8531965660405160405180910390a350565b600260009054906101000a900473ffffffffffffffffffffffffffffffffffffffff1681565b60055481565b60076020528060005260406000206000915090508060000160009054906101000a900473ffffffffffffffffffffffffffffffffffffffff16908060010154905082565b60066020528060005260406000206000915090508060000154908060010154908060020160009054906101000a900460ff16905083565b600160009054906101000a900473ffffffffffffffffffffffffffffffffffffffff1681565b600073ffffffffffffffffffffffffffffffffffffffff166007600083815260200190815260200160002060000160009054906101000a900473ffffffffffffffffffffffffffffffffffffffff1673ffffffffffffffffffffffffffffffffffffffff16036110f1576040517f08c379a00000000000000000000000000000000000000000000000000000000081526004016110e8906120a7565b60405180910390fd5b3373ffffffffffffffffffffffffffffffffffffffff166007600083815260200190815260200160002060000160009054906101000a900473ffffffffffffffffffffffffffffffffffffffff1673ffffffffffffffffffffffffffffffffffffffff1614611195576040517f08c379a000000000000000000000000000000000000000000000000000000000815260040161118c90612139565b60405180910390fd5b3373ffffffffffffffffffffffffffffffffffffffff167f71bab65ced2e5750775a0613be067df48ef06cf92a496ebf7663ae066092495443836040516111dd929190611dea565b60405180910390a250565b828054828255906000526020600020908101928215611224579160200282015b82811115611223578251825591602001919060010190611208565b5b5090506112319190611256565b5090565b50805460008255906000526020600020908101906112539190611256565b50565b5b8082111561126f576000816000905550600101611257565b5090565b6000604051905090565b600080fd5b600080fd5b6000819050919050565b61129a81611287565b81146112a557600080fd5b50565b6000813590506112b781611291565b92915050565b600080fd5b6000601f19601f8301169050919050565b7f4e487b7100000000000000000000000000000000000000000000000000000000600052604160045260246000fd5b61130b826112c2565b810181811067ffffffffffffffff8211171561132a576113296112d3565b5b80604052505050565b600061133d611273565b90506113498282611302565b919050565b600067ffffffffffffffff821115611369576113686112d3565b5b602082029050602081019050919050565b600080fd5b600061139261138d8461134e565b611333565b905080838252602082019050602084028301858111156113b5576113b461137a565b5b835b818110156113de57806113ca88826112a8565b8452602084019350506020810190506113b7565b5050509392505050565b600082601f8301126113fd576113fc6112bd565b5b813561140d84826020860161137f565b91505092915050565b6000806040838503121561142d5761142c61127d565b5b600061143b858286016112a8565b925050602083013567ffffffffffffffff81111561145c5761145b611282565b5b611468858286016113e8565b9150509250929050565b6000602082840312156114885761148761127d565b5b6000611496848285016112a8565b91505092915050565b60008115159050919050565b6114b48161149f565b82525050565b60006020820190506114cf60008301846114ab565b92915050565b600081519050919050565b600082825260208201905092915050565b6000819050602082019050919050565b61150a81611287565b82525050565b600061151c8383611501565b60208301905092915050565b6000602082019050919050565b6000611540826114d5565b61154a81856114e0565b9350611555836114f1565b8060005b8381101561158657815161156d8882611510565b975061157883611528565b925050600181019050611559565b5085935050505092915050565b600060208201905081810360008301526115ad8184611535565b905092915050565b6115be81611287565b82525050565b60006020820190506115d960008301846115b5565b92915050565b600060ff82169050919050565b6115f5816115df565b811461160057600080fd5b50565b600081359050611612816115ec565b92915050565b600080600080608085870312156116325761163161127d565b5b6000611640878288016112a8565b9450506020611651878288016112a8565b9350506040611662878288016112a8565b925050606061167387828801611603565b91505092959194509250565b600073ffffffffffffffffffffffffffffffffffffffff82169050919050565b60006116aa8261167f565b9050919050565b6116ba8161169f565b82525050565b60006020820190506116d560008301846116b1565b92915050565b6116e48161169f565b81146116ef57600080fd5b50565b600081359050611701816116db565b92915050565b60006020828403121561171d5761171c61127d565b5b600061172b848285016116f2565b91505092915050565b600061173f8261167f565b9050919050565b61174f81611734565b82525050565b600060208201905061176a6000830184611746565b92915050565b60006040820190506117856000830185611746565b61179260208301846115b5565b9392505050565b6117a2816115df565b82525050565b60006060820190506117bd60008301866115b5565b6117ca60208301856115b5565b6117d76040830184611799565b949350505050565b6000819050919050565b60006118046117ff6117fa8461167f565b6117df565b61167f565b9050919050565b6000611816826117e9565b9050919050565b60006118288261180b565b9050919050565b6118388161181d565b82525050565b6000602082019050611853600083018461182f565b92915050565b600082825260208201905092915050565b7f5b544b4d5374616b696e6731415d5b7374616b655d3a20696e76616c6964207360008201527f74616b6520696400000000000000000000000000000000000000000000000000602082015250565b60006118c6602783611859565b91506118d18261186a565b604082019050919050565b600060208201905081810360008301526118f5816118b9565b9050919050565b7f5b544b4d5374616b696e6731415d5b7374616b696e675d3a207374616b696e6760008201527f206973206e6f7420737461727465640000000000000000000000000000000000602082015250565b6000611958602f83611859565b9150611963826118fc565b604082019050919050565b600060208201905081810360008301526119878161194b565b9050919050565b7f5b544b4d5374616b696e6731415d5b7374616b696e675d3a207374616b696e6760008201527f20697320656e6465640000000000000000000000000000000000000000000000602082015250565b60006119ea602983611859565b91506119f58261198e565b604082019050919050565b60006020820190508181036000830152611a19816119dd565b9050919050565b7f5b544b4d5374616b696e6731415d5b7374616b696e675d3a206e6f742065717560008201527f616c206e6674416d6f756e740000000000000000000000000000000000000000602082015250565b6000611a7c602c83611859565b9150611a8782611a20565b604082019050919050565b60006020820190508181036000830152611aab81611a6f565b9050919050565b7f4e487b7100000000000000000000000000000000000000000000000000000000600052603260045260246000fd5b611aea81611734565b8114611af557600080fd5b50565b600081519050611b0781611ae1565b92915050565b600060208284031215611b2357611b2261127d565b5b6000611b3184828501611af8565b91505092915050565b7f5b544b4d5374616b696e6731415d5b7374616b696e675d3a206f776e6572206960008201527f6e76616c69640000000000000000000000000000000000000000000000000000602082015250565b6000611b96602683611859565b9150611ba182611b3a565b604082019050919050565b60006020820190508181036000830152611bc581611b89565b9050919050565b7f4e487b7100000000000000000000000000000000000000000000000000000000600052601160045260246000fd5b6000611c0682611287565b91507fffffffffffffffffffffffffffffffffffffffffffffffffffffffffffffffff8203611c3857611c37611bcc565b5b600182019050919050565b6000606082019050611c586000830186611746565b611c656020830185611746565b611c7260408301846115b5565b949350505050565b6000608082019050611c8f60008301876115b5565b611c9c60208301866115b5565b611ca960408301856115b5565b8181036060830152611cbb8184611535565b905095945050505050565b7f5b544b4d5374616b696e6731415d5b77697468647261775d3a206e6f7420657860008201527f697374207374616b696e67206461746100000000000000000000000000000000602082015250565b6000611d22603083611859565b9150611d2d82611cc6565b604082019050919050565b60006020820190508181036000830152611d5181611d15565b9050919050565b7f5b544b4d5374616b696e6731415d5b77697468647261775d3a206e6f74204f7760008201527f6e65720000000000000000000000000000000000000000000000000000000000602082015250565b6000611db4602383611859565b9150611dbf82611d58565b604082019050919050565b60006020820190508181036000830152611de381611da7565b9050919050565b6000604082019050611dff60008301856115b5565b611e0c60208301846115b5565b9392505050565b7f4f6e6c792074686520636f6e7472616374206f776e65722063616e2063616c6c60008201527f20746869732066756e6374696f6e000000000000000000000000000000000000602082015250565b6000611e6f602e83611859565b9150611e7a82611e13565b604082019050919050565b60006020820190508181036000830152611e9e81611e62565b9050919050565b7f5b544b4d5374616b696e6731415d5b7365745374616b696e675d3a205f656e6460008201527f54696d6520697320756e646572205f737461727454696d650000000000000000602082015250565b6000611f01603883611859565b9150611f0c82611ea5565b604082019050919050565b60006020820190508181036000830152611f3081611ef4565b9050919050565b7f5b544b4d5374616b696e6731415d5b7365745374616b696e675d3a205f656e6460008201527f54696d6520697320756e646572206e6f77000000000000000000000000000000602082015250565b6000611f93603183611859565b9150611f9e82611f37565b604082019050919050565b60006020820190508181036000830152611fc281611f86565b9050919050565b7f6e6f74207a65726f206164647265737320666f72206e6577206f776e65720000600082015250565b6000611fff601e83611859565b915061200a82611fc9565b602082019050919050565b6000602082019050818103600083015261202e81611ff2565b9050919050565b7f5b544b4d5374616b696e6731415d5b686172766573745d3a206e6f742065786960008201527f7374207374616b696e6720646174610000000000000000000000000000000000602082015250565b6000612091602f83611859565b915061209c82612035565b604082019050919050565b600060208201905081810360008301526120c081612084565b9050919050565b7f5b544b4d5374616b696e6731415d5b686172766573745d3a206e6f74204f776e60008201527f6572000000000000000000000000000000000000000000000000000000000000602082015250565b6000612123602283611859565b915061212e826120c7565b604082019050919050565b6000602082019050818103600083015261215281612116565b905091905056fea26469706673582212201b378164a35e2460780149b7bf38d14249078089916fbdc2190c89d3cb28740364736f6c634300080e0033",
  "immutableReferences": {},
  "source": "// SPDX-License-Identifier: MIT\r\npragma solidity ^0.8.14;\r\n\r\nimport \"@openzeppelin/contracts/token/ERC721/ERC721.sol\";\r\nimport \"./Owner.sol\";\r\n\r\ncontract TKMStaking1A is Owner {\r\n    ERC721 public TKMNft; // tkm nft\r\n    address public NftHolder; // NFT   \r\n\r\n    // stakeId (1 ~ 4: 3km, 5 ~ 8: dtc)\r\n    uint256[] public stakeIdList = [1, 2, 3, 4, 5, 6, 7, 8];\r\n    mapping(uint256 => bool) public stakeIds;\r\n\r\n    //  \r\n    uint256 public stakingIdx;\r\n\r\n    //  ( ,  , stakeId,  , nft id )\r\n    event Stake(address indexed from, uint256 blockNumber, uint256 stakeId, uint256 stakingIdx, uint256[] ids);\r\n    //  \r\n    event Withdraw(address indexed from, uint256 blockNumber, uint256 stakingIdx);\r\n    //  \r\n    event Harvest(address indexed from, uint256 blockNumber, uint256 stakingIdx);\r\n\r\n    /////////////////////////////////////////////////////\r\n    // Staking\r\n    // Staking \r\n    struct staking {\r\n        uint256 startTime; //  \r\n        uint256 endTime; //  \r\n        uint8 nftAmount; // 1   NFT (3)\r\n    }\r\n\r\n    // stake id \r\n    mapping(uint256 => staking) public stakings;\r\n\r\n    //  \r\n    struct stakingProgress {\r\n        address user; //   \r\n        uint256 stakeId; // stake id\r\n        uint256[] ids; //  NFT ID\r\n    }\r\n\r\n    //  (  =>  )\r\n    mapping(uint256 => stakingProgress) public progressing;\r\n\r\n    constructor(address _TKMNft, address _NftHolder) {\r\n        TKMNft = ERC721(payable(_TKMNft));\r\n        NftHolder = _NftHolder;\r\n\r\n        // stake id \r\n        for (uint256 i = 0; i < stakeIdList.length; i++) {\r\n            stakeIds[stakeIdList[i]] = true;\r\n        }\r\n    }\r\n\r\n    //   \r\n    function setStaking(\r\n        uint256 _stakeId,\r\n        uint256 _startTime,\r\n        uint256 _endTime,\r\n        uint8 _nftAmount\r\n    ) public onlyOwner {\r\n        //    \r\n        if(0 != stakings[_stakeId].startTime) {\r\n            require(_endTime > stakings[_stakeId].startTime, \"[TKMStaking1A][setStaking]: _endTime is under _startTime\");\r\n            require(_endTime > block.timestamp, \"[TKMStaking1A][setStaking]: _endTime is under now\");\r\n            stakings[_stakeId].endTime = _endTime;\r\n            return;\r\n        }\r\n\r\n        //  \r\n        require(_endTime > block.timestamp, \"[TKMStaking1A][setStaking]: _endTime is under now\");\r\n\r\n        staking storage newStake = stakings[_stakeId];\r\n        newStake.startTime = _startTime;\r\n        newStake.endTime = _endTime;\r\n        newStake.nftAmount = _nftAmount;\r\n    }\r\n\r\n    //  \r\n    function stake(uint256 _stakeId, uint256[] memory _ids) public {\r\n        // stake id \r\n        require(true == stakeIds[_stakeId], \"[TKMStaking1A][stake]: invalid stake id\");\r\n\r\n        //  \r\n        require(stakings[_stakeId].startTime <= block.timestamp, \"[TKMStaking1A][staking]: staking is not started\");\r\n        require(stakings[_stakeId].endTime >= block.timestamp, \"[TKMStaking1A][staking]: staking is ended\");\r\n\r\n        // nft  \r\n        require(stakings[_stakeId].nftAmount == _ids.length, \"[TKMStaking1A][staking]: not equal nftAmount\");\r\n\r\n        //  \r\n        for (uint256 i = 0; i < stakings[_stakeId].nftAmount; i++) {\r\n            require(TKMNft.ownerOf(_ids[i]) == msg.sender, \"[TKMStaking1A][staking]: owner invalid\");\r\n        }\r\n\r\n        //   \r\n        ++stakingIdx;\r\n        for (uint256 i = 0; i < stakings[_stakeId].nftAmount; i++) {\r\n            TKMNft.safeTransferFrom(msg.sender, NftHolder, _ids[i]);\r\n        }\r\n\r\n        //  \r\n        stakingProgress storage progress = progressing[stakingIdx];\r\n        progress.user = msg.sender;\r\n        progress.stakeId = _stakeId;\r\n        progress.ids = _ids;\r\n\r\n        emit Stake(msg.sender, block.number, _stakeId, stakingIdx, _ids);\r\n    }\r\n\r\n    // \r\n    function withdraw(uint256 _stakingIdx) public {\r\n        //      \r\n        require(progressing[_stakingIdx].user != address(0), \"[TKMStaking1A][withdraw]: not exist staking data\");\r\n        require(progressing[_stakingIdx].user == msg.sender, \"[TKMStaking1A][withdraw]: not Owner\");\r\n\r\n        //  \r\n        uint256[] memory ids = progressing[_stakingIdx].ids;\r\n        delete progressing[_stakingIdx];\r\n\r\n        // nft \r\n        for (uint256 i = 0; i < ids.length; i++) {\r\n            TKMNft.safeTransferFrom(NftHolder, msg.sender, ids[i]);\r\n        }\r\n\r\n        emit Withdraw(msg.sender, block.number, _stakingIdx);\r\n    }\r\n\r\n    // harvest\r\n    function harvest(uint256 _stakingIdx) public {\r\n        //      \r\n        require(progressing[_stakingIdx].user != address(0), \"[TKMStaking1A][harvest]: not exist staking data\");\r\n        require(progressing[_stakingIdx].user == msg.sender, \"[TKMStaking1A][harvest]: not Owner\");\r\n\r\n        emit Harvest(msg.sender, block.number, _stakingIdx);\r\n    }\r\n\r\n    function getIds(uint256 _stakingIdx) public view returns (uint256[] memory ids) {\r\n        return progressing[_stakingIdx].ids;\r\n    }\r\n}\r\n",
  "sourcePath": "D:\\github\\solidity_tinyping\\contracts\\TKMStaking1A.sol",
  "compiler": {
    "name": "solc",
    "version": "0.8.14+commit.80d49f37.Emscripten.clang"
  },
  "schemaVersion": "3.4.7",
  "updatedAt": "2022-12-01T02:00:49.926Z",
  "devdoc": {
    "kind": "dev",
    "methods": {},
    "version": 1
  },
  "userdoc": {
    "kind": "user",
    "methods": {},
    "version": 1
  }
}