{
  "contractName": "TKMStaking1A",
  "abi": [
    {
      "inputs": [
        {
          "internalType": "address",
          "name": "_TKMNft",
          "type": "address"
        },
        {
          "internalType": "address",
          "name": "_NftHolder",
          "type": "address"
        }
      ],
      "stateMutability": "nonpayable",
      "type": "constructor"
    },
    {
      "anonymous": false,
      "inputs": [
        {
          "indexed": true,
          "internalType": "address",
          "name": "from",
          "type": "address"
        },
        {
          "indexed": true,
          "internalType": "address",
          "name": "to",
          "type": "address"
        }
      ],
      "name": "ChangeOwner",
      "type": "event"
    },
    {
      "anonymous": false,
      "inputs": [
        {
          "indexed": true,
          "internalType": "address",
          "name": "from",
          "type": "address"
        },
        {
          "indexed": false,
          "internalType": "uint256",
          "name": "blockNumber",
          "type": "uint256"
        },
        {
          "indexed": false,
          "internalType": "uint256",
          "name": "stakingIdx",
          "type": "uint256"
        },
        {
          "indexed": false,
          "internalType": "bool",
          "name": "ended",
          "type": "bool"
        }
      ],
      "name": "Claim",
      "type": "event"
    },
    {
      "anonymous": false,
      "inputs": [
        {
          "indexed": true,
          "internalType": "address",
          "name": "from",
          "type": "address"
        },
        {
          "indexed": false,
          "internalType": "uint256",
          "name": "blockNumber",
          "type": "uint256"
        },
        {
          "indexed": false,
          "internalType": "uint256",
          "name": "stakingIdx",
          "type": "uint256"
        },
        {
          "indexed": false,
          "internalType": "uint8",
          "name": "rewardType",
          "type": "uint8"
        },
        {
          "indexed": false,
          "internalType": "uint256[]",
          "name": "ids",
          "type": "uint256[]"
        }
      ],
      "name": "Stake",
      "type": "event"
    },
    {
      "anonymous": false,
      "inputs": [
        {
          "indexed": true,
          "internalType": "address",
          "name": "from",
          "type": "address"
        },
        {
          "indexed": false,
          "internalType": "uint256",
          "name": "blockNumber",
          "type": "uint256"
        },
        {
          "indexed": false,
          "internalType": "uint256",
          "name": "stakingIdx",
          "type": "uint256"
        }
      ],
      "name": "Withdraw",
      "type": "event"
    },
    {
      "inputs": [],
      "name": "NftHolder",
      "outputs": [
        {
          "internalType": "address",
          "name": "",
          "type": "address"
        }
      ],
      "stateMutability": "view",
      "type": "function",
      "constant": true
    },
    {
      "inputs": [],
      "name": "TKMNft",
      "outputs": [
        {
          "internalType": "contract ERC721",
          "name": "",
          "type": "address"
        }
      ],
      "stateMutability": "view",
      "type": "function",
      "constant": true
    },
    {
      "inputs": [
        {
          "internalType": "address payable",
          "name": "newOwner_",
          "type": "address"
        }
      ],
      "name": "changeOwner",
      "outputs": [],
      "stateMutability": "nonpayable",
      "type": "function"
    },
    {
      "inputs": [],
      "name": "owner",
      "outputs": [
        {
          "internalType": "address payable",
          "name": "",
          "type": "address"
        }
      ],
      "stateMutability": "view",
      "type": "function",
      "constant": true
    },
    {
      "inputs": [
        {
          "internalType": "uint256",
          "name": "",
          "type": "uint256"
        }
      ],
      "name": "progressing",
      "outputs": [
        {
          "internalType": "address",
          "name": "user",
          "type": "address"
        },
        {
          "internalType": "uint8",
          "name": "rewardType",
          "type": "uint8"
        },
        {
          "internalType": "uint8",
          "name": "claimCount",
          "type": "uint8"
        }
      ],
      "stateMutability": "view",
      "type": "function",
      "constant": true
    },
    {
      "inputs": [
        {
          "internalType": "uint256",
          "name": "",
          "type": "uint256"
        }
      ],
      "name": "rewardTypeList",
      "outputs": [
        {
          "internalType": "uint8",
          "name": "",
          "type": "uint8"
        }
      ],
      "stateMutability": "view",
      "type": "function",
      "constant": true
    },
    {
      "inputs": [
        {
          "internalType": "uint8",
          "name": "",
          "type": "uint8"
        }
      ],
      "name": "rewardTypes",
      "outputs": [
        {
          "internalType": "bool",
          "name": "",
          "type": "bool"
        }
      ],
      "stateMutability": "view",
      "type": "function",
      "constant": true
    },
    {
      "inputs": [],
      "name": "stakingIdx",
      "outputs": [
        {
          "internalType": "uint256",
          "name": "",
          "type": "uint256"
        }
      ],
      "stateMutability": "view",
      "type": "function",
      "constant": true
    },
    {
      "inputs": [
        {
          "internalType": "uint8",
          "name": "",
          "type": "uint8"
        }
      ],
      "name": "stakings",
      "outputs": [
        {
          "internalType": "uint256",
          "name": "startTime",
          "type": "uint256"
        },
        {
          "internalType": "uint256",
          "name": "endTime",
          "type": "uint256"
        },
        {
          "internalType": "uint8",
          "name": "nftAmount",
          "type": "uint8"
        },
        {
          "internalType": "uint8",
          "name": "claimMaxCount",
          "type": "uint8"
        }
      ],
      "stateMutability": "view",
      "type": "function",
      "constant": true
    },
    {
      "inputs": [
        {
          "internalType": "uint8",
          "name": "_rewardType",
          "type": "uint8"
        },
        {
          "internalType": "uint256",
          "name": "_startTime",
          "type": "uint256"
        },
        {
          "internalType": "uint256",
          "name": "_endTime",
          "type": "uint256"
        },
        {
          "internalType": "uint8",
          "name": "_nftAmount",
          "type": "uint8"
        },
        {
          "internalType": "uint8",
          "name": "_claimMaxCount",
          "type": "uint8"
        }
      ],
      "name": "setStaking",
      "outputs": [],
      "stateMutability": "nonpayable",
      "type": "function"
    },
    {
      "inputs": [
        {
          "internalType": "uint8",
          "name": "_rewardType",
          "type": "uint8"
        },
        {
          "internalType": "uint256[]",
          "name": "_ids",
          "type": "uint256[]"
        }
      ],
      "name": "stake",
      "outputs": [],
      "stateMutability": "nonpayable",
      "type": "function"
    },
    {
      "inputs": [
        {
          "internalType": "uint256",
          "name": "_stakingIdx",
          "type": "uint256"
        }
      ],
      "name": "withdraw",
      "outputs": [],
      "stateMutability": "nonpayable",
      "type": "function"
    },
    {
      "inputs": [
        {
          "internalType": "uint256",
          "name": "_stakingIdx",
          "type": "uint256"
        }
      ],
      "name": "claim",
      "outputs": [],
      "stateMutability": "nonpayable",
      "type": "function"
    }
  ],
  "bytecode": "0x60806040526040518060600160405280600160ff168152602001600260ff168152602001600360ff1681525060039060036200003d929190620001cb565b503480156200004b57600080fd5b50604051620028a6380380620028a6833981810160405281019062000071919062000302565b336000806101000a81548173ffffffffffffffffffffffffffffffffffffffff021916908373ffffffffffffffffffffffffffffffffffffffff16021790555081600160006101000a81548173ffffffffffffffffffffffffffffffffffffffff021916908373ffffffffffffffffffffffffffffffffffffffff16021790555080600260006101000a81548173ffffffffffffffffffffffffffffffffffffffff021916908373ffffffffffffffffffffffffffffffffffffffff16021790555060005b600380549050811015620001c2576001600460006003848154811062000161576200016062000349565b5b90600052602060002090602091828204019190069054906101000a900460ff1660ff1660ff16815260200190815260200160002060006101000a81548160ff0219169083151502179055508080620001b990620003b1565b91505062000136565b505050620003fe565b82805482825590600052602060002090601f01602090048101928215620002665791602002820160005b838211156200023557835183826101000a81548160ff021916908360ff1602179055509260200192600101602081600001049283019260010302620001f5565b8015620002645782816101000a81549060ff021916905560010160208160000104928301926001030262000235565b505b50905062000275919062000279565b5090565b5b80821115620002945760008160009055506001016200027a565b5090565b600080fd5b600073ffffffffffffffffffffffffffffffffffffffff82169050919050565b6000620002ca826200029d565b9050919050565b620002dc81620002bd565b8114620002e857600080fd5b50565b600081519050620002fc81620002d1565b92915050565b600080604083850312156200031c576200031b62000298565b5b60006200032c85828601620002eb565b92505060206200033f85828601620002eb565b9150509250929050565b7f4e487b7100000000000000000000000000000000000000000000000000000000600052603260045260246000fd5b7f4e487b7100000000000000000000000000000000000000000000000000000000600052601160045260246000fd5b6000819050919050565b6000620003be82620003a7565b91507fffffffffffffffffffffffffffffffffffffffffffffffffffffffffffffffff8203620003f357620003f262000378565b5b600182019050919050565b612498806200040e6000396000f3fe608060405234801561001057600080fd5b50600436106100cf5760003560e01c80638da5cb5b1161008c578063b58634fe11610066578063b58634fe14610213578063b62888bd14610231578063b8ad130114610263578063dab397081461027f576100cf565b80638da5cb5b146101bb578063a6f9dae1146101d9578063b3e78bed146101f5576100cf565b80631237ae53146100d45780632e1a7d4d146101075780633046372914610123578063316868d714610153578063379607f51461016f5780636fbf42621461018b575b600080fd5b6100ee60048036038101906100e99190611481565b61029d565b6040516100fe94939291906114d6565b60405180910390f35b610121600480360381019061011c9190611547565b6102e7565b005b61013d60048036038101906101389190611481565b61064f565b60405161014a919061158f565b60405180910390f35b61016d60048036038101906101689190611703565b61066f565b005b61018960048036038101906101849190611547565b610bb0565b005b6101a560048036038101906101a09190611547565b610ed5565b6040516101b2919061175f565b60405180910390f35b6101c3610f09565b6040516101d091906117bb565b60405180910390f35b6101f360048036038101906101ee9190611802565b610f2d565b005b6101fd6110c7565b60405161020a9190611850565b60405180910390f35b61021b6110ed565b604051610228919061186b565b60405180910390f35b61024b60048036038101906102469190611547565b6110f3565b60405161025a93929190611886565b60405180910390f35b61027d600480360381019061027891906118bd565b611157565b005b610287611383565b6040516102949190611997565b60405180910390f35b60066020528060005260406000206000915090508060000154908060010154908060020160009054906101000a900460ff16908060020160019054906101000a900460ff16905084565b600073ffffffffffffffffffffffffffffffffffffffff166007600083815260200190815260200160002060000160009054906101000a900473ffffffffffffffffffffffffffffffffffffffff1673ffffffffffffffffffffffffffffffffffffffff160361038c576040517f08c379a000000000000000000000000000000000000000000000000000000000815260040161038390611a35565b60405180910390fd5b3373ffffffffffffffffffffffffffffffffffffffff166007600083815260200190815260200160002060000160009054906101000a900473ffffffffffffffffffffffffffffffffffffffff1673ffffffffffffffffffffffffffffffffffffffff1614610430576040517f08c379a000000000000000000000000000000000000000000000000000000000815260040161042790611ac7565b60405180910390fd5b60006007600083815260200190815260200160002060010180548060200260200160405190810160405280929190818152602001828054801561049257602002820191906000526020600020905b81548152602001906001019080831161047e575b5050505050905060076000838152602001908152602001600020600080820160006101000a81549073ffffffffffffffffffffffffffffffffffffffff02191690556000820160146101000a81549060ff02191690556000820160156101000a81549060ff021916905560018201600061050c91906113a9565b505060005b81518110156105fa57600160009054906101000a900473ffffffffffffffffffffffffffffffffffffffff1673ffffffffffffffffffffffffffffffffffffffff166342842e0e600260009054906101000a900473ffffffffffffffffffffffffffffffffffffffff163385858151811061058f5761058e611ae7565b5b60200260200101516040518463ffffffff1660e01b81526004016105b593929190611b16565b600060405180830381600087803b1580156105cf57600080fd5b505af11580156105e3573d6000803e3d6000fd5b5050505080806105f290611b7c565b915050610511565b503373ffffffffffffffffffffffffffffffffffffffff167ff279e6a1f5e320cca91135676d9cb6e44ca8a08c0b88342bcdb1144f6511b5684384604051610643929190611bc4565b60405180910390a25050565b60046020528060005260406000206000915054906101000a900460ff1681565b600460008360ff1660ff16815260200190815260200160002060009054906101000a900460ff16151560011515146106dc576040517f08c379a00000000000000000000000000000000000000000000000000000000081526004016106d390611c5f565b60405180910390fd5b42600660008460ff1660ff16815260200190815260200160002060000154111561073b576040517f08c379a000000000000000000000000000000000000000000000000000000000815260040161073290611cf1565b60405180910390fd5b42600660008460ff1660ff16815260200190815260200160002060010154101561079a576040517f08c379a000000000000000000000000000000000000000000000000000000000815260040161079190611d83565b60405180910390fd5b8051600660008460ff1660ff16815260200190815260200160002060020160009054906101000a900460ff1660ff1614610809576040517f08c379a000000000000000000000000000000000000000000000000000000000815260040161080090611e15565b60405180910390fd5b60005b600660008460ff1660ff16815260200190815260200160002060020160009054906101000a900460ff1660ff16811015610976573373ffffffffffffffffffffffffffffffffffffffff16600160009054906101000a900473ffffffffffffffffffffffffffffffffffffffff1673ffffffffffffffffffffffffffffffffffffffff16636352211e8484815181106108a8576108a7611ae7565b5b60200260200101516040518263ffffffff1660e01b81526004016108cc919061186b565b602060405180830381865afa1580156108e9573d6000803e3d6000fd5b505050506040513d601f19601f8201168201806040525081019061090d9190611e61565b73ffffffffffffffffffffffffffffffffffffffff1614610963576040517f08c379a000000000000000000000000000000000000000000000000000000000815260040161095a90611f00565b60405180910390fd5b808061096e90611b7c565b91505061080c565b5060056000815461098690611b7c565b9190508190555060005b600660008460ff1660ff16815260200190815260200160002060020160009054906101000a900460ff1660ff16811015610aa457600160009054906101000a900473ffffffffffffffffffffffffffffffffffffffff1673ffffffffffffffffffffffffffffffffffffffff166342842e0e33600260009054906101000a900473ffffffffffffffffffffffffffffffffffffffff16858581518110610a3957610a38611ae7565b5b60200260200101516040518463ffffffff1660e01b8152600401610a5f93929190611b16565b600060405180830381600087803b158015610a7957600080fd5b505af1158015610a8d573d6000803e3d6000fd5b505050508080610a9c90611b7c565b915050610990565b5060006007600060055481526020019081526020016000209050338160000160006101000a81548173ffffffffffffffffffffffffffffffffffffffff021916908373ffffffffffffffffffffffffffffffffffffffff160217905550828160000160146101000a81548160ff021916908360ff16021790555060008160000160156101000a81548160ff021916908360ff16021790555081816001019080519060200190610b549291906113ca565b503373ffffffffffffffffffffffffffffffffffffffff167fa7884a9fa9bb1ea02bfb055e44f4af96c1f3df38672511e8280b04df103dd21d436005548686604051610ba39493929190611fde565b60405180910390a2505050565b600073ffffffffffffffffffffffffffffffffffffffff166007600083815260200190815260200160002060000160009054906101000a900473ffffffffffffffffffffffffffffffffffffffff1673ffffffffffffffffffffffffffffffffffffffff1603610c55576040517f08c379a0000000000000000000000000000000000000000000000000000000008152600401610c4c9061209c565b60405180910390fd5b3373ffffffffffffffffffffffffffffffffffffffff166007600083815260200190815260200160002060000160009054906101000a900473ffffffffffffffffffffffffffffffffffffffff1673ffffffffffffffffffffffffffffffffffffffff1614610cf9576040517f08c379a0000000000000000000000000000000000000000000000000000000008152600401610cf09061212e565b60405180910390fd5b600660006007600084815260200190815260200160002060000160149054906101000a900460ff1660ff1660ff16815260200190815260200160002060020160019054906101000a900460ff1660ff166007600083815260200190815260200160002060000160159054906101000a900460ff1660ff1610610db0576040517f08c379a0000000000000000000000000000000000000000000000000000000008152600401610da7906121c0565b60405180910390fd5b600060076000838152602001908152602001600020600001601581819054906101000a900460ff1680929190610de5906121e0565b91906101000a81548160ff021916908360ff16021790555050600660006007600085815260200190815260200160002060000160149054906101000a900460ff1660ff1660ff16815260200190815260200160002060020160019054906101000a900460ff1660ff166007600084815260200190815260200160002060000160159054906101000a900460ff1660ff1610610e7f57600190505b3373ffffffffffffffffffffffffffffffffffffffff167fad82e4ded87b4f1d117a62956445ec6ff411c4f2eb80134db1573f8cb74b86e7438484604051610ec993929190612209565b60405180910390a25050565b60038181548110610ee557600080fd5b9060005260206000209060209182820401919006915054906101000a900460ff1681565b60008054906101000a900473ffffffffffffffffffffffffffffffffffffffff1681565b60008054906101000a900473ffffffffffffffffffffffffffffffffffffffff1673ffffffffffffffffffffffffffffffffffffffff163373ffffffffffffffffffffffffffffffffffffffff1614610fbb576040517f08c379a0000000000000000000000000000000000000000000000000000000008152600401610fb2906122b2565b60405180910390fd5b600073ffffffffffffffffffffffffffffffffffffffff168173ffffffffffffffffffffffffffffffffffffffff160361102a576040517f08c379a00000000000000000000000000000000000000000000000000000000081526004016110219061231e565b60405180910390fd5b806000806101000a81548173ffffffffffffffffffffffffffffffffffffffff021916908373ffffffffffffffffffffffffffffffffffffffff1602179055508073ffffffffffffffffffffffffffffffffffffffff163373ffffffffffffffffffffffffffffffffffffffff167f9aecf86140d81442289f667eb72e1202a8fbb3478a686659952e145e8531965660405160405180910390a350565b600260009054906101000a900473ffffffffffffffffffffffffffffffffffffffff1681565b60055481565b60076020528060005260406000206000915090508060000160009054906101000a900473ffffffffffffffffffffffffffffffffffffffff16908060000160149054906101000a900460ff16908060000160159054906101000a900460ff16905083565b60008054906101000a900473ffffffffffffffffffffffffffffffffffffffff1673ffffffffffffffffffffffffffffffffffffffff163373ffffffffffffffffffffffffffffffffffffffff16146111e5576040517f08c379a00000000000000000000000000000000000000000000000000000000081526004016111dc906122b2565b60405180910390fd5b600660008660ff1660ff168152602001908152602001600020600001546000146112cf57600660008660ff1660ff168152602001908152602001600020600001548311611267576040517f08c379a000000000000000000000000000000000000000000000000000000000815260040161125e906123b0565b60405180910390fd5b4283116112a9576040517f08c379a00000000000000000000000000000000000000000000000000000000081526004016112a090612442565b60405180910390fd5b82600660008760ff1660ff1681526020019081526020016000206001018190555061137c565b428311611311576040517f08c379a000000000000000000000000000000000000000000000000000000000815260040161130890612442565b60405180910390fd5b6000600660008760ff1660ff1681526020019081526020016000209050848160000181905550838160010181905550828160020160006101000a81548160ff021916908360ff160217905550818160020160016101000a81548160ff021916908360ff160217905550505b5050505050565b600160009054906101000a900473ffffffffffffffffffffffffffffffffffffffff1681565b50805460008255906000526020600020908101906113c79190611417565b50565b828054828255906000526020600020908101928215611406579160200282015b828111156114055782518255916020019190600101906113ea565b5b5090506114139190611417565b5090565b5b80821115611430576000816000905550600101611418565b5090565b6000604051905090565b600080fd5b600080fd5b600060ff82169050919050565b61145e81611448565b811461146957600080fd5b50565b60008135905061147b81611455565b92915050565b6000602082840312156114975761149661143e565b5b60006114a58482850161146c565b91505092915050565b6000819050919050565b6114c1816114ae565b82525050565b6114d081611448565b82525050565b60006080820190506114eb60008301876114b8565b6114f860208301866114b8565b61150560408301856114c7565b61151260608301846114c7565b95945050505050565b611524816114ae565b811461152f57600080fd5b50565b6000813590506115418161151b565b92915050565b60006020828403121561155d5761155c61143e565b5b600061156b84828501611532565b91505092915050565b60008115159050919050565b61158981611574565b82525050565b60006020820190506115a46000830184611580565b92915050565b600080fd5b6000601f19601f8301169050919050565b7f4e487b7100000000000000000000000000000000000000000000000000000000600052604160045260246000fd5b6115f8826115af565b810181811067ffffffffffffffff82111715611617576116166115c0565b5b80604052505050565b600061162a611434565b905061163682826115ef565b919050565b600067ffffffffffffffff821115611656576116556115c0565b5b602082029050602081019050919050565b600080fd5b600061167f61167a8461163b565b611620565b905080838252602082019050602084028301858111156116a2576116a1611667565b5b835b818110156116cb57806116b78882611532565b8452602084019350506020810190506116a4565b5050509392505050565b600082601f8301126116ea576116e96115aa565b5b81356116fa84826020860161166c565b91505092915050565b6000806040838503121561171a5761171961143e565b5b60006117288582860161146c565b925050602083013567ffffffffffffffff81111561174957611748611443565b5b611755858286016116d5565b9150509250929050565b600060208201905061177460008301846114c7565b92915050565b600073ffffffffffffffffffffffffffffffffffffffff82169050919050565b60006117a58261177a565b9050919050565b6117b58161179a565b82525050565b60006020820190506117d060008301846117ac565b92915050565b6117df8161179a565b81146117ea57600080fd5b50565b6000813590506117fc816117d6565b92915050565b6000602082840312156118185761181761143e565b5b6000611826848285016117ed565b91505092915050565b600061183a8261177a565b9050919050565b61184a8161182f565b82525050565b60006020820190506118656000830184611841565b92915050565b600060208201905061188060008301846114b8565b92915050565b600060608201905061189b6000830186611841565b6118a860208301856114c7565b6118b560408301846114c7565b949350505050565b600080600080600060a086880312156118d9576118d861143e565b5b60006118e78882890161146c565b95505060206118f888828901611532565b945050604061190988828901611532565b935050606061191a8882890161146c565b925050608061192b8882890161146c565b9150509295509295909350565b6000819050919050565b600061195d6119586119538461177a565b611938565b61177a565b9050919050565b600061196f82611942565b9050919050565b600061198182611964565b9050919050565b61199181611976565b82525050565b60006020820190506119ac6000830184611988565b92915050565b600082825260208201905092915050565b7f5b544b4d5374616b696e674865726f415d5b63616e63656c5d3a206e6f74206560008201527f78697374207374616b696e672064617461000000000000000000000000000000602082015250565b6000611a1f6031836119b2565b9150611a2a826119c3565b604082019050919050565b60006020820190508181036000830152611a4e81611a12565b9050919050565b7f5b544b4d5374616b696e674865726f415d5b63616e63656c5d3a206e6f74204f60008201527f776e657200000000000000000000000000000000000000000000000000000000602082015250565b6000611ab16024836119b2565b9150611abc82611a55565b604082019050919050565b60006020820190508181036000830152611ae081611aa4565b9050919050565b7f4e487b7100000000000000000000000000000000000000000000000000000000600052603260045260246000fd5b6000606082019050611b2b6000830186611841565b611b386020830185611841565b611b4560408301846114b8565b949350505050565b7f4e487b7100000000000000000000000000000000000000000000000000000000600052601160045260246000fd5b6000611b87826114ae565b91507fffffffffffffffffffffffffffffffffffffffffffffffffffffffffffffffff8203611bb957611bb8611b4d565b5b600182019050919050565b6000604082019050611bd960008301856114b8565b611be660208301846114b8565b9392505050565b7f5b544b4d5374616b696e674865726f415d5b7374616b655d3a20696e76616c6960008201527f642072657761726420747970652076616c756500000000000000000000000000602082015250565b6000611c496033836119b2565b9150611c5482611bed565b604082019050919050565b60006020820190508181036000830152611c7881611c3c565b9050919050565b7f5b544b4d5374616b696e674865726f415d5b7374616b696e675d3a207374616b60008201527f696e67206973206e6f7420737461727465640000000000000000000000000000602082015250565b6000611cdb6032836119b2565b9150611ce682611c7f565b604082019050919050565b60006020820190508181036000830152611d0a81611cce565b9050919050565b7f5b544b4d5374616b696e674865726f415d5b7374616b696e675d3a207374616b60008201527f696e6720697320656e6465640000000000000000000000000000000000000000602082015250565b6000611d6d602c836119b2565b9150611d7882611d11565b604082019050919050565b60006020820190508181036000830152611d9c81611d60565b9050919050565b7f5b544b4d5374616b696e674865726f415d5b7374616b696e675d3a206e6f742060008201527f657175616c206e6674416d6f756e740000000000000000000000000000000000602082015250565b6000611dff602f836119b2565b9150611e0a82611da3565b604082019050919050565b60006020820190508181036000830152611e2e81611df2565b9050919050565b611e3e8161182f565b8114611e4957600080fd5b50565b600081519050611e5b81611e35565b92915050565b600060208284031215611e7757611e7661143e565b5b6000611e8584828501611e4c565b91505092915050565b7f5b544b4d5374616b696e674865726f415d5b7374616b696e675d3a206f776e6560008201527f7220696e76616c69640000000000000000000000000000000000000000000000602082015250565b6000611eea6029836119b2565b9150611ef582611e8e565b604082019050919050565b60006020820190508181036000830152611f1981611edd565b9050919050565b600081519050919050565b600082825260208201905092915050565b6000819050602082019050919050565b611f55816114ae565b82525050565b6000611f678383611f4c565b60208301905092915050565b6000602082019050919050565b6000611f8b82611f20565b611f958185611f2b565b9350611fa083611f3c565b8060005b83811015611fd1578151611fb88882611f5b565b9750611fc383611f73565b925050600181019050611fa4565b5085935050505092915050565b6000608082019050611ff360008301876114b8565b61200060208301866114b8565b61200d60408301856114c7565b818103606083015261201f8184611f80565b905095945050505050565b7f5b544b4d5374616b696e674865726f415d5b636c61696d5d3a206e6f7420657860008201527f697374207374616b696e67206461746100000000000000000000000000000000602082015250565b60006120866030836119b2565b91506120918261202a565b604082019050919050565b600060208201905081810360008301526120b581612079565b9050919050565b7f5b544b4d5374616b696e674865726f415d5b636c61696d5d3a206e6f74204f7760008201527f6e65720000000000000000000000000000000000000000000000000000000000602082015250565b60006121186023836119b2565b9150612123826120bc565b604082019050919050565b600060208201905081810360008301526121478161210b565b9050919050565b7f5b544b4d5374616b696e674865726f415d5b636c61696d5d3a20636c61696d2060008201527f6f766572666c6f77000000000000000000000000000000000000000000000000602082015250565b60006121aa6028836119b2565b91506121b58261214e565b604082019050919050565b600060208201905081810360008301526121d98161219d565b9050919050565b60006121eb82611448565b915060ff82036121fe576121fd611b4d565b5b600182019050919050565b600060608201905061221e60008301866114b8565b61222b60208301856114b8565b6122386040830184611580565b949350505050565b7f4f6e6c792074686520636f6e7472616374206f776e65722063616e2063616c6c60008201527f20746869732066756e6374696f6e000000000000000000000000000000000000602082015250565b600061229c602e836119b2565b91506122a782612240565b604082019050919050565b600060208201905081810360008301526122cb8161228f565b9050919050565b7f6e6f74207a65726f206164647265737320666f72206e6577206f776e65720000600082015250565b6000612308601e836119b2565b9150612313826122d2565b602082019050919050565b60006020820190508181036000830152612337816122fb565b9050919050565b7f5b544b4d5374616b696e674865726f415d5b7365745374616b696e675d3a205f60008201527f656e6454696d6520697320756e646572205f737461727454696d650000000000602082015250565b600061239a603b836119b2565b91506123a58261233e565b604082019050919050565b600060208201905081810360008301526123c98161238d565b9050919050565b7f5b544b4d5374616b696e674865726f415d5b7365745374616b696e675d3a205f60008201527f656e6454696d6520697320756e646572206e6f77000000000000000000000000602082015250565b600061242c6034836119b2565b9150612437826123d0565b604082019050919050565b6000602082019050818103600083015261245b8161241f565b905091905056fea2646970667358221220e774fb5eca38b08896ad2d245080bed8d4cd92b5710d82e33fb6b6a6bd3c169364736f6c634300080e0033",
  "immutableReferences": {},
  "source": "// SPDX-License-Identifier: MIT\r\npragma solidity ^0.8.14;\r\n\r\nimport \"@openzeppelin/contracts/token/ERC721/ERC721.sol\";\r\nimport \"./Owner.sol\";\r\n\r\ncontract TKMStaking1A is Owner {\r\n    ERC721 public TKMNft; // tkm nft\r\n    address public NftHolder; // NFT   \r\n\r\n    //  . 1: 3km token, 2: dtc token, 3: gem\r\n    uint8[] public rewardTypeList = [1, 2, 3];\r\n    mapping(uint8 => bool) public rewardTypes;\r\n\r\n    //  \r\n    uint256 public stakingIdx;\r\n\r\n    //  ( ,  ,  , nft id )\r\n    event Stake(address indexed from, uint256 blockNumber, uint256 stakingIdx, uint8 rewardType, uint256[] ids);\r\n    //  \r\n    event Withdraw(address indexed from, uint256 blockNumber, uint256 stakingIdx);\r\n    //  \r\n    event Claim(address indexed from, uint256 blockNumber, uint256 stakingIdx, bool ended);\r\n\r\n    /////////////////////////////////////////////////////\r\n    // Staking\r\n    // Staking \r\n    struct staking {\r\n        uint256 startTime; //  \r\n        uint256 endTime; //  \r\n        uint8 nftAmount; // 1   NFT (3)\r\n        uint8 claimMaxCount; // 1     \r\n    }\r\n\r\n    //  \r\n    mapping(uint8 => staking) public stakings;\r\n\r\n    //  \r\n    struct stakingProgress {\r\n        address user; //   \r\n        uint8 rewardType; //  \r\n        uint8 claimCount; //   \r\n        uint256[] ids; //  NFT ID\r\n    }\r\n\r\n    //  (  =>  )\r\n    mapping(uint256 => stakingProgress) public progressing;\r\n\r\n    constructor(address _TKMNft, address _NftHolder) {\r\n        TKMNft = ERC721(payable(_TKMNft));\r\n        NftHolder = _NftHolder;\r\n\r\n        //   \r\n        for (uint256 i = 0; i < rewardTypeList.length; i++) {\r\n            rewardTypes[rewardTypeList[i]] = true;\r\n        }\r\n    }\r\n\r\n    //   \r\n    function setStaking(\r\n        uint8 _rewardType,\r\n        uint256 _startTime,\r\n        uint256 _endTime,\r\n        uint8 _nftAmount,\r\n        uint8 _claimMaxCount\r\n    ) public onlyOwner {\r\n        //    \r\n        if(0 != stakings[_rewardType].startTime) {\r\n            require(_endTime > stakings[_rewardType].startTime, \"[TKMStakingHeroA][setStaking]: _endTime is under _startTime\");\r\n            require(_endTime > block.timestamp, \"[TKMStakingHeroA][setStaking]: _endTime is under now\");\r\n            stakings[_rewardType].endTime = _endTime;\r\n            return;\r\n        }\r\n\r\n        //  \r\n        require(_endTime > block.timestamp, \"[TKMStakingHeroA][setStaking]: _endTime is under now\");\r\n\r\n        staking storage nation = stakings[_rewardType];\r\n        nation.startTime = _startTime;\r\n        nation.endTime = _endTime;\r\n        nation.nftAmount = _nftAmount;\r\n        nation.claimMaxCount = _claimMaxCount;\r\n    }\r\n\r\n    //  \r\n    function stake(uint8 _rewardType, uint256[] memory _ids) public {\r\n        //  \r\n        require(true == rewardTypes[_rewardType], \"[TKMStakingHeroA][stake]: invalid reward type value\");\r\n\r\n        //  \r\n        require(stakings[_rewardType].startTime <= block.timestamp, \"[TKMStakingHeroA][staking]: staking is not started\");\r\n        require(stakings[_rewardType].endTime >= block.timestamp, \"[TKMStakingHeroA][staking]: staking is ended\");\r\n\r\n        // nft  \r\n        require(stakings[_rewardType].nftAmount == _ids.length, \"[TKMStakingHeroA][staking]: not equal nftAmount\");\r\n\r\n        //  \r\n        for (uint256 i = 0; i < stakings[_rewardType].nftAmount; i++) {\r\n            require(TKMNft.ownerOf(_ids[i]) == msg.sender, \"[TKMStakingHeroA][staking]: owner invalid\");\r\n        }\r\n\r\n        //   \r\n        ++stakingIdx;\r\n        for (uint256 i = 0; i < stakings[_rewardType].nftAmount; i++) {\r\n            TKMNft.safeTransferFrom(msg.sender, NftHolder, _ids[i]);\r\n        }\r\n\r\n        //  \r\n        stakingProgress storage progress = progressing[stakingIdx];\r\n        progress.user = msg.sender;\r\n        progress.rewardType = _rewardType;\r\n        progress.claimCount = 0;\r\n        progress.ids = _ids;\r\n\r\n        emit Stake(msg.sender, block.number, stakingIdx, _rewardType, _ids);\r\n    }\r\n\r\n    // \r\n    function withdraw(uint256 _stakingIdx) public {\r\n        //      \r\n        require(progressing[_stakingIdx].user != address(0), \"[TKMStakingHeroA][cancel]: not exist staking data\");\r\n        require(progressing[_stakingIdx].user == msg.sender, \"[TKMStakingHeroA][cancel]: not Owner\");\r\n\r\n        //  \r\n        uint256[] memory ids = progressing[_stakingIdx].ids;\r\n        delete progressing[_stakingIdx];\r\n\r\n        // nft \r\n        for (uint256 i = 0; i < ids.length; i++) {\r\n            TKMNft.safeTransferFrom(NftHolder, msg.sender, ids[i]);\r\n        }\r\n\r\n        emit Withdraw(msg.sender, block.number, _stakingIdx);\r\n    }\r\n\r\n    // \r\n    function claim(uint256 _stakingIdx) public {\r\n        //      \r\n        require(progressing[_stakingIdx].user != address(0), \"[TKMStakingHeroA][claim]: not exist staking data\");\r\n        require(progressing[_stakingIdx].user == msg.sender, \"[TKMStakingHeroA][claim]: not Owner\");\r\n\r\n        //   \r\n        require(progressing[_stakingIdx].claimCount < stakings[progressing[_stakingIdx].rewardType].claimMaxCount, \"[TKMStakingHeroA][claim]: claim overflow\");\r\n\r\n        //  \r\n        bool ended = false;\r\n        progressing[_stakingIdx].claimCount++;\r\n        if(progressing[_stakingIdx].claimCount >= stakings[progressing[_stakingIdx].rewardType].claimMaxCount) {\r\n            ended = true;\r\n        }\r\n\r\n        emit Claim(msg.sender, block.number, _stakingIdx, ended);\r\n    }\r\n}\r\n",
  "sourcePath": "D:\\github\\solidity_tinyping\\contracts\\TKMStaking1A.sol",
  "compiler": {
    "name": "solc",
    "version": "0.8.14+commit.80d49f37.Emscripten.clang"
  },
  "schemaVersion": "3.4.7",
  "updatedAt": "2022-11-23T01:59:54.598Z",
  "networkType": "ethereum",
  "devdoc": {
    "kind": "dev",
    "methods": {},
    "version": 1
  },
  "userdoc": {
    "kind": "user",
    "methods": {},
    "version": 1
  }
}