{
  "contractName": "TKMBoxA",
  "abi": [
    {
      "inputs": [
        {
          "internalType": "address",
          "name": "minter_",
          "type": "address"
        }
      ],
      "stateMutability": "nonpayable",
      "type": "constructor"
    },
    {
      "anonymous": false,
      "inputs": [
        {
          "indexed": true,
          "internalType": "address",
          "name": "owner",
          "type": "address"
        },
        {
          "indexed": true,
          "internalType": "address",
          "name": "approved",
          "type": "address"
        },
        {
          "indexed": true,
          "internalType": "uint256",
          "name": "tokenId",
          "type": "uint256"
        }
      ],
      "name": "Approval",
      "type": "event"
    },
    {
      "anonymous": false,
      "inputs": [
        {
          "indexed": true,
          "internalType": "address",
          "name": "owner",
          "type": "address"
        },
        {
          "indexed": true,
          "internalType": "address",
          "name": "operator",
          "type": "address"
        },
        {
          "indexed": false,
          "internalType": "bool",
          "name": "approved",
          "type": "bool"
        }
      ],
      "name": "ApprovalForAll",
      "type": "event"
    },
    {
      "anonymous": false,
      "inputs": [
        {
          "indexed": true,
          "internalType": "address",
          "name": "opener",
          "type": "address"
        },
        {
          "indexed": true,
          "internalType": "uint256",
          "name": "tokenId",
          "type": "uint256"
        }
      ],
      "name": "BoxOpen",
      "type": "event"
    },
    {
      "anonymous": false,
      "inputs": [
        {
          "indexed": true,
          "internalType": "address",
          "name": "from",
          "type": "address"
        },
        {
          "indexed": true,
          "internalType": "address",
          "name": "to",
          "type": "address"
        }
      ],
      "name": "ChangeMinter",
      "type": "event"
    },
    {
      "anonymous": false,
      "inputs": [
        {
          "indexed": true,
          "internalType": "address",
          "name": "from",
          "type": "address"
        },
        {
          "indexed": true,
          "internalType": "address",
          "name": "to",
          "type": "address"
        }
      ],
      "name": "ChangeOwner",
      "type": "event"
    },
    {
      "anonymous": false,
      "inputs": [
        {
          "indexed": true,
          "internalType": "address",
          "name": "from",
          "type": "address"
        },
        {
          "indexed": true,
          "internalType": "address",
          "name": "to",
          "type": "address"
        },
        {
          "indexed": true,
          "internalType": "uint256",
          "name": "tokenId",
          "type": "uint256"
        }
      ],
      "name": "Transfer",
      "type": "event"
    },
    {
      "inputs": [
        {
          "internalType": "address",
          "name": "to",
          "type": "address"
        },
        {
          "internalType": "uint256",
          "name": "tokenId",
          "type": "uint256"
        }
      ],
      "name": "approve",
      "outputs": [],
      "stateMutability": "nonpayable",
      "type": "function"
    },
    {
      "inputs": [
        {
          "internalType": "address",
          "name": "owner",
          "type": "address"
        }
      ],
      "name": "balanceOf",
      "outputs": [
        {
          "internalType": "uint256",
          "name": "",
          "type": "uint256"
        }
      ],
      "stateMutability": "view",
      "type": "function",
      "constant": true
    },
    {
      "inputs": [
        {
          "internalType": "uint256",
          "name": "",
          "type": "uint256"
        }
      ],
      "name": "boxOpened",
      "outputs": [
        {
          "internalType": "bool",
          "name": "",
          "type": "bool"
        }
      ],
      "stateMutability": "view",
      "type": "function",
      "constant": true
    },
    {
      "inputs": [
        {
          "internalType": "address",
          "name": "newMinter_",
          "type": "address"
        }
      ],
      "name": "changeMinter",
      "outputs": [],
      "stateMutability": "nonpayable",
      "type": "function"
    },
    {
      "inputs": [
        {
          "internalType": "address payable",
          "name": "newOwner_",
          "type": "address"
        }
      ],
      "name": "changeOwner",
      "outputs": [],
      "stateMutability": "nonpayable",
      "type": "function"
    },
    {
      "inputs": [
        {
          "internalType": "uint256",
          "name": "tokenId",
          "type": "uint256"
        }
      ],
      "name": "getApproved",
      "outputs": [
        {
          "internalType": "address",
          "name": "",
          "type": "address"
        }
      ],
      "stateMutability": "view",
      "type": "function",
      "constant": true
    },
    {
      "inputs": [
        {
          "internalType": "address",
          "name": "owner",
          "type": "address"
        },
        {
          "internalType": "address",
          "name": "operator",
          "type": "address"
        }
      ],
      "name": "isApprovedForAll",
      "outputs": [
        {
          "internalType": "bool",
          "name": "",
          "type": "bool"
        }
      ],
      "stateMutability": "view",
      "type": "function",
      "constant": true
    },
    {
      "inputs": [],
      "name": "minter",
      "outputs": [
        {
          "internalType": "address",
          "name": "",
          "type": "address"
        }
      ],
      "stateMutability": "view",
      "type": "function",
      "constant": true
    },
    {
      "inputs": [],
      "name": "name",
      "outputs": [
        {
          "internalType": "string",
          "name": "",
          "type": "string"
        }
      ],
      "stateMutability": "view",
      "type": "function",
      "constant": true
    },
    {
      "inputs": [],
      "name": "owner",
      "outputs": [
        {
          "internalType": "address payable",
          "name": "",
          "type": "address"
        }
      ],
      "stateMutability": "view",
      "type": "function",
      "constant": true
    },
    {
      "inputs": [
        {
          "internalType": "uint256",
          "name": "tokenId",
          "type": "uint256"
        }
      ],
      "name": "ownerOf",
      "outputs": [
        {
          "internalType": "address",
          "name": "",
          "type": "address"
        }
      ],
      "stateMutability": "view",
      "type": "function",
      "constant": true
    },
    {
      "inputs": [
        {
          "internalType": "address",
          "name": "from",
          "type": "address"
        },
        {
          "internalType": "address",
          "name": "to",
          "type": "address"
        },
        {
          "internalType": "uint256",
          "name": "tokenId",
          "type": "uint256"
        }
      ],
      "name": "safeTransferFrom",
      "outputs": [],
      "stateMutability": "nonpayable",
      "type": "function"
    },
    {
      "inputs": [
        {
          "internalType": "address",
          "name": "from",
          "type": "address"
        },
        {
          "internalType": "address",
          "name": "to",
          "type": "address"
        },
        {
          "internalType": "uint256",
          "name": "tokenId",
          "type": "uint256"
        },
        {
          "internalType": "bytes",
          "name": "_data",
          "type": "bytes"
        }
      ],
      "name": "safeTransferFrom",
      "outputs": [],
      "stateMutability": "nonpayable",
      "type": "function"
    },
    {
      "inputs": [
        {
          "internalType": "address",
          "name": "operator",
          "type": "address"
        },
        {
          "internalType": "bool",
          "name": "approved",
          "type": "bool"
        }
      ],
      "name": "setApprovalForAll",
      "outputs": [],
      "stateMutability": "nonpayable",
      "type": "function"
    },
    {
      "inputs": [],
      "name": "symbol",
      "outputs": [
        {
          "internalType": "string",
          "name": "",
          "type": "string"
        }
      ],
      "stateMutability": "view",
      "type": "function",
      "constant": true
    },
    {
      "inputs": [
        {
          "internalType": "uint256",
          "name": "index",
          "type": "uint256"
        }
      ],
      "name": "tokenByIndex",
      "outputs": [
        {
          "internalType": "uint256",
          "name": "",
          "type": "uint256"
        }
      ],
      "stateMutability": "view",
      "type": "function",
      "constant": true
    },
    {
      "inputs": [
        {
          "internalType": "address",
          "name": "owner",
          "type": "address"
        },
        {
          "internalType": "uint256",
          "name": "index",
          "type": "uint256"
        }
      ],
      "name": "tokenOfOwnerByIndex",
      "outputs": [
        {
          "internalType": "uint256",
          "name": "",
          "type": "uint256"
        }
      ],
      "stateMutability": "view",
      "type": "function",
      "constant": true
    },
    {
      "inputs": [],
      "name": "totalSupply",
      "outputs": [
        {
          "internalType": "uint256",
          "name": "",
          "type": "uint256"
        }
      ],
      "stateMutability": "view",
      "type": "function",
      "constant": true
    },
    {
      "inputs": [
        {
          "internalType": "address",
          "name": "from",
          "type": "address"
        },
        {
          "internalType": "address",
          "name": "to",
          "type": "address"
        },
        {
          "internalType": "uint256",
          "name": "tokenId",
          "type": "uint256"
        }
      ],
      "name": "transferFrom",
      "outputs": [],
      "stateMutability": "nonpayable",
      "type": "function"
    },
    {
      "inputs": [
        {
          "internalType": "uint256",
          "name": "startId",
          "type": "uint256"
        },
        {
          "internalType": "uint256",
          "name": "endId",
          "type": "uint256"
        }
      ],
      "name": "inoMint",
      "outputs": [],
      "stateMutability": "nonpayable",
      "type": "function"
    },
    {
      "inputs": [
        {
          "internalType": "address",
          "name": "owner",
          "type": "address"
        }
      ],
      "name": "collection",
      "outputs": [
        {
          "internalType": "string",
          "name": "",
          "type": "string"
        },
        {
          "components": [
            {
              "internalType": "uint256",
              "name": "tokenId",
              "type": "uint256"
            },
            {
              "internalType": "bool",
              "name": "isOpened",
              "type": "bool"
            }
          ],
          "internalType": "struct TKMBoxA.Boxes[]",
          "name": "",
          "type": "tuple[]"
        }
      ],
      "stateMutability": "view",
      "type": "function",
      "constant": true
    },
    {
      "inputs": [
        {
          "internalType": "uint256",
          "name": "tokenId",
          "type": "uint256"
        }
      ],
      "name": "boxOpen",
      "outputs": [],
      "stateMutability": "nonpayable",
      "type": "function"
    },
    {
      "inputs": [
        {
          "internalType": "uint256",
          "name": "tokenId",
          "type": "uint256"
        }
      ],
      "name": "tokenURI",
      "outputs": [
        {
          "internalType": "string",
          "name": "",
          "type": "string"
        }
      ],
      "stateMutability": "view",
      "type": "function",
      "constant": true
    },
    {
      "inputs": [
        {
          "internalType": "bytes4",
          "name": "interfaceId",
          "type": "bytes4"
        }
      ],
      "name": "supportsInterface",
      "outputs": [
        {
          "internalType": "bool",
          "name": "",
          "type": "bool"
        }
      ],
      "stateMutability": "view",
      "type": "function",
      "constant": true
    }
  ],
  "bytecode": "0x60806040523480156200001157600080fd5b506040516200417b3803806200417b83398181016040528101906200003791906200027c565b806040518060400160405280601c81526020017f5468726565204b696e67646f6d204d756c7469766572736520426f78000000008152506040518060400160405280600881526020017f334b4d426f785f410000000000000000000000000000000000000000000000008152508160009080519060200190620000bc92919062000162565b508060019080519060200190620000d592919062000162565b50505033600b60006101000a81548173ffffffffffffffffffffffffffffffffffffffff021916908373ffffffffffffffffffffffffffffffffffffffff16021790555080600c60006101000a81548173ffffffffffffffffffffffffffffffffffffffff021916908373ffffffffffffffffffffffffffffffffffffffff160217905550505062000312565b8280546200017090620002dd565b90600052602060002090601f016020900481019282620001945760008555620001e0565b82601f10620001af57805160ff1916838001178555620001e0565b82800160010185558215620001e0579182015b82811115620001df578251825591602001919060010190620001c2565b5b509050620001ef9190620001f3565b5090565b5b808211156200020e576000816000905550600101620001f4565b5090565b600080fd5b600073ffffffffffffffffffffffffffffffffffffffff82169050919050565b6000620002448262000217565b9050919050565b620002568162000237565b81146200026257600080fd5b50565b60008151905062000276816200024b565b92915050565b60006020828403121562000295576200029462000212565b5b6000620002a58482850162000265565b91505092915050565b7f4e487b7100000000000000000000000000000000000000000000000000000000600052602260045260246000fd5b60006002820490506001821680620002f657607f821691505b6020821081036200030c576200030b620002ae565b5b50919050565b613e5980620003226000396000f3fe608060405234801561001057600080fd5b50600436106101585760003560e01c80636352211e116100c3578063b88d4fde1161007c578063b88d4fde146103d7578063c87b56dd146103f3578063ccbb776a14610423578063e322b36814610453578063e94886d21461046f578063e985e9c5146104a057610158565b80636352211e1461030357806370a08231146103335780638da5cb5b1461036357806395d89b4114610381578063a22cb4651461039f578063a6f9dae1146103bb57610158565b806323b872dd1161011557806323b872dd146102335780632c4d4d181461024f5780632f745c591461026b57806342842e0e1461029b5780634f6ccce7146102b757806356773406146102e757610158565b806301ffc9a71461015d57806306fdde031461018d57806307546172146101ab578063081812fc146101c9578063095ea7b3146101f957806318160ddd14610215575b600080fd5b610177600480360381019061017291906126c5565b6104d0565b604051610184919061270d565b60405180910390f35b6101956104e2565b6040516101a291906127c1565b60405180910390f35b6101b3610574565b6040516101c09190612824565b60405180910390f35b6101e360048036038101906101de9190612875565b61059a565b6040516101f09190612824565b60405180910390f35b610213600480360381019061020e91906128ce565b61061f565b005b61021d610736565b60405161022a919061291d565b60405180910390f35b61024d60048036038101906102489190612938565b610743565b005b6102696004803603810190610264919061298b565b6107a3565b005b610285600480360381019061028091906128ce565b610940565b604051610292919061291d565b60405180910390f35b6102b560048036038101906102b09190612938565b6109e5565b005b6102d160048036038101906102cc9190612875565b610a05565b6040516102de919061291d565b60405180910390f35b61030160048036038101906102fc91906129b8565b610a76565b005b61031d60048036038101906103189190612875565b610b35565b60405161032a9190612824565b60405180910390f35b61034d6004803603810190610348919061298b565b610be6565b60405161035a919061291d565b60405180910390f35b61036b610c9d565b6040516103789190612a19565b60405180910390f35b610389610cc3565b60405161039691906127c1565b60405180910390f35b6103b960048036038101906103b49190612a60565b610d55565b005b6103d560048036038101906103d09190612acc565b610d6b565b005b6103f160048036038101906103ec9190612c2e565b610f08565b005b61040d60048036038101906104089190612875565b610f6a565b60405161041a91906127c1565b60405180910390f35b61043d60048036038101906104389190612875565b610f7c565b60405161044a919061270d565b60405180910390f35b61046d60048036038101906104689190612875565b610f9c565b005b6104896004803603810190610484919061298b565b6110ec565b604051610497929190612dad565b60405180910390f35b6104ba60048036038101906104b59190612de4565b611204565b6040516104c7919061270d565b60405180910390f35b60006104db82611298565b9050919050565b6060600080546104f190612e53565b80601f016020809104026020016040519081016040528092919081815260200182805461051d90612e53565b801561056a5780601f1061053f5761010080835404028352916020019161056a565b820191906000526020600020905b81548152906001019060200180831161054d57829003601f168201915b5050505050905090565b600c60009054906101000a900473ffffffffffffffffffffffffffffffffffffffff1681565b60006105a582611312565b6105e4576040517f08c379a00000000000000000000000000000000000000000000000000000000081526004016105db90612ef6565b60405180910390fd5b6004600083815260200190815260200160002060009054906101000a900473ffffffffffffffffffffffffffffffffffffffff169050919050565b600061062a82610b35565b90508073ffffffffffffffffffffffffffffffffffffffff168373ffffffffffffffffffffffffffffffffffffffff160361069a576040517f08c379a000000000000000000000000000000000000000000000000000000000815260040161069190612f88565b60405180910390fd5b8073ffffffffffffffffffffffffffffffffffffffff166106b961137e565b73ffffffffffffffffffffffffffffffffffffffff1614806106e857506106e7816106e261137e565b611204565b5b610727576040517f08c379a000000000000000000000000000000000000000000000000000000000815260040161071e9061301a565b60405180910390fd5b6107318383611386565b505050565b6000600880549050905090565b61075461074e61137e565b8261143f565b610793576040517f08c379a000000000000000000000000000000000000000000000000000000000815260040161078a906130ac565b60405180910390fd5b61079e83838361151d565b505050565b600c60009054906101000a900473ffffffffffffffffffffffffffffffffffffffff1673ffffffffffffffffffffffffffffffffffffffff163373ffffffffffffffffffffffffffffffffffffffff1614610833576040517f08c379a000000000000000000000000000000000000000000000000000000000815260040161082a9061313e565b60405180910390fd5b600073ffffffffffffffffffffffffffffffffffffffff168173ffffffffffffffffffffffffffffffffffffffff16036108a2576040517f08c379a0000000000000000000000000000000000000000000000000000000008152600401610899906131aa565b60405180910390fd5b80600c60006101000a81548173ffffffffffffffffffffffffffffffffffffffff021916908373ffffffffffffffffffffffffffffffffffffffff1602179055508073ffffffffffffffffffffffffffffffffffffffff163373ffffffffffffffffffffffffffffffffffffffff167fcba8b2f67b1b66244252c443e6260110af641687bcceb46c810da702119ec82860405160405180910390a350565b600061094b83610be6565b821061098c576040517f08c379a00000000000000000000000000000000000000000000000000000000081526004016109839061323c565b60405180910390fd5b600660008473ffffffffffffffffffffffffffffffffffffffff1673ffffffffffffffffffffffffffffffffffffffff168152602001908152602001600020600083815260200190815260200160002054905092915050565b610a0083838360405180602001604052806000815250610f08565b505050565b6000610a0f610736565b8210610a50576040517f08c379a0000000000000000000000000000000000000000000000000000000008152600401610a47906132ce565b60405180910390fd5b60088281548110610a6457610a636132ee565b5b90600052602060002001549050919050565b600c60009054906101000a900473ffffffffffffffffffffffffffffffffffffffff1673ffffffffffffffffffffffffffffffffffffffff163373ffffffffffffffffffffffffffffffffffffffff1614610b06576040517f08c379a0000000000000000000000000000000000000000000000000000000008152600401610afd9061313e565b60405180910390fd5b60008290505b818111610b3057610b1d3382611783565b8080610b289061334c565b915050610b0c565b505050565b6000806002600084815260200190815260200160002060009054906101000a900473ffffffffffffffffffffffffffffffffffffffff169050600073ffffffffffffffffffffffffffffffffffffffff168173ffffffffffffffffffffffffffffffffffffffff1603610bdd576040517f08c379a0000000000000000000000000000000000000000000000000000000008152600401610bd490613406565b60405180910390fd5b80915050919050565b60008073ffffffffffffffffffffffffffffffffffffffff168273ffffffffffffffffffffffffffffffffffffffff1603610c56576040517f08c379a0000000000000000000000000000000000000000000000000000000008152600401610c4d90613498565b60405180910390fd5b600360008373ffffffffffffffffffffffffffffffffffffffff1673ffffffffffffffffffffffffffffffffffffffff168152602001908152602001600020549050919050565b600b60009054906101000a900473ffffffffffffffffffffffffffffffffffffffff1681565b606060018054610cd290612e53565b80601f0160208091040260200160405190810160405280929190818152602001828054610cfe90612e53565b8015610d4b5780601f10610d2057610100808354040283529160200191610d4b565b820191906000526020600020905b815481529060010190602001808311610d2e57829003601f168201915b5050505050905090565b610d67610d6061137e565b83836117a1565b5050565b600b60009054906101000a900473ffffffffffffffffffffffffffffffffffffffff1673ffffffffffffffffffffffffffffffffffffffff163373ffffffffffffffffffffffffffffffffffffffff1614610dfb576040517f08c379a0000000000000000000000000000000000000000000000000000000008152600401610df29061352a565b60405180910390fd5b600073ffffffffffffffffffffffffffffffffffffffff168173ffffffffffffffffffffffffffffffffffffffff1603610e6a576040517f08c379a0000000000000000000000000000000000000000000000000000000008152600401610e6190613596565b60405180910390fd5b80600b60006101000a81548173ffffffffffffffffffffffffffffffffffffffff021916908373ffffffffffffffffffffffffffffffffffffffff1602179055508073ffffffffffffffffffffffffffffffffffffffff163373ffffffffffffffffffffffffffffffffffffffff167f9aecf86140d81442289f667eb72e1202a8fbb3478a686659952e145e8531965660405160405180910390a350565b610f19610f1361137e565b8361143f565b610f58576040517f08c379a0000000000000000000000000000000000000000000000000000000008152600401610f4f906130ac565b60405180910390fd5b610f648484848461190d565b50505050565b6060610f7582611969565b9050919050565b600d6020528060005260406000206000915054906101000a900460ff1681565b610fa581610b35565b73ffffffffffffffffffffffffffffffffffffffff163373ffffffffffffffffffffffffffffffffffffffff1614611012576040517f08c379a000000000000000000000000000000000000000000000000000000000815260040161100990613628565b60405180910390fd5b600d600082815260200190815260200160002060009054906101000a900460ff1615156000151514611079576040517f08c379a000000000000000000000000000000000000000000000000000000000815260040161107090613694565b60405180910390fd5b6001600d600083815260200190815260200160002060006101000a81548160ff021916908315150217905550803373ffffffffffffffffffffffffffffffffffffffff167fb6d0f573cba3d4a03c7eaa036f7d5a9228d6fb816811d88b4a7c5c9505ffb59260405160405180910390a350565b60608060006110fa84610be6565b905060008167ffffffffffffffff81111561111857611117612b03565b5b60405190808252806020026020018201604052801561115157816020015b61113e61263d565b8152602001906001900390816111365790505b50905060005b828110156111ef57600061116b8783610940565b905080838381518110611181576111806132ee565b5b60200260200101516000018181525050600d600082815260200190815260200160002060009054906101000a900460ff168383815181106111c5576111c46132ee565b5b602002602001015160200190151590811515815250505080806111e79061334c565b915050611157565b506111f8611aba565b81935093505050915091565b6000600560008473ffffffffffffffffffffffffffffffffffffffff1673ffffffffffffffffffffffffffffffffffffffff16815260200190815260200160002060008373ffffffffffffffffffffffffffffffffffffffff1673ffffffffffffffffffffffffffffffffffffffff16815260200190815260200160002060009054906101000a900460ff16905092915050565b60007f780e9d63000000000000000000000000000000000000000000000000000000007bffffffffffffffffffffffffffffffffffffffffffffffffffffffff1916827bffffffffffffffffffffffffffffffffffffffffffffffffffffffff1916148061130b575061130a82611ada565b5b9050919050565b60008073ffffffffffffffffffffffffffffffffffffffff166002600084815260200190815260200160002060009054906101000a900473ffffffffffffffffffffffffffffffffffffffff1673ffffffffffffffffffffffffffffffffffffffff1614159050919050565b600033905090565b816004600083815260200190815260200160002060006101000a81548173ffffffffffffffffffffffffffffffffffffffff021916908373ffffffffffffffffffffffffffffffffffffffff160217905550808273ffffffffffffffffffffffffffffffffffffffff166113f983610b35565b73ffffffffffffffffffffffffffffffffffffffff167f8c5be1e5ebec7d5bd14f71427d1e84f3dd0314c0f7b2291e5b200ac8c7c3b92560405160405180910390a45050565b600061144a82611312565b611489576040517f08c379a000000000000000000000000000000000000000000000000000000000815260040161148090613726565b60405180910390fd5b600061149483610b35565b90508073ffffffffffffffffffffffffffffffffffffffff168473ffffffffffffffffffffffffffffffffffffffff1614806114d657506114d58185611204565b5b8061151457508373ffffffffffffffffffffffffffffffffffffffff166114fc8461059a565b73ffffffffffffffffffffffffffffffffffffffff16145b91505092915050565b8273ffffffffffffffffffffffffffffffffffffffff1661153d82610b35565b73ffffffffffffffffffffffffffffffffffffffff1614611593576040517f08c379a000000000000000000000000000000000000000000000000000000000815260040161158a906137b8565b60405180910390fd5b600073ffffffffffffffffffffffffffffffffffffffff168273ffffffffffffffffffffffffffffffffffffffff1603611602576040517f08c379a00000000000000000000000000000000000000000000000000000000081526004016115f99061384a565b60405180910390fd5b61160d838383611bbc565b611618600082611386565b6001600360008573ffffffffffffffffffffffffffffffffffffffff1673ffffffffffffffffffffffffffffffffffffffff1681526020019081526020016000206000828254611668919061386a565b925050819055506001600360008473ffffffffffffffffffffffffffffffffffffffff1673ffffffffffffffffffffffffffffffffffffffff16815260200190815260200160002060008282546116bf919061389e565b92505081905550816002600083815260200190815260200160002060006101000a81548173ffffffffffffffffffffffffffffffffffffffff021916908373ffffffffffffffffffffffffffffffffffffffff160217905550808273ffffffffffffffffffffffffffffffffffffffff168473ffffffffffffffffffffffffffffffffffffffff167fddf252ad1be2c89b69c2b068fc378daa952ba7f163c4a11628f55a4df523b3ef60405160405180910390a461177e838383611bcc565b505050565b61179d828260405180602001604052806000815250611bd1565b5050565b8173ffffffffffffffffffffffffffffffffffffffff168373ffffffffffffffffffffffffffffffffffffffff160361180f576040517f08c379a000000000000000000000000000000000000000000000000000000000815260040161180690613940565b60405180910390fd5b80600560008573ffffffffffffffffffffffffffffffffffffffff1673ffffffffffffffffffffffffffffffffffffffff16815260200190815260200160002060008473ffffffffffffffffffffffffffffffffffffffff1673ffffffffffffffffffffffffffffffffffffffff16815260200190815260200160002060006101000a81548160ff0219169083151502179055508173ffffffffffffffffffffffffffffffffffffffff168373ffffffffffffffffffffffffffffffffffffffff167f17307eab39ab6107e8899845ad3d59bd9653f200f220920489ca2b5937696c3183604051611900919061270d565b60405180910390a3505050565b61191884848461151d565b61192484848484611c2c565b611963576040517f08c379a000000000000000000000000000000000000000000000000000000000815260040161195a906139d2565b60405180910390fd5b50505050565b606061197482611312565b6119b3576040517f08c379a00000000000000000000000000000000000000000000000000000000081526004016119aa90613a64565b60405180910390fd5b6000600a600084815260200190815260200160002080546119d390612e53565b80601f01602080910402602001604051908101604052809291908181526020018280546119ff90612e53565b8015611a4c5780601f10611a2157610100808354040283529160200191611a4c565b820191906000526020600020905b815481529060010190602001808311611a2f57829003601f168201915b505050505090506000611a5d611aba565b90506000815103611a72578192505050611ab5565b600082511115611aa7578082604051602001611a8f929190613ac0565b60405160208183030381529060405292505050611ab5565b611ab084611db3565b925050505b919050565b6060604051806060016040528060328152602001613df260329139905090565b60007f80ac58cd000000000000000000000000000000000000000000000000000000007bffffffffffffffffffffffffffffffffffffffffffffffffffffffff1916827bffffffffffffffffffffffffffffffffffffffffffffffffffffffff19161480611ba557507f5b5e139f000000000000000000000000000000000000000000000000000000007bffffffffffffffffffffffffffffffffffffffffffffffffffffffff1916827bffffffffffffffffffffffffffffffffffffffffffffffffffffffff1916145b80611bb55750611bb482611e5a565b5b9050919050565b611bc7838383611ec4565b505050565b505050565b611bdb8383611fd6565b611be86000848484611c2c565b611c27576040517f08c379a0000000000000000000000000000000000000000000000000000000008152600401611c1e906139d2565b60405180910390fd5b505050565b6000611c4d8473ffffffffffffffffffffffffffffffffffffffff166121af565b15611da6578373ffffffffffffffffffffffffffffffffffffffff1663150b7a02611c7661137e565b8786866040518563ffffffff1660e01b8152600401611c989493929190613b39565b6020604051808303816000875af1925050508015611cd457506040513d601f19601f82011682018060405250810190611cd19190613b9a565b60015b611d56573d8060008114611d04576040519150601f19603f3d011682016040523d82523d6000602084013e611d09565b606091505b506000815103611d4e576040517f08c379a0000000000000000000000000000000000000000000000000000000008152600401611d45906139d2565b60405180910390fd5b805181602001fd5b63150b7a0260e01b7bffffffffffffffffffffffffffffffffffffffffffffffffffffffff1916817bffffffffffffffffffffffffffffffffffffffffffffffffffffffff191614915050611dab565b600190505b949350505050565b6060611dbe82611312565b611dfd576040517f08c379a0000000000000000000000000000000000000000000000000000000008152600401611df490613c39565b60405180910390fd5b6000611e07611aba565b90506000815111611e275760405180602001604052806000815250611e52565b80611e31846121d2565b604051602001611e42929190613ac0565b6040516020818303038152906040525b915050919050565b60007f01ffc9a7000000000000000000000000000000000000000000000000000000007bffffffffffffffffffffffffffffffffffffffffffffffffffffffff1916827bffffffffffffffffffffffffffffffffffffffffffffffffffffffff1916149050919050565b611ecf838383612332565b600073ffffffffffffffffffffffffffffffffffffffff168373ffffffffffffffffffffffffffffffffffffffff1603611f1157611f0c81612337565b611f50565b8173ffffffffffffffffffffffffffffffffffffffff168373ffffffffffffffffffffffffffffffffffffffff1614611f4f57611f4e8382612380565b5b5b600073ffffffffffffffffffffffffffffffffffffffff168273ffffffffffffffffffffffffffffffffffffffff1603611f9257611f8d816124ed565b611fd1565b8273ffffffffffffffffffffffffffffffffffffffff168273ffffffffffffffffffffffffffffffffffffffff1614611fd057611fcf82826125be565b5b5b505050565b600073ffffffffffffffffffffffffffffffffffffffff168273ffffffffffffffffffffffffffffffffffffffff1603612045576040517f08c379a000000000000000000000000000000000000000000000000000000000815260040161203c90613ca5565b60405180910390fd5b61204e81611312565b1561208e576040517f08c379a000000000000000000000000000000000000000000000000000000000815260040161208590613d11565b60405180910390fd5b61209a60008383611bbc565b6001600360008473ffffffffffffffffffffffffffffffffffffffff1673ffffffffffffffffffffffffffffffffffffffff16815260200190815260200160002060008282546120ea919061389e565b92505081905550816002600083815260200190815260200160002060006101000a81548173ffffffffffffffffffffffffffffffffffffffff021916908373ffffffffffffffffffffffffffffffffffffffff160217905550808273ffffffffffffffffffffffffffffffffffffffff16600073ffffffffffffffffffffffffffffffffffffffff167fddf252ad1be2c89b69c2b068fc378daa952ba7f163c4a11628f55a4df523b3ef60405160405180910390a46121ab60008383611bcc565b5050565b6000808273ffffffffffffffffffffffffffffffffffffffff163b119050919050565b606060008203612219576040518060400160405280600181526020017f3000000000000000000000000000000000000000000000000000000000000000815250905061232d565b600082905060005b6000821461224b5780806122349061334c565b915050600a826122449190613d60565b9150612221565b60008167ffffffffffffffff81111561226757612266612b03565b5b6040519080825280601f01601f1916602001820160405280156122995781602001600182028036833780820191505090505b5090505b60008514612326576001826122b2919061386a565b9150600a856122c19190613d91565b60306122cd919061389e565b60f81b8183815181106122e3576122e26132ee565b5b60200101907effffffffffffffffffffffffffffffffffffffffffffffffffffffffffffff1916908160001a905350600a8561231f9190613d60565b945061229d565b8093505050505b919050565b505050565b6008805490506009600083815260200190815260200160002081905550600881908060018154018082558091505060019003906000526020600020016000909190919091505550565b6000600161238d84610be6565b612397919061386a565b905060006007600084815260200190815260200160002054905081811461247c576000600660008673ffffffffffffffffffffffffffffffffffffffff1673ffffffffffffffffffffffffffffffffffffffff168152602001908152602001600020600084815260200190815260200160002054905080600660008773ffffffffffffffffffffffffffffffffffffffff1673ffffffffffffffffffffffffffffffffffffffff168152602001908152602001600020600084815260200190815260200160002081905550816007600083815260200190815260200160002081905550505b6007600084815260200190815260200160002060009055600660008573ffffffffffffffffffffffffffffffffffffffff1673ffffffffffffffffffffffffffffffffffffffff16815260200190815260200160002060008381526020019081526020016000206000905550505050565b60006001600880549050612501919061386a565b9050600060096000848152602001908152602001600020549050600060088381548110612531576125306132ee565b5b906000526020600020015490508060088381548110612553576125526132ee565b5b9060005260206000200181905550816009600083815260200190815260200160002081905550600960008581526020019081526020016000206000905560088054806125a2576125a1613dc2565b5b6001900381819060005260206000200160009055905550505050565b60006125c983610be6565b905081600660008573ffffffffffffffffffffffffffffffffffffffff1673ffffffffffffffffffffffffffffffffffffffff168152602001908152602001600020600083815260200190815260200160002081905550806007600084815260200190815260200160002081905550505050565b6040518060400160405280600081526020016000151581525090565b6000604051905090565b600080fd5b600080fd5b60007fffffffff0000000000000000000000000000000000000000000000000000000082169050919050565b6126a28161266d565b81146126ad57600080fd5b50565b6000813590506126bf81612699565b92915050565b6000602082840312156126db576126da612663565b5b60006126e9848285016126b0565b91505092915050565b60008115159050919050565b612707816126f2565b82525050565b600060208201905061272260008301846126fe565b92915050565b600081519050919050565b600082825260208201905092915050565b60005b83811015612762578082015181840152602081019050612747565b83811115612771576000848401525b50505050565b6000601f19601f8301169050919050565b600061279382612728565b61279d8185612733565b93506127ad818560208601612744565b6127b681612777565b840191505092915050565b600060208201905081810360008301526127db8184612788565b905092915050565b600073ffffffffffffffffffffffffffffffffffffffff82169050919050565b600061280e826127e3565b9050919050565b61281e81612803565b82525050565b60006020820190506128396000830184612815565b92915050565b6000819050919050565b6128528161283f565b811461285d57600080fd5b50565b60008135905061286f81612849565b92915050565b60006020828403121561288b5761288a612663565b5b600061289984828501612860565b91505092915050565b6128ab81612803565b81146128b657600080fd5b50565b6000813590506128c8816128a2565b92915050565b600080604083850312156128e5576128e4612663565b5b60006128f3858286016128b9565b925050602061290485828601612860565b9150509250929050565b6129178161283f565b82525050565b6000602082019050612932600083018461290e565b92915050565b60008060006060848603121561295157612950612663565b5b600061295f868287016128b9565b9350506020612970868287016128b9565b925050604061298186828701612860565b9150509250925092565b6000602082840312156129a1576129a0612663565b5b60006129af848285016128b9565b91505092915050565b600080604083850312156129cf576129ce612663565b5b60006129dd85828601612860565b92505060206129ee85828601612860565b9150509250929050565b6000612a03826127e3565b9050919050565b612a13816129f8565b82525050565b6000602082019050612a2e6000830184612a0a565b92915050565b612a3d816126f2565b8114612a4857600080fd5b50565b600081359050612a5a81612a34565b92915050565b60008060408385031215612a7757612a76612663565b5b6000612a85858286016128b9565b9250506020612a9685828601612a4b565b9150509250929050565b612aa9816129f8565b8114612ab457600080fd5b50565b600081359050612ac681612aa0565b92915050565b600060208284031215612ae257612ae1612663565b5b6000612af084828501612ab7565b91505092915050565b600080fd5b600080fd5b7f4e487b7100000000000000000000000000000000000000000000000000000000600052604160045260246000fd5b612b3b82612777565b810181811067ffffffffffffffff82111715612b5a57612b59612b03565b5b80604052505050565b6000612b6d612659565b9050612b798282612b32565b919050565b600067ffffffffffffffff821115612b9957612b98612b03565b5b612ba282612777565b9050602081019050919050565b82818337600083830152505050565b6000612bd1612bcc84612b7e565b612b63565b905082815260208101848484011115612bed57612bec612afe565b5b612bf8848285612baf565b509392505050565b600082601f830112612c1557612c14612af9565b5b8135612c25848260208601612bbe565b91505092915050565b60008060008060808587031215612c4857612c47612663565b5b6000612c56878288016128b9565b9450506020612c67878288016128b9565b9350506040612c7887828801612860565b925050606085013567ffffffffffffffff811115612c9957612c98612668565b5b612ca587828801612c00565b91505092959194509250565b600081519050919050565b600082825260208201905092915050565b6000819050602082019050919050565b612ce68161283f565b82525050565b612cf5816126f2565b82525050565b604082016000820151612d116000850182612cdd565b506020820151612d246020850182612cec565b50505050565b6000612d368383612cfb565b60408301905092915050565b6000602082019050919050565b6000612d5a82612cb1565b612d648185612cbc565b9350612d6f83612ccd565b8060005b83811015612da0578151612d878882612d2a565b9750612d9283612d42565b925050600181019050612d73565b5085935050505092915050565b60006040820190508181036000830152612dc78185612788565b90508181036020830152612ddb8184612d4f565b90509392505050565b60008060408385031215612dfb57612dfa612663565b5b6000612e09858286016128b9565b9250506020612e1a858286016128b9565b9150509250929050565b7f4e487b7100000000000000000000000000000000000000000000000000000000600052602260045260246000fd5b60006002820490506001821680612e6b57607f821691505b602082108103612e7e57612e7d612e24565b5b50919050565b7f4552433732313a20617070726f76656420717565727920666f72206e6f6e657860008201527f697374656e7420746f6b656e0000000000000000000000000000000000000000602082015250565b6000612ee0602c83612733565b9150612eeb82612e84565b604082019050919050565b60006020820190508181036000830152612f0f81612ed3565b9050919050565b7f4552433732313a20617070726f76616c20746f2063757272656e74206f776e6560008201527f7200000000000000000000000000000000000000000000000000000000000000602082015250565b6000612f72602183612733565b9150612f7d82612f16565b604082019050919050565b60006020820190508181036000830152612fa181612f65565b9050919050565b7f4552433732313a20617070726f76652063616c6c6572206973206e6f74206f7760008201527f6e6572206e6f7220617070726f76656420666f7220616c6c0000000000000000602082015250565b6000613004603883612733565b915061300f82612fa8565b604082019050919050565b6000602082019050818103600083015261303381612ff7565b9050919050565b7f4552433732313a207472616e736665722063616c6c6572206973206e6f74206f60008201527f776e6572206e6f7220617070726f766564000000000000000000000000000000602082015250565b6000613096603183612733565b91506130a18261303a565b604082019050919050565b600060208201905081810360008301526130c581613089565b9050919050565b7f4f6e6c792074686520636f6e7472616374206d696e7465722063616e2063616c60008201527f6c20746869732066756e6374696f6e0000000000000000000000000000000000602082015250565b6000613128602f83612733565b9150613133826130cc565b604082019050919050565b600060208201905081810360008301526131578161311b565b9050919050565b7f6e6f74207a65726f206164647265737320666f72206e6577206d696e74657200600082015250565b6000613194601f83612733565b915061319f8261315e565b602082019050919050565b600060208201905081810360008301526131c381613187565b9050919050565b7f455243373231456e756d657261626c653a206f776e657220696e646578206f7560008201527f74206f6620626f756e6473000000000000000000000000000000000000000000602082015250565b6000613226602b83612733565b9150613231826131ca565b604082019050919050565b6000602082019050818103600083015261325581613219565b9050919050565b7f455243373231456e756d657261626c653a20676c6f62616c20696e646578206f60008201527f7574206f6620626f756e64730000000000000000000000000000000000000000602082015250565b60006132b8602c83612733565b91506132c38261325c565b604082019050919050565b600060208201905081810360008301526132e7816132ab565b9050919050565b7f4e487b7100000000000000000000000000000000000000000000000000000000600052603260045260246000fd5b7f4e487b7100000000000000000000000000000000000000000000000000000000600052601160045260246000fd5b60006133578261283f565b91507fffffffffffffffffffffffffffffffffffffffffffffffffffffffffffffffff82036133895761338861331d565b5b600182019050919050565b7f4552433732313a206f776e657220717565727920666f72206e6f6e657869737460008201527f656e7420746f6b656e0000000000000000000000000000000000000000000000602082015250565b60006133f0602983612733565b91506133fb82613394565b604082019050919050565b6000602082019050818103600083015261341f816133e3565b9050919050565b7f4552433732313a2062616c616e636520717565727920666f7220746865207a6560008201527f726f206164647265737300000000000000000000000000000000000000000000602082015250565b6000613482602a83612733565b915061348d82613426565b604082019050919050565b600060208201905081810360008301526134b181613475565b9050919050565b7f4f6e6c792074686520636f6e7472616374206f776e65722063616e2063616c6c60008201527f20746869732066756e6374696f6e000000000000000000000000000000000000602082015250565b6000613514602e83612733565b915061351f826134b8565b604082019050919050565b6000602082019050818103600083015261354381613507565b9050919050565b7f6e6f74207a65726f206164647265737320666f72206e6577206f776e65720000600082015250565b6000613580601e83612733565b915061358b8261354a565b602082019050919050565b600060208201905081810360008301526135af81613573565b9050919050565b7f544b4d426f783a206f6e6c7920746f6b656e206f776e65722063616e206f706560008201527f6e00000000000000000000000000000000000000000000000000000000000000602082015250565b6000613612602183612733565b915061361d826135b6565b604082019050919050565b6000602082019050818103600083015261364181613605565b9050919050565b7f544b4d426f783a20616c726561647920746f6b656e206973206f70656e656400600082015250565b600061367e601f83612733565b915061368982613648565b602082019050919050565b600060208201905081810360008301526136ad81613671565b9050919050565b7f4552433732313a206f70657261746f7220717565727920666f72206e6f6e657860008201527f697374656e7420746f6b656e0000000000000000000000000000000000000000602082015250565b6000613710602c83612733565b915061371b826136b4565b604082019050919050565b6000602082019050818103600083015261373f81613703565b9050919050565b7f4552433732313a207472616e736665722066726f6d20696e636f72726563742060008201527f6f776e6572000000000000000000000000000000000000000000000000000000602082015250565b60006137a2602583612733565b91506137ad82613746565b604082019050919050565b600060208201905081810360008301526137d181613795565b9050919050565b7f4552433732313a207472616e7366657220746f20746865207a65726f2061646460008201527f7265737300000000000000000000000000000000000000000000000000000000602082015250565b6000613834602483612733565b915061383f826137d8565b604082019050919050565b6000602082019050818103600083015261386381613827565b9050919050565b60006138758261283f565b91506138808361283f565b9250828210156138935761389261331d565b5b828203905092915050565b60006138a98261283f565b91506138b48361283f565b9250827fffffffffffffffffffffffffffffffffffffffffffffffffffffffffffffffff038211156138e9576138e861331d565b5b828201905092915050565b7f4552433732313a20617070726f766520746f2063616c6c657200000000000000600082015250565b600061392a601983612733565b9150613935826138f4565b602082019050919050565b600060208201905081810360008301526139598161391d565b9050919050565b7f4552433732313a207472616e7366657220746f206e6f6e20455243373231526560008201527f63656976657220696d706c656d656e7465720000000000000000000000000000602082015250565b60006139bc603283612733565b91506139c782613960565b604082019050919050565b600060208201905081810360008301526139eb816139af565b9050919050565b7f45524337323155524953746f726167653a2055524920717565727920666f722060008201527f6e6f6e6578697374656e7420746f6b656e000000000000000000000000000000602082015250565b6000613a4e603183612733565b9150613a59826139f2565b604082019050919050565b60006020820190508181036000830152613a7d81613a41565b9050919050565b600081905092915050565b6000613a9a82612728565b613aa48185613a84565b9350613ab4818560208601612744565b80840191505092915050565b6000613acc8285613a8f565b9150613ad88284613a8f565b91508190509392505050565b600081519050919050565b600082825260208201905092915050565b6000613b0b82613ae4565b613b158185613aef565b9350613b25818560208601612744565b613b2e81612777565b840191505092915050565b6000608082019050613b4e6000830187612815565b613b5b6020830186612815565b613b68604083018561290e565b8181036060830152613b7a8184613b00565b905095945050505050565b600081519050613b9481612699565b92915050565b600060208284031215613bb057613baf612663565b5b6000613bbe84828501613b85565b91505092915050565b7f4552433732314d657461646174613a2055524920717565727920666f72206e6f60008201527f6e6578697374656e7420746f6b656e0000000000000000000000000000000000602082015250565b6000613c23602f83612733565b9150613c2e82613bc7565b604082019050919050565b60006020820190508181036000830152613c5281613c16565b9050919050565b7f4552433732313a206d696e7420746f20746865207a65726f2061646472657373600082015250565b6000613c8f602083612733565b9150613c9a82613c59565b602082019050919050565b60006020820190508181036000830152613cbe81613c82565b9050919050565b7f4552433732313a20746f6b656e20616c7265616479206d696e74656400000000600082015250565b6000613cfb601c83612733565b9150613d0682613cc5565b602082019050919050565b60006020820190508181036000830152613d2a81613cee565b9050919050565b7f4e487b7100000000000000000000000000000000000000000000000000000000600052601260045260246000fd5b6000613d6b8261283f565b9150613d768361283f565b925082613d8657613d85613d31565b5b828204905092915050565b6000613d9c8261283f565b9150613da78361283f565b925082613db757613db6613d31565b5b828206905092915050565b7f4e487b7100000000000000000000000000000000000000000000000000000000600052603160045260246000fdfe68747470733a2f2f616c7068612d6170692e7072756e656d61726b65742e78797a3a3535322f6e66742f696e6f2f746b6d2fa2646970667358221220c1b9539401b00ce23baa041640492a846922f2b44580c653e99ee64e4094fbd164736f6c634300080e0033",
  "immutableReferences": {},
  "source": "// SPDX-License-Identifier: MIT\r\n\r\npragma solidity ^0.8.14;\r\n\r\nimport \"@openzeppelin/contracts/token/ERC721/ERC721.sol\";\r\nimport \"@openzeppelin/contracts/token/ERC721/extensions/ERC721Enumerable.sol\";\r\nimport \"@openzeppelin/contracts/token/ERC721/extensions/ERC721URIStorage.sol\";\r\nimport \"./Owner.sol\";\r\n\r\ncontract TKMBoxA is ERC721, ERC721Enumerable, ERC721URIStorage, Owner, Minter {\r\n    event BoxOpen(address indexed opener, uint256 indexed tokenId);\r\n\r\n    // owned box\r\n    struct Boxes {\r\n        uint256 tokenId;\r\n        bool isOpened;\r\n    }\r\n\r\n    // Mapping from token ID to box opened\r\n    mapping(uint256 => bool) public boxOpened;\r\n\r\n    constructor(address minter_)\r\n        ERC721(\"Three Kingdom Multiverse Box\", \"3KMBox_A\")\r\n        Minter(minter_)\r\n    {}\r\n\r\n    function inoMint(uint256 startId, uint256 endId) external onlyMinter {\r\n        for (uint256 k = startId; k <= endId; k++) {\r\n            _safeMint(msg.sender, k);\r\n        }\r\n    }\r\n\r\n    function collection(address owner)\r\n        public\r\n        view\r\n        returns (string memory, Boxes[] memory)\r\n    {\r\n        uint256 boxAmount = ERC721.balanceOf(owner);\r\n        Boxes[] memory boxes = new Boxes[](boxAmount);\r\n        for (uint256 i = 0; i < boxAmount; i++) {\r\n            uint256 tokenId = ERC721Enumerable.tokenOfOwnerByIndex(owner, i);\r\n            boxes[i].tokenId = tokenId;\r\n            boxes[i].isOpened = boxOpened[tokenId];\r\n        }\r\n        return (_baseURI(), boxes);\r\n    }\r\n\r\n    function boxOpen(uint256 tokenId) external {\r\n        require(\r\n            msg.sender == ownerOf(tokenId),\r\n            \"TKMBox: only token owner can open\"\r\n        );\r\n        require(\r\n            false == boxOpened[tokenId],\r\n            \"TKMBox: already token is opened\"\r\n        );\r\n        boxOpened[tokenId] = true;\r\n        emit BoxOpen(msg.sender, tokenId);\r\n    }\r\n\r\n    function _baseURI() internal pure override returns (string memory) {\r\n        return \"https://alpha-api.prunemarket.xyz:552/nft/ino/tkm/\";\r\n    }\r\n\r\n    function _beforeTokenTransfer(\r\n        address from,\r\n        address to,\r\n        uint256 tokenId\r\n    ) internal override(ERC721, ERC721Enumerable) {\r\n        super._beforeTokenTransfer(from, to, tokenId);\r\n    }\r\n\r\n    function _burn(uint256 tokenId)\r\n        internal\r\n        override(ERC721, ERC721URIStorage)\r\n    {\r\n        super._burn(tokenId);\r\n    }\r\n\r\n    function tokenURI(uint256 tokenId)\r\n        public\r\n        view\r\n        override(ERC721, ERC721URIStorage)\r\n        returns (string memory)\r\n    {\r\n        return super.tokenURI(tokenId);\r\n    }\r\n\r\n    function supportsInterface(bytes4 interfaceId)\r\n        public\r\n        view\r\n        override(ERC721, ERC721Enumerable)\r\n        returns (bool)\r\n    {\r\n        return super.supportsInterface(interfaceId);\r\n    }\r\n}\r\n",
  "sourcePath": "C:\\Works\\1_Github\\solidity_tinyping\\contracts\\TKMBoxA.sol",
  "compiler": {
    "name": "solc",
    "version": "0.8.14+commit.80d49f37.Emscripten.clang"
  },
  "schemaVersion": "3.4.7",
  "updatedAt": "2022-09-14T01:37:08.554Z",
  "networkType": "ethereum",
  "devdoc": {
    "kind": "dev",
    "methods": {
      "approve(address,uint256)": {
        "details": "See {IERC721-approve}."
      },
      "balanceOf(address)": {
        "details": "See {IERC721-balanceOf}."
      },
      "getApproved(uint256)": {
        "details": "See {IERC721-getApproved}."
      },
      "isApprovedForAll(address,address)": {
        "details": "See {IERC721-isApprovedForAll}."
      },
      "name()": {
        "details": "See {IERC721Metadata-name}."
      },
      "ownerOf(uint256)": {
        "details": "See {IERC721-ownerOf}."
      },
      "safeTransferFrom(address,address,uint256)": {
        "details": "See {IERC721-safeTransferFrom}."
      },
      "safeTransferFrom(address,address,uint256,bytes)": {
        "details": "See {IERC721-safeTransferFrom}."
      },
      "setApprovalForAll(address,bool)": {
        "details": "See {IERC721-setApprovalForAll}."
      },
      "symbol()": {
        "details": "See {IERC721Metadata-symbol}."
      },
      "tokenByIndex(uint256)": {
        "details": "See {IERC721Enumerable-tokenByIndex}."
      },
      "tokenOfOwnerByIndex(address,uint256)": {
        "details": "See {IERC721Enumerable-tokenOfOwnerByIndex}."
      },
      "totalSupply()": {
        "details": "See {IERC721Enumerable-totalSupply}."
      },
      "transferFrom(address,address,uint256)": {
        "details": "See {IERC721-transferFrom}."
      }
    },
    "version": 1
  },
  "userdoc": {
    "kind": "user",
    "methods": {},
    "version": 1
  }
}