{
  "contractName": "TKMBoxB",
  "abi": [
    {
      "inputs": [
        {
          "internalType": "address",
          "name": "minter_",
          "type": "address"
        }
      ],
      "stateMutability": "nonpayable",
      "type": "constructor"
    },
    {
      "anonymous": false,
      "inputs": [
        {
          "indexed": true,
          "internalType": "address",
          "name": "owner",
          "type": "address"
        },
        {
          "indexed": true,
          "internalType": "address",
          "name": "approved",
          "type": "address"
        },
        {
          "indexed": true,
          "internalType": "uint256",
          "name": "tokenId",
          "type": "uint256"
        }
      ],
      "name": "Approval",
      "type": "event"
    },
    {
      "anonymous": false,
      "inputs": [
        {
          "indexed": true,
          "internalType": "address",
          "name": "owner",
          "type": "address"
        },
        {
          "indexed": true,
          "internalType": "address",
          "name": "operator",
          "type": "address"
        },
        {
          "indexed": false,
          "internalType": "bool",
          "name": "approved",
          "type": "bool"
        }
      ],
      "name": "ApprovalForAll",
      "type": "event"
    },
    {
      "anonymous": false,
      "inputs": [
        {
          "indexed": true,
          "internalType": "address",
          "name": "opener",
          "type": "address"
        },
        {
          "indexed": true,
          "internalType": "uint256",
          "name": "tokenId",
          "type": "uint256"
        }
      ],
      "name": "BoxOpen",
      "type": "event"
    },
    {
      "anonymous": false,
      "inputs": [
        {
          "indexed": true,
          "internalType": "address",
          "name": "from",
          "type": "address"
        },
        {
          "indexed": true,
          "internalType": "address",
          "name": "to",
          "type": "address"
        }
      ],
      "name": "ChangeMinter",
      "type": "event"
    },
    {
      "anonymous": false,
      "inputs": [
        {
          "indexed": true,
          "internalType": "address",
          "name": "from",
          "type": "address"
        },
        {
          "indexed": true,
          "internalType": "address",
          "name": "to",
          "type": "address"
        }
      ],
      "name": "ChangeOwner",
      "type": "event"
    },
    {
      "anonymous": false,
      "inputs": [
        {
          "indexed": true,
          "internalType": "address",
          "name": "from",
          "type": "address"
        },
        {
          "indexed": true,
          "internalType": "address",
          "name": "to",
          "type": "address"
        },
        {
          "indexed": true,
          "internalType": "uint256",
          "name": "tokenId",
          "type": "uint256"
        }
      ],
      "name": "Transfer",
      "type": "event"
    },
    {
      "inputs": [
        {
          "internalType": "address",
          "name": "to",
          "type": "address"
        },
        {
          "internalType": "uint256",
          "name": "tokenId",
          "type": "uint256"
        }
      ],
      "name": "approve",
      "outputs": [],
      "stateMutability": "nonpayable",
      "type": "function"
    },
    {
      "inputs": [
        {
          "internalType": "address",
          "name": "owner",
          "type": "address"
        }
      ],
      "name": "balanceOf",
      "outputs": [
        {
          "internalType": "uint256",
          "name": "",
          "type": "uint256"
        }
      ],
      "stateMutability": "view",
      "type": "function"
    },
    {
      "inputs": [
        {
          "internalType": "address",
          "name": "newMinter_",
          "type": "address"
        }
      ],
      "name": "changeMinter",
      "outputs": [],
      "stateMutability": "nonpayable",
      "type": "function"
    },
    {
      "inputs": [
        {
          "internalType": "address payable",
          "name": "newOwner_",
          "type": "address"
        }
      ],
      "name": "changeOwner",
      "outputs": [],
      "stateMutability": "nonpayable",
      "type": "function"
    },
    {
      "inputs": [
        {
          "internalType": "uint256",
          "name": "tokenId",
          "type": "uint256"
        }
      ],
      "name": "getApproved",
      "outputs": [
        {
          "internalType": "address",
          "name": "",
          "type": "address"
        }
      ],
      "stateMutability": "view",
      "type": "function"
    },
    {
      "inputs": [
        {
          "internalType": "address",
          "name": "owner",
          "type": "address"
        },
        {
          "internalType": "address",
          "name": "operator",
          "type": "address"
        }
      ],
      "name": "isApprovedForAll",
      "outputs": [
        {
          "internalType": "bool",
          "name": "",
          "type": "bool"
        }
      ],
      "stateMutability": "view",
      "type": "function"
    },
    {
      "inputs": [],
      "name": "minter",
      "outputs": [
        {
          "internalType": "address",
          "name": "",
          "type": "address"
        }
      ],
      "stateMutability": "view",
      "type": "function"
    },
    {
      "inputs": [],
      "name": "name",
      "outputs": [
        {
          "internalType": "string",
          "name": "",
          "type": "string"
        }
      ],
      "stateMutability": "view",
      "type": "function"
    },
    {
      "inputs": [],
      "name": "owner",
      "outputs": [
        {
          "internalType": "address payable",
          "name": "",
          "type": "address"
        }
      ],
      "stateMutability": "view",
      "type": "function"
    },
    {
      "inputs": [
        {
          "internalType": "uint256",
          "name": "tokenId",
          "type": "uint256"
        }
      ],
      "name": "ownerOf",
      "outputs": [
        {
          "internalType": "address",
          "name": "",
          "type": "address"
        }
      ],
      "stateMutability": "view",
      "type": "function"
    },
    {
      "inputs": [
        {
          "internalType": "address",
          "name": "from",
          "type": "address"
        },
        {
          "internalType": "address",
          "name": "to",
          "type": "address"
        },
        {
          "internalType": "uint256",
          "name": "tokenId",
          "type": "uint256"
        }
      ],
      "name": "safeTransferFrom",
      "outputs": [],
      "stateMutability": "nonpayable",
      "type": "function"
    },
    {
      "inputs": [
        {
          "internalType": "address",
          "name": "from",
          "type": "address"
        },
        {
          "internalType": "address",
          "name": "to",
          "type": "address"
        },
        {
          "internalType": "uint256",
          "name": "tokenId",
          "type": "uint256"
        },
        {
          "internalType": "bytes",
          "name": "_data",
          "type": "bytes"
        }
      ],
      "name": "safeTransferFrom",
      "outputs": [],
      "stateMutability": "nonpayable",
      "type": "function"
    },
    {
      "inputs": [
        {
          "internalType": "address",
          "name": "operator",
          "type": "address"
        },
        {
          "internalType": "bool",
          "name": "approved",
          "type": "bool"
        }
      ],
      "name": "setApprovalForAll",
      "outputs": [],
      "stateMutability": "nonpayable",
      "type": "function"
    },
    {
      "inputs": [],
      "name": "symbol",
      "outputs": [
        {
          "internalType": "string",
          "name": "",
          "type": "string"
        }
      ],
      "stateMutability": "view",
      "type": "function"
    },
    {
      "inputs": [
        {
          "internalType": "uint256",
          "name": "index",
          "type": "uint256"
        }
      ],
      "name": "tokenByIndex",
      "outputs": [
        {
          "internalType": "uint256",
          "name": "",
          "type": "uint256"
        }
      ],
      "stateMutability": "view",
      "type": "function"
    },
    {
      "inputs": [
        {
          "internalType": "address",
          "name": "owner",
          "type": "address"
        },
        {
          "internalType": "uint256",
          "name": "index",
          "type": "uint256"
        }
      ],
      "name": "tokenOfOwnerByIndex",
      "outputs": [
        {
          "internalType": "uint256",
          "name": "",
          "type": "uint256"
        }
      ],
      "stateMutability": "view",
      "type": "function"
    },
    {
      "inputs": [],
      "name": "totalSupply",
      "outputs": [
        {
          "internalType": "uint256",
          "name": "",
          "type": "uint256"
        }
      ],
      "stateMutability": "view",
      "type": "function"
    },
    {
      "inputs": [
        {
          "internalType": "address",
          "name": "from",
          "type": "address"
        },
        {
          "internalType": "address",
          "name": "to",
          "type": "address"
        },
        {
          "internalType": "uint256",
          "name": "tokenId",
          "type": "uint256"
        }
      ],
      "name": "transferFrom",
      "outputs": [],
      "stateMutability": "nonpayable",
      "type": "function"
    },
    {
      "inputs": [
        {
          "internalType": "address",
          "name": "to",
          "type": "address"
        },
        {
          "internalType": "uint256",
          "name": "startId",
          "type": "uint256"
        },
        {
          "internalType": "uint256",
          "name": "endId",
          "type": "uint256"
        }
      ],
      "name": "inoMint",
      "outputs": [],
      "stateMutability": "nonpayable",
      "type": "function"
    },
    {
      "inputs": [
        {
          "internalType": "address",
          "name": "owner",
          "type": "address"
        }
      ],
      "name": "collection",
      "outputs": [
        {
          "internalType": "uint256[]",
          "name": "",
          "type": "uint256[]"
        }
      ],
      "stateMutability": "view",
      "type": "function"
    },
    {
      "inputs": [
        {
          "internalType": "uint256",
          "name": "tokenId",
          "type": "uint256"
        }
      ],
      "name": "boxOpen",
      "outputs": [],
      "stateMutability": "nonpayable",
      "type": "function"
    },
    {
      "inputs": [
        {
          "internalType": "uint256",
          "name": "tokenId",
          "type": "uint256"
        }
      ],
      "name": "tokenURI",
      "outputs": [
        {
          "internalType": "string",
          "name": "",
          "type": "string"
        }
      ],
      "stateMutability": "view",
      "type": "function"
    },
    {
      "inputs": [
        {
          "internalType": "bytes4",
          "name": "interfaceId",
          "type": "bytes4"
        }
      ],
      "name": "supportsInterface",
      "outputs": [
        {
          "internalType": "bool",
          "name": "",
          "type": "bool"
        }
      ],
      "stateMutability": "view",
      "type": "function"
    }
  ],
  "bytecode": "0x60806040523480156200001157600080fd5b506040516200413d3803806200413d83398181016040528101906200003791906200027c565b806040518060400160405280601c81526020017f5468726565204b696e67646f6d204d756c7469766572736520426f78000000008152506040518060400160405280600881526020017f334b4d426f785f420000000000000000000000000000000000000000000000008152508160009080519060200190620000bc92919062000162565b508060019080519060200190620000d592919062000162565b50505033600b60006101000a81548173ffffffffffffffffffffffffffffffffffffffff021916908373ffffffffffffffffffffffffffffffffffffffff16021790555080600c60006101000a81548173ffffffffffffffffffffffffffffffffffffffff021916908373ffffffffffffffffffffffffffffffffffffffff160217905550505062000312565b8280546200017090620002dd565b90600052602060002090601f016020900481019282620001945760008555620001e0565b82601f10620001af57805160ff1916838001178555620001e0565b82800160010185558215620001e0579182015b82811115620001df578251825591602001919060010190620001c2565b5b509050620001ef9190620001f3565b5090565b5b808211156200020e576000816000905550600101620001f4565b5090565b600080fd5b600073ffffffffffffffffffffffffffffffffffffffff82169050919050565b6000620002448262000217565b9050919050565b620002568162000237565b81146200026257600080fd5b50565b60008151905062000276816200024b565b92915050565b60006020828403121562000295576200029462000212565b5b6000620002a58482850162000265565b91505092915050565b7f4e487b7100000000000000000000000000000000000000000000000000000000600052602260045260246000fd5b60006002820490506001821680620002f657607f821691505b6020821081036200030c576200030b620002ae565b5b50919050565b613e1b80620003226000396000f3fe608060405234801561001057600080fd5b506004361061014d5760003560e01c80636352211e116100c3578063a6f9dae11161007c578063a6f9dae1146103b0578063b88d4fde146103cc578063c87b56dd146103e8578063e322b36814610418578063e94886d214610434578063e985e9c5146104645761014d565b80636352211e146102dc57806370a082311461030c57806385b5e9841461033c5780638da5cb5b1461035857806395d89b4114610376578063a22cb465146103945761014d565b806318160ddd1161011557806318160ddd1461020a57806323b872dd146102285780632c4d4d18146102445780632f745c591461026057806342842e0e146102905780634f6ccce7146102ac5761014d565b806301ffc9a71461015257806306fdde031461018257806307546172146101a0578063081812fc146101be578063095ea7b3146101ee575b600080fd5b61016c60048036038101906101679190612739565b610494565b6040516101799190612781565b60405180910390f35b61018a6104a6565b6040516101979190612835565b60405180910390f35b6101a8610538565b6040516101b59190612898565b60405180910390f35b6101d860048036038101906101d391906128e9565b61055e565b6040516101e59190612898565b60405180910390f35b61020860048036038101906102039190612942565b6105e3565b005b6102126106fa565b60405161021f9190612991565b60405180910390f35b610242600480360381019061023d91906129ac565b610707565b005b61025e600480360381019061025991906129ff565b610767565b005b61027a60048036038101906102759190612942565b610904565b6040516102879190612991565b60405180910390f35b6102aa60048036038101906102a591906129ac565b6109a9565b005b6102c660048036038101906102c191906128e9565b6109c9565b6040516102d39190612991565b60405180910390f35b6102f660048036038101906102f191906128e9565b610a3a565b6040516103039190612898565b60405180910390f35b610326600480360381019061032191906129ff565b610aeb565b6040516103339190612991565b60405180910390f35b61035660048036038101906103519190612a2c565b610ba2565b005b610360610c62565b60405161036d9190612aa0565b60405180910390f35b61037e610c88565b60405161038b9190612835565b60405180910390f35b6103ae60048036038101906103a99190612ae7565b610d1a565b005b6103ca60048036038101906103c59190612b53565b610d30565b005b6103e660048036038101906103e19190612cb5565b610ecd565b005b61040260048036038101906103fd91906128e9565b610f2f565b60405161040f9190612835565b60405180910390f35b610432600480360381019061042d91906128e9565b610f41565b005b61044e600480360381019061044991906129ff565b611007565b60405161045b9190612df6565b60405180910390f35b61047e60048036038101906104799190612e18565b6110bb565b60405161048b9190612781565b60405180910390f35b600061049f8261114f565b9050919050565b6060600080546104b590612e87565b80601f01602080910402602001604051908101604052809291908181526020018280546104e190612e87565b801561052e5780601f106105035761010080835404028352916020019161052e565b820191906000526020600020905b81548152906001019060200180831161051157829003601f168201915b5050505050905090565b600c60009054906101000a900473ffffffffffffffffffffffffffffffffffffffff1681565b6000610569826111c9565b6105a8576040517f08c379a000000000000000000000000000000000000000000000000000000000815260040161059f90612f2a565b60405180910390fd5b6004600083815260200190815260200160002060009054906101000a900473ffffffffffffffffffffffffffffffffffffffff169050919050565b60006105ee82610a3a565b90508073ffffffffffffffffffffffffffffffffffffffff168373ffffffffffffffffffffffffffffffffffffffff160361065e576040517f08c379a000000000000000000000000000000000000000000000000000000000815260040161065590612fbc565b60405180910390fd5b8073ffffffffffffffffffffffffffffffffffffffff1661067d611235565b73ffffffffffffffffffffffffffffffffffffffff1614806106ac57506106ab816106a6611235565b6110bb565b5b6106eb576040517f08c379a00000000000000000000000000000000000000000000000000000000081526004016106e29061304e565b60405180910390fd5b6106f5838361123d565b505050565b6000600880549050905090565b610718610712611235565b826112f6565b610757576040517f08c379a000000000000000000000000000000000000000000000000000000000815260040161074e906130e0565b60405180910390fd5b6107628383836113d4565b505050565b600c60009054906101000a900473ffffffffffffffffffffffffffffffffffffffff1673ffffffffffffffffffffffffffffffffffffffff163373ffffffffffffffffffffffffffffffffffffffff16146107f7576040517f08c379a00000000000000000000000000000000000000000000000000000000081526004016107ee90613172565b60405180910390fd5b600073ffffffffffffffffffffffffffffffffffffffff168173ffffffffffffffffffffffffffffffffffffffff1603610866576040517f08c379a000000000000000000000000000000000000000000000000000000000815260040161085d906131de565b60405180910390fd5b80600c60006101000a81548173ffffffffffffffffffffffffffffffffffffffff021916908373ffffffffffffffffffffffffffffffffffffffff1602179055508073ffffffffffffffffffffffffffffffffffffffff163373ffffffffffffffffffffffffffffffffffffffff167fcba8b2f67b1b66244252c443e6260110af641687bcceb46c810da702119ec82860405160405180910390a350565b600061090f83610aeb565b8210610950576040517f08c379a000000000000000000000000000000000000000000000000000000000815260040161094790613270565b60405180910390fd5b600660008473ffffffffffffffffffffffffffffffffffffffff1673ffffffffffffffffffffffffffffffffffffffff168152602001908152602001600020600083815260200190815260200160002054905092915050565b6109c483838360405180602001604052806000815250610ecd565b505050565b60006109d36106fa565b8210610a14576040517f08c379a0000000000000000000000000000000000000000000000000000000008152600401610a0b90613302565b60405180910390fd5b60088281548110610a2857610a27613322565b5b90600052602060002001549050919050565b6000806002600084815260200190815260200160002060009054906101000a900473ffffffffffffffffffffffffffffffffffffffff169050600073ffffffffffffffffffffffffffffffffffffffff168173ffffffffffffffffffffffffffffffffffffffff1603610ae2576040517f08c379a0000000000000000000000000000000000000000000000000000000008152600401610ad9906133c3565b60405180910390fd5b80915050919050565b60008073ffffffffffffffffffffffffffffffffffffffff168273ffffffffffffffffffffffffffffffffffffffff1603610b5b576040517f08c379a0000000000000000000000000000000000000000000000000000000008152600401610b5290613455565b60405180910390fd5b600360008373ffffffffffffffffffffffffffffffffffffffff1673ffffffffffffffffffffffffffffffffffffffff168152602001908152602001600020549050919050565b600c60009054906101000a900473ffffffffffffffffffffffffffffffffffffffff1673ffffffffffffffffffffffffffffffffffffffff163373ffffffffffffffffffffffffffffffffffffffff1614610c32576040517f08c379a0000000000000000000000000000000000000000000000000000000008152600401610c2990613172565b60405180910390fd5b60008290505b818111610c5c57610c49848261163a565b8080610c54906134a4565b915050610c38565b50505050565b600b60009054906101000a900473ffffffffffffffffffffffffffffffffffffffff1681565b606060018054610c9790612e87565b80601f0160208091040260200160405190810160405280929190818152602001828054610cc390612e87565b8015610d105780601f10610ce557610100808354040283529160200191610d10565b820191906000526020600020905b815481529060010190602001808311610cf357829003601f168201915b5050505050905090565b610d2c610d25611235565b8383611658565b5050565b600b60009054906101000a900473ffffffffffffffffffffffffffffffffffffffff1673ffffffffffffffffffffffffffffffffffffffff163373ffffffffffffffffffffffffffffffffffffffff1614610dc0576040517f08c379a0000000000000000000000000000000000000000000000000000000008152600401610db79061355e565b60405180910390fd5b600073ffffffffffffffffffffffffffffffffffffffff168173ffffffffffffffffffffffffffffffffffffffff1603610e2f576040517f08c379a0000000000000000000000000000000000000000000000000000000008152600401610e26906135ca565b60405180910390fd5b80600b60006101000a81548173ffffffffffffffffffffffffffffffffffffffff021916908373ffffffffffffffffffffffffffffffffffffffff1602179055508073ffffffffffffffffffffffffffffffffffffffff163373ffffffffffffffffffffffffffffffffffffffff167f9aecf86140d81442289f667eb72e1202a8fbb3478a686659952e145e8531965660405160405180910390a350565b610ede610ed8611235565b836112f6565b610f1d576040517f08c379a0000000000000000000000000000000000000000000000000000000008152600401610f14906130e0565b60405180910390fd5b610f29848484846117c4565b50505050565b6060610f3a82611820565b9050919050565b610f4a81610a3a565b73ffffffffffffffffffffffffffffffffffffffff163373ffffffffffffffffffffffffffffffffffffffff1614610fb7576040517f08c379a0000000000000000000000000000000000000000000000000000000008152600401610fae9061365c565b60405180910390fd5b803373ffffffffffffffffffffffffffffffffffffffff167fb6d0f573cba3d4a03c7eaa036f7d5a9228d6fb816811d88b4a7c5c9505ffb59260405160405180910390a361100481611971565b50565b6060600061101483610aeb565b905060008167ffffffffffffffff81111561103257611031612b8a565b5b6040519080825280602002602001820160405280156110605781602001602082028036833780820191505090505b50905060005b828110156110b057600061107a8683610904565b9050808383815181106110905761108f613322565b5b6020026020010181815250505080806110a8906134a4565b915050611066565b508092505050919050565b6000600560008473ffffffffffffffffffffffffffffffffffffffff1673ffffffffffffffffffffffffffffffffffffffff16815260200190815260200160002060008373ffffffffffffffffffffffffffffffffffffffff1673ffffffffffffffffffffffffffffffffffffffff16815260200190815260200160002060009054906101000a900460ff16905092915050565b60007f780e9d63000000000000000000000000000000000000000000000000000000007bffffffffffffffffffffffffffffffffffffffffffffffffffffffff1916827bffffffffffffffffffffffffffffffffffffffffffffffffffffffff191614806111c257506111c18261197d565b5b9050919050565b60008073ffffffffffffffffffffffffffffffffffffffff166002600084815260200190815260200160002060009054906101000a900473ffffffffffffffffffffffffffffffffffffffff1673ffffffffffffffffffffffffffffffffffffffff1614159050919050565b600033905090565b816004600083815260200190815260200160002060006101000a81548173ffffffffffffffffffffffffffffffffffffffff021916908373ffffffffffffffffffffffffffffffffffffffff160217905550808273ffffffffffffffffffffffffffffffffffffffff166112b083610a3a565b73ffffffffffffffffffffffffffffffffffffffff167f8c5be1e5ebec7d5bd14f71427d1e84f3dd0314c0f7b2291e5b200ac8c7c3b92560405160405180910390a45050565b6000611301826111c9565b611340576040517f08c379a0000000000000000000000000000000000000000000000000000000008152600401611337906136ee565b60405180910390fd5b600061134b83610a3a565b90508073ffffffffffffffffffffffffffffffffffffffff168473ffffffffffffffffffffffffffffffffffffffff16148061138d575061138c81856110bb565b5b806113cb57508373ffffffffffffffffffffffffffffffffffffffff166113b38461055e565b73ffffffffffffffffffffffffffffffffffffffff16145b91505092915050565b8273ffffffffffffffffffffffffffffffffffffffff166113f482610a3a565b73ffffffffffffffffffffffffffffffffffffffff161461144a576040517f08c379a000000000000000000000000000000000000000000000000000000000815260040161144190613780565b60405180910390fd5b600073ffffffffffffffffffffffffffffffffffffffff168273ffffffffffffffffffffffffffffffffffffffff16036114b9576040517f08c379a00000000000000000000000000000000000000000000000000000000081526004016114b090613812565b60405180910390fd5b6114c4838383611a5f565b6114cf60008261123d565b6001600360008573ffffffffffffffffffffffffffffffffffffffff1673ffffffffffffffffffffffffffffffffffffffff168152602001908152602001600020600082825461151f9190613832565b925050819055506001600360008473ffffffffffffffffffffffffffffffffffffffff1673ffffffffffffffffffffffffffffffffffffffff16815260200190815260200160002060008282546115769190613866565b92505081905550816002600083815260200190815260200160002060006101000a81548173ffffffffffffffffffffffffffffffffffffffff021916908373ffffffffffffffffffffffffffffffffffffffff160217905550808273ffffffffffffffffffffffffffffffffffffffff168473ffffffffffffffffffffffffffffffffffffffff167fddf252ad1be2c89b69c2b068fc378daa952ba7f163c4a11628f55a4df523b3ef60405160405180910390a4611635838383611a6f565b505050565b611654828260405180602001604052806000815250611a74565b5050565b8173ffffffffffffffffffffffffffffffffffffffff168373ffffffffffffffffffffffffffffffffffffffff16036116c6576040517f08c379a00000000000000000000000000000000000000000000000000000000081526004016116bd90613908565b60405180910390fd5b80600560008573ffffffffffffffffffffffffffffffffffffffff1673ffffffffffffffffffffffffffffffffffffffff16815260200190815260200160002060008473ffffffffffffffffffffffffffffffffffffffff1673ffffffffffffffffffffffffffffffffffffffff16815260200190815260200160002060006101000a81548160ff0219169083151502179055508173ffffffffffffffffffffffffffffffffffffffff168373ffffffffffffffffffffffffffffffffffffffff167f17307eab39ab6107e8899845ad3d59bd9653f200f220920489ca2b5937696c31836040516117b79190612781565b60405180910390a3505050565b6117cf8484846113d4565b6117db84848484611acf565b61181a576040517f08c379a00000000000000000000000000000000000000000000000000000000081526004016118119061399a565b60405180910390fd5b50505050565b606061182b826111c9565b61186a576040517f08c379a000000000000000000000000000000000000000000000000000000000815260040161186190613a2c565b60405180910390fd5b6000600a6000848152602001908152602001600020805461188a90612e87565b80601f01602080910402602001604051908101604052809291908181526020018280546118b690612e87565b80156119035780601f106118d857610100808354040283529160200191611903565b820191906000526020600020905b8154815290600101906020018083116118e657829003601f168201915b505050505090506000611914611c56565b9050600081510361192957819250505061196c565b60008251111561195e578082604051602001611946929190613a88565b6040516020818303038152906040529250505061196c565b61196784611c76565b925050505b919050565b61197a81611d1d565b50565b60007f80ac58cd000000000000000000000000000000000000000000000000000000007bffffffffffffffffffffffffffffffffffffffffffffffffffffffff1916827bffffffffffffffffffffffffffffffffffffffffffffffffffffffff19161480611a4857507f5b5e139f000000000000000000000000000000000000000000000000000000007bffffffffffffffffffffffffffffffffffffffffffffffffffffffff1916827bffffffffffffffffffffffffffffffffffffffffffffffffffffffff1916145b80611a585750611a5782611d70565b5b9050919050565b611a6a838383611dda565b505050565b505050565b611a7e8383611eec565b611a8b6000848484611acf565b611aca576040517f08c379a0000000000000000000000000000000000000000000000000000000008152600401611ac19061399a565b60405180910390fd5b505050565b6000611af08473ffffffffffffffffffffffffffffffffffffffff166120c5565b15611c49578373ffffffffffffffffffffffffffffffffffffffff1663150b7a02611b19611235565b8786866040518563ffffffff1660e01b8152600401611b3b9493929190613b01565b6020604051808303816000875af1925050508015611b7757506040513d601f19601f82011682018060405250810190611b749190613b62565b60015b611bf9573d8060008114611ba7576040519150601f19603f3d011682016040523d82523d6000602084013e611bac565b606091505b506000815103611bf1576040517f08c379a0000000000000000000000000000000000000000000000000000000008152600401611be89061399a565b60405180910390fd5b805181602001fd5b63150b7a0260e01b7bffffffffffffffffffffffffffffffffffffffffffffffffffffffff1916817bffffffffffffffffffffffffffffffffffffffffffffffffffffffff191614915050611c4e565b600190505b949350505050565b60606040518060600160405280602c8152602001613dba602c9139905090565b6060611c81826111c9565b611cc0576040517f08c379a0000000000000000000000000000000000000000000000000000000008152600401611cb790613c01565b60405180910390fd5b6000611cca611c56565b90506000815111611cea5760405180602001604052806000815250611d15565b80611cf4846120e8565b604051602001611d05929190613a88565b6040516020818303038152906040525b915050919050565b611d2681612248565b6000600a60008381526020019081526020016000208054611d4690612e87565b905014611d6d57600a60008281526020019081526020016000206000611d6c9190612670565b5b50565b60007f01ffc9a7000000000000000000000000000000000000000000000000000000007bffffffffffffffffffffffffffffffffffffffffffffffffffffffff1916827bffffffffffffffffffffffffffffffffffffffffffffffffffffffff1916149050919050565b611de5838383612365565b600073ffffffffffffffffffffffffffffffffffffffff168373ffffffffffffffffffffffffffffffffffffffff1603611e2757611e228161236a565b611e66565b8173ffffffffffffffffffffffffffffffffffffffff168373ffffffffffffffffffffffffffffffffffffffff1614611e6557611e6483826123b3565b5b5b600073ffffffffffffffffffffffffffffffffffffffff168273ffffffffffffffffffffffffffffffffffffffff1603611ea857611ea381612520565b611ee7565b8273ffffffffffffffffffffffffffffffffffffffff168273ffffffffffffffffffffffffffffffffffffffff1614611ee657611ee582826125f1565b5b5b505050565b600073ffffffffffffffffffffffffffffffffffffffff168273ffffffffffffffffffffffffffffffffffffffff1603611f5b576040517f08c379a0000000000000000000000000000000000000000000000000000000008152600401611f5290613c6d565b60405180910390fd5b611f64816111c9565b15611fa4576040517f08c379a0000000000000000000000000000000000000000000000000000000008152600401611f9b90613cd9565b60405180910390fd5b611fb060008383611a5f565b6001600360008473ffffffffffffffffffffffffffffffffffffffff1673ffffffffffffffffffffffffffffffffffffffff16815260200190815260200160002060008282546120009190613866565b92505081905550816002600083815260200190815260200160002060006101000a81548173ffffffffffffffffffffffffffffffffffffffff021916908373ffffffffffffffffffffffffffffffffffffffff160217905550808273ffffffffffffffffffffffffffffffffffffffff16600073ffffffffffffffffffffffffffffffffffffffff167fddf252ad1be2c89b69c2b068fc378daa952ba7f163c4a11628f55a4df523b3ef60405160405180910390a46120c160008383611a6f565b5050565b6000808273ffffffffffffffffffffffffffffffffffffffff163b119050919050565b60606000820361212f576040518060400160405280600181526020017f30000000000000000000000000000000000000000000000000000000000000008152509050612243565b600082905060005b6000821461216157808061214a906134a4565b915050600a8261215a9190613d28565b9150612137565b60008167ffffffffffffffff81111561217d5761217c612b8a565b5b6040519080825280601f01601f1916602001820160405280156121af5781602001600182028036833780820191505090505b5090505b6000851461223c576001826121c89190613832565b9150600a856121d79190613d59565b60306121e39190613866565b60f81b8183815181106121f9576121f8613322565b5b60200101907effffffffffffffffffffffffffffffffffffffffffffffffffffffffffffff1916908160001a905350600a856122359190613d28565b94506121b3565b8093505050505b919050565b600061225382610a3a565b905061226181600084611a5f565b61226c60008361123d565b6001600360008373ffffffffffffffffffffffffffffffffffffffff1673ffffffffffffffffffffffffffffffffffffffff16815260200190815260200160002060008282546122bc9190613832565b925050819055506002600083815260200190815260200160002060006101000a81549073ffffffffffffffffffffffffffffffffffffffff021916905581600073ffffffffffffffffffffffffffffffffffffffff168273ffffffffffffffffffffffffffffffffffffffff167fddf252ad1be2c89b69c2b068fc378daa952ba7f163c4a11628f55a4df523b3ef60405160405180910390a461236181600084611a6f565b5050565b505050565b6008805490506009600083815260200190815260200160002081905550600881908060018154018082558091505060019003906000526020600020016000909190919091505550565b600060016123c084610aeb565b6123ca9190613832565b90506000600760008481526020019081526020016000205490508181146124af576000600660008673ffffffffffffffffffffffffffffffffffffffff1673ffffffffffffffffffffffffffffffffffffffff168152602001908152602001600020600084815260200190815260200160002054905080600660008773ffffffffffffffffffffffffffffffffffffffff1673ffffffffffffffffffffffffffffffffffffffff168152602001908152602001600020600084815260200190815260200160002081905550816007600083815260200190815260200160002081905550505b6007600084815260200190815260200160002060009055600660008573ffffffffffffffffffffffffffffffffffffffff1673ffffffffffffffffffffffffffffffffffffffff16815260200190815260200160002060008381526020019081526020016000206000905550505050565b600060016008805490506125349190613832565b905060006009600084815260200190815260200160002054905060006008838154811061256457612563613322565b5b90600052602060002001549050806008838154811061258657612585613322565b5b9060005260206000200181905550816009600083815260200190815260200160002081905550600960008581526020019081526020016000206000905560088054806125d5576125d4613d8a565b5b6001900381819060005260206000200160009055905550505050565b60006125fc83610aeb565b905081600660008573ffffffffffffffffffffffffffffffffffffffff1673ffffffffffffffffffffffffffffffffffffffff168152602001908152602001600020600083815260200190815260200160002081905550806007600084815260200190815260200160002081905550505050565b50805461267c90612e87565b6000825580601f1061268e57506126ad565b601f0160209004906000526020600020908101906126ac91906126b0565b5b50565b5b808211156126c95760008160009055506001016126b1565b5090565b6000604051905090565b600080fd5b600080fd5b60007fffffffff0000000000000000000000000000000000000000000000000000000082169050919050565b612716816126e1565b811461272157600080fd5b50565b6000813590506127338161270d565b92915050565b60006020828403121561274f5761274e6126d7565b5b600061275d84828501612724565b91505092915050565b60008115159050919050565b61277b81612766565b82525050565b60006020820190506127966000830184612772565b92915050565b600081519050919050565b600082825260208201905092915050565b60005b838110156127d65780820151818401526020810190506127bb565b838111156127e5576000848401525b50505050565b6000601f19601f8301169050919050565b60006128078261279c565b61281181856127a7565b93506128218185602086016127b8565b61282a816127eb565b840191505092915050565b6000602082019050818103600083015261284f81846127fc565b905092915050565b600073ffffffffffffffffffffffffffffffffffffffff82169050919050565b600061288282612857565b9050919050565b61289281612877565b82525050565b60006020820190506128ad6000830184612889565b92915050565b6000819050919050565b6128c6816128b3565b81146128d157600080fd5b50565b6000813590506128e3816128bd565b92915050565b6000602082840312156128ff576128fe6126d7565b5b600061290d848285016128d4565b91505092915050565b61291f81612877565b811461292a57600080fd5b50565b60008135905061293c81612916565b92915050565b60008060408385031215612959576129586126d7565b5b60006129678582860161292d565b9250506020612978858286016128d4565b9150509250929050565b61298b816128b3565b82525050565b60006020820190506129a66000830184612982565b92915050565b6000806000606084860312156129c5576129c46126d7565b5b60006129d38682870161292d565b93505060206129e48682870161292d565b92505060406129f5868287016128d4565b9150509250925092565b600060208284031215612a1557612a146126d7565b5b6000612a238482850161292d565b91505092915050565b600080600060608486031215612a4557612a446126d7565b5b6000612a538682870161292d565b9350506020612a64868287016128d4565b9250506040612a75868287016128d4565b9150509250925092565b6000612a8a82612857565b9050919050565b612a9a81612a7f565b82525050565b6000602082019050612ab56000830184612a91565b92915050565b612ac481612766565b8114612acf57600080fd5b50565b600081359050612ae181612abb565b92915050565b60008060408385031215612afe57612afd6126d7565b5b6000612b0c8582860161292d565b9250506020612b1d85828601612ad2565b9150509250929050565b612b3081612a7f565b8114612b3b57600080fd5b50565b600081359050612b4d81612b27565b92915050565b600060208284031215612b6957612b686126d7565b5b6000612b7784828501612b3e565b91505092915050565b600080fd5b600080fd5b7f4e487b7100000000000000000000000000000000000000000000000000000000600052604160045260246000fd5b612bc2826127eb565b810181811067ffffffffffffffff82111715612be157612be0612b8a565b5b80604052505050565b6000612bf46126cd565b9050612c008282612bb9565b919050565b600067ffffffffffffffff821115612c2057612c1f612b8a565b5b612c29826127eb565b9050602081019050919050565b82818337600083830152505050565b6000612c58612c5384612c05565b612bea565b905082815260208101848484011115612c7457612c73612b85565b5b612c7f848285612c36565b509392505050565b600082601f830112612c9c57612c9b612b80565b5b8135612cac848260208601612c45565b91505092915050565b60008060008060808587031215612ccf57612cce6126d7565b5b6000612cdd8782880161292d565b9450506020612cee8782880161292d565b9350506040612cff878288016128d4565b925050606085013567ffffffffffffffff811115612d2057612d1f6126dc565b5b612d2c87828801612c87565b91505092959194509250565b600081519050919050565b600082825260208201905092915050565b6000819050602082019050919050565b612d6d816128b3565b82525050565b6000612d7f8383612d64565b60208301905092915050565b6000602082019050919050565b6000612da382612d38565b612dad8185612d43565b9350612db883612d54565b8060005b83811015612de9578151612dd08882612d73565b9750612ddb83612d8b565b925050600181019050612dbc565b5085935050505092915050565b60006020820190508181036000830152612e108184612d98565b905092915050565b60008060408385031215612e2f57612e2e6126d7565b5b6000612e3d8582860161292d565b9250506020612e4e8582860161292d565b9150509250929050565b7f4e487b7100000000000000000000000000000000000000000000000000000000600052602260045260246000fd5b60006002820490506001821680612e9f57607f821691505b602082108103612eb257612eb1612e58565b5b50919050565b7f4552433732313a20617070726f76656420717565727920666f72206e6f6e657860008201527f697374656e7420746f6b656e0000000000000000000000000000000000000000602082015250565b6000612f14602c836127a7565b9150612f1f82612eb8565b604082019050919050565b60006020820190508181036000830152612f4381612f07565b9050919050565b7f4552433732313a20617070726f76616c20746f2063757272656e74206f776e6560008201527f7200000000000000000000000000000000000000000000000000000000000000602082015250565b6000612fa66021836127a7565b9150612fb182612f4a565b604082019050919050565b60006020820190508181036000830152612fd581612f99565b9050919050565b7f4552433732313a20617070726f76652063616c6c6572206973206e6f74206f7760008201527f6e6572206e6f7220617070726f76656420666f7220616c6c0000000000000000602082015250565b60006130386038836127a7565b915061304382612fdc565b604082019050919050565b600060208201905081810360008301526130678161302b565b9050919050565b7f4552433732313a207472616e736665722063616c6c6572206973206e6f74206f60008201527f776e6572206e6f7220617070726f766564000000000000000000000000000000602082015250565b60006130ca6031836127a7565b91506130d58261306e565b604082019050919050565b600060208201905081810360008301526130f9816130bd565b9050919050565b7f4f6e6c792074686520636f6e7472616374206d696e7465722063616e2063616c60008201527f6c20746869732066756e6374696f6e0000000000000000000000000000000000602082015250565b600061315c602f836127a7565b915061316782613100565b604082019050919050565b6000602082019050818103600083015261318b8161314f565b9050919050565b7f6e6f74207a65726f206164647265737320666f72206e6577206d696e74657200600082015250565b60006131c8601f836127a7565b91506131d382613192565b602082019050919050565b600060208201905081810360008301526131f7816131bb565b9050919050565b7f455243373231456e756d657261626c653a206f776e657220696e646578206f7560008201527f74206f6620626f756e6473000000000000000000000000000000000000000000602082015250565b600061325a602b836127a7565b9150613265826131fe565b604082019050919050565b600060208201905081810360008301526132898161324d565b9050919050565b7f455243373231456e756d657261626c653a20676c6f62616c20696e646578206f60008201527f7574206f6620626f756e64730000000000000000000000000000000000000000602082015250565b60006132ec602c836127a7565b91506132f782613290565b604082019050919050565b6000602082019050818103600083015261331b816132df565b9050919050565b7f4e487b7100000000000000000000000000000000000000000000000000000000600052603260045260246000fd5b7f4552433732313a206f776e657220717565727920666f72206e6f6e657869737460008201527f656e7420746f6b656e0000000000000000000000000000000000000000000000602082015250565b60006133ad6029836127a7565b91506133b882613351565b604082019050919050565b600060208201905081810360008301526133dc816133a0565b9050919050565b7f4552433732313a2062616c616e636520717565727920666f7220746865207a6560008201527f726f206164647265737300000000000000000000000000000000000000000000602082015250565b600061343f602a836127a7565b915061344a826133e3565b604082019050919050565b6000602082019050818103600083015261346e81613432565b9050919050565b7f4e487b7100000000000000000000000000000000000000000000000000000000600052601160045260246000fd5b60006134af826128b3565b91507fffffffffffffffffffffffffffffffffffffffffffffffffffffffffffffffff82036134e1576134e0613475565b5b600182019050919050565b7f4f6e6c792074686520636f6e7472616374206f776e65722063616e2063616c6c60008201527f20746869732066756e6374696f6e000000000000000000000000000000000000602082015250565b6000613548602e836127a7565b9150613553826134ec565b604082019050919050565b600060208201905081810360008301526135778161353b565b9050919050565b7f6e6f74207a65726f206164647265737320666f72206e6577206f776e65720000600082015250565b60006135b4601e836127a7565b91506135bf8261357e565b602082019050919050565b600060208201905081810360008301526135e3816135a7565b9050919050565b7f544b4d426f783a206f6e6c7920746f6b656e206f776e65722063616e206f706560008201527f6e00000000000000000000000000000000000000000000000000000000000000602082015250565b60006136466021836127a7565b9150613651826135ea565b604082019050919050565b6000602082019050818103600083015261367581613639565b9050919050565b7f4552433732313a206f70657261746f7220717565727920666f72206e6f6e657860008201527f697374656e7420746f6b656e0000000000000000000000000000000000000000602082015250565b60006136d8602c836127a7565b91506136e38261367c565b604082019050919050565b60006020820190508181036000830152613707816136cb565b9050919050565b7f4552433732313a207472616e736665722066726f6d20696e636f72726563742060008201527f6f776e6572000000000000000000000000000000000000000000000000000000602082015250565b600061376a6025836127a7565b91506137758261370e565b604082019050919050565b600060208201905081810360008301526137998161375d565b9050919050565b7f4552433732313a207472616e7366657220746f20746865207a65726f2061646460008201527f7265737300000000000000000000000000000000000000000000000000000000602082015250565b60006137fc6024836127a7565b9150613807826137a0565b604082019050919050565b6000602082019050818103600083015261382b816137ef565b9050919050565b600061383d826128b3565b9150613848836128b3565b92508282101561385b5761385a613475565b5b828203905092915050565b6000613871826128b3565b915061387c836128b3565b9250827fffffffffffffffffffffffffffffffffffffffffffffffffffffffffffffffff038211156138b1576138b0613475565b5b828201905092915050565b7f4552433732313a20617070726f766520746f2063616c6c657200000000000000600082015250565b60006138f26019836127a7565b91506138fd826138bc565b602082019050919050565b60006020820190508181036000830152613921816138e5565b9050919050565b7f4552433732313a207472616e7366657220746f206e6f6e20455243373231526560008201527f63656976657220696d706c656d656e7465720000000000000000000000000000602082015250565b60006139846032836127a7565b915061398f82613928565b604082019050919050565b600060208201905081810360008301526139b381613977565b9050919050565b7f45524337323155524953746f726167653a2055524920717565727920666f722060008201527f6e6f6e6578697374656e7420746f6b656e000000000000000000000000000000602082015250565b6000613a166031836127a7565b9150613a21826139ba565b604082019050919050565b60006020820190508181036000830152613a4581613a09565b9050919050565b600081905092915050565b6000613a628261279c565b613a6c8185613a4c565b9350613a7c8185602086016127b8565b80840191505092915050565b6000613a948285613a57565b9150613aa08284613a57565b91508190509392505050565b600081519050919050565b600082825260208201905092915050565b6000613ad382613aac565b613add8185613ab7565b9350613aed8185602086016127b8565b613af6816127eb565b840191505092915050565b6000608082019050613b166000830187612889565b613b236020830186612889565b613b306040830185612982565b8181036060830152613b428184613ac8565b905095945050505050565b600081519050613b5c8161270d565b92915050565b600060208284031215613b7857613b776126d7565b5b6000613b8684828501613b4d565b91505092915050565b7f4552433732314d657461646174613a2055524920717565727920666f72206e6f60008201527f6e6578697374656e7420746f6b656e0000000000000000000000000000000000602082015250565b6000613beb602f836127a7565b9150613bf682613b8f565b604082019050919050565b60006020820190508181036000830152613c1a81613bde565b9050919050565b7f4552433732313a206d696e7420746f20746865207a65726f2061646472657373600082015250565b6000613c576020836127a7565b9150613c6282613c21565b602082019050919050565b60006020820190508181036000830152613c8681613c4a565b9050919050565b7f4552433732313a20746f6b656e20616c7265616479206d696e74656400000000600082015250565b6000613cc3601c836127a7565b9150613cce82613c8d565b602082019050919050565b60006020820190508181036000830152613cf281613cb6565b9050919050565b7f4e487b7100000000000000000000000000000000000000000000000000000000600052601260045260246000fd5b6000613d33826128b3565b9150613d3e836128b3565b925082613d4e57613d4d613cf9565b5b828204905092915050565b6000613d64826128b3565b9150613d6f836128b3565b925082613d7f57613d7e613cf9565b5b828206905092915050565b7f4e487b7100000000000000000000000000000000000000000000000000000000600052603160045260246000fdfe68747470733a2f2f6170692e7072756e656d61726b65742e78797a3a3434342f6e66742f696e6f2f746b6d2fa264697066735822122047c542905fa575cb72a9208ea70f02f413a1bbe7910aad41cbb30e6d43d3aa8264736f6c634300080e0033",
  "immutableReferences": {},
  "source": "// SPDX-License-Identifier: MIT\r\n\r\npragma solidity ^0.8.14;\r\n\r\nimport \"@openzeppelin/contracts/token/ERC721/ERC721.sol\";\r\nimport \"@openzeppelin/contracts/token/ERC721/extensions/ERC721Enumerable.sol\";\r\nimport \"@openzeppelin/contracts/token/ERC721/extensions/ERC721URIStorage.sol\";\r\nimport \"./Owner.sol\";\r\n\r\ncontract TKMBoxB is ERC721, ERC721Enumerable, ERC721URIStorage, Owner, Minter {\r\n    event BoxOpen(address indexed opener, uint256 indexed tokenId);\r\n\r\n    constructor(address minter_)\r\n        ERC721(\"Three Kingdom Multiverse Box\", \"3KMBox_B\")\r\n        Minter(minter_)\r\n    {}\r\n\r\n    function inoMint(address to, uint256 startId, uint256 endId) external onlyMinter {\r\n        for (uint256 k = startId; k <= endId; k++) {\r\n            _safeMint(to, k);\r\n        }\r\n    }\r\n\r\n    function collection(address owner)\r\n        public\r\n        view\r\n        returns (uint256[] memory)\r\n    {\r\n        uint256 boxAmount = ERC721.balanceOf(owner);\r\n        uint256[] memory boxes = new uint256[](boxAmount);\r\n        for (uint256 i = 0; i < boxAmount; i++) {\r\n            uint256 tokenId = ERC721Enumerable.tokenOfOwnerByIndex(owner, i);\r\n            boxes[i] = tokenId;\r\n        }\r\n        return boxes;\r\n    }\r\n\r\n    function boxOpen(uint256 tokenId) external {\r\n        require(\r\n            msg.sender == ownerOf(tokenId),\r\n            \"TKMBox: only token owner can open\"\r\n        );\r\n        \r\n        emit BoxOpen(msg.sender, tokenId);\r\n\r\n        _burn(tokenId);\r\n    }\r\n\r\n    function _baseURI() internal pure override returns (string memory) {\r\n        return \"https://api.prunemarket.xyz:444/nft/ino/tkm/\";\r\n    }\r\n\r\n    function _beforeTokenTransfer(\r\n        address from,\r\n        address to,\r\n        uint256 tokenId\r\n    ) internal override(ERC721, ERC721Enumerable) {\r\n        super._beforeTokenTransfer(from, to, tokenId);\r\n    }\r\n\r\n    function _burn(uint256 tokenId)\r\n        internal\r\n        override(ERC721, ERC721URIStorage)\r\n    {\r\n        super._burn(tokenId);\r\n    }\r\n\r\n    function tokenURI(uint256 tokenId)\r\n        public\r\n        view\r\n        override(ERC721, ERC721URIStorage)\r\n        returns (string memory)\r\n    {\r\n        return super.tokenURI(tokenId);\r\n    }\r\n\r\n    function supportsInterface(bytes4 interfaceId)\r\n        public\r\n        view\r\n        override(ERC721, ERC721Enumerable)\r\n        returns (bool)\r\n    {\r\n        return super.supportsInterface(interfaceId);\r\n    }\r\n}\r\n",
  "sourcePath": "C:\\Works\\1_Github\\solidity_tinyping\\contracts\\TKMBoxB.sol",
  "compiler": {
    "name": "solc",
    "version": "0.8.14+commit.80d49f37.Emscripten.clang"
  },
  "schemaVersion": "3.4.7",
  "updatedAt": "2022-11-07T05:00:05.097Z",
  "networkType": "ethereum",
  "devdoc": {
    "kind": "dev",
    "methods": {
      "approve(address,uint256)": {
        "details": "See {IERC721-approve}."
      },
      "balanceOf(address)": {
        "details": "See {IERC721-balanceOf}."
      },
      "getApproved(uint256)": {
        "details": "See {IERC721-getApproved}."
      },
      "isApprovedForAll(address,address)": {
        "details": "See {IERC721-isApprovedForAll}."
      },
      "name()": {
        "details": "See {IERC721Metadata-name}."
      },
      "ownerOf(uint256)": {
        "details": "See {IERC721-ownerOf}."
      },
      "safeTransferFrom(address,address,uint256)": {
        "details": "See {IERC721-safeTransferFrom}."
      },
      "safeTransferFrom(address,address,uint256,bytes)": {
        "details": "See {IERC721-safeTransferFrom}."
      },
      "setApprovalForAll(address,bool)": {
        "details": "See {IERC721-setApprovalForAll}."
      },
      "symbol()": {
        "details": "See {IERC721Metadata-symbol}."
      },
      "tokenByIndex(uint256)": {
        "details": "See {IERC721Enumerable-tokenByIndex}."
      },
      "tokenOfOwnerByIndex(address,uint256)": {
        "details": "See {IERC721Enumerable-tokenOfOwnerByIndex}."
      },
      "totalSupply()": {
        "details": "See {IERC721Enumerable-totalSupply}."
      },
      "transferFrom(address,address,uint256)": {
        "details": "See {IERC721-transferFrom}."
      }
    },
    "version": 1
  },
  "userdoc": {
    "kind": "user",
    "methods": {},
    "version": 1
  }
}