{
  "contractName": "TKMIno",
  "abi": [
    {
      "inputs": [
        {
          "internalType": "address",
          "name": "_TKMBox",
          "type": "address"
        },
        {
          "internalType": "address",
          "name": "_Operator",
          "type": "address"
        }
      ],
      "stateMutability": "nonpayable",
      "type": "constructor"
    },
    {
      "anonymous": false,
      "inputs": [
        {
          "indexed": false,
          "internalType": "address",
          "name": "account",
          "type": "address"
        }
      ],
      "name": "Paused",
      "type": "event"
    },
    {
      "anonymous": false,
      "inputs": [
        {
          "indexed": true,
          "internalType": "bytes32",
          "name": "role",
          "type": "bytes32"
        },
        {
          "indexed": true,
          "internalType": "bytes32",
          "name": "previousAdminRole",
          "type": "bytes32"
        },
        {
          "indexed": true,
          "internalType": "bytes32",
          "name": "newAdminRole",
          "type": "bytes32"
        }
      ],
      "name": "RoleAdminChanged",
      "type": "event"
    },
    {
      "anonymous": false,
      "inputs": [
        {
          "indexed": true,
          "internalType": "bytes32",
          "name": "role",
          "type": "bytes32"
        },
        {
          "indexed": true,
          "internalType": "address",
          "name": "account",
          "type": "address"
        },
        {
          "indexed": true,
          "internalType": "address",
          "name": "sender",
          "type": "address"
        }
      ],
      "name": "RoleGranted",
      "type": "event"
    },
    {
      "anonymous": false,
      "inputs": [
        {
          "indexed": true,
          "internalType": "bytes32",
          "name": "role",
          "type": "bytes32"
        },
        {
          "indexed": true,
          "internalType": "address",
          "name": "account",
          "type": "address"
        },
        {
          "indexed": true,
          "internalType": "address",
          "name": "sender",
          "type": "address"
        }
      ],
      "name": "RoleRevoked",
      "type": "event"
    },
    {
      "anonymous": false,
      "inputs": [
        {
          "indexed": true,
          "internalType": "address",
          "name": "from",
          "type": "address"
        },
        {
          "indexed": true,
          "internalType": "uint8",
          "name": "order",
          "type": "uint8"
        },
        {
          "indexed": true,
          "internalType": "uint256",
          "name": "boxId",
          "type": "uint256"
        }
      ],
      "name": "Sale",
      "type": "event"
    },
    {
      "anonymous": false,
      "inputs": [
        {
          "indexed": false,
          "internalType": "address",
          "name": "account",
          "type": "address"
        }
      ],
      "name": "Unpaused",
      "type": "event"
    },
    {
      "inputs": [],
      "name": "DEFAULT_ADMIN_ROLE",
      "outputs": [
        {
          "internalType": "bytes32",
          "name": "",
          "type": "bytes32"
        }
      ],
      "stateMutability": "view",
      "type": "function",
      "constant": true
    },
    {
      "inputs": [],
      "name": "Operator",
      "outputs": [
        {
          "internalType": "address",
          "name": "",
          "type": "address"
        }
      ],
      "stateMutability": "view",
      "type": "function",
      "constant": true
    },
    {
      "inputs": [],
      "name": "TKMBox",
      "outputs": [
        {
          "internalType": "contract ERC721",
          "name": "",
          "type": "address"
        }
      ],
      "stateMutability": "view",
      "type": "function",
      "constant": true
    },
    {
      "inputs": [
        {
          "internalType": "uint8",
          "name": "",
          "type": "uint8"
        },
        {
          "internalType": "address",
          "name": "",
          "type": "address"
        }
      ],
      "name": "boxPerUser",
      "outputs": [
        {
          "internalType": "uint256",
          "name": "",
          "type": "uint256"
        }
      ],
      "stateMutability": "view",
      "type": "function",
      "constant": true
    },
    {
      "inputs": [
        {
          "internalType": "uint8",
          "name": "",
          "type": "uint8"
        }
      ],
      "name": "currentNftIds",
      "outputs": [
        {
          "internalType": "uint256",
          "name": "",
          "type": "uint256"
        }
      ],
      "stateMutability": "view",
      "type": "function",
      "constant": true
    },
    {
      "inputs": [
        {
          "internalType": "bytes32",
          "name": "role",
          "type": "bytes32"
        }
      ],
      "name": "getRoleAdmin",
      "outputs": [
        {
          "internalType": "bytes32",
          "name": "",
          "type": "bytes32"
        }
      ],
      "stateMutability": "view",
      "type": "function",
      "constant": true
    },
    {
      "inputs": [
        {
          "internalType": "bytes32",
          "name": "role",
          "type": "bytes32"
        },
        {
          "internalType": "address",
          "name": "account",
          "type": "address"
        }
      ],
      "name": "grantRole",
      "outputs": [],
      "stateMutability": "nonpayable",
      "type": "function"
    },
    {
      "inputs": [
        {
          "internalType": "bytes32",
          "name": "role",
          "type": "bytes32"
        },
        {
          "internalType": "address",
          "name": "account",
          "type": "address"
        }
      ],
      "name": "hasRole",
      "outputs": [
        {
          "internalType": "bool",
          "name": "",
          "type": "bool"
        }
      ],
      "stateMutability": "view",
      "type": "function",
      "constant": true
    },
    {
      "inputs": [],
      "name": "paused",
      "outputs": [
        {
          "internalType": "bool",
          "name": "",
          "type": "bool"
        }
      ],
      "stateMutability": "view",
      "type": "function",
      "constant": true
    },
    {
      "inputs": [
        {
          "internalType": "bytes32",
          "name": "role",
          "type": "bytes32"
        },
        {
          "internalType": "address",
          "name": "account",
          "type": "address"
        }
      ],
      "name": "renounceRole",
      "outputs": [],
      "stateMutability": "nonpayable",
      "type": "function"
    },
    {
      "inputs": [
        {
          "internalType": "bytes32",
          "name": "role",
          "type": "bytes32"
        },
        {
          "internalType": "address",
          "name": "account",
          "type": "address"
        }
      ],
      "name": "revokeRole",
      "outputs": [],
      "stateMutability": "nonpayable",
      "type": "function"
    },
    {
      "inputs": [
        {
          "internalType": "uint8",
          "name": "",
          "type": "uint8"
        }
      ],
      "name": "saleOrders",
      "outputs": [
        {
          "internalType": "uint256",
          "name": "startBoxId",
          "type": "uint256"
        },
        {
          "internalType": "uint256",
          "name": "endBoxId",
          "type": "uint256"
        },
        {
          "internalType": "uint256",
          "name": "startTime",
          "type": "uint256"
        },
        {
          "internalType": "uint256",
          "name": "endTime",
          "type": "uint256"
        },
        {
          "internalType": "uint256",
          "name": "price",
          "type": "uint256"
        },
        {
          "internalType": "uint256",
          "name": "limitPerUser",
          "type": "uint256"
        },
        {
          "internalType": "bool",
          "name": "whiteList",
          "type": "bool"
        }
      ],
      "stateMutability": "view",
      "type": "function",
      "constant": true
    },
    {
      "inputs": [
        {
          "internalType": "bytes4",
          "name": "interfaceId",
          "type": "bytes4"
        }
      ],
      "name": "supportsInterface",
      "outputs": [
        {
          "internalType": "bool",
          "name": "",
          "type": "bool"
        }
      ],
      "stateMutability": "view",
      "type": "function",
      "constant": true
    },
    {
      "inputs": [
        {
          "internalType": "uint8",
          "name": "",
          "type": "uint8"
        },
        {
          "internalType": "address",
          "name": "",
          "type": "address"
        }
      ],
      "name": "whiteLists",
      "outputs": [
        {
          "internalType": "bool",
          "name": "",
          "type": "bool"
        }
      ],
      "stateMutability": "view",
      "type": "function",
      "constant": true
    },
    {
      "inputs": [],
      "name": "pause",
      "outputs": [],
      "stateMutability": "nonpayable",
      "type": "function"
    },
    {
      "inputs": [],
      "name": "unpause",
      "outputs": [],
      "stateMutability": "nonpayable",
      "type": "function"
    },
    {
      "inputs": [
        {
          "internalType": "uint8",
          "name": "_order",
          "type": "uint8"
        },
        {
          "internalType": "uint256",
          "name": "_startBoxId",
          "type": "uint256"
        },
        {
          "internalType": "uint256",
          "name": "_endBoxId",
          "type": "uint256"
        },
        {
          "internalType": "uint256",
          "name": "_startTime",
          "type": "uint256"
        },
        {
          "internalType": "uint256",
          "name": "_endTime",
          "type": "uint256"
        },
        {
          "internalType": "uint256",
          "name": "_price",
          "type": "uint256"
        },
        {
          "internalType": "uint256",
          "name": "_limitPerUser",
          "type": "uint256"
        },
        {
          "internalType": "bool",
          "name": "_whiteList",
          "type": "bool"
        }
      ],
      "name": "setSaleOrder",
      "outputs": [],
      "stateMutability": "nonpayable",
      "type": "function"
    },
    {
      "inputs": [
        {
          "internalType": "uint8",
          "name": "_order",
          "type": "uint8"
        },
        {
          "internalType": "address[]",
          "name": "_addresses",
          "type": "address[]"
        }
      ],
      "name": "addWhiteList",
      "outputs": [],
      "stateMutability": "nonpayable",
      "type": "function"
    },
    {
      "inputs": [
        {
          "internalType": "uint8",
          "name": "_order",
          "type": "uint8"
        }
      ],
      "name": "sale",
      "outputs": [],
      "stateMutability": "payable",
      "type": "function",
      "payable": true
    },
    {
      "inputs": [
        {
          "internalType": "address",
          "name": "to",
          "type": "address"
        }
      ],
      "name": "withdrawEth",
      "outputs": [],
      "stateMutability": "nonpayable",
      "type": "function"
    }
  ],
  "bytecode": "0x60806040523480156200001157600080fd5b506040516200318f3803806200318f8339818101604052810190620000379190620002be565b60008060006101000a81548160ff021916908315150217905550620000666000801b33620000f060201b60201c565b81600260006101000a81548173ffffffffffffffffffffffffffffffffffffffff021916908373ffffffffffffffffffffffffffffffffffffffff16021790555080600360006101000a81548173ffffffffffffffffffffffffffffffffffffffff021916908373ffffffffffffffffffffffffffffffffffffffff160217905550505062000305565b620001028282620001e160201b60201c565b620001dd57600180600084815260200190815260200160002060000160008373ffffffffffffffffffffffffffffffffffffffff1673ffffffffffffffffffffffffffffffffffffffff16815260200190815260200160002060006101000a81548160ff021916908315150217905550620001826200024c60201b60201c565b73ffffffffffffffffffffffffffffffffffffffff168173ffffffffffffffffffffffffffffffffffffffff16837f2f8788117e7eff1d82e926ec794901d17c78024a50270940304540a733656f0d60405160405180910390a45b5050565b60006001600084815260200190815260200160002060000160008373ffffffffffffffffffffffffffffffffffffffff1673ffffffffffffffffffffffffffffffffffffffff16815260200190815260200160002060009054906101000a900460ff16905092915050565b600033905090565b600080fd5b600073ffffffffffffffffffffffffffffffffffffffff82169050919050565b6000620002868262000259565b9050919050565b620002988162000279565b8114620002a457600080fd5b50565b600081519050620002b8816200028d565b92915050565b60008060408385031215620002d857620002d762000254565b5b6000620002e885828601620002a7565b9250506020620002fb85828601620002a7565b9150509250929050565b612e7a80620003156000396000f3fe60806040526004361061011f5760003560e01c806336568abe116100a05780638456cb59116100645780638456cb59146103f057806391d1485414610407578063a217fddf14610444578063bcc8661a1461046f578063d547741f146104985761011f565b806336568abe1461030b5780633f4ba83a146103345780635491f5381461034b5780635c975abb14610388578063626a02c6146103b35761011f565b806327466f99116100e757806327466f991461022057806328c9ddb414610249578063297da2a6146102745780632dd07fbc146102b75780632f2ff15d146102e25761011f565b806301ffc9a7146101245780630b6f4cc71461016157806312e9b9261461019e578063248a9ca3146101ba57806325e16063146101f7575b600080fd5b34801561013057600080fd5b5061014b60048036038101906101469190611907565b6104c1565b604051610158919061194f565b60405180910390f35b34801561016d57600080fd5b5061018860048036038101906101839190611a01565b61053b565b604051610195919061194f565b60405180910390f35b6101b860048036038101906101b39190611a41565b61056a565b005b3480156101c657600080fd5b506101e160048036038101906101dc9190611aa4565b610bdb565b6040516101ee9190611ae0565b60405180910390f35b34801561020357600080fd5b5061021e60048036038101906102199190611afb565b610bfb565b005b34801561022c57600080fd5b5061024760048036038101906102429190611b8a565b610cc8565b005b34801561025557600080fd5b5061025e610e97565b60405161026b9190611c9f565b60405180910390f35b34801561028057600080fd5b5061029b60048036038101906102969190611a41565b610ebd565b6040516102ae9796959493929190611cc9565b60405180910390f35b3480156102c357600080fd5b506102cc610f0c565b6040516102d99190611d47565b60405180910390f35b3480156102ee57600080fd5b5061030960048036038101906103049190611d62565b610f32565b005b34801561031757600080fd5b50610332600480360381019061032d9190611d62565b610f53565b005b34801561034057600080fd5b50610349610fd6565b005b34801561035757600080fd5b50610372600480360381019061036d9190611a41565b610fee565b60405161037f9190611da2565b60405180910390f35b34801561039457600080fd5b5061039d611006565b6040516103aa919061194f565b60405180910390f35b3480156103bf57600080fd5b506103da60048036038101906103d59190611a01565b61101c565b6040516103e79190611da2565b60405180910390f35b3480156103fc57600080fd5b50610405611041565b005b34801561041357600080fd5b5061042e60048036038101906104299190611d62565b611059565b60405161043b919061194f565b60405180910390f35b34801561045057600080fd5b506104596110c4565b6040516104669190611ae0565b60405180910390f35b34801561047b57600080fd5b5061049660048036038101906104919190611f16565b6110cb565b005b3480156104a457600080fd5b506104bf60048036038101906104ba9190611d62565b611216565b005b60007f7965db0b000000000000000000000000000000000000000000000000000000007bffffffffffffffffffffffffffffffffffffffffffffffffffffffff1916827bffffffffffffffffffffffffffffffffffffffffffffffffffffffff19161480610534575061053382611237565b5b9050919050565b60056020528160005260406000206020528060005260406000206000915091509054906101000a900460ff1681565b610572611006565b156105b2576040517f08c379a00000000000000000000000000000000000000000000000000000000081526004016105a990611fcf565b60405180910390fd5b60008160ff16116105f8576040517f08c379a00000000000000000000000000000000000000000000000000000000081526004016105ef90612061565b60405180910390fd5b42600460008360ff1660ff168152602001908152602001600020600201541115610657576040517f08c379a000000000000000000000000000000000000000000000000000000000815260040161064e906120f3565b60405180910390fd5b42600460008360ff1660ff1681526020019081526020016000206003015410156106b6576040517f08c379a00000000000000000000000000000000000000000000000000000000081526004016106ad9061215f565b60405180910390fd5b60011515600460008360ff1660ff16815260200190815260200160002060060160009054906101000a900460ff161515036107965760011515600560008360ff1660ff16815260200190815260200160002060003373ffffffffffffffffffffffffffffffffffffffff1673ffffffffffffffffffffffffffffffffffffffff16815260200190815260200160002060009054906101000a900460ff16151514610795576040517f08c379a000000000000000000000000000000000000000000000000000000000815260040161078c906121f1565b60405180910390fd5b5b6000600460008360ff1660ff16815260200190815260200160002060040154346107c0919061226f565b905034600460008460ff1660ff16815260200190815260200160002060040154826107eb91906122a0565b1461082b576040517f08c379a000000000000000000000000000000000000000000000000000000000815260040161082290612346565b60405180910390fd5b8060001061086e576040517f08c379a0000000000000000000000000000000000000000000000000000000008152600401610865906123d8565b60405180910390fd5b80601410156108b2576040517f08c379a00000000000000000000000000000000000000000000000000000000081526004016108a990612490565b60405180910390fd5b80600760008460ff1660ff16815260200190815260200160002060003373ffffffffffffffffffffffffffffffffffffffff1673ffffffffffffffffffffffffffffffffffffffff168152602001908152602001600020600082825461091891906124b0565b92505081905550600460008360ff1660ff16815260200190815260200160002060050154600760008460ff1660ff16815260200190815260200160002060003373ffffffffffffffffffffffffffffffffffffffff1673ffffffffffffffffffffffffffffffffffffffff1681526020019081526020016000205411156109d4576040517f08c379a00000000000000000000000000000000000000000000000000000000081526004016109cb90612578565b60405180910390fd5b6000600660008460ff1660ff16815260200190815260200160002054905081600660008560ff1660ff1681526020019081526020016000206000828254610a1b91906124b0565b92505081905550600460008460ff1660ff168152602001908152602001600020600101546001600660008660ff1660ff16815260200190815260200160002054610a659190612598565b1115610aa6576040517f08c379a0000000000000000000000000000000000000000000000000000000008152600401610a9d9061263e565b60405180910390fd5b60005b82811015610bd557600260009054906101000a900473ffffffffffffffffffffffffffffffffffffffff1673ffffffffffffffffffffffffffffffffffffffff166342842e0e600360009054906101000a900473ffffffffffffffffffffffffffffffffffffffff16338486610b1f91906124b0565b6040518463ffffffff1660e01b8152600401610b3d9392919061265e565b600060405180830381600087803b158015610b5757600080fd5b505af1158015610b6b573d6000803e3d6000fd5b505050508082610b7b91906124b0565b8460ff163373ffffffffffffffffffffffffffffffffffffffff167f9abe6afca30e7673e8c923fe25a0263b60d2951081abd0160cd8451576f94ec960405160405180910390a48080610bcd90612695565b915050610aa9565b50505050565b600060016000838152602001908152602001600020600101549050919050565b6000801b610c08816112a1565b600073ffffffffffffffffffffffffffffffffffffffff168273ffffffffffffffffffffffffffffffffffffffff1603610c77576040517f08c379a0000000000000000000000000000000000000000000000000000000008152600401610c6e9061274f565b60405180910390fd5b60008290508073ffffffffffffffffffffffffffffffffffffffff166108fc479081150290604051600060405180830381858888f19350505050158015610cc2573d6000803e3d6000fd5b50505050565b6000801b610cd5816112a1565b600460008a60ff1660ff16815260200190815260200160002060020154600014610d34576040517f08c379a0000000000000000000000000000000000000000000000000000000008152600401610d2b906127e1565b60405180910390fd5b60008960ff1611610d7a576040517f08c379a0000000000000000000000000000000000000000000000000000000008152600401610d7190612873565b60405180910390fd5b428511610dbc576040517f08c379a0000000000000000000000000000000000000000000000000000000008152600401610db390612905565b60405180910390fd5b858511610dfe576040517f08c379a0000000000000000000000000000000000000000000000000000000008152600401610df590612997565b60405180910390fd5b6000600460008b60ff1660ff1681526020019081526020016000209050888160000181905550878160010181905550868160020181905550858160030181905550848160040181905550838160050181905550828160060160006101000a81548160ff02191690831515021790555088600660008c60ff1660ff1681526020019081526020016000208190555050505050505050505050565b600260009054906101000a900473ffffffffffffffffffffffffffffffffffffffff1681565b60046020528060005260406000206000915090508060000154908060010154908060020154908060030154908060040154908060050154908060060160009054906101000a900460ff16905087565b600360009054906101000a900473ffffffffffffffffffffffffffffffffffffffff1681565b610f3b82610bdb565b610f44816112a1565b610f4e83836112b5565b505050565b610f5b611395565b73ffffffffffffffffffffffffffffffffffffffff168173ffffffffffffffffffffffffffffffffffffffff1614610fc8576040517f08c379a0000000000000000000000000000000000000000000000000000000008152600401610fbf90612a29565b60405180910390fd5b610fd2828261139d565b5050565b6000801b610fe3816112a1565b610feb61147f565b50565b60066020528060005260406000206000915090505481565b60008060009054906101000a900460ff16905090565b6007602052816000526040600020602052806000526040600020600091509150505481565b6000801b61104e816112a1565b611056611520565b50565b60006001600084815260200190815260200160002060000160008373ffffffffffffffffffffffffffffffffffffffff1673ffffffffffffffffffffffffffffffffffffffff16815260200190815260200160002060009054906101000a900460ff16905092915050565b6000801b81565b6000801b6110d8816112a1565b60008360ff161161111e576040517f08c379a000000000000000000000000000000000000000000000000000000000815260040161111590612abb565b60405180910390fd5b8151600010611162576040517f08c379a000000000000000000000000000000000000000000000000000000000815260040161115990612b4d565b60405180910390fd5b60008251905060005b8181101561120f576001600560008760ff1660ff16815260200190815260200160002060008684815181106111a3576111a2612b6d565b5b602002602001015173ffffffffffffffffffffffffffffffffffffffff1673ffffffffffffffffffffffffffffffffffffffff16815260200190815260200160002060006101000a81548160ff021916908315150217905550808061120790612695565b91505061116b565b5050505050565b61121f82610bdb565b611228816112a1565b611232838361139d565b505050565b60007f01ffc9a7000000000000000000000000000000000000000000000000000000007bffffffffffffffffffffffffffffffffffffffffffffffffffffffff1916827bffffffffffffffffffffffffffffffffffffffffffffffffffffffff1916149050919050565b6112b2816112ad611395565b6115c2565b50565b6112bf8282611059565b61139157600180600084815260200190815260200160002060000160008373ffffffffffffffffffffffffffffffffffffffff1673ffffffffffffffffffffffffffffffffffffffff16815260200190815260200160002060006101000a81548160ff021916908315150217905550611336611395565b73ffffffffffffffffffffffffffffffffffffffff168173ffffffffffffffffffffffffffffffffffffffff16837f2f8788117e7eff1d82e926ec794901d17c78024a50270940304540a733656f0d60405160405180910390a45b5050565b600033905090565b6113a78282611059565b1561147b5760006001600084815260200190815260200160002060000160008373ffffffffffffffffffffffffffffffffffffffff1673ffffffffffffffffffffffffffffffffffffffff16815260200190815260200160002060006101000a81548160ff021916908315150217905550611420611395565b73ffffffffffffffffffffffffffffffffffffffff168173ffffffffffffffffffffffffffffffffffffffff16837ff6391f5c32d9c69d2a47ea670b442974b53935d1edc7fd64eb21e047a839171b60405160405180910390a45b5050565b611487611006565b6114c6576040517f08c379a00000000000000000000000000000000000000000000000000000000081526004016114bd90612be8565b60405180910390fd5b60008060006101000a81548160ff0219169083151502179055507f5db9ee0a495bf2e6ff9c91a7834c1ba4fdd244a5e8aa4e537bd38aeae4b073aa611509611395565b6040516115169190611d47565b60405180910390a1565b611528611006565b15611568576040517f08c379a000000000000000000000000000000000000000000000000000000000815260040161155f90611fcf565b60405180910390fd5b60016000806101000a81548160ff0219169083151502179055507f62e78cea01bee320cd4e420270b5ea74000d11b0c9f74754ebdbfc544b05a2586115ab611395565b6040516115b89190611d47565b60405180910390a1565b6115cc8282611059565b61165b576115f18173ffffffffffffffffffffffffffffffffffffffff16601461165f565b6115ff8360001c602061165f565b604051602001611610929190612d1a565b6040516020818303038152906040526040517f08c379a00000000000000000000000000000000000000000000000000000000081526004016116529190612d8d565b60405180910390fd5b5050565b60606000600283600261167291906122a0565b61167c91906124b0565b67ffffffffffffffff81111561169557611694611dd3565b5b6040519080825280601f01601f1916602001820160405280156116c75781602001600182028036833780820191505090505b5090507f3000000000000000000000000000000000000000000000000000000000000000816000815181106116ff576116fe612b6d565b5b60200101907effffffffffffffffffffffffffffffffffffffffffffffffffffffffffffff1916908160001a9053507f78000000000000000000000000000000000000000000000000000000000000008160018151811061176357611762612b6d565b5b60200101907effffffffffffffffffffffffffffffffffffffffffffffffffffffffffffff1916908160001a905350600060018460026117a391906122a0565b6117ad91906124b0565b90505b600181111561184d577f3031323334353637383961626364656600000000000000000000000000000000600f8616601081106117ef576117ee612b6d565b5b1a60f81b82828151811061180657611805612b6d565b5b60200101907effffffffffffffffffffffffffffffffffffffffffffffffffffffffffffff1916908160001a905350600485901c94508061184690612daf565b90506117b0565b5060008414611891576040517f08c379a000000000000000000000000000000000000000000000000000000000815260040161188890612e24565b60405180910390fd5b8091505092915050565b6000604051905090565b600080fd5b600080fd5b60007fffffffff0000000000000000000000000000000000000000000000000000000082169050919050565b6118e4816118af565b81146118ef57600080fd5b50565b600081359050611901816118db565b92915050565b60006020828403121561191d5761191c6118a5565b5b600061192b848285016118f2565b91505092915050565b60008115159050919050565b61194981611934565b82525050565b60006020820190506119646000830184611940565b92915050565b600060ff82169050919050565b6119808161196a565b811461198b57600080fd5b50565b60008135905061199d81611977565b92915050565b600073ffffffffffffffffffffffffffffffffffffffff82169050919050565b60006119ce826119a3565b9050919050565b6119de816119c3565b81146119e957600080fd5b50565b6000813590506119fb816119d5565b92915050565b60008060408385031215611a1857611a176118a5565b5b6000611a268582860161198e565b9250506020611a37858286016119ec565b9150509250929050565b600060208284031215611a5757611a566118a5565b5b6000611a658482850161198e565b91505092915050565b6000819050919050565b611a8181611a6e565b8114611a8c57600080fd5b50565b600081359050611a9e81611a78565b92915050565b600060208284031215611aba57611ab96118a5565b5b6000611ac884828501611a8f565b91505092915050565b611ada81611a6e565b82525050565b6000602082019050611af56000830184611ad1565b92915050565b600060208284031215611b1157611b106118a5565b5b6000611b1f848285016119ec565b91505092915050565b6000819050919050565b611b3b81611b28565b8114611b4657600080fd5b50565b600081359050611b5881611b32565b92915050565b611b6781611934565b8114611b7257600080fd5b50565b600081359050611b8481611b5e565b92915050565b600080600080600080600080610100898b031215611bab57611baa6118a5565b5b6000611bb98b828c0161198e565b9850506020611bca8b828c01611b49565b9750506040611bdb8b828c01611b49565b9650506060611bec8b828c01611b49565b9550506080611bfd8b828c01611b49565b94505060a0611c0e8b828c01611b49565b93505060c0611c1f8b828c01611b49565b92505060e0611c308b828c01611b75565b9150509295985092959890939650565b6000819050919050565b6000611c65611c60611c5b846119a3565b611c40565b6119a3565b9050919050565b6000611c7782611c4a565b9050919050565b6000611c8982611c6c565b9050919050565b611c9981611c7e565b82525050565b6000602082019050611cb46000830184611c90565b92915050565b611cc381611b28565b82525050565b600060e082019050611cde600083018a611cba565b611ceb6020830189611cba565b611cf86040830188611cba565b611d056060830187611cba565b611d126080830186611cba565b611d1f60a0830185611cba565b611d2c60c0830184611940565b98975050505050505050565b611d41816119c3565b82525050565b6000602082019050611d5c6000830184611d38565b92915050565b60008060408385031215611d7957611d786118a5565b5b6000611d8785828601611a8f565b9250506020611d98858286016119ec565b9150509250929050565b6000602082019050611db76000830184611cba565b92915050565b600080fd5b6000601f19601f8301169050919050565b7f4e487b7100000000000000000000000000000000000000000000000000000000600052604160045260246000fd5b611e0b82611dc2565b810181811067ffffffffffffffff82111715611e2a57611e29611dd3565b5b80604052505050565b6000611e3d61189b565b9050611e498282611e02565b919050565b600067ffffffffffffffff821115611e6957611e68611dd3565b5b602082029050602081019050919050565b600080fd5b6000611e92611e8d84611e4e565b611e33565b90508083825260208201905060208402830185811115611eb557611eb4611e7a565b5b835b81811015611ede5780611eca88826119ec565b845260208401935050602081019050611eb7565b5050509392505050565b600082601f830112611efd57611efc611dbd565b5b8135611f0d848260208601611e7f565b91505092915050565b60008060408385031215611f2d57611f2c6118a5565b5b6000611f3b8582860161198e565b925050602083013567ffffffffffffffff811115611f5c57611f5b6118aa565b5b611f6885828601611ee8565b9150509250929050565b600082825260208201905092915050565b7f5061757361626c653a2070617573656400000000000000000000000000000000600082015250565b6000611fb9601083611f72565b9150611fc482611f83565b602082019050919050565b60006020820190508181036000830152611fe881611fac565b9050919050565b7f5b544b4d496e6f425d5b73616c655d3a206f72646572206d757374206265206760008201527f726561746572207468616e207a65726f00000000000000000000000000000000602082015250565b600061204b603083611f72565b915061205682611fef565b604082019050919050565b6000602082019050818103600083015261207a8161203e565b9050919050565b7f5b544b4d496e6f425d5b73616c655d3a2073616c65206973206e6f742073746160008201527f7274656400000000000000000000000000000000000000000000000000000000602082015250565b60006120dd602483611f72565b91506120e882612081565b604082019050919050565b6000602082019050818103600083015261210c816120d0565b9050919050565b7f5b544b4d496e6f425d5b73616c655d3a2073616c6520697320656e6465640000600082015250565b6000612149601e83611f72565b915061215482612113565b602082019050919050565b600060208201905081810360008301526121788161213c565b9050919050565b7f5b544b4d496e6f425d5b73616c655d3a206e6f7420696e2077686974656c697360008201527f7400000000000000000000000000000000000000000000000000000000000000602082015250565b60006121db602183611f72565b91506121e68261217f565b604082019050919050565b6000602082019050818103600083015261220a816121ce565b9050919050565b7f4e487b7100000000000000000000000000000000000000000000000000000000600052601260045260246000fd5b7f4e487b7100000000000000000000000000000000000000000000000000000000600052601160045260246000fd5b600061227a82611b28565b915061228583611b28565b92508261229557612294612211565b5b828204905092915050565b60006122ab82611b28565b91506122b683611b28565b9250817fffffffffffffffffffffffffffffffffffffffffffffffffffffffffffffffff04831182151516156122ef576122ee612240565b5b828202905092915050565b7f5b544b4d496e6f425d5b73616c655d3a20696e636f72726563742076616c7565600082015250565b6000612330602083611f72565b915061233b826122fa565b602082019050919050565b6000602082019050818103600083015261235f81612323565b9050919050565b7f5b544b4d496e6f425d5b73616c655d3a20626f7820616d6f756e74206d75737460008201527f2062652067726561746572207468616e207a65726f0000000000000000000000602082015250565b60006123c2603583611f72565b91506123cd82612366565b604082019050919050565b600060208201905081810360008301526123f1816123b5565b9050919050565b7f5b544b4d496e6f425d5b73616c655d3a206578636565646564206e756d62657260008201527f206f6620626f786573207075726368617361626c65206174206f6e652074696d60208201527f6500000000000000000000000000000000000000000000000000000000000000604082015250565b600061247a604183611f72565b9150612485826123f8565b606082019050919050565b600060208201905081810360008301526124a98161246d565b9050919050565b60006124bb82611b28565b91506124c683611b28565b9250827fffffffffffffffffffffffffffffffffffffffffffffffffffffffffffffffff038211156124fb576124fa612240565b5b828201905092915050565b7f5b544b4d496e6f425d5b73616c655d3a206578636565646564206e756d62657260008201527f206f6620626f786573207075726368617361626c650000000000000000000000602082015250565b6000612562603583611f72565b915061256d82612506565b604082019050919050565b6000602082019050818103600083015261259181612555565b9050919050565b60006125a382611b28565b91506125ae83611b28565b9250828210156125c1576125c0612240565b5b828203905092915050565b7f5b544b4d496e6f425d5b73616c655d3a204e6f7420656e6f75676820626f786560008201527f7320617265206c65667400000000000000000000000000000000000000000000602082015250565b6000612628602a83611f72565b9150612633826125cc565b604082019050919050565b600060208201905081810360008301526126578161261b565b9050919050565b60006060820190506126736000830186611d38565b6126806020830185611d38565b61268d6040830184611cba565b949350505050565b60006126a082611b28565b91507fffffffffffffffffffffffffffffffffffffffffffffffffffffffffffffffff82036126d2576126d1612240565b5b600182019050919050565b7f5b544b4d496e6f425d5b77697468647261774574685d3a207472616e7366657260008201527f20746f20746865207a65726f2061646472657373000000000000000000000000602082015250565b6000612739603483611f72565b9150612744826126dd565b604082019050919050565b600060208201905081810360008301526127688161272c565b9050919050565b7f5b544b4d496e6f425d5b73657453616c654f726465725d3a2074686973206f7260008201527f64657220616c7265616479207365740000000000000000000000000000000000602082015250565b60006127cb602f83611f72565b91506127d68261276f565b604082019050919050565b600060208201905081810360008301526127fa816127be565b9050919050565b7f5b544b4d496e6f425d5b73657453616c654f726465725d3a206f72646572206d60008201527f7573742062652067726561746572207468616e207a65726f0000000000000000602082015250565b600061285d603883611f72565b915061286882612801565b604082019050919050565b6000602082019050818103600083015261288c81612850565b9050919050565b7f5b544b4d496e6f425d5b73657453616c654f726465725d3a205f656e6454696d60008201527f6520697320756e646572206e6f77000000000000000000000000000000000000602082015250565b60006128ef602e83611f72565b91506128fa82612893565b604082019050919050565b6000602082019050818103600083015261291e816128e2565b9050919050565b7f5b544b4d496e6f425d5b73657453616c654f726465725d3a205f656e6454696d60008201527f6520697320756e646572205f737461727454696d650000000000000000000000602082015250565b6000612981603583611f72565b915061298c82612925565b604082019050919050565b600060208201905081810360008301526129b081612974565b9050919050565b7f416363657373436f6e74726f6c3a2063616e206f6e6c792072656e6f756e636560008201527f20726f6c657320666f722073656c660000000000000000000000000000000000602082015250565b6000612a13602f83611f72565b9150612a1e826129b7565b604082019050919050565b60006020820190508181036000830152612a4281612a06565b9050919050565b7f5b544b4d496e6f425d5b61646457686974654c6973745d3a206f72646572206d60008201527f7573742062652067726561746572207468616e207a65726f0000000000000000602082015250565b6000612aa5603883611f72565b9150612ab082612a49565b604082019050919050565b60006020820190508181036000830152612ad481612a98565b9050919050565b7f5b544b4d496e6f425d5b61646457686974654c6973745d3a206164647265737360008201527f206d7573742062652067726561746572207468616e207a65726f000000000000602082015250565b6000612b37603a83611f72565b9150612b4282612adb565b604082019050919050565b60006020820190508181036000830152612b6681612b2a565b9050919050565b7f4e487b7100000000000000000000000000000000000000000000000000000000600052603260045260246000fd5b7f5061757361626c653a206e6f7420706175736564000000000000000000000000600082015250565b6000612bd2601483611f72565b9150612bdd82612b9c565b602082019050919050565b60006020820190508181036000830152612c0181612bc5565b9050919050565b600081905092915050565b7f416363657373436f6e74726f6c3a206163636f756e7420000000000000000000600082015250565b6000612c49601783612c08565b9150612c5482612c13565b601782019050919050565b600081519050919050565b60005b83811015612c88578082015181840152602081019050612c6d565b83811115612c97576000848401525b50505050565b6000612ca882612c5f565b612cb28185612c08565b9350612cc2818560208601612c6a565b80840191505092915050565b7f206973206d697373696e6720726f6c6520000000000000000000000000000000600082015250565b6000612d04601183612c08565b9150612d0f82612cce565b601182019050919050565b6000612d2582612c3c565b9150612d318285612c9d565b9150612d3c82612cf7565b9150612d488284612c9d565b91508190509392505050565b6000612d5f82612c5f565b612d698185611f72565b9350612d79818560208601612c6a565b612d8281611dc2565b840191505092915050565b60006020820190508181036000830152612da78184612d54565b905092915050565b6000612dba82611b28565b915060008203612dcd57612dcc612240565b5b600182039050919050565b7f537472696e67733a20686578206c656e67746820696e73756666696369656e74600082015250565b6000612e0e602083611f72565b9150612e1982612dd8565b602082019050919050565b60006020820190508181036000830152612e3d81612e01565b905091905056fea26469706673582212204d55ae56744a08cd4b70e08a9e516500086e71769790af93f09cdc5a08d611d764736f6c634300080e0033",
  "immutableReferences": {},
  "source": "// SPDX-License-Identifier: MIT\r\npragma solidity ^0.8.14;\r\n\r\nimport \"@openzeppelin/contracts/token/ERC721/ERC721.sol\";\r\nimport \"@openzeppelin/contracts/security/Pausable.sol\";\r\nimport \"@openzeppelin/contracts/access/AccessControl.sol\";\r\n\r\ncontract TKMIno is Pausable, AccessControl {\r\n    ERC721 public TKMBox;\r\n    address public Operator;\r\n\r\n    event Sale(address indexed from, uint8 indexed order, uint256 indexed boxId);\r\n\r\n    /////////////////////////////////////////////////////\r\n    // Box Sale\r\n    struct saleOrder {\r\n        uint256 startBoxId;\r\n        uint256 endBoxId;\r\n        uint256 startTime;\r\n        uint256 endTime;\r\n        uint256 price;\r\n        uint256 limitPerUser;\r\n        bool whiteList;\r\n    }\r\n    mapping(uint8 => saleOrder) public saleOrders;\r\n    \r\n    mapping(uint8 => mapping(address => bool)) public whiteLists;\r\n\r\n    mapping(uint8 => uint256) public currentNftIds;\r\n    \r\n    mapping(uint8 => mapping(address => uint256)) public boxPerUser;\r\n\r\n    constructor(address _TKMBox, address _Operator) {\r\n        _grantRole(DEFAULT_ADMIN_ROLE, msg.sender);\r\n        TKMBox = ERC721(payable(_TKMBox));\r\n        Operator = _Operator;\r\n    }\r\n\r\n    function pause() public onlyRole(DEFAULT_ADMIN_ROLE) {\r\n        _pause();\r\n    }\r\n\r\n    function unpause() public onlyRole(DEFAULT_ADMIN_ROLE) {\r\n        _unpause();\r\n    }\r\n\r\n    function setSaleOrder(\r\n        uint8 _order,\r\n        uint256 _startBoxId,\r\n        uint256 _endBoxId,\r\n        uint256 _startTime,\r\n        uint256 _endTime,\r\n        uint256 _price,\r\n        uint256 _limitPerUser,\r\n        bool _whiteList\r\n    ) public onlyRole(DEFAULT_ADMIN_ROLE) {\r\n        require(0 == saleOrders[_order].startTime, \"[TKMInoB][setSaleOrder]: this order already set\");\r\n\r\n        require(_order > 0, \"[TKMInoB][setSaleOrder]: order must be greater than zero\");\r\n\r\n        require(_endTime > block.timestamp, \"[TKMInoB][setSaleOrder]: _endTime is under now\");\r\n        require(_endTime > _startTime, \"[TKMInoB][setSaleOrder]: _endTime is under _startTime\");\r\n\r\n        saleOrder storage newOrder = saleOrders[_order];\r\n        newOrder.startBoxId = _startBoxId;\r\n        newOrder.endBoxId = _endBoxId;\r\n        newOrder.startTime = _startTime;\r\n        newOrder.endTime = _endTime;\r\n        newOrder.price = _price;\r\n        newOrder.limitPerUser = _limitPerUser;\r\n        newOrder.whiteList = _whiteList;\r\n\r\n        currentNftIds[_order] = _startBoxId;\r\n    }\r\n\r\n    function addWhiteList(uint8 _order, address[] memory _addresses) public onlyRole(DEFAULT_ADMIN_ROLE) {\r\n        require(_order > 0, \"[TKMInoB][addWhiteList]: order must be greater than zero\");\r\n\r\n        require(0 < _addresses.length, \"[TKMInoB][addWhiteList]: address must be greater than zero\");\r\n\r\n        uint256 length = _addresses.length;\r\n        for (uint256 i = 0; i < length; i++) {\r\n            whiteLists[_order][_addresses[i]] = true;\r\n        }\r\n    }\r\n\r\n    function sale(uint8 _order) public payable whenNotPaused {\r\n        require(_order > 0, \"[TKMInoB][sale]: order must be greater than zero\");\r\n\r\n        require(saleOrders[_order].startTime <= block.timestamp, \"[TKMInoB][sale]: sale is not started\");\r\n        require(saleOrders[_order].endTime >= block.timestamp, \"[TKMInoB][sale]: sale is ended\");\r\n\r\n        if(saleOrders[_order].whiteList == true) {\r\n            require(whiteLists[_order][msg.sender] == true, \"[TKMInoB][sale]: not in whitelist\");\r\n        }\r\n\r\n        uint256 boxAmount = msg.value / saleOrders[_order].price;\r\n        require(boxAmount * saleOrders[_order].price == msg.value, \"[TKMInoB][sale]: incorrect value\");\r\n        require(0 < boxAmount, \"[TKMInoB][sale]: box amount must be greater than zero\");\r\n        require(20 >= boxAmount, \"[TKMInoB][sale]: exceeded number of boxes purchasable at one time\");\r\n        \r\n        boxPerUser[_order][msg.sender] += boxAmount;\r\n        require(boxPerUser[_order][msg.sender] <= saleOrders[_order].limitPerUser, \"[TKMInoB][sale]: exceeded number of boxes purchasable\");\r\n\r\n        uint256 currentNftId = currentNftIds[_order];\r\n        currentNftIds[_order] += boxAmount;\r\n        require(currentNftIds[_order] - 1 <= saleOrders[_order].endBoxId, \"[TKMInoB][sale]: Not enough boxes are left\");\r\n        \r\n        for (uint256 i = 0; i < boxAmount; i++) {\r\n            TKMBox.safeTransferFrom(Operator, msg.sender, currentNftId + i);\r\n            emit Sale(msg.sender, _order, currentNftId + i);\r\n        }\r\n    }\r\n\r\n    function withdrawEth(address to) public onlyRole(DEFAULT_ADMIN_ROLE) {\r\n        require(to != address(0), \"[TKMInoB][withdrawEth]: transfer to the zero address\");\r\n        address payable receiver = payable(to);\r\n        receiver.transfer(address(this).balance);\r\n    }\r\n}\r\n",
  "sourcePath": "C:\\Works\\1_Github\\solidity_tinyping\\contracts\\TKMIno.sol",
  "compiler": {
    "name": "solc",
    "version": "0.8.14+commit.80d49f37.Emscripten.clang"
  },
  "schemaVersion": "3.4.7",
  "updatedAt": "2023-01-09T01:46:58.213Z",
  "networkType": "ethereum",
  "devdoc": {
    "kind": "dev",
    "methods": {
      "getRoleAdmin(bytes32)": {
        "details": "Returns the admin role that controls `role`. See {grantRole} and {revokeRole}. To change a role's admin, use {_setRoleAdmin}."
      },
      "grantRole(bytes32,address)": {
        "details": "Grants `role` to `account`. If `account` had not been already granted `role`, emits a {RoleGranted} event. Requirements: - the caller must have ``role``'s admin role."
      },
      "hasRole(bytes32,address)": {
        "details": "Returns `true` if `account` has been granted `role`."
      },
      "paused()": {
        "details": "Returns true if the contract is paused, and false otherwise."
      },
      "renounceRole(bytes32,address)": {
        "details": "Revokes `role` from the calling account. Roles are often managed via {grantRole} and {revokeRole}: this function's purpose is to provide a mechanism for accounts to lose their privileges if they are compromised (such as when a trusted device is misplaced). If the calling account had been revoked `role`, emits a {RoleRevoked} event. Requirements: - the caller must be `account`."
      },
      "revokeRole(bytes32,address)": {
        "details": "Revokes `role` from `account`. If `account` had been granted `role`, emits a {RoleRevoked} event. Requirements: - the caller must have ``role``'s admin role."
      },
      "supportsInterface(bytes4)": {
        "details": "See {IERC165-supportsInterface}."
      }
    },
    "version": 1
  },
  "userdoc": {
    "kind": "user",
    "methods": {},
    "version": 1
  }
}