{
  "contractName": "TKMMarketKlayBoxA",
  "abi": [
    {
      "inputs": [
        {
          "internalType": "address",
          "name": "_NFTContract",
          "type": "address"
        },
        {
          "internalType": "address",
          "name": "_holder",
          "type": "address"
        },
        {
          "internalType": "uint256",
          "name": "_fee",
          "type": "uint256"
        },
        {
          "internalType": "address",
          "name": "_feeOwner",
          "type": "address"
        }
      ],
      "stateMutability": "nonpayable",
      "type": "constructor"
    },
    {
      "anonymous": false,
      "inputs": [
        {
          "indexed": true,
          "internalType": "address",
          "name": "from",
          "type": "address"
        },
        {
          "indexed": true,
          "internalType": "uint256",
          "name": "tokenId",
          "type": "uint256"
        },
        {
          "indexed": false,
          "internalType": "uint256",
          "name": "price",
          "type": "uint256"
        }
      ],
      "name": "Cancel",
      "type": "event"
    },
    {
      "anonymous": false,
      "inputs": [
        {
          "indexed": true,
          "internalType": "address",
          "name": "from",
          "type": "address"
        },
        {
          "indexed": true,
          "internalType": "address",
          "name": "to",
          "type": "address"
        }
      ],
      "name": "ChangeOwner",
      "type": "event"
    },
    {
      "anonymous": false,
      "inputs": [
        {
          "indexed": true,
          "internalType": "address",
          "name": "from",
          "type": "address"
        },
        {
          "indexed": true,
          "internalType": "uint256",
          "name": "tokenId",
          "type": "uint256"
        },
        {
          "indexed": false,
          "internalType": "uint256",
          "name": "price",
          "type": "uint256"
        }
      ],
      "name": "Listing",
      "type": "event"
    },
    {
      "anonymous": false,
      "inputs": [
        {
          "indexed": true,
          "internalType": "address",
          "name": "from",
          "type": "address"
        },
        {
          "indexed": true,
          "internalType": "address",
          "name": "to",
          "type": "address"
        },
        {
          "indexed": true,
          "internalType": "uint256",
          "name": "tokenId",
          "type": "uint256"
        },
        {
          "indexed": false,
          "internalType": "uint256",
          "name": "price",
          "type": "uint256"
        }
      ],
      "name": "Sell",
      "type": "event"
    },
    {
      "inputs": [],
      "name": "NFTContract_",
      "outputs": [
        {
          "internalType": "contract ERC721",
          "name": "",
          "type": "address"
        }
      ],
      "stateMutability": "view",
      "type": "function",
      "constant": true
    },
    {
      "inputs": [
        {
          "internalType": "address payable",
          "name": "newOwner_",
          "type": "address"
        }
      ],
      "name": "changeOwner",
      "outputs": [],
      "stateMutability": "nonpayable",
      "type": "function"
    },
    {
      "inputs": [],
      "name": "fee_",
      "outputs": [
        {
          "internalType": "uint256",
          "name": "",
          "type": "uint256"
        }
      ],
      "stateMutability": "view",
      "type": "function",
      "constant": true
    },
    {
      "inputs": [],
      "name": "holder_",
      "outputs": [
        {
          "internalType": "address",
          "name": "",
          "type": "address"
        }
      ],
      "stateMutability": "view",
      "type": "function",
      "constant": true
    },
    {
      "inputs": [],
      "name": "owner",
      "outputs": [
        {
          "internalType": "address payable",
          "name": "",
          "type": "address"
        }
      ],
      "stateMutability": "view",
      "type": "function",
      "constant": true
    },
    {
      "inputs": [
        {
          "internalType": "uint256",
          "name": "",
          "type": "uint256"
        }
      ],
      "name": "sellItems",
      "outputs": [
        {
          "internalType": "uint256",
          "name": "price",
          "type": "uint256"
        },
        {
          "internalType": "address",
          "name": "tokenOwner",
          "type": "address"
        }
      ],
      "stateMutability": "view",
      "type": "function",
      "constant": true
    },
    {
      "inputs": [
        {
          "internalType": "uint256",
          "name": "_fee",
          "type": "uint256"
        }
      ],
      "name": "setFee",
      "outputs": [],
      "stateMutability": "nonpayable",
      "type": "function"
    },
    {
      "inputs": [
        {
          "internalType": "address",
          "name": "_feeOwner",
          "type": "address"
        }
      ],
      "name": "setFeeOwner",
      "outputs": [],
      "stateMutability": "nonpayable",
      "type": "function"
    },
    {
      "inputs": [
        {
          "internalType": "address",
          "name": "to",
          "type": "address"
        }
      ],
      "name": "withdrawEth",
      "outputs": [],
      "stateMutability": "nonpayable",
      "type": "function"
    },
    {
      "inputs": [
        {
          "internalType": "uint256",
          "name": "tokenId",
          "type": "uint256"
        },
        {
          "internalType": "uint256",
          "name": "price",
          "type": "uint256"
        }
      ],
      "name": "listing",
      "outputs": [],
      "stateMutability": "nonpayable",
      "type": "function"
    },
    {
      "inputs": [
        {
          "internalType": "uint256",
          "name": "tokenId",
          "type": "uint256"
        }
      ],
      "name": "cancel",
      "outputs": [],
      "stateMutability": "nonpayable",
      "type": "function"
    },
    {
      "inputs": [
        {
          "internalType": "uint256",
          "name": "tokenId",
          "type": "uint256"
        }
      ],
      "name": "sell",
      "outputs": [],
      "stateMutability": "payable",
      "type": "function",
      "payable": true
    }
  ],
  "bytecode": "0x60806040523480156200001157600080fd5b5060405162001f2638038062001f268339818101604052810190620000379190620001f8565b83838383336000806101000a81548173ffffffffffffffffffffffffffffffffffffffff021916908373ffffffffffffffffffffffffffffffffffffffff16021790555083600160006101000a81548173ffffffffffffffffffffffffffffffffffffffff021916908373ffffffffffffffffffffffffffffffffffffffff16021790555082600260006101000a81548173ffffffffffffffffffffffffffffffffffffffff021916908373ffffffffffffffffffffffffffffffffffffffff1602179055508160038190555080600460006101000a81548173ffffffffffffffffffffffffffffffffffffffff021916908373ffffffffffffffffffffffffffffffffffffffff16021790555050505050505050506200026a565b600080fd5b600073ffffffffffffffffffffffffffffffffffffffff82169050919050565b6000620001858262000158565b9050919050565b620001978162000178565b8114620001a357600080fd5b50565b600081519050620001b7816200018c565b92915050565b6000819050919050565b620001d281620001bd565b8114620001de57600080fd5b50565b600081519050620001f281620001c7565b92915050565b6000806000806080858703121562000215576200021462000153565b5b60006200022587828801620001a6565b94505060206200023887828801620001a6565b93505060406200024b87828801620001e1565b92505060606200025e87828801620001a6565b91505092959194509250565b611cac806200027a6000396000f3fe6080604052600436106100a75760003560e01c806386f9258e1161006457806386f9258e146101b75780638da5cb5b146101e2578063a6f9dae11461020d578063ad8e653e14610236578063ccfdeb0a14610261578063e4849b321461028c576100a7565b806317e50ef3146100ac57806325e16063146100ea57806340e58ee5146101135780634b104eff1461013c57806369fe0e2d146101655780637f6d6df91461018e575b600080fd5b3480156100b857600080fd5b506100d360048036038101906100ce9190611235565b6102a8565b6040516100e19291906112b2565b60405180910390f35b3480156100f657600080fd5b50610111600480360381019061010c9190611307565b6102ec565b005b34801561011f57600080fd5b5061013a60048036038101906101359190611235565b610439565b005b34801561014857600080fd5b50610163600480360381019061015e9190611307565b6104b0565b005b34801561017157600080fd5b5061018c60048036038101906101879190611235565b610582565b005b34801561019a57600080fd5b506101b560048036038101906101b09190611334565b61061a565b005b3480156101c357600080fd5b506101cc61068d565b6040516101d991906113d3565b60405180910390f35b3480156101ee57600080fd5b506101f76106b3565b604051610204919061140f565b60405180910390f35b34801561021957600080fd5b50610234600480360381019061022f9190611456565b6106d7565b005b34801561024257600080fd5b5061024b610871565b6040516102589190611483565b60405180910390f35b34801561026d57600080fd5b50610276610897565b604051610283919061149e565b60405180910390f35b6102a660048036038101906102a19190611235565b61089d565b005b60056020528060005260406000206000915090508060000154908060010160009054906101000a900473ffffffffffffffffffffffffffffffffffffffff16905082565b60008054906101000a900473ffffffffffffffffffffffffffffffffffffffff1673ffffffffffffffffffffffffffffffffffffffff163373ffffffffffffffffffffffffffffffffffffffff161461037a576040517f08c379a00000000000000000000000000000000000000000000000000000000081526004016103719061153c565b60405180910390fd5b600073ffffffffffffffffffffffffffffffffffffffff168173ffffffffffffffffffffffffffffffffffffffff16036103e9576040517f08c379a00000000000000000000000000000000000000000000000000000000081526004016103e0906115ce565b60405180910390fd5b60008190508073ffffffffffffffffffffffffffffffffffffffff166108fc479081150290604051600060405180830381858888f19350505050158015610434573d6000803e3d6000fd5b505050565b60006005600083815260200190815260200160002060000154905061045d82610967565b813373ffffffffffffffffffffffffffffffffffffffff167f13f70c3891bf9326a78bedbd802efd57fa4451e8b0eab22d638b4e6b7a878eaf836040516104a4919061149e565b60405180910390a35050565b60008054906101000a900473ffffffffffffffffffffffffffffffffffffffff1673ffffffffffffffffffffffffffffffffffffffff163373ffffffffffffffffffffffffffffffffffffffff161461053e576040517f08c379a00000000000000000000000000000000000000000000000000000000081526004016105359061153c565b60405180910390fd5b80600460006101000a81548173ffffffffffffffffffffffffffffffffffffffff021916908373ffffffffffffffffffffffffffffffffffffffff16021790555050565b60008054906101000a900473ffffffffffffffffffffffffffffffffffffffff1673ffffffffffffffffffffffffffffffffffffffff163373ffffffffffffffffffffffffffffffffffffffff1614610610576040517f08c379a00000000000000000000000000000000000000000000000000000000081526004016106079061153c565b60405180910390fd5b8060038190555050565b6106248282610b5f565b813373ffffffffffffffffffffffffffffffffffffffff167f6935191bc626032d8c74ced321b2d6a62df2578bf60599625cb4f59d51e3849f6005600086815260200190815260200160002060000154604051610681919061149e565b60405180910390a35050565b600160009054906101000a900473ffffffffffffffffffffffffffffffffffffffff1681565b60008054906101000a900473ffffffffffffffffffffffffffffffffffffffff1681565b60008054906101000a900473ffffffffffffffffffffffffffffffffffffffff1673ffffffffffffffffffffffffffffffffffffffff163373ffffffffffffffffffffffffffffffffffffffff1614610765576040517f08c379a000000000000000000000000000000000000000000000000000000000815260040161075c9061153c565b60405180910390fd5b600073ffffffffffffffffffffffffffffffffffffffff168173ffffffffffffffffffffffffffffffffffffffff16036107d4576040517f08c379a00000000000000000000000000000000000000000000000000000000081526004016107cb9061163a565b60405180910390fd5b806000806101000a81548173ffffffffffffffffffffffffffffffffffffffff021916908373ffffffffffffffffffffffffffffffffffffffff1602179055508073ffffffffffffffffffffffffffffffffffffffff163373ffffffffffffffffffffffffffffffffffffffff167f9aecf86140d81442289f667eb72e1202a8fbb3478a686659952e145e8531965660405160405180910390a350565b600260009054906101000a900473ffffffffffffffffffffffffffffffffffffffff1681565b60035481565b60006005600083815260200190815260200160002060000154905060006005600084815260200190815260200160002060010160009054906101000a900473ffffffffffffffffffffffffffffffffffffffff1690506108fc83610efc565b823373ffffffffffffffffffffffffffffffffffffffff168273ffffffffffffffffffffffffffffffffffffffff167fa082022e93cfcd9f1da5f9236718053910f7e840da080c789c7845698dc032ff8560405161095a919061149e565b60405180910390a4505050565b60056000828152602001908152602001600020600001546000106109c0576040517f08c379a00000000000000000000000000000000000000000000000000000000081526004016109b7906116a6565b60405180910390fd5b6005600082815260200190815260200160002060010160009054906101000a900473ffffffffffffffffffffffffffffffffffffffff1673ffffffffffffffffffffffffffffffffffffffff163373ffffffffffffffffffffffffffffffffffffffff1614610a64576040517f08c379a0000000000000000000000000000000000000000000000000000000008152600401610a5b90611712565b60405180910390fd5b600160009054906101000a900473ffffffffffffffffffffffffffffffffffffffff1673ffffffffffffffffffffffffffffffffffffffff166342842e0e600260009054906101000a900473ffffffffffffffffffffffffffffffffffffffff1633846040518463ffffffff1660e01b8152600401610ae593929190611732565b600060405180830381600087803b158015610aff57600080fd5b505af1158015610b13573d6000803e3d6000fd5b50505050600560008281526020019081526020016000206000808201600090556001820160006101000a81549073ffffffffffffffffffffffffffffffffffffffff0219169055505050565b60008111610ba2576040517f08c379a0000000000000000000000000000000000000000000000000000000008152600401610b99906117db565b60405180910390fd5b600160009054906101000a900473ffffffffffffffffffffffffffffffffffffffff1673ffffffffffffffffffffffffffffffffffffffff16636352211e836040518263ffffffff1660e01b8152600401610bfd919061149e565b602060405180830381865afa158015610c1a573d6000803e3d6000fd5b505050506040513d601f19601f82011682018060405250810190610c3e9190611810565b73ffffffffffffffffffffffffffffffffffffffff163373ffffffffffffffffffffffffffffffffffffffff1614610cab576040517f08c379a0000000000000000000000000000000000000000000000000000000008152600401610ca2906118af565b60405180910390fd5b6005600083815260200190815260200160002060000154600014610d04576040517f08c379a0000000000000000000000000000000000000000000000000000000008152600401610cfb90611941565b60405180910390fd5b600160009054906101000a900473ffffffffffffffffffffffffffffffffffffffff1673ffffffffffffffffffffffffffffffffffffffff1663e985e9c533306040518363ffffffff1660e01b8152600401610d61929190611961565b602060405180830381865afa158015610d7e573d6000803e3d6000fd5b505050506040513d601f19601f82011682018060405250810190610da291906119c2565b610de1576040517f08c379a0000000000000000000000000000000000000000000000000000000008152600401610dd890611a61565b60405180910390fd5b600160009054906101000a900473ffffffffffffffffffffffffffffffffffffffff1673ffffffffffffffffffffffffffffffffffffffff166342842e0e33600260009054906101000a900473ffffffffffffffffffffffffffffffffffffffff16856040518463ffffffff1660e01b8152600401610e6293929190611732565b600060405180830381600087803b158015610e7c57600080fd5b505af1158015610e90573d6000803e3d6000fd5b505050506000600560008481526020019081526020016000209050818160000181905550338160010160006101000a81548173ffffffffffffffffffffffffffffffffffffffff021916908373ffffffffffffffffffffffffffffffffffffffff160217905550505050565b6005600082815260200190815260200160002060000154600010610f55576040517f08c379a0000000000000000000000000000000000000000000000000000000008152600401610f4c90611acd565b60405180910390fd5b60056000828152602001908152602001600020600001543414610fad576040517f08c379a0000000000000000000000000000000000000000000000000000000008152600401610fa490611b39565b60405180910390fd5b600060646003546005600085815260200190815260200160002060000154610fd59190611b88565b610fdf9190611c11565b9050806000101561105a576000600460009054906101000a900473ffffffffffffffffffffffffffffffffffffffff1690508073ffffffffffffffffffffffffffffffffffffffff166108fc839081150290604051600060405180830381858888f19350505050158015611057573d6000803e3d6000fd5b50505b60006005600084815260200190815260200160002060010160009054906101000a900473ffffffffffffffffffffffffffffffffffffffff1690508073ffffffffffffffffffffffffffffffffffffffff166108fc8360056000878152602001908152602001600020600001546110d19190611c42565b9081150290604051600060405180830381858888f193505050501580156110fc573d6000803e3d6000fd5b50600160009054906101000a900473ffffffffffffffffffffffffffffffffffffffff1673ffffffffffffffffffffffffffffffffffffffff166342842e0e600260009054906101000a900473ffffffffffffffffffffffffffffffffffffffff1633866040518463ffffffff1660e01b815260040161117e93929190611732565b600060405180830381600087803b15801561119857600080fd5b505af11580156111ac573d6000803e3d6000fd5b50505050600560008481526020019081526020016000206000808201600090556001820160006101000a81549073ffffffffffffffffffffffffffffffffffffffff02191690555050505050565b600080fd5b6000819050919050565b611212816111ff565b811461121d57600080fd5b50565b60008135905061122f81611209565b92915050565b60006020828403121561124b5761124a6111fa565b5b600061125984828501611220565b91505092915050565b61126b816111ff565b82525050565b600073ffffffffffffffffffffffffffffffffffffffff82169050919050565b600061129c82611271565b9050919050565b6112ac81611291565b82525050565b60006040820190506112c76000830185611262565b6112d460208301846112a3565b9392505050565b6112e481611291565b81146112ef57600080fd5b50565b600081359050611301816112db565b92915050565b60006020828403121561131d5761131c6111fa565b5b600061132b848285016112f2565b91505092915050565b6000806040838503121561134b5761134a6111fa565b5b600061135985828601611220565b925050602061136a85828601611220565b9150509250929050565b6000819050919050565b600061139961139461138f84611271565b611374565b611271565b9050919050565b60006113ab8261137e565b9050919050565b60006113bd826113a0565b9050919050565b6113cd816113b2565b82525050565b60006020820190506113e860008301846113c4565b92915050565b60006113f982611271565b9050919050565b611409816113ee565b82525050565b60006020820190506114246000830184611400565b92915050565b611433816113ee565b811461143e57600080fd5b50565b6000813590506114508161142a565b92915050565b60006020828403121561146c5761146b6111fa565b5b600061147a84828501611441565b91505092915050565b600060208201905061149860008301846112a3565b92915050565b60006020820190506114b36000830184611262565b92915050565b600082825260208201905092915050565b7f4f6e6c792074686520636f6e7472616374206f776e65722063616e2063616c6c60008201527f20746869732066756e6374696f6e000000000000000000000000000000000000602082015250565b6000611526602e836114b9565b9150611531826114ca565b604082019050919050565b6000602082019050818103600083015261155581611519565b9050919050565b7f5b544b4d4d61726b6574436f696e415d5b77697468647261774574685d3a207460008201527f72616e7366657220746f20746865207a65726f20616464726573730000000000602082015250565b60006115b8603b836114b9565b91506115c38261155c565b604082019050919050565b600060208201905081810360008301526115e7816115ab565b9050919050565b7f6e6f74207a65726f206164647265737320666f72206e6577206f776e65720000600082015250565b6000611624601e836114b9565b915061162f826115ee565b602082019050919050565b6000602082019050818103600083015261165381611617565b9050919050565b7f63616e63656c3a206e6f7420657869737420696e2073656c6c206974656d7300600082015250565b6000611690601f836114b9565b915061169b8261165a565b602082019050919050565b600060208201905081810360008301526116bf81611683565b9050919050565b7f63616e63656c3a206e6f74206f776e6572000000000000000000000000000000600082015250565b60006116fc6011836114b9565b9150611707826116c6565b602082019050919050565b6000602082019050818103600083015261172b816116ef565b9050919050565b600060608201905061174760008301866112a3565b61175460208301856112a3565b6117616040830184611262565b949350505050565b7f6c697374696e673a207072696365206d7573742067726561746572207468616e60008201527f207a65726f000000000000000000000000000000000000000000000000000000602082015250565b60006117c56025836114b9565b91506117d082611769565b604082019050919050565b600060208201905081810360008301526117f4816117b8565b9050919050565b60008151905061180a816112db565b92915050565b600060208284031215611826576118256111fa565b5b6000611834848285016117fb565b91505092915050565b7f6c697374696e673a206f6e6c7920746f6b656e206f776e65722063616e206c6960008201527f7374696e67000000000000000000000000000000000000000000000000000000602082015250565b60006118996025836114b9565b91506118a48261183d565b604082019050919050565b600060208201905081810360008301526118c88161188c565b9050919050565b7f6c697374696e673a20616c726561647920657869737420696e2073656c6c206960008201527f74656d7300000000000000000000000000000000000000000000000000000000602082015250565b600061192b6024836114b9565b9150611936826118cf565b604082019050919050565b6000602082019050818103600083015261195a8161191e565b9050919050565b600060408201905061197660008301856112a3565b61198360208301846112a3565b9392505050565b60008115159050919050565b61199f8161198a565b81146119aa57600080fd5b50565b6000815190506119bc81611996565b92915050565b6000602082840312156119d8576119d76111fa565b5b60006119e6848285016119ad565b91505092915050565b7f6c697374696e673a206e6f7420617070726f766564206f6e207468697320636f60008201527f6e74726163740000000000000000000000000000000000000000000000000000602082015250565b6000611a4b6026836114b9565b9150611a56826119ef565b604082019050919050565b60006020820190508181036000830152611a7a81611a3e565b9050919050565b7f73656c6c3a206e6f7420657869737420696e2073656c6c206974656d73000000600082015250565b6000611ab7601d836114b9565b9150611ac282611a81565b602082019050919050565b60006020820190508181036000830152611ae681611aaa565b9050919050565b7f73656c6c3a204e6f74206d6174636820636f696e2076616c7565000000000000600082015250565b6000611b23601a836114b9565b9150611b2e82611aed565b602082019050919050565b60006020820190508181036000830152611b5281611b16565b9050919050565b7f4e487b7100000000000000000000000000000000000000000000000000000000600052601160045260246000fd5b6000611b93826111ff565b9150611b9e836111ff565b9250817fffffffffffffffffffffffffffffffffffffffffffffffffffffffffffffffff0483118215151615611bd757611bd6611b59565b5b828202905092915050565b7f4e487b7100000000000000000000000000000000000000000000000000000000600052601260045260246000fd5b6000611c1c826111ff565b9150611c27836111ff565b925082611c3757611c36611be2565b5b828204905092915050565b6000611c4d826111ff565b9150611c58836111ff565b925082821015611c6b57611c6a611b59565b5b82820390509291505056fea26469706673582212204d2ba310e71eb94904b38ec0136aeedc555e01125eb6b06e1d05d75d7fcb21c964736f6c634300080e0033",
  "immutableReferences": {},
  "source": "// SPDX-License-Identifier: MIT\r\npragma solidity ^0.8.14;\r\n\r\nimport \"@openzeppelin/contracts/token/ERC721/ERC721.sol\";\r\nimport \"./TKMMarketCoinA.sol\";\r\n\r\n//   \r\ncontract TKMMarketKlayBoxA is TKMMarketCoinA {\r\n    constructor(address _NFTContract, address _holder, uint256 _fee, address _feeOwner)\r\n        TKMMarketCoinA(_NFTContract, _holder, _fee, _feeOwner) {\r\n    }\r\n\r\n    //  \r\n    function listing(uint256 tokenId, uint256 price) public virtual override {\r\n        super.listing(tokenId, price);\r\n\r\n        // event\r\n        emit Listing(msg.sender, tokenId, sellItems[tokenId].price);\r\n    }\r\n\r\n    //  \r\n    function cancel(uint256 tokenId) public virtual override {\r\n        uint256 price = sellItems[tokenId].price;\r\n        super.cancel(tokenId);\r\n\r\n        // event\r\n        emit Cancel(msg.sender, tokenId, price);\r\n    }\r\n\r\n    //  (coin)\r\n    function sell(uint256 tokenId) public payable virtual override {\r\n        uint256 price = sellItems[tokenId].price;\r\n        address tokenOwner = sellItems[tokenId].tokenOwner;\r\n        super.sell(tokenId);\r\n\r\n        // event\r\n        emit Sell(tokenOwner, msg.sender, tokenId, price);\r\n    }\r\n}\r\n",
  "sourcePath": "C:\\Works\\1_Github\\solidity_tinyping\\contracts\\TKMMarketKlayBoxA.sol",
  "compiler": {
    "name": "solc",
    "version": "0.8.14+commit.80d49f37.Emscripten.clang"
  },
  "schemaVersion": "3.4.7",
  "updatedAt": "2022-10-13T05:26:41.042Z",
  "networkType": "ethereum",
  "devdoc": {
    "kind": "dev",
    "methods": {},
    "version": 1
  },
  "userdoc": {
    "kind": "user",
    "methods": {},
    "version": 1
  }
}