{
  "contractName": "TKMTokenSaleA",
  "abi": [
    {
      "inputs": [
        {
          "internalType": "address",
          "name": "_TKMToken",
          "type": "address"
        },
        {
          "internalType": "address",
          "name": "_Operator",
          "type": "address"
        }
      ],
      "stateMutability": "nonpayable",
      "type": "constructor"
    },
    {
      "anonymous": false,
      "inputs": [
        {
          "indexed": true,
          "internalType": "address",
          "name": "from",
          "type": "address"
        },
        {
          "indexed": true,
          "internalType": "address",
          "name": "to",
          "type": "address"
        }
      ],
      "name": "ChangeOwner",
      "type": "event"
    },
    {
      "anonymous": false,
      "inputs": [
        {
          "indexed": true,
          "internalType": "address",
          "name": "from",
          "type": "address"
        },
        {
          "indexed": false,
          "internalType": "uint8",
          "name": "order",
          "type": "uint8"
        },
        {
          "indexed": false,
          "internalType": "uint256",
          "name": "amount",
          "type": "uint256"
        }
      ],
      "name": "Claim",
      "type": "event"
    },
    {
      "anonymous": false,
      "inputs": [
        {
          "indexed": true,
          "internalType": "address",
          "name": "from",
          "type": "address"
        },
        {
          "indexed": false,
          "internalType": "uint8",
          "name": "order",
          "type": "uint8"
        },
        {
          "indexed": false,
          "internalType": "uint256",
          "name": "amount",
          "type": "uint256"
        }
      ],
      "name": "Sale",
      "type": "event"
    },
    {
      "inputs": [],
      "name": "Operator",
      "outputs": [
        {
          "internalType": "address",
          "name": "",
          "type": "address"
        }
      ],
      "stateMutability": "view",
      "type": "function",
      "constant": true
    },
    {
      "inputs": [],
      "name": "TKMToken",
      "outputs": [
        {
          "internalType": "contract ERC20",
          "name": "",
          "type": "address"
        }
      ],
      "stateMutability": "view",
      "type": "function",
      "constant": true
    },
    {
      "inputs": [
        {
          "internalType": "address payable",
          "name": "newOwner_",
          "type": "address"
        }
      ],
      "name": "changeOwner",
      "outputs": [],
      "stateMutability": "nonpayable",
      "type": "function"
    },
    {
      "inputs": [
        {
          "internalType": "address",
          "name": "",
          "type": "address"
        }
      ],
      "name": "firstTokens",
      "outputs": [
        {
          "internalType": "uint256",
          "name": "",
          "type": "uint256"
        }
      ],
      "stateMutability": "view",
      "type": "function",
      "constant": true
    },
    {
      "inputs": [
        {
          "internalType": "address",
          "name": "",
          "type": "address"
        },
        {
          "internalType": "uint8",
          "name": "",
          "type": "uint8"
        }
      ],
      "name": "lockedTokenTransfer",
      "outputs": [
        {
          "internalType": "bool",
          "name": "",
          "type": "bool"
        }
      ],
      "stateMutability": "view",
      "type": "function",
      "constant": true
    },
    {
      "inputs": [
        {
          "internalType": "address",
          "name": "",
          "type": "address"
        }
      ],
      "name": "lockedTokens",
      "outputs": [
        {
          "internalType": "uint256",
          "name": "",
          "type": "uint256"
        }
      ],
      "stateMutability": "view",
      "type": "function",
      "constant": true
    },
    {
      "inputs": [],
      "name": "order",
      "outputs": [
        {
          "internalType": "uint8",
          "name": "",
          "type": "uint8"
        }
      ],
      "stateMutability": "view",
      "type": "function",
      "constant": true
    },
    {
      "inputs": [],
      "name": "owner",
      "outputs": [
        {
          "internalType": "address payable",
          "name": "",
          "type": "address"
        }
      ],
      "stateMutability": "view",
      "type": "function",
      "constant": true
    },
    {
      "inputs": [],
      "name": "releaseOrderCount",
      "outputs": [
        {
          "internalType": "uint8",
          "name": "",
          "type": "uint8"
        }
      ],
      "stateMutability": "view",
      "type": "function",
      "constant": true
    },
    {
      "inputs": [],
      "name": "releaseOrderDay",
      "outputs": [
        {
          "internalType": "uint8",
          "name": "",
          "type": "uint8"
        }
      ],
      "stateMutability": "view",
      "type": "function",
      "constant": true
    },
    {
      "inputs": [
        {
          "internalType": "uint8",
          "name": "",
          "type": "uint8"
        }
      ],
      "name": "saleOrders",
      "outputs": [
        {
          "internalType": "uint256",
          "name": "totalAmount",
          "type": "uint256"
        },
        {
          "internalType": "uint256",
          "name": "sellAmount",
          "type": "uint256"
        },
        {
          "internalType": "uint256",
          "name": "tokenMultiply",
          "type": "uint256"
        },
        {
          "internalType": "uint256",
          "name": "limitPerUser",
          "type": "uint256"
        },
        {
          "internalType": "uint256",
          "name": "startTime",
          "type": "uint256"
        },
        {
          "internalType": "uint256",
          "name": "endTime",
          "type": "uint256"
        }
      ],
      "stateMutability": "view",
      "type": "function",
      "constant": true
    },
    {
      "inputs": [],
      "name": "tokenClaimTime",
      "outputs": [
        {
          "internalType": "uint256",
          "name": "",
          "type": "uint256"
        }
      ],
      "stateMutability": "view",
      "type": "function",
      "constant": true
    },
    {
      "inputs": [],
      "name": "tokenFirstClaimTime",
      "outputs": [
        {
          "internalType": "uint256",
          "name": "",
          "type": "uint256"
        }
      ],
      "stateMutability": "view",
      "type": "function",
      "constant": true
    },
    {
      "inputs": [
        {
          "internalType": "address",
          "name": "",
          "type": "address"
        },
        {
          "internalType": "uint8",
          "name": "",
          "type": "uint8"
        }
      ],
      "name": "tokenPerUser",
      "outputs": [
        {
          "internalType": "uint256",
          "name": "",
          "type": "uint256"
        }
      ],
      "stateMutability": "view",
      "type": "function",
      "constant": true
    },
    {
      "inputs": [
        {
          "internalType": "uint8",
          "name": "_order",
          "type": "uint8"
        },
        {
          "internalType": "uint256",
          "name": "_totalAmount",
          "type": "uint256"
        },
        {
          "internalType": "uint256",
          "name": "_tokenMultiply",
          "type": "uint256"
        },
        {
          "internalType": "uint256",
          "name": "_limitPerUser",
          "type": "uint256"
        },
        {
          "internalType": "uint256",
          "name": "_startTime",
          "type": "uint256"
        },
        {
          "internalType": "uint256",
          "name": "_endTime",
          "type": "uint256"
        }
      ],
      "name": "setSaleOrder",
      "outputs": [],
      "stateMutability": "nonpayable",
      "type": "function"
    },
    {
      "inputs": [],
      "name": "incOrder",
      "outputs": [],
      "stateMutability": "nonpayable",
      "type": "function"
    },
    {
      "inputs": [],
      "name": "sale",
      "outputs": [],
      "stateMutability": "payable",
      "type": "function",
      "payable": true
    },
    {
      "inputs": [
        {
          "internalType": "uint256",
          "name": "_firstClaimTime",
          "type": "uint256"
        }
      ],
      "name": "setFirstClaimTime",
      "outputs": [],
      "stateMutability": "nonpayable",
      "type": "function"
    },
    {
      "inputs": [
        {
          "internalType": "uint256",
          "name": "_claimTime",
          "type": "uint256"
        }
      ],
      "name": "setClaimTime",
      "outputs": [],
      "stateMutability": "nonpayable",
      "type": "function"
    },
    {
      "inputs": [],
      "name": "claimFirst",
      "outputs": [],
      "stateMutability": "nonpayable",
      "type": "function"
    },
    {
      "inputs": [
        {
          "internalType": "uint8",
          "name": "claimOrder",
          "type": "uint8"
        }
      ],
      "name": "claim",
      "outputs": [],
      "stateMutability": "nonpayable",
      "type": "function"
    },
    {
      "inputs": [
        {
          "internalType": "address",
          "name": "to",
          "type": "address"
        }
      ],
      "name": "withdrawEth",
      "outputs": [],
      "stateMutability": "nonpayable",
      "type": "function"
    }
  ],
  "bytecode": "0x6080604052601e600760006101000a81548160ff021916908360ff1602179055506018600760016101000a81548160ff021916908360ff1602179055503480156200004957600080fd5b506040516200345b3803806200345b83398181016040528101906200006f9190620001db565b336000806101000a81548173ffffffffffffffffffffffffffffffffffffffff021916908373ffffffffffffffffffffffffffffffffffffffff16021790555081600160006101000a81548173ffffffffffffffffffffffffffffffffffffffff021916908373ffffffffffffffffffffffffffffffffffffffff16021790555080600260006101000a81548173ffffffffffffffffffffffffffffffffffffffff021916908373ffffffffffffffffffffffffffffffffffffffff160217905550600a600460006101000a81548160ff021916908360ff1602179055506001600460016101000a81548160ff021916908360ff160217905550505062000222565b600080fd5b600073ffffffffffffffffffffffffffffffffffffffff82169050919050565b6000620001a38262000176565b9050919050565b620001b58162000196565b8114620001c157600080fd5b50565b600081519050620001d581620001aa565b92915050565b60008060408385031215620001f557620001f462000171565b5b60006200020585828601620001c4565b92505060206200021885828601620001c4565b9150509250929050565b61322980620002326000396000f3fe6080604052600436106101355760003560e01c80637bb72d62116100ab578063ac5df2141161006f578063ac5df214146103f8578063bf15071d14610435578063e828b5c614610460578063ea2bb5b21461048b578063eaff056d146104b4578063f2cae7f7146104cb57610135565b80637bb72d62146103255780638da5cb5b14610350578063958e06ff1461037b57806395d4063f146103a6578063a6f9dae1146103cf57610135565b8063421cc337116100fd578063421cc337146102385780634cd37362146102615780635eb7413a1461028a57806367f75281146102c75780636ad1fe02146102de5780637b490456146102e857610135565b806325e160631461013a578063297da2a6146101635780632dd07fbc146101a557806336617b0b146101d05780633e0ac9341461020d575b600080fd5b34801561014657600080fd5b50610161600480360381019061015c9190611bfc565b6104f6565b005b34801561016f57600080fd5b5061018a60048036038101906101859190611c62565b610643565b60405161019c96959493929190611ca8565b60405180910390f35b3480156101b157600080fd5b506101ba61067f565b6040516101c79190611d18565b60405180910390f35b3480156101dc57600080fd5b506101f760048036038101906101f29190611d33565b6106a5565b6040516102049190611d8e565b60405180910390f35b34801561021957600080fd5b506102226106d4565b60405161022f9190611db8565b60405180910390f35b34801561024457600080fd5b5061025f600480360381019061025a9190611dff565b6106e7565b005b34801561026d57600080fd5b5061028860048036038101906102839190611dff565b6107c4565b005b34801561029657600080fd5b506102b160048036038101906102ac9190611bfc565b6108a1565b6040516102be9190611e2c565b60405180910390f35b3480156102d357600080fd5b506102dc6108b9565b005b6102e6610981565b005b3480156102f457600080fd5b5061030f600480360381019061030a9190611d33565b610f08565b60405161031c9190611e2c565b60405180910390f35b34801561033157600080fd5b5061033a610f2d565b6040516103479190611ea6565b60405180910390f35b34801561035c57600080fd5b50610365610f53565b6040516103729190611ee2565b60405180910390f35b34801561038757600080fd5b50610390610f77565b60405161039d9190611db8565b60405180910390f35b3480156103b257600080fd5b506103cd60048036038101906103c89190611c62565b610f8a565b005b3480156103db57600080fd5b506103f660048036038101906103f19190611f29565b6113a9565b005b34801561040457600080fd5b5061041f600480360381019061041a9190611bfc565b611543565b60405161042c9190611e2c565b60405180910390f35b34801561044157600080fd5b5061044a61155b565b6040516104579190611db8565b60405180910390f35b34801561046c57600080fd5b5061047561156e565b6040516104829190611e2c565b60405180910390f35b34801561049757600080fd5b506104b260048036038101906104ad9190611f56565b611574565b005b3480156104c057600080fd5b506104c9611819565b005b3480156104d757600080fd5b506104e0611b93565b6040516104ed9190611e2c565b60405180910390f35b60008054906101000a900473ffffffffffffffffffffffffffffffffffffffff1673ffffffffffffffffffffffffffffffffffffffff163373ffffffffffffffffffffffffffffffffffffffff1614610584576040517f08c379a000000000000000000000000000000000000000000000000000000000815260040161057b90612066565b60405180910390fd5b600073ffffffffffffffffffffffffffffffffffffffff168173ffffffffffffffffffffffffffffffffffffffff16036105f3576040517f08c379a00000000000000000000000000000000000000000000000000000000081526004016105ea906120f8565b60405180910390fd5b60008190508073ffffffffffffffffffffffffffffffffffffffff166108fc479081150290604051600060405180830381858888f1935050505015801561063e573d6000803e3d6000fd5b505050565b60036020528060005260406000206000915090508060000154908060010154908060020154908060030154908060040154908060050154905086565b600260009054906101000a900473ffffffffffffffffffffffffffffffffffffffff1681565b600a6020528160005260406000206020528060005260406000206000915091509054906101000a900460ff1681565b600760009054906101000a900460ff1681565b60008054906101000a900473ffffffffffffffffffffffffffffffffffffffff1673ffffffffffffffffffffffffffffffffffffffff163373ffffffffffffffffffffffffffffffffffffffff1614610775576040517f08c379a000000000000000000000000000000000000000000000000000000000815260040161076c90612066565b60405180910390fd5b6006546000146107ba576040517f08c379a00000000000000000000000000000000000000000000000000000000081526004016107b19061218a565b60405180910390fd5b8060068190555050565b60008054906101000a900473ffffffffffffffffffffffffffffffffffffffff1673ffffffffffffffffffffffffffffffffffffffff163373ffffffffffffffffffffffffffffffffffffffff1614610852576040517f08c379a000000000000000000000000000000000000000000000000000000000815260040161084990612066565b60405180910390fd5b600554600014610897576040517f08c379a000000000000000000000000000000000000000000000000000000000815260040161088e90612242565b60405180910390fd5b8060058190555050565b60096020528060005260406000206000915090505481565b60008054906101000a900473ffffffffffffffffffffffffffffffffffffffff1673ffffffffffffffffffffffffffffffffffffffff163373ffffffffffffffffffffffffffffffffffffffff1614610947576040517f08c379a000000000000000000000000000000000000000000000000000000000815260040161093e90612066565b60405180910390fd5b6004600181819054906101000a900460ff168092919061096690612291565b91906101000a81548160ff021916908360ff16021790555050565b60036000600460019054906101000a900460ff1660ff1660ff168152602001908152602001600020600001546000106109ef576040517f08c379a00000000000000000000000000000000000000000000000000000000081526004016109e69061232c565b60405180910390fd5b34670de0b6b3a76400001115610a3a576040517f08c379a0000000000000000000000000000000000000000000000000000000008152600401610a31906123be565b60405180910390fd5b4260036000600460019054906101000a900460ff1660ff1660ff168152602001908152602001600020600401541115610aa8576040517f08c379a0000000000000000000000000000000000000000000000000000000008152600401610a9f90612450565b60405180910390fd5b4260036000600460019054906101000a900460ff1660ff1660ff168152602001908152602001600020600501541015610b16576040517f08c379a0000000000000000000000000000000000000000000000000000000008152600401610b0d906124e2565b60405180910390fd5b60003460036000600460019054906101000a900460ff1660ff1660ff16815260200190815260200160002060020154610b4f9190612502565b9050600060036000600460019054906101000a900460ff1660ff1660ff1681526020019081526020016000206001015460036000600460019054906101000a900460ff1660ff1660ff16815260200190815260200160002060000154610bb5919061255c565b90508160036000600460019054906101000a900460ff1660ff1660ff1681526020019081526020016000206001016000828254610bf29190612590565b9250508190555081811015610c3c576040517f08c379a0000000000000000000000000000000000000000000000000000000008152600401610c3390612658565b60405180910390fd5b6000600b60003373ffffffffffffffffffffffffffffffffffffffff1673ffffffffffffffffffffffffffffffffffffffff1681526020019081526020016000206000600460019054906101000a900460ff1660ff1660ff16815260200190815260200160002054905082600b60003373ffffffffffffffffffffffffffffffffffffffff1673ffffffffffffffffffffffffffffffffffffffff1681526020019081526020016000206000600460019054906101000a900460ff1660ff1660ff1681526020019081526020016000206000828254610d1b9190612590565b925050819055508281610d2e9190612590565b60036000600460019054906101000a900460ff1660ff1660ff168152602001908152602001600020600301541015610d9b576040517f08c379a0000000000000000000000000000000000000000000000000000000008152600401610d9290612710565b60405180910390fd5b60006064600460009054906101000a900460ff1660ff1685610dbd9190612502565b610dc7919061275f565b905060008185610dd7919061255c565b9050600760019054906101000a900460ff1660ff1681610df7919061275f565b600960003373ffffffffffffffffffffffffffffffffffffffff1673ffffffffffffffffffffffffffffffffffffffff1681526020019081526020016000206000828254610e459190612590565b9250508190555081600860003373ffffffffffffffffffffffffffffffffffffffff1673ffffffffffffffffffffffffffffffffffffffff1681526020019081526020016000206000828254610e9b9190612590565b925050819055503373ffffffffffffffffffffffffffffffffffffffff167f9abe6afca30e7673e8c923fe25a0263b60d2951081abd0160cd8451576f94ec9600460019054906101000a900460ff1687604051610ef9929190612790565b60405180910390a25050505050565b600b602052816000526040600020602052806000526040600020600091509150505481565b600160009054906101000a900473ffffffffffffffffffffffffffffffffffffffff1681565b60008054906101000a900473ffffffffffffffffffffffffffffffffffffffff1681565b600760019054906101000a900460ff1681565b600654600010610fcf576040517f08c379a0000000000000000000000000000000000000000000000000000000008152600401610fc69061282b565b60405180910390fd5b8060ff166000108015610ff757508060ff16600760019054906101000a900460ff1660ff1610155b611036576040517f08c379a000000000000000000000000000000000000000000000000000000000815260040161102d906128bd565b60405180910390fd5b600a60003373ffffffffffffffffffffffffffffffffffffffff1673ffffffffffffffffffffffffffffffffffffffff16815260200190815260200160002060008260ff1660ff16815260200190815260200160002060009054906101000a900460ff16151560001515146110e0576040517f08c379a00000000000000000000000000000000000000000000000000000000081526004016110d79061294f565b60405180910390fd5b6001600a60003373ffffffffffffffffffffffffffffffffffffffff1673ffffffffffffffffffffffffffffffffffffffff16815260200190815260200160002060008360ff1660ff16815260200190815260200160002060006101000a81548160ff0219169083151502179055506000603c60018360ff16611163919061255c565b600a61116f9190612502565b6111799190612502565b6006546111869190612590565b90508042116111ca576040517f08c379a00000000000000000000000000000000000000000000000000000000081526004016111c1906129e1565b60405180910390fd5b6000600960003373ffffffffffffffffffffffffffffffffffffffff1673ffffffffffffffffffffffffffffffffffffffff16815260200190815260200160002054905060008111611251576040517f08c379a000000000000000000000000000000000000000000000000000000000815260040161124890612a73565b60405180910390fd5b600160009054906101000a900473ffffffffffffffffffffffffffffffffffffffff1673ffffffffffffffffffffffffffffffffffffffff166323b872dd600260009054906101000a900473ffffffffffffffffffffffffffffffffffffffff1633846040518463ffffffff1660e01b81526004016112d293929190612a93565b6020604051808303816000875af11580156112f1573d6000803e3d6000fd5b505050506040513d601f19601f820116820180604052508101906113159190612af6565b611354576040517f08c379a000000000000000000000000000000000000000000000000000000000815260040161134b90612bbb565b60405180910390fd5b3373ffffffffffffffffffffffffffffffffffffffff167f636597d278d22b8d2d94780ea4379f96e5e71f9c4b69444b45a6b504130bfc35848360405161139c929190612790565b60405180910390a2505050565b60008054906101000a900473ffffffffffffffffffffffffffffffffffffffff1673ffffffffffffffffffffffffffffffffffffffff163373ffffffffffffffffffffffffffffffffffffffff1614611437576040517f08c379a000000000000000000000000000000000000000000000000000000000815260040161142e90612066565b60405180910390fd5b600073ffffffffffffffffffffffffffffffffffffffff168173ffffffffffffffffffffffffffffffffffffffff16036114a6576040517f08c379a000000000000000000000000000000000000000000000000000000000815260040161149d90612c27565b60405180910390fd5b806000806101000a81548173ffffffffffffffffffffffffffffffffffffffff021916908373ffffffffffffffffffffffffffffffffffffffff1602179055508073ffffffffffffffffffffffffffffffffffffffff163373ffffffffffffffffffffffffffffffffffffffff167f9aecf86140d81442289f667eb72e1202a8fbb3478a686659952e145e8531965660405160405180910390a350565b60086020528060005260406000206000915090505481565b600460019054906101000a900460ff1681565b60055481565b60008054906101000a900473ffffffffffffffffffffffffffffffffffffffff1673ffffffffffffffffffffffffffffffffffffffff163373ffffffffffffffffffffffffffffffffffffffff1614611602576040517f08c379a00000000000000000000000000000000000000000000000000000000081526004016115f990612066565b60405180910390fd5b60008660ff1611611648576040517f08c379a000000000000000000000000000000000000000000000000000000000815260040161163f90612cb9565b60405180910390fd5b42821161168a576040517f08c379a000000000000000000000000000000000000000000000000000000000815260040161168190612d4b565b60405180910390fd5b4281116116cc576040517f08c379a00000000000000000000000000000000000000000000000000000000081526004016116c390612ddd565b60405180910390fd5b81811161170e576040517f08c379a000000000000000000000000000000000000000000000000000000000815260040161170590612e6f565b60405180910390fd5b600360008760ff1660ff1681526020019081526020016000206000015460000361178c576000600360008860ff1660ff16815260200190815260200160002090508581600001819055506000816001018190555084816002018190555083816003018190555082816004018190555081816005018190555050611811565b83600360008860ff1660ff1681526020019081526020016000206002018190555082600360008860ff1660ff1681526020019081526020016000206003018190555081600360008860ff1660ff1681526020019081526020016000206004018190555080600360008860ff1660ff168152602001908152602001600020600501819055505b505050505050565b60055460001061185e576040517f08c379a000000000000000000000000000000000000000000000000000000000815260040161185590612f01565b60405180910390fd5b600a60003373ffffffffffffffffffffffffffffffffffffffff1673ffffffffffffffffffffffffffffffffffffffff16815260200190815260200160002060008060ff16815260200190815260200160002060009054906101000a900460ff1615156000151514611905576040517f08c379a00000000000000000000000000000000000000000000000000000000081526004016118fc90612f93565b60405180910390fd5b6001600a60003373ffffffffffffffffffffffffffffffffffffffff1673ffffffffffffffffffffffffffffffffffffffff16815260200190815260200160002060008060ff16815260200190815260200160002060006101000a81548160ff02191690831515021790555060055442116119b5576040517f08c379a00000000000000000000000000000000000000000000000000000000081526004016119ac90613025565b60405180910390fd5b6000600860003373ffffffffffffffffffffffffffffffffffffffff1673ffffffffffffffffffffffffffffffffffffffff16815260200190815260200160002054905060008111611a3c576040517f08c379a0000000000000000000000000000000000000000000000000000000008152600401611a33906130b7565b60405180910390fd5b600160009054906101000a900473ffffffffffffffffffffffffffffffffffffffff1673ffffffffffffffffffffffffffffffffffffffff166323b872dd600260009054906101000a900473ffffffffffffffffffffffffffffffffffffffff1633846040518463ffffffff1660e01b8152600401611abd93929190612a93565b6020604051808303816000875af1158015611adc573d6000803e3d6000fd5b505050506040513d601f19601f82011682018060405250810190611b009190612af6565b611b3f576040517f08c379a0000000000000000000000000000000000000000000000000000000008152600401611b369061316f565b60405180910390fd5b3373ffffffffffffffffffffffffffffffffffffffff167f636597d278d22b8d2d94780ea4379f96e5e71f9c4b69444b45a6b504130bfc35600083604051611b889291906131ca565b60405180910390a250565b60065481565b600080fd5b600073ffffffffffffffffffffffffffffffffffffffff82169050919050565b6000611bc982611b9e565b9050919050565b611bd981611bbe565b8114611be457600080fd5b50565b600081359050611bf681611bd0565b92915050565b600060208284031215611c1257611c11611b99565b5b6000611c2084828501611be7565b91505092915050565b600060ff82169050919050565b611c3f81611c29565b8114611c4a57600080fd5b50565b600081359050611c5c81611c36565b92915050565b600060208284031215611c7857611c77611b99565b5b6000611c8684828501611c4d565b91505092915050565b6000819050919050565b611ca281611c8f565b82525050565b600060c082019050611cbd6000830189611c99565b611cca6020830188611c99565b611cd76040830187611c99565b611ce46060830186611c99565b611cf16080830185611c99565b611cfe60a0830184611c99565b979650505050505050565b611d1281611bbe565b82525050565b6000602082019050611d2d6000830184611d09565b92915050565b60008060408385031215611d4a57611d49611b99565b5b6000611d5885828601611be7565b9250506020611d6985828601611c4d565b9150509250929050565b60008115159050919050565b611d8881611d73565b82525050565b6000602082019050611da36000830184611d7f565b92915050565b611db281611c29565b82525050565b6000602082019050611dcd6000830184611da9565b92915050565b611ddc81611c8f565b8114611de757600080fd5b50565b600081359050611df981611dd3565b92915050565b600060208284031215611e1557611e14611b99565b5b6000611e2384828501611dea565b91505092915050565b6000602082019050611e416000830184611c99565b92915050565b6000819050919050565b6000611e6c611e67611e6284611b9e565b611e47565b611b9e565b9050919050565b6000611e7e82611e51565b9050919050565b6000611e9082611e73565b9050919050565b611ea081611e85565b82525050565b6000602082019050611ebb6000830184611e97565b92915050565b6000611ecc82611b9e565b9050919050565b611edc81611ec1565b82525050565b6000602082019050611ef76000830184611ed3565b92915050565b611f0681611ec1565b8114611f1157600080fd5b50565b600081359050611f2381611efd565b92915050565b600060208284031215611f3f57611f3e611b99565b5b6000611f4d84828501611f14565b91505092915050565b60008060008060008060c08789031215611f7357611f72611b99565b5b6000611f8189828a01611c4d565b9650506020611f9289828a01611dea565b9550506040611fa389828a01611dea565b9450506060611fb489828a01611dea565b9350506080611fc589828a01611dea565b92505060a0611fd689828a01611dea565b9150509295509295509295565b600082825260208201905092915050565b7f4f6e6c792074686520636f6e7472616374206f776e65722063616e2063616c6c60008201527f20746869732066756e6374696f6e000000000000000000000000000000000000602082015250565b6000612050602e83611fe3565b915061205b82611ff4565b604082019050919050565b6000602082019050818103600083015261207f81612043565b9050919050565b7f5b544b4d546f6b656e53616c655d5b77697468647261774574685d3a2074726160008201527f6e7366657220746f20746865207a65726f206164647265737300000000000000602082015250565b60006120e2603983611fe3565b91506120ed82612086565b604082019050919050565b60006020820190508181036000830152612111816120d5565b9050919050565b7f5b544b4d546f6b656e53616c655d5b736574436c61696d54696d655d3a20616c60008201527f72656164792073657420746f6b656e20636c61696d2074696d65000000000000602082015250565b6000612174603a83611fe3565b915061217f82612118565b604082019050919050565b600060208201905081810360008301526121a381612167565b9050919050565b7f5b544b4d546f6b656e53616c655d5b7365744669727374436c61696d54696d6560008201527f5d3a20616c72656164792073657420746f6b656e20666972737420636c61696d60208201527f2074696d65000000000000000000000000000000000000000000000000000000604082015250565b600061222c604583611fe3565b9150612237826121aa565b606082019050919050565b6000602082019050818103600083015261225b8161221f565b9050919050565b7f4e487b7100000000000000000000000000000000000000000000000000000000600052601160045260246000fd5b600061229c82611c29565b915060ff82036122af576122ae612262565b5b600182019050919050565b7f5b544b4d546f6b656e53616c655d5b73616c655d3a2064617461206973206e6f60008201527f7420666f756e6400000000000000000000000000000000000000000000000000602082015250565b6000612316602783611fe3565b9150612321826122ba565b604082019050919050565b6000602082019050818103600083015261234581612309565b9050919050565b7f5b544b4d546f6b656e53616c655d5b73616c655d3a2076616c75652073686f7560008201527f6c64206e6f74206265206c657373207468616e20312065746865720000000000602082015250565b60006123a8603b83611fe3565b91506123b38261234c565b604082019050919050565b600060208201905081810360008301526123d78161239b565b9050919050565b7f5b544b4d546f6b656e53616c655d5b73616c655d3a2073616c65206973206e6f60008201527f7420737461727465640000000000000000000000000000000000000000000000602082015250565b600061243a602983611fe3565b9150612445826123de565b604082019050919050565b600060208201905081810360008301526124698161242d565b9050919050565b7f5b544b4d546f6b656e53616c655d5b73616c655d3a2073616c6520697320656e60008201527f6465640000000000000000000000000000000000000000000000000000000000602082015250565b60006124cc602383611fe3565b91506124d782612470565b604082019050919050565b600060208201905081810360008301526124fb816124bf565b9050919050565b600061250d82611c8f565b915061251883611c8f565b9250817fffffffffffffffffffffffffffffffffffffffffffffffffffffffffffffffff048311821515161561255157612550612262565b5b828202905092915050565b600061256782611c8f565b915061257283611c8f565b92508282101561258557612584612262565b5b828203905092915050565b600061259b82611c8f565b91506125a683611c8f565b9250827fffffffffffffffffffffffffffffffffffffffffffffffffffffffffffffffff038211156125db576125da612262565b5b828201905092915050565b7f5b544b4d546f6b656e53616c655d5b73616c655d3a20746f6b656e732061726560008201527f20736f6c64206f75740000000000000000000000000000000000000000000000602082015250565b6000612642602983611fe3565b915061264d826125e6565b604082019050919050565b6000602082019050818103600083015261267181612635565b9050919050565b7f5b544b4d546f6b656e53616c655d5b73616c655d3a2063616e206e6f7420627560008201527f79206d6f7265207468616e20616c6c6f636174656420616d6d6f756e74206f6660208201527f20746f6b656e7300000000000000000000000000000000000000000000000000604082015250565b60006126fa604783611fe3565b915061270582612678565b606082019050919050565b60006020820190508181036000830152612729816126ed565b9050919050565b7f4e487b7100000000000000000000000000000000000000000000000000000000600052601260045260246000fd5b600061276a82611c8f565b915061277583611c8f565b92508261278557612784612730565b5b828204905092915050565b60006040820190506127a56000830185611da9565b6127b26020830184611c99565b9392505050565b7f5b544b4d546f6b656e53616c655d5b636c61696d5d3a2074696d65206973206e60008201527f6f74207365747570207965740000000000000000000000000000000000000000602082015250565b6000612815602c83611fe3565b9150612820826127b9565b604082019050919050565b6000602082019050818103600083015261284481612808565b9050919050565b7f5b544b4d546f6b656e53616c655d5b636c61696d5d3a20696e76616c6964206f60008201527f7264657200000000000000000000000000000000000000000000000000000000602082015250565b60006128a7602483611fe3565b91506128b28261284b565b604082019050919050565b600060208201905081810360008301526128d68161289a565b9050919050565b7f5b544b4d546f6b656e53616c655d5b636c61696d5d3a20616c7265616479206360008201527f6c61696d65640000000000000000000000000000000000000000000000000000602082015250565b6000612939602683611fe3565b9150612944826128dd565b604082019050919050565b600060208201905081810360008301526129688161292c565b9050919050565b7f5b544b4d546f6b656e53616c655d5b636c61696d5d3a2072656d61696e696e6760008201527f2074696d65206973207374696c6c206c65667400000000000000000000000000602082015250565b60006129cb603383611fe3565b91506129d68261296f565b604082019050919050565b600060208201905081810360008301526129fa816129be565b9050919050565b7f5b544b4d546f6b656e53616c655d5b636c61696d5d3a2072656365697661626c60008201527f6520746f6b656e7320617265206e6f7420666f756e6400000000000000000000602082015250565b6000612a5d603683611fe3565b9150612a6882612a01565b604082019050919050565b60006020820190508181036000830152612a8c81612a50565b9050919050565b6000606082019050612aa86000830186611d09565b612ab56020830185611d09565b612ac26040830184611c99565b949350505050565b612ad381611d73565b8114612ade57600080fd5b50565b600081519050612af081612aca565b92915050565b600060208284031215612b0c57612b0b611b99565b5b6000612b1a84828501612ae1565b91505092915050565b7f5b544b4d546f6b656e53616c655d5b636c61696d5d3a20756e61626c6520746f60008201527f2073656e6420746f6b656e2c20726563697069656e74206d617920686176652060208201527f7265766572746564000000000000000000000000000000000000000000000000604082015250565b6000612ba5604883611fe3565b9150612bb082612b23565b606082019050919050565b60006020820190508181036000830152612bd481612b98565b9050919050565b7f6e6f74207a65726f206164647265737320666f72206e6577206f776e65720000600082015250565b6000612c11601e83611fe3565b9150612c1c82612bdb565b602082019050919050565b60006020820190508181036000830152612c4081612c04565b9050919050565b7f5b544b4d546f6b656e53616c655d5b73657453616c654f726465725d3a206f7260008201527f646572206d7573742062652067726561746572207468616e207a65726f000000602082015250565b6000612ca3603d83611fe3565b9150612cae82612c47565b604082019050919050565b60006020820190508181036000830152612cd281612c96565b9050919050565b7f5b544b4d546f6b656e53616c655d5b73657453616c654f726465725d3a205f7360008201527f7461727454696d6520697320756e646572206e6f770000000000000000000000602082015250565b6000612d35603583611fe3565b9150612d4082612cd9565b604082019050919050565b60006020820190508181036000830152612d6481612d28565b9050919050565b7f5b544b4d546f6b656e53616c655d5b73657453616c654f726465725d3a205f6560008201527f6e6454696d6520697320756e646572206e6f7700000000000000000000000000602082015250565b6000612dc7603383611fe3565b9150612dd282612d6b565b604082019050919050565b60006020820190508181036000830152612df681612dba565b9050919050565b7f5b544b4d546f6b656e53616c655d5b73657453616c654f726465725d3a205f6560008201527f6e6454696d6520697320756e646572205f737461727454696d65000000000000602082015250565b6000612e59603a83611fe3565b9150612e6482612dfd565b604082019050919050565b60006020820190508181036000830152612e8881612e4c565b9050919050565b7f5b544b4d546f6b656e53616c655d5b636c61696d46697273745d3a2074696d6560008201527f206973206e6f7420736574757020796574000000000000000000000000000000602082015250565b6000612eeb603183611fe3565b9150612ef682612e8f565b604082019050919050565b60006020820190508181036000830152612f1a81612ede565b9050919050565b7f5b544b4d546f6b656e53616c655d5b636c61696d46697273745d3a20616c726560008201527f61647920636c61696d6564000000000000000000000000000000000000000000602082015250565b6000612f7d602b83611fe3565b9150612f8882612f21565b604082019050919050565b60006020820190508181036000830152612fac81612f70565b9050919050565b7f5b544b4d546f6b656e53616c655d5b636c61696d46697273745d3a2072656d6160008201527f696e696e672074696d65206973207374696c6c206c6566740000000000000000602082015250565b600061300f603883611fe3565b915061301a82612fb3565b604082019050919050565b6000602082019050818103600083015261303e81613002565b9050919050565b7f5b544b4d546f6b656e53616c655d5b636c61696d46697273745d3a207265636560008201527f697661626c6520746f6b656e7320617265206e6f7420666f756e640000000000602082015250565b60006130a1603b83611fe3565b91506130ac82613045565b604082019050919050565b600060208201905081810360008301526130d081613094565b9050919050565b7f5b544b4d546f6b656e53616c655d5b636c61696d46697273745d3a20756e616260008201527f6c6520746f2073656e6420746f6b656e2c20726563697069656e74206d61792060208201527f6861766520726576657274656400000000000000000000000000000000000000604082015250565b6000613159604d83611fe3565b9150613164826130d7565b606082019050919050565b600060208201905081810360008301526131888161314c565b9050919050565b6000819050919050565b60006131b46131af6131aa8461318f565b611e47565b611c29565b9050919050565b6131c481613199565b82525050565b60006040820190506131df60008301856131bb565b6131ec6020830184611c99565b939250505056fea2646970667358221220dc18a77edf61fc0e3b61d9f8a5ff0cf92c629c08a8efb1a0fd4834ccc334345564736f6c634300080e0033",
  "immutableReferences": {},
  "source": "// SPDX-License-Identifier: MIT\r\npragma solidity ^0.8.14;\r\n\r\nimport \"@openzeppelin/contracts/token/ERC20/ERC20.sol\";\r\nimport \"./Owner.sol\";\r\n\r\ncontract TKMTokenSaleA is Owner {\r\n    ERC20 public TKMToken;\r\n    address public Operator; //    \r\n\r\n    //  ,   (  )\r\n    event Sale(address indexed from, uint8 order, uint256 amount);\r\n\r\n    //   . order = 0 ~ 24, amount = 1  \r\n    event Claim(address indexed from, uint8 order, uint256 amount);\r\n\r\n    /////////////////////////////////////////////////////\r\n    // Token Sale\r\n    // token sale \r\n    struct saleOrder {\r\n        uint256 totalAmount; //      \r\n        uint256 sellAmount; //     \r\n        uint256 tokenMultiply; //  * {} = 3KM\r\n        uint256 limitPerUser; //        \r\n        uint256 startTime; //  \r\n        uint256 endTime; //  \r\n    }\r\n    // 1, 2, 3 => Token Sale \r\n    mapping(uint8 => saleOrder) public saleOrders;\r\n    //       \r\n    uint8 private tge_;\r\n    //   \r\n    uint8 public order;\r\n\r\n    /////////////////////////////////////////////////////\r\n    //     \r\n    //   . 10%\r\n    uint256 public tokenFirstClaimTime;\r\n    //        . 3.75%\r\n    uint256 public tokenClaimTime;\r\n    //            \r\n    uint8 public releaseOrderDay = 30;\r\n    //         \r\n    uint8 public releaseOrderCount = 24;\r\n    //     \r\n    mapping(address => uint256) public firstTokens;\r\n    //   . 1 \r\n    mapping(address => uint256) public lockedTokens;\r\n    //     \r\n    mapping(address => mapping(uint8 => bool)) public lockedTokenTransfer;\r\n    //    \r\n    mapping(address => mapping(uint8 => uint256)) public tokenPerUser;    \r\n\r\n    constructor(address _TKMToken, address _Operator) {\r\n        TKMToken = ERC20(payable(_TKMToken));\r\n        Operator = _Operator;\r\n        tge_ = 10; // sale       \r\n        order = 1;\r\n    }\r\n\r\n    // sale  \r\n    function setSaleOrder(\r\n        uint8 _order,\r\n        uint256 _totalAmount,\r\n        uint256 _tokenMultiply,\r\n        uint256 _limitPerUser,\r\n        uint256 _startTime,\r\n        uint256 _endTime\r\n    ) public onlyOwner {\r\n        require(_order > 0, \"[TKMTokenSale][setSaleOrder]: order must be greater than zero\");\r\n        // require(_order < 4, \"[TKMTokenSale][setSaleOrder]: order must be less than four\");\r\n\r\n        require(_startTime > block.timestamp, \"[TKMTokenSale][setSaleOrder]: _startTime is under now\");\r\n        require(_endTime > block.timestamp, \"[TKMTokenSale][setSaleOrder]: _endTime is under now\");\r\n        require(_endTime > _startTime, \"[TKMTokenSale][setSaleOrder]: _endTime is under _startTime\");\r\n\r\n        //  \r\n        if (0 == saleOrders[_order].totalAmount) {\r\n            saleOrder storage newOrder = saleOrders[_order];\r\n            newOrder.totalAmount = _totalAmount;\r\n            newOrder.sellAmount = 0;\r\n            newOrder.tokenMultiply = _tokenMultiply;\r\n            newOrder.limitPerUser = _limitPerUser;\r\n            newOrder.startTime = _startTime;\r\n            newOrder.endTime = _endTime;\r\n            return;\r\n        }\r\n\r\n        //     \r\n        saleOrders[_order].tokenMultiply = _tokenMultiply;\r\n        saleOrders[_order].limitPerUser = _limitPerUser;\r\n        saleOrders[_order].startTime = _startTime;\r\n        saleOrders[_order].endTime = _endTime;\r\n    }\r\n\r\n    // ico  .     \r\n    function incOrder() public onlyOwner {\r\n        //      \r\n        // uint256 remainTokenAmount = saleOrders[order].totalAmount - saleOrders[order].sellAmount;\r\n\r\n        //   \r\n        order++;\r\n\r\n        //   \r\n        // saleOrders[order].totalAmount += remainTokenAmount;\r\n    }\r\n\r\n/*\r\n    struct saleOrder {\r\n        uint256 totalAmount; //      \r\n        uint256 sellAmount; //     \r\n        uint256 tokenMultiply; // //  * {} = 3KM\r\n        uint256 limitPerUser; //        \r\n        uint256 startTime; //  \r\n        uint256 endTime; //  \r\n        mapping(address => uint256) tokenPerUser; //      \r\n    }\r\n*/\r\n    // ORK  \r\n    function sale() public payable {\r\n        //  \r\n        require(0 < saleOrders[order].totalAmount, \"[TKMTokenSale][sale]: data is not found\");\r\n        //   \r\n        require(1 ether <= msg.value, \"[TKMTokenSale][sale]: value should not be less than 1 ether\");\r\n        //  \r\n        require(saleOrders[order].startTime <= block.timestamp, \"[TKMTokenSale][sale]: sale is not started\");\r\n        require(saleOrders[order].endTime >= block.timestamp, \"[TKMTokenSale][sale]: sale is ended\");\r\n\r\n        //  \r\n        uint256 validBuyToken = saleOrders[order].tokenMultiply * msg.value;\r\n\r\n        //  \r\n        uint256 validSellToken = saleOrders[order].totalAmount - saleOrders[order].sellAmount;\r\n        //    \r\n        saleOrders[order].sellAmount += validBuyToken;\r\n\r\n        //   \r\n        require(validSellToken >= validBuyToken, \"[TKMTokenSale][sale]: tokens are sold out\");\r\n\r\n        //        \r\n        uint256 boughtToken = tokenPerUser[msg.sender][order];\r\n        //    \r\n        tokenPerUser[msg.sender][order] += validBuyToken;\r\n        require(saleOrders[order].limitPerUser >= boughtToken + validBuyToken, \"[TKMTokenSale][sale]: can not buy more than allocated ammount of tokens\");\r\n\r\n        //  \r\n        uint256 sendToken = (validBuyToken * tge_) / 100;\r\n        //  \r\n        uint256 remainToken = validBuyToken - sendToken;\r\n        lockedTokens[msg.sender] += remainToken / releaseOrderCount;\r\n\r\n        //    \r\n        firstTokens[msg.sender] += sendToken;\r\n        // ico   \r\n        // require(\r\n        //     TKMToken.transferFrom(Operator, msg.sender, sendToken),\r\n        //     \"[TKMTokenSale][sale]: unable to send token, recipient may have reverted\"\r\n        // );\r\n\r\n        emit Sale(msg.sender, order, validBuyToken);\r\n    }\r\n\r\n    //         .  \r\n    function setFirstClaimTime(uint256 _firstClaimTime) public onlyOwner {\r\n        require(0 == tokenFirstClaimTime, \"[TKMTokenSale][setFirstClaimTime]: already set token first claim time\");\r\n        tokenFirstClaimTime = _firstClaimTime;\r\n    }\r\n\r\n    function setClaimTime(uint256 _claimTime) public onlyOwner {\r\n        require(0 == tokenClaimTime, \"[TKMTokenSale][setClaimTime]: already set token claim time\");\r\n        tokenClaimTime = _claimTime;\r\n    }\r\n\r\n/*\r\n    //        \r\n    uint256 private tokenClaimTime;\r\n    //            \r\n    uint8 public releaseOrderDay = 30;\r\n    //         \r\n    uint8 public releaseOrderCount = 18;\r\n    //   . 1 \r\n    mapping(address => uint256) public lockedTokens;\r\n    //     \r\n    mapping(address => mapping(uint8 => bool)) public lockedTokenTransfer;\r\n*/\r\n    //    \r\n    function claimFirst() public {\r\n        //       \r\n        require(0 < tokenFirstClaimTime, \"[TKMTokenSale][claimFirst]: time is not setup yet\");\r\n        //   \r\n        require(false == lockedTokenTransfer[msg.sender][0], \"[TKMTokenSale][claimFirst]: already claimed\");\r\n        //  \r\n        lockedTokenTransfer[msg.sender][0] = true;\r\n        //  \r\n        require(block.timestamp > tokenFirstClaimTime, \"[TKMTokenSale][claimFirst]: remaining time is still left\");\r\n        //   \r\n        uint256 tokenAmount = firstTokens[msg.sender];\r\n        require(tokenAmount > 0, \"[TKMTokenSale][claimFirst]: receivable tokens are not found\");\r\n        //  \r\n        require(\r\n            TKMToken.transferFrom(Operator, msg.sender, tokenAmount),\r\n            \"[TKMTokenSale][claimFirst]: unable to send token, recipient may have reverted\"\r\n        );\r\n\r\n        emit Claim(msg.sender, 0, tokenAmount);\r\n    }\r\n\r\n    //     \r\n    function claim(uint8 claimOrder) public {\r\n        //       \r\n        require(0 < tokenClaimTime, \"[TKMTokenSale][claim]: time is not setup yet\");\r\n        // order  \r\n        require(0 < claimOrder && releaseOrderCount >= claimOrder, \"[TKMTokenSale][claim]: invalid order\");\r\n        //   \r\n        require(false == lockedTokenTransfer[msg.sender][claimOrder], \"[TKMTokenSale][claim]: already claimed\");\r\n        //  \r\n        lockedTokenTransfer[msg.sender][claimOrder] = true;\r\n        //  \r\n        // uint256 releaseTime = tokenClaimTime + ((releaseOrderDay * (uint256(claimOrder) - 1)) * 86400); // 1 days == 86400\r\n        uint256 releaseTime = tokenClaimTime + ((10 * (uint256(claimOrder) - 1)) * 60);     // 10\r\n        require(block.timestamp > releaseTime, \"[TKMTokenSale][claim]: remaining time is still left\");\r\n        //   \r\n        uint256 tokenAmount = lockedTokens[msg.sender];\r\n        require(tokenAmount > 0, \"[TKMTokenSale][claim]: receivable tokens are not found\");\r\n        //  \r\n        require(\r\n            TKMToken.transferFrom(Operator, msg.sender, tokenAmount),\r\n            \"[TKMTokenSale][claim]: unable to send token, recipient may have reverted\"\r\n        );\r\n\r\n        emit Claim(msg.sender, claimOrder, tokenAmount);\r\n    }\r\n\r\n    // ico        \r\n    function withdrawEth(address to) public onlyOwner {\r\n        require(to != address(0), \"[TKMTokenSale][withdrawEth]: transfer to the zero address\");\r\n        //       \r\n        address payable receiver = payable(to);\r\n        receiver.transfer(address(this).balance);\r\n    }\r\n}\r\n",
  "sourcePath": "D:\\github\\solidity_tinyping\\contracts\\TKMTokenSaleA.sol",
  "compiler": {
    "name": "solc",
    "version": "0.8.14+commit.80d49f37.Emscripten.clang"
  },
  "schemaVersion": "3.4.7",
  "updatedAt": "2022-09-13T06:54:00.535Z",
  "networkType": "ethereum",
  "devdoc": {
    "kind": "dev",
    "methods": {},
    "version": 1
  },
  "userdoc": {
    "kind": "user",
    "methods": {},
    "version": 1
  }
}