{
  "contractName": "TKMBox",
  "abi": [
    {
      "inputs": [
        {
          "internalType": "address",
          "name": "_minter",
          "type": "address"
        }
      ],
      "stateMutability": "nonpayable",
      "type": "constructor"
    },
    {
      "anonymous": false,
      "inputs": [
        {
          "indexed": true,
          "internalType": "address",
          "name": "owner",
          "type": "address"
        },
        {
          "indexed": true,
          "internalType": "address",
          "name": "approved",
          "type": "address"
        },
        {
          "indexed": true,
          "internalType": "uint256",
          "name": "tokenId",
          "type": "uint256"
        }
      ],
      "name": "Approval",
      "type": "event"
    },
    {
      "anonymous": false,
      "inputs": [
        {
          "indexed": true,
          "internalType": "address",
          "name": "owner",
          "type": "address"
        },
        {
          "indexed": true,
          "internalType": "address",
          "name": "operator",
          "type": "address"
        },
        {
          "indexed": false,
          "internalType": "bool",
          "name": "approved",
          "type": "bool"
        }
      ],
      "name": "ApprovalForAll",
      "type": "event"
    },
    {
      "anonymous": false,
      "inputs": [
        {
          "indexed": true,
          "internalType": "address",
          "name": "opener",
          "type": "address"
        },
        {
          "indexed": true,
          "internalType": "uint256",
          "name": "tokenId",
          "type": "uint256"
        }
      ],
      "name": "BoxOpen",
      "type": "event"
    },
    {
      "anonymous": false,
      "inputs": [
        {
          "indexed": true,
          "internalType": "address",
          "name": "previousOwner",
          "type": "address"
        },
        {
          "indexed": true,
          "internalType": "address",
          "name": "newOwner",
          "type": "address"
        }
      ],
      "name": "OwnershipTransferred",
      "type": "event"
    },
    {
      "anonymous": false,
      "inputs": [
        {
          "indexed": false,
          "internalType": "address",
          "name": "account",
          "type": "address"
        }
      ],
      "name": "Paused",
      "type": "event"
    },
    {
      "anonymous": false,
      "inputs": [
        {
          "indexed": true,
          "internalType": "bytes32",
          "name": "role",
          "type": "bytes32"
        },
        {
          "indexed": true,
          "internalType": "bytes32",
          "name": "previousAdminRole",
          "type": "bytes32"
        },
        {
          "indexed": true,
          "internalType": "bytes32",
          "name": "newAdminRole",
          "type": "bytes32"
        }
      ],
      "name": "RoleAdminChanged",
      "type": "event"
    },
    {
      "anonymous": false,
      "inputs": [
        {
          "indexed": true,
          "internalType": "bytes32",
          "name": "role",
          "type": "bytes32"
        },
        {
          "indexed": true,
          "internalType": "address",
          "name": "account",
          "type": "address"
        },
        {
          "indexed": true,
          "internalType": "address",
          "name": "sender",
          "type": "address"
        }
      ],
      "name": "RoleGranted",
      "type": "event"
    },
    {
      "anonymous": false,
      "inputs": [
        {
          "indexed": true,
          "internalType": "bytes32",
          "name": "role",
          "type": "bytes32"
        },
        {
          "indexed": true,
          "internalType": "address",
          "name": "account",
          "type": "address"
        },
        {
          "indexed": true,
          "internalType": "address",
          "name": "sender",
          "type": "address"
        }
      ],
      "name": "RoleRevoked",
      "type": "event"
    },
    {
      "anonymous": false,
      "inputs": [
        {
          "indexed": true,
          "internalType": "address",
          "name": "from",
          "type": "address"
        },
        {
          "indexed": true,
          "internalType": "address",
          "name": "to",
          "type": "address"
        },
        {
          "indexed": true,
          "internalType": "uint256",
          "name": "tokenId",
          "type": "uint256"
        }
      ],
      "name": "Transfer",
      "type": "event"
    },
    {
      "anonymous": false,
      "inputs": [
        {
          "indexed": false,
          "internalType": "address",
          "name": "account",
          "type": "address"
        }
      ],
      "name": "Unpaused",
      "type": "event"
    },
    {
      "inputs": [],
      "name": "DEFAULT_ADMIN_ROLE",
      "outputs": [
        {
          "internalType": "bytes32",
          "name": "",
          "type": "bytes32"
        }
      ],
      "stateMutability": "view",
      "type": "function"
    },
    {
      "inputs": [],
      "name": "MINTER_ROLE",
      "outputs": [
        {
          "internalType": "bytes32",
          "name": "",
          "type": "bytes32"
        }
      ],
      "stateMutability": "view",
      "type": "function"
    },
    {
      "inputs": [
        {
          "internalType": "address",
          "name": "to",
          "type": "address"
        },
        {
          "internalType": "uint256",
          "name": "tokenId",
          "type": "uint256"
        }
      ],
      "name": "approve",
      "outputs": [],
      "stateMutability": "nonpayable",
      "type": "function"
    },
    {
      "inputs": [
        {
          "internalType": "address",
          "name": "owner",
          "type": "address"
        }
      ],
      "name": "balanceOf",
      "outputs": [
        {
          "internalType": "uint256",
          "name": "",
          "type": "uint256"
        }
      ],
      "stateMutability": "view",
      "type": "function"
    },
    {
      "inputs": [
        {
          "internalType": "uint256",
          "name": "tokenId",
          "type": "uint256"
        }
      ],
      "name": "getApproved",
      "outputs": [
        {
          "internalType": "address",
          "name": "",
          "type": "address"
        }
      ],
      "stateMutability": "view",
      "type": "function"
    },
    {
      "inputs": [
        {
          "internalType": "bytes32",
          "name": "role",
          "type": "bytes32"
        }
      ],
      "name": "getRoleAdmin",
      "outputs": [
        {
          "internalType": "bytes32",
          "name": "",
          "type": "bytes32"
        }
      ],
      "stateMutability": "view",
      "type": "function"
    },
    {
      "inputs": [
        {
          "internalType": "bytes32",
          "name": "role",
          "type": "bytes32"
        },
        {
          "internalType": "address",
          "name": "account",
          "type": "address"
        }
      ],
      "name": "grantRole",
      "outputs": [],
      "stateMutability": "nonpayable",
      "type": "function"
    },
    {
      "inputs": [
        {
          "internalType": "bytes32",
          "name": "role",
          "type": "bytes32"
        },
        {
          "internalType": "address",
          "name": "account",
          "type": "address"
        }
      ],
      "name": "hasRole",
      "outputs": [
        {
          "internalType": "bool",
          "name": "",
          "type": "bool"
        }
      ],
      "stateMutability": "view",
      "type": "function"
    },
    {
      "inputs": [
        {
          "internalType": "address",
          "name": "owner",
          "type": "address"
        },
        {
          "internalType": "address",
          "name": "operator",
          "type": "address"
        }
      ],
      "name": "isApprovedForAll",
      "outputs": [
        {
          "internalType": "bool",
          "name": "",
          "type": "bool"
        }
      ],
      "stateMutability": "view",
      "type": "function"
    },
    {
      "inputs": [],
      "name": "name",
      "outputs": [
        {
          "internalType": "string",
          "name": "",
          "type": "string"
        }
      ],
      "stateMutability": "view",
      "type": "function"
    },
    {
      "inputs": [],
      "name": "owner",
      "outputs": [
        {
          "internalType": "address",
          "name": "",
          "type": "address"
        }
      ],
      "stateMutability": "view",
      "type": "function"
    },
    {
      "inputs": [
        {
          "internalType": "uint256",
          "name": "tokenId",
          "type": "uint256"
        }
      ],
      "name": "ownerOf",
      "outputs": [
        {
          "internalType": "address",
          "name": "",
          "type": "address"
        }
      ],
      "stateMutability": "view",
      "type": "function"
    },
    {
      "inputs": [],
      "name": "paused",
      "outputs": [
        {
          "internalType": "bool",
          "name": "",
          "type": "bool"
        }
      ],
      "stateMutability": "view",
      "type": "function"
    },
    {
      "inputs": [],
      "name": "renounceOwnership",
      "outputs": [],
      "stateMutability": "nonpayable",
      "type": "function"
    },
    {
      "inputs": [
        {
          "internalType": "bytes32",
          "name": "role",
          "type": "bytes32"
        },
        {
          "internalType": "address",
          "name": "account",
          "type": "address"
        }
      ],
      "name": "renounceRole",
      "outputs": [],
      "stateMutability": "nonpayable",
      "type": "function"
    },
    {
      "inputs": [
        {
          "internalType": "bytes32",
          "name": "role",
          "type": "bytes32"
        },
        {
          "internalType": "address",
          "name": "account",
          "type": "address"
        }
      ],
      "name": "revokeRole",
      "outputs": [],
      "stateMutability": "nonpayable",
      "type": "function"
    },
    {
      "inputs": [
        {
          "internalType": "address",
          "name": "from",
          "type": "address"
        },
        {
          "internalType": "address",
          "name": "to",
          "type": "address"
        },
        {
          "internalType": "uint256",
          "name": "tokenId",
          "type": "uint256"
        }
      ],
      "name": "safeTransferFrom",
      "outputs": [],
      "stateMutability": "nonpayable",
      "type": "function"
    },
    {
      "inputs": [
        {
          "internalType": "address",
          "name": "from",
          "type": "address"
        },
        {
          "internalType": "address",
          "name": "to",
          "type": "address"
        },
        {
          "internalType": "uint256",
          "name": "tokenId",
          "type": "uint256"
        },
        {
          "internalType": "bytes",
          "name": "_data",
          "type": "bytes"
        }
      ],
      "name": "safeTransferFrom",
      "outputs": [],
      "stateMutability": "nonpayable",
      "type": "function"
    },
    {
      "inputs": [
        {
          "internalType": "address",
          "name": "operator",
          "type": "address"
        },
        {
          "internalType": "bool",
          "name": "approved",
          "type": "bool"
        }
      ],
      "name": "setApprovalForAll",
      "outputs": [],
      "stateMutability": "nonpayable",
      "type": "function"
    },
    {
      "inputs": [],
      "name": "symbol",
      "outputs": [
        {
          "internalType": "string",
          "name": "",
          "type": "string"
        }
      ],
      "stateMutability": "view",
      "type": "function"
    },
    {
      "inputs": [
        {
          "internalType": "uint256",
          "name": "index",
          "type": "uint256"
        }
      ],
      "name": "tokenByIndex",
      "outputs": [
        {
          "internalType": "uint256",
          "name": "",
          "type": "uint256"
        }
      ],
      "stateMutability": "view",
      "type": "function"
    },
    {
      "inputs": [
        {
          "internalType": "address",
          "name": "owner",
          "type": "address"
        },
        {
          "internalType": "uint256",
          "name": "index",
          "type": "uint256"
        }
      ],
      "name": "tokenOfOwnerByIndex",
      "outputs": [
        {
          "internalType": "uint256",
          "name": "",
          "type": "uint256"
        }
      ],
      "stateMutability": "view",
      "type": "function"
    },
    {
      "inputs": [],
      "name": "totalSupply",
      "outputs": [
        {
          "internalType": "uint256",
          "name": "",
          "type": "uint256"
        }
      ],
      "stateMutability": "view",
      "type": "function"
    },
    {
      "inputs": [
        {
          "internalType": "address",
          "name": "from",
          "type": "address"
        },
        {
          "internalType": "address",
          "name": "to",
          "type": "address"
        },
        {
          "internalType": "uint256",
          "name": "tokenId",
          "type": "uint256"
        }
      ],
      "name": "transferFrom",
      "outputs": [],
      "stateMutability": "nonpayable",
      "type": "function"
    },
    {
      "inputs": [
        {
          "internalType": "address",
          "name": "newOwner",
          "type": "address"
        }
      ],
      "name": "transferOwnership",
      "outputs": [],
      "stateMutability": "nonpayable",
      "type": "function"
    },
    {
      "inputs": [],
      "name": "pause",
      "outputs": [],
      "stateMutability": "nonpayable",
      "type": "function"
    },
    {
      "inputs": [],
      "name": "unpause",
      "outputs": [],
      "stateMutability": "nonpayable",
      "type": "function"
    },
    {
      "inputs": [
        {
          "internalType": "address",
          "name": "to",
          "type": "address"
        },
        {
          "internalType": "uint256",
          "name": "startId",
          "type": "uint256"
        },
        {
          "internalType": "uint256",
          "name": "endId",
          "type": "uint256"
        }
      ],
      "name": "inoMint",
      "outputs": [],
      "stateMutability": "nonpayable",
      "type": "function"
    },
    {
      "inputs": [
        {
          "internalType": "address",
          "name": "owner",
          "type": "address"
        }
      ],
      "name": "collection",
      "outputs": [
        {
          "internalType": "uint256[]",
          "name": "",
          "type": "uint256[]"
        }
      ],
      "stateMutability": "view",
      "type": "function"
    },
    {
      "inputs": [
        {
          "internalType": "uint256",
          "name": "tokenId",
          "type": "uint256"
        }
      ],
      "name": "boxOpen",
      "outputs": [],
      "stateMutability": "nonpayable",
      "type": "function"
    },
    {
      "inputs": [
        {
          "internalType": "uint256",
          "name": "tokenId",
          "type": "uint256"
        }
      ],
      "name": "tokenURI",
      "outputs": [
        {
          "internalType": "string",
          "name": "",
          "type": "string"
        }
      ],
      "stateMutability": "view",
      "type": "function"
    },
    {
      "inputs": [
        {
          "internalType": "bytes4",
          "name": "interfaceId",
          "type": "bytes4"
        }
      ],
      "name": "supportsInterface",
      "outputs": [
        {
          "internalType": "bool",
          "name": "",
          "type": "bool"
        }
      ],
      "stateMutability": "view",
      "type": "function"
    }
  ],
  "bytecode": "0x60806040523480156200001157600080fd5b5060405162004e9a38038062004e9a8339818101604052810190620000379190620004a5565b6040518060400160405280601c81526020017f5468726565204b696e67646f6d204d756c7469766572736520426f78000000008152506040518060400160405280600681526020017f334b4d426f7800000000000000000000000000000000000000000000000000008152508160009080519060200190620000bb9291906200038b565b508060019080519060200190620000d49291906200038b565b5050506000600b60006101000a81548160ff02191690831515021790555062000112620001066200016060201b60201c565b6200016860201b60201c565b620001276000801b336200022e60201b60201c565b620001597f9f2df0fed2c77648de5860a4cc508cd0818c85b8b8a1ab4ceeef8d981c8956a6826200022e60201b60201c565b506200053b565b600033905090565b6000600d60009054906101000a900473ffffffffffffffffffffffffffffffffffffffff16905081600d60006101000a81548173ffffffffffffffffffffffffffffffffffffffff021916908373ffffffffffffffffffffffffffffffffffffffff1602179055508173ffffffffffffffffffffffffffffffffffffffff168173ffffffffffffffffffffffffffffffffffffffff167f8be0079c531659141344cd1fd0a4f28419497f9722a3daafe3b4186f6b6457e060405160405180910390a35050565b6200024082826200032060201b60201c565b6200031c576001600c600084815260200190815260200160002060000160008373ffffffffffffffffffffffffffffffffffffffff1673ffffffffffffffffffffffffffffffffffffffff16815260200190815260200160002060006101000a81548160ff021916908315150217905550620002c16200016060201b60201c565b73ffffffffffffffffffffffffffffffffffffffff168173ffffffffffffffffffffffffffffffffffffffff16837f2f8788117e7eff1d82e926ec794901d17c78024a50270940304540a733656f0d60405160405180910390a45b5050565b6000600c600084815260200190815260200160002060000160008373ffffffffffffffffffffffffffffffffffffffff1673ffffffffffffffffffffffffffffffffffffffff16815260200190815260200160002060009054906101000a900460ff16905092915050565b828054620003999062000506565b90600052602060002090601f016020900481019282620003bd576000855562000409565b82601f10620003d857805160ff191683800117855562000409565b8280016001018555821562000409579182015b8281111562000408578251825591602001919060010190620003eb565b5b5090506200041891906200041c565b5090565b5b80821115620004375760008160009055506001016200041d565b5090565b600080fd5b600073ffffffffffffffffffffffffffffffffffffffff82169050919050565b60006200046d8262000440565b9050919050565b6200047f8162000460565b81146200048b57600080fd5b50565b6000815190506200049f8162000474565b92915050565b600060208284031215620004be57620004bd6200043b565b5b6000620004ce848285016200048e565b91505092915050565b7f4e487b7100000000000000000000000000000000000000000000000000000000600052602260045260246000fd5b600060028204905060018216806200051f57607f821691505b602082108103620005355762000534620004d7565b5b50919050565b61494f806200054b6000396000f3fe608060405234801561001057600080fd5b50600436106101f05760003560e01c8063715018a61161010f578063b88d4fde116100a2578063e322b36811610071578063e322b36814610591578063e94886d2146105ad578063e985e9c5146105dd578063f2fde38b1461060d576101f0565b8063b88d4fde1461050b578063c87b56dd14610527578063d539139314610557578063d547741f14610575576101f0565b806391d14854116100de57806391d148541461048357806395d89b41146104b3578063a217fddf146104d1578063a22cb465146104ef576101f0565b8063715018a6146104355780638456cb591461043f57806385b5e984146104495780638da5cb5b14610465576101f0565b80632f745c59116101875780634f6ccce7116101565780634f6ccce7146103875780635c975abb146103b75780636352211e146103d557806370a0823114610405576101f0565b80632f745c591461031557806336568abe146103455780633f4ba83a1461036157806342842e0e1461036b576101f0565b806318160ddd116101c357806318160ddd1461028f57806323b872dd146102ad578063248a9ca3146102c95780632f2ff15d146102f9576101f0565b806301ffc9a7146101f557806306fdde0314610225578063081812fc14610243578063095ea7b314610273575b600080fd5b61020f600480360381019061020a9190613013565b610629565b60405161021c919061305b565b60405180910390f35b61022d61063b565b60405161023a919061310f565b60405180910390f35b61025d60048036038101906102589190613167565b6106cd565b60405161026a91906131d5565b60405180910390f35b61028d6004803603810190610288919061321c565b610752565b005b610297610869565b6040516102a4919061326b565b60405180910390f35b6102c760048036038101906102c29190613286565b610876565b005b6102e360048036038101906102de919061330f565b6108d6565b6040516102f0919061334b565b60405180910390f35b610313600480360381019061030e9190613366565b6108f6565b005b61032f600480360381019061032a919061321c565b610917565b60405161033c919061326b565b60405180910390f35b61035f600480360381019061035a9190613366565b6109bc565b005b610369610a3f565b005b61038560048036038101906103809190613286565b610a57565b005b6103a1600480360381019061039c9190613167565b610a77565b6040516103ae919061326b565b60405180910390f35b6103bf610ae8565b6040516103cc919061305b565b60405180910390f35b6103ef60048036038101906103ea9190613167565b610aff565b6040516103fc91906131d5565b60405180910390f35b61041f600480360381019061041a91906133a6565b610bb0565b60405161042c919061326b565b60405180910390f35b61043d610c67565b005b610447610cef565b005b610463600480360381019061045e91906133d3565b610d07565b005b61046d610d62565b60405161047a91906131d5565b60405180910390f35b61049d60048036038101906104989190613366565b610d8c565b6040516104aa919061305b565b60405180910390f35b6104bb610df7565b6040516104c8919061310f565b60405180910390f35b6104d9610e89565b6040516104e6919061334b565b60405180910390f35b61050960048036038101906105049190613452565b610e90565b005b610525600480360381019061052091906135c7565b610ea6565b005b610541600480360381019061053c9190613167565b610f08565b60405161054e919061310f565b60405180910390f35b61055f610f1a565b60405161056c919061334b565b60405180910390f35b61058f600480360381019061058a9190613366565b610f3e565b005b6105ab60048036038101906105a69190613167565b610f5f565b005b6105c760048036038101906105c291906133a6565b61106d565b6040516105d49190613708565b60405180910390f35b6105f760048036038101906105f2919061372a565b611121565b604051610604919061305b565b60405180910390f35b610627600480360381019061062291906133a6565b6111b5565b005b6000610634826112ac565b9050919050565b60606000805461064a90613799565b80601f016020809104026020016040519081016040528092919081815260200182805461067690613799565b80156106c35780601f10610698576101008083540402835291602001916106c3565b820191906000526020600020905b8154815290600101906020018083116106a657829003601f168201915b5050505050905090565b60006106d882611326565b610717576040517f08c379a000000000000000000000000000000000000000000000000000000000815260040161070e9061383c565b60405180910390fd5b6004600083815260200190815260200160002060009054906101000a900473ffffffffffffffffffffffffffffffffffffffff169050919050565b600061075d82610aff565b90508073ffffffffffffffffffffffffffffffffffffffff168373ffffffffffffffffffffffffffffffffffffffff16036107cd576040517f08c379a00000000000000000000000000000000000000000000000000000000081526004016107c4906138ce565b60405180910390fd5b8073ffffffffffffffffffffffffffffffffffffffff166107ec611392565b73ffffffffffffffffffffffffffffffffffffffff16148061081b575061081a81610815611392565b611121565b5b61085a576040517f08c379a000000000000000000000000000000000000000000000000000000000815260040161085190613960565b60405180910390fd5b610864838361139a565b505050565b6000600880549050905090565b610887610881611392565b82611453565b6108c6576040517f08c379a00000000000000000000000000000000000000000000000000000000081526004016108bd906139f2565b60405180910390fd5b6108d1838383611531565b505050565b6000600c6000838152602001908152602001600020600101549050919050565b6108ff826108d6565b61090881611797565b61091283836117ab565b505050565b600061092283610bb0565b8210610963576040517f08c379a000000000000000000000000000000000000000000000000000000000815260040161095a90613a84565b60405180910390fd5b600660008473ffffffffffffffffffffffffffffffffffffffff1673ffffffffffffffffffffffffffffffffffffffff168152602001908152602001600020600083815260200190815260200160002054905092915050565b6109c4611392565b73ffffffffffffffffffffffffffffffffffffffff168173ffffffffffffffffffffffffffffffffffffffff1614610a31576040517f08c379a0000000000000000000000000000000000000000000000000000000008152600401610a2890613b16565b60405180910390fd5b610a3b828261188c565b5050565b6000801b610a4c81611797565b610a5461196e565b50565b610a7283838360405180602001604052806000815250610ea6565b505050565b6000610a81610869565b8210610ac2576040517f08c379a0000000000000000000000000000000000000000000000000000000008152600401610ab990613ba8565b60405180910390fd5b60088281548110610ad657610ad5613bc8565b5b90600052602060002001549050919050565b6000600b60009054906101000a900460ff16905090565b6000806002600084815260200190815260200160002060009054906101000a900473ffffffffffffffffffffffffffffffffffffffff169050600073ffffffffffffffffffffffffffffffffffffffff168173ffffffffffffffffffffffffffffffffffffffff1603610ba7576040517f08c379a0000000000000000000000000000000000000000000000000000000008152600401610b9e90613c69565b60405180910390fd5b80915050919050565b60008073ffffffffffffffffffffffffffffffffffffffff168273ffffffffffffffffffffffffffffffffffffffff1603610c20576040517f08c379a0000000000000000000000000000000000000000000000000000000008152600401610c1790613cfb565b60405180910390fd5b600360008373ffffffffffffffffffffffffffffffffffffffff1673ffffffffffffffffffffffffffffffffffffffff168152602001908152602001600020549050919050565b610c6f611392565b73ffffffffffffffffffffffffffffffffffffffff16610c8d610d62565b73ffffffffffffffffffffffffffffffffffffffff1614610ce3576040517f08c379a0000000000000000000000000000000000000000000000000000000008152600401610cda90613d67565b60405180910390fd5b610ced6000611a10565b565b6000801b610cfc81611797565b610d04611ad6565b50565b7f9f2df0fed2c77648de5860a4cc508cd0818c85b8b8a1ab4ceeef8d981c8956a6610d3181611797565b60008390505b828111610d5b57610d488582611b79565b8080610d5390613db6565b915050610d37565b5050505050565b6000600d60009054906101000a900473ffffffffffffffffffffffffffffffffffffffff16905090565b6000600c600084815260200190815260200160002060000160008373ffffffffffffffffffffffffffffffffffffffff1673ffffffffffffffffffffffffffffffffffffffff16815260200190815260200160002060009054906101000a900460ff16905092915050565b606060018054610e0690613799565b80601f0160208091040260200160405190810160405280929190818152602001828054610e3290613799565b8015610e7f5780601f10610e5457610100808354040283529160200191610e7f565b820191906000526020600020905b815481529060010190602001808311610e6257829003601f168201915b5050505050905090565b6000801b81565b610ea2610e9b611392565b8383611b97565b5050565b610eb7610eb1611392565b83611453565b610ef6576040517f08c379a0000000000000000000000000000000000000000000000000000000008152600401610eed906139f2565b60405180910390fd5b610f0284848484611d03565b50505050565b6060610f1382611d5f565b9050919050565b7f9f2df0fed2c77648de5860a4cc508cd0818c85b8b8a1ab4ceeef8d981c8956a681565b610f47826108d6565b610f5081611797565b610f5a838361188c565b505050565b610f67610ae8565b15610fa7576040517f08c379a0000000000000000000000000000000000000000000000000000000008152600401610f9e90613e4a565b60405180910390fd5b610fb081610aff565b73ffffffffffffffffffffffffffffffffffffffff163373ffffffffffffffffffffffffffffffffffffffff161461101d576040517f08c379a000000000000000000000000000000000000000000000000000000000815260040161101490613edc565b60405180910390fd5b803373ffffffffffffffffffffffffffffffffffffffff167fb6d0f573cba3d4a03c7eaa036f7d5a9228d6fb816811d88b4a7c5c9505ffb59260405160405180910390a361106a81611eb0565b50565b6060600061107a83610bb0565b905060008167ffffffffffffffff8111156110985761109761349c565b5b6040519080825280602002602001820160405280156110c65781602001602082028036833780820191505090505b50905060005b828110156111165760006110e08683610917565b9050808383815181106110f6576110f5613bc8565b5b60200260200101818152505050808061110e90613db6565b9150506110cc565b508092505050919050565b6000600560008473ffffffffffffffffffffffffffffffffffffffff1673ffffffffffffffffffffffffffffffffffffffff16815260200190815260200160002060008373ffffffffffffffffffffffffffffffffffffffff1673ffffffffffffffffffffffffffffffffffffffff16815260200190815260200160002060009054906101000a900460ff16905092915050565b6111bd611392565b73ffffffffffffffffffffffffffffffffffffffff166111db610d62565b73ffffffffffffffffffffffffffffffffffffffff1614611231576040517f08c379a000000000000000000000000000000000000000000000000000000000815260040161122890613d67565b60405180910390fd5b600073ffffffffffffffffffffffffffffffffffffffff168173ffffffffffffffffffffffffffffffffffffffff16036112a0576040517f08c379a000000000000000000000000000000000000000000000000000000000815260040161129790613f6e565b60405180910390fd5b6112a981611a10565b50565b60007f7965db0b000000000000000000000000000000000000000000000000000000007bffffffffffffffffffffffffffffffffffffffffffffffffffffffff1916827bffffffffffffffffffffffffffffffffffffffffffffffffffffffff1916148061131f575061131e82611ebc565b5b9050919050565b60008073ffffffffffffffffffffffffffffffffffffffff166002600084815260200190815260200160002060009054906101000a900473ffffffffffffffffffffffffffffffffffffffff1673ffffffffffffffffffffffffffffffffffffffff1614159050919050565b600033905090565b816004600083815260200190815260200160002060006101000a81548173ffffffffffffffffffffffffffffffffffffffff021916908373ffffffffffffffffffffffffffffffffffffffff160217905550808273ffffffffffffffffffffffffffffffffffffffff1661140d83610aff565b73ffffffffffffffffffffffffffffffffffffffff167f8c5be1e5ebec7d5bd14f71427d1e84f3dd0314c0f7b2291e5b200ac8c7c3b92560405160405180910390a45050565b600061145e82611326565b61149d576040517f08c379a000000000000000000000000000000000000000000000000000000000815260040161149490614000565b60405180910390fd5b60006114a883610aff565b90508073ffffffffffffffffffffffffffffffffffffffff168473ffffffffffffffffffffffffffffffffffffffff1614806114ea57506114e98185611121565b5b8061152857508373ffffffffffffffffffffffffffffffffffffffff16611510846106cd565b73ffffffffffffffffffffffffffffffffffffffff16145b91505092915050565b8273ffffffffffffffffffffffffffffffffffffffff1661155182610aff565b73ffffffffffffffffffffffffffffffffffffffff16146115a7576040517f08c379a000000000000000000000000000000000000000000000000000000000815260040161159e90614092565b60405180910390fd5b600073ffffffffffffffffffffffffffffffffffffffff168273ffffffffffffffffffffffffffffffffffffffff1603611616576040517f08c379a000000000000000000000000000000000000000000000000000000000815260040161160d90614124565b60405180910390fd5b611621838383611f36565b61162c60008261139a565b6001600360008573ffffffffffffffffffffffffffffffffffffffff1673ffffffffffffffffffffffffffffffffffffffff168152602001908152602001600020600082825461167c9190614144565b925050819055506001600360008473ffffffffffffffffffffffffffffffffffffffff1673ffffffffffffffffffffffffffffffffffffffff16815260200190815260200160002060008282546116d39190614178565b92505081905550816002600083815260200190815260200160002060006101000a81548173ffffffffffffffffffffffffffffffffffffffff021916908373ffffffffffffffffffffffffffffffffffffffff160217905550808273ffffffffffffffffffffffffffffffffffffffff168473ffffffffffffffffffffffffffffffffffffffff167fddf252ad1be2c89b69c2b068fc378daa952ba7f163c4a11628f55a4df523b3ef60405160405180910390a4611792838383611f8e565b505050565b6117a8816117a3611392565b611f93565b50565b6117b58282610d8c565b611888576001600c600084815260200190815260200160002060000160008373ffffffffffffffffffffffffffffffffffffffff1673ffffffffffffffffffffffffffffffffffffffff16815260200190815260200160002060006101000a81548160ff02191690831515021790555061182d611392565b73ffffffffffffffffffffffffffffffffffffffff168173ffffffffffffffffffffffffffffffffffffffff16837f2f8788117e7eff1d82e926ec794901d17c78024a50270940304540a733656f0d60405160405180910390a45b5050565b6118968282610d8c565b1561196a576000600c600084815260200190815260200160002060000160008373ffffffffffffffffffffffffffffffffffffffff1673ffffffffffffffffffffffffffffffffffffffff16815260200190815260200160002060006101000a81548160ff02191690831515021790555061190f611392565b73ffffffffffffffffffffffffffffffffffffffff168173ffffffffffffffffffffffffffffffffffffffff16837ff6391f5c32d9c69d2a47ea670b442974b53935d1edc7fd64eb21e047a839171b60405160405180910390a45b5050565b611976610ae8565b6119b5576040517f08c379a00000000000000000000000000000000000000000000000000000000081526004016119ac9061421a565b60405180910390fd5b6000600b60006101000a81548160ff0219169083151502179055507f5db9ee0a495bf2e6ff9c91a7834c1ba4fdd244a5e8aa4e537bd38aeae4b073aa6119f9611392565b604051611a0691906131d5565b60405180910390a1565b6000600d60009054906101000a900473ffffffffffffffffffffffffffffffffffffffff16905081600d60006101000a81548173ffffffffffffffffffffffffffffffffffffffff021916908373ffffffffffffffffffffffffffffffffffffffff1602179055508173ffffffffffffffffffffffffffffffffffffffff168173ffffffffffffffffffffffffffffffffffffffff167f8be0079c531659141344cd1fd0a4f28419497f9722a3daafe3b4186f6b6457e060405160405180910390a35050565b611ade610ae8565b15611b1e576040517f08c379a0000000000000000000000000000000000000000000000000000000008152600401611b1590613e4a565b60405180910390fd5b6001600b60006101000a81548160ff0219169083151502179055507f62e78cea01bee320cd4e420270b5ea74000d11b0c9f74754ebdbfc544b05a258611b62611392565b604051611b6f91906131d5565b60405180910390a1565b611b93828260405180602001604052806000815250612030565b5050565b8173ffffffffffffffffffffffffffffffffffffffff168373ffffffffffffffffffffffffffffffffffffffff1603611c05576040517f08c379a0000000000000000000000000000000000000000000000000000000008152600401611bfc90614286565b60405180910390fd5b80600560008573ffffffffffffffffffffffffffffffffffffffff1673ffffffffffffffffffffffffffffffffffffffff16815260200190815260200160002060008473ffffffffffffffffffffffffffffffffffffffff1673ffffffffffffffffffffffffffffffffffffffff16815260200190815260200160002060006101000a81548160ff0219169083151502179055508173ffffffffffffffffffffffffffffffffffffffff168373ffffffffffffffffffffffffffffffffffffffff167f17307eab39ab6107e8899845ad3d59bd9653f200f220920489ca2b5937696c3183604051611cf6919061305b565b60405180910390a3505050565b611d0e848484611531565b611d1a8484848461208b565b611d59576040517f08c379a0000000000000000000000000000000000000000000000000000000008152600401611d5090614318565b60405180910390fd5b50505050565b6060611d6a82611326565b611da9576040517f08c379a0000000000000000000000000000000000000000000000000000000008152600401611da0906143aa565b60405180910390fd5b6000600a60008481526020019081526020016000208054611dc990613799565b80601f0160208091040260200160405190810160405280929190818152602001828054611df590613799565b8015611e425780601f10611e1757610100808354040283529160200191611e42565b820191906000526020600020905b815481529060010190602001808311611e2557829003601f168201915b505050505090506000611e53612212565b90506000815103611e68578192505050611eab565b600082511115611e9d578082604051602001611e85929190614406565b60405160208183030381529060405292505050611eab565b611ea684612232565b925050505b919050565b611eb9816122d9565b50565b60007f780e9d63000000000000000000000000000000000000000000000000000000007bffffffffffffffffffffffffffffffffffffffffffffffffffffffff1916827bffffffffffffffffffffffffffffffffffffffffffffffffffffffff19161480611f2f5750611f2e8261232c565b5b9050919050565b611f3e610ae8565b15611f7e576040517f08c379a0000000000000000000000000000000000000000000000000000000008152600401611f7590613e4a565b60405180910390fd5b611f8983838361240e565b505050565b505050565b611f9d8282610d8c565b61202c57611fc28173ffffffffffffffffffffffffffffffffffffffff166014612520565b611fd08360001c6020612520565b604051602001611fe19291906144c2565b6040516020818303038152906040526040517f08c379a0000000000000000000000000000000000000000000000000000000008152600401612023919061310f565b60405180910390fd5b5050565b61203a838361275c565b612047600084848461208b565b612086576040517f08c379a000000000000000000000000000000000000000000000000000000000815260040161207d90614318565b60405180910390fd5b505050565b60006120ac8473ffffffffffffffffffffffffffffffffffffffff16612935565b15612205578373ffffffffffffffffffffffffffffffffffffffff1663150b7a026120d5611392565b8786866040518563ffffffff1660e01b81526004016120f79493929190614551565b6020604051808303816000875af192505050801561213357506040513d601f19601f8201168201806040525081019061213091906145b2565b60015b6121b5573d8060008114612163576040519150601f19603f3d011682016040523d82523d6000602084013e612168565b606091505b5060008151036121ad576040517f08c379a00000000000000000000000000000000000000000000000000000000081526004016121a490614318565b60405180910390fd5b805181602001fd5b63150b7a0260e01b7bffffffffffffffffffffffffffffffffffffffffffffffffffffffff1916817bffffffffffffffffffffffffffffffffffffffffffffffffffffffff19161491505061220a565b600190505b949350505050565b60606040518060600160405280602181526020016148f960219139905090565b606061223d82611326565b61227c576040517f08c379a000000000000000000000000000000000000000000000000000000000815260040161227390614651565b60405180910390fd5b6000612286612212565b905060008151116122a657604051806020016040528060008152506122d1565b806122b084612958565b6040516020016122c1929190614406565b6040516020818303038152906040525b915050919050565b6122e281612ab8565b6000600a6000838152602001908152602001600020805461230290613799565b90501461232957600a600082815260200190815260200160002060006123289190612f4a565b5b50565b60007f80ac58cd000000000000000000000000000000000000000000000000000000007bffffffffffffffffffffffffffffffffffffffffffffffffffffffff1916827bffffffffffffffffffffffffffffffffffffffffffffffffffffffff191614806123f757507f5b5e139f000000000000000000000000000000000000000000000000000000007bffffffffffffffffffffffffffffffffffffffffffffffffffffffff1916827bffffffffffffffffffffffffffffffffffffffffffffffffffffffff1916145b80612407575061240682612bd5565b5b9050919050565b612419838383612c3f565b600073ffffffffffffffffffffffffffffffffffffffff168373ffffffffffffffffffffffffffffffffffffffff160361245b5761245681612c44565b61249a565b8173ffffffffffffffffffffffffffffffffffffffff168373ffffffffffffffffffffffffffffffffffffffff1614612499576124988382612c8d565b5b5b600073ffffffffffffffffffffffffffffffffffffffff168273ffffffffffffffffffffffffffffffffffffffff16036124dc576124d781612dfa565b61251b565b8273ffffffffffffffffffffffffffffffffffffffff168273ffffffffffffffffffffffffffffffffffffffff161461251a576125198282612ecb565b5b5b505050565b6060600060028360026125339190614671565b61253d9190614178565b67ffffffffffffffff8111156125565761255561349c565b5b6040519080825280601f01601f1916602001820160405280156125885781602001600182028036833780820191505090505b5090507f3000000000000000000000000000000000000000000000000000000000000000816000815181106125c0576125bf613bc8565b5b60200101907effffffffffffffffffffffffffffffffffffffffffffffffffffffffffffff1916908160001a9053507f78000000000000000000000000000000000000000000000000000000000000008160018151811061262457612623613bc8565b5b60200101907effffffffffffffffffffffffffffffffffffffffffffffffffffffffffffff1916908160001a905350600060018460026126649190614671565b61266e9190614178565b90505b600181111561270e577f3031323334353637383961626364656600000000000000000000000000000000600f8616601081106126b0576126af613bc8565b5b1a60f81b8282815181106126c7576126c6613bc8565b5b60200101907effffffffffffffffffffffffffffffffffffffffffffffffffffffffffffff1916908160001a905350600485901c945080612707906146cb565b9050612671565b5060008414612752576040517f08c379a000000000000000000000000000000000000000000000000000000000815260040161274990614740565b60405180910390fd5b8091505092915050565b600073ffffffffffffffffffffffffffffffffffffffff168273ffffffffffffffffffffffffffffffffffffffff16036127cb576040517f08c379a00000000000000000000000000000000000000000000000000000000081526004016127c2906147ac565b60405180910390fd5b6127d481611326565b15612814576040517f08c379a000000000000000000000000000000000000000000000000000000000815260040161280b90614818565b60405180910390fd5b61282060008383611f36565b6001600360008473ffffffffffffffffffffffffffffffffffffffff1673ffffffffffffffffffffffffffffffffffffffff16815260200190815260200160002060008282546128709190614178565b92505081905550816002600083815260200190815260200160002060006101000a81548173ffffffffffffffffffffffffffffffffffffffff021916908373ffffffffffffffffffffffffffffffffffffffff160217905550808273ffffffffffffffffffffffffffffffffffffffff16600073ffffffffffffffffffffffffffffffffffffffff167fddf252ad1be2c89b69c2b068fc378daa952ba7f163c4a11628f55a4df523b3ef60405160405180910390a461293160008383611f8e565b5050565b6000808273ffffffffffffffffffffffffffffffffffffffff163b119050919050565b60606000820361299f576040518060400160405280600181526020017f30000000000000000000000000000000000000000000000000000000000000008152509050612ab3565b600082905060005b600082146129d15780806129ba90613db6565b915050600a826129ca9190614867565b91506129a7565b60008167ffffffffffffffff8111156129ed576129ec61349c565b5b6040519080825280601f01601f191660200182016040528015612a1f5781602001600182028036833780820191505090505b5090505b60008514612aac57600182612a389190614144565b9150600a85612a479190614898565b6030612a539190614178565b60f81b818381518110612a6957612a68613bc8565b5b60200101907effffffffffffffffffffffffffffffffffffffffffffffffffffffffffffff1916908160001a905350600a85612aa59190614867565b9450612a23565b8093505050505b919050565b6000612ac382610aff565b9050612ad181600084611f36565b612adc60008361139a565b6001600360008373ffffffffffffffffffffffffffffffffffffffff1673ffffffffffffffffffffffffffffffffffffffff1681526020019081526020016000206000828254612b2c9190614144565b925050819055506002600083815260200190815260200160002060006101000a81549073ffffffffffffffffffffffffffffffffffffffff021916905581600073ffffffffffffffffffffffffffffffffffffffff168273ffffffffffffffffffffffffffffffffffffffff167fddf252ad1be2c89b69c2b068fc378daa952ba7f163c4a11628f55a4df523b3ef60405160405180910390a4612bd181600084611f8e565b5050565b60007f01ffc9a7000000000000000000000000000000000000000000000000000000007bffffffffffffffffffffffffffffffffffffffffffffffffffffffff1916827bffffffffffffffffffffffffffffffffffffffffffffffffffffffff1916149050919050565b505050565b6008805490506009600083815260200190815260200160002081905550600881908060018154018082558091505060019003906000526020600020016000909190919091505550565b60006001612c9a84610bb0565b612ca49190614144565b9050600060076000848152602001908152602001600020549050818114612d89576000600660008673ffffffffffffffffffffffffffffffffffffffff1673ffffffffffffffffffffffffffffffffffffffff168152602001908152602001600020600084815260200190815260200160002054905080600660008773ffffffffffffffffffffffffffffffffffffffff1673ffffffffffffffffffffffffffffffffffffffff168152602001908152602001600020600084815260200190815260200160002081905550816007600083815260200190815260200160002081905550505b6007600084815260200190815260200160002060009055600660008573ffffffffffffffffffffffffffffffffffffffff1673ffffffffffffffffffffffffffffffffffffffff16815260200190815260200160002060008381526020019081526020016000206000905550505050565b60006001600880549050612e0e9190614144565b9050600060096000848152602001908152602001600020549050600060088381548110612e3e57612e3d613bc8565b5b906000526020600020015490508060088381548110612e6057612e5f613bc8565b5b906000526020600020018190555081600960008381526020019081526020016000208190555060096000858152602001908152602001600020600090556008805480612eaf57612eae6148c9565b5b6001900381819060005260206000200160009055905550505050565b6000612ed683610bb0565b905081600660008573ffffffffffffffffffffffffffffffffffffffff1673ffffffffffffffffffffffffffffffffffffffff168152602001908152602001600020600083815260200190815260200160002081905550806007600084815260200190815260200160002081905550505050565b508054612f5690613799565b6000825580601f10612f685750612f87565b601f016020900490600052602060002090810190612f869190612f8a565b5b50565b5b80821115612fa3576000816000905550600101612f8b565b5090565b6000604051905090565b600080fd5b600080fd5b60007fffffffff0000000000000000000000000000000000000000000000000000000082169050919050565b612ff081612fbb565b8114612ffb57600080fd5b50565b60008135905061300d81612fe7565b92915050565b60006020828403121561302957613028612fb1565b5b600061303784828501612ffe565b91505092915050565b60008115159050919050565b61305581613040565b82525050565b6000602082019050613070600083018461304c565b92915050565b600081519050919050565b600082825260208201905092915050565b60005b838110156130b0578082015181840152602081019050613095565b838111156130bf576000848401525b50505050565b6000601f19601f8301169050919050565b60006130e182613076565b6130eb8185613081565b93506130fb818560208601613092565b613104816130c5565b840191505092915050565b6000602082019050818103600083015261312981846130d6565b905092915050565b6000819050919050565b61314481613131565b811461314f57600080fd5b50565b6000813590506131618161313b565b92915050565b60006020828403121561317d5761317c612fb1565b5b600061318b84828501613152565b91505092915050565b600073ffffffffffffffffffffffffffffffffffffffff82169050919050565b60006131bf82613194565b9050919050565b6131cf816131b4565b82525050565b60006020820190506131ea60008301846131c6565b92915050565b6131f9816131b4565b811461320457600080fd5b50565b600081359050613216816131f0565b92915050565b6000806040838503121561323357613232612fb1565b5b600061324185828601613207565b925050602061325285828601613152565b9150509250929050565b61326581613131565b82525050565b6000602082019050613280600083018461325c565b92915050565b60008060006060848603121561329f5761329e612fb1565b5b60006132ad86828701613207565b93505060206132be86828701613207565b92505060406132cf86828701613152565b9150509250925092565b6000819050919050565b6132ec816132d9565b81146132f757600080fd5b50565b600081359050613309816132e3565b92915050565b60006020828403121561332557613324612fb1565b5b6000613333848285016132fa565b91505092915050565b613345816132d9565b82525050565b6000602082019050613360600083018461333c565b92915050565b6000806040838503121561337d5761337c612fb1565b5b600061338b858286016132fa565b925050602061339c85828601613207565b9150509250929050565b6000602082840312156133bc576133bb612fb1565b5b60006133ca84828501613207565b91505092915050565b6000806000606084860312156133ec576133eb612fb1565b5b60006133fa86828701613207565b935050602061340b86828701613152565b925050604061341c86828701613152565b9150509250925092565b61342f81613040565b811461343a57600080fd5b50565b60008135905061344c81613426565b92915050565b6000806040838503121561346957613468612fb1565b5b600061347785828601613207565b92505060206134888582860161343d565b9150509250929050565b600080fd5b600080fd5b7f4e487b7100000000000000000000000000000000000000000000000000000000600052604160045260246000fd5b6134d4826130c5565b810181811067ffffffffffffffff821117156134f3576134f261349c565b5b80604052505050565b6000613506612fa7565b905061351282826134cb565b919050565b600067ffffffffffffffff8211156135325761353161349c565b5b61353b826130c5565b9050602081019050919050565b82818337600083830152505050565b600061356a61356584613517565b6134fc565b90508281526020810184848401111561358657613585613497565b5b613591848285613548565b509392505050565b600082601f8301126135ae576135ad613492565b5b81356135be848260208601613557565b91505092915050565b600080600080608085870312156135e1576135e0612fb1565b5b60006135ef87828801613207565b945050602061360087828801613207565b935050604061361187828801613152565b925050606085013567ffffffffffffffff81111561363257613631612fb6565b5b61363e87828801613599565b91505092959194509250565b600081519050919050565b600082825260208201905092915050565b6000819050602082019050919050565b61367f81613131565b82525050565b60006136918383613676565b60208301905092915050565b6000602082019050919050565b60006136b58261364a565b6136bf8185613655565b93506136ca83613666565b8060005b838110156136fb5781516136e28882613685565b97506136ed8361369d565b9250506001810190506136ce565b5085935050505092915050565b6000602082019050818103600083015261372281846136aa565b905092915050565b6000806040838503121561374157613740612fb1565b5b600061374f85828601613207565b925050602061376085828601613207565b9150509250929050565b7f4e487b7100000000000000000000000000000000000000000000000000000000600052602260045260246000fd5b600060028204905060018216806137b157607f821691505b6020821081036137c4576137c361376a565b5b50919050565b7f4552433732313a20617070726f76656420717565727920666f72206e6f6e657860008201527f697374656e7420746f6b656e0000000000000000000000000000000000000000602082015250565b6000613826602c83613081565b9150613831826137ca565b604082019050919050565b6000602082019050818103600083015261385581613819565b9050919050565b7f4552433732313a20617070726f76616c20746f2063757272656e74206f776e6560008201527f7200000000000000000000000000000000000000000000000000000000000000602082015250565b60006138b8602183613081565b91506138c38261385c565b604082019050919050565b600060208201905081810360008301526138e7816138ab565b9050919050565b7f4552433732313a20617070726f76652063616c6c6572206973206e6f74206f7760008201527f6e6572206e6f7220617070726f76656420666f7220616c6c0000000000000000602082015250565b600061394a603883613081565b9150613955826138ee565b604082019050919050565b600060208201905081810360008301526139798161393d565b9050919050565b7f4552433732313a207472616e736665722063616c6c6572206973206e6f74206f60008201527f776e6572206e6f7220617070726f766564000000000000000000000000000000602082015250565b60006139dc603183613081565b91506139e782613980565b604082019050919050565b60006020820190508181036000830152613a0b816139cf565b9050919050565b7f455243373231456e756d657261626c653a206f776e657220696e646578206f7560008201527f74206f6620626f756e6473000000000000000000000000000000000000000000602082015250565b6000613a6e602b83613081565b9150613a7982613a12565b604082019050919050565b60006020820190508181036000830152613a9d81613a61565b9050919050565b7f416363657373436f6e74726f6c3a2063616e206f6e6c792072656e6f756e636560008201527f20726f6c657320666f722073656c660000000000000000000000000000000000602082015250565b6000613b00602f83613081565b9150613b0b82613aa4565b604082019050919050565b60006020820190508181036000830152613b2f81613af3565b9050919050565b7f455243373231456e756d657261626c653a20676c6f62616c20696e646578206f60008201527f7574206f6620626f756e64730000000000000000000000000000000000000000602082015250565b6000613b92602c83613081565b9150613b9d82613b36565b604082019050919050565b60006020820190508181036000830152613bc181613b85565b9050919050565b7f4e487b7100000000000000000000000000000000000000000000000000000000600052603260045260246000fd5b7f4552433732313a206f776e657220717565727920666f72206e6f6e657869737460008201527f656e7420746f6b656e0000000000000000000000000000000000000000000000602082015250565b6000613c53602983613081565b9150613c5e82613bf7565b604082019050919050565b60006020820190508181036000830152613c8281613c46565b9050919050565b7f4552433732313a2062616c616e636520717565727920666f7220746865207a6560008201527f726f206164647265737300000000000000000000000000000000000000000000602082015250565b6000613ce5602a83613081565b9150613cf082613c89565b604082019050919050565b60006020820190508181036000830152613d1481613cd8565b9050919050565b7f4f776e61626c653a2063616c6c6572206973206e6f7420746865206f776e6572600082015250565b6000613d51602083613081565b9150613d5c82613d1b565b602082019050919050565b60006020820190508181036000830152613d8081613d44565b9050919050565b7f4e487b7100000000000000000000000000000000000000000000000000000000600052601160045260246000fd5b6000613dc182613131565b91507fffffffffffffffffffffffffffffffffffffffffffffffffffffffffffffffff8203613df357613df2613d87565b5b600182019050919050565b7f5061757361626c653a2070617573656400000000000000000000000000000000600082015250565b6000613e34601083613081565b9150613e3f82613dfe565b602082019050919050565b60006020820190508181036000830152613e6381613e27565b9050919050565b7f544b4d426f783a206f6e6c7920746f6b656e206f776e65722063616e206f706560008201527f6e00000000000000000000000000000000000000000000000000000000000000602082015250565b6000613ec6602183613081565b9150613ed182613e6a565b604082019050919050565b60006020820190508181036000830152613ef581613eb9565b9050919050565b7f4f776e61626c653a206e6577206f776e657220697320746865207a65726f206160008201527f6464726573730000000000000000000000000000000000000000000000000000602082015250565b6000613f58602683613081565b9150613f6382613efc565b604082019050919050565b60006020820190508181036000830152613f8781613f4b565b9050919050565b7f4552433732313a206f70657261746f7220717565727920666f72206e6f6e657860008201527f697374656e7420746f6b656e0000000000000000000000000000000000000000602082015250565b6000613fea602c83613081565b9150613ff582613f8e565b604082019050919050565b6000602082019050818103600083015261401981613fdd565b9050919050565b7f4552433732313a207472616e736665722066726f6d20696e636f72726563742060008201527f6f776e6572000000000000000000000000000000000000000000000000000000602082015250565b600061407c602583613081565b915061408782614020565b604082019050919050565b600060208201905081810360008301526140ab8161406f565b9050919050565b7f4552433732313a207472616e7366657220746f20746865207a65726f2061646460008201527f7265737300000000000000000000000000000000000000000000000000000000602082015250565b600061410e602483613081565b9150614119826140b2565b604082019050919050565b6000602082019050818103600083015261413d81614101565b9050919050565b600061414f82613131565b915061415a83613131565b92508282101561416d5761416c613d87565b5b828203905092915050565b600061418382613131565b915061418e83613131565b9250827fffffffffffffffffffffffffffffffffffffffffffffffffffffffffffffffff038211156141c3576141c2613d87565b5b828201905092915050565b7f5061757361626c653a206e6f7420706175736564000000000000000000000000600082015250565b6000614204601483613081565b915061420f826141ce565b602082019050919050565b60006020820190508181036000830152614233816141f7565b9050919050565b7f4552433732313a20617070726f766520746f2063616c6c657200000000000000600082015250565b6000614270601983613081565b915061427b8261423a565b602082019050919050565b6000602082019050818103600083015261429f81614263565b9050919050565b7f4552433732313a207472616e7366657220746f206e6f6e20455243373231526560008201527f63656976657220696d706c656d656e7465720000000000000000000000000000602082015250565b6000614302603283613081565b915061430d826142a6565b604082019050919050565b60006020820190508181036000830152614331816142f5565b9050919050565b7f45524337323155524953746f726167653a2055524920717565727920666f722060008201527f6e6f6e6578697374656e7420746f6b656e000000000000000000000000000000602082015250565b6000614394603183613081565b915061439f82614338565b604082019050919050565b600060208201905081810360008301526143c381614387565b9050919050565b600081905092915050565b60006143e082613076565b6143ea81856143ca565b93506143fa818560208601613092565b80840191505092915050565b600061441282856143d5565b915061441e82846143d5565b91508190509392505050565b7f416363657373436f6e74726f6c3a206163636f756e7420000000000000000000600082015250565b60006144606017836143ca565b915061446b8261442a565b601782019050919050565b7f206973206d697373696e6720726f6c6520000000000000000000000000000000600082015250565b60006144ac6011836143ca565b91506144b782614476565b601182019050919050565b60006144cd82614453565b91506144d982856143d5565b91506144e48261449f565b91506144f082846143d5565b91508190509392505050565b600081519050919050565b600082825260208201905092915050565b6000614523826144fc565b61452d8185614507565b935061453d818560208601613092565b614546816130c5565b840191505092915050565b600060808201905061456660008301876131c6565b61457360208301866131c6565b614580604083018561325c565b81810360608301526145928184614518565b905095945050505050565b6000815190506145ac81612fe7565b92915050565b6000602082840312156145c8576145c7612fb1565b5b60006145d68482850161459d565b91505092915050565b7f4552433732314d657461646174613a2055524920717565727920666f72206e6f60008201527f6e6578697374656e7420746f6b656e0000000000000000000000000000000000602082015250565b600061463b602f83613081565b9150614646826145df565b604082019050919050565b6000602082019050818103600083015261466a8161462e565b9050919050565b600061467c82613131565b915061468783613131565b9250817fffffffffffffffffffffffffffffffffffffffffffffffffffffffffffffffff04831182151516156146c0576146bf613d87565b5b828202905092915050565b60006146d682613131565b9150600082036146e9576146e8613d87565b5b600182039050919050565b7f537472696e67733a20686578206c656e67746820696e73756666696369656e74600082015250565b600061472a602083613081565b9150614735826146f4565b602082019050919050565b600060208201905081810360008301526147598161471d565b9050919050565b7f4552433732313a206d696e7420746f20746865207a65726f2061646472657373600082015250565b6000614796602083613081565b91506147a182614760565b602082019050919050565b600060208201905081810360008301526147c581614789565b9050919050565b7f4552433732313a20746f6b656e20616c7265616479206d696e74656400000000600082015250565b6000614802601c83613081565b915061480d826147cc565b602082019050919050565b60006020820190508181036000830152614831816147f5565b9050919050565b7f4e487b7100000000000000000000000000000000000000000000000000000000600052601260045260246000fd5b600061487282613131565b915061487d83613131565b92508261488d5761488c614838565b5b828204905092915050565b60006148a382613131565b91506148ae83613131565b9250826148be576148bd614838565b5b828206905092915050565b7f4e487b7100000000000000000000000000000000000000000000000000000000600052603160045260246000fdfe68747470733a2f2f6170692e336b6d2e73616c652f6e66742f696e6f2f746b6d2fa264697066735822122008361f758d60fa75452ceb9a80320bbf5e30b6ac1d9ca8dfd34e4edaacb0374b64736f6c634300080e0033",
  "immutableReferences": {},
  "source": "// SPDX-License-Identifier: MIT\r\n\r\npragma solidity ^0.8.14;\r\n\r\nimport \"@openzeppelin/contracts/token/ERC721/ERC721.sol\";\r\nimport \"@openzeppelin/contracts/token/ERC721/extensions/ERC721Enumerable.sol\";\r\nimport \"@openzeppelin/contracts/token/ERC721/extensions/ERC721URIStorage.sol\";\r\nimport \"@openzeppelin/contracts/security/Pausable.sol\";\r\nimport \"@openzeppelin/contracts/access/AccessControl.sol\";\r\nimport \"@openzeppelin/contracts/access/Ownable.sol\";\r\n\r\ncontract TKMBox is ERC721, ERC721Enumerable, ERC721URIStorage, Pausable, AccessControl, Ownable {\r\n    bytes32 public constant MINTER_ROLE = keccak256(\"MINTER_ROLE\");\r\n\r\n    event BoxOpen(address indexed opener, uint256 indexed tokenId);\r\n\r\n    constructor(address _minter)\r\n        ERC721(\"Three Kingdom Multiverse Box\", \"3KMBox\")\r\n    {\r\n        _grantRole(DEFAULT_ADMIN_ROLE, msg.sender);\r\n        _grantRole(MINTER_ROLE, _minter);\r\n    }\r\n\r\n    function pause() public onlyRole(DEFAULT_ADMIN_ROLE) {\r\n        _pause();\r\n    }\r\n\r\n    function unpause() public onlyRole(DEFAULT_ADMIN_ROLE) {\r\n        _unpause();\r\n    }\r\n\r\n    function inoMint(address to, uint256 startId, uint256 endId) external onlyRole(MINTER_ROLE) {\r\n        for (uint256 k = startId; k <= endId; k++) {\r\n            _safeMint(to, k);\r\n        }\r\n    }\r\n\r\n    function collection(address owner)\r\n        public\r\n        view\r\n        returns (uint256[] memory)\r\n    {\r\n        uint256 boxAmount = ERC721.balanceOf(owner);\r\n        uint256[] memory boxes = new uint256[](boxAmount);\r\n        for (uint256 i = 0; i < boxAmount; i++) {\r\n            uint256 tokenId = ERC721Enumerable.tokenOfOwnerByIndex(owner, i);\r\n            boxes[i] = tokenId;\r\n        }\r\n        return boxes;\r\n    }\r\n\r\n    function boxOpen(uint256 tokenId) external whenNotPaused {\r\n        require(\r\n            msg.sender == ownerOf(tokenId),\r\n            \"TKMBox: only token owner can open\"\r\n        );\r\n        \r\n        emit BoxOpen(msg.sender, tokenId);\r\n\r\n        _burn(tokenId);\r\n    }\r\n\r\n    function _baseURI() internal pure override returns (string memory) {\r\n        return \"https://api.3km.sale/nft/ino/tkm/\";\r\n    }\r\n\r\n    function _beforeTokenTransfer(\r\n        address from,\r\n        address to,\r\n        uint256 tokenId\r\n    ) internal whenNotPaused override(ERC721, ERC721Enumerable) {\r\n        super._beforeTokenTransfer(from, to, tokenId);\r\n    }\r\n\r\n    function _burn(uint256 tokenId)\r\n        internal\r\n        override(ERC721, ERC721URIStorage)\r\n    {\r\n        super._burn(tokenId);\r\n    }\r\n\r\n    function tokenURI(uint256 tokenId)\r\n        public\r\n        view\r\n        override(ERC721, ERC721URIStorage)\r\n        returns (string memory)\r\n    {\r\n        return super.tokenURI(tokenId);\r\n    }\r\n\r\n    function supportsInterface(bytes4 interfaceId)\r\n        public\r\n        view\r\n        override(ERC721, ERC721Enumerable, AccessControl)\r\n        returns (bool)\r\n    {\r\n        return super.supportsInterface(interfaceId);\r\n    }\r\n}\r\n",
  "sourcePath": "C:\\Works\\1_Github\\solidity_tinyping\\contracts\\TKMBox.sol",
  "compiler": {
    "name": "solc",
    "version": "0.8.14+commit.80d49f37.Emscripten.clang"
  },
  "schemaVersion": "3.4.7",
  "updatedAt": "2023-01-09T01:46:58.185Z",
  "networkType": "ethereum",
  "devdoc": {
    "kind": "dev",
    "methods": {
      "approve(address,uint256)": {
        "details": "See {IERC721-approve}."
      },
      "balanceOf(address)": {
        "details": "See {IERC721-balanceOf}."
      },
      "getApproved(uint256)": {
        "details": "See {IERC721-getApproved}."
      },
      "getRoleAdmin(bytes32)": {
        "details": "Returns the admin role that controls `role`. See {grantRole} and {revokeRole}. To change a role's admin, use {_setRoleAdmin}."
      },
      "grantRole(bytes32,address)": {
        "details": "Grants `role` to `account`. If `account` had not been already granted `role`, emits a {RoleGranted} event. Requirements: - the caller must have ``role``'s admin role."
      },
      "hasRole(bytes32,address)": {
        "details": "Returns `true` if `account` has been granted `role`."
      },
      "isApprovedForAll(address,address)": {
        "details": "See {IERC721-isApprovedForAll}."
      },
      "name()": {
        "details": "See {IERC721Metadata-name}."
      },
      "owner()": {
        "details": "Returns the address of the current owner."
      },
      "ownerOf(uint256)": {
        "details": "See {IERC721-ownerOf}."
      },
      "paused()": {
        "details": "Returns true if the contract is paused, and false otherwise."
      },
      "renounceOwnership()": {
        "details": "Leaves the contract without owner. It will not be possible to call `onlyOwner` functions anymore. Can only be called by the current owner. NOTE: Renouncing ownership will leave the contract without an owner, thereby removing any functionality that is only available to the owner."
      },
      "renounceRole(bytes32,address)": {
        "details": "Revokes `role` from the calling account. Roles are often managed via {grantRole} and {revokeRole}: this function's purpose is to provide a mechanism for accounts to lose their privileges if they are compromised (such as when a trusted device is misplaced). If the calling account had been revoked `role`, emits a {RoleRevoked} event. Requirements: - the caller must be `account`."
      },
      "revokeRole(bytes32,address)": {
        "details": "Revokes `role` from `account`. If `account` had been granted `role`, emits a {RoleRevoked} event. Requirements: - the caller must have ``role``'s admin role."
      },
      "safeTransferFrom(address,address,uint256)": {
        "details": "See {IERC721-safeTransferFrom}."
      },
      "safeTransferFrom(address,address,uint256,bytes)": {
        "details": "See {IERC721-safeTransferFrom}."
      },
      "setApprovalForAll(address,bool)": {
        "details": "See {IERC721-setApprovalForAll}."
      },
      "symbol()": {
        "details": "See {IERC721Metadata-symbol}."
      },
      "tokenByIndex(uint256)": {
        "details": "See {IERC721Enumerable-tokenByIndex}."
      },
      "tokenOfOwnerByIndex(address,uint256)": {
        "details": "See {IERC721Enumerable-tokenOfOwnerByIndex}."
      },
      "totalSupply()": {
        "details": "See {IERC721Enumerable-totalSupply}."
      },
      "transferFrom(address,address,uint256)": {
        "details": "See {IERC721-transferFrom}."
      },
      "transferOwnership(address)": {
        "details": "Transfers ownership of the contract to a new account (`newOwner`). Can only be called by the current owner."
      }
    },
    "version": 1
  },
  "userdoc": {
    "kind": "user",
    "methods": {},
    "version": 1
  }
}