{
  "contractName": "TKMInoA",
  "abi": [
    {
      "inputs": [
        {
          "internalType": "address",
          "name": "_TKMBox",
          "type": "address"
        },
        {
          "internalType": "address",
          "name": "_Operator",
          "type": "address"
        }
      ],
      "stateMutability": "nonpayable",
      "type": "constructor"
    },
    {
      "anonymous": false,
      "inputs": [
        {
          "indexed": true,
          "internalType": "address",
          "name": "from",
          "type": "address"
        },
        {
          "indexed": true,
          "internalType": "address",
          "name": "to",
          "type": "address"
        }
      ],
      "name": "ChangeOwner",
      "type": "event"
    },
    {
      "anonymous": false,
      "inputs": [
        {
          "indexed": true,
          "internalType": "address",
          "name": "from",
          "type": "address"
        },
        {
          "indexed": true,
          "internalType": "uint8",
          "name": "order",
          "type": "uint8"
        },
        {
          "indexed": true,
          "internalType": "uint256",
          "name": "boxId",
          "type": "uint256"
        }
      ],
      "name": "Sale",
      "type": "event"
    },
    {
      "inputs": [],
      "name": "Operator",
      "outputs": [
        {
          "internalType": "address",
          "name": "",
          "type": "address"
        }
      ],
      "stateMutability": "view",
      "type": "function",
      "constant": true
    },
    {
      "inputs": [],
      "name": "TKMBox",
      "outputs": [
        {
          "internalType": "contract ERC721",
          "name": "",
          "type": "address"
        }
      ],
      "stateMutability": "view",
      "type": "function",
      "constant": true
    },
    {
      "inputs": [
        {
          "internalType": "uint8",
          "name": "",
          "type": "uint8"
        },
        {
          "internalType": "address",
          "name": "",
          "type": "address"
        }
      ],
      "name": "boxPerUser",
      "outputs": [
        {
          "internalType": "uint256",
          "name": "",
          "type": "uint256"
        }
      ],
      "stateMutability": "view",
      "type": "function",
      "constant": true
    },
    {
      "inputs": [
        {
          "internalType": "address payable",
          "name": "newOwner_",
          "type": "address"
        }
      ],
      "name": "changeOwner",
      "outputs": [],
      "stateMutability": "nonpayable",
      "type": "function"
    },
    {
      "inputs": [
        {
          "internalType": "uint8",
          "name": "",
          "type": "uint8"
        }
      ],
      "name": "currentNftIds",
      "outputs": [
        {
          "internalType": "uint256",
          "name": "",
          "type": "uint256"
        }
      ],
      "stateMutability": "view",
      "type": "function",
      "constant": true
    },
    {
      "inputs": [],
      "name": "owner",
      "outputs": [
        {
          "internalType": "address payable",
          "name": "",
          "type": "address"
        }
      ],
      "stateMutability": "view",
      "type": "function",
      "constant": true
    },
    {
      "inputs": [
        {
          "internalType": "uint8",
          "name": "",
          "type": "uint8"
        }
      ],
      "name": "saleOrders",
      "outputs": [
        {
          "internalType": "uint256",
          "name": "startBoxId",
          "type": "uint256"
        },
        {
          "internalType": "uint256",
          "name": "endBoxId",
          "type": "uint256"
        },
        {
          "internalType": "uint256",
          "name": "startTime",
          "type": "uint256"
        },
        {
          "internalType": "uint256",
          "name": "endTime",
          "type": "uint256"
        },
        {
          "internalType": "uint256",
          "name": "price",
          "type": "uint256"
        },
        {
          "internalType": "uint256",
          "name": "limitPerUser",
          "type": "uint256"
        }
      ],
      "stateMutability": "view",
      "type": "function",
      "constant": true
    },
    {
      "inputs": [
        {
          "internalType": "uint8",
          "name": "",
          "type": "uint8"
        },
        {
          "internalType": "address",
          "name": "",
          "type": "address"
        }
      ],
      "name": "whiteLists",
      "outputs": [
        {
          "internalType": "bool",
          "name": "",
          "type": "bool"
        }
      ],
      "stateMutability": "view",
      "type": "function",
      "constant": true
    },
    {
      "inputs": [
        {
          "internalType": "uint8",
          "name": "_order",
          "type": "uint8"
        },
        {
          "internalType": "uint256",
          "name": "_startBoxId",
          "type": "uint256"
        },
        {
          "internalType": "uint256",
          "name": "_endBoxId",
          "type": "uint256"
        },
        {
          "internalType": "uint256",
          "name": "_startTime",
          "type": "uint256"
        },
        {
          "internalType": "uint256",
          "name": "_endTime",
          "type": "uint256"
        },
        {
          "internalType": "uint256",
          "name": "_price",
          "type": "uint256"
        },
        {
          "internalType": "uint16",
          "name": "_limitPerUser",
          "type": "uint16"
        }
      ],
      "name": "setSaleOrder",
      "outputs": [],
      "stateMutability": "nonpayable",
      "type": "function"
    },
    {
      "inputs": [
        {
          "internalType": "uint8",
          "name": "_order",
          "type": "uint8"
        },
        {
          "internalType": "address[]",
          "name": "_addresses",
          "type": "address[]"
        }
      ],
      "name": "addWhiteList",
      "outputs": [],
      "stateMutability": "nonpayable",
      "type": "function"
    },
    {
      "inputs": [],
      "name": "sale1",
      "outputs": [],
      "stateMutability": "payable",
      "type": "function",
      "payable": true
    },
    {
      "inputs": [],
      "name": "sale2",
      "outputs": [],
      "stateMutability": "payable",
      "type": "function",
      "payable": true
    },
    {
      "inputs": [],
      "name": "sale3",
      "outputs": [],
      "stateMutability": "payable",
      "type": "function",
      "payable": true
    },
    {
      "inputs": [],
      "name": "sale4",
      "outputs": [],
      "stateMutability": "payable",
      "type": "function",
      "payable": true
    },
    {
      "inputs": [],
      "name": "sale5",
      "outputs": [],
      "stateMutability": "payable",
      "type": "function",
      "payable": true
    },
    {
      "inputs": [],
      "name": "sale6",
      "outputs": [],
      "stateMutability": "payable",
      "type": "function",
      "payable": true
    },
    {
      "inputs": [
        {
          "internalType": "address",
          "name": "to",
          "type": "address"
        }
      ],
      "name": "withdrawEth",
      "outputs": [],
      "stateMutability": "nonpayable",
      "type": "function"
    }
  ],
  "bytecode": "0x60806040523480156200001157600080fd5b5060405162004ab338038062004ab383398181016040528101906200003791906200016b565b336000806101000a81548173ffffffffffffffffffffffffffffffffffffffff021916908373ffffffffffffffffffffffffffffffffffffffff16021790555081600160006101000a81548173ffffffffffffffffffffffffffffffffffffffff021916908373ffffffffffffffffffffffffffffffffffffffff16021790555080600260006101000a81548173ffffffffffffffffffffffffffffffffffffffff021916908373ffffffffffffffffffffffffffffffffffffffff1602179055505050620001b2565b600080fd5b600073ffffffffffffffffffffffffffffffffffffffff82169050919050565b6000620001338262000106565b9050919050565b620001458162000126565b81146200015157600080fd5b50565b60008151905062000165816200013a565b92915050565b6000806040838503121562000185576200018462000101565b5b6000620001958582860162000154565b9250506020620001a88582860162000154565b9150509250929050565b6148f180620001c26000396000f3fe6080604052600436106100fe5760003560e01c8063626a02c611610095578063b80c6c8b11610064578063b80c6c8b146102ed578063bcc8661a146102f7578063cf44d9df14610320578063da5a358f1461032a578063e5429eb314610353576100fe565b8063626a02c6146102525780638baa025a1461028f5780638da5cb5b14610299578063a6f9dae1146102c4576100fe565b8063297da2a6116100d1578063297da2a61461019e5780632dd07fbc146101e0578063347958001461020b5780635491f53814610215576100fe565b80630b6f4cc7146101035780630d5854971461014057806325e160631461014a57806328c9ddb414610173575b600080fd5b34801561010f57600080fd5b5061012a6004803603810190610125919061291c565b61035d565b6040516101379190612977565b60405180910390f35b61014861038c565b005b34801561015657600080fd5b50610171600480360381019061016c9190612992565b6107dc565b005b34801561017f57600080fd5b50610188610929565b6040516101959190612a1e565b60405180910390f35b3480156101aa57600080fd5b506101c560048036038101906101c09190612a39565b61094f565b6040516101d796959493929190612a7f565b60405180910390f35b3480156101ec57600080fd5b506101f561098b565b6040516102029190612aef565b60405180910390f35b6102136109b1565b005b34801561022157600080fd5b5061023c60048036038101906102379190612a39565b610eab565b6040516102499190612b0a565b60405180910390f35b34801561025e57600080fd5b506102796004803603810190610274919061291c565b610ec3565b6040516102869190612b0a565b60405180910390f35b610297610ee8565b005b3480156102a557600080fd5b506102ae611338565b6040516102bb9190612b46565b60405180910390f35b3480156102d057600080fd5b506102eb60048036038101906102e69190612b8d565b61135c565b005b6102f56114f6565b005b34801561030357600080fd5b5061031e60048036038101906103199190612d13565b6119f0565b005b610328611c01565b005b34801561033657600080fd5b50610351600480360381019061034c9190612dd5565b6120fb565b005b61035b612377565b005b60046020528160005260406000206020528060005260406000206000915091509054906101000a900460ff1681565b60006004905042600360008360ff1660ff1681526020019081526020016000206002015411156103f1576040517f08c379a00000000000000000000000000000000000000000000000000000000081526004016103e890612efa565b60405180910390fd5b42600360008360ff1660ff168152602001908152602001600020600301541015610450576040517f08c379a000000000000000000000000000000000000000000000000000000000815260040161044790612f66565b60405180910390fd5b6000600360008360ff1660ff168152602001908152602001600020600401543461047a9190612fe4565b9050806000106104bf576040517f08c379a00000000000000000000000000000000000000000000000000000000081526004016104b690613087565b60405180910390fd5b80600660008460ff1660ff16815260200190815260200160002060003373ffffffffffffffffffffffffffffffffffffffff1673ffffffffffffffffffffffffffffffffffffffff168152602001908152602001600020600082825461052591906130a7565b92505081905550600360008360ff1660ff16815260200190815260200160002060050154600660008460ff1660ff16815260200190815260200160002060003373ffffffffffffffffffffffffffffffffffffffff1673ffffffffffffffffffffffffffffffffffffffff1681526020019081526020016000205411156105e1576040517f08c379a00000000000000000000000000000000000000000000000000000000081526004016105d89061316f565b60405180910390fd5b6000600560008460ff1660ff16815260200190815260200160002054905081600560008560ff1660ff168152602001908152602001600020600082825461062891906130a7565b92505081905550600360008460ff1660ff16815260200190815260200160002060010154600560008560ff1660ff1681526020019081526020016000205411156106a7576040517f08c379a000000000000000000000000000000000000000000000000000000000815260040161069e90613201565b60405180910390fd5b60005b828110156107d657600160009054906101000a900473ffffffffffffffffffffffffffffffffffffffff1673ffffffffffffffffffffffffffffffffffffffff166342842e0e600260009054906101000a900473ffffffffffffffffffffffffffffffffffffffff1633848661072091906130a7565b6040518463ffffffff1660e01b815260040161073e93929190613221565b600060405180830381600087803b15801561075857600080fd5b505af115801561076c573d6000803e3d6000fd5b50505050808261077c91906130a7565b8460ff163373ffffffffffffffffffffffffffffffffffffffff167f9abe6afca30e7673e8c923fe25a0263b60d2951081abd0160cd8451576f94ec960405160405180910390a480806107ce90613258565b9150506106aa565b50505050565b60008054906101000a900473ffffffffffffffffffffffffffffffffffffffff1673ffffffffffffffffffffffffffffffffffffffff163373ffffffffffffffffffffffffffffffffffffffff161461086a576040517f08c379a000000000000000000000000000000000000000000000000000000000815260040161086190613312565b60405180910390fd5b600073ffffffffffffffffffffffffffffffffffffffff168173ffffffffffffffffffffffffffffffffffffffff16036108d9576040517f08c379a00000000000000000000000000000000000000000000000000000000081526004016108d0906133a4565b60405180910390fd5b60008190508073ffffffffffffffffffffffffffffffffffffffff166108fc479081150290604051600060405180830381858888f19350505050158015610924573d6000803e3d6000fd5b505050565b600160009054906101000a900473ffffffffffffffffffffffffffffffffffffffff1681565b60036020528060005260406000206000915090508060000154908060010154908060020154908060030154908060040154908060050154905086565b600260009054906101000a900473ffffffffffffffffffffffffffffffffffffffff1681565b60006005905042600360008360ff1660ff168152602001908152602001600020600201541115610a16576040517f08c379a0000000000000000000000000000000000000000000000000000000008152600401610a0d90613436565b60405180910390fd5b42600360008360ff1660ff168152602001908152602001600020600301541015610a75576040517f08c379a0000000000000000000000000000000000000000000000000000000008152600401610a6c906134a2565b60405180910390fd5b60011515600460008360ff1660ff16815260200190815260200160002060003373ffffffffffffffffffffffffffffffffffffffff1673ffffffffffffffffffffffffffffffffffffffff16815260200190815260200160002060009054906101000a900460ff16151514610b1f576040517f08c379a0000000000000000000000000000000000000000000000000000000008152600401610b1690613534565b60405180910390fd5b6000600360008360ff1660ff1681526020019081526020016000206004015434610b499190612fe4565b905080600010610b8e576040517f08c379a0000000000000000000000000000000000000000000000000000000008152600401610b85906135c6565b60405180910390fd5b80600660008460ff1660ff16815260200190815260200160002060003373ffffffffffffffffffffffffffffffffffffffff1673ffffffffffffffffffffffffffffffffffffffff1681526020019081526020016000206000828254610bf491906130a7565b92505081905550600360008360ff1660ff16815260200190815260200160002060050154600660008460ff1660ff16815260200190815260200160002060003373ffffffffffffffffffffffffffffffffffffffff1673ffffffffffffffffffffffffffffffffffffffff168152602001908152602001600020541115610cb0576040517f08c379a0000000000000000000000000000000000000000000000000000000008152600401610ca790613658565b60405180910390fd5b6000600560008460ff1660ff16815260200190815260200160002054905081600560008560ff1660ff1681526020019081526020016000206000828254610cf791906130a7565b92505081905550600360008460ff1660ff16815260200190815260200160002060010154600560008560ff1660ff168152602001908152602001600020541115610d76576040517f08c379a0000000000000000000000000000000000000000000000000000000008152600401610d6d906136ea565b60405180910390fd5b60005b82811015610ea557600160009054906101000a900473ffffffffffffffffffffffffffffffffffffffff1673ffffffffffffffffffffffffffffffffffffffff166342842e0e600260009054906101000a900473ffffffffffffffffffffffffffffffffffffffff16338486610def91906130a7565b6040518463ffffffff1660e01b8152600401610e0d93929190613221565b600060405180830381600087803b158015610e2757600080fd5b505af1158015610e3b573d6000803e3d6000fd5b505050508082610e4b91906130a7565b8460ff163373ffffffffffffffffffffffffffffffffffffffff167f9abe6afca30e7673e8c923fe25a0263b60d2951081abd0160cd8451576f94ec960405160405180910390a48080610e9d90613258565b915050610d79565b50505050565b60056020528060005260406000206000915090505481565b6006602052816000526040600020602052806000526040600020600091509150505481565b60006003905042600360008360ff1660ff168152602001908152602001600020600201541115610f4d576040517f08c379a0000000000000000000000000000000000000000000000000000000008152600401610f449061377c565b60405180910390fd5b42600360008360ff1660ff168152602001908152602001600020600301541015610fac576040517f08c379a0000000000000000000000000000000000000000000000000000000008152600401610fa3906137e8565b60405180910390fd5b6000600360008360ff1660ff1681526020019081526020016000206004015434610fd69190612fe4565b90508060001061101b576040517f08c379a00000000000000000000000000000000000000000000000000000000081526004016110129061387a565b60405180910390fd5b80600660008460ff1660ff16815260200190815260200160002060003373ffffffffffffffffffffffffffffffffffffffff1673ffffffffffffffffffffffffffffffffffffffff168152602001908152602001600020600082825461108191906130a7565b92505081905550600360008360ff1660ff16815260200190815260200160002060050154600660008460ff1660ff16815260200190815260200160002060003373ffffffffffffffffffffffffffffffffffffffff1673ffffffffffffffffffffffffffffffffffffffff16815260200190815260200160002054111561113d576040517f08c379a00000000000000000000000000000000000000000000000000000000081526004016111349061390c565b60405180910390fd5b6000600560008460ff1660ff16815260200190815260200160002054905081600560008560ff1660ff168152602001908152602001600020600082825461118491906130a7565b92505081905550600360008460ff1660ff16815260200190815260200160002060010154600560008560ff1660ff168152602001908152602001600020541115611203576040517f08c379a00000000000000000000000000000000000000000000000000000000081526004016111fa9061399e565b60405180910390fd5b60005b8281101561133257600160009054906101000a900473ffffffffffffffffffffffffffffffffffffffff1673ffffffffffffffffffffffffffffffffffffffff166342842e0e600260009054906101000a900473ffffffffffffffffffffffffffffffffffffffff1633848661127c91906130a7565b6040518463ffffffff1660e01b815260040161129a93929190613221565b600060405180830381600087803b1580156112b457600080fd5b505af11580156112c8573d6000803e3d6000fd5b5050505080826112d891906130a7565b8460ff163373ffffffffffffffffffffffffffffffffffffffff167f9abe6afca30e7673e8c923fe25a0263b60d2951081abd0160cd8451576f94ec960405160405180910390a4808061132a90613258565b915050611206565b50505050565b60008054906101000a900473ffffffffffffffffffffffffffffffffffffffff1681565b60008054906101000a900473ffffffffffffffffffffffffffffffffffffffff1673ffffffffffffffffffffffffffffffffffffffff163373ffffffffffffffffffffffffffffffffffffffff16146113ea576040517f08c379a00000000000000000000000000000000000000000000000000000000081526004016113e190613312565b60405180910390fd5b600073ffffffffffffffffffffffffffffffffffffffff168173ffffffffffffffffffffffffffffffffffffffff1603611459576040517f08c379a000000000000000000000000000000000000000000000000000000000815260040161145090613a0a565b60405180910390fd5b806000806101000a81548173ffffffffffffffffffffffffffffffffffffffff021916908373ffffffffffffffffffffffffffffffffffffffff1602179055508073ffffffffffffffffffffffffffffffffffffffff163373ffffffffffffffffffffffffffffffffffffffff167f9aecf86140d81442289f667eb72e1202a8fbb3478a686659952e145e8531965660405160405180910390a350565b60006001905042600360008360ff1660ff16815260200190815260200160002060020154111561155b576040517f08c379a000000000000000000000000000000000000000000000000000000000815260040161155290613a9c565b60405180910390fd5b42600360008360ff1660ff1681526020019081526020016000206003015410156115ba576040517f08c379a00000000000000000000000000000000000000000000000000000000081526004016115b190613b08565b60405180910390fd5b60011515600460008360ff1660ff16815260200190815260200160002060003373ffffffffffffffffffffffffffffffffffffffff1673ffffffffffffffffffffffffffffffffffffffff16815260200190815260200160002060009054906101000a900460ff16151514611664576040517f08c379a000000000000000000000000000000000000000000000000000000000815260040161165b90613b9a565b60405180910390fd5b6000600360008360ff1660ff168152602001908152602001600020600401543461168e9190612fe4565b9050806000106116d3576040517f08c379a00000000000000000000000000000000000000000000000000000000081526004016116ca90613c2c565b60405180910390fd5b80600660008460ff1660ff16815260200190815260200160002060003373ffffffffffffffffffffffffffffffffffffffff1673ffffffffffffffffffffffffffffffffffffffff168152602001908152602001600020600082825461173991906130a7565b92505081905550600360008360ff1660ff16815260200190815260200160002060050154600660008460ff1660ff16815260200190815260200160002060003373ffffffffffffffffffffffffffffffffffffffff1673ffffffffffffffffffffffffffffffffffffffff1681526020019081526020016000205411156117f5576040517f08c379a00000000000000000000000000000000000000000000000000000000081526004016117ec90613cbe565b60405180910390fd5b6000600560008460ff1660ff16815260200190815260200160002054905081600560008560ff1660ff168152602001908152602001600020600082825461183c91906130a7565b92505081905550600360008460ff1660ff16815260200190815260200160002060010154600560008560ff1660ff1681526020019081526020016000205411156118bb576040517f08c379a00000000000000000000000000000000000000000000000000000000081526004016118b290613d50565b60405180910390fd5b60005b828110156119ea57600160009054906101000a900473ffffffffffffffffffffffffffffffffffffffff1673ffffffffffffffffffffffffffffffffffffffff166342842e0e600260009054906101000a900473ffffffffffffffffffffffffffffffffffffffff1633848661193491906130a7565b6040518463ffffffff1660e01b815260040161195293929190613221565b600060405180830381600087803b15801561196c57600080fd5b505af1158015611980573d6000803e3d6000fd5b50505050808261199091906130a7565b8460ff163373ffffffffffffffffffffffffffffffffffffffff167f9abe6afca30e7673e8c923fe25a0263b60d2951081abd0160cd8451576f94ec960405160405180910390a480806119e290613258565b9150506118be565b50505050565b60008054906101000a900473ffffffffffffffffffffffffffffffffffffffff1673ffffffffffffffffffffffffffffffffffffffff163373ffffffffffffffffffffffffffffffffffffffff1614611a7e576040517f08c379a0000000000000000000000000000000000000000000000000000000008152600401611a7590613312565b60405180910390fd5b60008260ff1611611ac4576040517f08c379a0000000000000000000000000000000000000000000000000000000008152600401611abb90613de2565b60405180910390fd5b60078260ff1610611b0a576040517f08c379a0000000000000000000000000000000000000000000000000000000008152600401611b0190613e74565b60405180910390fd5b8051600010611b4e576040517f08c379a0000000000000000000000000000000000000000000000000000000008152600401611b4590613f06565b60405180910390fd5b60008151905060005b81811015611bfb576001600460008660ff1660ff1681526020019081526020016000206000858481518110611b8f57611b8e613f26565b5b602002602001015173ffffffffffffffffffffffffffffffffffffffff1673ffffffffffffffffffffffffffffffffffffffff16815260200190815260200160002060006101000a81548160ff0219169083151502179055508080611bf390613258565b915050611b57565b50505050565b60006002905042600360008360ff1660ff168152602001908152602001600020600201541115611c66576040517f08c379a0000000000000000000000000000000000000000000000000000000008152600401611c5d90613fc7565b60405180910390fd5b42600360008360ff1660ff168152602001908152602001600020600301541015611cc5576040517f08c379a0000000000000000000000000000000000000000000000000000000008152600401611cbc90614033565b60405180910390fd5b60011515600460008360ff1660ff16815260200190815260200160002060003373ffffffffffffffffffffffffffffffffffffffff1673ffffffffffffffffffffffffffffffffffffffff16815260200190815260200160002060009054906101000a900460ff16151514611d6f576040517f08c379a0000000000000000000000000000000000000000000000000000000008152600401611d66906140c5565b60405180910390fd5b6000600360008360ff1660ff1681526020019081526020016000206004015434611d999190612fe4565b905080600010611dde576040517f08c379a0000000000000000000000000000000000000000000000000000000008152600401611dd590614157565b60405180910390fd5b80600660008460ff1660ff16815260200190815260200160002060003373ffffffffffffffffffffffffffffffffffffffff1673ffffffffffffffffffffffffffffffffffffffff1681526020019081526020016000206000828254611e4491906130a7565b92505081905550600360008360ff1660ff16815260200190815260200160002060050154600660008460ff1660ff16815260200190815260200160002060003373ffffffffffffffffffffffffffffffffffffffff1673ffffffffffffffffffffffffffffffffffffffff168152602001908152602001600020541115611f00576040517f08c379a0000000000000000000000000000000000000000000000000000000008152600401611ef7906141e9565b60405180910390fd5b6000600560008460ff1660ff16815260200190815260200160002054905081600560008560ff1660ff1681526020019081526020016000206000828254611f4791906130a7565b92505081905550600360008460ff1660ff16815260200190815260200160002060010154600560008560ff1660ff168152602001908152602001600020541115611fc6576040517f08c379a0000000000000000000000000000000000000000000000000000000008152600401611fbd9061427b565b60405180910390fd5b60005b828110156120f557600160009054906101000a900473ffffffffffffffffffffffffffffffffffffffff1673ffffffffffffffffffffffffffffffffffffffff166342842e0e600260009054906101000a900473ffffffffffffffffffffffffffffffffffffffff1633848661203f91906130a7565b6040518463ffffffff1660e01b815260040161205d93929190613221565b600060405180830381600087803b15801561207757600080fd5b505af115801561208b573d6000803e3d6000fd5b50505050808261209b91906130a7565b8460ff163373ffffffffffffffffffffffffffffffffffffffff167f9abe6afca30e7673e8c923fe25a0263b60d2951081abd0160cd8451576f94ec960405160405180910390a480806120ed90613258565b915050611fc9565b50505050565b60008054906101000a900473ffffffffffffffffffffffffffffffffffffffff1673ffffffffffffffffffffffffffffffffffffffff163373ffffffffffffffffffffffffffffffffffffffff1614612189576040517f08c379a000000000000000000000000000000000000000000000000000000000815260040161218090613312565b60405180910390fd5b60008760ff16116121cf576040517f08c379a00000000000000000000000000000000000000000000000000000000081526004016121c69061430d565b60405180910390fd5b60078760ff1610612215576040517f08c379a000000000000000000000000000000000000000000000000000000000815260040161220c9061439f565b60405180910390fd5b428311612257576040517f08c379a000000000000000000000000000000000000000000000000000000000815260040161224e90614431565b60405180910390fd5b838311612299576040517f08c379a0000000000000000000000000000000000000000000000000000000008152600401612290906144c3565b60405180910390fd5b600360008860ff1660ff168152602001908152602001600020600201546000146122f8576040517f08c379a00000000000000000000000000000000000000000000000000000000081526004016122ef90614555565b60405180910390fd5b6000600360008960ff1660ff16815260200190815260200160002090508681600001819055508581600101819055508481600201819055508381600301819055508281600401819055508161ffff16816005018190555086600560008a60ff1660ff168152602001908152602001600020819055505050505050505050565b60006006905042600360008360ff1660ff1681526020019081526020016000206002015411156123dc576040517f08c379a00000000000000000000000000000000000000000000000000000000081526004016123d3906145e7565b60405180910390fd5b42600360008360ff1660ff16815260200190815260200160002060030154101561243b576040517f08c379a000000000000000000000000000000000000000000000000000000000815260040161243290614653565b60405180910390fd5b60011515600460008360ff1660ff16815260200190815260200160002060003373ffffffffffffffffffffffffffffffffffffffff1673ffffffffffffffffffffffffffffffffffffffff16815260200190815260200160002060009054906101000a900460ff161515146124e5576040517f08c379a00000000000000000000000000000000000000000000000000000000081526004016124dc906146e5565b60405180910390fd5b6000600360008360ff1660ff168152602001908152602001600020600401543461250f9190612fe4565b905080600010612554576040517f08c379a000000000000000000000000000000000000000000000000000000000815260040161254b90614777565b60405180910390fd5b80600660008460ff1660ff16815260200190815260200160002060003373ffffffffffffffffffffffffffffffffffffffff1673ffffffffffffffffffffffffffffffffffffffff16815260200190815260200160002060008282546125ba91906130a7565b92505081905550600360008360ff1660ff16815260200190815260200160002060050154600660008460ff1660ff16815260200190815260200160002060003373ffffffffffffffffffffffffffffffffffffffff1673ffffffffffffffffffffffffffffffffffffffff168152602001908152602001600020541115612676576040517f08c379a000000000000000000000000000000000000000000000000000000000815260040161266d90614809565b60405180910390fd5b6000600560008460ff1660ff16815260200190815260200160002054905081600560008560ff1660ff16815260200190815260200160002060008282546126bd91906130a7565b92505081905550600360008460ff1660ff16815260200190815260200160002060010154600560008560ff1660ff16815260200190815260200160002054111561273c576040517f08c379a00000000000000000000000000000000000000000000000000000000081526004016127339061489b565b60405180910390fd5b60005b8281101561286b57600160009054906101000a900473ffffffffffffffffffffffffffffffffffffffff1673ffffffffffffffffffffffffffffffffffffffff166342842e0e600260009054906101000a900473ffffffffffffffffffffffffffffffffffffffff163384866127b591906130a7565b6040518463ffffffff1660e01b81526004016127d393929190613221565b600060405180830381600087803b1580156127ed57600080fd5b505af1158015612801573d6000803e3d6000fd5b50505050808261281191906130a7565b8460ff163373ffffffffffffffffffffffffffffffffffffffff167f9abe6afca30e7673e8c923fe25a0263b60d2951081abd0160cd8451576f94ec960405160405180910390a4808061286390613258565b91505061273f565b50505050565b6000604051905090565b600080fd5b600080fd5b600060ff82169050919050565b61289b81612885565b81146128a657600080fd5b50565b6000813590506128b881612892565b92915050565b600073ffffffffffffffffffffffffffffffffffffffff82169050919050565b60006128e9826128be565b9050919050565b6128f9816128de565b811461290457600080fd5b50565b600081359050612916816128f0565b92915050565b600080604083850312156129335761293261287b565b5b6000612941858286016128a9565b925050602061295285828601612907565b9150509250929050565b60008115159050919050565b6129718161295c565b82525050565b600060208201905061298c6000830184612968565b92915050565b6000602082840312156129a8576129a761287b565b5b60006129b684828501612907565b91505092915050565b6000819050919050565b60006129e46129df6129da846128be565b6129bf565b6128be565b9050919050565b60006129f6826129c9565b9050919050565b6000612a08826129eb565b9050919050565b612a18816129fd565b82525050565b6000602082019050612a336000830184612a0f565b92915050565b600060208284031215612a4f57612a4e61287b565b5b6000612a5d848285016128a9565b91505092915050565b6000819050919050565b612a7981612a66565b82525050565b600060c082019050612a946000830189612a70565b612aa16020830188612a70565b612aae6040830187612a70565b612abb6060830186612a70565b612ac86080830185612a70565b612ad560a0830184612a70565b979650505050505050565b612ae9816128de565b82525050565b6000602082019050612b046000830184612ae0565b92915050565b6000602082019050612b1f6000830184612a70565b92915050565b6000612b30826128be565b9050919050565b612b4081612b25565b82525050565b6000602082019050612b5b6000830184612b37565b92915050565b612b6a81612b25565b8114612b7557600080fd5b50565b600081359050612b8781612b61565b92915050565b600060208284031215612ba357612ba261287b565b5b6000612bb184828501612b78565b91505092915050565b600080fd5b6000601f19601f8301169050919050565b7f4e487b7100000000000000000000000000000000000000000000000000000000600052604160045260246000fd5b612c0882612bbf565b810181811067ffffffffffffffff82111715612c2757612c26612bd0565b5b80604052505050565b6000612c3a612871565b9050612c468282612bff565b919050565b600067ffffffffffffffff821115612c6657612c65612bd0565b5b602082029050602081019050919050565b600080fd5b6000612c8f612c8a84612c4b565b612c30565b90508083825260208201905060208402830185811115612cb257612cb1612c77565b5b835b81811015612cdb5780612cc78882612907565b845260208401935050602081019050612cb4565b5050509392505050565b600082601f830112612cfa57612cf9612bba565b5b8135612d0a848260208601612c7c565b91505092915050565b60008060408385031215612d2a57612d2961287b565b5b6000612d38858286016128a9565b925050602083013567ffffffffffffffff811115612d5957612d58612880565b5b612d6585828601612ce5565b9150509250929050565b612d7881612a66565b8114612d8357600080fd5b50565b600081359050612d9581612d6f565b92915050565b600061ffff82169050919050565b612db281612d9b565b8114612dbd57600080fd5b50565b600081359050612dcf81612da9565b92915050565b600080600080600080600060e0888a031215612df457612df361287b565b5b6000612e028a828b016128a9565b9750506020612e138a828b01612d86565b9650506040612e248a828b01612d86565b9550506060612e358a828b01612d86565b9450506080612e468a828b01612d86565b93505060a0612e578a828b01612d86565b92505060c0612e688a828b01612dc0565b91505092959891949750929550565b600082825260208201905092915050565b7f5b544b4d496e6f415d5b73616c65345d3a2073616c65206973206e6f7420737460008201527f6172746564000000000000000000000000000000000000000000000000000000602082015250565b6000612ee4602583612e77565b9150612eef82612e88565b604082019050919050565b60006020820190508181036000830152612f1381612ed7565b9050919050565b7f5b544b4d496e6f415d5b73616c65345d3a2073616c6520697320656e64656400600082015250565b6000612f50601f83612e77565b9150612f5b82612f1a565b602082019050919050565b60006020820190508181036000830152612f7f81612f43565b9050919050565b7f4e487b7100000000000000000000000000000000000000000000000000000000600052601260045260246000fd5b7f4e487b7100000000000000000000000000000000000000000000000000000000600052601160045260246000fd5b6000612fef82612a66565b9150612ffa83612a66565b92508261300a57613009612f86565b5b828204905092915050565b7f5b544b4d496e6f415d5b73616c65345d3a20626f7820616d6f756e74206d757360008201527f742062652067726561746572207468616e207a65726f00000000000000000000602082015250565b6000613071603683612e77565b915061307c82613015565b604082019050919050565b600060208201905081810360008301526130a081613064565b9050919050565b60006130b282612a66565b91506130bd83612a66565b9250827fffffffffffffffffffffffffffffffffffffffffffffffffffffffffffffffff038211156130f2576130f1612fb5565b5b828201905092915050565b7f5b544b4d496e6f415d5b73616c65345d3a206578636565646564206e756d626560008201527f72206f6620626f786573207075726368617361626c6500000000000000000000602082015250565b6000613159603683612e77565b9150613164826130fd565b604082019050919050565b600060208201905081810360008301526131888161314c565b9050919050565b7f5b544b4d496e6f415d5b73616c65345d3a204e6f7420656e6f75676820626f7860008201527f657320617265206c656674000000000000000000000000000000000000000000602082015250565b60006131eb602b83612e77565b91506131f68261318f565b604082019050919050565b6000602082019050818103600083015261321a816131de565b9050919050565b60006060820190506132366000830186612ae0565b6132436020830185612ae0565b6132506040830184612a70565b949350505050565b600061326382612a66565b91507fffffffffffffffffffffffffffffffffffffffffffffffffffffffffffffffff820361329557613294612fb5565b5b600182019050919050565b7f4f6e6c792074686520636f6e7472616374206f776e65722063616e2063616c6c60008201527f20746869732066756e6374696f6e000000000000000000000000000000000000602082015250565b60006132fc602e83612e77565b9150613307826132a0565b604082019050919050565b6000602082019050818103600083015261332b816132ef565b9050919050565b7f5b544b4d496e6f415d5b77697468647261774574685d3a207472616e7366657260008201527f20746f20746865207a65726f2061646472657373000000000000000000000000602082015250565b600061338e603483612e77565b915061339982613332565b604082019050919050565b600060208201905081810360008301526133bd81613381565b9050919050565b7f5b544b4d496e6f415d5b73616c65355d3a2073616c65206973206e6f7420737460008201527f6172746564000000000000000000000000000000000000000000000000000000602082015250565b6000613420602583612e77565b915061342b826133c4565b604082019050919050565b6000602082019050818103600083015261344f81613413565b9050919050565b7f5b544b4d496e6f415d5b73616c65355d3a2073616c6520697320656e64656400600082015250565b600061348c601f83612e77565b915061349782613456565b602082019050919050565b600060208201905081810360008301526134bb8161347f565b9050919050565b7f5b544b4d496e6f415d5b73616c65355d3a206e6f7420696e2077686974656c6960008201527f7374000000000000000000000000000000000000000000000000000000000000602082015250565b600061351e602283612e77565b9150613529826134c2565b604082019050919050565b6000602082019050818103600083015261354d81613511565b9050919050565b7f5b544b4d496e6f415d5b73616c65355d3a20626f7820616d6f756e74206d757360008201527f742062652067726561746572207468616e207a65726f00000000000000000000602082015250565b60006135b0603683612e77565b91506135bb82613554565b604082019050919050565b600060208201905081810360008301526135df816135a3565b9050919050565b7f5b544b4d496e6f415d5b73616c65355d3a206578636565646564206e756d626560008201527f72206f6620626f786573207075726368617361626c6500000000000000000000602082015250565b6000613642603683612e77565b915061364d826135e6565b604082019050919050565b6000602082019050818103600083015261367181613635565b9050919050565b7f5b544b4d496e6f415d5b73616c65355d3a204e6f7420656e6f75676820626f7860008201527f657320617265206c656674000000000000000000000000000000000000000000602082015250565b60006136d4602b83612e77565b91506136df82613678565b604082019050919050565b60006020820190508181036000830152613703816136c7565b9050919050565b7f5b544b4d496e6f415d5b73616c65335d3a2073616c65206973206e6f7420737460008201527f6172746564000000000000000000000000000000000000000000000000000000602082015250565b6000613766602583612e77565b91506137718261370a565b604082019050919050565b6000602082019050818103600083015261379581613759565b9050919050565b7f5b544b4d496e6f415d5b73616c65335d3a2073616c6520697320656e64656400600082015250565b60006137d2601f83612e77565b91506137dd8261379c565b602082019050919050565b60006020820190508181036000830152613801816137c5565b9050919050565b7f5b544b4d496e6f415d5b73616c65335d3a20626f7820616d6f756e74206d757360008201527f742062652067726561746572207468616e207a65726f00000000000000000000602082015250565b6000613864603683612e77565b915061386f82613808565b604082019050919050565b6000602082019050818103600083015261389381613857565b9050919050565b7f5b544b4d496e6f415d5b73616c65335d3a206578636565646564206e756d626560008201527f72206f6620626f786573207075726368617361626c6500000000000000000000602082015250565b60006138f6603683612e77565b91506139018261389a565b604082019050919050565b60006020820190508181036000830152613925816138e9565b9050919050565b7f5b544b4d496e6f415d5b73616c65335d3a204e6f7420656e6f75676820626f7860008201527f657320617265206c656674000000000000000000000000000000000000000000602082015250565b6000613988602b83612e77565b91506139938261392c565b604082019050919050565b600060208201905081810360008301526139b78161397b565b9050919050565b7f6e6f74207a65726f206164647265737320666f72206e6577206f776e65720000600082015250565b60006139f4601e83612e77565b91506139ff826139be565b602082019050919050565b60006020820190508181036000830152613a23816139e7565b9050919050565b7f5b544b4d496e6f415d5b73616c65315d3a2073616c65206973206e6f7420737460008201527f6172746564000000000000000000000000000000000000000000000000000000602082015250565b6000613a86602583612e77565b9150613a9182613a2a565b604082019050919050565b60006020820190508181036000830152613ab581613a79565b9050919050565b7f5b544b4d496e6f415d5b73616c65315d3a2073616c6520697320656e64656400600082015250565b6000613af2601f83612e77565b9150613afd82613abc565b602082019050919050565b60006020820190508181036000830152613b2181613ae5565b9050919050565b7f5b544b4d496e6f415d5b73616c65315d3a206e6f7420696e2077686974656c6960008201527f7374000000000000000000000000000000000000000000000000000000000000602082015250565b6000613b84602283612e77565b9150613b8f82613b28565b604082019050919050565b60006020820190508181036000830152613bb381613b77565b9050919050565b7f5b544b4d496e6f415d5b73616c65315d3a20626f7820616d6f756e74206d757360008201527f742062652067726561746572207468616e207a65726f00000000000000000000602082015250565b6000613c16603683612e77565b9150613c2182613bba565b604082019050919050565b60006020820190508181036000830152613c4581613c09565b9050919050565b7f5b544b4d496e6f415d5b73616c65315d3a206578636565646564206e756d626560008201527f72206f6620626f786573207075726368617361626c6500000000000000000000602082015250565b6000613ca8603683612e77565b9150613cb382613c4c565b604082019050919050565b60006020820190508181036000830152613cd781613c9b565b9050919050565b7f5b544b4d496e6f415d5b73616c65315d3a204e6f7420656e6f75676820626f7860008201527f657320617265206c656674000000000000000000000000000000000000000000602082015250565b6000613d3a602b83612e77565b9150613d4582613cde565b604082019050919050565b60006020820190508181036000830152613d6981613d2d565b9050919050565b7f5b544b4d496e6f415d5b61646457686974654c6973745d3a206f72646572206d60008201527f7573742062652067726561746572207468616e207a65726f0000000000000000602082015250565b6000613dcc603883612e77565b9150613dd782613d70565b604082019050919050565b60006020820190508181036000830152613dfb81613dbf565b9050919050565b7f5b544b4d496e6f415d5b61646457686974654c6973745d3a206f72646572206d60008201527f757374206265206c657373207468616e20736576656e00000000000000000000602082015250565b6000613e5e603683612e77565b9150613e6982613e02565b604082019050919050565b60006020820190508181036000830152613e8d81613e51565b9050919050565b7f5b544b4d496e6f415d5b61646457686974654c6973745d3a206164647265737360008201527f206d7573742062652067726561746572207468616e207a65726f000000000000602082015250565b6000613ef0603a83612e77565b9150613efb82613e94565b604082019050919050565b60006020820190508181036000830152613f1f81613ee3565b9050919050565b7f4e487b7100000000000000000000000000000000000000000000000000000000600052603260045260246000fd5b7f5b544b4d496e6f415d5b73616c65325d3a2073616c65206973206e6f7420737460008201527f6172746564000000000000000000000000000000000000000000000000000000602082015250565b6000613fb1602583612e77565b9150613fbc82613f55565b604082019050919050565b60006020820190508181036000830152613fe081613fa4565b9050919050565b7f5b544b4d496e6f415d5b73616c65325d3a2073616c6520697320656e64656400600082015250565b600061401d601f83612e77565b915061402882613fe7565b602082019050919050565b6000602082019050818103600083015261404c81614010565b9050919050565b7f5b544b4d496e6f415d5b73616c65325d3a206e6f7420696e2077686974656c6960008201527f7374000000000000000000000000000000000000000000000000000000000000602082015250565b60006140af602283612e77565b91506140ba82614053565b604082019050919050565b600060208201905081810360008301526140de816140a2565b9050919050565b7f5b544b4d496e6f415d5b73616c65325d3a20626f7820616d6f756e74206d757360008201527f742062652067726561746572207468616e207a65726f00000000000000000000602082015250565b6000614141603683612e77565b915061414c826140e5565b604082019050919050565b6000602082019050818103600083015261417081614134565b9050919050565b7f5b544b4d496e6f415d5b73616c65325d3a206578636565646564206e756d626560008201527f72206f6620626f786573207075726368617361626c6500000000000000000000602082015250565b60006141d3603683612e77565b91506141de82614177565b604082019050919050565b60006020820190508181036000830152614202816141c6565b9050919050565b7f5b544b4d496e6f415d5b73616c65325d3a204e6f7420656e6f75676820626f7860008201527f657320617265206c656674000000000000000000000000000000000000000000602082015250565b6000614265602b83612e77565b915061427082614209565b604082019050919050565b6000602082019050818103600083015261429481614258565b9050919050565b7f5b544b4d496e6f415d5b73657453616c654f726465725d3a206f72646572206d60008201527f7573742062652067726561746572207468616e207a65726f0000000000000000602082015250565b60006142f7603883612e77565b91506143028261429b565b604082019050919050565b60006020820190508181036000830152614326816142ea565b9050919050565b7f5b544b4d496e6f415d5b73657453616c654f726465725d3a206f72646572206d60008201527f757374206265206c657373207468616e20736576656e00000000000000000000602082015250565b6000614389603683612e77565b91506143948261432d565b604082019050919050565b600060208201905081810360008301526143b88161437c565b9050919050565b7f5b544b4d496e6f415d5b73657453616c654f726465725d3a205f656e6454696d60008201527f6520697320756e646572206e6f77000000000000000000000000000000000000602082015250565b600061441b602e83612e77565b9150614426826143bf565b604082019050919050565b6000602082019050818103600083015261444a8161440e565b9050919050565b7f5b544b4d496e6f415d5b73657453616c654f726465725d3a205f656e6454696d60008201527f6520697320756e646572205f737461727454696d650000000000000000000000602082015250565b60006144ad603583612e77565b91506144b882614451565b604082019050919050565b600060208201905081810360008301526144dc816144a0565b9050919050565b7f5b544b4d496e6f415d5b73657453616c654f726465725d3a2074686973206f7260008201527f64657220616c7265616479207365740000000000000000000000000000000000602082015250565b600061453f602f83612e77565b915061454a826144e3565b604082019050919050565b6000602082019050818103600083015261456e81614532565b9050919050565b7f5b544b4d496e6f415d5b73616c65365d3a2073616c65206973206e6f7420737460008201527f6172746564000000000000000000000000000000000000000000000000000000602082015250565b60006145d1602583612e77565b91506145dc82614575565b604082019050919050565b60006020820190508181036000830152614600816145c4565b9050919050565b7f5b544b4d496e6f415d5b73616c65365d3a2073616c6520697320656e64656400600082015250565b600061463d601f83612e77565b915061464882614607565b602082019050919050565b6000602082019050818103600083015261466c81614630565b9050919050565b7f5b544b4d496e6f415d5b73616c65365d3a206e6f7420696e2077686974656c6960008201527f7374000000000000000000000000000000000000000000000000000000000000602082015250565b60006146cf602283612e77565b91506146da82614673565b604082019050919050565b600060208201905081810360008301526146fe816146c2565b9050919050565b7f5b544b4d496e6f415d5b73616c65365d3a20626f7820616d6f756e74206d757360008201527f742062652067726561746572207468616e207a65726f00000000000000000000602082015250565b6000614761603683612e77565b915061476c82614705565b604082019050919050565b6000602082019050818103600083015261479081614754565b9050919050565b7f5b544b4d496e6f415d5b73616c65365d3a206578636565646564206e756d626560008201527f72206f6620626f786573207075726368617361626c6500000000000000000000602082015250565b60006147f3603683612e77565b91506147fe82614797565b604082019050919050565b60006020820190508181036000830152614822816147e6565b9050919050565b7f5b544b4d496e6f415d5b73616c65365d3a204e6f7420656e6f75676820626f7860008201527f657320617265206c656674000000000000000000000000000000000000000000602082015250565b6000614885602b83612e77565b915061489082614829565b604082019050919050565b600060208201905081810360008301526148b481614878565b905091905056fea264697066735822122011a843acf188a54cf142000e21bdef819e28ad79f90a4410de2f4f87b25fa7b064736f6c634300080e0033",
  "immutableReferences": {},
  "source": "// SPDX-License-Identifier: MIT\r\npragma solidity ^0.8.14;\r\n\r\nimport \"@openzeppelin/contracts/token/ERC721/ERC721.sol\";\r\nimport \"./Owner.sol\";\r\n\r\ncontract TKMInoA is Owner {\r\n    ERC721 public TKMBox;\r\n    address public Operator; //    \r\n\r\n    //  , NFT ID\r\n    event Sale(address indexed from, uint8 indexed order, uint256 indexed boxId);\r\n\r\n    /////////////////////////////////////////////////////\r\n    // Box Sale\r\n    // box sale \r\n    struct saleOrder {\r\n        uint256 startBoxId; //   \r\n        uint256 endBoxId; //   \r\n        uint256 startTime; //  \r\n        uint256 endTime; //  \r\n        uint256 price; //  (klay)\r\n        uint256 limitPerUser; //        \r\n    }\r\n    // 1~6 => Box Sale \r\n    mapping(uint8 => saleOrder) public saleOrders;\r\n    \r\n    //  \r\n    mapping(uint8 => mapping(address => bool)) public whiteLists;\r\n\r\n    //   NFT ID\r\n    mapping(uint8 => uint256) public currentNftIds;\r\n    \r\n    // -   \r\n    mapping(uint8 => mapping(address => uint256)) public boxPerUser;\r\n\r\n    constructor(address _TKMBox, address _Operator) {\r\n        TKMBox = ERC721(payable(_TKMBox));\r\n        Operator = _Operator;\r\n    }\r\n\r\n    // sale  \r\n    function setSaleOrder(\r\n        uint8 _order,\r\n        uint256 _startBoxId,\r\n        uint256 _endBoxId,\r\n        uint256 _startTime,\r\n        uint256 _endTime,\r\n        uint256 _price,\r\n        uint16 _limitPerUser\r\n    ) public onlyOwner {\r\n        require(_order > 0, \"[TKMInoA][setSaleOrder]: order must be greater than zero\");\r\n        require(_order < 7, \"[TKMInoA][setSaleOrder]: order must be less than seven\");\r\n\r\n        require(_endTime > block.timestamp, \"[TKMInoA][setSaleOrder]: _endTime is under now\");\r\n        require(_endTime > _startTime, \"[TKMInoA][setSaleOrder]: _endTime is under _startTime\");\r\n        \r\n        require(0 == saleOrders[_order].startTime, \"[TKMInoA][setSaleOrder]: this order already set\");\r\n\r\n        saleOrder storage newOrder = saleOrders[_order];\r\n        newOrder.startBoxId = _startBoxId;\r\n        newOrder.endBoxId = _endBoxId;\r\n        newOrder.startTime = _startTime;\r\n        newOrder.endTime = _endTime;\r\n        newOrder.price = _price;\r\n        newOrder.limitPerUser = _limitPerUser;\r\n\r\n        currentNftIds[_order] = _startBoxId;\r\n    }\r\n\r\n    //  whitelist \r\n    function addWhiteList(uint8 _order, address[] memory _addresses) public onlyOwner {\r\n        require(_order > 0, \"[TKMInoA][addWhiteList]: order must be greater than zero\");\r\n        require(_order < 7, \"[TKMInoA][addWhiteList]: order must be less than seven\");\r\n        \r\n        require(0 < _addresses.length, \"[TKMInoA][addWhiteList]: address must be greater than zero\");\r\n\r\n        uint256 length = _addresses.length;\r\n        for (uint256 i = 0; i < length; i++) {\r\n            whiteLists[_order][_addresses[i]] = true;\r\n        }\r\n    }\r\n\r\n    // Whitelist 1st minting\r\n    function sale1() public payable {\r\n        uint8 order = 1;\r\n        //  \r\n        require(saleOrders[order].startTime <= block.timestamp, \"[TKMInoA][sale1]: sale is not started\");\r\n        require(saleOrders[order].endTime >= block.timestamp, \"[TKMInoA][sale1]: sale is ended\");\r\n\r\n        // whitelist  \r\n        require(whiteLists[order][msg.sender] == true, \"[TKMInoA][sale1]: not in whitelist\");\r\n\r\n        // msg.value   \r\n        uint256 boxAmount = msg.value / saleOrders[order].price;\r\n        require(0 < boxAmount, \"[TKMInoA][sale1]: box amount must be greater than zero\");\r\n        \r\n        //     \r\n        boxPerUser[order][msg.sender] += boxAmount;\r\n        require(boxPerUser[order][msg.sender] <= saleOrders[order].limitPerUser, \"[TKMInoA][sale1]: exceeded number of boxes purchasable\");\r\n\r\n        //     \r\n        uint256 currentNftId = currentNftIds[order];\r\n        currentNftIds[order] += boxAmount;\r\n        require(currentNftIds[order] <= saleOrders[order].endBoxId, \"[TKMInoA][sale1]: Not enough boxes are left\");\r\n        \r\n        for (uint256 i = 0; i < boxAmount; i++) {\r\n            TKMBox.safeTransferFrom(Operator, msg.sender, currentNftId + i);\r\n            emit Sale(msg.sender, order, currentNftId + i);\r\n        }\r\n    }\r\n\r\n    // Whitelist 2st minting\r\n    function sale2() public payable {\r\n        uint8 order = 2;\r\n        //  \r\n        require(saleOrders[order].startTime <= block.timestamp, \"[TKMInoA][sale2]: sale is not started\");\r\n        require(saleOrders[order].endTime >= block.timestamp, \"[TKMInoA][sale2]: sale is ended\");\r\n\r\n        // whitelist  \r\n        require(whiteLists[order][msg.sender] == true, \"[TKMInoA][sale2]: not in whitelist\");\r\n\r\n        // msg.value   \r\n        uint256 boxAmount = msg.value / saleOrders[order].price;\r\n        require(0 < boxAmount, \"[TKMInoA][sale2]: box amount must be greater than zero\");\r\n        \r\n        //     \r\n        boxPerUser[order][msg.sender] += boxAmount;\r\n        require(boxPerUser[order][msg.sender] <= saleOrders[order].limitPerUser, \"[TKMInoA][sale2]: exceeded number of boxes purchasable\");\r\n\r\n        //     \r\n        uint256 currentNftId = currentNftIds[order];\r\n        currentNftIds[order] += boxAmount;\r\n        require(currentNftIds[order] <= saleOrders[order].endBoxId, \"[TKMInoA][sale2]: Not enough boxes are left\");\r\n        \r\n        for (uint256 i = 0; i < boxAmount; i++) {\r\n            TKMBox.safeTransferFrom(Operator, msg.sender, currentNftId + i);\r\n            emit Sale(msg.sender, order, currentNftId + i);\r\n        }\r\n    }\r\n\r\n    // Public 1st minting\r\n    function sale3() public payable {\r\n        uint8 order = 3;\r\n        //  \r\n        require(saleOrders[order].startTime <= block.timestamp, \"[TKMInoA][sale3]: sale is not started\");\r\n        require(saleOrders[order].endTime >= block.timestamp, \"[TKMInoA][sale3]: sale is ended\");\r\n\r\n        // msg.value   \r\n        uint256 boxAmount = msg.value / saleOrders[order].price;\r\n        require(0 < boxAmount, \"[TKMInoA][sale3]: box amount must be greater than zero\");\r\n        \r\n        //     \r\n        boxPerUser[order][msg.sender] += boxAmount;\r\n        require(boxPerUser[order][msg.sender] <= saleOrders[order].limitPerUser, \"[TKMInoA][sale3]: exceeded number of boxes purchasable\");\r\n\r\n        //     \r\n        uint256 currentNftId = currentNftIds[order];\r\n        currentNftIds[order] += boxAmount;\r\n        require(currentNftIds[order] <= saleOrders[order].endBoxId, \"[TKMInoA][sale3]: Not enough boxes are left\");\r\n        \r\n        for (uint256 i = 0; i < boxAmount; i++) {\r\n            TKMBox.safeTransferFrom(Operator, msg.sender, currentNftId + i);\r\n            emit Sale(msg.sender, order, currentNftId + i);\r\n        }\r\n    }\r\n\r\n    // Public 2st minting\r\n    function sale4() public payable {\r\n        uint8 order = 4;\r\n        //  \r\n        require(saleOrders[order].startTime <= block.timestamp, \"[TKMInoA][sale4]: sale is not started\");\r\n        require(saleOrders[order].endTime >= block.timestamp, \"[TKMInoA][sale4]: sale is ended\");\r\n\r\n        // msg.value   \r\n        uint256 boxAmount = msg.value / saleOrders[order].price;\r\n        require(0 < boxAmount, \"[TKMInoA][sale4]: box amount must be greater than zero\");\r\n        \r\n        //     \r\n        boxPerUser[order][msg.sender] += boxAmount;\r\n        require(boxPerUser[order][msg.sender] <= saleOrders[order].limitPerUser, \"[TKMInoA][sale4]: exceeded number of boxes purchasable\");\r\n\r\n        //     \r\n        uint256 currentNftId = currentNftIds[order];\r\n        currentNftIds[order] += boxAmount;\r\n        require(currentNftIds[order] <= saleOrders[order].endBoxId, \"[TKMInoA][sale4]: Not enough boxes are left\");\r\n        \r\n        for (uint256 i = 0; i < boxAmount; i++) {\r\n            TKMBox.safeTransferFrom(Operator, msg.sender, currentNftId + i);\r\n            emit Sale(msg.sender, order, currentNftId + i);\r\n        }\r\n    }\r\n\r\n    // OG minting\r\n    function sale5() public payable {\r\n        uint8 order = 5;\r\n        //  \r\n        require(saleOrders[order].startTime <= block.timestamp, \"[TKMInoA][sale5]: sale is not started\");\r\n        require(saleOrders[order].endTime >= block.timestamp, \"[TKMInoA][sale5]: sale is ended\");\r\n\r\n        // whitelist  \r\n        require(whiteLists[order][msg.sender] == true, \"[TKMInoA][sale5]: not in whitelist\");\r\n\r\n        // msg.value   \r\n        uint256 boxAmount = msg.value / saleOrders[order].price;\r\n        require(0 < boxAmount, \"[TKMInoA][sale5]: box amount must be greater than zero\");\r\n        \r\n        //     \r\n        boxPerUser[order][msg.sender] += boxAmount;\r\n        require(boxPerUser[order][msg.sender] <= saleOrders[order].limitPerUser, \"[TKMInoA][sale5]: exceeded number of boxes purchasable\");\r\n\r\n        //     \r\n        uint256 currentNftId = currentNftIds[order];\r\n        currentNftIds[order] += boxAmount;\r\n        require(currentNftIds[order] <= saleOrders[order].endBoxId, \"[TKMInoA][sale5]: Not enough boxes are left\");\r\n        \r\n        for (uint256 i = 0; i < boxAmount; i++) {\r\n            TKMBox.safeTransferFrom(Operator, msg.sender, currentNftId + i);\r\n            emit Sale(msg.sender, order, currentNftId + i);\r\n        }\r\n    }\r\n\r\n    // Guild minting\r\n    function sale6() public payable {\r\n        uint8 order = 6;\r\n        //  \r\n        require(saleOrders[order].startTime <= block.timestamp, \"[TKMInoA][sale6]: sale is not started\");\r\n        require(saleOrders[order].endTime >= block.timestamp, \"[TKMInoA][sale6]: sale is ended\");\r\n\r\n        // whitelist  \r\n        require(whiteLists[order][msg.sender] == true, \"[TKMInoA][sale6]: not in whitelist\");\r\n\r\n        // msg.value   \r\n        uint256 boxAmount = msg.value / saleOrders[order].price;\r\n        require(0 < boxAmount, \"[TKMInoA][sale6]: box amount must be greater than zero\");\r\n        \r\n        //     \r\n        boxPerUser[order][msg.sender] += boxAmount;\r\n        require(boxPerUser[order][msg.sender] <= saleOrders[order].limitPerUser, \"[TKMInoA][sale6]: exceeded number of boxes purchasable\");\r\n\r\n        //     \r\n        uint256 currentNftId = currentNftIds[order];\r\n        currentNftIds[order] += boxAmount;\r\n        require(currentNftIds[order] <= saleOrders[order].endBoxId, \"[TKMInoA][sale6]: Not enough boxes are left\");\r\n        \r\n        for (uint256 i = 0; i < boxAmount; i++) {\r\n            TKMBox.safeTransferFrom(Operator, msg.sender, currentNftId + i);\r\n            emit Sale(msg.sender, order, currentNftId + i);\r\n        }\r\n    }\r\n\r\n    // ico        \r\n    function withdrawEth(address to) public onlyOwner {\r\n        require(to != address(0), \"[TKMInoA][withdrawEth]: transfer to the zero address\");\r\n        //       \r\n        address payable receiver = payable(to);\r\n        receiver.transfer(address(this).balance);\r\n    }\r\n}\r\n",
  "sourcePath": "C:\\Works\\1_Github\\solidity_tinyping\\contracts\\TKMInoA.sol",
  "compiler": {
    "name": "solc",
    "version": "0.8.14+commit.80d49f37.Emscripten.clang"
  },
  "schemaVersion": "3.4.7",
  "updatedAt": "2022-09-14T03:31:44.930Z",
  "networkType": "ethereum",
  "devdoc": {
    "kind": "dev",
    "methods": {},
    "version": 1
  },
  "userdoc": {
    "kind": "user",
    "methods": {},
    "version": 1
  }
}