{
  "contractName": "RankeIco",
  "abi": [
    {
      "inputs": [
        {
          "internalType": "address",
          "name": "_RankeToken",
          "type": "address"
        },
        {
          "internalType": "address",
          "name": "_Operator",
          "type": "address"
        }
      ],
      "stateMutability": "nonpayable",
      "type": "constructor"
    },
    {
      "anonymous": false,
      "inputs": [
        {
          "indexed": true,
          "internalType": "address",
          "name": "from",
          "type": "address"
        },
        {
          "indexed": true,
          "internalType": "address",
          "name": "to",
          "type": "address"
        }
      ],
      "name": "ChangeOwner",
      "type": "event"
    },
    {
      "inputs": [],
      "name": "Operator",
      "outputs": [
        {
          "internalType": "address",
          "name": "",
          "type": "address"
        }
      ],
      "stateMutability": "view",
      "type": "function"
    },
    {
      "inputs": [],
      "name": "RankeToken",
      "outputs": [
        {
          "internalType": "contract ERC20",
          "name": "",
          "type": "address"
        }
      ],
      "stateMutability": "view",
      "type": "function"
    },
    {
      "inputs": [
        {
          "internalType": "address payable",
          "name": "_newOwner",
          "type": "address"
        }
      ],
      "name": "changeOwner",
      "outputs": [],
      "stateMutability": "nonpayable",
      "type": "function"
    },
    {
      "inputs": [],
      "name": "owner",
      "outputs": [
        {
          "internalType": "address payable",
          "name": "",
          "type": "address"
        }
      ],
      "stateMutability": "view",
      "type": "function"
    },
    {
      "inputs": [],
      "name": "ico",
      "outputs": [],
      "stateMutability": "payable",
      "type": "function"
    },
    {
      "inputs": [
        {
          "internalType": "address",
          "name": "to",
          "type": "address"
        }
      ],
      "name": "withdrawEth",
      "outputs": [],
      "stateMutability": "nonpayable",
      "type": "function"
    }
  ],
  "bytecode": "0x608060405234801561001057600080fd5b50604051610a67380380610a678339818101604052810190610032919061015e565b336000806101000a81548173ffffffffffffffffffffffffffffffffffffffff021916908373ffffffffffffffffffffffffffffffffffffffff16021790555081600160006101000a81548173ffffffffffffffffffffffffffffffffffffffff021916908373ffffffffffffffffffffffffffffffffffffffff16021790555080600260006101000a81548173ffffffffffffffffffffffffffffffffffffffff021916908373ffffffffffffffffffffffffffffffffffffffff160217905550505061019e565b600080fd5b600073ffffffffffffffffffffffffffffffffffffffff82169050919050565b600061012b82610100565b9050919050565b61013b81610120565b811461014657600080fd5b50565b60008151905061015881610132565b92915050565b60008060408385031215610175576101746100fb565b5b600061018385828601610149565b925050602061019485828601610149565b9150509250929050565b6108ba806101ad6000396000f3fe6080604052600436106100555760003560e01c806325e160631461005a5780632dd07fbc146100835780635d452201146100ae5780636a088d7f146100b85780638da5cb5b146100e3578063a6f9dae11461010e575b600080fd5b34801561006657600080fd5b50610081600480360381019061007c919061052e565b610137565b005b34801561008f57600080fd5b50610098610215565b6040516100a5919061056a565b60405180910390f35b6100b661023b565b005b3480156100c457600080fd5b506100cd610356565b6040516100da91906105e4565b60405180910390f35b3480156100ef57600080fd5b506100f861037c565b6040516101059190610620565b60405180910390f35b34801561011a57600080fd5b5061013560048036038101906101309190610667565b6103a0565b005b60008054906101000a900473ffffffffffffffffffffffffffffffffffffffff1673ffffffffffffffffffffffffffffffffffffffff163373ffffffffffffffffffffffffffffffffffffffff16146101c5576040517f08c379a00000000000000000000000000000000000000000000000000000000081526004016101bc90610717565b60405180910390fd5b60008190508073ffffffffffffffffffffffffffffffffffffffff166108fc479081150290604051600060405180830381858888f19350505050158015610210573d6000803e3d6000fd5b505050565b600260009054906101000a900473ffffffffffffffffffffffffffffffffffffffff1681565b34670de0b6b3a764000014610285576040517f08c379a000000000000000000000000000000000000000000000000000000000815260040161027c90610783565b60405180910390fd5b600160009054906101000a900473ffffffffffffffffffffffffffffffffffffffff1673ffffffffffffffffffffffffffffffffffffffff166323b872dd600260009054906101000a900473ffffffffffffffffffffffffffffffffffffffff163369021e19e0c9bab24000006040518463ffffffff1660e01b8152600401610310939291906107e8565b6020604051808303816000875af115801561032f573d6000803e3d6000fd5b505050506040513d601f19601f820116820180604052508101906103539190610857565b50565b600160009054906101000a900473ffffffffffffffffffffffffffffffffffffffff1681565b60008054906101000a900473ffffffffffffffffffffffffffffffffffffffff1681565b60008054906101000a900473ffffffffffffffffffffffffffffffffffffffff1673ffffffffffffffffffffffffffffffffffffffff163373ffffffffffffffffffffffffffffffffffffffff161461042e576040517f08c379a000000000000000000000000000000000000000000000000000000000815260040161042590610717565b60405180910390fd5b806000806101000a81548173ffffffffffffffffffffffffffffffffffffffff021916908373ffffffffffffffffffffffffffffffffffffffff1602179055508073ffffffffffffffffffffffffffffffffffffffff163373ffffffffffffffffffffffffffffffffffffffff167f9aecf86140d81442289f667eb72e1202a8fbb3478a686659952e145e8531965660405160405180910390a350565b600080fd5b600073ffffffffffffffffffffffffffffffffffffffff82169050919050565b60006104fb826104d0565b9050919050565b61050b816104f0565b811461051657600080fd5b50565b60008135905061052881610502565b92915050565b600060208284031215610544576105436104cb565b5b600061055284828501610519565b91505092915050565b610564816104f0565b82525050565b600060208201905061057f600083018461055b565b92915050565b6000819050919050565b60006105aa6105a56105a0846104d0565b610585565b6104d0565b9050919050565b60006105bc8261058f565b9050919050565b60006105ce826105b1565b9050919050565b6105de816105c3565b82525050565b60006020820190506105f960008301846105d5565b92915050565b600061060a826104d0565b9050919050565b61061a816105ff565b82525050565b60006020820190506106356000830184610611565b92915050565b610644816105ff565b811461064f57600080fd5b50565b6000813590506106618161063b565b92915050565b60006020828403121561067d5761067c6104cb565b5b600061068b84828501610652565b91505092915050565b600082825260208201905092915050565b7f4f6e6c792074686520636f6e7472616374206f776e65722063616e2063616c6c60008201527f20746869732066756e6374696f6e000000000000000000000000000000000000602082015250565b6000610701602e83610694565b915061070c826106a5565b604082019050919050565b60006020820190508181036000830152610730816106f4565b9050919050565b7f4f6e6c7920312065746865720000000000000000000000000000000000000000600082015250565b600061076d600c83610694565b915061077882610737565b602082019050919050565b6000602082019050818103600083015261079c81610760565b9050919050565b6000819050919050565b6000819050919050565b60006107d26107cd6107c8846107a3565b610585565b6107ad565b9050919050565b6107e2816107b7565b82525050565b60006060820190506107fd600083018661055b565b61080a602083018561055b565b61081760408301846107d9565b949350505050565b60008115159050919050565b6108348161081f565b811461083f57600080fd5b50565b6000815190506108518161082b565b92915050565b60006020828403121561086d5761086c6104cb565b5b600061087b84828501610842565b9150509291505056fea264697066735822122055412c1ceb138c0ede6cad9a684ab597ab08bde9aa61f5027c7a9afc63ae94db64736f6c634300080e0033",
  "immutableReferences": {},
  "source": "// SPDX-License-Identifier: MIT\r\n\r\npragma solidity ^0.8.14;\r\n\r\nimport \"@openzeppelin/contracts/token/ERC20/ERC20.sol\";\r\nimport \"./Owner.sol\";\r\n\r\ncontract RankeIco is Owner {\r\n    ERC20 public RankeToken;\r\n    address public Operator; // transferFrom     \r\n\r\n    constructor(address _RankeToken, address _Operator) {\r\n        RankeToken = ERC20(payable(_RankeToken));\r\n        Operator = _Operator;\r\n    }\r\n\r\n    // ORK  \r\n    function ico() public payable {\r\n        //       1 ETH == 10000 ORK\r\n        require(1 ether == msg.value, \"Only 1 ether\");\r\n        // uint checkWei = msg.value / 2;\r\n        // require(checkWei * 2 == msg.value);\r\n\r\n        //   10000 ORK \r\n        RankeToken.transferFrom(Operator, msg.sender, 10000 ether);\r\n    }\r\n\r\n    // ico      \r\n    function withdrawEth(address to) public onlyOwner {\r\n        //       \r\n        address payable receiver = payable(to);\r\n        receiver.transfer(address(this).balance);\r\n    }\r\n}\r\n",
  "sourcePath": "D:\\github\\solidity_tinyping\\contracts\\RankeIco.sol",
  "compiler": {
    "name": "solc",
    "version": "0.8.14+commit.80d49f37.Emscripten.clang"
  },
  "schemaVersion": "3.4.7",
  "updatedAt": "2022-06-29T02:06:00.957Z",
  "networkType": "ethereum",
  "devdoc": {
    "kind": "dev",
    "methods": {},
    "version": 1
  },
  "userdoc": {
    "kind": "user",
    "methods": {},
    "version": 1
  }
}