{
  "contractName": "TKMStaking2B",
  "abi": [
    {
      "inputs": [
        {
          "internalType": "address",
          "name": "_TKMNft",
          "type": "address"
        },
        {
          "internalType": "address",
          "name": "_NftHolder",
          "type": "address"
        }
      ],
      "stateMutability": "nonpayable",
      "type": "constructor"
    },
    {
      "anonymous": false,
      "inputs": [
        {
          "indexed": true,
          "internalType": "address",
          "name": "from",
          "type": "address"
        },
        {
          "indexed": false,
          "internalType": "uint256",
          "name": "blockNumber",
          "type": "uint256"
        },
        {
          "indexed": false,
          "internalType": "uint256",
          "name": "stakingIdx",
          "type": "uint256"
        }
      ],
      "name": "Harvest",
      "type": "event"
    },
    {
      "anonymous": false,
      "inputs": [
        {
          "indexed": false,
          "internalType": "address",
          "name": "account",
          "type": "address"
        }
      ],
      "name": "Paused",
      "type": "event"
    },
    {
      "anonymous": false,
      "inputs": [
        {
          "indexed": true,
          "internalType": "bytes32",
          "name": "role",
          "type": "bytes32"
        },
        {
          "indexed": true,
          "internalType": "bytes32",
          "name": "previousAdminRole",
          "type": "bytes32"
        },
        {
          "indexed": true,
          "internalType": "bytes32",
          "name": "newAdminRole",
          "type": "bytes32"
        }
      ],
      "name": "RoleAdminChanged",
      "type": "event"
    },
    {
      "anonymous": false,
      "inputs": [
        {
          "indexed": true,
          "internalType": "bytes32",
          "name": "role",
          "type": "bytes32"
        },
        {
          "indexed": true,
          "internalType": "address",
          "name": "account",
          "type": "address"
        },
        {
          "indexed": true,
          "internalType": "address",
          "name": "sender",
          "type": "address"
        }
      ],
      "name": "RoleGranted",
      "type": "event"
    },
    {
      "anonymous": false,
      "inputs": [
        {
          "indexed": true,
          "internalType": "bytes32",
          "name": "role",
          "type": "bytes32"
        },
        {
          "indexed": true,
          "internalType": "address",
          "name": "account",
          "type": "address"
        },
        {
          "indexed": true,
          "internalType": "address",
          "name": "sender",
          "type": "address"
        }
      ],
      "name": "RoleRevoked",
      "type": "event"
    },
    {
      "anonymous": false,
      "inputs": [
        {
          "indexed": true,
          "internalType": "address",
          "name": "from",
          "type": "address"
        },
        {
          "indexed": false,
          "internalType": "uint256",
          "name": "blockNumber",
          "type": "uint256"
        },
        {
          "indexed": false,
          "internalType": "uint256",
          "name": "stakeId",
          "type": "uint256"
        },
        {
          "indexed": false,
          "internalType": "uint256",
          "name": "stakingIdx",
          "type": "uint256"
        },
        {
          "indexed": false,
          "internalType": "uint256[]",
          "name": "ids",
          "type": "uint256[]"
        }
      ],
      "name": "Stake",
      "type": "event"
    },
    {
      "anonymous": false,
      "inputs": [
        {
          "indexed": false,
          "internalType": "address",
          "name": "account",
          "type": "address"
        }
      ],
      "name": "Unpaused",
      "type": "event"
    },
    {
      "anonymous": false,
      "inputs": [
        {
          "indexed": true,
          "internalType": "address",
          "name": "from",
          "type": "address"
        },
        {
          "indexed": false,
          "internalType": "uint256",
          "name": "blockNumber",
          "type": "uint256"
        },
        {
          "indexed": false,
          "internalType": "uint256",
          "name": "stakingIdx",
          "type": "uint256"
        }
      ],
      "name": "Withdraw",
      "type": "event"
    },
    {
      "inputs": [],
      "name": "DEFAULT_ADMIN_ROLE",
      "outputs": [
        {
          "internalType": "bytes32",
          "name": "",
          "type": "bytes32"
        }
      ],
      "stateMutability": "view",
      "type": "function",
      "constant": true
    },
    {
      "inputs": [],
      "name": "NftHolder",
      "outputs": [
        {
          "internalType": "address",
          "name": "",
          "type": "address"
        }
      ],
      "stateMutability": "view",
      "type": "function",
      "constant": true
    },
    {
      "inputs": [],
      "name": "TKMNft",
      "outputs": [
        {
          "internalType": "contract ERC721",
          "name": "",
          "type": "address"
        }
      ],
      "stateMutability": "view",
      "type": "function",
      "constant": true
    },
    {
      "inputs": [],
      "name": "gapIndex",
      "outputs": [
        {
          "internalType": "uint8",
          "name": "",
          "type": "uint8"
        }
      ],
      "stateMutability": "view",
      "type": "function",
      "constant": true
    },
    {
      "inputs": [
        {
          "internalType": "bytes32",
          "name": "role",
          "type": "bytes32"
        }
      ],
      "name": "getRoleAdmin",
      "outputs": [
        {
          "internalType": "bytes32",
          "name": "",
          "type": "bytes32"
        }
      ],
      "stateMutability": "view",
      "type": "function",
      "constant": true
    },
    {
      "inputs": [
        {
          "internalType": "bytes32",
          "name": "role",
          "type": "bytes32"
        },
        {
          "internalType": "address",
          "name": "account",
          "type": "address"
        }
      ],
      "name": "grantRole",
      "outputs": [],
      "stateMutability": "nonpayable",
      "type": "function"
    },
    {
      "inputs": [
        {
          "internalType": "bytes32",
          "name": "role",
          "type": "bytes32"
        },
        {
          "internalType": "address",
          "name": "account",
          "type": "address"
        }
      ],
      "name": "hasRole",
      "outputs": [
        {
          "internalType": "bool",
          "name": "",
          "type": "bool"
        }
      ],
      "stateMutability": "view",
      "type": "function",
      "constant": true
    },
    {
      "inputs": [],
      "name": "paused",
      "outputs": [
        {
          "internalType": "bool",
          "name": "",
          "type": "bool"
        }
      ],
      "stateMutability": "view",
      "type": "function",
      "constant": true
    },
    {
      "inputs": [
        {
          "internalType": "uint256",
          "name": "",
          "type": "uint256"
        }
      ],
      "name": "progressing",
      "outputs": [
        {
          "internalType": "address",
          "name": "user",
          "type": "address"
        },
        {
          "internalType": "uint256",
          "name": "stakeId",
          "type": "uint256"
        }
      ],
      "stateMutability": "view",
      "type": "function",
      "constant": true
    },
    {
      "inputs": [
        {
          "internalType": "bytes32",
          "name": "role",
          "type": "bytes32"
        },
        {
          "internalType": "address",
          "name": "account",
          "type": "address"
        }
      ],
      "name": "renounceRole",
      "outputs": [],
      "stateMutability": "nonpayable",
      "type": "function"
    },
    {
      "inputs": [
        {
          "internalType": "bytes32",
          "name": "role",
          "type": "bytes32"
        },
        {
          "internalType": "address",
          "name": "account",
          "type": "address"
        }
      ],
      "name": "revokeRole",
      "outputs": [],
      "stateMutability": "nonpayable",
      "type": "function"
    },
    {
      "inputs": [
        {
          "internalType": "uint256",
          "name": "",
          "type": "uint256"
        }
      ],
      "name": "stakeIdList",
      "outputs": [
        {
          "internalType": "uint256",
          "name": "",
          "type": "uint256"
        }
      ],
      "stateMutability": "view",
      "type": "function",
      "constant": true
    },
    {
      "inputs": [
        {
          "internalType": "uint256",
          "name": "",
          "type": "uint256"
        }
      ],
      "name": "stakeIds",
      "outputs": [
        {
          "internalType": "bool",
          "name": "",
          "type": "bool"
        }
      ],
      "stateMutability": "view",
      "type": "function",
      "constant": true
    },
    {
      "inputs": [
        {
          "internalType": "uint256",
          "name": "",
          "type": "uint256"
        }
      ],
      "name": "stakedInfoList",
      "outputs": [
        {
          "internalType": "uint256",
          "name": "nftCount",
          "type": "uint256"
        },
        {
          "internalType": "uint256",
          "name": "walletCount",
          "type": "uint256"
        }
      ],
      "stateMutability": "view",
      "type": "function",
      "constant": true
    },
    {
      "inputs": [],
      "name": "stakingIdx",
      "outputs": [
        {
          "internalType": "uint256",
          "name": "",
          "type": "uint256"
        }
      ],
      "stateMutability": "view",
      "type": "function",
      "constant": true
    },
    {
      "inputs": [
        {
          "internalType": "uint256",
          "name": "",
          "type": "uint256"
        }
      ],
      "name": "stakings",
      "outputs": [
        {
          "internalType": "uint256",
          "name": "startTime",
          "type": "uint256"
        },
        {
          "internalType": "uint256",
          "name": "endTime",
          "type": "uint256"
        },
        {
          "internalType": "uint8",
          "name": "nftAmount",
          "type": "uint8"
        }
      ],
      "stateMutability": "view",
      "type": "function",
      "constant": true
    },
    {
      "inputs": [
        {
          "internalType": "bytes4",
          "name": "interfaceId",
          "type": "bytes4"
        }
      ],
      "name": "supportsInterface",
      "outputs": [
        {
          "internalType": "bool",
          "name": "",
          "type": "bool"
        }
      ],
      "stateMutability": "view",
      "type": "function",
      "constant": true
    },
    {
      "inputs": [],
      "name": "pause",
      "outputs": [],
      "stateMutability": "nonpayable",
      "type": "function"
    },
    {
      "inputs": [],
      "name": "unpause",
      "outputs": [],
      "stateMutability": "nonpayable",
      "type": "function"
    },
    {
      "inputs": [
        {
          "internalType": "uint256",
          "name": "_stakeId",
          "type": "uint256"
        },
        {
          "internalType": "uint256",
          "name": "_startTime",
          "type": "uint256"
        },
        {
          "internalType": "uint256",
          "name": "_endTime",
          "type": "uint256"
        },
        {
          "internalType": "uint8",
          "name": "_nftAmount",
          "type": "uint8"
        }
      ],
      "name": "setStaking",
      "outputs": [],
      "stateMutability": "nonpayable",
      "type": "function"
    },
    {
      "inputs": [
        {
          "internalType": "uint256",
          "name": "_stakeId",
          "type": "uint256"
        },
        {
          "internalType": "uint256[]",
          "name": "_ids",
          "type": "uint256[]"
        }
      ],
      "name": "stake",
      "outputs": [],
      "stateMutability": "nonpayable",
      "type": "function"
    },
    {
      "inputs": [
        {
          "internalType": "uint256",
          "name": "_stakingIdx",
          "type": "uint256"
        }
      ],
      "name": "withdraw",
      "outputs": [],
      "stateMutability": "nonpayable",
      "type": "function"
    },
    {
      "inputs": [
        {
          "internalType": "uint256",
          "name": "_stakingIdx",
          "type": "uint256"
        }
      ],
      "name": "harvest",
      "outputs": [],
      "stateMutability": "nonpayable",
      "type": "function"
    },
    {
      "inputs": [
        {
          "internalType": "uint256",
          "name": "_stakingIdx",
          "type": "uint256"
        }
      ],
      "name": "getIds",
      "outputs": [
        {
          "internalType": "uint256[]",
          "name": "ids",
          "type": "uint256[]"
        }
      ],
      "stateMutability": "view",
      "type": "function",
      "constant": true
    },
    {
      "inputs": [],
      "name": "getStakedInfo",
      "outputs": [
        {
          "internalType": "uint256",
          "name": "blockNumber",
          "type": "uint256"
        },
        {
          "components": [
            {
              "internalType": "uint256",
              "name": "nftCount",
              "type": "uint256"
            },
            {
              "internalType": "uint256",
              "name": "walletCount",
              "type": "uint256"
            }
          ],
          "internalType": "struct TKMStaking2B.stakedInfo[8]",
          "name": "stakedList",
          "type": "tuple[8]"
        }
      ],
      "stateMutability": "view",
      "type": "function",
      "constant": true
    }
  ],
  "bytecode": "0x6080604052604051806101000160405280600960ff168152602001600a60ff168152602001600b60ff168152602001600c60ff168152602001600d60ff168152602001600e60ff168152602001600f60ff168152602001601060ff168152506004906008620000709291906200039c565b503480156200007e57600080fd5b506040516200378f3803806200378f8339818101604052810190620000a491906200046f565b60008060006101000a81548160ff021916908315150217905550620000d36000801b336200023860201b60201c565b81600260006101000a81548173ffffffffffffffffffffffffffffffffffffffff021916908373ffffffffffffffffffffffffffffffffffffffff16021790555080600360006101000a81548173ffffffffffffffffffffffffffffffffffffffff021916908373ffffffffffffffffffffffffffffffffffffffff16021790555060005b6008811015620001bc576001600c6000600484600881106200017f576200017e620004b6565b5b0154815260200190815260200160002060006101000a81548160ff0219169083151502179055508080620001b3906200051e565b91505062000158565b5060005b60088110156200022f5760006040518060400160405280600081526020016000815250905080600e8360088110620001fd57620001fc620004b6565b5b60020201600082015181600001556020820151816001015590505050808062000226906200051e565b915050620001c0565b5050506200056b565b6200024a82826200032960201b60201c565b6200032557600180600084815260200190815260200160002060000160008373ffffffffffffffffffffffffffffffffffffffff1673ffffffffffffffffffffffffffffffffffffffff16815260200190815260200160002060006101000a81548160ff021916908315150217905550620002ca6200039460201b60201c565b73ffffffffffffffffffffffffffffffffffffffff168173ffffffffffffffffffffffffffffffffffffffff16837f2f8788117e7eff1d82e926ec794901d17c78024a50270940304540a733656f0d60405160405180910390a45b5050565b60006001600084815260200190815260200160002060000160008373ffffffffffffffffffffffffffffffffffffffff1673ffffffffffffffffffffffffffffffffffffffff16815260200190815260200160002060009054906101000a900460ff16905092915050565b600033905090565b8260088101928215620003d3579160200282015b82811115620003d2578251829060ff16905591602001919060010190620003b0565b5b509050620003e29190620003e6565b5090565b5b8082111562000401576000816000905550600101620003e7565b5090565b600080fd5b600073ffffffffffffffffffffffffffffffffffffffff82169050919050565b600062000437826200040a565b9050919050565b62000449816200042a565b81146200045557600080fd5b50565b60008151905062000469816200043e565b92915050565b6000806040838503121562000489576200048862000405565b5b6000620004998582860162000458565b9250506020620004ac8582860162000458565b9150509250929050565b7f4e487b7100000000000000000000000000000000000000000000000000000000600052603260045260246000fd5b7f4e487b7100000000000000000000000000000000000000000000000000000000600052601160045260246000fd5b6000819050919050565b60006200052b8262000514565b91507fffffffffffffffffffffffffffffffffffffffffffffffffffffffffffffffff820362000560576200055f620004e5565b5b600182019050919050565b613214806200057b6000396000f3fe608060405234801561001057600080fd5b50600436106101735760003560e01c80635c975abb116100de578063b58634fe11610097578063c751600a11610071578063c751600a14610462578063d547741f14610481578063dab397081461049d578063ddc63262146104bb57610173565b8063b58634fe146103e1578063b62888bd146103ff578063c4f0c1fc1461043057610173565b80635c975abb1461033157806361864f871461034f5780638456cb591461036b57806391d1485414610375578063a217fddf146103a5578063b3e78bed146103c357610173565b80632f2ff15d116101305780632f2ff15d1461027157806333c400aa1461028d57806336568abe146102bd57806339533a4f146102d95780633f4ba83a146102f757806345c0403a1461030157610173565b806301ffc9a71461017857806316f60557146101a85780631aa16ec4146101c45780631d80cf32146101f5578063248a9ca3146102255780632e1a7d4d14610255575b600080fd5b610192600480360381019061018d9190611df6565b6104d7565b60405161019f9190611e3e565b60405180910390f35b6101c260048036038101906101bd9190611fe8565b610551565b005b6101de60048036038101906101d99190612044565b610b08565b6040516101ec929190612080565b60405180910390f35b61020f600480360381019061020a9190612044565b610b32565b60405161021c9190611e3e565b60405180910390f35b61023f600480360381019061023a91906120df565b610b52565b60405161024c919061211b565b60405180910390f35b61026f600480360381019061026a9190612044565b610b72565b005b61028b60048036038101906102869190612194565b610fb2565b005b6102a760048036038101906102a29190612044565b610fd3565b6040516102b49190612292565b60405180910390f35b6102d760048036038101906102d29190612194565b611041565b005b6102e16110c4565b6040516102ee91906122d0565b60405180910390f35b6102ff6110c9565b005b61031b60048036038101906103169190612044565b6110e1565b60405161032891906122eb565b60405180910390f35b6103396110fc565b6040516103469190611e3e565b60405180910390f35b61036960048036038101906103649190612332565b611112565b005b610373611288565b005b61038f600480360381019061038a9190612194565b6112a0565b60405161039c9190611e3e565b60405180910390f35b6103ad61130b565b6040516103ba919061211b565b60405180910390f35b6103cb611312565b6040516103d891906123a8565b60405180910390f35b6103e9611338565b6040516103f691906122eb565b60405180910390f35b61041960048036038101906104149190612044565b61133e565b6040516104279291906123c3565b60405180910390f35b61044a60048036038101906104459190612044565b611382565b604051610459939291906123ec565b60405180910390f35b61046a6113b9565b6040516104789291906124ee565b60405180910390f35b61049b60048036038101906104969190612194565b611428565b005b6104a5611449565b6040516104b29190612577565b60405180910390f35b6104d560048036038101906104d09190612044565b61146f565b005b60007f7965db0b000000000000000000000000000000000000000000000000000000007bffffffffffffffffffffffffffffffffffffffffffffffffffffffff1916827bffffffffffffffffffffffffffffffffffffffffffffffffffffffff1916148061054a575061054982611653565b5b9050919050565b6105596110fc565b15610599576040517f08c379a0000000000000000000000000000000000000000000000000000000008152600401610590906125ef565b60405180910390fd5b600c600083815260200190815260200160002060009054906101000a900460ff1615156001151514610600576040517f08c379a00000000000000000000000000000000000000000000000000000000081526004016105f790612681565b60405180910390fd5b42601e6000848152602001908152602001600020600001541115610659576040517f08c379a000000000000000000000000000000000000000000000000000000000815260040161065090612713565b60405180910390fd5b42601e60008481526020019081526020016000206001015410156106b2576040517f08c379a00000000000000000000000000000000000000000000000000000000081526004016106a9906127a5565b60405180910390fd5b8051601e600084815260200190815260200160002060020160009054906101000a900460ff1660ff161461071b576040517f08c379a000000000000000000000000000000000000000000000000000000000815260040161071290612837565b60405180910390fd5b60005b601e600084815260200190815260200160002060020160009054906101000a900460ff1660ff16811015610882573373ffffffffffffffffffffffffffffffffffffffff16600260009054906101000a900473ffffffffffffffffffffffffffffffffffffffff1673ffffffffffffffffffffffffffffffffffffffff16636352211e8484815181106107b4576107b3612857565b5b60200260200101516040518263ffffffff1660e01b81526004016107d891906122eb565b602060405180830381865afa1580156107f5573d6000803e3d6000fd5b505050506040513d601f19601f82011682018060405250810190610819919061289b565b73ffffffffffffffffffffffffffffffffffffffff161461086f576040517f08c379a00000000000000000000000000000000000000000000000000000000081526004016108669061293a565b60405180910390fd5b808061087a90612989565b91505061071e565b50600d6000815461089290612989565b9190508190555060005b601e600084815260200190815260200160002060020160009054906101000a900460ff1660ff168110156109aa57600260009054906101000a900473ffffffffffffffffffffffffffffffffffffffff1673ffffffffffffffffffffffffffffffffffffffff166342842e0e33600360009054906101000a900473ffffffffffffffffffffffffffffffffffffffff1685858151811061093f5761093e612857565b5b60200260200101516040518463ffffffff1660e01b8152600401610965939291906129d1565b600060405180830381600087803b15801561097f57600080fd5b505af1158015610993573d6000803e3d6000fd5b5050505080806109a290612989565b91505061089c565b506000601f6000600d5481526020019081526020016000209050338160000160006101000a81548173ffffffffffffffffffffffffffffffffffffffff021916908373ffffffffffffffffffffffffffffffffffffffff16021790555082816001018190555081816002019080519060200190610a28929190611cb7565b506003600e600960ff1685610a3d9190612a08565b60088110610a4e57610a4d612857565b5b600202016000016000828254610a649190612a3c565b925050819055506001600e600960ff1685610a7f9190612a08565b60088110610a9057610a8f612857565b5b600202016001016000828254610aa69190612a3c565b925050819055503373ffffffffffffffffffffffffffffffffffffffff167f1ee5ed85e4ccf21a09b0d94bae9ce3d430778ea6ca542ab05c99001e698842934385600d5486604051610afb9493929190612a92565b60405180910390a2505050565b600e8160088110610b1857600080fd5b600202016000915090508060000154908060010154905082565b600c6020528060005260406000206000915054906101000a900460ff1681565b600060016000838152602001908152602001600020600101549050919050565b610b7a6110fc565b15610bba576040517f08c379a0000000000000000000000000000000000000000000000000000000008152600401610bb1906125ef565b60405180910390fd5b600073ffffffffffffffffffffffffffffffffffffffff16601f600083815260200190815260200160002060000160009054906101000a900473ffffffffffffffffffffffffffffffffffffffff1673ffffffffffffffffffffffffffffffffffffffff1603610c5f576040517f08c379a0000000000000000000000000000000000000000000000000000000008152600401610c5690612b50565b60405180910390fd5b3373ffffffffffffffffffffffffffffffffffffffff16601f600083815260200190815260200160002060000160009054906101000a900473ffffffffffffffffffffffffffffffffffffffff1673ffffffffffffffffffffffffffffffffffffffff1614610d03576040517f08c379a0000000000000000000000000000000000000000000000000000000008152600401610cfa90612be2565b60405180910390fd5b6003600e600960ff16601f600085815260200190815260200160002060010154610d2d9190612a08565b60088110610d3e57610d3d612857565b5b600202016000016000828254610d549190612a08565b925050819055506001600e600960ff16601f600085815260200190815260200160002060010154610d859190612a08565b60088110610d9657610d95612857565b5b600202016001016000828254610dac9190612a08565b925050819055506000601f6000838152602001908152602001600020600201805480602002602001604051908101604052809291908181526020018280548015610e1557602002820191906000526020600020905b815481526020019060010190808311610e01575b50505050509050601f6000838152602001908152602001600020600080820160006101000a81549073ffffffffffffffffffffffffffffffffffffffff02191690556001820160009055600282016000610e6f9190611d04565b505060005b8151811015610f5d57600260009054906101000a900473ffffffffffffffffffffffffffffffffffffffff1673ffffffffffffffffffffffffffffffffffffffff166342842e0e600360009054906101000a900473ffffffffffffffffffffffffffffffffffffffff1633858581518110610ef257610ef1612857565b5b60200260200101516040518463ffffffff1660e01b8152600401610f18939291906129d1565b600060405180830381600087803b158015610f3257600080fd5b505af1158015610f46573d6000803e3d6000fd5b505050508080610f5590612989565b915050610e74565b503373ffffffffffffffffffffffffffffffffffffffff167ff279e6a1f5e320cca91135676d9cb6e44ca8a08c0b88342bcdb1144f6511b5684384604051610fa6929190612080565b60405180910390a25050565b610fbb82610b52565b610fc4816116bd565b610fce83836116d1565b505050565b6060601f600083815260200190815260200160002060020180548060200260200160405190810160405280929190818152602001828054801561103557602002820191906000526020600020905b815481526020019060010190808311611021575b50505050509050919050565b6110496117b1565b73ffffffffffffffffffffffffffffffffffffffff168173ffffffffffffffffffffffffffffffffffffffff16146110b6576040517f08c379a00000000000000000000000000000000000000000000000000000000081526004016110ad90612c74565b60405180910390fd5b6110c082826117b9565b5050565b600981565b6000801b6110d6816116bd565b6110de61189b565b50565b600481600881106110f157600080fd5b016000915090505481565b60008060009054906101000a900460ff16905090565b6000801b61111f816116bd565b601e6000868152602001908152602001600020600001546000146111f757601e6000868152602001908152602001600020600001548311611195576040517f08c379a000000000000000000000000000000000000000000000000000000000815260040161118c90612d06565b60405180910390fd5b4283116111d7576040517f08c379a00000000000000000000000000000000000000000000000000000000081526004016111ce90612d98565b60405180910390fd5b82601e600087815260200190815260200160002060010181905550611281565b428311611239576040517f08c379a000000000000000000000000000000000000000000000000000000000815260040161123090612d98565b60405180910390fd5b6000601e60008781526020019081526020016000209050848160000181905550838160010181905550828160020160006101000a81548160ff021916908360ff160217905550505b5050505050565b6000801b611295816116bd565b61129d61193c565b50565b60006001600084815260200190815260200160002060000160008373ffffffffffffffffffffffffffffffffffffffff1673ffffffffffffffffffffffffffffffffffffffff16815260200190815260200160002060009054906101000a900460ff16905092915050565b6000801b81565b600360009054906101000a900473ffffffffffffffffffffffffffffffffffffffff1681565b600d5481565b601f6020528060005260406000206000915090508060000160009054906101000a900473ffffffffffffffffffffffffffffffffffffffff16908060010154905082565b601e6020528060005260406000206000915090508060000154908060010154908060020160009054906101000a900460ff16905083565b60006113c3611d25565b43600e80600880602002604051908101604052809291906000905b8282101561141a5783826002020160405180604001604052908160008201548152602001600182015481525050815260200190600101906113de565b505050509050915091509091565b61143182610b52565b61143a816116bd565b61144483836117b9565b505050565b600260009054906101000a900473ffffffffffffffffffffffffffffffffffffffff1681565b6114776110fc565b156114b7576040517f08c379a00000000000000000000000000000000000000000000000000000000081526004016114ae906125ef565b60405180910390fd5b600073ffffffffffffffffffffffffffffffffffffffff16601f600083815260200190815260200160002060000160009054906101000a900473ffffffffffffffffffffffffffffffffffffffff1673ffffffffffffffffffffffffffffffffffffffff160361155c576040517f08c379a000000000000000000000000000000000000000000000000000000000815260040161155390612e2a565b60405180910390fd5b3373ffffffffffffffffffffffffffffffffffffffff16601f600083815260200190815260200160002060000160009054906101000a900473ffffffffffffffffffffffffffffffffffffffff1673ffffffffffffffffffffffffffffffffffffffff1614611600576040517f08c379a00000000000000000000000000000000000000000000000000000000081526004016115f790612ebc565b60405180910390fd5b3373ffffffffffffffffffffffffffffffffffffffff167f71bab65ced2e5750775a0613be067df48ef06cf92a496ebf7663ae06609249544383604051611648929190612080565b60405180910390a250565b60007f01ffc9a7000000000000000000000000000000000000000000000000000000007bffffffffffffffffffffffffffffffffffffffffffffffffffffffff1916827bffffffffffffffffffffffffffffffffffffffffffffffffffffffff1916149050919050565b6116ce816116c96117b1565b6119de565b50565b6116db82826112a0565b6117ad57600180600084815260200190815260200160002060000160008373ffffffffffffffffffffffffffffffffffffffff1673ffffffffffffffffffffffffffffffffffffffff16815260200190815260200160002060006101000a81548160ff0219169083151502179055506117526117b1565b73ffffffffffffffffffffffffffffffffffffffff168173ffffffffffffffffffffffffffffffffffffffff16837f2f8788117e7eff1d82e926ec794901d17c78024a50270940304540a733656f0d60405160405180910390a45b5050565b600033905090565b6117c382826112a0565b156118975760006001600084815260200190815260200160002060000160008373ffffffffffffffffffffffffffffffffffffffff1673ffffffffffffffffffffffffffffffffffffffff16815260200190815260200160002060006101000a81548160ff02191690831515021790555061183c6117b1565b73ffffffffffffffffffffffffffffffffffffffff168173ffffffffffffffffffffffffffffffffffffffff16837ff6391f5c32d9c69d2a47ea670b442974b53935d1edc7fd64eb21e047a839171b60405160405180910390a45b5050565b6118a36110fc565b6118e2576040517f08c379a00000000000000000000000000000000000000000000000000000000081526004016118d990612f28565b60405180910390fd5b60008060006101000a81548160ff0219169083151502179055507f5db9ee0a495bf2e6ff9c91a7834c1ba4fdd244a5e8aa4e537bd38aeae4b073aa6119256117b1565b60405161193291906123a8565b60405180910390a1565b6119446110fc565b15611984576040517f08c379a000000000000000000000000000000000000000000000000000000000815260040161197b906125ef565b60405180910390fd5b60016000806101000a81548160ff0219169083151502179055507f62e78cea01bee320cd4e420270b5ea74000d11b0c9f74754ebdbfc544b05a2586119c76117b1565b6040516119d491906123a8565b60405180910390a1565b6119e882826112a0565b611a7757611a0d8173ffffffffffffffffffffffffffffffffffffffff166014611a7b565b611a1b8360001c6020611a7b565b604051602001611a2c92919061305a565b6040516020818303038152906040526040517f08c379a0000000000000000000000000000000000000000000000000000000008152600401611a6e91906130cd565b60405180910390fd5b5050565b606060006002836002611a8e91906130ef565b611a989190612a3c565b67ffffffffffffffff811115611ab157611ab0611ea5565b5b6040519080825280601f01601f191660200182016040528015611ae35781602001600182028036833780820191505090505b5090507f300000000000000000000000000000000000000000000000000000000000000081600081518110611b1b57611b1a612857565b5b60200101907effffffffffffffffffffffffffffffffffffffffffffffffffffffffffffff1916908160001a9053507f780000000000000000000000000000000000000000000000000000000000000081600181518110611b7f57611b7e612857565b5b60200101907effffffffffffffffffffffffffffffffffffffffffffffffffffffffffffff1916908160001a90535060006001846002611bbf91906130ef565b611bc99190612a3c565b90505b6001811115611c69577f3031323334353637383961626364656600000000000000000000000000000000600f861660108110611c0b57611c0a612857565b5b1a60f81b828281518110611c2257611c21612857565b5b60200101907effffffffffffffffffffffffffffffffffffffffffffffffffffffffffffff1916908160001a905350600485901c945080611c6290613149565b9050611bcc565b5060008414611cad576040517f08c379a0000000000000000000000000000000000000000000000000000000008152600401611ca4906131be565b60405180910390fd5b8091505092915050565b828054828255906000526020600020908101928215611cf3579160200282015b82811115611cf2578251825591602001919060010190611cd7565b5b509050611d009190611d53565b5090565b5080546000825590600052602060002090810190611d229190611d53565b50565b6040518061010001604052806008905b611d3d611d70565b815260200190600190039081611d355790505090565b5b80821115611d6c576000816000905550600101611d54565b5090565b604051806040016040528060008152602001600081525090565b6000604051905090565b600080fd5b600080fd5b60007fffffffff0000000000000000000000000000000000000000000000000000000082169050919050565b611dd381611d9e565b8114611dde57600080fd5b50565b600081359050611df081611dca565b92915050565b600060208284031215611e0c57611e0b611d94565b5b6000611e1a84828501611de1565b91505092915050565b60008115159050919050565b611e3881611e23565b82525050565b6000602082019050611e536000830184611e2f565b92915050565b6000819050919050565b611e6c81611e59565b8114611e7757600080fd5b50565b600081359050611e8981611e63565b92915050565b600080fd5b6000601f19601f8301169050919050565b7f4e487b7100000000000000000000000000000000000000000000000000000000600052604160045260246000fd5b611edd82611e94565b810181811067ffffffffffffffff82111715611efc57611efb611ea5565b5b80604052505050565b6000611f0f611d8a565b9050611f1b8282611ed4565b919050565b600067ffffffffffffffff821115611f3b57611f3a611ea5565b5b602082029050602081019050919050565b600080fd5b6000611f64611f5f84611f20565b611f05565b90508083825260208201905060208402830185811115611f8757611f86611f4c565b5b835b81811015611fb05780611f9c8882611e7a565b845260208401935050602081019050611f89565b5050509392505050565b600082601f830112611fcf57611fce611e8f565b5b8135611fdf848260208601611f51565b91505092915050565b60008060408385031215611fff57611ffe611d94565b5b600061200d85828601611e7a565b925050602083013567ffffffffffffffff81111561202e5761202d611d99565b5b61203a85828601611fba565b9150509250929050565b60006020828403121561205a57612059611d94565b5b600061206884828501611e7a565b91505092915050565b61207a81611e59565b82525050565b60006040820190506120956000830185612071565b6120a26020830184612071565b9392505050565b6000819050919050565b6120bc816120a9565b81146120c757600080fd5b50565b6000813590506120d9816120b3565b92915050565b6000602082840312156120f5576120f4611d94565b5b6000612103848285016120ca565b91505092915050565b612115816120a9565b82525050565b6000602082019050612130600083018461210c565b92915050565b600073ffffffffffffffffffffffffffffffffffffffff82169050919050565b600061216182612136565b9050919050565b61217181612156565b811461217c57600080fd5b50565b60008135905061218e81612168565b92915050565b600080604083850312156121ab576121aa611d94565b5b60006121b9858286016120ca565b92505060206121ca8582860161217f565b9150509250929050565b600081519050919050565b600082825260208201905092915050565b6000819050602082019050919050565b61220981611e59565b82525050565b600061221b8383612200565b60208301905092915050565b6000602082019050919050565b600061223f826121d4565b61224981856121df565b9350612254836121f0565b8060005b8381101561228557815161226c888261220f565b975061227783612227565b925050600181019050612258565b5085935050505092915050565b600060208201905081810360008301526122ac8184612234565b905092915050565b600060ff82169050919050565b6122ca816122b4565b82525050565b60006020820190506122e560008301846122c1565b92915050565b60006020820190506123006000830184612071565b92915050565b61230f816122b4565b811461231a57600080fd5b50565b60008135905061232c81612306565b92915050565b6000806000806080858703121561234c5761234b611d94565b5b600061235a87828801611e7a565b945050602061236b87828801611e7a565b935050604061237c87828801611e7a565b925050606061238d8782880161231d565b91505092959194509250565b6123a281612156565b82525050565b60006020820190506123bd6000830184612399565b92915050565b60006040820190506123d86000830185612399565b6123e56020830184612071565b9392505050565b60006060820190506124016000830186612071565b61240e6020830185612071565b61241b60408301846122c1565b949350505050565b600060089050919050565b600081905092915050565b6000819050919050565b6040820160008201516124596000850182612200565b50602082015161246c6020850182612200565b50505050565b600061247e8383612443565b60408301905092915050565b6000602082019050919050565b6124a081612423565b6124aa818461242e565b92506124b582612439565b8060005b838110156124e65781516124cd8782612472565b96506124d88361248a565b9250506001810190506124b9565b505050505050565b6000610220820190506125046000830185612071565b6125116020830184612497565b9392505050565b6000819050919050565b600061253d61253861253384612136565b612518565b612136565b9050919050565b600061254f82612522565b9050919050565b600061256182612544565b9050919050565b61257181612556565b82525050565b600060208201905061258c6000830184612568565b92915050565b600082825260208201905092915050565b7f5061757361626c653a2070617573656400000000000000000000000000000000600082015250565b60006125d9601083612592565b91506125e4826125a3565b602082019050919050565b60006020820190508181036000830152612608816125cc565b9050919050565b7f5b544b4d5374616b696e6732425d5b7374616b655d3a20696e76616c6964207360008201527f74616b6520696400000000000000000000000000000000000000000000000000602082015250565b600061266b602783612592565b91506126768261260f565b604082019050919050565b6000602082019050818103600083015261269a8161265e565b9050919050565b7f5b544b4d5374616b696e6732425d5b7374616b696e675d3a207374616b696e6760008201527f206973206e6f7420737461727465640000000000000000000000000000000000602082015250565b60006126fd602f83612592565b9150612708826126a1565b604082019050919050565b6000602082019050818103600083015261272c816126f0565b9050919050565b7f5b544b4d5374616b696e6732425d5b7374616b696e675d3a207374616b696e6760008201527f20697320656e6465640000000000000000000000000000000000000000000000602082015250565b600061278f602983612592565b915061279a82612733565b604082019050919050565b600060208201905081810360008301526127be81612782565b9050919050565b7f5b544b4d5374616b696e6732425d5b7374616b696e675d3a206e6f742065717560008201527f616c206e6674416d6f756e740000000000000000000000000000000000000000602082015250565b6000612821602c83612592565b915061282c826127c5565b604082019050919050565b6000602082019050818103600083015261285081612814565b9050919050565b7f4e487b7100000000000000000000000000000000000000000000000000000000600052603260045260246000fd5b60008151905061289581612168565b92915050565b6000602082840312156128b1576128b0611d94565b5b60006128bf84828501612886565b91505092915050565b7f5b544b4d5374616b696e6732425d5b7374616b696e675d3a206f776e6572206960008201527f6e76616c69640000000000000000000000000000000000000000000000000000602082015250565b6000612924602683612592565b915061292f826128c8565b604082019050919050565b6000602082019050818103600083015261295381612917565b9050919050565b7f4e487b7100000000000000000000000000000000000000000000000000000000600052601160045260246000fd5b600061299482611e59565b91507fffffffffffffffffffffffffffffffffffffffffffffffffffffffffffffffff82036129c6576129c561295a565b5b600182019050919050565b60006060820190506129e66000830186612399565b6129f36020830185612399565b612a006040830184612071565b949350505050565b6000612a1382611e59565b9150612a1e83611e59565b925082821015612a3157612a3061295a565b5b828203905092915050565b6000612a4782611e59565b9150612a5283611e59565b9250827fffffffffffffffffffffffffffffffffffffffffffffffffffffffffffffffff03821115612a8757612a8661295a565b5b828201905092915050565b6000608082019050612aa76000830187612071565b612ab46020830186612071565b612ac16040830185612071565b8181036060830152612ad38184612234565b905095945050505050565b7f5b544b4d5374616b696e6732425d5b77697468647261775d3a206e6f7420657860008201527f697374207374616b696e67206461746100000000000000000000000000000000602082015250565b6000612b3a603083612592565b9150612b4582612ade565b604082019050919050565b60006020820190508181036000830152612b6981612b2d565b9050919050565b7f5b544b4d5374616b696e6732425d5b77697468647261775d3a206e6f74204f7760008201527f6e65720000000000000000000000000000000000000000000000000000000000602082015250565b6000612bcc602383612592565b9150612bd782612b70565b604082019050919050565b60006020820190508181036000830152612bfb81612bbf565b9050919050565b7f416363657373436f6e74726f6c3a2063616e206f6e6c792072656e6f756e636560008201527f20726f6c657320666f722073656c660000000000000000000000000000000000602082015250565b6000612c5e602f83612592565b9150612c6982612c02565b604082019050919050565b60006020820190508181036000830152612c8d81612c51565b9050919050565b7f5b544b4d5374616b696e6732425d5b7365745374616b696e675d3a205f656e6460008201527f54696d6520697320756e646572205f737461727454696d650000000000000000602082015250565b6000612cf0603883612592565b9150612cfb82612c94565b604082019050919050565b60006020820190508181036000830152612d1f81612ce3565b9050919050565b7f5b544b4d5374616b696e6732425d5b7365745374616b696e675d3a205f656e6460008201527f54696d6520697320756e646572206e6f77000000000000000000000000000000602082015250565b6000612d82603183612592565b9150612d8d82612d26565b604082019050919050565b60006020820190508181036000830152612db181612d75565b9050919050565b7f5b544b4d5374616b696e6732425d5b686172766573745d3a206e6f742065786960008201527f7374207374616b696e6720646174610000000000000000000000000000000000602082015250565b6000612e14602f83612592565b9150612e1f82612db8565b604082019050919050565b60006020820190508181036000830152612e4381612e07565b9050919050565b7f5b544b4d5374616b696e6732425d5b686172766573745d3a206e6f74204f776e60008201527f6572000000000000000000000000000000000000000000000000000000000000602082015250565b6000612ea6602283612592565b9150612eb182612e4a565b604082019050919050565b60006020820190508181036000830152612ed581612e99565b9050919050565b7f5061757361626c653a206e6f7420706175736564000000000000000000000000600082015250565b6000612f12601483612592565b9150612f1d82612edc565b602082019050919050565b60006020820190508181036000830152612f4181612f05565b9050919050565b600081905092915050565b7f416363657373436f6e74726f6c3a206163636f756e7420000000000000000000600082015250565b6000612f89601783612f48565b9150612f9482612f53565b601782019050919050565b600081519050919050565b60005b83811015612fc8578082015181840152602081019050612fad565b83811115612fd7576000848401525b50505050565b6000612fe882612f9f565b612ff28185612f48565b9350613002818560208601612faa565b80840191505092915050565b7f206973206d697373696e6720726f6c6520000000000000000000000000000000600082015250565b6000613044601183612f48565b915061304f8261300e565b601182019050919050565b600061306582612f7c565b91506130718285612fdd565b915061307c82613037565b91506130888284612fdd565b91508190509392505050565b600061309f82612f9f565b6130a98185612592565b93506130b9818560208601612faa565b6130c281611e94565b840191505092915050565b600060208201905081810360008301526130e78184613094565b905092915050565b60006130fa82611e59565b915061310583611e59565b9250817fffffffffffffffffffffffffffffffffffffffffffffffffffffffffffffffff048311821515161561313e5761313d61295a565b5b828202905092915050565b600061315482611e59565b9150600082036131675761316661295a565b5b600182039050919050565b7f537472696e67733a20686578206c656e67746820696e73756666696369656e74600082015250565b60006131a8602083612592565b91506131b382613172565b602082019050919050565b600060208201905081810360008301526131d78161319b565b905091905056fea264697066735822122019b59d1804e6167db59096076ff1119d7702797446555e19fe72358130adb17964736f6c634300080e0033",
  "immutableReferences": {},
  "source": "// SPDX-License-Identifier: MIT\r\npragma solidity ^0.8.14;\r\n\r\nimport \"@openzeppelin/contracts/token/ERC721/ERC721.sol\";\r\nimport \"@openzeppelin/contracts/security/Pausable.sol\";\r\nimport \"@openzeppelin/contracts/access/AccessControl.sol\";\r\n\r\ncontract TKMStaking2B is Pausable, AccessControl {\r\n    ERC721 public TKMNft; // tkm nft\r\n    address public NftHolder; // NFT   \r\n\r\n    uint8 public constant gapIndex = 9; // TKMStaking1,2  \r\n\r\n    // stakeId (9 ~ 12: 3km, 13 ~ 16: dtc)\r\n    uint256[8] public stakeIdList = [9, 10, 11, 12, 13, 14, 15, 16];\r\n    mapping(uint256 => bool) public stakeIds;\r\n\r\n    //  \r\n    uint256 public stakingIdx;\r\n\r\n    struct stakedInfo {\r\n        uint256 nftCount; \r\n        uint256 walletCount;\r\n    }\r\n    \r\n    //  \r\n    stakedInfo[8] public stakedInfoList;\r\n\r\n    //  ( ,  , stakeId,  , nft id )\r\n    event Stake(address indexed from, uint256 blockNumber, uint256 stakeId, uint256 stakingIdx, uint256[] ids);\r\n    //  \r\n    event Withdraw(address indexed from, uint256 blockNumber, uint256 stakingIdx);\r\n    //  \r\n    event Harvest(address indexed from, uint256 blockNumber, uint256 stakingIdx);\r\n\r\n    /////////////////////////////////////////////////////\r\n    // Staking\r\n    // Staking \r\n    struct staking {\r\n        uint256 startTime; //  \r\n        uint256 endTime; //  \r\n        uint8 nftAmount; // 1   NFT (3)\r\n    }\r\n\r\n    // stake id \r\n    mapping(uint256 => staking) public stakings;\r\n\r\n    //  \r\n    struct stakingProgress {\r\n        address user; //   \r\n        uint256 stakeId; // stake id\r\n        uint256[] ids; //  NFT ID\r\n    }\r\n\r\n    //  (  =>  )\r\n    mapping(uint256 => stakingProgress) public progressing;\r\n\r\n    constructor(address _TKMNft, address _NftHolder) {\r\n        _grantRole(DEFAULT_ADMIN_ROLE, msg.sender);\r\n        TKMNft = ERC721(payable(_TKMNft));\r\n        NftHolder = _NftHolder;\r\n\r\n        // stake id \r\n        for (uint256 i = 0; i < stakeIdList.length; i++) {\r\n            stakeIds[stakeIdList[i]] = true;\r\n        }\r\n\r\n        // stakedInfo \r\n        for (uint256 i = 0; i < stakeIdList.length; i++) {\r\n            stakedInfo memory info = stakedInfo(0, 0);\r\n            stakedInfoList[i] = info;\r\n        }\r\n    }\r\n\r\n    function pause() public onlyRole(DEFAULT_ADMIN_ROLE) {\r\n        _pause();\r\n    }\r\n\r\n    function unpause() public onlyRole(DEFAULT_ADMIN_ROLE) {\r\n        _unpause();\r\n    }\r\n\r\n    //   \r\n    function setStaking(\r\n        uint256 _stakeId,\r\n        uint256 _startTime,\r\n        uint256 _endTime,\r\n        uint8 _nftAmount\r\n    ) public onlyRole(DEFAULT_ADMIN_ROLE) {\r\n        //    \r\n        if(0 != stakings[_stakeId].startTime) {\r\n            require(_endTime > stakings[_stakeId].startTime, \"[TKMStaking2B][setStaking]: _endTime is under _startTime\");\r\n            require(_endTime > block.timestamp, \"[TKMStaking2B][setStaking]: _endTime is under now\");\r\n            stakings[_stakeId].endTime = _endTime;\r\n            return;\r\n        }\r\n\r\n        //  \r\n        require(_endTime > block.timestamp, \"[TKMStaking2B][setStaking]: _endTime is under now\");\r\n\r\n        staking storage newStake = stakings[_stakeId];\r\n        newStake.startTime = _startTime;\r\n        newStake.endTime = _endTime;\r\n        newStake.nftAmount = _nftAmount;\r\n    }\r\n\r\n    //  \r\n    function stake(uint256 _stakeId, uint256[] memory _ids) public whenNotPaused {\r\n        // stake id \r\n        require(true == stakeIds[_stakeId], \"[TKMStaking2B][stake]: invalid stake id\");\r\n\r\n        //  \r\n        require(stakings[_stakeId].startTime <= block.timestamp, \"[TKMStaking2B][staking]: staking is not started\");\r\n        require(stakings[_stakeId].endTime >= block.timestamp, \"[TKMStaking2B][staking]: staking is ended\");\r\n\r\n        // nft  \r\n        require(stakings[_stakeId].nftAmount == _ids.length, \"[TKMStaking2B][staking]: not equal nftAmount\");\r\n\r\n        //  \r\n        for (uint256 i = 0; i < stakings[_stakeId].nftAmount; i++) {\r\n            require(TKMNft.ownerOf(_ids[i]) == msg.sender, \"[TKMStaking2B][staking]: owner invalid\");\r\n        }\r\n\r\n        //   \r\n        ++stakingIdx;\r\n        for (uint256 i = 0; i < stakings[_stakeId].nftAmount; i++) {\r\n            TKMNft.safeTransferFrom(msg.sender, NftHolder, _ids[i]);\r\n        }\r\n\r\n        //  \r\n        stakingProgress storage progress = progressing[stakingIdx];\r\n        progress.user = msg.sender;\r\n        progress.stakeId = _stakeId;\r\n        progress.ids = _ids;\r\n\r\n        // stakedInfo \r\n        stakedInfoList[_stakeId - gapIndex].nftCount += 3;\r\n        stakedInfoList[_stakeId - gapIndex].walletCount += 1;\r\n\r\n        emit Stake(msg.sender, block.number, _stakeId, stakingIdx, _ids);\r\n    }\r\n\r\n    // \r\n    function withdraw(uint256 _stakingIdx) public whenNotPaused {\r\n        //      \r\n        require(progressing[_stakingIdx].user != address(0), \"[TKMStaking2B][withdraw]: not exist staking data\");\r\n        require(progressing[_stakingIdx].user == msg.sender, \"[TKMStaking2B][withdraw]: not Owner\");\r\n\r\n        // stakedInfo \r\n        stakedInfoList[progressing[_stakingIdx].stakeId - gapIndex].nftCount -= 3;\r\n        stakedInfoList[progressing[_stakingIdx].stakeId - gapIndex].walletCount -= 1;\r\n\r\n        //  \r\n        uint256[] memory ids = progressing[_stakingIdx].ids;\r\n        delete progressing[_stakingIdx];\r\n\r\n        // nft \r\n        for (uint256 i = 0; i < ids.length; i++) {\r\n            TKMNft.safeTransferFrom(NftHolder, msg.sender, ids[i]);\r\n        }\r\n\r\n        emit Withdraw(msg.sender, block.number, _stakingIdx);\r\n    }\r\n\r\n    // harvest\r\n    function harvest(uint256 _stakingIdx) public whenNotPaused {\r\n        //      \r\n        require(progressing[_stakingIdx].user != address(0), \"[TKMStaking2B][harvest]: not exist staking data\");\r\n        require(progressing[_stakingIdx].user == msg.sender, \"[TKMStaking2B][harvest]: not Owner\");\r\n\r\n        emit Harvest(msg.sender, block.number, _stakingIdx);\r\n    }\r\n\r\n    function getIds(uint256 _stakingIdx) public view returns (uint256[] memory ids) {\r\n        return progressing[_stakingIdx].ids;\r\n    }\r\n\r\n    function getStakedInfo() public view returns (uint256 blockNumber, stakedInfo[8] memory stakedList) {\r\n        return (block.number, stakedInfoList);\r\n    }\r\n}\r\n",
  "sourcePath": "C:\\Works\\1_Github\\solidity_tinyping\\contracts\\TKMStaking2B.sol",
  "compiler": {
    "name": "solc",
    "version": "0.8.14+commit.80d49f37.Emscripten.clang"
  },
  "schemaVersion": "3.4.7",
  "updatedAt": "2023-01-16T01:47:21.801Z",
  "networkType": "ethereum",
  "devdoc": {
    "kind": "dev",
    "methods": {
      "getRoleAdmin(bytes32)": {
        "details": "Returns the admin role that controls `role`. See {grantRole} and {revokeRole}. To change a role's admin, use {_setRoleAdmin}."
      },
      "grantRole(bytes32,address)": {
        "details": "Grants `role` to `account`. If `account` had not been already granted `role`, emits a {RoleGranted} event. Requirements: - the caller must have ``role``'s admin role."
      },
      "hasRole(bytes32,address)": {
        "details": "Returns `true` if `account` has been granted `role`."
      },
      "paused()": {
        "details": "Returns true if the contract is paused, and false otherwise."
      },
      "renounceRole(bytes32,address)": {
        "details": "Revokes `role` from the calling account. Roles are often managed via {grantRole} and {revokeRole}: this function's purpose is to provide a mechanism for accounts to lose their privileges if they are compromised (such as when a trusted device is misplaced). If the calling account had been revoked `role`, emits a {RoleRevoked} event. Requirements: - the caller must be `account`."
      },
      "revokeRole(bytes32,address)": {
        "details": "Revokes `role` from `account`. If `account` had been granted `role`, emits a {RoleRevoked} event. Requirements: - the caller must have ``role``'s admin role."
      },
      "supportsInterface(bytes4)": {
        "details": "See {IERC165-supportsInterface}."
      }
    },
    "version": 1
  },
  "userdoc": {
    "kind": "user",
    "methods": {},
    "version": 1
  }
}