{
  "contractName": "TKMGame",
  "abi": [
    {
      "inputs": [
        {
          "internalType": "address",
          "name": "_TKMNft",
          "type": "address"
        },
        {
          "internalType": "address",
          "name": "_GameHolder",
          "type": "address"
        },
        {
          "internalType": "address",
          "name": "_Remover",
          "type": "address"
        }
      ],
      "stateMutability": "nonpayable",
      "type": "constructor"
    },
    {
      "anonymous": false,
      "inputs": [
        {
          "indexed": true,
          "internalType": "address",
          "name": "previousOwner",
          "type": "address"
        },
        {
          "indexed": true,
          "internalType": "address",
          "name": "newOwner",
          "type": "address"
        }
      ],
      "name": "OwnershipTransferred",
      "type": "event"
    },
    {
      "anonymous": false,
      "inputs": [
        {
          "indexed": false,
          "internalType": "address",
          "name": "account",
          "type": "address"
        }
      ],
      "name": "Paused",
      "type": "event"
    },
    {
      "anonymous": false,
      "inputs": [
        {
          "indexed": true,
          "internalType": "address",
          "name": "from",
          "type": "address"
        },
        {
          "indexed": true,
          "internalType": "uint256",
          "name": "tokenId",
          "type": "uint256"
        }
      ],
      "name": "Remove",
      "type": "event"
    },
    {
      "anonymous": false,
      "inputs": [
        {
          "indexed": true,
          "internalType": "address",
          "name": "from",
          "type": "address"
        },
        {
          "indexed": true,
          "internalType": "uint256",
          "name": "tokenId",
          "type": "uint256"
        }
      ],
      "name": "SendGame",
      "type": "event"
    },
    {
      "anonymous": false,
      "inputs": [
        {
          "indexed": false,
          "internalType": "address",
          "name": "account",
          "type": "address"
        }
      ],
      "name": "Unpaused",
      "type": "event"
    },
    {
      "anonymous": false,
      "inputs": [
        {
          "indexed": true,
          "internalType": "address",
          "name": "from",
          "type": "address"
        },
        {
          "indexed": true,
          "internalType": "uint256",
          "name": "tokenId",
          "type": "uint256"
        }
      ],
      "name": "Withdraw",
      "type": "event"
    },
    {
      "inputs": [],
      "name": "GameHolder",
      "outputs": [
        {
          "internalType": "address",
          "name": "",
          "type": "address"
        }
      ],
      "stateMutability": "view",
      "type": "function",
      "constant": true
    },
    {
      "inputs": [],
      "name": "Remover",
      "outputs": [
        {
          "internalType": "address",
          "name": "",
          "type": "address"
        }
      ],
      "stateMutability": "view",
      "type": "function",
      "constant": true
    },
    {
      "inputs": [],
      "name": "TKMNft",
      "outputs": [
        {
          "internalType": "contract ERC721",
          "name": "",
          "type": "address"
        }
      ],
      "stateMutability": "view",
      "type": "function",
      "constant": true
    },
    {
      "inputs": [
        {
          "internalType": "uint256",
          "name": "",
          "type": "uint256"
        }
      ],
      "name": "gaming",
      "outputs": [
        {
          "internalType": "address",
          "name": "",
          "type": "address"
        }
      ],
      "stateMutability": "view",
      "type": "function",
      "constant": true
    },
    {
      "inputs": [],
      "name": "owner",
      "outputs": [
        {
          "internalType": "address",
          "name": "",
          "type": "address"
        }
      ],
      "stateMutability": "view",
      "type": "function",
      "constant": true
    },
    {
      "inputs": [],
      "name": "paused",
      "outputs": [
        {
          "internalType": "bool",
          "name": "",
          "type": "bool"
        }
      ],
      "stateMutability": "view",
      "type": "function",
      "constant": true
    },
    {
      "inputs": [],
      "name": "renounceOwnership",
      "outputs": [],
      "stateMutability": "nonpayable",
      "type": "function"
    },
    {
      "inputs": [
        {
          "internalType": "address",
          "name": "newOwner",
          "type": "address"
        }
      ],
      "name": "transferOwnership",
      "outputs": [],
      "stateMutability": "nonpayable",
      "type": "function"
    },
    {
      "inputs": [
        {
          "internalType": "address",
          "name": "_remover",
          "type": "address"
        }
      ],
      "name": "setRemover",
      "outputs": [],
      "stateMutability": "nonpayable",
      "type": "function"
    },
    {
      "inputs": [],
      "name": "pause",
      "outputs": [],
      "stateMutability": "nonpayable",
      "type": "function"
    },
    {
      "inputs": [],
      "name": "unpause",
      "outputs": [],
      "stateMutability": "nonpayable",
      "type": "function"
    },
    {
      "inputs": [
        {
          "internalType": "uint256",
          "name": "_tokenId",
          "type": "uint256"
        }
      ],
      "name": "sendGame",
      "outputs": [],
      "stateMutability": "nonpayable",
      "type": "function"
    },
    {
      "inputs": [
        {
          "internalType": "uint256",
          "name": "_tokenId",
          "type": "uint256"
        }
      ],
      "name": "withdraw",
      "outputs": [],
      "stateMutability": "nonpayable",
      "type": "function"
    },
    {
      "inputs": [
        {
          "internalType": "uint256",
          "name": "_tokenId",
          "type": "uint256"
        }
      ],
      "name": "remove",
      "outputs": [],
      "stateMutability": "nonpayable",
      "type": "function"
    }
  ],
  "bytecode": "0x60806040523480156200001157600080fd5b50604051620018f1380380620018f1833981810160405281019062000037919062000274565b60008060006101000a81548160ff02191690831515021790555062000071620000656200013d60201b60201c565b6200014560201b60201c565b82600160006101000a81548173ffffffffffffffffffffffffffffffffffffffff021916908373ffffffffffffffffffffffffffffffffffffffff16021790555081600260006101000a81548173ffffffffffffffffffffffffffffffffffffffff021916908373ffffffffffffffffffffffffffffffffffffffff16021790555080600360006101000a81548173ffffffffffffffffffffffffffffffffffffffff021916908373ffffffffffffffffffffffffffffffffffffffff160217905550505050620002d0565b600033905090565b60008060019054906101000a900473ffffffffffffffffffffffffffffffffffffffff16905081600060016101000a81548173ffffffffffffffffffffffffffffffffffffffff021916908373ffffffffffffffffffffffffffffffffffffffff1602179055508173ffffffffffffffffffffffffffffffffffffffff168173ffffffffffffffffffffffffffffffffffffffff167f8be0079c531659141344cd1fd0a4f28419497f9722a3daafe3b4186f6b6457e060405160405180910390a35050565b600080fd5b600073ffffffffffffffffffffffffffffffffffffffff82169050919050565b60006200023c826200020f565b9050919050565b6200024e816200022f565b81146200025a57600080fd5b50565b6000815190506200026e8162000243565b92915050565b60008060006060848603121562000290576200028f6200020a565b5b6000620002a0868287016200025d565b9350506020620002b3868287016200025d565b9250506040620002c6868287016200025d565b9150509250925092565b61161180620002e06000396000f3fe608060405234801561001057600080fd5b50600436106100ea5760003560e01c8063715018a61161008c578063a01ea5c811610066578063a01ea5c8146101d9578063c12b5d7c14610209578063dab3970814610225578063f2fde38b14610243576100ea565b8063715018a6146101a75780638456cb59146101b15780638da5cb5b146101bb576100ea565b80633f4ba83a116100c85780633f4ba83a146101475780634cc82215146101515780634e4d2c721461016d5780635c975abb14610189576100ea565b80630862080c146100ef5780631667d6e01461010d5780632e1a7d4d1461012b575b600080fd5b6100f761025f565b6040516101049190610f7d565b60405180910390f35b610115610285565b6040516101229190610f7d565b60405180910390f35b61014560048036038101906101409190610fd3565b6102ab565b005b61014f6104c4565b005b61016b60048036038101906101669190610fd3565b61054a565b005b6101876004803603810190610182919061102c565b610732565b005b6101916107f2565b60405161019e9190611074565b60405180910390f35b6101af610808565b005b6101b9610890565b005b6101c3610916565b6040516101d09190610f7d565b60405180910390f35b6101f360048036038101906101ee9190610fd3565b61093f565b6040516102009190610f7d565b60405180910390f35b610223600480360381019061021e9190610fd3565b610972565b005b61022d610c0f565b60405161023a91906110ee565b60405180910390f35b61025d6004803603810190610258919061102c565b610c35565b005b600260009054906101000a900473ffffffffffffffffffffffffffffffffffffffff1681565b600360009054906101000a900473ffffffffffffffffffffffffffffffffffffffff1681565b6102b36107f2565b156102f3576040517f08c379a00000000000000000000000000000000000000000000000000000000081526004016102ea90611166565b60405180910390fd5b3373ffffffffffffffffffffffffffffffffffffffff166004600083815260200190815260200160002060009054906101000a900473ffffffffffffffffffffffffffffffffffffffff1673ffffffffffffffffffffffffffffffffffffffff1614610394576040517f08c379a000000000000000000000000000000000000000000000000000000000815260040161038b906111f8565b60405180910390fd5b6004600082815260200190815260200160002060006101000a81549073ffffffffffffffffffffffffffffffffffffffff0219169055600160009054906101000a900473ffffffffffffffffffffffffffffffffffffffff1673ffffffffffffffffffffffffffffffffffffffff166342842e0e600260009054906101000a900473ffffffffffffffffffffffffffffffffffffffff1633846040518463ffffffff1660e01b815260040161044b93929190611227565b600060405180830381600087803b15801561046557600080fd5b505af1158015610479573d6000803e3d6000fd5b50505050803373ffffffffffffffffffffffffffffffffffffffff167f884edad9ce6fa2440d8a54cc123490eb96d2768479d49ff9c7366125a942436460405160405180910390a350565b6104cc610d2c565b73ffffffffffffffffffffffffffffffffffffffff166104ea610916565b73ffffffffffffffffffffffffffffffffffffffff1614610540576040517f08c379a0000000000000000000000000000000000000000000000000000000008152600401610537906112aa565b60405180910390fd5b610548610d34565b565b600360009054906101000a900473ffffffffffffffffffffffffffffffffffffffff1673ffffffffffffffffffffffffffffffffffffffff163373ffffffffffffffffffffffffffffffffffffffff16146105da576040517f08c379a00000000000000000000000000000000000000000000000000000000081526004016105d19061133c565b60405180910390fd5b600073ffffffffffffffffffffffffffffffffffffffff166004600083815260200190815260200160002060009054906101000a900473ffffffffffffffffffffffffffffffffffffffff1673ffffffffffffffffffffffffffffffffffffffff160361067c576040517f08c379a0000000000000000000000000000000000000000000000000000000008152600401610673906113ce565b60405180910390fd5b60006004600083815260200190815260200160002060009054906101000a900473ffffffffffffffffffffffffffffffffffffffff1690506004600083815260200190815260200160002060006101000a81549073ffffffffffffffffffffffffffffffffffffffff0219169055818173ffffffffffffffffffffffffffffffffffffffff167f8e2f5fcc57c31738b03aa91accdd55b13dc355a4fa1707d953f49c973e18e6e460405160405180910390a35050565b61073a610d2c565b73ffffffffffffffffffffffffffffffffffffffff16610758610916565b73ffffffffffffffffffffffffffffffffffffffff16146107ae576040517f08c379a00000000000000000000000000000000000000000000000000000000081526004016107a5906112aa565b60405180910390fd5b80600360006101000a81548173ffffffffffffffffffffffffffffffffffffffff021916908373ffffffffffffffffffffffffffffffffffffffff16021790555050565b60008060009054906101000a900460ff16905090565b610810610d2c565b73ffffffffffffffffffffffffffffffffffffffff1661082e610916565b73ffffffffffffffffffffffffffffffffffffffff1614610884576040517f08c379a000000000000000000000000000000000000000000000000000000000815260040161087b906112aa565b60405180910390fd5b61088e6000610dd5565b565b610898610d2c565b73ffffffffffffffffffffffffffffffffffffffff166108b6610916565b73ffffffffffffffffffffffffffffffffffffffff161461090c576040517f08c379a0000000000000000000000000000000000000000000000000000000008152600401610903906112aa565b60405180910390fd5b610914610e9a565b565b60008060019054906101000a900473ffffffffffffffffffffffffffffffffffffffff16905090565b60046020528060005260406000206000915054906101000a900473ffffffffffffffffffffffffffffffffffffffff1681565b61097a6107f2565b156109ba576040517f08c379a00000000000000000000000000000000000000000000000000000000081526004016109b190611166565b60405180910390fd5b3373ffffffffffffffffffffffffffffffffffffffff16600160009054906101000a900473ffffffffffffffffffffffffffffffffffffffff1673ffffffffffffffffffffffffffffffffffffffff16636352211e836040518263ffffffff1660e01b8152600401610a2c91906113ee565b602060405180830381865afa158015610a49573d6000803e3d6000fd5b505050506040513d601f19601f82011682018060405250810190610a6d919061141e565b73ffffffffffffffffffffffffffffffffffffffff1614610ac3576040517f08c379a0000000000000000000000000000000000000000000000000000000008152600401610aba906114bd565b60405180910390fd5b600160009054906101000a900473ffffffffffffffffffffffffffffffffffffffff1673ffffffffffffffffffffffffffffffffffffffff166342842e0e33600260009054906101000a900473ffffffffffffffffffffffffffffffffffffffff16846040518463ffffffff1660e01b8152600401610b4493929190611227565b600060405180830381600087803b158015610b5e57600080fd5b505af1158015610b72573d6000803e3d6000fd5b50505050336004600083815260200190815260200160002060006101000a81548173ffffffffffffffffffffffffffffffffffffffff021916908373ffffffffffffffffffffffffffffffffffffffff160217905550803373ffffffffffffffffffffffffffffffffffffffff167f5733e90c6759939498887daa825d5a7263f578c4bece0f9ea3144f582eca7f9a60405160405180910390a350565b600160009054906101000a900473ffffffffffffffffffffffffffffffffffffffff1681565b610c3d610d2c565b73ffffffffffffffffffffffffffffffffffffffff16610c5b610916565b73ffffffffffffffffffffffffffffffffffffffff1614610cb1576040517f08c379a0000000000000000000000000000000000000000000000000000000008152600401610ca8906112aa565b60405180910390fd5b600073ffffffffffffffffffffffffffffffffffffffff168173ffffffffffffffffffffffffffffffffffffffff1603610d20576040517f08c379a0000000000000000000000000000000000000000000000000000000008152600401610d179061154f565b60405180910390fd5b610d2981610dd5565b50565b600033905090565b610d3c6107f2565b610d7b576040517f08c379a0000000000000000000000000000000000000000000000000000000008152600401610d72906115bb565b60405180910390fd5b60008060006101000a81548160ff0219169083151502179055507f5db9ee0a495bf2e6ff9c91a7834c1ba4fdd244a5e8aa4e537bd38aeae4b073aa610dbe610d2c565b604051610dcb9190610f7d565b60405180910390a1565b60008060019054906101000a900473ffffffffffffffffffffffffffffffffffffffff16905081600060016101000a81548173ffffffffffffffffffffffffffffffffffffffff021916908373ffffffffffffffffffffffffffffffffffffffff1602179055508173ffffffffffffffffffffffffffffffffffffffff168173ffffffffffffffffffffffffffffffffffffffff167f8be0079c531659141344cd1fd0a4f28419497f9722a3daafe3b4186f6b6457e060405160405180910390a35050565b610ea26107f2565b15610ee2576040517f08c379a0000000000000000000000000000000000000000000000000000000008152600401610ed990611166565b60405180910390fd5b60016000806101000a81548160ff0219169083151502179055507f62e78cea01bee320cd4e420270b5ea74000d11b0c9f74754ebdbfc544b05a258610f25610d2c565b604051610f329190610f7d565b60405180910390a1565b600073ffffffffffffffffffffffffffffffffffffffff82169050919050565b6000610f6782610f3c565b9050919050565b610f7781610f5c565b82525050565b6000602082019050610f926000830184610f6e565b92915050565b600080fd5b6000819050919050565b610fb081610f9d565b8114610fbb57600080fd5b50565b600081359050610fcd81610fa7565b92915050565b600060208284031215610fe957610fe8610f98565b5b6000610ff784828501610fbe565b91505092915050565b61100981610f5c565b811461101457600080fd5b50565b60008135905061102681611000565b92915050565b60006020828403121561104257611041610f98565b5b600061105084828501611017565b91505092915050565b60008115159050919050565b61106e81611059565b82525050565b60006020820190506110896000830184611065565b92915050565b6000819050919050565b60006110b46110af6110aa84610f3c565b61108f565b610f3c565b9050919050565b60006110c682611099565b9050919050565b60006110d8826110bb565b9050919050565b6110e8816110cd565b82525050565b600060208201905061110360008301846110df565b92915050565b600082825260208201905092915050565b7f5061757361626c653a2070617573656400000000000000000000000000000000600082015250565b6000611150601083611109565b915061115b8261111a565b602082019050919050565b6000602082019050818103600083015261117f81611143565b9050919050565b7f5b544b4d47616d655d5b77697468647261775d3a206e6f74206578697374206760008201527f616d696e67206461746100000000000000000000000000000000000000000000602082015250565b60006111e2602a83611109565b91506111ed82611186565b604082019050919050565b60006020820190508181036000830152611211816111d5565b9050919050565b61122181610f9d565b82525050565b600060608201905061123c6000830186610f6e565b6112496020830185610f6e565b6112566040830184611218565b949350505050565b7f4f776e61626c653a2063616c6c6572206973206e6f7420746865206f776e6572600082015250565b6000611294602083611109565b915061129f8261125e565b602082019050919050565b600060208201905081810360008301526112c381611287565b9050919050565b7f5b544b4d47616d655d5b72656d6f76655d3a2052656d6f76657220696e76616c60008201527f6964000000000000000000000000000000000000000000000000000000000000602082015250565b6000611326602283611109565b9150611331826112ca565b604082019050919050565b6000602082019050818103600083015261135581611319565b9050919050565b7f5b544b4d47616d655d5b72656d6f76655d3a206e6f742065786973742067616d60008201527f696e672064617461000000000000000000000000000000000000000000000000602082015250565b60006113b8602883611109565b91506113c38261135c565b604082019050919050565b600060208201905081810360008301526113e7816113ab565b9050919050565b60006020820190506114036000830184611218565b92915050565b60008151905061141881611000565b92915050565b60006020828403121561143457611433610f98565b5b600061144284828501611409565b91505092915050565b7f5b544b4d47616d655d5b73656e6447616d655d3a206f776e657220696e76616c60008201527f6964000000000000000000000000000000000000000000000000000000000000602082015250565b60006114a7602283611109565b91506114b28261144b565b604082019050919050565b600060208201905081810360008301526114d68161149a565b9050919050565b7f4f776e61626c653a206e6577206f776e657220697320746865207a65726f206160008201527f6464726573730000000000000000000000000000000000000000000000000000602082015250565b6000611539602683611109565b9150611544826114dd565b604082019050919050565b600060208201905081810360008301526115688161152c565b9050919050565b7f5061757361626c653a206e6f7420706175736564000000000000000000000000600082015250565b60006115a5601483611109565b91506115b08261156f565b602082019050919050565b600060208201905081810360008301526115d481611598565b905091905056fea2646970667358221220ff1798fda24758a0a4277e03741af341cf7e719eb79ff38ba370f078132ee17e64736f6c634300080e0033",
  "immutableReferences": {},
  "source": "// SPDX-License-Identifier: MIT\r\npragma solidity ^0.8.14;\r\n\r\nimport \"@openzeppelin/contracts/token/ERC721/ERC721.sol\";\r\nimport \"@openzeppelin/contracts/security/Pausable.sol\";\r\nimport \"@openzeppelin/contracts/access/Ownable.sol\";\r\n\r\ncontract TKMGame is Pausable, Ownable {\r\n    ERC721 public TKMNft; // tkm nft\r\n    address public GameHolder; // NFT   \r\n    address public Remover; // remove   \r\n\r\n    //  >  \r\n    event SendGame(address indexed from, uint256 indexed tokenId);\r\n    //    \r\n    event Withdraw(address indexed from, uint256 indexed tokenId);\r\n    // NFT burn   gaming  \r\n    event Remove(address indexed from, uint256 indexed tokenId);\r\n\r\n    /////////////////////////////////////////////////////\r\n    // tokenId =>  \r\n    mapping(uint256 => address) public gaming;\r\n\r\n    constructor(address _TKMNft, address _GameHolder, address _Remover) {\r\n        TKMNft = ERC721(payable(_TKMNft));\r\n        GameHolder = _GameHolder;\r\n        Remover = _Remover;\r\n    }\r\n\r\n    function setRemover(address _remover) public onlyOwner {\r\n        Remover = _remover;\r\n    }\r\n\r\n    function pause() public onlyOwner {\r\n        _pause();\r\n    }\r\n\r\n    function unpause() public onlyOwner {\r\n        _unpause();\r\n    }\r\n\r\n    function sendGame(uint256 _tokenId) public whenNotPaused {\r\n        //  \r\n        require(TKMNft.ownerOf(_tokenId) == msg.sender, \"[TKMGame][sendGame]: owner invalid\");\r\n\r\n        //   \r\n        TKMNft.safeTransferFrom(msg.sender, GameHolder, _tokenId);\r\n\r\n        //  \r\n        gaming[_tokenId] = msg.sender;\r\n\r\n        emit SendGame(msg.sender, _tokenId);\r\n    }\r\n\r\n    function withdraw(uint256 _tokenId) public whenNotPaused {\r\n        //   \r\n        require(gaming[_tokenId] == msg.sender, \"[TKMGame][withdraw]: not exist gaming data\");\r\n\r\n        //  \r\n        delete gaming[_tokenId];\r\n\r\n        // nft \r\n        TKMNft.safeTransferFrom(GameHolder, msg.sender, _tokenId);\r\n\r\n        emit Withdraw(msg.sender, _tokenId);\r\n    }\r\n\r\n    function remove(uint256 _tokenId) public {\r\n        //   \r\n        require(msg.sender == Remover, \"[TKMGame][remove]: Remover invalid\");\r\n        require(gaming[_tokenId] != address(0), \"[TKMGame][remove]: not exist gaming data\");\r\n\r\n        address nftOwner = gaming[_tokenId];\r\n\r\n        //  \r\n        delete gaming[_tokenId];\r\n\r\n        emit Remove(nftOwner, _tokenId);\r\n    }\r\n}\r\n",
  "sourcePath": "C:\\Works\\1_Github\\solidity_tinyping\\contracts\\TKMGame.sol",
  "compiler": {
    "name": "solc",
    "version": "0.8.14+commit.80d49f37.Emscripten.clang"
  },
  "schemaVersion": "3.4.7",
  "updatedAt": "2023-03-14T01:52:36.644Z",
  "networkType": "ethereum",
  "devdoc": {
    "kind": "dev",
    "methods": {
      "owner()": {
        "details": "Returns the address of the current owner."
      },
      "paused()": {
        "details": "Returns true if the contract is paused, and false otherwise."
      },
      "renounceOwnership()": {
        "details": "Leaves the contract without owner. It will not be possible to call `onlyOwner` functions anymore. Can only be called by the current owner. NOTE: Renouncing ownership will leave the contract without an owner, thereby removing any functionality that is only available to the owner."
      },
      "transferOwnership(address)": {
        "details": "Transfers ownership of the contract to a new account (`newOwner`). Can only be called by the current owner."
      }
    },
    "version": 1
  },
  "userdoc": {
    "kind": "user",
    "methods": {},
    "version": 1
  }
}