{
  "contractName": "TokenForMaticB",
  "abi": [
    {
      "inputs": [
        {
          "internalType": "address",
          "name": "_TKMToken",
          "type": "address"
        },
        {
          "internalType": "address",
          "name": "_Operator",
          "type": "address"
        }
      ],
      "stateMutability": "nonpayable",
      "type": "constructor"
    },
    {
      "anonymous": false,
      "inputs": [
        {
          "indexed": true,
          "internalType": "address",
          "name": "from",
          "type": "address"
        },
        {
          "indexed": false,
          "internalType": "uint256",
          "name": "amount",
          "type": "uint256"
        }
      ],
      "name": "Claim",
      "type": "event"
    },
    {
      "anonymous": false,
      "inputs": [
        {
          "indexed": true,
          "internalType": "address",
          "name": "previousOwner",
          "type": "address"
        },
        {
          "indexed": true,
          "internalType": "address",
          "name": "newOwner",
          "type": "address"
        }
      ],
      "name": "OwnershipTransferred",
      "type": "event"
    },
    {
      "anonymous": false,
      "inputs": [
        {
          "indexed": false,
          "internalType": "address",
          "name": "account",
          "type": "address"
        }
      ],
      "name": "Paused",
      "type": "event"
    },
    {
      "anonymous": false,
      "inputs": [
        {
          "indexed": true,
          "internalType": "address",
          "name": "from",
          "type": "address"
        },
        {
          "indexed": false,
          "internalType": "uint256",
          "name": "amount",
          "type": "uint256"
        }
      ],
      "name": "SetClaimer",
      "type": "event"
    },
    {
      "anonymous": false,
      "inputs": [
        {
          "indexed": false,
          "internalType": "address",
          "name": "account",
          "type": "address"
        }
      ],
      "name": "Unpaused",
      "type": "event"
    },
    {
      "inputs": [],
      "name": "Operator",
      "outputs": [
        {
          "internalType": "address",
          "name": "",
          "type": "address"
        }
      ],
      "stateMutability": "view",
      "type": "function",
      "constant": true
    },
    {
      "inputs": [],
      "name": "TKMToken",
      "outputs": [
        {
          "internalType": "contract ERC20",
          "name": "",
          "type": "address"
        }
      ],
      "stateMutability": "view",
      "type": "function",
      "constant": true
    },
    {
      "inputs": [],
      "name": "owner",
      "outputs": [
        {
          "internalType": "address",
          "name": "",
          "type": "address"
        }
      ],
      "stateMutability": "view",
      "type": "function",
      "constant": true
    },
    {
      "inputs": [],
      "name": "paused",
      "outputs": [
        {
          "internalType": "bool",
          "name": "",
          "type": "bool"
        }
      ],
      "stateMutability": "view",
      "type": "function",
      "constant": true
    },
    {
      "inputs": [],
      "name": "renounceOwnership",
      "outputs": [],
      "stateMutability": "nonpayable",
      "type": "function"
    },
    {
      "inputs": [
        {
          "internalType": "address",
          "name": "",
          "type": "address"
        }
      ],
      "name": "tokenAmounts",
      "outputs": [
        {
          "internalType": "uint256",
          "name": "",
          "type": "uint256"
        }
      ],
      "stateMutability": "view",
      "type": "function",
      "constant": true
    },
    {
      "inputs": [],
      "name": "tokenClaimTime",
      "outputs": [
        {
          "internalType": "uint256",
          "name": "",
          "type": "uint256"
        }
      ],
      "stateMutability": "view",
      "type": "function",
      "constant": true
    },
    {
      "inputs": [
        {
          "internalType": "address",
          "name": "",
          "type": "address"
        }
      ],
      "name": "tokenTransfer",
      "outputs": [
        {
          "internalType": "bool",
          "name": "",
          "type": "bool"
        }
      ],
      "stateMutability": "view",
      "type": "function",
      "constant": true
    },
    {
      "inputs": [
        {
          "internalType": "address",
          "name": "newOwner",
          "type": "address"
        }
      ],
      "name": "transferOwnership",
      "outputs": [],
      "stateMutability": "nonpayable",
      "type": "function"
    },
    {
      "inputs": [],
      "name": "pause",
      "outputs": [],
      "stateMutability": "nonpayable",
      "type": "function"
    },
    {
      "inputs": [],
      "name": "unpause",
      "outputs": [],
      "stateMutability": "nonpayable",
      "type": "function"
    },
    {
      "inputs": [
        {
          "internalType": "address",
          "name": "_claimer",
          "type": "address"
        },
        {
          "internalType": "uint256",
          "name": "_amount",
          "type": "uint256"
        }
      ],
      "name": "setClaimer",
      "outputs": [],
      "stateMutability": "nonpayable",
      "type": "function"
    },
    {
      "inputs": [
        {
          "internalType": "uint256",
          "name": "_claimTime",
          "type": "uint256"
        }
      ],
      "name": "setClaimTime",
      "outputs": [],
      "stateMutability": "nonpayable",
      "type": "function"
    },
    {
      "inputs": [],
      "name": "claim",
      "outputs": [],
      "stateMutability": "nonpayable",
      "type": "function"
    }
  ],
  "bytecode": "0x60806040523480156200001157600080fd5b5060405162001b2238038062001b22833981810160405281019062000037919062000232565b60008060006101000a81548160ff0219169083151502179055506200007162000065620000fb60201b60201c565b6200010360201b60201c565b81600160006101000a81548173ffffffffffffffffffffffffffffffffffffffff021916908373ffffffffffffffffffffffffffffffffffffffff16021790555080600260006101000a81548173ffffffffffffffffffffffffffffffffffffffff021916908373ffffffffffffffffffffffffffffffffffffffff160217905550505062000279565b600033905090565b60008060019054906101000a900473ffffffffffffffffffffffffffffffffffffffff16905081600060016101000a81548173ffffffffffffffffffffffffffffffffffffffff021916908373ffffffffffffffffffffffffffffffffffffffff1602179055508173ffffffffffffffffffffffffffffffffffffffff168173ffffffffffffffffffffffffffffffffffffffff167f8be0079c531659141344cd1fd0a4f28419497f9722a3daafe3b4186f6b6457e060405160405180910390a35050565b600080fd5b600073ffffffffffffffffffffffffffffffffffffffff82169050919050565b6000620001fa82620001cd565b9050919050565b6200020c81620001ed565b81146200021857600080fd5b50565b6000815190506200022c8162000201565b92915050565b600080604083850312156200024c576200024b620001c8565b5b60006200025c858286016200021b565b92505060206200026f858286016200021b565b9150509250929050565b61189980620002896000396000f3fe608060405234801561001057600080fd5b50600436106100ea5760003560e01c80638456cb591161008c57806391a8ae321161006657806391a8ae32146101db578063a0e2e5f6146101f7578063f2cae7f714610227578063f2fde38b14610245576100ea565b80638456cb59146101835780638d956f1e1461018d5780638da5cb5b146101bd576100ea565b80634e71d92d116100c85780634e71d92d146101335780635c975abb1461013d578063715018a61461015b5780637bb72d6214610165576100ea565b80632dd07fbc146100ef5780633f4ba83a1461010d578063421cc33714610117575b600080fd5b6100f7610261565b6040516101049190610eae565b60405180910390f35b610115610287565b005b610131600480360381019061012c9190610f04565b61030d565b005b61013b6103d8565b005b61014561076f565b6040516101529190610f4c565b60405180910390f35b610163610785565b005b61016d61080d565b60405161017a9190610fc6565b60405180910390f35b61018b610833565b005b6101a760048036038101906101a2919061100d565b6108b9565b6040516101b49190610f4c565b60405180910390f35b6101c56108d9565b6040516101d29190610eae565b60405180910390f35b6101f560048036038101906101f0919061103a565b610902565b005b610211600480360381019061020c919061100d565b610b48565b60405161021e9190611089565b60405180910390f35b61022f610b60565b60405161023c9190611089565b60405180910390f35b61025f600480360381019061025a919061100d565b610b66565b005b600260009054906101000a900473ffffffffffffffffffffffffffffffffffffffff1681565b61028f610c5d565b73ffffffffffffffffffffffffffffffffffffffff166102ad6108d9565b73ffffffffffffffffffffffffffffffffffffffff1614610303576040517f08c379a00000000000000000000000000000000000000000000000000000000081526004016102fa90611101565b60405180910390fd5b61030b610c65565b565b610315610c5d565b73ffffffffffffffffffffffffffffffffffffffff166103336108d9565b73ffffffffffffffffffffffffffffffffffffffff1614610389576040517f08c379a000000000000000000000000000000000000000000000000000000000815260040161038090611101565b60405180910390fd5b6003546000146103ce576040517f08c379a00000000000000000000000000000000000000000000000000000000081526004016103c590611193565b60405180910390fd5b8060038190555050565b6103e061076f565b15610420576040517f08c379a0000000000000000000000000000000000000000000000000000000008152600401610417906111ff565b60405180910390fd5b600354600010610465576040517f08c379a000000000000000000000000000000000000000000000000000000000815260040161045c90611291565b60405180910390fd5b60035442116104a9576040517f08c379a00000000000000000000000000000000000000000000000000000000081526004016104a090611323565b60405180910390fd5b600560003373ffffffffffffffffffffffffffffffffffffffff1673ffffffffffffffffffffffffffffffffffffffff16815260200190815260200160002060009054906101000a900460ff161515600015151461053c576040517f08c379a0000000000000000000000000000000000000000000000000000000008152600401610533906113b5565b60405180910390fd5b6001600560003373ffffffffffffffffffffffffffffffffffffffff1673ffffffffffffffffffffffffffffffffffffffff16815260200190815260200160002060006101000a81548160ff0219169083151502179055506000600460003373ffffffffffffffffffffffffffffffffffffffff1673ffffffffffffffffffffffffffffffffffffffff1681526020019081526020016000205490506000811161061b576040517f08c379a000000000000000000000000000000000000000000000000000000000815260040161061290611447565b60405180910390fd5b600160009054906101000a900473ffffffffffffffffffffffffffffffffffffffff1673ffffffffffffffffffffffffffffffffffffffff166323b872dd600260009054906101000a900473ffffffffffffffffffffffffffffffffffffffff1633846040518463ffffffff1660e01b815260040161069c93929190611467565b6020604051808303816000875af11580156106bb573d6000803e3d6000fd5b505050506040513d601f19601f820116820180604052508101906106df91906114ca565b61071e576040517f08c379a00000000000000000000000000000000000000000000000000000000081526004016107159061158f565b60405180910390fd5b3373ffffffffffffffffffffffffffffffffffffffff167f47cee97cb7acd717b3c0aa1435d004cd5b3c8c57d70dbceb4e4458bbd60e39d4826040516107649190611089565b60405180910390a250565b60008060009054906101000a900460ff16905090565b61078d610c5d565b73ffffffffffffffffffffffffffffffffffffffff166107ab6108d9565b73ffffffffffffffffffffffffffffffffffffffff1614610801576040517f08c379a00000000000000000000000000000000000000000000000000000000081526004016107f890611101565b60405180910390fd5b61080b6000610d06565b565b600160009054906101000a900473ffffffffffffffffffffffffffffffffffffffff1681565b61083b610c5d565b73ffffffffffffffffffffffffffffffffffffffff166108596108d9565b73ffffffffffffffffffffffffffffffffffffffff16146108af576040517f08c379a00000000000000000000000000000000000000000000000000000000081526004016108a690611101565b60405180910390fd5b6108b7610dcb565b565b60056020528060005260406000206000915054906101000a900460ff1681565b60008060019054906101000a900473ffffffffffffffffffffffffffffffffffffffff16905090565b61090a610c5d565b73ffffffffffffffffffffffffffffffffffffffff166109286108d9565b73ffffffffffffffffffffffffffffffffffffffff161461097e576040517f08c379a000000000000000000000000000000000000000000000000000000000815260040161097590611101565b60405180910390fd5b8173ffffffffffffffffffffffffffffffffffffffff16600073ffffffffffffffffffffffffffffffffffffffff16036109ed576040517f08c379a00000000000000000000000000000000000000000000000000000000081526004016109e490611621565b60405180910390fd5b80600010610a30576040517f08c379a0000000000000000000000000000000000000000000000000000000008152600401610a27906116b3565b60405180910390fd5b600460008373ffffffffffffffffffffffffffffffffffffffff1673ffffffffffffffffffffffffffffffffffffffff16815260200190815260200160002054600014610ab2576040517f08c379a0000000000000000000000000000000000000000000000000000000008152600401610aa990611745565b60405180910390fd5b80600460008473ffffffffffffffffffffffffffffffffffffffff1673ffffffffffffffffffffffffffffffffffffffff168152602001908152602001600020819055508173ffffffffffffffffffffffffffffffffffffffff167f175b1d89d2f2d6fd3c2ebad5d98c94cf286dc87c6d7ccb46b73ad90923e007c882604051610b3c9190611089565b60405180910390a25050565b60046020528060005260406000206000915090505481565b60035481565b610b6e610c5d565b73ffffffffffffffffffffffffffffffffffffffff16610b8c6108d9565b73ffffffffffffffffffffffffffffffffffffffff1614610be2576040517f08c379a0000000000000000000000000000000000000000000000000000000008152600401610bd990611101565b60405180910390fd5b600073ffffffffffffffffffffffffffffffffffffffff168173ffffffffffffffffffffffffffffffffffffffff1603610c51576040517f08c379a0000000000000000000000000000000000000000000000000000000008152600401610c48906117d7565b60405180910390fd5b610c5a81610d06565b50565b600033905090565b610c6d61076f565b610cac576040517f08c379a0000000000000000000000000000000000000000000000000000000008152600401610ca390611843565b60405180910390fd5b60008060006101000a81548160ff0219169083151502179055507f5db9ee0a495bf2e6ff9c91a7834c1ba4fdd244a5e8aa4e537bd38aeae4b073aa610cef610c5d565b604051610cfc9190610eae565b60405180910390a1565b60008060019054906101000a900473ffffffffffffffffffffffffffffffffffffffff16905081600060016101000a81548173ffffffffffffffffffffffffffffffffffffffff021916908373ffffffffffffffffffffffffffffffffffffffff1602179055508173ffffffffffffffffffffffffffffffffffffffff168173ffffffffffffffffffffffffffffffffffffffff167f8be0079c531659141344cd1fd0a4f28419497f9722a3daafe3b4186f6b6457e060405160405180910390a35050565b610dd361076f565b15610e13576040517f08c379a0000000000000000000000000000000000000000000000000000000008152600401610e0a906111ff565b60405180910390fd5b60016000806101000a81548160ff0219169083151502179055507f62e78cea01bee320cd4e420270b5ea74000d11b0c9f74754ebdbfc544b05a258610e56610c5d565b604051610e639190610eae565b60405180910390a1565b600073ffffffffffffffffffffffffffffffffffffffff82169050919050565b6000610e9882610e6d565b9050919050565b610ea881610e8d565b82525050565b6000602082019050610ec36000830184610e9f565b92915050565b600080fd5b6000819050919050565b610ee181610ece565b8114610eec57600080fd5b50565b600081359050610efe81610ed8565b92915050565b600060208284031215610f1a57610f19610ec9565b5b6000610f2884828501610eef565b91505092915050565b60008115159050919050565b610f4681610f31565b82525050565b6000602082019050610f616000830184610f3d565b92915050565b6000819050919050565b6000610f8c610f87610f8284610e6d565b610f67565b610e6d565b9050919050565b6000610f9e82610f71565b9050919050565b6000610fb082610f93565b9050919050565b610fc081610fa5565b82525050565b6000602082019050610fdb6000830184610fb7565b92915050565b610fea81610e8d565b8114610ff557600080fd5b50565b60008135905061100781610fe1565b92915050565b60006020828403121561102357611022610ec9565b5b600061103184828501610ff8565b91505092915050565b6000806040838503121561105157611050610ec9565b5b600061105f85828601610ff8565b925050602061107085828601610eef565b9150509250929050565b61108381610ece565b82525050565b600060208201905061109e600083018461107a565b92915050565b600082825260208201905092915050565b7f4f776e61626c653a2063616c6c6572206973206e6f7420746865206f776e6572600082015250565b60006110eb6020836110a4565b91506110f6826110b5565b602082019050919050565b6000602082019050818103600083015261111a816110de565b9050919050565b7f5b546f6b656e466f724d61746963425d5b736574436c61696d54696d655d3a2060008201527f616c72656164792073657420746f6b656e20636c61696d2074696d6500000000602082015250565b600061117d603c836110a4565b915061118882611121565b604082019050919050565b600060208201905081810360008301526111ac81611170565b9050919050565b7f5061757361626c653a2070617573656400000000000000000000000000000000600082015250565b60006111e96010836110a4565b91506111f4826111b3565b602082019050919050565b60006020820190508181036000830152611218816111dc565b9050919050565b7f5b546f6b656e466f724d61746963425d5b636c61696d5d3a2074696d6520697360008201527f206e6f7420736574757020796574000000000000000000000000000000000000602082015250565b600061127b602e836110a4565b91506112868261121f565b604082019050919050565b600060208201905081810360008301526112aa8161126e565b9050919050565b7f5b546f6b656e466f724d61746963425d5b636c61696d5d3a2072656d61696e6960008201527f6e672074696d65206973207374696c6c206c6566740000000000000000000000602082015250565b600061130d6035836110a4565b9150611318826112b1565b604082019050919050565b6000602082019050818103600083015261133c81611300565b9050919050565b7f5b546f6b656e466f724d61746963425d5b636c61696d5d3a20616c726561647960008201527f20636c61696d6564000000000000000000000000000000000000000000000000602082015250565b600061139f6028836110a4565b91506113aa82611343565b604082019050919050565b600060208201905081810360008301526113ce81611392565b9050919050565b7f5b546f6b656e466f724d61746963425d5b636c61696d5d3a207265636569766160008201527f626c6520746f6b656e7320617265206e6f7420666f756e640000000000000000602082015250565b60006114316038836110a4565b915061143c826113d5565b604082019050919050565b6000602082019050818103600083015261146081611424565b9050919050565b600060608201905061147c6000830186610e9f565b6114896020830185610e9f565b611496604083018461107a565b949350505050565b6114a781610f31565b81146114b257600080fd5b50565b6000815190506114c48161149e565b92915050565b6000602082840312156114e0576114df610ec9565b5b60006114ee848285016114b5565b91505092915050565b7f5b546f6b656e466f724d61746963425d5b636c61696d5d3a20756e61626c652060008201527f746f2073656e6420746f6b656e2c20726563697069656e74206d61792068617660208201527f6520726576657274656400000000000000000000000000000000000000000000604082015250565b6000611579604a836110a4565b9150611584826114f7565b606082019050919050565b600060208201905081810360008301526115a88161156c565b9050919050565b7f5b546f6b656e466f724d61746963425d5b736574436c61696d65725d3a205f6360008201527f6c61696d6572206973207a65726f206164647265737300000000000000000000602082015250565b600061160b6036836110a4565b9150611616826115af565b604082019050919050565b6000602082019050818103600083015261163a816115fe565b9050919050565b7f5b546f6b656e466f724d61746963425d5b736574436c61696d65725d3a205f6160008201527f6d6f756e74206d7573742062652067726561746572207468616e207a65726f00602082015250565b600061169d603f836110a4565b91506116a882611641565b604082019050919050565b600060208201905081810360008301526116cc81611690565b9050919050565b7f5b546f6b656e466f724d61746963425d5b736574436c61696d65725d3a20416c60008201527f726561647920657869737420636c61696d657220616464726573730000000000602082015250565b600061172f603b836110a4565b915061173a826116d3565b604082019050919050565b6000602082019050818103600083015261175e81611722565b9050919050565b7f4f776e61626c653a206e6577206f776e657220697320746865207a65726f206160008201527f6464726573730000000000000000000000000000000000000000000000000000602082015250565b60006117c16026836110a4565b91506117cc82611765565b604082019050919050565b600060208201905081810360008301526117f0816117b4565b9050919050565b7f5061757361626c653a206e6f7420706175736564000000000000000000000000600082015250565b600061182d6014836110a4565b9150611838826117f7565b602082019050919050565b6000602082019050818103600083015261185c81611820565b905091905056fea2646970667358221220c4e0cd16591651a65e216932c6d3dbed2dd8f60dbe9a17abad8c1e8f1221b8ed64736f6c634300080e0033",
  "immutableReferences": {},
  "source": "// SPDX-License-Identifier: MIT\r\npragma solidity ^0.8.14;\r\n\r\nimport \"@openzeppelin/contracts/token/ERC20/ERC20.sol\";\r\nimport \"@openzeppelin/contracts/access/Ownable.sol\";\r\nimport \"@openzeppelin/contracts/security/Pausable.sol\";\r\n\r\ncontract TokenForMaticB is Pausable, Ownable {\r\n    ERC20 public TKMToken;  // 3km token CA\r\n    address public Operator; //    \r\n\r\n    //  \r\n    //     \r\n    //    \r\n\r\n    //   \r\n    event SetClaimer(address indexed from, uint256 amount);\r\n\r\n    //   . amount =  \r\n    event Claim(address indexed from, uint256 amount);\r\n\r\n    /////////////////////////////////////////////////////\r\n    //     \r\n    //  . 10%\r\n    uint256 public tokenClaimTime;\r\n    //    . wei\r\n    mapping(address => uint256) public tokenAmounts;\r\n    //     \r\n    mapping(address => bool) public tokenTransfer;\r\n\r\n    constructor(address _TKMToken, address _Operator) {\r\n        TKMToken = ERC20(payable(_TKMToken));\r\n        Operator = _Operator;\r\n    }\r\n\r\n    function pause() public onlyOwner {\r\n        _pause();\r\n    }\r\n\r\n    function unpause() public onlyOwner {\r\n        _unpause();\r\n    }\r\n\r\n    //    \r\n    function setClaimer(address _claimer, uint256 _amount) public onlyOwner {\r\n        require(address(0) != _claimer, \"[TokenForMaticB][setClaimer]: _claimer is zero address\");\r\n        require(0 < _amount, \"[TokenForMaticB][setClaimer]: _amount must be greater than zero\");\r\n\r\n        //   \r\n        require(0 == tokenAmounts[_claimer], \"[TokenForMaticB][setClaimer]: Already exist claimer address\");\r\n\r\n        tokenAmounts[_claimer] = _amount;\r\n\r\n        emit SetClaimer(_claimer, _amount);\r\n    }\r\n\r\n    //      .  \r\n    function setClaimTime(uint256 _claimTime) public onlyOwner {\r\n        require(0 == tokenClaimTime, \"[TokenForMaticB][setClaimTime]: already set token claim time\");\r\n        tokenClaimTime = _claimTime;\r\n    }\r\n\r\n    //  \r\n    function claim() public whenNotPaused {\r\n        //       \r\n        require(0 < tokenClaimTime, \"[TokenForMaticB][claim]: time is not setup yet\");\r\n        //  \r\n        require(block.timestamp > tokenClaimTime, \"[TokenForMaticB][claim]: remaining time is still left\");\r\n        //   \r\n        require(false == tokenTransfer[msg.sender], \"[TokenForMaticB][claim]: already claimed\");\r\n        //  \r\n        tokenTransfer[msg.sender] = true;\r\n        //   \r\n        uint256 tokenAmount = tokenAmounts[msg.sender];\r\n        require(tokenAmount > 0, \"[TokenForMaticB][claim]: receivable tokens are not found\");\r\n        //  \r\n        require(\r\n            TKMToken.transferFrom(Operator, msg.sender, tokenAmount),\r\n            \"[TokenForMaticB][claim]: unable to send token, recipient may have reverted\"\r\n        );\r\n\r\n        emit Claim(msg.sender, tokenAmount);\r\n    }\r\n}\r\n",
  "sourcePath": "C:\\Works\\1_Github\\solidity_tinyping\\contracts\\TokenForMaticB.sol",
  "compiler": {
    "name": "solc",
    "version": "0.8.14+commit.80d49f37.Emscripten.clang"
  },
  "schemaVersion": "3.4.7",
  "updatedAt": "2023-01-16T01:47:21.753Z",
  "networkType": "ethereum",
  "devdoc": {
    "kind": "dev",
    "methods": {
      "owner()": {
        "details": "Returns the address of the current owner."
      },
      "paused()": {
        "details": "Returns true if the contract is paused, and false otherwise."
      },
      "renounceOwnership()": {
        "details": "Leaves the contract without owner. It will not be possible to call `onlyOwner` functions anymore. Can only be called by the current owner. NOTE: Renouncing ownership will leave the contract without an owner, thereby removing any functionality that is only available to the owner."
      },
      "transferOwnership(address)": {
        "details": "Transfers ownership of the contract to a new account (`newOwner`). Can only be called by the current owner."
      }
    },
    "version": 1
  },
  "userdoc": {
    "kind": "user",
    "methods": {},
    "version": 1
  }
}