{
  "contractName": "TKMNftB",
  "abi": [
    {
      "inputs": [
        {
          "internalType": "address",
          "name": "_minter",
          "type": "address"
        },
        {
          "internalType": "address",
          "name": "_holder",
          "type": "address"
        }
      ],
      "stateMutability": "nonpayable",
      "type": "constructor"
    },
    {
      "anonymous": false,
      "inputs": [
        {
          "indexed": true,
          "internalType": "address",
          "name": "owner",
          "type": "address"
        },
        {
          "indexed": true,
          "internalType": "address",
          "name": "approved",
          "type": "address"
        },
        {
          "indexed": true,
          "internalType": "uint256",
          "name": "tokenId",
          "type": "uint256"
        }
      ],
      "name": "Approval",
      "type": "event"
    },
    {
      "anonymous": false,
      "inputs": [
        {
          "indexed": true,
          "internalType": "address",
          "name": "owner",
          "type": "address"
        },
        {
          "indexed": true,
          "internalType": "address",
          "name": "operator",
          "type": "address"
        },
        {
          "indexed": false,
          "internalType": "bool",
          "name": "approved",
          "type": "bool"
        }
      ],
      "name": "ApprovalForAll",
      "type": "event"
    },
    {
      "anonymous": false,
      "inputs": [
        {
          "indexed": true,
          "internalType": "uint256",
          "name": "tokenId",
          "type": "uint256"
        },
        {
          "indexed": true,
          "internalType": "uint16",
          "name": "reason",
          "type": "uint16"
        }
      ],
      "name": "NftBurn",
      "type": "event"
    },
    {
      "anonymous": false,
      "inputs": [
        {
          "indexed": true,
          "internalType": "address",
          "name": "previousOwner",
          "type": "address"
        },
        {
          "indexed": true,
          "internalType": "address",
          "name": "newOwner",
          "type": "address"
        }
      ],
      "name": "OwnershipTransferred",
      "type": "event"
    },
    {
      "anonymous": false,
      "inputs": [
        {
          "indexed": false,
          "internalType": "address",
          "name": "account",
          "type": "address"
        }
      ],
      "name": "Paused",
      "type": "event"
    },
    {
      "anonymous": false,
      "inputs": [
        {
          "indexed": true,
          "internalType": "bytes32",
          "name": "role",
          "type": "bytes32"
        },
        {
          "indexed": true,
          "internalType": "bytes32",
          "name": "previousAdminRole",
          "type": "bytes32"
        },
        {
          "indexed": true,
          "internalType": "bytes32",
          "name": "newAdminRole",
          "type": "bytes32"
        }
      ],
      "name": "RoleAdminChanged",
      "type": "event"
    },
    {
      "anonymous": false,
      "inputs": [
        {
          "indexed": true,
          "internalType": "bytes32",
          "name": "role",
          "type": "bytes32"
        },
        {
          "indexed": true,
          "internalType": "address",
          "name": "account",
          "type": "address"
        },
        {
          "indexed": true,
          "internalType": "address",
          "name": "sender",
          "type": "address"
        }
      ],
      "name": "RoleGranted",
      "type": "event"
    },
    {
      "anonymous": false,
      "inputs": [
        {
          "indexed": true,
          "internalType": "bytes32",
          "name": "role",
          "type": "bytes32"
        },
        {
          "indexed": true,
          "internalType": "address",
          "name": "account",
          "type": "address"
        },
        {
          "indexed": true,
          "internalType": "address",
          "name": "sender",
          "type": "address"
        }
      ],
      "name": "RoleRevoked",
      "type": "event"
    },
    {
      "anonymous": false,
      "inputs": [
        {
          "indexed": true,
          "internalType": "address",
          "name": "from",
          "type": "address"
        },
        {
          "indexed": true,
          "internalType": "address",
          "name": "to",
          "type": "address"
        },
        {
          "indexed": true,
          "internalType": "uint256",
          "name": "tokenId",
          "type": "uint256"
        }
      ],
      "name": "Transfer",
      "type": "event"
    },
    {
      "anonymous": false,
      "inputs": [
        {
          "indexed": false,
          "internalType": "address",
          "name": "account",
          "type": "address"
        }
      ],
      "name": "Unpaused",
      "type": "event"
    },
    {
      "inputs": [],
      "name": "DEFAULT_ADMIN_ROLE",
      "outputs": [
        {
          "internalType": "bytes32",
          "name": "",
          "type": "bytes32"
        }
      ],
      "stateMutability": "view",
      "type": "function"
    },
    {
      "inputs": [],
      "name": "HOLDER_ROLE",
      "outputs": [
        {
          "internalType": "bytes32",
          "name": "",
          "type": "bytes32"
        }
      ],
      "stateMutability": "view",
      "type": "function"
    },
    {
      "inputs": [],
      "name": "MINTER_ROLE",
      "outputs": [
        {
          "internalType": "bytes32",
          "name": "",
          "type": "bytes32"
        }
      ],
      "stateMutability": "view",
      "type": "function"
    },
    {
      "inputs": [
        {
          "internalType": "address",
          "name": "to",
          "type": "address"
        },
        {
          "internalType": "uint256",
          "name": "tokenId",
          "type": "uint256"
        }
      ],
      "name": "approve",
      "outputs": [],
      "stateMutability": "nonpayable",
      "type": "function"
    },
    {
      "inputs": [
        {
          "internalType": "address",
          "name": "owner",
          "type": "address"
        }
      ],
      "name": "balanceOf",
      "outputs": [
        {
          "internalType": "uint256",
          "name": "",
          "type": "uint256"
        }
      ],
      "stateMutability": "view",
      "type": "function"
    },
    {
      "inputs": [
        {
          "internalType": "uint256",
          "name": "tokenId",
          "type": "uint256"
        }
      ],
      "name": "getApproved",
      "outputs": [
        {
          "internalType": "address",
          "name": "",
          "type": "address"
        }
      ],
      "stateMutability": "view",
      "type": "function"
    },
    {
      "inputs": [
        {
          "internalType": "bytes32",
          "name": "role",
          "type": "bytes32"
        }
      ],
      "name": "getRoleAdmin",
      "outputs": [
        {
          "internalType": "bytes32",
          "name": "",
          "type": "bytes32"
        }
      ],
      "stateMutability": "view",
      "type": "function"
    },
    {
      "inputs": [
        {
          "internalType": "bytes32",
          "name": "role",
          "type": "bytes32"
        },
        {
          "internalType": "address",
          "name": "account",
          "type": "address"
        }
      ],
      "name": "grantRole",
      "outputs": [],
      "stateMutability": "nonpayable",
      "type": "function"
    },
    {
      "inputs": [
        {
          "internalType": "bytes32",
          "name": "role",
          "type": "bytes32"
        },
        {
          "internalType": "address",
          "name": "account",
          "type": "address"
        }
      ],
      "name": "hasRole",
      "outputs": [
        {
          "internalType": "bool",
          "name": "",
          "type": "bool"
        }
      ],
      "stateMutability": "view",
      "type": "function"
    },
    {
      "inputs": [
        {
          "internalType": "address",
          "name": "owner",
          "type": "address"
        },
        {
          "internalType": "address",
          "name": "operator",
          "type": "address"
        }
      ],
      "name": "isApprovedForAll",
      "outputs": [
        {
          "internalType": "bool",
          "name": "",
          "type": "bool"
        }
      ],
      "stateMutability": "view",
      "type": "function"
    },
    {
      "inputs": [],
      "name": "name",
      "outputs": [
        {
          "internalType": "string",
          "name": "",
          "type": "string"
        }
      ],
      "stateMutability": "view",
      "type": "function"
    },
    {
      "inputs": [],
      "name": "nftId",
      "outputs": [
        {
          "internalType": "uint256",
          "name": "",
          "type": "uint256"
        }
      ],
      "stateMutability": "view",
      "type": "function"
    },
    {
      "inputs": [],
      "name": "owner",
      "outputs": [
        {
          "internalType": "address",
          "name": "",
          "type": "address"
        }
      ],
      "stateMutability": "view",
      "type": "function"
    },
    {
      "inputs": [
        {
          "internalType": "uint256",
          "name": "tokenId",
          "type": "uint256"
        }
      ],
      "name": "ownerOf",
      "outputs": [
        {
          "internalType": "address",
          "name": "",
          "type": "address"
        }
      ],
      "stateMutability": "view",
      "type": "function"
    },
    {
      "inputs": [],
      "name": "paused",
      "outputs": [
        {
          "internalType": "bool",
          "name": "",
          "type": "bool"
        }
      ],
      "stateMutability": "view",
      "type": "function"
    },
    {
      "inputs": [],
      "name": "renounceOwnership",
      "outputs": [],
      "stateMutability": "nonpayable",
      "type": "function"
    },
    {
      "inputs": [
        {
          "internalType": "bytes32",
          "name": "role",
          "type": "bytes32"
        },
        {
          "internalType": "address",
          "name": "account",
          "type": "address"
        }
      ],
      "name": "renounceRole",
      "outputs": [],
      "stateMutability": "nonpayable",
      "type": "function"
    },
    {
      "inputs": [
        {
          "internalType": "bytes32",
          "name": "role",
          "type": "bytes32"
        },
        {
          "internalType": "address",
          "name": "account",
          "type": "address"
        }
      ],
      "name": "revokeRole",
      "outputs": [],
      "stateMutability": "nonpayable",
      "type": "function"
    },
    {
      "inputs": [
        {
          "internalType": "address",
          "name": "from",
          "type": "address"
        },
        {
          "internalType": "address",
          "name": "to",
          "type": "address"
        },
        {
          "internalType": "uint256",
          "name": "tokenId",
          "type": "uint256"
        }
      ],
      "name": "safeTransferFrom",
      "outputs": [],
      "stateMutability": "nonpayable",
      "type": "function"
    },
    {
      "inputs": [
        {
          "internalType": "address",
          "name": "from",
          "type": "address"
        },
        {
          "internalType": "address",
          "name": "to",
          "type": "address"
        },
        {
          "internalType": "uint256",
          "name": "tokenId",
          "type": "uint256"
        },
        {
          "internalType": "bytes",
          "name": "_data",
          "type": "bytes"
        }
      ],
      "name": "safeTransferFrom",
      "outputs": [],
      "stateMutability": "nonpayable",
      "type": "function"
    },
    {
      "inputs": [
        {
          "internalType": "address",
          "name": "operator",
          "type": "address"
        },
        {
          "internalType": "bool",
          "name": "approved",
          "type": "bool"
        }
      ],
      "name": "setApprovalForAll",
      "outputs": [],
      "stateMutability": "nonpayable",
      "type": "function"
    },
    {
      "inputs": [],
      "name": "symbol",
      "outputs": [
        {
          "internalType": "string",
          "name": "",
          "type": "string"
        }
      ],
      "stateMutability": "view",
      "type": "function"
    },
    {
      "inputs": [
        {
          "internalType": "address",
          "name": "from",
          "type": "address"
        },
        {
          "internalType": "address",
          "name": "to",
          "type": "address"
        },
        {
          "internalType": "uint256",
          "name": "tokenId",
          "type": "uint256"
        }
      ],
      "name": "transferFrom",
      "outputs": [],
      "stateMutability": "nonpayable",
      "type": "function"
    },
    {
      "inputs": [
        {
          "internalType": "address",
          "name": "newOwner",
          "type": "address"
        }
      ],
      "name": "transferOwnership",
      "outputs": [],
      "stateMutability": "nonpayable",
      "type": "function"
    },
    {
      "inputs": [],
      "name": "pause",
      "outputs": [],
      "stateMutability": "nonpayable",
      "type": "function"
    },
    {
      "inputs": [],
      "name": "unpause",
      "outputs": [],
      "stateMutability": "nonpayable",
      "type": "function"
    },
    {
      "inputs": [
        {
          "internalType": "address",
          "name": "nftOwner",
          "type": "address"
        }
      ],
      "name": "Mint",
      "outputs": [
        {
          "internalType": "uint256",
          "name": "",
          "type": "uint256"
        }
      ],
      "stateMutability": "nonpayable",
      "type": "function"
    },
    {
      "inputs": [
        {
          "internalType": "uint256",
          "name": "_nftId",
          "type": "uint256"
        },
        {
          "internalType": "uint16",
          "name": "reason",
          "type": "uint16"
        }
      ],
      "name": "Burn",
      "outputs": [],
      "stateMutability": "nonpayable",
      "type": "function"
    },
    {
      "inputs": [
        {
          "internalType": "uint256",
          "name": "tokenId",
          "type": "uint256"
        }
      ],
      "name": "tokenURI",
      "outputs": [
        {
          "internalType": "string",
          "name": "",
          "type": "string"
        }
      ],
      "stateMutability": "view",
      "type": "function"
    },
    {
      "inputs": [
        {
          "internalType": "bytes4",
          "name": "interfaceId",
          "type": "bytes4"
        }
      ],
      "name": "supportsInterface",
      "outputs": [
        {
          "internalType": "bool",
          "name": "",
          "type": "bool"
        }
      ],
      "stateMutability": "view",
      "type": "function"
    }
  ],
  "bytecode": "0x60806040523480156200001157600080fd5b5060405162004587380380620045878339818101604052810190620000379190620004d8565b6040518060400160405280601c81526020017f5468726565204b696e67646f6d204d756c74697665727365204e6674000000008152506040518060400160405280600881526020017f334b4d4e66745f420000000000000000000000000000000000000000000000008152508160009080519060200190620000bb929190620003be565b508060019080519060200190620000d4929190620003be565b5050506000600760006101000a81548160ff02191690831515021790555062000112620001066200019360201b60201c565b6200019b60201b60201c565b620001276000801b336200026160201b60201c565b620001597f9f2df0fed2c77648de5860a4cc508cd0818c85b8b8a1ab4ceeef8d981c8956a6836200026160201b60201c565b6200018b7f88a91f33d69233608ec901106cda3805f1356caac193014d6c70c694090df4ae826200026160201b60201c565b505062000583565b600033905090565b6000600960009054906101000a900473ffffffffffffffffffffffffffffffffffffffff16905081600960006101000a81548173ffffffffffffffffffffffffffffffffffffffff021916908373ffffffffffffffffffffffffffffffffffffffff1602179055508173ffffffffffffffffffffffffffffffffffffffff168173ffffffffffffffffffffffffffffffffffffffff167f8be0079c531659141344cd1fd0a4f28419497f9722a3daafe3b4186f6b6457e060405160405180910390a35050565b6200027382826200035360201b60201c565b6200034f5760016008600084815260200190815260200160002060000160008373ffffffffffffffffffffffffffffffffffffffff1673ffffffffffffffffffffffffffffffffffffffff16815260200190815260200160002060006101000a81548160ff021916908315150217905550620002f46200019360201b60201c565b73ffffffffffffffffffffffffffffffffffffffff168173ffffffffffffffffffffffffffffffffffffffff16837f2f8788117e7eff1d82e926ec794901d17c78024a50270940304540a733656f0d60405160405180910390a45b5050565b60006008600084815260200190815260200160002060000160008373ffffffffffffffffffffffffffffffffffffffff1673ffffffffffffffffffffffffffffffffffffffff16815260200190815260200160002060009054906101000a900460ff16905092915050565b828054620003cc906200054e565b90600052602060002090601f016020900481019282620003f057600085556200043c565b82601f106200040b57805160ff19168380011785556200043c565b828001600101855582156200043c579182015b828111156200043b5782518255916020019190600101906200041e565b5b5090506200044b91906200044f565b5090565b5b808211156200046a57600081600090555060010162000450565b5090565b600080fd5b600073ffffffffffffffffffffffffffffffffffffffff82169050919050565b6000620004a08262000473565b9050919050565b620004b28162000493565b8114620004be57600080fd5b50565b600081519050620004d281620004a7565b92915050565b60008060408385031215620004f257620004f16200046e565b5b60006200050285828601620004c1565b92505060206200051585828601620004c1565b9150509250929050565b7f4e487b7100000000000000000000000000000000000000000000000000000000600052602260045260246000fd5b600060028204905060018216806200056757607f821691505b6020821081036200057d576200057c6200051f565b5b50919050565b613ff480620005936000396000f3fe608060405234801561001057600080fd5b50600436106101da5760003560e01c8063715018a611610104578063b88d4fde116100a2578063d539139311610071578063d53913931461052f578063d547741f1461054d578063e985e9c514610569578063f2fde38b14610599576101da565b8063b88d4fde146104a9578063bd6cac4c146104c5578063c6bc5182146104e1578063c87b56dd146104ff576101da565b806391d14854116100de57806391d148541461042157806395d89b4114610451578063a217fddf1461046f578063a22cb4651461048d576101da565b8063715018a6146103ef5780638456cb59146103f95780638da5cb5b14610403576101da565b80632f2ff15d1161017c57806342842e0e1161014b57806342842e0e146103555780635c975abb146103715780636352211e1461038f57806370a08231146103bf576101da565b80632f2ff15d146102e357806336568abe146102ff5780633c3284d11461031b5780633f4ba83a1461034b576101da565b8063095ea7b3116101b8578063095ea7b31461025d5780631c9c304d1461027957806323b872dd14610297578063248a9ca3146102b3576101da565b806301ffc9a7146101df57806306fdde031461020f578063081812fc1461022d575b600080fd5b6101f960048036038101906101f4919061294a565b6105b5565b6040516102069190612992565b60405180910390f35b6102176105c7565b6040516102249190612a46565b60405180910390f35b61024760048036038101906102429190612a9e565b610659565b6040516102549190612b0c565b60405180910390f35b61027760048036038101906102729190612b53565b6106de565b005b6102816107f5565b60405161028e9190612bac565b60405180910390f35b6102b160048036038101906102ac9190612bc7565b610819565b005b6102cd60048036038101906102c89190612c46565b610879565b6040516102da9190612bac565b60405180910390f35b6102fd60048036038101906102f89190612c73565b610899565b005b61031960048036038101906103149190612c73565b6108ba565b005b61033560048036038101906103309190612cb3565b61093d565b6040516103429190612cef565b60405180910390f35b6103536109de565b005b61036f600480360381019061036a9190612bc7565b6109f6565b005b610379610a16565b6040516103869190612992565b60405180910390f35b6103a960048036038101906103a49190612a9e565b610a2d565b6040516103b69190612b0c565b60405180910390f35b6103d960048036038101906103d49190612cb3565b610ade565b6040516103e69190612cef565b60405180910390f35b6103f7610b95565b005b610401610c1d565b005b61040b610c35565b6040516104189190612b0c565b60405180910390f35b61043b60048036038101906104369190612c73565b610c5f565b6040516104489190612992565b60405180910390f35b610459610cca565b6040516104669190612a46565b60405180910390f35b610477610d5c565b6040516104849190612bac565b60405180910390f35b6104a760048036038101906104a29190612d36565b610d63565b005b6104c360048036038101906104be9190612eab565b610d79565b005b6104df60048036038101906104da9190612f68565b610ddb565b005b6104e9610e8d565b6040516104f69190612cef565b60405180910390f35b61051960048036038101906105149190612a9e565b610e93565b6040516105269190612a46565b60405180910390f35b610537610ea5565b6040516105449190612bac565b60405180910390f35b61056760048036038101906105629190612c73565b610ec9565b005b610583600480360381019061057e9190612fa8565b610eea565b6040516105909190612992565b60405180910390f35b6105b360048036038101906105ae9190612cb3565b610f7e565b005b60006105c082611075565b9050919050565b6060600080546105d690613017565b80601f016020809104026020016040519081016040528092919081815260200182805461060290613017565b801561064f5780601f106106245761010080835404028352916020019161064f565b820191906000526020600020905b81548152906001019060200180831161063257829003601f168201915b5050505050905090565b6000610664826110ef565b6106a3576040517f08c379a000000000000000000000000000000000000000000000000000000000815260040161069a906130ba565b60405180910390fd5b6004600083815260200190815260200160002060009054906101000a900473ffffffffffffffffffffffffffffffffffffffff169050919050565b60006106e982610a2d565b90508073ffffffffffffffffffffffffffffffffffffffff168373ffffffffffffffffffffffffffffffffffffffff1603610759576040517f08c379a00000000000000000000000000000000000000000000000000000000081526004016107509061314c565b60405180910390fd5b8073ffffffffffffffffffffffffffffffffffffffff1661077861115b565b73ffffffffffffffffffffffffffffffffffffffff1614806107a757506107a6816107a161115b565b610eea565b5b6107e6576040517f08c379a00000000000000000000000000000000000000000000000000000000081526004016107dd906131de565b60405180910390fd5b6107f08383611163565b505050565b7f88a91f33d69233608ec901106cda3805f1356caac193014d6c70c694090df4ae81565b61082a61082461115b565b8261121c565b610869576040517f08c379a000000000000000000000000000000000000000000000000000000000815260040161086090613270565b60405180910390fd5b6108748383836112fa565b505050565b600060086000838152602001908152602001600020600101549050919050565b6108a282610879565b6108ab81611560565b6108b58383611574565b505050565b6108c261115b565b73ffffffffffffffffffffffffffffffffffffffff168173ffffffffffffffffffffffffffffffffffffffff161461092f576040517f08c379a000000000000000000000000000000000000000000000000000000000815260040161092690613302565b60405180910390fd5b6109398282611655565b5050565b6000610947610a16565b15610987576040517f08c379a000000000000000000000000000000000000000000000000000000000815260040161097e9061336e565b60405180910390fd5b7f9f2df0fed2c77648de5860a4cc508cd0818c85b8b8a1ab4ceeef8d981c8956a66109b181611560565b600a600081546109c0906133bd565b919050819055506109d383600a54611737565b600a54915050919050565b6000801b6109eb81611560565b6109f3611755565b50565b610a1183838360405180602001604052806000815250610d79565b505050565b6000600760009054906101000a900460ff16905090565b6000806002600084815260200190815260200160002060009054906101000a900473ffffffffffffffffffffffffffffffffffffffff169050600073ffffffffffffffffffffffffffffffffffffffff168173ffffffffffffffffffffffffffffffffffffffff1603610ad5576040517f08c379a0000000000000000000000000000000000000000000000000000000008152600401610acc90613477565b60405180910390fd5b80915050919050565b60008073ffffffffffffffffffffffffffffffffffffffff168273ffffffffffffffffffffffffffffffffffffffff1603610b4e576040517f08c379a0000000000000000000000000000000000000000000000000000000008152600401610b4590613509565b60405180910390fd5b600360008373ffffffffffffffffffffffffffffffffffffffff1673ffffffffffffffffffffffffffffffffffffffff168152602001908152602001600020549050919050565b610b9d61115b565b73ffffffffffffffffffffffffffffffffffffffff16610bbb610c35565b73ffffffffffffffffffffffffffffffffffffffff1614610c11576040517f08c379a0000000000000000000000000000000000000000000000000000000008152600401610c0890613575565b60405180910390fd5b610c1b60006117f7565b565b6000801b610c2a81611560565b610c326118bd565b50565b6000600960009054906101000a900473ffffffffffffffffffffffffffffffffffffffff16905090565b60006008600084815260200190815260200160002060000160008373ffffffffffffffffffffffffffffffffffffffff1673ffffffffffffffffffffffffffffffffffffffff16815260200190815260200160002060009054906101000a900460ff16905092915050565b606060018054610cd990613017565b80601f0160208091040260200160405190810160405280929190818152602001828054610d0590613017565b8015610d525780601f10610d2757610100808354040283529160200191610d52565b820191906000526020600020905b815481529060010190602001808311610d3557829003601f168201915b5050505050905090565b6000801b81565b610d75610d6e61115b565b8383611960565b5050565b610d8a610d8461115b565b8361121c565b610dc9576040517f08c379a0000000000000000000000000000000000000000000000000000000008152600401610dc090613270565b60405180910390fd5b610dd584848484611acc565b50505050565b610de3610a16565b15610e23576040517f08c379a0000000000000000000000000000000000000000000000000000000008152600401610e1a9061336e565b60405180910390fd5b7f88a91f33d69233608ec901106cda3805f1356caac193014d6c70c694090df4ae610e4d81611560565b610e5683611b28565b8161ffff16837f3041e7ec70f8f50e03a5834751baa287138a965f2ac86b666709c46a530658cc60405160405180910390a3505050565b600a5481565b6060610e9e82611b34565b9050919050565b7f9f2df0fed2c77648de5860a4cc508cd0818c85b8b8a1ab4ceeef8d981c8956a681565b610ed282610879565b610edb81611560565b610ee58383611655565b505050565b6000600560008473ffffffffffffffffffffffffffffffffffffffff1673ffffffffffffffffffffffffffffffffffffffff16815260200190815260200160002060008373ffffffffffffffffffffffffffffffffffffffff1673ffffffffffffffffffffffffffffffffffffffff16815260200190815260200160002060009054906101000a900460ff16905092915050565b610f8661115b565b73ffffffffffffffffffffffffffffffffffffffff16610fa4610c35565b73ffffffffffffffffffffffffffffffffffffffff1614610ffa576040517f08c379a0000000000000000000000000000000000000000000000000000000008152600401610ff190613575565b60405180910390fd5b600073ffffffffffffffffffffffffffffffffffffffff168173ffffffffffffffffffffffffffffffffffffffff1603611069576040517f08c379a000000000000000000000000000000000000000000000000000000000815260040161106090613607565b60405180910390fd5b611072816117f7565b50565b60007f7965db0b000000000000000000000000000000000000000000000000000000007bffffffffffffffffffffffffffffffffffffffffffffffffffffffff1916827bffffffffffffffffffffffffffffffffffffffffffffffffffffffff191614806110e857506110e782611c85565b5b9050919050565b60008073ffffffffffffffffffffffffffffffffffffffff166002600084815260200190815260200160002060009054906101000a900473ffffffffffffffffffffffffffffffffffffffff1673ffffffffffffffffffffffffffffffffffffffff1614159050919050565b600033905090565b816004600083815260200190815260200160002060006101000a81548173ffffffffffffffffffffffffffffffffffffffff021916908373ffffffffffffffffffffffffffffffffffffffff160217905550808273ffffffffffffffffffffffffffffffffffffffff166111d683610a2d565b73ffffffffffffffffffffffffffffffffffffffff167f8c5be1e5ebec7d5bd14f71427d1e84f3dd0314c0f7b2291e5b200ac8c7c3b92560405160405180910390a45050565b6000611227826110ef565b611266576040517f08c379a000000000000000000000000000000000000000000000000000000000815260040161125d90613699565b60405180910390fd5b600061127183610a2d565b90508073ffffffffffffffffffffffffffffffffffffffff168473ffffffffffffffffffffffffffffffffffffffff1614806112b357506112b28185610eea565b5b806112f157508373ffffffffffffffffffffffffffffffffffffffff166112d984610659565b73ffffffffffffffffffffffffffffffffffffffff16145b91505092915050565b8273ffffffffffffffffffffffffffffffffffffffff1661131a82610a2d565b73ffffffffffffffffffffffffffffffffffffffff1614611370576040517f08c379a00000000000000000000000000000000000000000000000000000000081526004016113679061372b565b60405180910390fd5b600073ffffffffffffffffffffffffffffffffffffffff168273ffffffffffffffffffffffffffffffffffffffff16036113df576040517f08c379a00000000000000000000000000000000000000000000000000000000081526004016113d6906137bd565b60405180910390fd5b6113ea838383611d67565b6113f5600082611163565b6001600360008573ffffffffffffffffffffffffffffffffffffffff1673ffffffffffffffffffffffffffffffffffffffff168152602001908152602001600020600082825461144591906137dd565b925050819055506001600360008473ffffffffffffffffffffffffffffffffffffffff1673ffffffffffffffffffffffffffffffffffffffff168152602001908152602001600020600082825461149c9190613811565b92505081905550816002600083815260200190815260200160002060006101000a81548173ffffffffffffffffffffffffffffffffffffffff021916908373ffffffffffffffffffffffffffffffffffffffff160217905550808273ffffffffffffffffffffffffffffffffffffffff168473ffffffffffffffffffffffffffffffffffffffff167fddf252ad1be2c89b69c2b068fc378daa952ba7f163c4a11628f55a4df523b3ef60405160405180910390a461155b838383611dbf565b505050565b6115718161156c61115b565b611dc4565b50565b61157e8282610c5f565b6116515760016008600084815260200190815260200160002060000160008373ffffffffffffffffffffffffffffffffffffffff1673ffffffffffffffffffffffffffffffffffffffff16815260200190815260200160002060006101000a81548160ff0219169083151502179055506115f661115b565b73ffffffffffffffffffffffffffffffffffffffff168173ffffffffffffffffffffffffffffffffffffffff16837f2f8788117e7eff1d82e926ec794901d17c78024a50270940304540a733656f0d60405160405180910390a45b5050565b61165f8282610c5f565b156117335760006008600084815260200190815260200160002060000160008373ffffffffffffffffffffffffffffffffffffffff1673ffffffffffffffffffffffffffffffffffffffff16815260200190815260200160002060006101000a81548160ff0219169083151502179055506116d861115b565b73ffffffffffffffffffffffffffffffffffffffff168173ffffffffffffffffffffffffffffffffffffffff16837ff6391f5c32d9c69d2a47ea670b442974b53935d1edc7fd64eb21e047a839171b60405160405180910390a45b5050565b611751828260405180602001604052806000815250611e61565b5050565b61175d610a16565b61179c576040517f08c379a0000000000000000000000000000000000000000000000000000000008152600401611793906138b3565b60405180910390fd5b6000600760006101000a81548160ff0219169083151502179055507f5db9ee0a495bf2e6ff9c91a7834c1ba4fdd244a5e8aa4e537bd38aeae4b073aa6117e061115b565b6040516117ed9190612b0c565b60405180910390a1565b6000600960009054906101000a900473ffffffffffffffffffffffffffffffffffffffff16905081600960006101000a81548173ffffffffffffffffffffffffffffffffffffffff021916908373ffffffffffffffffffffffffffffffffffffffff1602179055508173ffffffffffffffffffffffffffffffffffffffff168173ffffffffffffffffffffffffffffffffffffffff167f8be0079c531659141344cd1fd0a4f28419497f9722a3daafe3b4186f6b6457e060405160405180910390a35050565b6118c5610a16565b15611905576040517f08c379a00000000000000000000000000000000000000000000000000000000081526004016118fc9061336e565b60405180910390fd5b6001600760006101000a81548160ff0219169083151502179055507f62e78cea01bee320cd4e420270b5ea74000d11b0c9f74754ebdbfc544b05a25861194961115b565b6040516119569190612b0c565b60405180910390a1565b8173ffffffffffffffffffffffffffffffffffffffff168373ffffffffffffffffffffffffffffffffffffffff16036119ce576040517f08c379a00000000000000000000000000000000000000000000000000000000081526004016119c59061391f565b60405180910390fd5b80600560008573ffffffffffffffffffffffffffffffffffffffff1673ffffffffffffffffffffffffffffffffffffffff16815260200190815260200160002060008473ffffffffffffffffffffffffffffffffffffffff1673ffffffffffffffffffffffffffffffffffffffff16815260200190815260200160002060006101000a81548160ff0219169083151502179055508173ffffffffffffffffffffffffffffffffffffffff168373ffffffffffffffffffffffffffffffffffffffff167f17307eab39ab6107e8899845ad3d59bd9653f200f220920489ca2b5937696c3183604051611abf9190612992565b60405180910390a3505050565b611ad78484846112fa565b611ae384848484611ebc565b611b22576040517f08c379a0000000000000000000000000000000000000000000000000000000008152600401611b19906139b1565b60405180910390fd5b50505050565b611b3181612043565b50565b6060611b3f826110ef565b611b7e576040517f08c379a0000000000000000000000000000000000000000000000000000000008152600401611b7590613a43565b60405180910390fd5b6000600660008481526020019081526020016000208054611b9e90613017565b80601f0160208091040260200160405190810160405280929190818152602001828054611bca90613017565b8015611c175780601f10611bec57610100808354040283529160200191611c17565b820191906000526020600020905b815481529060010190602001808311611bfa57829003601f168201915b505050505090506000611c28612096565b90506000815103611c3d578192505050611c80565b600082511115611c72578082604051602001611c5a929190613a9f565b60405160208183030381529060405292505050611c80565b611c7b846120b6565b925050505b919050565b60007f80ac58cd000000000000000000000000000000000000000000000000000000007bffffffffffffffffffffffffffffffffffffffffffffffffffffffff1916827bffffffffffffffffffffffffffffffffffffffffffffffffffffffff19161480611d5057507f5b5e139f000000000000000000000000000000000000000000000000000000007bffffffffffffffffffffffffffffffffffffffffffffffffffffffff1916827bffffffffffffffffffffffffffffffffffffffffffffffffffffffff1916145b80611d605750611d5f8261215d565b5b9050919050565b611d6f610a16565b15611daf576040517f08c379a0000000000000000000000000000000000000000000000000000000008152600401611da69061336e565b60405180910390fd5b611dba8383836121c7565b505050565b505050565b611dce8282610c5f565b611e5d57611df38173ffffffffffffffffffffffffffffffffffffffff1660146121cc565b611e018360001c60206121cc565b604051602001611e12929190613b5b565b6040516020818303038152906040526040517f08c379a0000000000000000000000000000000000000000000000000000000008152600401611e549190612a46565b60405180910390fd5b5050565b611e6b8383612408565b611e786000848484611ebc565b611eb7576040517f08c379a0000000000000000000000000000000000000000000000000000000008152600401611eae906139b1565b60405180910390fd5b505050565b6000611edd8473ffffffffffffffffffffffffffffffffffffffff166125e1565b15612036578373ffffffffffffffffffffffffffffffffffffffff1663150b7a02611f0661115b565b8786866040518563ffffffff1660e01b8152600401611f289493929190613bea565b6020604051808303816000875af1925050508015611f6457506040513d601f19601f82011682018060405250810190611f619190613c4b565b60015b611fe6573d8060008114611f94576040519150601f19603f3d011682016040523d82523d6000602084013e611f99565b606091505b506000815103611fde576040517f08c379a0000000000000000000000000000000000000000000000000000000008152600401611fd5906139b1565b60405180910390fd5b805181602001fd5b63150b7a0260e01b7bffffffffffffffffffffffffffffffffffffffffffffffffffffffff1916817bffffffffffffffffffffffffffffffffffffffffffffffffffffffff19161491505061203b565b600190505b949350505050565b61204c81612604565b600060066000838152602001908152602001600020805461206c90613017565b905014612093576006600082815260200190815260200160002060006120929190612881565b5b50565b60606040518060600160405280602d8152602001613f92602d9139905090565b60606120c1826110ef565b612100576040517f08c379a00000000000000000000000000000000000000000000000000000000081526004016120f790613cea565b60405180910390fd5b600061210a612096565b9050600081511161212a5760405180602001604052806000815250612155565b8061213484612721565b604051602001612145929190613a9f565b6040516020818303038152906040525b915050919050565b60007f01ffc9a7000000000000000000000000000000000000000000000000000000007bffffffffffffffffffffffffffffffffffffffffffffffffffffffff1916827bffffffffffffffffffffffffffffffffffffffffffffffffffffffff1916149050919050565b505050565b6060600060028360026121df9190613d0a565b6121e99190613811565b67ffffffffffffffff81111561220257612201612d80565b5b6040519080825280601f01601f1916602001820160405280156122345781602001600182028036833780820191505090505b5090507f30000000000000000000000000000000000000000000000000000000000000008160008151811061226c5761226b613d64565b5b60200101907effffffffffffffffffffffffffffffffffffffffffffffffffffffffffffff1916908160001a9053507f7800000000000000000000000000000000000000000000000000000000000000816001815181106122d0576122cf613d64565b5b60200101907effffffffffffffffffffffffffffffffffffffffffffffffffffffffffffff1916908160001a905350600060018460026123109190613d0a565b61231a9190613811565b90505b60018111156123ba577f3031323334353637383961626364656600000000000000000000000000000000600f86166010811061235c5761235b613d64565b5b1a60f81b82828151811061237357612372613d64565b5b60200101907effffffffffffffffffffffffffffffffffffffffffffffffffffffffffffff1916908160001a905350600485901c9450806123b390613d93565b905061231d565b50600084146123fe576040517f08c379a00000000000000000000000000000000000000000000000000000000081526004016123f590613e08565b60405180910390fd5b8091505092915050565b600073ffffffffffffffffffffffffffffffffffffffff168273ffffffffffffffffffffffffffffffffffffffff1603612477576040517f08c379a000000000000000000000000000000000000000000000000000000000815260040161246e90613e74565b60405180910390fd5b612480816110ef565b156124c0576040517f08c379a00000000000000000000000000000000000000000000000000000000081526004016124b790613ee0565b60405180910390fd5b6124cc60008383611d67565b6001600360008473ffffffffffffffffffffffffffffffffffffffff1673ffffffffffffffffffffffffffffffffffffffff168152602001908152602001600020600082825461251c9190613811565b92505081905550816002600083815260200190815260200160002060006101000a81548173ffffffffffffffffffffffffffffffffffffffff021916908373ffffffffffffffffffffffffffffffffffffffff160217905550808273ffffffffffffffffffffffffffffffffffffffff16600073ffffffffffffffffffffffffffffffffffffffff167fddf252ad1be2c89b69c2b068fc378daa952ba7f163c4a11628f55a4df523b3ef60405160405180910390a46125dd60008383611dbf565b5050565b6000808273ffffffffffffffffffffffffffffffffffffffff163b119050919050565b600061260f82610a2d565b905061261d81600084611d67565b612628600083611163565b6001600360008373ffffffffffffffffffffffffffffffffffffffff1673ffffffffffffffffffffffffffffffffffffffff168152602001908152602001600020600082825461267891906137dd565b925050819055506002600083815260200190815260200160002060006101000a81549073ffffffffffffffffffffffffffffffffffffffff021916905581600073ffffffffffffffffffffffffffffffffffffffff168273ffffffffffffffffffffffffffffffffffffffff167fddf252ad1be2c89b69c2b068fc378daa952ba7f163c4a11628f55a4df523b3ef60405160405180910390a461271d81600084611dbf565b5050565b606060008203612768576040518060400160405280600181526020017f3000000000000000000000000000000000000000000000000000000000000000815250905061287c565b600082905060005b6000821461279a578080612783906133bd565b915050600a826127939190613f2f565b9150612770565b60008167ffffffffffffffff8111156127b6576127b5612d80565b5b6040519080825280601f01601f1916602001820160405280156127e85781602001600182028036833780820191505090505b5090505b600085146128755760018261280191906137dd565b9150600a856128109190613f60565b603061281c9190613811565b60f81b81838151811061283257612831613d64565b5b60200101907effffffffffffffffffffffffffffffffffffffffffffffffffffffffffffff1916908160001a905350600a8561286e9190613f2f565b94506127ec565b8093505050505b919050565b50805461288d90613017565b6000825580601f1061289f57506128be565b601f0160209004906000526020600020908101906128bd91906128c1565b5b50565b5b808211156128da5760008160009055506001016128c2565b5090565b6000604051905090565b600080fd5b600080fd5b60007fffffffff0000000000000000000000000000000000000000000000000000000082169050919050565b612927816128f2565b811461293257600080fd5b50565b6000813590506129448161291e565b92915050565b6000602082840312156129605761295f6128e8565b5b600061296e84828501612935565b91505092915050565b60008115159050919050565b61298c81612977565b82525050565b60006020820190506129a76000830184612983565b92915050565b600081519050919050565b600082825260208201905092915050565b60005b838110156129e75780820151818401526020810190506129cc565b838111156129f6576000848401525b50505050565b6000601f19601f8301169050919050565b6000612a18826129ad565b612a2281856129b8565b9350612a328185602086016129c9565b612a3b816129fc565b840191505092915050565b60006020820190508181036000830152612a608184612a0d565b905092915050565b6000819050919050565b612a7b81612a68565b8114612a8657600080fd5b50565b600081359050612a9881612a72565b92915050565b600060208284031215612ab457612ab36128e8565b5b6000612ac284828501612a89565b91505092915050565b600073ffffffffffffffffffffffffffffffffffffffff82169050919050565b6000612af682612acb565b9050919050565b612b0681612aeb565b82525050565b6000602082019050612b216000830184612afd565b92915050565b612b3081612aeb565b8114612b3b57600080fd5b50565b600081359050612b4d81612b27565b92915050565b60008060408385031215612b6a57612b696128e8565b5b6000612b7885828601612b3e565b9250506020612b8985828601612a89565b9150509250929050565b6000819050919050565b612ba681612b93565b82525050565b6000602082019050612bc16000830184612b9d565b92915050565b600080600060608486031215612be057612bdf6128e8565b5b6000612bee86828701612b3e565b9350506020612bff86828701612b3e565b9250506040612c1086828701612a89565b9150509250925092565b612c2381612b93565b8114612c2e57600080fd5b50565b600081359050612c4081612c1a565b92915050565b600060208284031215612c5c57612c5b6128e8565b5b6000612c6a84828501612c31565b91505092915050565b60008060408385031215612c8a57612c896128e8565b5b6000612c9885828601612c31565b9250506020612ca985828601612b3e565b9150509250929050565b600060208284031215612cc957612cc86128e8565b5b6000612cd784828501612b3e565b91505092915050565b612ce981612a68565b82525050565b6000602082019050612d046000830184612ce0565b92915050565b612d1381612977565b8114612d1e57600080fd5b50565b600081359050612d3081612d0a565b92915050565b60008060408385031215612d4d57612d4c6128e8565b5b6000612d5b85828601612b3e565b9250506020612d6c85828601612d21565b9150509250929050565b600080fd5b600080fd5b7f4e487b7100000000000000000000000000000000000000000000000000000000600052604160045260246000fd5b612db8826129fc565b810181811067ffffffffffffffff82111715612dd757612dd6612d80565b5b80604052505050565b6000612dea6128de565b9050612df68282612daf565b919050565b600067ffffffffffffffff821115612e1657612e15612d80565b5b612e1f826129fc565b9050602081019050919050565b82818337600083830152505050565b6000612e4e612e4984612dfb565b612de0565b905082815260208101848484011115612e6a57612e69612d7b565b5b612e75848285612e2c565b509392505050565b600082601f830112612e9257612e91612d76565b5b8135612ea2848260208601612e3b565b91505092915050565b60008060008060808587031215612ec557612ec46128e8565b5b6000612ed387828801612b3e565b9450506020612ee487828801612b3e565b9350506040612ef587828801612a89565b925050606085013567ffffffffffffffff811115612f1657612f156128ed565b5b612f2287828801612e7d565b91505092959194509250565b600061ffff82169050919050565b612f4581612f2e565b8114612f5057600080fd5b50565b600081359050612f6281612f3c565b92915050565b60008060408385031215612f7f57612f7e6128e8565b5b6000612f8d85828601612a89565b9250506020612f9e85828601612f53565b9150509250929050565b60008060408385031215612fbf57612fbe6128e8565b5b6000612fcd85828601612b3e565b9250506020612fde85828601612b3e565b9150509250929050565b7f4e487b7100000000000000000000000000000000000000000000000000000000600052602260045260246000fd5b6000600282049050600182168061302f57607f821691505b60208210810361304257613041612fe8565b5b50919050565b7f4552433732313a20617070726f76656420717565727920666f72206e6f6e657860008201527f697374656e7420746f6b656e0000000000000000000000000000000000000000602082015250565b60006130a4602c836129b8565b91506130af82613048565b604082019050919050565b600060208201905081810360008301526130d381613097565b9050919050565b7f4552433732313a20617070726f76616c20746f2063757272656e74206f776e6560008201527f7200000000000000000000000000000000000000000000000000000000000000602082015250565b60006131366021836129b8565b9150613141826130da565b604082019050919050565b6000602082019050818103600083015261316581613129565b9050919050565b7f4552433732313a20617070726f76652063616c6c6572206973206e6f74206f7760008201527f6e6572206e6f7220617070726f76656420666f7220616c6c0000000000000000602082015250565b60006131c86038836129b8565b91506131d38261316c565b604082019050919050565b600060208201905081810360008301526131f7816131bb565b9050919050565b7f4552433732313a207472616e736665722063616c6c6572206973206e6f74206f60008201527f776e6572206e6f7220617070726f766564000000000000000000000000000000602082015250565b600061325a6031836129b8565b9150613265826131fe565b604082019050919050565b600060208201905081810360008301526132898161324d565b9050919050565b7f416363657373436f6e74726f6c3a2063616e206f6e6c792072656e6f756e636560008201527f20726f6c657320666f722073656c660000000000000000000000000000000000602082015250565b60006132ec602f836129b8565b91506132f782613290565b604082019050919050565b6000602082019050818103600083015261331b816132df565b9050919050565b7f5061757361626c653a2070617573656400000000000000000000000000000000600082015250565b60006133586010836129b8565b915061336382613322565b602082019050919050565b600060208201905081810360008301526133878161334b565b9050919050565b7f4e487b7100000000000000000000000000000000000000000000000000000000600052601160045260246000fd5b60006133c882612a68565b91507fffffffffffffffffffffffffffffffffffffffffffffffffffffffffffffffff82036133fa576133f961338e565b5b600182019050919050565b7f4552433732313a206f776e657220717565727920666f72206e6f6e657869737460008201527f656e7420746f6b656e0000000000000000000000000000000000000000000000602082015250565b60006134616029836129b8565b915061346c82613405565b604082019050919050565b6000602082019050818103600083015261349081613454565b9050919050565b7f4552433732313a2062616c616e636520717565727920666f7220746865207a6560008201527f726f206164647265737300000000000000000000000000000000000000000000602082015250565b60006134f3602a836129b8565b91506134fe82613497565b604082019050919050565b60006020820190508181036000830152613522816134e6565b9050919050565b7f4f776e61626c653a2063616c6c6572206973206e6f7420746865206f776e6572600082015250565b600061355f6020836129b8565b915061356a82613529565b602082019050919050565b6000602082019050818103600083015261358e81613552565b9050919050565b7f4f776e61626c653a206e6577206f776e657220697320746865207a65726f206160008201527f6464726573730000000000000000000000000000000000000000000000000000602082015250565b60006135f16026836129b8565b91506135fc82613595565b604082019050919050565b60006020820190508181036000830152613620816135e4565b9050919050565b7f4552433732313a206f70657261746f7220717565727920666f72206e6f6e657860008201527f697374656e7420746f6b656e0000000000000000000000000000000000000000602082015250565b6000613683602c836129b8565b915061368e82613627565b604082019050919050565b600060208201905081810360008301526136b281613676565b9050919050565b7f4552433732313a207472616e736665722066726f6d20696e636f72726563742060008201527f6f776e6572000000000000000000000000000000000000000000000000000000602082015250565b60006137156025836129b8565b9150613720826136b9565b604082019050919050565b6000602082019050818103600083015261374481613708565b9050919050565b7f4552433732313a207472616e7366657220746f20746865207a65726f2061646460008201527f7265737300000000000000000000000000000000000000000000000000000000602082015250565b60006137a76024836129b8565b91506137b28261374b565b604082019050919050565b600060208201905081810360008301526137d68161379a565b9050919050565b60006137e882612a68565b91506137f383612a68565b9250828210156138065761380561338e565b5b828203905092915050565b600061381c82612a68565b915061382783612a68565b9250827fffffffffffffffffffffffffffffffffffffffffffffffffffffffffffffffff0382111561385c5761385b61338e565b5b828201905092915050565b7f5061757361626c653a206e6f7420706175736564000000000000000000000000600082015250565b600061389d6014836129b8565b91506138a882613867565b602082019050919050565b600060208201905081810360008301526138cc81613890565b9050919050565b7f4552433732313a20617070726f766520746f2063616c6c657200000000000000600082015250565b60006139096019836129b8565b9150613914826138d3565b602082019050919050565b60006020820190508181036000830152613938816138fc565b9050919050565b7f4552433732313a207472616e7366657220746f206e6f6e20455243373231526560008201527f63656976657220696d706c656d656e7465720000000000000000000000000000602082015250565b600061399b6032836129b8565b91506139a68261393f565b604082019050919050565b600060208201905081810360008301526139ca8161398e565b9050919050565b7f45524337323155524953746f726167653a2055524920717565727920666f722060008201527f6e6f6e6578697374656e7420746f6b656e000000000000000000000000000000602082015250565b6000613a2d6031836129b8565b9150613a38826139d1565b604082019050919050565b60006020820190508181036000830152613a5c81613a20565b9050919050565b600081905092915050565b6000613a79826129ad565b613a838185613a63565b9350613a938185602086016129c9565b80840191505092915050565b6000613aab8285613a6e565b9150613ab78284613a6e565b91508190509392505050565b7f416363657373436f6e74726f6c3a206163636f756e7420000000000000000000600082015250565b6000613af9601783613a63565b9150613b0482613ac3565b601782019050919050565b7f206973206d697373696e6720726f6c6520000000000000000000000000000000600082015250565b6000613b45601183613a63565b9150613b5082613b0f565b601182019050919050565b6000613b6682613aec565b9150613b728285613a6e565b9150613b7d82613b38565b9150613b898284613a6e565b91508190509392505050565b600081519050919050565b600082825260208201905092915050565b6000613bbc82613b95565b613bc68185613ba0565b9350613bd68185602086016129c9565b613bdf816129fc565b840191505092915050565b6000608082019050613bff6000830187612afd565b613c0c6020830186612afd565b613c196040830185612ce0565b8181036060830152613c2b8184613bb1565b905095945050505050565b600081519050613c458161291e565b92915050565b600060208284031215613c6157613c606128e8565b5b6000613c6f84828501613c36565b91505092915050565b7f4552433732314d657461646174613a2055524920717565727920666f72206e6f60008201527f6e6578697374656e7420746f6b656e0000000000000000000000000000000000602082015250565b6000613cd4602f836129b8565b9150613cdf82613c78565b604082019050919050565b60006020820190508181036000830152613d0381613cc7565b9050919050565b6000613d1582612a68565b9150613d2083612a68565b9250817fffffffffffffffffffffffffffffffffffffffffffffffffffffffffffffffff0483118215151615613d5957613d5861338e565b5b828202905092915050565b7f4e487b7100000000000000000000000000000000000000000000000000000000600052603260045260246000fd5b6000613d9e82612a68565b915060008203613db157613db061338e565b5b600182039050919050565b7f537472696e67733a20686578206c656e67746820696e73756666696369656e74600082015250565b6000613df26020836129b8565b9150613dfd82613dbc565b602082019050919050565b60006020820190508181036000830152613e2181613de5565b9050919050565b7f4552433732313a206d696e7420746f20746865207a65726f2061646472657373600082015250565b6000613e5e6020836129b8565b9150613e6982613e28565b602082019050919050565b60006020820190508181036000830152613e8d81613e51565b9050919050565b7f4552433732313a20746f6b656e20616c7265616479206d696e74656400000000600082015250565b6000613eca601c836129b8565b9150613ed582613e94565b602082019050919050565b60006020820190508181036000830152613ef981613ebd565b9050919050565b7f4e487b7100000000000000000000000000000000000000000000000000000000600052601260045260246000fd5b6000613f3a82612a68565b9150613f4583612a68565b925082613f5557613f54613f00565b5b828204905092915050565b6000613f6b82612a68565b9150613f7683612a68565b925082613f8657613f85613f00565b5b82820690509291505056fe68747470733a2f2f6170692e7072756e656d61726b65742e78797a3a3434342f6e66742f6974656d2f746b6d2fa26469706673582212208a3a168a9b36da2ceacb7a6c73cd7307f6d72b795d7824f1537a656b73afce5064736f6c634300080e0033",
  "immutableReferences": {},
  "source": "// SPDX-License-Identifier: MIT\r\n\r\npragma solidity ^0.8.14;\r\n\r\nimport \"@openzeppelin/contracts/token/ERC721/ERC721.sol\";\r\nimport \"@openzeppelin/contracts/token/ERC721/extensions/ERC721URIStorage.sol\";\r\nimport \"@openzeppelin/contracts/security/Pausable.sol\";\r\nimport \"@openzeppelin/contracts/access/AccessControl.sol\";\r\nimport \"@openzeppelin/contracts/access/Ownable.sol\";\r\n\r\ncontract TKMNftB is ERC721, ERC721URIStorage, Pausable, AccessControl, Ownable {\r\n    bytes32 public constant MINTER_ROLE = keccak256(\"MINTER_ROLE\");\r\n    bytes32 public constant HOLDER_ROLE = keccak256(\"HOLDER_ROLE\");\r\n\r\n    event NftBurn(uint256 indexed tokenId, uint16 indexed reason);\r\n\r\n    uint256 public nftId;\r\n\r\n    constructor(address _minter, address _holder)\r\n        ERC721(\"Three Kingdom Multiverse Nft\", \"3KMNft_B\")\r\n    {\r\n        _grantRole(DEFAULT_ADMIN_ROLE, msg.sender);\r\n        _grantRole(MINTER_ROLE, _minter);\r\n        _grantRole(HOLDER_ROLE, _holder);\r\n    }\r\n\r\n    function pause() public onlyRole(DEFAULT_ADMIN_ROLE) {\r\n        _pause();\r\n    }\r\n\r\n    function unpause() public onlyRole(DEFAULT_ADMIN_ROLE) {\r\n        _unpause();\r\n    }\r\n\r\n    function Mint(address nftOwner) external whenNotPaused onlyRole(MINTER_ROLE) returns (uint256) {\r\n        ++nftId;\r\n        _safeMint(nftOwner, nftId);\r\n        return nftId;\r\n    }\r\n\r\n    function Burn(uint256 _nftId, uint16 reason) external whenNotPaused onlyRole(HOLDER_ROLE) {\r\n        _burn(_nftId);\r\n        emit NftBurn(_nftId, reason);\r\n    }\r\n\r\n    function _baseURI() internal pure override returns (string memory) {\r\n        return \"https://api.prunemarket.xyz:444/nft/item/tkm/\";\r\n    }\r\n\r\n    function _beforeTokenTransfer(\r\n        address from,\r\n        address to,\r\n        uint256 tokenId\r\n    ) internal whenNotPaused override(ERC721) {\r\n        super._beforeTokenTransfer(from, to, tokenId);\r\n    }\r\n\r\n    function _burn(uint256 tokenId)\r\n        internal\r\n        override(ERC721, ERC721URIStorage)\r\n    {\r\n        super._burn(tokenId);\r\n    }\r\n\r\n    function tokenURI(uint256 tokenId)\r\n        public\r\n        view\r\n        override(ERC721, ERC721URIStorage)\r\n        returns (string memory)\r\n    {\r\n        return super.tokenURI(tokenId);\r\n    }\r\n\r\n    function supportsInterface(bytes4 interfaceId)\r\n        public\r\n        view\r\n        override(ERC721, AccessControl)\r\n        returns (bool)\r\n    {\r\n        return super.supportsInterface(interfaceId);\r\n    }\r\n}\r\n",
  "sourcePath": "C:\\Works\\1_Github\\solidity_tinyping\\contracts\\TKMNftB.sol",
  "compiler": {
    "name": "solc",
    "version": "0.8.14+commit.80d49f37.Emscripten.clang"
  },
  "schemaVersion": "3.4.7",
  "updatedAt": "2022-12-29T01:43:31.721Z",
  "networkType": "ethereum",
  "devdoc": {
    "kind": "dev",
    "methods": {
      "approve(address,uint256)": {
        "details": "See {IERC721-approve}."
      },
      "balanceOf(address)": {
        "details": "See {IERC721-balanceOf}."
      },
      "getApproved(uint256)": {
        "details": "See {IERC721-getApproved}."
      },
      "getRoleAdmin(bytes32)": {
        "details": "Returns the admin role that controls `role`. See {grantRole} and {revokeRole}. To change a role's admin, use {_setRoleAdmin}."
      },
      "grantRole(bytes32,address)": {
        "details": "Grants `role` to `account`. If `account` had not been already granted `role`, emits a {RoleGranted} event. Requirements: - the caller must have ``role``'s admin role."
      },
      "hasRole(bytes32,address)": {
        "details": "Returns `true` if `account` has been granted `role`."
      },
      "isApprovedForAll(address,address)": {
        "details": "See {IERC721-isApprovedForAll}."
      },
      "name()": {
        "details": "See {IERC721Metadata-name}."
      },
      "owner()": {
        "details": "Returns the address of the current owner."
      },
      "ownerOf(uint256)": {
        "details": "See {IERC721-ownerOf}."
      },
      "paused()": {
        "details": "Returns true if the contract is paused, and false otherwise."
      },
      "renounceOwnership()": {
        "details": "Leaves the contract without owner. It will not be possible to call `onlyOwner` functions anymore. Can only be called by the current owner. NOTE: Renouncing ownership will leave the contract without an owner, thereby removing any functionality that is only available to the owner."
      },
      "renounceRole(bytes32,address)": {
        "details": "Revokes `role` from the calling account. Roles are often managed via {grantRole} and {revokeRole}: this function's purpose is to provide a mechanism for accounts to lose their privileges if they are compromised (such as when a trusted device is misplaced). If the calling account had been revoked `role`, emits a {RoleRevoked} event. Requirements: - the caller must be `account`."
      },
      "revokeRole(bytes32,address)": {
        "details": "Revokes `role` from `account`. If `account` had been granted `role`, emits a {RoleRevoked} event. Requirements: - the caller must have ``role``'s admin role."
      },
      "safeTransferFrom(address,address,uint256)": {
        "details": "See {IERC721-safeTransferFrom}."
      },
      "safeTransferFrom(address,address,uint256,bytes)": {
        "details": "See {IERC721-safeTransferFrom}."
      },
      "setApprovalForAll(address,bool)": {
        "details": "See {IERC721-setApprovalForAll}."
      },
      "symbol()": {
        "details": "See {IERC721Metadata-symbol}."
      },
      "transferFrom(address,address,uint256)": {
        "details": "See {IERC721-transferFrom}."
      },
      "transferOwnership(address)": {
        "details": "Transfers ownership of the contract to a new account (`newOwner`). Can only be called by the current owner."
      }
    },
    "version": 1
  },
  "userdoc": {
    "kind": "user",
    "methods": {},
    "version": 1
  }
}