{
  "contractName": "TKMToken",
  "abi": [
    {
      "inputs": [
        {
          "internalType": "string",
          "name": "_name",
          "type": "string"
        },
        {
          "internalType": "string",
          "name": "_symbol",
          "type": "string"
        },
        {
          "internalType": "uint256",
          "name": "_initialSupply",
          "type": "uint256"
        }
      ],
      "stateMutability": "nonpayable",
      "type": "constructor"
    },
    {
      "anonymous": false,
      "inputs": [
        {
          "indexed": true,
          "internalType": "address",
          "name": "owner",
          "type": "address"
        },
        {
          "indexed": true,
          "internalType": "address",
          "name": "spender",
          "type": "address"
        },
        {
          "indexed": false,
          "internalType": "uint256",
          "name": "value",
          "type": "uint256"
        }
      ],
      "name": "Approval",
      "type": "event"
    },
    {
      "anonymous": false,
      "inputs": [
        {
          "indexed": true,
          "internalType": "address",
          "name": "previousOwner",
          "type": "address"
        },
        {
          "indexed": true,
          "internalType": "address",
          "name": "newOwner",
          "type": "address"
        }
      ],
      "name": "OwnershipTransferred",
      "type": "event"
    },
    {
      "anonymous": false,
      "inputs": [
        {
          "indexed": true,
          "internalType": "address",
          "name": "from",
          "type": "address"
        },
        {
          "indexed": true,
          "internalType": "address",
          "name": "to",
          "type": "address"
        },
        {
          "indexed": false,
          "internalType": "uint256",
          "name": "value",
          "type": "uint256"
        }
      ],
      "name": "Transfer",
      "type": "event"
    },
    {
      "inputs": [
        {
          "internalType": "address",
          "name": "spender",
          "type": "address"
        },
        {
          "internalType": "uint256",
          "name": "subtractedValue",
          "type": "uint256"
        }
      ],
      "name": "decreaseAllowance",
      "outputs": [
        {
          "internalType": "bool",
          "name": "",
          "type": "bool"
        }
      ],
      "stateMutability": "nonpayable",
      "type": "function"
    },
    {
      "inputs": [
        {
          "internalType": "address",
          "name": "spender",
          "type": "address"
        },
        {
          "internalType": "uint256",
          "name": "addedValue",
          "type": "uint256"
        }
      ],
      "name": "increaseAllowance",
      "outputs": [
        {
          "internalType": "bool",
          "name": "",
          "type": "bool"
        }
      ],
      "stateMutability": "nonpayable",
      "type": "function"
    },
    {
      "inputs": [],
      "name": "owner",
      "outputs": [
        {
          "internalType": "address",
          "name": "",
          "type": "address"
        }
      ],
      "stateMutability": "view",
      "type": "function"
    },
    {
      "inputs": [],
      "name": "renounceOwnership",
      "outputs": [],
      "stateMutability": "nonpayable",
      "type": "function"
    },
    {
      "inputs": [
        {
          "internalType": "address",
          "name": "newOwner",
          "type": "address"
        }
      ],
      "name": "transferOwnership",
      "outputs": [],
      "stateMutability": "nonpayable",
      "type": "function"
    },
    {
      "inputs": [
        {
          "internalType": "bytes4",
          "name": "interfaceId",
          "type": "bytes4"
        }
      ],
      "name": "supportsInterface",
      "outputs": [
        {
          "internalType": "bool",
          "name": "",
          "type": "bool"
        }
      ],
      "stateMutability": "pure",
      "type": "function"
    },
    {
      "inputs": [],
      "name": "name",
      "outputs": [
        {
          "internalType": "string",
          "name": "",
          "type": "string"
        }
      ],
      "stateMutability": "view",
      "type": "function"
    },
    {
      "inputs": [],
      "name": "symbol",
      "outputs": [
        {
          "internalType": "string",
          "name": "",
          "type": "string"
        }
      ],
      "stateMutability": "view",
      "type": "function"
    },
    {
      "inputs": [],
      "name": "decimals",
      "outputs": [
        {
          "internalType": "uint8",
          "name": "",
          "type": "uint8"
        }
      ],
      "stateMutability": "view",
      "type": "function"
    },
    {
      "inputs": [],
      "name": "totalSupply",
      "outputs": [
        {
          "internalType": "uint256",
          "name": "",
          "type": "uint256"
        }
      ],
      "stateMutability": "view",
      "type": "function"
    },
    {
      "inputs": [
        {
          "internalType": "address",
          "name": "account",
          "type": "address"
        }
      ],
      "name": "balanceOf",
      "outputs": [
        {
          "internalType": "uint256",
          "name": "",
          "type": "uint256"
        }
      ],
      "stateMutability": "view",
      "type": "function"
    },
    {
      "inputs": [
        {
          "internalType": "address",
          "name": "recipient",
          "type": "address"
        },
        {
          "internalType": "uint256",
          "name": "amount",
          "type": "uint256"
        }
      ],
      "name": "transfer",
      "outputs": [
        {
          "internalType": "bool",
          "name": "",
          "type": "bool"
        }
      ],
      "stateMutability": "nonpayable",
      "type": "function"
    },
    {
      "inputs": [
        {
          "internalType": "address",
          "name": "owner",
          "type": "address"
        },
        {
          "internalType": "address",
          "name": "spender",
          "type": "address"
        }
      ],
      "name": "allowance",
      "outputs": [
        {
          "internalType": "uint256",
          "name": "",
          "type": "uint256"
        }
      ],
      "stateMutability": "view",
      "type": "function"
    },
    {
      "inputs": [
        {
          "internalType": "address",
          "name": "spender",
          "type": "address"
        },
        {
          "internalType": "uint256",
          "name": "amount",
          "type": "uint256"
        }
      ],
      "name": "approve",
      "outputs": [
        {
          "internalType": "bool",
          "name": "",
          "type": "bool"
        }
      ],
      "stateMutability": "nonpayable",
      "type": "function"
    },
    {
      "inputs": [
        {
          "internalType": "address",
          "name": "sender",
          "type": "address"
        },
        {
          "internalType": "address",
          "name": "recipient",
          "type": "address"
        },
        {
          "internalType": "uint256",
          "name": "amount",
          "type": "uint256"
        }
      ],
      "name": "transferFrom",
      "outputs": [
        {
          "internalType": "bool",
          "name": "",
          "type": "bool"
        }
      ],
      "stateMutability": "nonpayable",
      "type": "function"
    },
    {
      "inputs": [
        {
          "internalType": "address",
          "name": "recipient",
          "type": "address"
        },
        {
          "internalType": "uint256",
          "name": "amount",
          "type": "uint256"
        }
      ],
      "name": "safeTransfer",
      "outputs": [],
      "stateMutability": "nonpayable",
      "type": "function"
    },
    {
      "inputs": [
        {
          "internalType": "address",
          "name": "recipient",
          "type": "address"
        },
        {
          "internalType": "uint256",
          "name": "amount",
          "type": "uint256"
        },
        {
          "internalType": "bytes",
          "name": "data",
          "type": "bytes"
        }
      ],
      "name": "safeTransfer",
      "outputs": [],
      "stateMutability": "nonpayable",
      "type": "function"
    },
    {
      "inputs": [
        {
          "internalType": "address",
          "name": "sender",
          "type": "address"
        },
        {
          "internalType": "address",
          "name": "recipient",
          "type": "address"
        },
        {
          "internalType": "uint256",
          "name": "amount",
          "type": "uint256"
        }
      ],
      "name": "safeTransferFrom",
      "outputs": [],
      "stateMutability": "nonpayable",
      "type": "function"
    },
    {
      "inputs": [
        {
          "internalType": "address",
          "name": "sender",
          "type": "address"
        },
        {
          "internalType": "address",
          "name": "recipient",
          "type": "address"
        },
        {
          "internalType": "uint256",
          "name": "amount",
          "type": "uint256"
        },
        {
          "internalType": "bytes",
          "name": "data",
          "type": "bytes"
        }
      ],
      "name": "safeTransferFrom",
      "outputs": [],
      "stateMutability": "nonpayable",
      "type": "function"
    }
  ],
  "bytecode": "0x60806040523480156200001157600080fd5b506040516200286b3803806200286b83398181016040528101906200003791906200059d565b828281600390805190602001906200005192919062000315565b5080600490805190602001906200006a92919062000315565b5050506200008d62000081620000a860201b60201c565b620000b060201b60201c565b6200009f33826200017660201b60201c565b505050620007d8565b600033905090565b6000600560009054906101000a900473ffffffffffffffffffffffffffffffffffffffff16905081600560006101000a81548173ffffffffffffffffffffffffffffffffffffffff021916908373ffffffffffffffffffffffffffffffffffffffff1602179055508173ffffffffffffffffffffffffffffffffffffffff168173ffffffffffffffffffffffffffffffffffffffff167f8be0079c531659141344cd1fd0a4f28419497f9722a3daafe3b4186f6b6457e060405160405180910390a35050565b600073ffffffffffffffffffffffffffffffffffffffff168273ffffffffffffffffffffffffffffffffffffffff1603620001e8576040517f08c379a0000000000000000000000000000000000000000000000000000000008152600401620001df9062000698565b60405180910390fd5b620001fc60008383620002ee60201b60201c565b8060026000828254620002109190620006e9565b92505081905550806000808473ffffffffffffffffffffffffffffffffffffffff1673ffffffffffffffffffffffffffffffffffffffff1681526020019081526020016000206000828254620002679190620006e9565b925050819055508173ffffffffffffffffffffffffffffffffffffffff16600073ffffffffffffffffffffffffffffffffffffffff167fddf252ad1be2c89b69c2b068fc378daa952ba7f163c4a11628f55a4df523b3ef83604051620002ce919062000757565b60405180910390a3620002ea600083836200030b60201b60201c565b5050565b620003068383836200031060201b620009331760201c565b505050565b505050565b505050565b8280546200032390620007a3565b90600052602060002090601f01602090048101928262000347576000855562000393565b82601f106200036257805160ff191683800117855562000393565b8280016001018555821562000393579182015b828111156200039257825182559160200191906001019062000375565b5b509050620003a29190620003a6565b5090565b5b80821115620003c1576000816000905550600101620003a7565b5090565b6000604051905090565b600080fd5b600080fd5b600080fd5b600080fd5b6000601f19601f8301169050919050565b7f4e487b7100000000000000000000000000000000000000000000000000000000600052604160045260246000fd5b6200042e82620003e3565b810181811067ffffffffffffffff8211171562000450576200044f620003f4565b5b80604052505050565b600062000465620003c5565b905062000473828262000423565b919050565b600067ffffffffffffffff821115620004965762000495620003f4565b5b620004a182620003e3565b9050602081019050919050565b60005b83811015620004ce578082015181840152602081019050620004b1565b83811115620004de576000848401525b50505050565b6000620004fb620004f58462000478565b62000459565b9050828152602081018484840111156200051a5762000519620003de565b5b62000527848285620004ae565b509392505050565b600082601f830112620005475762000546620003d9565b5b815162000559848260208601620004e4565b91505092915050565b6000819050919050565b620005778162000562565b81146200058357600080fd5b50565b60008151905062000597816200056c565b92915050565b600080600060608486031215620005b957620005b8620003cf565b5b600084015167ffffffffffffffff811115620005da57620005d9620003d4565b5b620005e8868287016200052f565b935050602084015167ffffffffffffffff8111156200060c576200060b620003d4565b5b6200061a868287016200052f565b92505060406200062d8682870162000586565b9150509250925092565b600082825260208201905092915050565b7f45524332303a206d696e7420746f20746865207a65726f206164647265737300600082015250565b600062000680601f8362000637565b91506200068d8262000648565b602082019050919050565b60006020820190508181036000830152620006b38162000671565b9050919050565b7f4e487b7100000000000000000000000000000000000000000000000000000000600052601160045260246000fd5b6000620006f68262000562565b9150620007038362000562565b9250827fffffffffffffffffffffffffffffffffffffffffffffffffffffffffffffffff038211156200073b576200073a620006ba565b5b828201905092915050565b620007518162000562565b82525050565b60006020820190506200076e600083018462000746565b92915050565b7f4e487b7100000000000000000000000000000000000000000000000000000000600052602260045260246000fd5b60006002820490506001821680620007bc57607f821691505b602082108103620007d257620007d162000774565b5b50919050565b61208380620007e86000396000f3fe608060405234801561001057600080fd5b50600436106101215760003560e01c806370a08231116100ad578063a9059cbb11610071578063a9059cbb1461031e578063b88d4fde1461034e578063dd62ed3e1461036a578063eb7955491461039a578063f2fde38b146103b657610121565b806370a0823114610278578063715018a6146102a85780638da5cb5b146102b257806395d89b41146102d0578063a457c2d7146102ee57610121565b806323b872dd116100f457806323b872dd146101c2578063313ce567146101f25780633950935114610210578063423f6cef1461024057806342842e0e1461025c57610121565b806301ffc9a71461012657806306fdde0314610156578063095ea7b31461017457806318160ddd146101a4575b600080fd5b610140600480360381019061013b91906113b9565b6103d2565b60405161014d9190611401565b60405180910390f35b61015e6105dc565b60405161016b91906114b5565b60405180910390f35b61018e6004803603810190610189919061156b565b6105eb565b60405161019b9190611401565b60405180910390f35b6101ac6105ff565b6040516101b991906115ba565b60405180910390f35b6101dc60048036038101906101d791906115d5565b61060e565b6040516101e99190611401565b60405180910390f35b6101fa610624565b6040516102079190611644565b60405180910390f35b61022a6004803603810190610225919061156b565b610633565b6040516102379190611401565b60405180910390f35b61025a6004803603810190610255919061156b565b61066a565b005b610276600480360381019061027191906115d5565b610688565b005b610292600480360381019061028d919061165f565b6106a8565b60405161029f91906115ba565b60405180910390f35b6102b06106ba565b005b6102ba610742565b6040516102c7919061169b565b60405180910390f35b6102d861076c565b6040516102e591906114b5565b60405180910390f35b6103086004803603810190610303919061156b565b61077b565b6040516103159190611401565b60405180910390f35b6103386004803603810190610333919061156b565b6107f2565b6040516103459190611401565b60405180910390f35b610368600480360381019061036391906117eb565b610806565b005b610384600480360381019061037f919061186e565b610818565b60405161039191906115ba565b60405180910390f35b6103b460048036038101906103af91906118ae565b61082c565b005b6103d060048036038101906103cb919061165f565b61083c565b005b60007f01ffc9a7000000000000000000000000000000000000000000000000000000007bffffffffffffffffffffffffffffffffffffffffffffffffffffffff1916827bffffffffffffffffffffffffffffffffffffffffffffffffffffffff1916148061049d57507f65787371000000000000000000000000000000000000000000000000000000007bffffffffffffffffffffffffffffffffffffffffffffffffffffffff1916827bffffffffffffffffffffffffffffffffffffffffffffffffffffffff1916145b8061050557507fa219a025000000000000000000000000000000000000000000000000000000007bffffffffffffffffffffffffffffffffffffffffffffffffffffffff1916827bffffffffffffffffffffffffffffffffffffffffffffffffffffffff1916145b8061056d57507f01ffc9a7000000000000000000000000000000000000000000000000000000007bffffffffffffffffffffffffffffffffffffffffffffffffffffffff1916827bffffffffffffffffffffffffffffffffffffffffffffffffffffffff1916145b806105d557507f36372b07000000000000000000000000000000000000000000000000000000007bffffffffffffffffffffffffffffffffffffffffffffffffffffffff1916827bffffffffffffffffffffffffffffffffffffffffffffffffffffffff1916145b9050919050565b60606105e6610938565b905090565b60006105f783836109ca565b905092915050565b60006106096109ed565b905090565b600061061b8484846109f7565b90509392505050565b600061062e610a26565b905090565b60008061063e610a2f565b905061065f8185856106508589610818565b61065a919061194c565b610a37565b600191505092915050565b610684828260405180602001604052806000815250610c00565b5050565b6106a383838360405180602001604052806000815250610c5b565b505050565b60006106b382610cb8565b9050919050565b6106c2610a2f565b73ffffffffffffffffffffffffffffffffffffffff166106e0610742565b73ffffffffffffffffffffffffffffffffffffffff1614610736576040517f08c379a000000000000000000000000000000000000000000000000000000000815260040161072d906119ee565b60405180910390fd5b6107406000610d00565b565b6000600560009054906101000a900473ffffffffffffffffffffffffffffffffffffffff16905090565b6060610776610dc6565b905090565b600080610786610a2f565b905060006107948286610818565b9050838110156107d9576040517f08c379a00000000000000000000000000000000000000000000000000000000081526004016107d090611a80565b60405180910390fd5b6107e68286868403610a37565b60019250505092915050565b60006107fe8383610e58565b905092915050565b61081284848484610c5b565b50505050565b60006108248383610e7b565b905092915050565b610837838383610c00565b505050565b610844610a2f565b73ffffffffffffffffffffffffffffffffffffffff16610862610742565b73ffffffffffffffffffffffffffffffffffffffff16146108b8576040517f08c379a00000000000000000000000000000000000000000000000000000000081526004016108af906119ee565b60405180910390fd5b600073ffffffffffffffffffffffffffffffffffffffff168173ffffffffffffffffffffffffffffffffffffffff1603610927576040517f08c379a000000000000000000000000000000000000000000000000000000000815260040161091e90611b12565b60405180910390fd5b61093081610d00565b50565b505050565b60606003805461094790611b61565b80601f016020809104026020016040519081016040528092919081815260200182805461097390611b61565b80156109c05780601f10610995576101008083540402835291602001916109c0565b820191906000526020600020905b8154815290600101906020018083116109a357829003601f168201915b5050505050905090565b6000806109d5610a2f565b90506109e2818585610a37565b600191505092915050565b6000600254905090565b600080610a02610a2f565b9050610a0f858285610f02565b610a1a858585610f8e565b60019150509392505050565b60006012905090565b600033905090565b600073ffffffffffffffffffffffffffffffffffffffff168373ffffffffffffffffffffffffffffffffffffffff1603610aa6576040517f08c379a0000000000000000000000000000000000000000000000000000000008152600401610a9d90611c04565b60405180910390fd5b600073ffffffffffffffffffffffffffffffffffffffff168273ffffffffffffffffffffffffffffffffffffffff1603610b15576040517f08c379a0000000000000000000000000000000000000000000000000000000008152600401610b0c90611c96565b60405180910390fd5b80600160008573ffffffffffffffffffffffffffffffffffffffff1673ffffffffffffffffffffffffffffffffffffffff16815260200190815260200160002060008473ffffffffffffffffffffffffffffffffffffffff1673ffffffffffffffffffffffffffffffffffffffff168152602001908152602001600020819055508173ffffffffffffffffffffffffffffffffffffffff168373ffffffffffffffffffffffffffffffffffffffff167f8c5be1e5ebec7d5bd14f71427d1e84f3dd0314c0f7b2291e5b200ac8c7c3b92583604051610bf391906115ba565b60405180910390a3505050565b610c0a83836107f2565b50610c173384848461120d565b610c56576040517f08c379a0000000000000000000000000000000000000000000000000000000008152600401610c4d90611d28565b60405180910390fd5b505050565b610c6684848461060e565b50610c738484848461120d565b610cb2576040517f08c379a0000000000000000000000000000000000000000000000000000000008152600401610ca990611d28565b60405180910390fd5b50505050565b60008060008373ffffffffffffffffffffffffffffffffffffffff1673ffffffffffffffffffffffffffffffffffffffff168152602001908152602001600020549050919050565b6000600560009054906101000a900473ffffffffffffffffffffffffffffffffffffffff16905081600560006101000a81548173ffffffffffffffffffffffffffffffffffffffff021916908373ffffffffffffffffffffffffffffffffffffffff1602179055508173ffffffffffffffffffffffffffffffffffffffff168173ffffffffffffffffffffffffffffffffffffffff167f8be0079c531659141344cd1fd0a4f28419497f9722a3daafe3b4186f6b6457e060405160405180910390a35050565b606060048054610dd590611b61565b80601f0160208091040260200160405190810160405280929190818152602001828054610e0190611b61565b8015610e4e5780601f10610e2357610100808354040283529160200191610e4e565b820191906000526020600020905b815481529060010190602001808311610e3157829003601f168201915b5050505050905090565b600080610e63610a2f565b9050610e70818585610f8e565b600191505092915050565b6000600160008473ffffffffffffffffffffffffffffffffffffffff1673ffffffffffffffffffffffffffffffffffffffff16815260200190815260200160002060008373ffffffffffffffffffffffffffffffffffffffff1673ffffffffffffffffffffffffffffffffffffffff16815260200190815260200160002054905092915050565b6000610f0e8484610818565b90507fffffffffffffffffffffffffffffffffffffffffffffffffffffffffffffffff8114610f885781811015610f7a576040517f08c379a0000000000000000000000000000000000000000000000000000000008152600401610f7190611d94565b60405180910390fd5b610f878484848403610a37565b5b50505050565b600073ffffffffffffffffffffffffffffffffffffffff168373ffffffffffffffffffffffffffffffffffffffff1603610ffd576040517f08c379a0000000000000000000000000000000000000000000000000000000008152600401610ff490611e26565b60405180910390fd5b600073ffffffffffffffffffffffffffffffffffffffff168273ffffffffffffffffffffffffffffffffffffffff160361106c576040517f08c379a000000000000000000000000000000000000000000000000000000000815260040161106390611eb8565b60405180910390fd5b611077838383611315565b60008060008573ffffffffffffffffffffffffffffffffffffffff1673ffffffffffffffffffffffffffffffffffffffff168152602001908152602001600020549050818110156110fd576040517f08c379a00000000000000000000000000000000000000000000000000000000081526004016110f490611f4a565b60405180910390fd5b8181036000808673ffffffffffffffffffffffffffffffffffffffff1673ffffffffffffffffffffffffffffffffffffffff16815260200190815260200160002081905550816000808573ffffffffffffffffffffffffffffffffffffffff1673ffffffffffffffffffffffffffffffffffffffff1681526020019081526020016000206000828254611190919061194c565b925050819055508273ffffffffffffffffffffffffffffffffffffffff168473ffffffffffffffffffffffffffffffffffffffff167fddf252ad1be2c89b69c2b068fc378daa952ba7f163c4a11628f55a4df523b3ef846040516111f491906115ba565b60405180910390a3611207848484611325565b50505050565b600061122e8473ffffffffffffffffffffffffffffffffffffffff1661132a565b61123b576001905061130d565b60008473ffffffffffffffffffffffffffffffffffffffff16639d188c22338887876040518563ffffffff1660e01b815260040161127c9493929190611fbf565b6020604051808303816000875af115801561129b573d6000803e3d6000fd5b505050506040513d601f19601f820116820180604052508101906112bf9190612020565b9050639d188c2260e01b7bffffffffffffffffffffffffffffffffffffffffffffffffffffffff1916817bffffffffffffffffffffffffffffffffffffffffffffffffffffffff1916149150505b949350505050565b611320838383610933565b505050565b505050565b6000808273ffffffffffffffffffffffffffffffffffffffff163b119050919050565b6000604051905090565b600080fd5b600080fd5b60007fffffffff0000000000000000000000000000000000000000000000000000000082169050919050565b61139681611361565b81146113a157600080fd5b50565b6000813590506113b38161138d565b92915050565b6000602082840312156113cf576113ce611357565b5b60006113dd848285016113a4565b91505092915050565b60008115159050919050565b6113fb816113e6565b82525050565b600060208201905061141660008301846113f2565b92915050565b600081519050919050565b600082825260208201905092915050565b60005b8381101561145657808201518184015260208101905061143b565b83811115611465576000848401525b50505050565b6000601f19601f8301169050919050565b60006114878261141c565b6114918185611427565b93506114a1818560208601611438565b6114aa8161146b565b840191505092915050565b600060208201905081810360008301526114cf818461147c565b905092915050565b600073ffffffffffffffffffffffffffffffffffffffff82169050919050565b6000611502826114d7565b9050919050565b611512816114f7565b811461151d57600080fd5b50565b60008135905061152f81611509565b92915050565b6000819050919050565b61154881611535565b811461155357600080fd5b50565b6000813590506115658161153f565b92915050565b6000806040838503121561158257611581611357565b5b600061159085828601611520565b92505060206115a185828601611556565b9150509250929050565b6115b481611535565b82525050565b60006020820190506115cf60008301846115ab565b92915050565b6000806000606084860312156115ee576115ed611357565b5b60006115fc86828701611520565b935050602061160d86828701611520565b925050604061161e86828701611556565b9150509250925092565b600060ff82169050919050565b61163e81611628565b82525050565b60006020820190506116596000830184611635565b92915050565b60006020828403121561167557611674611357565b5b600061168384828501611520565b91505092915050565b611695816114f7565b82525050565b60006020820190506116b0600083018461168c565b92915050565b600080fd5b600080fd5b7f4e487b7100000000000000000000000000000000000000000000000000000000600052604160045260246000fd5b6116f88261146b565b810181811067ffffffffffffffff82111715611717576117166116c0565b5b80604052505050565b600061172a61134d565b905061173682826116ef565b919050565b600067ffffffffffffffff821115611756576117556116c0565b5b61175f8261146b565b9050602081019050919050565b82818337600083830152505050565b600061178e6117898461173b565b611720565b9050828152602081018484840111156117aa576117a96116bb565b5b6117b584828561176c565b509392505050565b600082601f8301126117d2576117d16116b6565b5b81356117e284826020860161177b565b91505092915050565b6000806000806080858703121561180557611804611357565b5b600061181387828801611520565b945050602061182487828801611520565b935050604061183587828801611556565b925050606085013567ffffffffffffffff8111156118565761185561135c565b5b611862878288016117bd565b91505092959194509250565b6000806040838503121561188557611884611357565b5b600061189385828601611520565b92505060206118a485828601611520565b9150509250929050565b6000806000606084860312156118c7576118c6611357565b5b60006118d586828701611520565b93505060206118e686828701611556565b925050604084013567ffffffffffffffff8111156119075761190661135c565b5b611913868287016117bd565b9150509250925092565b7f4e487b7100000000000000000000000000000000000000000000000000000000600052601160045260246000fd5b600061195782611535565b915061196283611535565b9250827fffffffffffffffffffffffffffffffffffffffffffffffffffffffffffffffff038211156119975761199661191d565b5b828201905092915050565b7f4f776e61626c653a2063616c6c6572206973206e6f7420746865206f776e6572600082015250565b60006119d8602083611427565b91506119e3826119a2565b602082019050919050565b60006020820190508181036000830152611a07816119cb565b9050919050565b7f45524332303a2064656372656173656420616c6c6f77616e63652062656c6f7760008201527f207a65726f000000000000000000000000000000000000000000000000000000602082015250565b6000611a6a602583611427565b9150611a7582611a0e565b604082019050919050565b60006020820190508181036000830152611a9981611a5d565b9050919050565b7f4f776e61626c653a206e6577206f776e657220697320746865207a65726f206160008201527f6464726573730000000000000000000000000000000000000000000000000000602082015250565b6000611afc602683611427565b9150611b0782611aa0565b604082019050919050565b60006020820190508181036000830152611b2b81611aef565b9050919050565b7f4e487b7100000000000000000000000000000000000000000000000000000000600052602260045260246000fd5b60006002820490506001821680611b7957607f821691505b602082108103611b8c57611b8b611b32565b5b50919050565b7f45524332303a20617070726f76652066726f6d20746865207a65726f2061646460008201527f7265737300000000000000000000000000000000000000000000000000000000602082015250565b6000611bee602483611427565b9150611bf982611b92565b604082019050919050565b60006020820190508181036000830152611c1d81611be1565b9050919050565b7f45524332303a20617070726f766520746f20746865207a65726f20616464726560008201527f7373000000000000000000000000000000000000000000000000000000000000602082015250565b6000611c80602283611427565b9150611c8b82611c24565b604082019050919050565b60006020820190508181036000830152611caf81611c73565b9050919050565b7f4b4950373a207472616e7366657220746f206e6f6e204b49503752656365697660008201527f657220696d706c656d656e746572000000000000000000000000000000000000602082015250565b6000611d12602e83611427565b9150611d1d82611cb6565b604082019050919050565b60006020820190508181036000830152611d4181611d05565b9050919050565b7f45524332303a20696e73756666696369656e7420616c6c6f77616e6365000000600082015250565b6000611d7e601d83611427565b9150611d8982611d48565b602082019050919050565b60006020820190508181036000830152611dad81611d71565b9050919050565b7f45524332303a207472616e736665722066726f6d20746865207a65726f20616460008201527f6472657373000000000000000000000000000000000000000000000000000000602082015250565b6000611e10602583611427565b9150611e1b82611db4565b604082019050919050565b60006020820190508181036000830152611e3f81611e03565b9050919050565b7f45524332303a207472616e7366657220746f20746865207a65726f206164647260008201527f6573730000000000000000000000000000000000000000000000000000000000602082015250565b6000611ea2602383611427565b9150611ead82611e46565b604082019050919050565b60006020820190508181036000830152611ed181611e95565b9050919050565b7f45524332303a207472616e7366657220616d6f756e742065786365656473206260008201527f616c616e63650000000000000000000000000000000000000000000000000000602082015250565b6000611f34602683611427565b9150611f3f82611ed8565b604082019050919050565b60006020820190508181036000830152611f6381611f27565b9050919050565b600081519050919050565b600082825260208201905092915050565b6000611f9182611f6a565b611f9b8185611f75565b9350611fab818560208601611438565b611fb48161146b565b840191505092915050565b6000608082019050611fd4600083018761168c565b611fe1602083018661168c565b611fee60408301856115ab565b81810360608301526120008184611f86565b905095945050505050565b60008151905061201a8161138d565b92915050565b60006020828403121561203657612035611357565b5b60006120448482850161200b565b9150509291505056fea264697066735822122004328344bafecf56a792ebdaf604306b9dc644ff02682e67f3dd610c05b4f99b64736f6c634300080e0033",
  "immutableReferences": {},
  "source": "// SPDX-FileCopyrightText: 2022 ISKRA Pte. Ltd.\r\n// SPDX-License-Identifier: MIT\r\n// @author iskra.world dev team\r\n\r\npragma solidity ^0.8.2;\r\n\r\nimport \"@openzeppelin/contracts/access/Ownable.sol\";\r\nimport \"@openzeppelin/contracts/security/Pausable.sol\";\r\nimport \"@openzeppelin/contracts/token/ERC20/ERC20.sol\";\r\nimport \"@openzeppelin/contracts/token/ERC20/IERC20.sol\";\r\nimport \"@openzeppelin/contracts/utils/Address.sol\";\r\nimport \"@openzeppelin/contracts/utils/introspection/IERC165.sol\";\r\nimport \"../kip/IKIP13.sol\";\r\nimport \"../kip/IKIP7.sol\";\r\nimport \"../kip/IKIP7Metadata.sol\";\r\nimport \"../kip/IKIP7Receiver.sol\";\r\n\r\ncontract TKMToken is IKIP13, IKIP7, IKIP7Metadata, IERC165, ERC20, Ownable {\r\n    using Address for address;\r\n\r\n    bytes4 private constant _KIP7_RECEIVED = 0x9d188c22;\r\n\r\n    constructor(\r\n        string memory _name,\r\n        string memory _symbol,\r\n        uint256 _initialSupply\r\n    ) ERC20(_name, _symbol) {\r\n        _mint(msg.sender, _initialSupply);\r\n    }\r\n\r\n    function supportsInterface(bytes4 interfaceId)\r\n        external\r\n        pure\r\n        override(IKIP13, IERC165)\r\n        returns (bool)\r\n    {\r\n        return\r\n            interfaceId == type(IKIP13).interfaceId ||\r\n            interfaceId == type(IKIP7).interfaceId ||\r\n            interfaceId == type(IKIP7Metadata).interfaceId ||\r\n            interfaceId == type(IERC165).interfaceId ||\r\n            interfaceId == type(IERC20).interfaceId;\r\n    }\r\n\r\n    function name()\r\n        public\r\n        view\r\n        override(IKIP7Metadata, ERC20)\r\n        returns (string memory)\r\n    {\r\n        return super.name();\r\n    }\r\n\r\n    function symbol()\r\n        public\r\n        view\r\n        override(IKIP7Metadata, ERC20)\r\n        returns (string memory)\r\n    {\r\n        return super.symbol();\r\n    }\r\n\r\n    function decimals()\r\n        public\r\n        view\r\n        override(IKIP7Metadata, ERC20)\r\n        returns (uint8)\r\n    {\r\n        return super.decimals();\r\n    }\r\n\r\n    function totalSupply()\r\n        public\r\n        view\r\n        override(IKIP7, ERC20)\r\n        returns (uint256)\r\n    {\r\n        return super.totalSupply();\r\n    }\r\n\r\n    function balanceOf(address account)\r\n        public\r\n        view\r\n        override(IKIP7, ERC20)\r\n        returns (uint256)\r\n    {\r\n        return super.balanceOf(account);\r\n    }\r\n\r\n    function transfer(address recipient, uint256 amount)\r\n        public\r\n        override(IKIP7, ERC20)\r\n        returns (bool)\r\n    {\r\n        return super.transfer(recipient, amount);\r\n    }\r\n\r\n    function allowance(address owner, address spender)\r\n        public\r\n        view\r\n        override(IKIP7, ERC20)\r\n        returns (uint256)\r\n    {\r\n        return super.allowance(owner, spender);\r\n    }\r\n\r\n    function approve(address spender, uint256 amount)\r\n        public\r\n        override(IKIP7, ERC20)\r\n        returns (bool)\r\n    {\r\n        return super.approve(spender, amount);\r\n    }\r\n\r\n    function transferFrom(\r\n        address sender,\r\n        address recipient,\r\n        uint256 amount\r\n    ) public override(IKIP7, ERC20) returns (bool) {\r\n        return super.transferFrom(sender, recipient, amount);\r\n    }\r\n\r\n    function safeTransfer(\r\n        address recipient,\r\n        uint256 amount,\r\n        bytes memory data\r\n    ) external override {\r\n        _safeTransfer(recipient, amount, data);\r\n    }\r\n\r\n    function safeTransfer(address recipient, uint256 amount) external override {\r\n        _safeTransfer(recipient, amount, \"\");\r\n    }\r\n\r\n    function safeTransferFrom(\r\n        address sender,\r\n        address recipient,\r\n        uint256 amount,\r\n        bytes memory data\r\n    ) external override {\r\n        _safeTransferFrom(sender, recipient, amount, data);\r\n    }\r\n\r\n    function safeTransferFrom(\r\n        address sender,\r\n        address recipient,\r\n        uint256 amount\r\n    ) external override {\r\n        _safeTransferFrom(sender, recipient, amount, \"\");\r\n    }\r\n\r\n    function _beforeTokenTransfer(\r\n        address from,\r\n        address to,\r\n        uint256 amount\r\n    ) internal override {\r\n        super._beforeTokenTransfer(from, to, amount);\r\n    }\r\n\r\n    function _safeTransfer(\r\n        address recipient,\r\n        uint256 amount,\r\n        bytes memory data\r\n    ) internal {\r\n        transfer(recipient, amount);\r\n        require(\r\n            _checkOnKIP7Received(msg.sender, recipient, amount, data),\r\n            \"KIP7: transfer to non KIP7Receiver implementer\"\r\n        );\r\n    }\r\n\r\n    function _safeTransferFrom(\r\n        address sender,\r\n        address recipient,\r\n        uint256 amount,\r\n        bytes memory data\r\n    ) internal {\r\n        transferFrom(sender, recipient, amount);\r\n        require(\r\n            _checkOnKIP7Received(sender, recipient, amount, data),\r\n            \"KIP7: transfer to non KIP7Receiver implementer\"\r\n        );\r\n    }\r\n\r\n    function _checkOnKIP7Received(\r\n        address sender,\r\n        address recipient,\r\n        uint256 amount,\r\n        bytes memory _data\r\n    ) internal returns (bool) {\r\n        if (!recipient.isContract()) {\r\n            return true;\r\n        }\r\n\r\n        bytes4 retval = IKIP7Receiver(recipient).onKIP7Received(\r\n            msg.sender,\r\n            sender,\r\n            amount,\r\n            _data\r\n        );\r\n        return (retval == _KIP7_RECEIVED);\r\n    }\r\n}",
  "sourcePath": "C:\\Works\\1_Github\\solidity_tinyping\\contracts\\TKMToken.sol",
  "compiler": {
    "name": "solc",
    "version": "0.8.14+commit.80d49f37.Emscripten.clang"
  },
  "schemaVersion": "3.4.7",
  "updatedAt": "2022-12-22T07:55:24.817Z",
  "devdoc": {
    "kind": "dev",
    "methods": {
      "decreaseAllowance(address,uint256)": {
        "details": "Atomically decreases the allowance granted to `spender` by the caller. This is an alternative to {approve} that can be used as a mitigation for problems described in {IERC20-approve}. Emits an {Approval} event indicating the updated allowance. Requirements: - `spender` cannot be the zero address. - `spender` must have allowance for the caller of at least `subtractedValue`."
      },
      "increaseAllowance(address,uint256)": {
        "details": "Atomically increases the allowance granted to `spender` by the caller. This is an alternative to {approve} that can be used as a mitigation for problems described in {IERC20-approve}. Emits an {Approval} event indicating the updated allowance. Requirements: - `spender` cannot be the zero address."
      },
      "owner()": {
        "details": "Returns the address of the current owner."
      },
      "renounceOwnership()": {
        "details": "Leaves the contract without owner. It will not be possible to call `onlyOwner` functions anymore. Can only be called by the current owner. NOTE: Renouncing ownership will leave the contract without an owner, thereby removing any functionality that is only available to the owner."
      },
      "safeTransfer(address,uint256)": {
        "details": "This works identically to the other function with an extra data parameter,  except this function just sets data to \"\".",
        "params": {
          "amount": "The token amount will be transferred.",
          "recipient": "The owner will receive the tokens."
        }
      },
      "safeTransfer(address,uint256,bytes)": {
        "details": "Throws if the message caller's balance does not have enough tokens to spend. Throws if the contract is pausable and paused. Throws if `_to` is the zero address. When transfer is complete, this function checks if `_to` is a smart contract (code size > 0). If so, it calls  `onKIP7Received` on `_to` and throws if the return value is not  `bytes4(keccak256(\"onKIP7Received(address,address,uint256,bytes)\"))`.",
        "params": {
          "amount": "The token amount will be transferred.",
          "data": "Additional data with no specified format, sent in call to `_to`",
          "recipient": "The owner will receive the tokens."
        }
      },
      "safeTransferFrom(address,address,uint256)": {
        "details": "This works identically to the other function with an extra data parameter,  except this function just sets data to \"\".",
        "params": {
          "amount": "The token amount will be transferred.",
          "recipient": "The owner will receive the tokens.",
          "sender": "The current owner of the tokens."
        }
      },
      "safeTransferFrom(address,address,uint256,bytes)": {
        "details": "Throw unless the `sender` account has deliberately authorized the sender of the message via some mechanism. Throw if `sender` or `recipient` is the zero address. Throws if the contract is pausable and paused. When transfer is complete, this function checks if `_to` is a smart contract (code size > 0). If so, it calls  `onKIP7Received` on `_to` and throws if the return value is not  `bytes4(keccak256(\"onKIP7Received(address,address,uint256,bytes)\"))`. Emits a {Transfer} event. Emits an `Approval` event indicating the updated allowance.",
        "params": {
          "amount": "The token amount will be transferred.",
          "data": "Additional data with no specified format, sent in call to `_to`",
          "recipient": "The owner will receive the tokens.",
          "sender": "The current owner of the tokens."
        }
      },
      "transferOwnership(address)": {
        "details": "Transfers ownership of the contract to a new account (`newOwner`). Can only be called by the current owner."
      }
    },
    "version": 1
  },
  "userdoc": {
    "kind": "user",
    "methods": {
      "safeTransfer(address,uint256)": {
        "notice": "Moves `amount` tokens from the caller's account to `recipient`."
      },
      "safeTransfer(address,uint256,bytes)": {
        "notice": "Moves `amount` tokens from the caller's account to `recipient`."
      },
      "safeTransferFrom(address,address,uint256)": {
        "notice": "Moves `amount` tokens from `sender` to `recipient` using the allowance mechanism. `amount` is then deducted from the caller's allowance."
      },
      "safeTransferFrom(address,address,uint256,bytes)": {
        "notice": "Moves `amount` tokens from `sender` to `recipient` using the allowance mechanism. `amount` is then deducted from the caller's allowance."
      }
    },
    "version": 1
  }
}