{
  "contractName": "TKMBox1155A",
  "abi": [
    {
      "inputs": [
        {
          "internalType": "address",
          "name": "minter_",
          "type": "address"
        }
      ],
      "stateMutability": "nonpayable",
      "type": "constructor"
    },
    {
      "anonymous": false,
      "inputs": [
        {
          "indexed": true,
          "internalType": "address",
          "name": "account",
          "type": "address"
        },
        {
          "indexed": true,
          "internalType": "address",
          "name": "operator",
          "type": "address"
        },
        {
          "indexed": false,
          "internalType": "bool",
          "name": "approved",
          "type": "bool"
        }
      ],
      "name": "ApprovalForAll",
      "type": "event"
    },
    {
      "anonymous": false,
      "inputs": [
        {
          "indexed": true,
          "internalType": "address",
          "name": "opener",
          "type": "address"
        },
        {
          "indexed": true,
          "internalType": "uint256",
          "name": "tokenId",
          "type": "uint256"
        }
      ],
      "name": "BoxOpen",
      "type": "event"
    },
    {
      "anonymous": false,
      "inputs": [
        {
          "indexed": true,
          "internalType": "address",
          "name": "from",
          "type": "address"
        },
        {
          "indexed": true,
          "internalType": "address",
          "name": "to",
          "type": "address"
        }
      ],
      "name": "ChangeMinter",
      "type": "event"
    },
    {
      "anonymous": false,
      "inputs": [
        {
          "indexed": true,
          "internalType": "address",
          "name": "from",
          "type": "address"
        },
        {
          "indexed": true,
          "internalType": "address",
          "name": "to",
          "type": "address"
        }
      ],
      "name": "ChangeOwner",
      "type": "event"
    },
    {
      "anonymous": false,
      "inputs": [
        {
          "indexed": true,
          "internalType": "address",
          "name": "operator",
          "type": "address"
        },
        {
          "indexed": true,
          "internalType": "address",
          "name": "from",
          "type": "address"
        },
        {
          "indexed": true,
          "internalType": "address",
          "name": "to",
          "type": "address"
        },
        {
          "indexed": false,
          "internalType": "uint256[]",
          "name": "ids",
          "type": "uint256[]"
        },
        {
          "indexed": false,
          "internalType": "uint256[]",
          "name": "values",
          "type": "uint256[]"
        }
      ],
      "name": "TransferBatch",
      "type": "event"
    },
    {
      "anonymous": false,
      "inputs": [
        {
          "indexed": true,
          "internalType": "address",
          "name": "operator",
          "type": "address"
        },
        {
          "indexed": true,
          "internalType": "address",
          "name": "from",
          "type": "address"
        },
        {
          "indexed": true,
          "internalType": "address",
          "name": "to",
          "type": "address"
        },
        {
          "indexed": false,
          "internalType": "uint256",
          "name": "id",
          "type": "uint256"
        },
        {
          "indexed": false,
          "internalType": "uint256",
          "name": "value",
          "type": "uint256"
        }
      ],
      "name": "TransferSingle",
      "type": "event"
    },
    {
      "anonymous": false,
      "inputs": [
        {
          "indexed": false,
          "internalType": "string",
          "name": "value",
          "type": "string"
        },
        {
          "indexed": true,
          "internalType": "uint256",
          "name": "id",
          "type": "uint256"
        }
      ],
      "name": "URI",
      "type": "event"
    },
    {
      "inputs": [
        {
          "internalType": "address",
          "name": "account",
          "type": "address"
        },
        {
          "internalType": "uint256",
          "name": "id",
          "type": "uint256"
        }
      ],
      "name": "balanceOf",
      "outputs": [
        {
          "internalType": "uint256",
          "name": "",
          "type": "uint256"
        }
      ],
      "stateMutability": "view",
      "type": "function"
    },
    {
      "inputs": [
        {
          "internalType": "address[]",
          "name": "accounts",
          "type": "address[]"
        },
        {
          "internalType": "uint256[]",
          "name": "ids",
          "type": "uint256[]"
        }
      ],
      "name": "balanceOfBatch",
      "outputs": [
        {
          "internalType": "uint256[]",
          "name": "",
          "type": "uint256[]"
        }
      ],
      "stateMutability": "view",
      "type": "function"
    },
    {
      "inputs": [
        {
          "internalType": "address",
          "name": "newMinter_",
          "type": "address"
        }
      ],
      "name": "changeMinter",
      "outputs": [],
      "stateMutability": "nonpayable",
      "type": "function"
    },
    {
      "inputs": [
        {
          "internalType": "address payable",
          "name": "newOwner_",
          "type": "address"
        }
      ],
      "name": "changeOwner",
      "outputs": [],
      "stateMutability": "nonpayable",
      "type": "function"
    },
    {
      "inputs": [
        {
          "internalType": "address",
          "name": "owner",
          "type": "address"
        }
      ],
      "name": "collection",
      "outputs": [
        {
          "internalType": "uint256[]",
          "name": "",
          "type": "uint256[]"
        }
      ],
      "stateMutability": "view",
      "type": "function"
    },
    {
      "inputs": [
        {
          "internalType": "uint256",
          "name": "id",
          "type": "uint256"
        }
      ],
      "name": "exists",
      "outputs": [
        {
          "internalType": "bool",
          "name": "",
          "type": "bool"
        }
      ],
      "stateMutability": "view",
      "type": "function"
    },
    {
      "inputs": [
        {
          "internalType": "address",
          "name": "account",
          "type": "address"
        },
        {
          "internalType": "address",
          "name": "operator",
          "type": "address"
        }
      ],
      "name": "isApprovedForAll",
      "outputs": [
        {
          "internalType": "bool",
          "name": "",
          "type": "bool"
        }
      ],
      "stateMutability": "view",
      "type": "function"
    },
    {
      "inputs": [],
      "name": "minter",
      "outputs": [
        {
          "internalType": "address",
          "name": "",
          "type": "address"
        }
      ],
      "stateMutability": "view",
      "type": "function"
    },
    {
      "inputs": [],
      "name": "name",
      "outputs": [
        {
          "internalType": "string",
          "name": "",
          "type": "string"
        }
      ],
      "stateMutability": "view",
      "type": "function"
    },
    {
      "inputs": [],
      "name": "owner",
      "outputs": [
        {
          "internalType": "address payable",
          "name": "",
          "type": "address"
        }
      ],
      "stateMutability": "view",
      "type": "function"
    },
    {
      "inputs": [
        {
          "internalType": "address",
          "name": "from",
          "type": "address"
        },
        {
          "internalType": "address",
          "name": "to",
          "type": "address"
        },
        {
          "internalType": "uint256[]",
          "name": "ids",
          "type": "uint256[]"
        },
        {
          "internalType": "uint256[]",
          "name": "amounts",
          "type": "uint256[]"
        },
        {
          "internalType": "bytes",
          "name": "data",
          "type": "bytes"
        }
      ],
      "name": "safeBatchTransferFrom",
      "outputs": [],
      "stateMutability": "nonpayable",
      "type": "function"
    },
    {
      "inputs": [
        {
          "internalType": "address",
          "name": "from",
          "type": "address"
        },
        {
          "internalType": "address",
          "name": "to",
          "type": "address"
        },
        {
          "internalType": "uint256",
          "name": "id",
          "type": "uint256"
        },
        {
          "internalType": "uint256",
          "name": "amount",
          "type": "uint256"
        },
        {
          "internalType": "bytes",
          "name": "data",
          "type": "bytes"
        }
      ],
      "name": "safeTransferFrom",
      "outputs": [],
      "stateMutability": "nonpayable",
      "type": "function"
    },
    {
      "inputs": [
        {
          "internalType": "address",
          "name": "operator",
          "type": "address"
        },
        {
          "internalType": "bool",
          "name": "approved",
          "type": "bool"
        }
      ],
      "name": "setApprovalForAll",
      "outputs": [],
      "stateMutability": "nonpayable",
      "type": "function"
    },
    {
      "inputs": [
        {
          "internalType": "bytes4",
          "name": "interfaceId",
          "type": "bytes4"
        }
      ],
      "name": "supportsInterface",
      "outputs": [
        {
          "internalType": "bool",
          "name": "",
          "type": "bool"
        }
      ],
      "stateMutability": "view",
      "type": "function"
    },
    {
      "inputs": [],
      "name": "symbol",
      "outputs": [
        {
          "internalType": "string",
          "name": "",
          "type": "string"
        }
      ],
      "stateMutability": "view",
      "type": "function"
    },
    {
      "inputs": [
        {
          "internalType": "uint256",
          "name": "id",
          "type": "uint256"
        }
      ],
      "name": "totalSupply",
      "outputs": [
        {
          "internalType": "uint256",
          "name": "",
          "type": "uint256"
        }
      ],
      "stateMutability": "view",
      "type": "function"
    },
    {
      "inputs": [
        {
          "internalType": "uint256",
          "name": "tokenId",
          "type": "uint256"
        }
      ],
      "name": "uri",
      "outputs": [
        {
          "internalType": "string",
          "name": "",
          "type": "string"
        }
      ],
      "stateMutability": "view",
      "type": "function"
    },
    {
      "inputs": [
        {
          "internalType": "uint256[]",
          "name": "ids",
          "type": "uint256[]"
        },
        {
          "internalType": "uint256[]",
          "name": "amounts",
          "type": "uint256[]"
        }
      ],
      "name": "inoMint",
      "outputs": [],
      "stateMutability": "nonpayable",
      "type": "function"
    },
    {
      "inputs": [
        {
          "internalType": "uint256",
          "name": "tokenId",
          "type": "uint256"
        }
      ],
      "name": "boxOpen",
      "outputs": [],
      "stateMutability": "nonpayable",
      "type": "function"
    }
  ],
  "bytecode": "0x60806040526040518060400160405280601181526020017f334b4d204d79737465727920426f7820410000000000000000000000000000008152506008908051906020019062000051929190620001a6565b506040518060400160405280600781526020017f334b4d426f784100000000000000000000000000000000000000000000000000815250600990805190602001906200009f929190620001a6565b50348015620000ad57600080fd5b50604051620047ef380380620047ef8339818101604052810190620000d39190620002c0565b80604051806060016040528060328152602001620047bd60329139620000ff816200018a60201b60201c565b5033600660006101000a81548173ffffffffffffffffffffffffffffffffffffffff021916908373ffffffffffffffffffffffffffffffffffffffff16021790555080600760006101000a81548173ffffffffffffffffffffffffffffffffffffffff021916908373ffffffffffffffffffffffffffffffffffffffff160217905550505062000356565b8060029080519060200190620001a2929190620001a6565b5050565b828054620001b49062000321565b90600052602060002090601f016020900481019282620001d8576000855562000224565b82601f10620001f357805160ff191683800117855562000224565b8280016001018555821562000224579182015b828111156200022357825182559160200191906001019062000206565b5b50905062000233919062000237565b5090565b5b808211156200025257600081600090555060010162000238565b5090565b600080fd5b600073ffffffffffffffffffffffffffffffffffffffff82169050919050565b600062000288826200025b565b9050919050565b6200029a816200027b565b8114620002a657600080fd5b50565b600081519050620002ba816200028f565b92915050565b600060208284031215620002d957620002d862000256565b5b6000620002e984828501620002a9565b91505092915050565b7f4e487b7100000000000000000000000000000000000000000000000000000000600052602260045260246000fd5b600060028204905060018216806200033a57607f821691505b60208210810362000350576200034f620002f2565b5b50919050565b61445780620003666000396000f3fe608060405234801561001057600080fd5b50600436106101205760003560e01c80634f558e79116100ad578063bd85b03911610071578063bd85b03914610319578063e322b36814610349578063e94886d214610365578063e985e9c514610395578063f242432a146103c557610120565b80634f558e79146102755780638da5cb5b146102a557806395d89b41146102c3578063a22cb465146102e1578063a6f9dae1146102fd57610120565b80630e89341c116100f45780630e89341c146101c15780632c4d4d18146101f15780632eb2c2d61461020d5780633031530d146102295780634e1273f41461024557610120565b8062fdd58e1461012557806301ffc9a71461015557806306fdde031461018557806307546172146101a3575b600080fd5b61013f600480360381019061013a9190612a42565b6103e1565b60405161014c9190612a91565b60405180910390f35b61016f600480360381019061016a9190612b04565b6104a9565b60405161017c9190612b4c565b60405180910390f35b61018d61058b565b60405161019a9190612c00565b60405180910390f35b6101ab610619565b6040516101b89190612c31565b60405180910390f35b6101db60048036038101906101d69190612c4c565b61063f565b6040516101e89190612c00565b60405180910390f35b61020b60048036038101906102069190612c79565b610680565b005b61022760048036038101906102229190612ea3565b61081d565b005b610243600480360381019061023e9190612f72565b6108be565b005b61025f600480360381019061025a91906130ad565b6109f3565b60405161026c91906131e3565b60405180910390f35b61028f600480360381019061028a9190612c4c565b610b0c565b60405161029c9190612b4c565b60405180910390f35b6102ad610b20565b6040516102ba9190613226565b60405180910390f35b6102cb610b46565b6040516102d89190612c00565b60405180910390f35b6102fb60048036038101906102f6919061326d565b610bd4565b005b610317600480360381019061031291906132d9565b610bea565b005b610333600480360381019061032e9190612c4c565b610d87565b6040516103409190612a91565b60405180910390f35b610363600480360381019061035e9190612c4c565b610da4565b005b61037f600480360381019061037a9190612c79565b610e43565b60405161038c91906131e3565b60405180910390f35b6103af60048036038101906103aa9190613306565b610eda565b6040516103bc9190612b4c565b60405180910390f35b6103df60048036038101906103da9190613346565b610f6e565b005b60008073ffffffffffffffffffffffffffffffffffffffff168373ffffffffffffffffffffffffffffffffffffffff1603610451576040517f08c379a00000000000000000000000000000000000000000000000000000000081526004016104489061344f565b60405180910390fd5b60008083815260200190815260200160002060008473ffffffffffffffffffffffffffffffffffffffff1673ffffffffffffffffffffffffffffffffffffffff16815260200190815260200160002054905092915050565b60007fd9b67a26000000000000000000000000000000000000000000000000000000007bffffffffffffffffffffffffffffffffffffffffffffffffffffffff1916827bffffffffffffffffffffffffffffffffffffffffffffffffffffffff1916148061057457507f0e89341c000000000000000000000000000000000000000000000000000000007bffffffffffffffffffffffffffffffffffffffffffffffffffffffff1916827bffffffffffffffffffffffffffffffffffffffffffffffffffffffff1916145b8061058457506105838261100f565b5b9050919050565b600880546105989061349e565b80601f01602080910402602001604051908101604052809291908181526020018280546105c49061349e565b80156106115780601f106105e657610100808354040283529160200191610611565b820191906000526020600020905b8154815290600101906020018083116105f457829003601f168201915b505050505081565b600760009054906101000a900473ffffffffffffffffffffffffffffffffffffffff1681565b6060600061064c83611079565b9050806106588461110d565b60405160200161066992919061350b565b604051602081830303815290604052915050919050565b600760009054906101000a900473ffffffffffffffffffffffffffffffffffffffff1673ffffffffffffffffffffffffffffffffffffffff163373ffffffffffffffffffffffffffffffffffffffff1614610710576040517f08c379a0000000000000000000000000000000000000000000000000000000008152600401610707906135a1565b60405180910390fd5b600073ffffffffffffffffffffffffffffffffffffffff168173ffffffffffffffffffffffffffffffffffffffff160361077f576040517f08c379a00000000000000000000000000000000000000000000000000000000081526004016107769061360d565b60405180910390fd5b80600760006101000a81548173ffffffffffffffffffffffffffffffffffffffff021916908373ffffffffffffffffffffffffffffffffffffffff1602179055508073ffffffffffffffffffffffffffffffffffffffff163373ffffffffffffffffffffffffffffffffffffffff167fcba8b2f67b1b66244252c443e6260110af641687bcceb46c810da702119ec82860405160405180910390a350565b61082561126d565b73ffffffffffffffffffffffffffffffffffffffff168573ffffffffffffffffffffffffffffffffffffffff16148061086b575061086a8561086561126d565b610eda565b5b6108aa576040517f08c379a00000000000000000000000000000000000000000000000000000000081526004016108a19061369f565b60405180910390fd5b6108b78585858585611275565b5050505050565b600760009054906101000a900473ffffffffffffffffffffffffffffffffffffffff1673ffffffffffffffffffffffffffffffffffffffff163373ffffffffffffffffffffffffffffffffffffffff161461094e576040517f08c379a0000000000000000000000000000000000000000000000000000000008152600401610945906135a1565b60405180910390fd5b60005b82518110156109d35761097e33848381518110610971576109706136bf565b5b60200260200101516103e1565b6001116109c0576040517f08c379a00000000000000000000000000000000000000000000000000000000081526004016109b790613760565b60405180910390fd5b80806109cb906137af565b915050610951565b506109ef33838360405180602001604052806000815250611596565b5050565b60608151835114610a39576040517f08c379a0000000000000000000000000000000000000000000000000000000008152600401610a3090613869565b60405180910390fd5b6000835167ffffffffffffffff811115610a5657610a55612cab565b5b604051908082528060200260200182016040528015610a845781602001602082028036833780820191505090505b50905060005b8451811015610b0157610ad1858281518110610aa957610aa86136bf565b5b6020026020010151858381518110610ac457610ac36136bf565b5b60200260200101516103e1565b828281518110610ae457610ae36136bf565b5b60200260200101818152505080610afa906137af565b9050610a8a565b508091505092915050565b600080610b1883610d87565b119050919050565b600660009054906101000a900473ffffffffffffffffffffffffffffffffffffffff1681565b60098054610b539061349e565b80601f0160208091040260200160405190810160405280929190818152602001828054610b7f9061349e565b8015610bcc5780601f10610ba157610100808354040283529160200191610bcc565b820191906000526020600020905b815481529060010190602001808311610baf57829003601f168201915b505050505081565b610be6610bdf61126d565b83836117c2565b5050565b600660009054906101000a900473ffffffffffffffffffffffffffffffffffffffff1673ffffffffffffffffffffffffffffffffffffffff163373ffffffffffffffffffffffffffffffffffffffff1614610c7a576040517f08c379a0000000000000000000000000000000000000000000000000000000008152600401610c71906138fb565b60405180910390fd5b600073ffffffffffffffffffffffffffffffffffffffff168173ffffffffffffffffffffffffffffffffffffffff1603610ce9576040517f08c379a0000000000000000000000000000000000000000000000000000000008152600401610ce090613967565b60405180910390fd5b80600660006101000a81548173ffffffffffffffffffffffffffffffffffffffff021916908373ffffffffffffffffffffffffffffffffffffffff1602179055508073ffffffffffffffffffffffffffffffffffffffff163373ffffffffffffffffffffffffffffffffffffffff167f9aecf86140d81442289f667eb72e1202a8fbb3478a686659952e145e8531965660405160405180910390a350565b600060036000838152602001908152602001600020549050919050565b610dae33826103e1565b600010610df0576040517f08c379a0000000000000000000000000000000000000000000000000000000008152600401610de7906139f9565b60405180910390fd5b610dfc3382600161192e565b803373ffffffffffffffffffffffffffffffffffffffff167fb6d0f573cba3d4a03c7eaa036f7d5a9228d6fb816811d88b4a7c5c9505ffb59260405160405180910390a350565b6060600460008373ffffffffffffffffffffffffffffffffffffffff1673ffffffffffffffffffffffffffffffffffffffff168152602001908152602001600020805480602002602001604051908101604052809291908181526020018280548015610ece57602002820191906000526020600020905b815481526020019060010190808311610eba575b50505050509050919050565b6000600160008473ffffffffffffffffffffffffffffffffffffffff1673ffffffffffffffffffffffffffffffffffffffff16815260200190815260200160002060008373ffffffffffffffffffffffffffffffffffffffff1673ffffffffffffffffffffffffffffffffffffffff16815260200190815260200160002060009054906101000a900460ff16905092915050565b610f7661126d565b73ffffffffffffffffffffffffffffffffffffffff168573ffffffffffffffffffffffffffffffffffffffff161480610fbc5750610fbb85610fb661126d565b610eda565b5b610ffb576040517f08c379a0000000000000000000000000000000000000000000000000000000008152600401610ff290613a8b565b60405180910390fd5b6110088585858585611b74565b5050505050565b60007f01ffc9a7000000000000000000000000000000000000000000000000000000007bffffffffffffffffffffffffffffffffffffffffffffffffffffffff1916827bffffffffffffffffffffffffffffffffffffffffffffffffffffffff1916149050919050565b6060600280546110889061349e565b80601f01602080910402602001604051908101604052809291908181526020018280546110b49061349e565b80156111015780601f106110d657610100808354040283529160200191611101565b820191906000526020600020905b8154815290600101906020018083116110e457829003601f168201915b50505050509050919050565b606060008203611154576040518060400160405280600181526020017f30000000000000000000000000000000000000000000000000000000000000008152509050611268565b600082905060005b6000821461118657808061116f906137af565b915050600a8261117f9190613ada565b915061115c565b60008167ffffffffffffffff8111156111a2576111a1612cab565b5b6040519080825280601f01601f1916602001820160405280156111d45781602001600182028036833780820191505090505b5090505b60008514611261576001826111ed9190613b0b565b9150600a856111fc9190613b3f565b60306112089190613b70565b60f81b81838151811061121e5761121d6136bf565b5b60200101907effffffffffffffffffffffffffffffffffffffffffffffffffffffffffffff1916908160001a905350600a8561125a9190613ada565b94506111d8565b8093505050505b919050565b600033905090565b81518351146112b9576040517f08c379a00000000000000000000000000000000000000000000000000000000081526004016112b090613c38565b60405180910390fd5b600073ffffffffffffffffffffffffffffffffffffffff168473ffffffffffffffffffffffffffffffffffffffff1603611328576040517f08c379a000000000000000000000000000000000000000000000000000000000815260040161131f90613cca565b60405180910390fd5b600061133261126d565b9050611342818787878787611e0f565b60005b84518110156114f3576000858281518110611363576113626136bf565b5b602002602001015190506000858381518110611382576113816136bf565b5b60200260200101519050600080600084815260200190815260200160002060008b73ffffffffffffffffffffffffffffffffffffffff1673ffffffffffffffffffffffffffffffffffffffff16815260200190815260200160002054905081811015611423576040517f08c379a000000000000000000000000000000000000000000000000000000000815260040161141a90613d5c565b60405180910390fd5b81810360008085815260200190815260200160002060008c73ffffffffffffffffffffffffffffffffffffffff1673ffffffffffffffffffffffffffffffffffffffff168152602001908152602001600020819055508160008085815260200190815260200160002060008b73ffffffffffffffffffffffffffffffffffffffff1673ffffffffffffffffffffffffffffffffffffffff16815260200190815260200160002060008282546114d89190613b70565b92505081905550505050806114ec906137af565b9050611345565b508473ffffffffffffffffffffffffffffffffffffffff168673ffffffffffffffffffffffffffffffffffffffff168273ffffffffffffffffffffffffffffffffffffffff167f4a39dc06d4c0dbc64b70af90fd698a233a518aa5d07e595d983b8c0526c8f7fb878760405161156a929190613d7c565b60405180910390a4611580818787878787611e25565b61158e818787878787611e2d565b505050505050565b600073ffffffffffffffffffffffffffffffffffffffff168473ffffffffffffffffffffffffffffffffffffffff1603611605576040517f08c379a00000000000000000000000000000000000000000000000000000000081526004016115fc90613e25565b60405180910390fd5b8151835114611649576040517f08c379a000000000000000000000000000000000000000000000000000000000815260040161164090613c38565b60405180910390fd5b600061165361126d565b905061166481600087878787611e0f565b60005b845181101561171d57838181518110611683576116826136bf565b5b60200260200101516000808784815181106116a1576116a06136bf565b5b6020026020010151815260200190815260200160002060008873ffffffffffffffffffffffffffffffffffffffff1673ffffffffffffffffffffffffffffffffffffffff16815260200190815260200160002060008282546117039190613b70565b925050819055508080611715906137af565b915050611667565b508473ffffffffffffffffffffffffffffffffffffffff16600073ffffffffffffffffffffffffffffffffffffffff168273ffffffffffffffffffffffffffffffffffffffff167f4a39dc06d4c0dbc64b70af90fd698a233a518aa5d07e595d983b8c0526c8f7fb8787604051611795929190613d7c565b60405180910390a46117ac81600087878787611e25565b6117bb81600087878787611e2d565b5050505050565b8173ffffffffffffffffffffffffffffffffffffffff168373ffffffffffffffffffffffffffffffffffffffff1603611830576040517f08c379a000000000000000000000000000000000000000000000000000000000815260040161182790613eb7565b60405180910390fd5b80600160008573ffffffffffffffffffffffffffffffffffffffff1673ffffffffffffffffffffffffffffffffffffffff16815260200190815260200160002060008473ffffffffffffffffffffffffffffffffffffffff1673ffffffffffffffffffffffffffffffffffffffff16815260200190815260200160002060006101000a81548160ff0219169083151502179055508173ffffffffffffffffffffffffffffffffffffffff168373ffffffffffffffffffffffffffffffffffffffff167f17307eab39ab6107e8899845ad3d59bd9653f200f220920489ca2b5937696c31836040516119219190612b4c565b60405180910390a3505050565b600073ffffffffffffffffffffffffffffffffffffffff168373ffffffffffffffffffffffffffffffffffffffff160361199d576040517f08c379a000000000000000000000000000000000000000000000000000000000815260040161199490613f49565b60405180910390fd5b60006119a761126d565b905060006119b484612004565b905060006119c184612004565b90506119e183876000858560405180602001604052806000815250611e0f565b600080600087815260200190815260200160002060008873ffffffffffffffffffffffffffffffffffffffff1673ffffffffffffffffffffffffffffffffffffffff16815260200190815260200160002054905084811015611a78576040517f08c379a0000000000000000000000000000000000000000000000000000000008152600401611a6f90613fdb565b60405180910390fd5b84810360008088815260200190815260200160002060008973ffffffffffffffffffffffffffffffffffffffff1673ffffffffffffffffffffffffffffffffffffffff16815260200190815260200160002081905550600073ffffffffffffffffffffffffffffffffffffffff168773ffffffffffffffffffffffffffffffffffffffff168573ffffffffffffffffffffffffffffffffffffffff167fc3d58168c5ae7397731d063d5bbf3d657854427343f4c083240f7aacaa2d0f628989604051611b45929190613ffb565b60405180910390a4611b6b84886000868660405180602001604052806000815250611e25565b50505050505050565b600073ffffffffffffffffffffffffffffffffffffffff168473ffffffffffffffffffffffffffffffffffffffff1603611be3576040517f08c379a0000000000000000000000000000000000000000000000000000000008152600401611bda90613cca565b60405180910390fd5b6000611bed61126d565b90506000611bfa85612004565b90506000611c0785612004565b9050611c17838989858589611e0f565b600080600088815260200190815260200160002060008a73ffffffffffffffffffffffffffffffffffffffff1673ffffffffffffffffffffffffffffffffffffffff16815260200190815260200160002054905085811015611cae576040517f08c379a0000000000000000000000000000000000000000000000000000000008152600401611ca590613d5c565b60405180910390fd5b85810360008089815260200190815260200160002060008b73ffffffffffffffffffffffffffffffffffffffff1673ffffffffffffffffffffffffffffffffffffffff168152602001908152602001600020819055508560008089815260200190815260200160002060008a73ffffffffffffffffffffffffffffffffffffffff1673ffffffffffffffffffffffffffffffffffffffff1681526020019081526020016000206000828254611d639190613b70565b925050819055508773ffffffffffffffffffffffffffffffffffffffff168973ffffffffffffffffffffffffffffffffffffffff168573ffffffffffffffffffffffffffffffffffffffff167fc3d58168c5ae7397731d063d5bbf3d657854427343f4c083240f7aacaa2d0f628a8a604051611de0929190613ffb565b60405180910390a4611df6848a8a86868a611e25565b611e04848a8a8a8a8a61207e565b505050505050505050565b611e1d868686868686612255565b505050505050565b505050505050565b611e4c8473ffffffffffffffffffffffffffffffffffffffff166123c1565b15611ffc578373ffffffffffffffffffffffffffffffffffffffff1663bc197c8187878686866040518663ffffffff1660e01b8152600401611e92959493929190614079565b6020604051808303816000875af1925050508015611ece57506040513d601f19601f82011682018060405250810190611ecb91906140f6565b60015b611f7357611eda614130565b806308c379a003611f365750611eee614152565b80611ef95750611f38565b806040517f08c379a0000000000000000000000000000000000000000000000000000000008152600401611f2d9190612c00565b60405180910390fd5b505b6040517f08c379a0000000000000000000000000000000000000000000000000000000008152600401611f6a90614254565b60405180910390fd5b63bc197c8160e01b7bffffffffffffffffffffffffffffffffffffffffffffffffffffffff1916817bffffffffffffffffffffffffffffffffffffffffffffffffffffffff191614611ffa576040517f08c379a0000000000000000000000000000000000000000000000000000000008152600401611ff1906142e6565b60405180910390fd5b505b505050505050565b60606000600167ffffffffffffffff81111561202357612022612cab565b5b6040519080825280602002602001820160405280156120515781602001602082028036833780820191505090505b5090508281600081518110612069576120686136bf565b5b60200260200101818152505080915050919050565b61209d8473ffffffffffffffffffffffffffffffffffffffff166123c1565b1561224d578373ffffffffffffffffffffffffffffffffffffffff1663f23a6e6187878686866040518663ffffffff1660e01b81526004016120e3959493929190614306565b6020604051808303816000875af192505050801561211f57506040513d601f19601f8201168201806040525081019061211c91906140f6565b60015b6121c45761212b614130565b806308c379a003612187575061213f614152565b8061214a5750612189565b806040517f08c379a000000000000000000000000000000000000000000000000000000000815260040161217e9190612c00565b60405180910390fd5b505b6040517f08c379a00000000000000000000000000000000000000000000000000000000081526004016121bb90614254565b60405180910390fd5b63f23a6e6160e01b7bffffffffffffffffffffffffffffffffffffffffffffffffffffffff1916817bffffffffffffffffffffffffffffffffffffffffffffffffffffffff19161461224b576040517f08c379a0000000000000000000000000000000000000000000000000000000008152600401612242906142e6565b60405180910390fd5b505b505050505050565b6122638686868686866123e4565b60005b83518110156123b857600073ffffffffffffffffffffffffffffffffffffffff168673ffffffffffffffffffffffffffffffffffffffff16036122cc576122c7858583815181106122ba576122b96136bf565b5b60200260200101516125b4565b6123a7565b600073ffffffffffffffffffffffffffffffffffffffff168573ffffffffffffffffffffffffffffffffffffffff16036123295761232486858381518110612317576123166136bf565b5b60200260200101516126c7565b6123a6565b8573ffffffffffffffffffffffffffffffffffffffff168573ffffffffffffffffffffffffffffffffffffffff16146123a55761238086858381518110612373576123726136bf565b5b60200260200101516126c7565b6123a485858381518110612397576123966136bf565b5b60200260200101516125b4565b5b5b5b806123b1906137af565b9050612266565b50505050505050565b6000808273ffffffffffffffffffffffffffffffffffffffff163b119050919050565b6123f2868686868686612992565b600073ffffffffffffffffffffffffffffffffffffffff168573ffffffffffffffffffffffffffffffffffffffff16036124a35760005b83518110156124a157828181518110612445576124446136bf565b5b602002602001015160036000868481518110612464576124636136bf565b5b6020026020010151815260200190815260200160002060008282546124899190613b70565b925050819055508061249a906137af565b9050612429565b505b600073ffffffffffffffffffffffffffffffffffffffff168473ffffffffffffffffffffffffffffffffffffffff16036125ac5760005b83518110156125aa5760008482815181106124f8576124f76136bf565b5b602002602001015190506000848381518110612517576125166136bf565b5b602002602001015190506000600360008481526020019081526020016000205490508181101561257c576040517f08c379a0000000000000000000000000000000000000000000000000000000008152600401612573906143d2565b60405180910390fd5b8181036003600085815260200190815260200160002081905550505050806125a3906137af565b90506124da565b505b505050505050565b600460008373ffffffffffffffffffffffffffffffffffffffff1673ffffffffffffffffffffffffffffffffffffffff16815260200190815260200160002081908060018154018082558091505060019003906000526020600020016000909190919091505560006001600460008573ffffffffffffffffffffffffffffffffffffffff1673ffffffffffffffffffffffffffffffffffffffff1681526020019081526020016000208054905061266b9190613b0b565b905080600560008573ffffffffffffffffffffffffffffffffffffffff1673ffffffffffffffffffffffffffffffffffffffff168152602001908152602001600020600084815260200190815260200160002081905550505050565b6000600560008473ffffffffffffffffffffffffffffffffffffffff1673ffffffffffffffffffffffffffffffffffffffff1681526020019081526020016000206000838152602001908152602001600020549050600560008473ffffffffffffffffffffffffffffffffffffffff1673ffffffffffffffffffffffffffffffffffffffff1681526020019081526020016000206000838152602001908152602001600020600090556001600460008573ffffffffffffffffffffffffffffffffffffffff1673ffffffffffffffffffffffffffffffffffffffff168152602001908152602001600020805490501115612928576000600460008573ffffffffffffffffffffffffffffffffffffffff1673ffffffffffffffffffffffffffffffffffffffff1681526020019081526020016000206001600460008773ffffffffffffffffffffffffffffffffffffffff1673ffffffffffffffffffffffffffffffffffffffff1681526020019081526020016000208054905061284b9190613b0b565b8154811061285c5761285b6136bf565b5b906000526020600020015490508281146129265781600560008673ffffffffffffffffffffffffffffffffffffffff1673ffffffffffffffffffffffffffffffffffffffff16815260200190815260200160002060008381526020019081526020016000208190555080600460008673ffffffffffffffffffffffffffffffffffffffff1673ffffffffffffffffffffffffffffffffffffffff1681526020019081526020016000208381548110612917576129166136bf565b5b90600052602060002001819055505b505b600460008473ffffffffffffffffffffffffffffffffffffffff1673ffffffffffffffffffffffffffffffffffffffff168152602001908152602001600020805480612977576129766143f2565b5b60019003818190600052602060002001600090559055505050565b505050505050565b6000604051905090565b600080fd5b600080fd5b600073ffffffffffffffffffffffffffffffffffffffff82169050919050565b60006129d9826129ae565b9050919050565b6129e9816129ce565b81146129f457600080fd5b50565b600081359050612a06816129e0565b92915050565b6000819050919050565b612a1f81612a0c565b8114612a2a57600080fd5b50565b600081359050612a3c81612a16565b92915050565b60008060408385031215612a5957612a586129a4565b5b6000612a67858286016129f7565b9250506020612a7885828601612a2d565b9150509250929050565b612a8b81612a0c565b82525050565b6000602082019050612aa66000830184612a82565b92915050565b60007fffffffff0000000000000000000000000000000000000000000000000000000082169050919050565b612ae181612aac565b8114612aec57600080fd5b50565b600081359050612afe81612ad8565b92915050565b600060208284031215612b1a57612b196129a4565b5b6000612b2884828501612aef565b91505092915050565b60008115159050919050565b612b4681612b31565b82525050565b6000602082019050612b616000830184612b3d565b92915050565b600081519050919050565b600082825260208201905092915050565b60005b83811015612ba1578082015181840152602081019050612b86565b83811115612bb0576000848401525b50505050565b6000601f19601f8301169050919050565b6000612bd282612b67565b612bdc8185612b72565b9350612bec818560208601612b83565b612bf581612bb6565b840191505092915050565b60006020820190508181036000830152612c1a8184612bc7565b905092915050565b612c2b816129ce565b82525050565b6000602082019050612c466000830184612c22565b92915050565b600060208284031215612c6257612c616129a4565b5b6000612c7084828501612a2d565b91505092915050565b600060208284031215612c8f57612c8e6129a4565b5b6000612c9d848285016129f7565b91505092915050565b600080fd5b7f4e487b7100000000000000000000000000000000000000000000000000000000600052604160045260246000fd5b612ce382612bb6565b810181811067ffffffffffffffff82111715612d0257612d01612cab565b5b80604052505050565b6000612d1561299a565b9050612d218282612cda565b919050565b600067ffffffffffffffff821115612d4157612d40612cab565b5b602082029050602081019050919050565b600080fd5b6000612d6a612d6584612d26565b612d0b565b90508083825260208201905060208402830185811115612d8d57612d8c612d52565b5b835b81811015612db65780612da28882612a2d565b845260208401935050602081019050612d8f565b5050509392505050565b600082601f830112612dd557612dd4612ca6565b5b8135612de5848260208601612d57565b91505092915050565b600080fd5b600067ffffffffffffffff821115612e0e57612e0d612cab565b5b612e1782612bb6565b9050602081019050919050565b82818337600083830152505050565b6000612e46612e4184612df3565b612d0b565b905082815260208101848484011115612e6257612e61612dee565b5b612e6d848285612e24565b509392505050565b600082601f830112612e8a57612e89612ca6565b5b8135612e9a848260208601612e33565b91505092915050565b600080600080600060a08688031215612ebf57612ebe6129a4565b5b6000612ecd888289016129f7565b9550506020612ede888289016129f7565b945050604086013567ffffffffffffffff811115612eff57612efe6129a9565b5b612f0b88828901612dc0565b935050606086013567ffffffffffffffff811115612f2c57612f2b6129a9565b5b612f3888828901612dc0565b925050608086013567ffffffffffffffff811115612f5957612f586129a9565b5b612f6588828901612e75565b9150509295509295909350565b60008060408385031215612f8957612f886129a4565b5b600083013567ffffffffffffffff811115612fa757612fa66129a9565b5b612fb385828601612dc0565b925050602083013567ffffffffffffffff811115612fd457612fd36129a9565b5b612fe085828601612dc0565b9150509250929050565b600067ffffffffffffffff82111561300557613004612cab565b5b602082029050602081019050919050565b600061302961302484612fea565b612d0b565b9050808382526020820190506020840283018581111561304c5761304b612d52565b5b835b81811015613075578061306188826129f7565b84526020840193505060208101905061304e565b5050509392505050565b600082601f83011261309457613093612ca6565b5b81356130a4848260208601613016565b91505092915050565b600080604083850312156130c4576130c36129a4565b5b600083013567ffffffffffffffff8111156130e2576130e16129a9565b5b6130ee8582860161307f565b925050602083013567ffffffffffffffff81111561310f5761310e6129a9565b5b61311b85828601612dc0565b9150509250929050565b600081519050919050565b600082825260208201905092915050565b6000819050602082019050919050565b61315a81612a0c565b82525050565b600061316c8383613151565b60208301905092915050565b6000602082019050919050565b600061319082613125565b61319a8185613130565b93506131a583613141565b8060005b838110156131d65781516131bd8882613160565b97506131c883613178565b9250506001810190506131a9565b5085935050505092915050565b600060208201905081810360008301526131fd8184613185565b905092915050565b6000613210826129ae565b9050919050565b61322081613205565b82525050565b600060208201905061323b6000830184613217565b92915050565b61324a81612b31565b811461325557600080fd5b50565b60008135905061326781613241565b92915050565b60008060408385031215613284576132836129a4565b5b6000613292858286016129f7565b92505060206132a385828601613258565b9150509250929050565b6132b681613205565b81146132c157600080fd5b50565b6000813590506132d3816132ad565b92915050565b6000602082840312156132ef576132ee6129a4565b5b60006132fd848285016132c4565b91505092915050565b6000806040838503121561331d5761331c6129a4565b5b600061332b858286016129f7565b925050602061333c858286016129f7565b9150509250929050565b600080600080600060a08688031215613362576133616129a4565b5b6000613370888289016129f7565b9550506020613381888289016129f7565b945050604061339288828901612a2d565b93505060606133a388828901612a2d565b925050608086013567ffffffffffffffff8111156133c4576133c36129a9565b5b6133d088828901612e75565b9150509295509295909350565b7f455243313135353a2062616c616e636520717565727920666f7220746865207a60008201527f65726f2061646472657373000000000000000000000000000000000000000000602082015250565b6000613439602b83612b72565b9150613444826133dd565b604082019050919050565b600060208201905081810360008301526134688161342c565b9050919050565b7f4e487b7100000000000000000000000000000000000000000000000000000000600052602260045260246000fd5b600060028204905060018216806134b657607f821691505b6020821081036134c9576134c861346f565b5b50919050565b600081905092915050565b60006134e582612b67565b6134ef81856134cf565b93506134ff818560208601612b83565b80840191505092915050565b600061351782856134da565b915061352382846134da565b91508190509392505050565b7f4f6e6c792074686520636f6e7472616374206d696e7465722063616e2063616c60008201527f6c20746869732066756e6374696f6e0000000000000000000000000000000000602082015250565b600061358b602f83612b72565b91506135968261352f565b604082019050919050565b600060208201905081810360008301526135ba8161357e565b9050919050565b7f6e6f74207a65726f206164647265737320666f72206e6577206d696e74657200600082015250565b60006135f7601f83612b72565b9150613602826135c1565b602082019050919050565b60006020820190508181036000830152613626816135ea565b9050919050565b7f455243313135353a207472616e736665722063616c6c6572206973206e6f742060008201527f6f776e6572206e6f7220617070726f7665640000000000000000000000000000602082015250565b6000613689603283612b72565b91506136948261362d565b604082019050919050565b600060208201905081810360008301526136b88161367c565b9050919050565b7f4e487b7100000000000000000000000000000000000000000000000000000000600052603260045260246000fd5b7f544b4d426f7831313535413a20416c726561647920657869737420746f6b656e60008201527f2069640000000000000000000000000000000000000000000000000000000000602082015250565b600061374a602383612b72565b9150613755826136ee565b604082019050919050565b600060208201905081810360008301526137798161373d565b9050919050565b7f4e487b7100000000000000000000000000000000000000000000000000000000600052601160045260246000fd5b60006137ba82612a0c565b91507fffffffffffffffffffffffffffffffffffffffffffffffffffffffffffffffff82036137ec576137eb613780565b5b600182019050919050565b7f455243313135353a206163636f756e747320616e6420696473206c656e67746860008201527f206d69736d617463680000000000000000000000000000000000000000000000602082015250565b6000613853602983612b72565b915061385e826137f7565b604082019050919050565b6000602082019050818103600083015261388281613846565b9050919050565b7f4f6e6c792074686520636f6e7472616374206f776e65722063616e2063616c6c60008201527f20746869732066756e6374696f6e000000000000000000000000000000000000602082015250565b60006138e5602e83612b72565b91506138f082613889565b604082019050919050565b60006020820190508181036000830152613914816138d8565b9050919050565b7f6e6f74207a65726f206164647265737320666f72206e6577206f776e65720000600082015250565b6000613951601e83612b72565b915061395c8261391b565b602082019050919050565b6000602082019050818103600083015261398081613944565b9050919050565b7f544b4d426f7831313535413a206f6e6c7920746f6b656e206f776e657220636160008201527f6e206f70656e0000000000000000000000000000000000000000000000000000602082015250565b60006139e3602683612b72565b91506139ee82613987565b604082019050919050565b60006020820190508181036000830152613a12816139d6565b9050919050565b7f455243313135353a2063616c6c6572206973206e6f74206f776e6572206e6f7260008201527f20617070726f7665640000000000000000000000000000000000000000000000602082015250565b6000613a75602983612b72565b9150613a8082613a19565b604082019050919050565b60006020820190508181036000830152613aa481613a68565b9050919050565b7f4e487b7100000000000000000000000000000000000000000000000000000000600052601260045260246000fd5b6000613ae582612a0c565b9150613af083612a0c565b925082613b0057613aff613aab565b5b828204905092915050565b6000613b1682612a0c565b9150613b2183612a0c565b925082821015613b3457613b33613780565b5b828203905092915050565b6000613b4a82612a0c565b9150613b5583612a0c565b925082613b6557613b64613aab565b5b828206905092915050565b6000613b7b82612a0c565b9150613b8683612a0c565b9250827fffffffffffffffffffffffffffffffffffffffffffffffffffffffffffffffff03821115613bbb57613bba613780565b5b828201905092915050565b7f455243313135353a2069647320616e6420616d6f756e7473206c656e6774682060008201527f6d69736d61746368000000000000000000000000000000000000000000000000602082015250565b6000613c22602883612b72565b9150613c2d82613bc6565b604082019050919050565b60006020820190508181036000830152613c5181613c15565b9050919050565b7f455243313135353a207472616e7366657220746f20746865207a65726f20616460008201527f6472657373000000000000000000000000000000000000000000000000000000602082015250565b6000613cb4602583612b72565b9150613cbf82613c58565b604082019050919050565b60006020820190508181036000830152613ce381613ca7565b9050919050565b7f455243313135353a20696e73756666696369656e742062616c616e636520666f60008201527f72207472616e7366657200000000000000000000000000000000000000000000602082015250565b6000613d46602a83612b72565b9150613d5182613cea565b604082019050919050565b60006020820190508181036000830152613d7581613d39565b9050919050565b60006040820190508181036000830152613d968185613185565b90508181036020830152613daa8184613185565b90509392505050565b7f455243313135353a206d696e7420746f20746865207a65726f2061646472657360008201527f7300000000000000000000000000000000000000000000000000000000000000602082015250565b6000613e0f602183612b72565b9150613e1a82613db3565b604082019050919050565b60006020820190508181036000830152613e3e81613e02565b9050919050565b7f455243313135353a2073657474696e6720617070726f76616c2073746174757360008201527f20666f722073656c660000000000000000000000000000000000000000000000602082015250565b6000613ea1602983612b72565b9150613eac82613e45565b604082019050919050565b60006020820190508181036000830152613ed081613e94565b9050919050565b7f455243313135353a206275726e2066726f6d20746865207a65726f206164647260008201527f6573730000000000000000000000000000000000000000000000000000000000602082015250565b6000613f33602383612b72565b9150613f3e82613ed7565b604082019050919050565b60006020820190508181036000830152613f6281613f26565b9050919050565b7f455243313135353a206275726e20616d6f756e7420657863656564732062616c60008201527f616e636500000000000000000000000000000000000000000000000000000000602082015250565b6000613fc5602483612b72565b9150613fd082613f69565b604082019050919050565b60006020820190508181036000830152613ff481613fb8565b9050919050565b60006040820190506140106000830185612a82565b61401d6020830184612a82565b9392505050565b600081519050919050565b600082825260208201905092915050565b600061404b82614024565b614055818561402f565b9350614065818560208601612b83565b61406e81612bb6565b840191505092915050565b600060a08201905061408e6000830188612c22565b61409b6020830187612c22565b81810360408301526140ad8186613185565b905081810360608301526140c18185613185565b905081810360808301526140d58184614040565b90509695505050505050565b6000815190506140f081612ad8565b92915050565b60006020828403121561410c5761410b6129a4565b5b600061411a848285016140e1565b91505092915050565b60008160e01c9050919050565b600060033d111561414f5760046000803e61414c600051614123565b90505b90565b600060443d106141df5761416461299a565b60043d036004823e80513d602482011167ffffffffffffffff8211171561418c5750506141df565b808201805167ffffffffffffffff8111156141aa57505050506141df565b80602083010160043d0385018111156141c75750505050506141df565b6141d682602001850186612cda565b82955050505050505b90565b7f455243313135353a207472616e7366657220746f206e6f6e204552433131353560008201527f526563656976657220696d706c656d656e746572000000000000000000000000602082015250565b600061423e603483612b72565b9150614249826141e2565b604082019050919050565b6000602082019050818103600083015261426d81614231565b9050919050565b7f455243313135353a204552433131353552656365697665722072656a6563746560008201527f6420746f6b656e73000000000000000000000000000000000000000000000000602082015250565b60006142d0602883612b72565b91506142db82614274565b604082019050919050565b600060208201905081810360008301526142ff816142c3565b9050919050565b600060a08201905061431b6000830188612c22565b6143286020830187612c22565b6143356040830186612a82565b6143426060830185612a82565b81810360808301526143548184614040565b90509695505050505050565b7f455243313135353a206275726e20616d6f756e74206578636565647320746f7460008201527f616c537570706c79000000000000000000000000000000000000000000000000602082015250565b60006143bc602883612b72565b91506143c782614360565b604082019050919050565b600060208201905081810360008301526143eb816143af565b9050919050565b7f4e487b7100000000000000000000000000000000000000000000000000000000600052603160045260246000fdfea2646970667358221220b5492d6868c72a2f1d728441f4638badb158bd303a3f44f4fca51b2c51c6c12764736f6c634300080e003368747470733a2f2f616c7068612d6170692e7072756e656d61726b65742e78797a3a3535322f6e66742f696e6f2f746b6d2f",
  "immutableReferences": {},
  "source": "// SPDX-License-Identifier: MIT\r\npragma solidity ^0.8.14;\r\n\r\nimport \"@openzeppelin/contracts/token/ERC1155/ERC1155.sol\";\r\nimport \"@openzeppelin/contracts/token/ERC1155/extensions/ERC1155Supply.sol\";\r\nimport \"@openzeppelin/contracts/utils/Strings.sol\";\r\nimport \"./Owner.sol\";\r\nimport \"./TKM1155Collection.sol\";\r\n\r\ncontract TKMBox1155A is ERC1155, ERC1155Supply, TKM1155Collection, Owner, Minter {\r\n    using Strings for uint256;\r\n\r\n    string public name = \"3KM Mystery Box A\";\r\n    string public symbol = \"3KMBoxA\";\r\n    \r\n    event BoxOpen(address indexed opener, uint256 indexed tokenId);\r\n\r\n    constructor(address minter_)\r\n        ERC1155(\"https://alpha-api.prunemarket.xyz:552/nft/ino/tkm/\")\r\n        Minter(minter_)\r\n    {}\r\n\r\n    function uri(uint256 tokenId) public view virtual override returns (string memory) {\r\n        string memory base = super.uri(tokenId);\r\n        return string(abi.encodePacked(base, tokenId.toString()));\r\n    }\r\n    \r\n    function inoMint(uint256[] memory ids, uint256[] memory amounts) external onlyMinter {\r\n        for (uint256 i = 0; i < ids.length; i++) {\r\n            require(\r\n                1 > balanceOf(msg.sender, ids[i]),\r\n                \"TKMBox1155A: Already exist token id\"\r\n            );\r\n        }\r\n\r\n        _mintBatch(msg.sender, ids, amounts, \"\");\r\n    }\r\n\r\n    function boxOpen(uint256 tokenId) external {\r\n        require(\r\n            0 < balanceOf(msg.sender, tokenId),\r\n            \"TKMBox1155A: only token owner can open\"\r\n        );\r\n\r\n        _burn(msg.sender, tokenId, 1);\r\n        emit BoxOpen(msg.sender, tokenId);\r\n    }\r\n\r\n    function _beforeTokenTransfer(\r\n        address operator,\r\n        address from,\r\n        address to,\r\n        uint256[] memory ids,\r\n        uint256[] memory amounts,\r\n        bytes memory data\r\n    ) internal override(ERC1155, ERC1155Supply, TKM1155Collection) {\r\n        super._beforeTokenTransfer(operator, from, to, ids, amounts, data);\r\n    }\r\n}\r\n",
  "sourcePath": "C:\\Works\\1_Github\\solidity_tinyping\\contracts\\TKMBox1155A.sol",
  "compiler": {
    "name": "solc",
    "version": "0.8.14+commit.80d49f37.Emscripten.clang"
  },
  "schemaVersion": "3.4.7",
  "updatedAt": "2022-11-02T07:21:00.949Z",
  "networkType": "ethereum",
  "devdoc": {
    "kind": "dev",
    "methods": {
      "balanceOf(address,uint256)": {
        "details": "See {IERC1155-balanceOf}. Requirements: - `account` cannot be the zero address."
      },
      "balanceOfBatch(address[],uint256[])": {
        "details": "See {IERC1155-balanceOfBatch}. Requirements: - `accounts` and `ids` must have the same length."
      },
      "exists(uint256)": {
        "details": "Indicates whether any token exist with a given id, or not."
      },
      "isApprovedForAll(address,address)": {
        "details": "See {IERC1155-isApprovedForAll}."
      },
      "safeBatchTransferFrom(address,address,uint256[],uint256[],bytes)": {
        "details": "See {IERC1155-safeBatchTransferFrom}."
      },
      "safeTransferFrom(address,address,uint256,uint256,bytes)": {
        "details": "See {IERC1155-safeTransferFrom}."
      },
      "setApprovalForAll(address,bool)": {
        "details": "See {IERC1155-setApprovalForAll}."
      },
      "supportsInterface(bytes4)": {
        "details": "See {IERC165-supportsInterface}."
      },
      "totalSupply(uint256)": {
        "details": "Total amount of tokens in with a given id."
      }
    },
    "version": 1
  },
  "userdoc": {
    "kind": "user",
    "methods": {},
    "version": 1
  }
}