{
  "contractName": "TKMBox",
  "abi": [
    {
      "inputs": [
        {
          "internalType": "address",
          "name": "minter_",
          "type": "address"
        }
      ],
      "stateMutability": "nonpayable",
      "type": "constructor"
    },
    {
      "anonymous": false,
      "inputs": [
        {
          "indexed": true,
          "internalType": "address",
          "name": "owner",
          "type": "address"
        },
        {
          "indexed": true,
          "internalType": "address",
          "name": "approved",
          "type": "address"
        },
        {
          "indexed": true,
          "internalType": "uint256",
          "name": "tokenId",
          "type": "uint256"
        }
      ],
      "name": "Approval",
      "type": "event"
    },
    {
      "anonymous": false,
      "inputs": [
        {
          "indexed": true,
          "internalType": "address",
          "name": "owner",
          "type": "address"
        },
        {
          "indexed": true,
          "internalType": "address",
          "name": "operator",
          "type": "address"
        },
        {
          "indexed": false,
          "internalType": "bool",
          "name": "approved",
          "type": "bool"
        }
      ],
      "name": "ApprovalForAll",
      "type": "event"
    },
    {
      "anonymous": false,
      "inputs": [
        {
          "indexed": true,
          "internalType": "address",
          "name": "opener",
          "type": "address"
        },
        {
          "indexed": true,
          "internalType": "uint256",
          "name": "tokenId",
          "type": "uint256"
        }
      ],
      "name": "BoxOpen",
      "type": "event"
    },
    {
      "anonymous": false,
      "inputs": [
        {
          "indexed": true,
          "internalType": "address",
          "name": "from",
          "type": "address"
        },
        {
          "indexed": true,
          "internalType": "address",
          "name": "to",
          "type": "address"
        }
      ],
      "name": "ChangeMinter",
      "type": "event"
    },
    {
      "anonymous": false,
      "inputs": [
        {
          "indexed": true,
          "internalType": "address",
          "name": "from",
          "type": "address"
        },
        {
          "indexed": true,
          "internalType": "address",
          "name": "to",
          "type": "address"
        }
      ],
      "name": "ChangeOwner",
      "type": "event"
    },
    {
      "anonymous": false,
      "inputs": [
        {
          "indexed": true,
          "internalType": "address",
          "name": "from",
          "type": "address"
        },
        {
          "indexed": true,
          "internalType": "address",
          "name": "to",
          "type": "address"
        },
        {
          "indexed": true,
          "internalType": "uint256",
          "name": "tokenId",
          "type": "uint256"
        }
      ],
      "name": "Transfer",
      "type": "event"
    },
    {
      "inputs": [
        {
          "internalType": "address",
          "name": "to",
          "type": "address"
        },
        {
          "internalType": "uint256",
          "name": "tokenId",
          "type": "uint256"
        }
      ],
      "name": "approve",
      "outputs": [],
      "stateMutability": "nonpayable",
      "type": "function"
    },
    {
      "inputs": [
        {
          "internalType": "address",
          "name": "owner",
          "type": "address"
        }
      ],
      "name": "balanceOf",
      "outputs": [
        {
          "internalType": "uint256",
          "name": "",
          "type": "uint256"
        }
      ],
      "stateMutability": "view",
      "type": "function",
      "constant": true
    },
    {
      "inputs": [
        {
          "internalType": "address",
          "name": "newMinter_",
          "type": "address"
        }
      ],
      "name": "changeMinter",
      "outputs": [],
      "stateMutability": "nonpayable",
      "type": "function"
    },
    {
      "inputs": [
        {
          "internalType": "address payable",
          "name": "newOwner_",
          "type": "address"
        }
      ],
      "name": "changeOwner",
      "outputs": [],
      "stateMutability": "nonpayable",
      "type": "function"
    },
    {
      "inputs": [
        {
          "internalType": "uint256",
          "name": "tokenId",
          "type": "uint256"
        }
      ],
      "name": "getApproved",
      "outputs": [
        {
          "internalType": "address",
          "name": "",
          "type": "address"
        }
      ],
      "stateMutability": "view",
      "type": "function",
      "constant": true
    },
    {
      "inputs": [
        {
          "internalType": "address",
          "name": "owner",
          "type": "address"
        },
        {
          "internalType": "address",
          "name": "operator",
          "type": "address"
        }
      ],
      "name": "isApprovedForAll",
      "outputs": [
        {
          "internalType": "bool",
          "name": "",
          "type": "bool"
        }
      ],
      "stateMutability": "view",
      "type": "function",
      "constant": true
    },
    {
      "inputs": [],
      "name": "minter",
      "outputs": [
        {
          "internalType": "address",
          "name": "",
          "type": "address"
        }
      ],
      "stateMutability": "view",
      "type": "function",
      "constant": true
    },
    {
      "inputs": [],
      "name": "name",
      "outputs": [
        {
          "internalType": "string",
          "name": "",
          "type": "string"
        }
      ],
      "stateMutability": "view",
      "type": "function",
      "constant": true
    },
    {
      "inputs": [],
      "name": "owner",
      "outputs": [
        {
          "internalType": "address payable",
          "name": "",
          "type": "address"
        }
      ],
      "stateMutability": "view",
      "type": "function",
      "constant": true
    },
    {
      "inputs": [
        {
          "internalType": "uint256",
          "name": "tokenId",
          "type": "uint256"
        }
      ],
      "name": "ownerOf",
      "outputs": [
        {
          "internalType": "address",
          "name": "",
          "type": "address"
        }
      ],
      "stateMutability": "view",
      "type": "function",
      "constant": true
    },
    {
      "inputs": [
        {
          "internalType": "address",
          "name": "from",
          "type": "address"
        },
        {
          "internalType": "address",
          "name": "to",
          "type": "address"
        },
        {
          "internalType": "uint256",
          "name": "tokenId",
          "type": "uint256"
        }
      ],
      "name": "safeTransferFrom",
      "outputs": [],
      "stateMutability": "nonpayable",
      "type": "function"
    },
    {
      "inputs": [
        {
          "internalType": "address",
          "name": "from",
          "type": "address"
        },
        {
          "internalType": "address",
          "name": "to",
          "type": "address"
        },
        {
          "internalType": "uint256",
          "name": "tokenId",
          "type": "uint256"
        },
        {
          "internalType": "bytes",
          "name": "_data",
          "type": "bytes"
        }
      ],
      "name": "safeTransferFrom",
      "outputs": [],
      "stateMutability": "nonpayable",
      "type": "function"
    },
    {
      "inputs": [
        {
          "internalType": "address",
          "name": "operator",
          "type": "address"
        },
        {
          "internalType": "bool",
          "name": "approved",
          "type": "bool"
        }
      ],
      "name": "setApprovalForAll",
      "outputs": [],
      "stateMutability": "nonpayable",
      "type": "function"
    },
    {
      "inputs": [],
      "name": "symbol",
      "outputs": [
        {
          "internalType": "string",
          "name": "",
          "type": "string"
        }
      ],
      "stateMutability": "view",
      "type": "function",
      "constant": true
    },
    {
      "inputs": [
        {
          "internalType": "uint256",
          "name": "index",
          "type": "uint256"
        }
      ],
      "name": "tokenByIndex",
      "outputs": [
        {
          "internalType": "uint256",
          "name": "",
          "type": "uint256"
        }
      ],
      "stateMutability": "view",
      "type": "function",
      "constant": true
    },
    {
      "inputs": [
        {
          "internalType": "address",
          "name": "owner",
          "type": "address"
        },
        {
          "internalType": "uint256",
          "name": "index",
          "type": "uint256"
        }
      ],
      "name": "tokenOfOwnerByIndex",
      "outputs": [
        {
          "internalType": "uint256",
          "name": "",
          "type": "uint256"
        }
      ],
      "stateMutability": "view",
      "type": "function",
      "constant": true
    },
    {
      "inputs": [],
      "name": "totalSupply",
      "outputs": [
        {
          "internalType": "uint256",
          "name": "",
          "type": "uint256"
        }
      ],
      "stateMutability": "view",
      "type": "function",
      "constant": true
    },
    {
      "inputs": [
        {
          "internalType": "address",
          "name": "from",
          "type": "address"
        },
        {
          "internalType": "address",
          "name": "to",
          "type": "address"
        },
        {
          "internalType": "uint256",
          "name": "tokenId",
          "type": "uint256"
        }
      ],
      "name": "transferFrom",
      "outputs": [],
      "stateMutability": "nonpayable",
      "type": "function"
    },
    {
      "inputs": [
        {
          "internalType": "uint256",
          "name": "startId",
          "type": "uint256"
        },
        {
          "internalType": "uint256",
          "name": "endId",
          "type": "uint256"
        }
      ],
      "name": "inoMint",
      "outputs": [],
      "stateMutability": "nonpayable",
      "type": "function"
    },
    {
      "inputs": [
        {
          "internalType": "uint256",
          "name": "tokenId",
          "type": "uint256"
        }
      ],
      "name": "isOpened",
      "outputs": [
        {
          "internalType": "bool",
          "name": "",
          "type": "bool"
        }
      ],
      "stateMutability": "view",
      "type": "function",
      "constant": true
    },
    {
      "inputs": [],
      "name": "collection",
      "outputs": [
        {
          "internalType": "string",
          "name": "",
          "type": "string"
        },
        {
          "components": [
            {
              "internalType": "uint256",
              "name": "tokenId",
              "type": "uint256"
            },
            {
              "internalType": "bool",
              "name": "isOpened",
              "type": "bool"
            }
          ],
          "internalType": "struct TKMBox.Boxes[]",
          "name": "",
          "type": "tuple[]"
        }
      ],
      "stateMutability": "view",
      "type": "function",
      "constant": true
    },
    {
      "inputs": [
        {
          "internalType": "uint256",
          "name": "tokenId",
          "type": "uint256"
        }
      ],
      "name": "boxOpen",
      "outputs": [],
      "stateMutability": "nonpayable",
      "type": "function"
    },
    {
      "inputs": [
        {
          "internalType": "uint256",
          "name": "tokenId",
          "type": "uint256"
        }
      ],
      "name": "tokenURI",
      "outputs": [
        {
          "internalType": "string",
          "name": "",
          "type": "string"
        }
      ],
      "stateMutability": "view",
      "type": "function",
      "constant": true
    },
    {
      "inputs": [
        {
          "internalType": "bytes4",
          "name": "interfaceId",
          "type": "bytes4"
        }
      ],
      "name": "supportsInterface",
      "outputs": [
        {
          "internalType": "bool",
          "name": "",
          "type": "bool"
        }
      ],
      "stateMutability": "view",
      "type": "function",
      "constant": true
    }
  ],
  "bytecode": "0x60806040523480156200001157600080fd5b50604051620041723803806200417283398181016040528101906200003791906200027c565b806040518060400160405280601c81526020017f5468726565204b696e67646f6d204d756c7469766572736520426f78000000008152506040518060400160405280600681526020017f334b4d426f7800000000000000000000000000000000000000000000000000008152508160009080519060200190620000bc92919062000162565b508060019080519060200190620000d592919062000162565b50505033600b60006101000a81548173ffffffffffffffffffffffffffffffffffffffff021916908373ffffffffffffffffffffffffffffffffffffffff16021790555080600c60006101000a81548173ffffffffffffffffffffffffffffffffffffffff021916908373ffffffffffffffffffffffffffffffffffffffff160217905550505062000312565b8280546200017090620002dd565b90600052602060002090601f016020900481019282620001945760008555620001e0565b82601f10620001af57805160ff1916838001178555620001e0565b82800160010185558215620001e0579182015b82811115620001df578251825591602001919060010190620001c2565b5b509050620001ef9190620001f3565b5090565b5b808211156200020e576000816000905550600101620001f4565b5090565b600080fd5b600073ffffffffffffffffffffffffffffffffffffffff82169050919050565b6000620002448262000217565b9050919050565b620002568162000237565b81146200026257600080fd5b50565b60008151905062000276816200024b565b92915050565b60006020828403121562000295576200029462000212565b5b6000620002a58482850162000265565b91505092915050565b7f4e487b7100000000000000000000000000000000000000000000000000000000600052602260045260246000fd5b60006002820490506001821680620002f657607f821691505b6020821081036200030c576200030b620002ae565b5b50919050565b613e5080620003226000396000f3fe608060405234801561001057600080fd5b50600436106101585760003560e01c80635faf46bb116100c3578063a22cb4651161007c578063a22cb465146103ee578063a6f9dae11461040a578063b88d4fde14610426578063c87b56dd14610442578063e322b36814610472578063e985e9c51461048e57610158565b80635faf46bb146103035780636352211e1461033357806370a08231146103635780637de1e536146103935780638da5cb5b146103b257806395d89b41146103d057610158565b806323b872dd1161011557806323b872dd146102335780632c4d4d181461024f5780632f745c591461026b57806342842e0e1461029b5780634f6ccce7146102b757806356773406146102e757610158565b806301ffc9a71461015d57806306fdde031461018d57806307546172146101ab578063081812fc146101c9578063095ea7b3146101f957806318160ddd14610215575b600080fd5b610177600480360381019061017291906126bc565b6104be565b6040516101849190612704565b60405180910390f35b6101956104d0565b6040516101a291906127b8565b60405180910390f35b6101b3610562565b6040516101c0919061281b565b60405180910390f35b6101e360048036038101906101de919061286c565b610588565b6040516101f0919061281b565b60405180910390f35b610213600480360381019061020e91906128c5565b61060d565b005b61021d610724565b60405161022a9190612914565b60405180910390f35b61024d6004803603810190610248919061292f565b610731565b005b61026960048036038101906102649190612982565b610791565b005b610285600480360381019061028091906128c5565b61092e565b6040516102929190612914565b60405180910390f35b6102b560048036038101906102b0919061292f565b6109d3565b005b6102d160048036038101906102cc919061286c565b6109f3565b6040516102de9190612914565b60405180910390f35b61030160048036038101906102fc91906129af565b610a64565b005b61031d6004803603810190610318919061286c565b610b23565b60405161032a9190612704565b60405180910390f35b61034d6004803603810190610348919061286c565b610b4d565b60405161035a919061281b565b60405180910390f35b61037d60048036038101906103789190612982565b610bfe565b60405161038a9190612914565b60405180910390f35b61039b610cb5565b6040516103a9929190612aeb565b60405180910390f35b6103ba610dcc565b6040516103c79190612b43565b60405180910390f35b6103d8610df2565b6040516103e591906127b8565b60405180910390f35b61040860048036038101906104039190612b8a565b610e84565b005b610424600480360381019061041f9190612bf6565b610e9a565b005b610440600480360381019061043b9190612d58565b611037565b005b61045c6004803603810190610457919061286c565b611099565b60405161046991906127b8565b60405180910390f35b61048c6004803603810190610487919061286c565b6110ab565b005b6104a860048036038101906104a39190612ddb565b6111fb565b6040516104b59190612704565b60405180910390f35b60006104c98261128f565b9050919050565b6060600080546104df90612e4a565b80601f016020809104026020016040519081016040528092919081815260200182805461050b90612e4a565b80156105585780601f1061052d57610100808354040283529160200191610558565b820191906000526020600020905b81548152906001019060200180831161053b57829003601f168201915b5050505050905090565b600c60009054906101000a900473ffffffffffffffffffffffffffffffffffffffff1681565b600061059382611309565b6105d2576040517f08c379a00000000000000000000000000000000000000000000000000000000081526004016105c990612eed565b60405180910390fd5b6004600083815260200190815260200160002060009054906101000a900473ffffffffffffffffffffffffffffffffffffffff169050919050565b600061061882610b4d565b90508073ffffffffffffffffffffffffffffffffffffffff168373ffffffffffffffffffffffffffffffffffffffff1603610688576040517f08c379a000000000000000000000000000000000000000000000000000000000815260040161067f90612f7f565b60405180910390fd5b8073ffffffffffffffffffffffffffffffffffffffff166106a7611375565b73ffffffffffffffffffffffffffffffffffffffff1614806106d657506106d5816106d0611375565b6111fb565b5b610715576040517f08c379a000000000000000000000000000000000000000000000000000000000815260040161070c90613011565b60405180910390fd5b61071f838361137d565b505050565b6000600880549050905090565b61074261073c611375565b82611436565b610781576040517f08c379a0000000000000000000000000000000000000000000000000000000008152600401610778906130a3565b60405180910390fd5b61078c838383611514565b505050565b600c60009054906101000a900473ffffffffffffffffffffffffffffffffffffffff1673ffffffffffffffffffffffffffffffffffffffff163373ffffffffffffffffffffffffffffffffffffffff1614610821576040517f08c379a000000000000000000000000000000000000000000000000000000000815260040161081890613135565b60405180910390fd5b600073ffffffffffffffffffffffffffffffffffffffff168173ffffffffffffffffffffffffffffffffffffffff1603610890576040517f08c379a0000000000000000000000000000000000000000000000000000000008152600401610887906131a1565b60405180910390fd5b80600c60006101000a81548173ffffffffffffffffffffffffffffffffffffffff021916908373ffffffffffffffffffffffffffffffffffffffff1602179055508073ffffffffffffffffffffffffffffffffffffffff163373ffffffffffffffffffffffffffffffffffffffff167fcba8b2f67b1b66244252c443e6260110af641687bcceb46c810da702119ec82860405160405180910390a350565b600061093983610bfe565b821061097a576040517f08c379a000000000000000000000000000000000000000000000000000000000815260040161097190613233565b60405180910390fd5b600660008473ffffffffffffffffffffffffffffffffffffffff1673ffffffffffffffffffffffffffffffffffffffff168152602001908152602001600020600083815260200190815260200160002054905092915050565b6109ee83838360405180602001604052806000815250611037565b505050565b60006109fd610724565b8210610a3e576040517f08c379a0000000000000000000000000000000000000000000000000000000008152600401610a35906132c5565b60405180910390fd5b60088281548110610a5257610a516132e5565b5b90600052602060002001549050919050565b600c60009054906101000a900473ffffffffffffffffffffffffffffffffffffffff1673ffffffffffffffffffffffffffffffffffffffff163373ffffffffffffffffffffffffffffffffffffffff1614610af4576040517f08c379a0000000000000000000000000000000000000000000000000000000008152600401610aeb90613135565b60405180910390fd5b60008290505b818111610b1e57610b0b338261177a565b8080610b1690613343565b915050610afa565b505050565b6000600d600083815260200190815260200160002060009054906101000a900460ff169050919050565b6000806002600084815260200190815260200160002060009054906101000a900473ffffffffffffffffffffffffffffffffffffffff169050600073ffffffffffffffffffffffffffffffffffffffff168173ffffffffffffffffffffffffffffffffffffffff1603610bf5576040517f08c379a0000000000000000000000000000000000000000000000000000000008152600401610bec906133fd565b60405180910390fd5b80915050919050565b60008073ffffffffffffffffffffffffffffffffffffffff168273ffffffffffffffffffffffffffffffffffffffff1603610c6e576040517f08c379a0000000000000000000000000000000000000000000000000000000008152600401610c659061348f565b60405180910390fd5b600360008373ffffffffffffffffffffffffffffffffffffffff1673ffffffffffffffffffffffffffffffffffffffff168152602001908152602001600020549050919050565b6060806000610cc333610bfe565b905060008167ffffffffffffffff811115610ce157610ce0612c2d565b5b604051908082528060200260200182016040528015610d1a57816020015b610d07612634565b815260200190600190039081610cff5790505b50905060005b82811015610db8576000610d34338361092e565b905080838381518110610d4a57610d496132e5565b5b60200260200101516000018181525050600d600082815260200190815260200160002060009054906101000a900460ff16838381518110610d8e57610d8d6132e5565b5b60200260200101516020019015159081151581525050508080610db090613343565b915050610d20565b50610dc1611798565b819350935050509091565b600b60009054906101000a900473ffffffffffffffffffffffffffffffffffffffff1681565b606060018054610e0190612e4a565b80601f0160208091040260200160405190810160405280929190818152602001828054610e2d90612e4a565b8015610e7a5780601f10610e4f57610100808354040283529160200191610e7a565b820191906000526020600020905b815481529060010190602001808311610e5d57829003601f168201915b5050505050905090565b610e96610e8f611375565b83836117b8565b5050565b600b60009054906101000a900473ffffffffffffffffffffffffffffffffffffffff1673ffffffffffffffffffffffffffffffffffffffff163373ffffffffffffffffffffffffffffffffffffffff1614610f2a576040517f08c379a0000000000000000000000000000000000000000000000000000000008152600401610f2190613521565b60405180910390fd5b600073ffffffffffffffffffffffffffffffffffffffff168173ffffffffffffffffffffffffffffffffffffffff1603610f99576040517f08c379a0000000000000000000000000000000000000000000000000000000008152600401610f909061358d565b60405180910390fd5b80600b60006101000a81548173ffffffffffffffffffffffffffffffffffffffff021916908373ffffffffffffffffffffffffffffffffffffffff1602179055508073ffffffffffffffffffffffffffffffffffffffff163373ffffffffffffffffffffffffffffffffffffffff167f9aecf86140d81442289f667eb72e1202a8fbb3478a686659952e145e8531965660405160405180910390a350565b611048611042611375565b83611436565b611087576040517f08c379a000000000000000000000000000000000000000000000000000000000815260040161107e906130a3565b60405180910390fd5b61109384848484611924565b50505050565b60606110a482611980565b9050919050565b6110b481610b4d565b73ffffffffffffffffffffffffffffffffffffffff163373ffffffffffffffffffffffffffffffffffffffff1614611121576040517f08c379a00000000000000000000000000000000000000000000000000000000081526004016111189061361f565b60405180910390fd5b600d600082815260200190815260200160002060009054906101000a900460ff1615156000151514611188576040517f08c379a000000000000000000000000000000000000000000000000000000000815260040161117f9061368b565b60405180910390fd5b6001600d600083815260200190815260200160002060006101000a81548160ff021916908315150217905550803373ffffffffffffffffffffffffffffffffffffffff167fb6d0f573cba3d4a03c7eaa036f7d5a9228d6fb816811d88b4a7c5c9505ffb59260405160405180910390a350565b6000600560008473ffffffffffffffffffffffffffffffffffffffff1673ffffffffffffffffffffffffffffffffffffffff16815260200190815260200160002060008373ffffffffffffffffffffffffffffffffffffffff1673ffffffffffffffffffffffffffffffffffffffff16815260200190815260200160002060009054906101000a900460ff16905092915050565b60007f780e9d63000000000000000000000000000000000000000000000000000000007bffffffffffffffffffffffffffffffffffffffffffffffffffffffff1916827bffffffffffffffffffffffffffffffffffffffffffffffffffffffff19161480611302575061130182611ad1565b5b9050919050565b60008073ffffffffffffffffffffffffffffffffffffffff166002600084815260200190815260200160002060009054906101000a900473ffffffffffffffffffffffffffffffffffffffff1673ffffffffffffffffffffffffffffffffffffffff1614159050919050565b600033905090565b816004600083815260200190815260200160002060006101000a81548173ffffffffffffffffffffffffffffffffffffffff021916908373ffffffffffffffffffffffffffffffffffffffff160217905550808273ffffffffffffffffffffffffffffffffffffffff166113f083610b4d565b73ffffffffffffffffffffffffffffffffffffffff167f8c5be1e5ebec7d5bd14f71427d1e84f3dd0314c0f7b2291e5b200ac8c7c3b92560405160405180910390a45050565b600061144182611309565b611480576040517f08c379a00000000000000000000000000000000000000000000000000000000081526004016114779061371d565b60405180910390fd5b600061148b83610b4d565b90508073ffffffffffffffffffffffffffffffffffffffff168473ffffffffffffffffffffffffffffffffffffffff1614806114cd57506114cc81856111fb565b5b8061150b57508373ffffffffffffffffffffffffffffffffffffffff166114f384610588565b73ffffffffffffffffffffffffffffffffffffffff16145b91505092915050565b8273ffffffffffffffffffffffffffffffffffffffff1661153482610b4d565b73ffffffffffffffffffffffffffffffffffffffff161461158a576040517f08c379a0000000000000000000000000000000000000000000000000000000008152600401611581906137af565b60405180910390fd5b600073ffffffffffffffffffffffffffffffffffffffff168273ffffffffffffffffffffffffffffffffffffffff16036115f9576040517f08c379a00000000000000000000000000000000000000000000000000000000081526004016115f090613841565b60405180910390fd5b611604838383611bb3565b61160f60008261137d565b6001600360008573ffffffffffffffffffffffffffffffffffffffff1673ffffffffffffffffffffffffffffffffffffffff168152602001908152602001600020600082825461165f9190613861565b925050819055506001600360008473ffffffffffffffffffffffffffffffffffffffff1673ffffffffffffffffffffffffffffffffffffffff16815260200190815260200160002060008282546116b69190613895565b92505081905550816002600083815260200190815260200160002060006101000a81548173ffffffffffffffffffffffffffffffffffffffff021916908373ffffffffffffffffffffffffffffffffffffffff160217905550808273ffffffffffffffffffffffffffffffffffffffff168473ffffffffffffffffffffffffffffffffffffffff167fddf252ad1be2c89b69c2b068fc378daa952ba7f163c4a11628f55a4df523b3ef60405160405180910390a4611775838383611bc3565b505050565b611794828260405180602001604052806000815250611bc8565b5050565b6060604051806060016040528060328152602001613de960329139905090565b8173ffffffffffffffffffffffffffffffffffffffff168373ffffffffffffffffffffffffffffffffffffffff1603611826576040517f08c379a000000000000000000000000000000000000000000000000000000000815260040161181d90613937565b60405180910390fd5b80600560008573ffffffffffffffffffffffffffffffffffffffff1673ffffffffffffffffffffffffffffffffffffffff16815260200190815260200160002060008473ffffffffffffffffffffffffffffffffffffffff1673ffffffffffffffffffffffffffffffffffffffff16815260200190815260200160002060006101000a81548160ff0219169083151502179055508173ffffffffffffffffffffffffffffffffffffffff168373ffffffffffffffffffffffffffffffffffffffff167f17307eab39ab6107e8899845ad3d59bd9653f200f220920489ca2b5937696c31836040516119179190612704565b60405180910390a3505050565b61192f848484611514565b61193b84848484611c23565b61197a576040517f08c379a0000000000000000000000000000000000000000000000000000000008152600401611971906139c9565b60405180910390fd5b50505050565b606061198b82611309565b6119ca576040517f08c379a00000000000000000000000000000000000000000000000000000000081526004016119c190613a5b565b60405180910390fd5b6000600a600084815260200190815260200160002080546119ea90612e4a565b80601f0160208091040260200160405190810160405280929190818152602001828054611a1690612e4a565b8015611a635780601f10611a3857610100808354040283529160200191611a63565b820191906000526020600020905b815481529060010190602001808311611a4657829003601f168201915b505050505090506000611a74611798565b90506000815103611a89578192505050611acc565b600082511115611abe578082604051602001611aa6929190613ab7565b60405160208183030381529060405292505050611acc565b611ac784611daa565b925050505b919050565b60007f80ac58cd000000000000000000000000000000000000000000000000000000007bffffffffffffffffffffffffffffffffffffffffffffffffffffffff1916827bffffffffffffffffffffffffffffffffffffffffffffffffffffffff19161480611b9c57507f5b5e139f000000000000000000000000000000000000000000000000000000007bffffffffffffffffffffffffffffffffffffffffffffffffffffffff1916827bffffffffffffffffffffffffffffffffffffffffffffffffffffffff1916145b80611bac5750611bab82611e51565b5b9050919050565b611bbe838383611ebb565b505050565b505050565b611bd28383611fcd565b611bdf6000848484611c23565b611c1e576040517f08c379a0000000000000000000000000000000000000000000000000000000008152600401611c15906139c9565b60405180910390fd5b505050565b6000611c448473ffffffffffffffffffffffffffffffffffffffff166121a6565b15611d9d578373ffffffffffffffffffffffffffffffffffffffff1663150b7a02611c6d611375565b8786866040518563ffffffff1660e01b8152600401611c8f9493929190613b30565b6020604051808303816000875af1925050508015611ccb57506040513d601f19601f82011682018060405250810190611cc89190613b91565b60015b611d4d573d8060008114611cfb576040519150601f19603f3d011682016040523d82523d6000602084013e611d00565b606091505b506000815103611d45576040517f08c379a0000000000000000000000000000000000000000000000000000000008152600401611d3c906139c9565b60405180910390fd5b805181602001fd5b63150b7a0260e01b7bffffffffffffffffffffffffffffffffffffffffffffffffffffffff1916817bffffffffffffffffffffffffffffffffffffffffffffffffffffffff191614915050611da2565b600190505b949350505050565b6060611db582611309565b611df4576040517f08c379a0000000000000000000000000000000000000000000000000000000008152600401611deb90613c30565b60405180910390fd5b6000611dfe611798565b90506000815111611e1e5760405180602001604052806000815250611e49565b80611e28846121c9565b604051602001611e39929190613ab7565b6040516020818303038152906040525b915050919050565b60007f01ffc9a7000000000000000000000000000000000000000000000000000000007bffffffffffffffffffffffffffffffffffffffffffffffffffffffff1916827bffffffffffffffffffffffffffffffffffffffffffffffffffffffff1916149050919050565b611ec6838383612329565b600073ffffffffffffffffffffffffffffffffffffffff168373ffffffffffffffffffffffffffffffffffffffff1603611f0857611f038161232e565b611f47565b8173ffffffffffffffffffffffffffffffffffffffff168373ffffffffffffffffffffffffffffffffffffffff1614611f4657611f458382612377565b5b5b600073ffffffffffffffffffffffffffffffffffffffff168273ffffffffffffffffffffffffffffffffffffffff1603611f8957611f84816124e4565b611fc8565b8273ffffffffffffffffffffffffffffffffffffffff168273ffffffffffffffffffffffffffffffffffffffff1614611fc757611fc682826125b5565b5b5b505050565b600073ffffffffffffffffffffffffffffffffffffffff168273ffffffffffffffffffffffffffffffffffffffff160361203c576040517f08c379a000000000000000000000000000000000000000000000000000000000815260040161203390613c9c565b60405180910390fd5b61204581611309565b15612085576040517f08c379a000000000000000000000000000000000000000000000000000000000815260040161207c90613d08565b60405180910390fd5b61209160008383611bb3565b6001600360008473ffffffffffffffffffffffffffffffffffffffff1673ffffffffffffffffffffffffffffffffffffffff16815260200190815260200160002060008282546120e19190613895565b92505081905550816002600083815260200190815260200160002060006101000a81548173ffffffffffffffffffffffffffffffffffffffff021916908373ffffffffffffffffffffffffffffffffffffffff160217905550808273ffffffffffffffffffffffffffffffffffffffff16600073ffffffffffffffffffffffffffffffffffffffff167fddf252ad1be2c89b69c2b068fc378daa952ba7f163c4a11628f55a4df523b3ef60405160405180910390a46121a260008383611bc3565b5050565b6000808273ffffffffffffffffffffffffffffffffffffffff163b119050919050565b606060008203612210576040518060400160405280600181526020017f30000000000000000000000000000000000000000000000000000000000000008152509050612324565b600082905060005b6000821461224257808061222b90613343565b915050600a8261223b9190613d57565b9150612218565b60008167ffffffffffffffff81111561225e5761225d612c2d565b5b6040519080825280601f01601f1916602001820160405280156122905781602001600182028036833780820191505090505b5090505b6000851461231d576001826122a99190613861565b9150600a856122b89190613d88565b60306122c49190613895565b60f81b8183815181106122da576122d96132e5565b5b60200101907effffffffffffffffffffffffffffffffffffffffffffffffffffffffffffff1916908160001a905350600a856123169190613d57565b9450612294565b8093505050505b919050565b505050565b6008805490506009600083815260200190815260200160002081905550600881908060018154018082558091505060019003906000526020600020016000909190919091505550565b6000600161238484610bfe565b61238e9190613861565b9050600060076000848152602001908152602001600020549050818114612473576000600660008673ffffffffffffffffffffffffffffffffffffffff1673ffffffffffffffffffffffffffffffffffffffff168152602001908152602001600020600084815260200190815260200160002054905080600660008773ffffffffffffffffffffffffffffffffffffffff1673ffffffffffffffffffffffffffffffffffffffff168152602001908152602001600020600084815260200190815260200160002081905550816007600083815260200190815260200160002081905550505b6007600084815260200190815260200160002060009055600660008573ffffffffffffffffffffffffffffffffffffffff1673ffffffffffffffffffffffffffffffffffffffff16815260200190815260200160002060008381526020019081526020016000206000905550505050565b600060016008805490506124f89190613861565b9050600060096000848152602001908152602001600020549050600060088381548110612528576125276132e5565b5b90600052602060002001549050806008838154811061254a576125496132e5565b5b90600052602060002001819055508160096000838152602001908152602001600020819055506009600085815260200190815260200160002060009055600880548061259957612598613db9565b5b6001900381819060005260206000200160009055905550505050565b60006125c083610bfe565b905081600660008573ffffffffffffffffffffffffffffffffffffffff1673ffffffffffffffffffffffffffffffffffffffff168152602001908152602001600020600083815260200190815260200160002081905550806007600084815260200190815260200160002081905550505050565b6040518060400160405280600081526020016000151581525090565b6000604051905090565b600080fd5b600080fd5b60007fffffffff0000000000000000000000000000000000000000000000000000000082169050919050565b61269981612664565b81146126a457600080fd5b50565b6000813590506126b681612690565b92915050565b6000602082840312156126d2576126d161265a565b5b60006126e0848285016126a7565b91505092915050565b60008115159050919050565b6126fe816126e9565b82525050565b600060208201905061271960008301846126f5565b92915050565b600081519050919050565b600082825260208201905092915050565b60005b8381101561275957808201518184015260208101905061273e565b83811115612768576000848401525b50505050565b6000601f19601f8301169050919050565b600061278a8261271f565b612794818561272a565b93506127a481856020860161273b565b6127ad8161276e565b840191505092915050565b600060208201905081810360008301526127d2818461277f565b905092915050565b600073ffffffffffffffffffffffffffffffffffffffff82169050919050565b6000612805826127da565b9050919050565b612815816127fa565b82525050565b6000602082019050612830600083018461280c565b92915050565b6000819050919050565b61284981612836565b811461285457600080fd5b50565b60008135905061286681612840565b92915050565b6000602082840312156128825761288161265a565b5b600061289084828501612857565b91505092915050565b6128a2816127fa565b81146128ad57600080fd5b50565b6000813590506128bf81612899565b92915050565b600080604083850312156128dc576128db61265a565b5b60006128ea858286016128b0565b92505060206128fb85828601612857565b9150509250929050565b61290e81612836565b82525050565b60006020820190506129296000830184612905565b92915050565b6000806000606084860312156129485761294761265a565b5b6000612956868287016128b0565b9350506020612967868287016128b0565b925050604061297886828701612857565b9150509250925092565b6000602082840312156129985761299761265a565b5b60006129a6848285016128b0565b91505092915050565b600080604083850312156129c6576129c561265a565b5b60006129d485828601612857565b92505060206129e585828601612857565b9150509250929050565b600081519050919050565b600082825260208201905092915050565b6000819050602082019050919050565b612a2481612836565b82525050565b612a33816126e9565b82525050565b604082016000820151612a4f6000850182612a1b565b506020820151612a626020850182612a2a565b50505050565b6000612a748383612a39565b60408301905092915050565b6000602082019050919050565b6000612a98826129ef565b612aa281856129fa565b9350612aad83612a0b565b8060005b83811015612ade578151612ac58882612a68565b9750612ad083612a80565b925050600181019050612ab1565b5085935050505092915050565b60006040820190508181036000830152612b05818561277f565b90508181036020830152612b198184612a8d565b90509392505050565b6000612b2d826127da565b9050919050565b612b3d81612b22565b82525050565b6000602082019050612b586000830184612b34565b92915050565b612b67816126e9565b8114612b7257600080fd5b50565b600081359050612b8481612b5e565b92915050565b60008060408385031215612ba157612ba061265a565b5b6000612baf858286016128b0565b9250506020612bc085828601612b75565b9150509250929050565b612bd381612b22565b8114612bde57600080fd5b50565b600081359050612bf081612bca565b92915050565b600060208284031215612c0c57612c0b61265a565b5b6000612c1a84828501612be1565b91505092915050565b600080fd5b600080fd5b7f4e487b7100000000000000000000000000000000000000000000000000000000600052604160045260246000fd5b612c658261276e565b810181811067ffffffffffffffff82111715612c8457612c83612c2d565b5b80604052505050565b6000612c97612650565b9050612ca38282612c5c565b919050565b600067ffffffffffffffff821115612cc357612cc2612c2d565b5b612ccc8261276e565b9050602081019050919050565b82818337600083830152505050565b6000612cfb612cf684612ca8565b612c8d565b905082815260208101848484011115612d1757612d16612c28565b5b612d22848285612cd9565b509392505050565b600082601f830112612d3f57612d3e612c23565b5b8135612d4f848260208601612ce8565b91505092915050565b60008060008060808587031215612d7257612d7161265a565b5b6000612d80878288016128b0565b9450506020612d91878288016128b0565b9350506040612da287828801612857565b925050606085013567ffffffffffffffff811115612dc357612dc261265f565b5b612dcf87828801612d2a565b91505092959194509250565b60008060408385031215612df257612df161265a565b5b6000612e00858286016128b0565b9250506020612e11858286016128b0565b9150509250929050565b7f4e487b7100000000000000000000000000000000000000000000000000000000600052602260045260246000fd5b60006002820490506001821680612e6257607f821691505b602082108103612e7557612e74612e1b565b5b50919050565b7f4552433732313a20617070726f76656420717565727920666f72206e6f6e657860008201527f697374656e7420746f6b656e0000000000000000000000000000000000000000602082015250565b6000612ed7602c8361272a565b9150612ee282612e7b565b604082019050919050565b60006020820190508181036000830152612f0681612eca565b9050919050565b7f4552433732313a20617070726f76616c20746f2063757272656e74206f776e6560008201527f7200000000000000000000000000000000000000000000000000000000000000602082015250565b6000612f6960218361272a565b9150612f7482612f0d565b604082019050919050565b60006020820190508181036000830152612f9881612f5c565b9050919050565b7f4552433732313a20617070726f76652063616c6c6572206973206e6f74206f7760008201527f6e6572206e6f7220617070726f76656420666f7220616c6c0000000000000000602082015250565b6000612ffb60388361272a565b915061300682612f9f565b604082019050919050565b6000602082019050818103600083015261302a81612fee565b9050919050565b7f4552433732313a207472616e736665722063616c6c6572206973206e6f74206f60008201527f776e6572206e6f7220617070726f766564000000000000000000000000000000602082015250565b600061308d60318361272a565b915061309882613031565b604082019050919050565b600060208201905081810360008301526130bc81613080565b9050919050565b7f4f6e6c792074686520636f6e7472616374206d696e7465722063616e2063616c60008201527f6c20746869732066756e6374696f6e0000000000000000000000000000000000602082015250565b600061311f602f8361272a565b915061312a826130c3565b604082019050919050565b6000602082019050818103600083015261314e81613112565b9050919050565b7f6e6f74207a65726f206164647265737320666f72206e6577206d696e74657200600082015250565b600061318b601f8361272a565b915061319682613155565b602082019050919050565b600060208201905081810360008301526131ba8161317e565b9050919050565b7f455243373231456e756d657261626c653a206f776e657220696e646578206f7560008201527f74206f6620626f756e6473000000000000000000000000000000000000000000602082015250565b600061321d602b8361272a565b9150613228826131c1565b604082019050919050565b6000602082019050818103600083015261324c81613210565b9050919050565b7f455243373231456e756d657261626c653a20676c6f62616c20696e646578206f60008201527f7574206f6620626f756e64730000000000000000000000000000000000000000602082015250565b60006132af602c8361272a565b91506132ba82613253565b604082019050919050565b600060208201905081810360008301526132de816132a2565b9050919050565b7f4e487b7100000000000000000000000000000000000000000000000000000000600052603260045260246000fd5b7f4e487b7100000000000000000000000000000000000000000000000000000000600052601160045260246000fd5b600061334e82612836565b91507fffffffffffffffffffffffffffffffffffffffffffffffffffffffffffffffff82036133805761337f613314565b5b600182019050919050565b7f4552433732313a206f776e657220717565727920666f72206e6f6e657869737460008201527f656e7420746f6b656e0000000000000000000000000000000000000000000000602082015250565b60006133e760298361272a565b91506133f28261338b565b604082019050919050565b60006020820190508181036000830152613416816133da565b9050919050565b7f4552433732313a2062616c616e636520717565727920666f7220746865207a6560008201527f726f206164647265737300000000000000000000000000000000000000000000602082015250565b6000613479602a8361272a565b91506134848261341d565b604082019050919050565b600060208201905081810360008301526134a88161346c565b9050919050565b7f4f6e6c792074686520636f6e7472616374206f776e65722063616e2063616c6c60008201527f20746869732066756e6374696f6e000000000000000000000000000000000000602082015250565b600061350b602e8361272a565b9150613516826134af565b604082019050919050565b6000602082019050818103600083015261353a816134fe565b9050919050565b7f6e6f74207a65726f206164647265737320666f72206e6577206f776e65720000600082015250565b6000613577601e8361272a565b915061358282613541565b602082019050919050565b600060208201905081810360008301526135a68161356a565b9050919050565b7f544b4d426f783a206f6e6c7920746f6b656e206f776e65722063616e206f706560008201527f6e00000000000000000000000000000000000000000000000000000000000000602082015250565b600061360960218361272a565b9150613614826135ad565b604082019050919050565b60006020820190508181036000830152613638816135fc565b9050919050565b7f544b4d426f783a20616c726561647920746f6b656e206973206f70656e656400600082015250565b6000613675601f8361272a565b91506136808261363f565b602082019050919050565b600060208201905081810360008301526136a481613668565b9050919050565b7f4552433732313a206f70657261746f7220717565727920666f72206e6f6e657860008201527f697374656e7420746f6b656e0000000000000000000000000000000000000000602082015250565b6000613707602c8361272a565b9150613712826136ab565b604082019050919050565b60006020820190508181036000830152613736816136fa565b9050919050565b7f4552433732313a207472616e736665722066726f6d20696e636f72726563742060008201527f6f776e6572000000000000000000000000000000000000000000000000000000602082015250565b600061379960258361272a565b91506137a48261373d565b604082019050919050565b600060208201905081810360008301526137c88161378c565b9050919050565b7f4552433732313a207472616e7366657220746f20746865207a65726f2061646460008201527f7265737300000000000000000000000000000000000000000000000000000000602082015250565b600061382b60248361272a565b9150613836826137cf565b604082019050919050565b6000602082019050818103600083015261385a8161381e565b9050919050565b600061386c82612836565b915061387783612836565b92508282101561388a57613889613314565b5b828203905092915050565b60006138a082612836565b91506138ab83612836565b9250827fffffffffffffffffffffffffffffffffffffffffffffffffffffffffffffffff038211156138e0576138df613314565b5b828201905092915050565b7f4552433732313a20617070726f766520746f2063616c6c657200000000000000600082015250565b600061392160198361272a565b915061392c826138eb565b602082019050919050565b6000602082019050818103600083015261395081613914565b9050919050565b7f4552433732313a207472616e7366657220746f206e6f6e20455243373231526560008201527f63656976657220696d706c656d656e7465720000000000000000000000000000602082015250565b60006139b360328361272a565b91506139be82613957565b604082019050919050565b600060208201905081810360008301526139e2816139a6565b9050919050565b7f45524337323155524953746f726167653a2055524920717565727920666f722060008201527f6e6f6e6578697374656e7420746f6b656e000000000000000000000000000000602082015250565b6000613a4560318361272a565b9150613a50826139e9565b604082019050919050565b60006020820190508181036000830152613a7481613a38565b9050919050565b600081905092915050565b6000613a918261271f565b613a9b8185613a7b565b9350613aab81856020860161273b565b80840191505092915050565b6000613ac38285613a86565b9150613acf8284613a86565b91508190509392505050565b600081519050919050565b600082825260208201905092915050565b6000613b0282613adb565b613b0c8185613ae6565b9350613b1c81856020860161273b565b613b258161276e565b840191505092915050565b6000608082019050613b45600083018761280c565b613b52602083018661280c565b613b5f6040830185612905565b8181036060830152613b718184613af7565b905095945050505050565b600081519050613b8b81612690565b92915050565b600060208284031215613ba757613ba661265a565b5b6000613bb584828501613b7c565b91505092915050565b7f4552433732314d657461646174613a2055524920717565727920666f72206e6f60008201527f6e6578697374656e7420746f6b656e0000000000000000000000000000000000602082015250565b6000613c1a602f8361272a565b9150613c2582613bbe565b604082019050919050565b60006020820190508181036000830152613c4981613c0d565b9050919050565b7f4552433732313a206d696e7420746f20746865207a65726f2061646472657373600082015250565b6000613c8660208361272a565b9150613c9182613c50565b602082019050919050565b60006020820190508181036000830152613cb581613c79565b9050919050565b7f4552433732313a20746f6b656e20616c7265616479206d696e74656400000000600082015250565b6000613cf2601c8361272a565b9150613cfd82613cbc565b602082019050919050565b60006020820190508181036000830152613d2181613ce5565b9050919050565b7f4e487b7100000000000000000000000000000000000000000000000000000000600052601260045260246000fd5b6000613d6282612836565b9150613d6d83612836565b925082613d7d57613d7c613d28565b5b828204905092915050565b6000613d9382612836565b9150613d9e83612836565b925082613dae57613dad613d28565b5b828206905092915050565b7f4e487b7100000000000000000000000000000000000000000000000000000000600052603160045260246000fdfe68747470733a2f2f616c7068612d6170692e7072756e656d61726b65742e78797a3a3535322f6e66742f696e6f2f544b4d2fa2646970667358221220fe09fc44b917e612f6a3912bddd9ac83ebab810655ca9b2272e3ee120ea61cb064736f6c634300080e0033",
  "immutableReferences": {},
  "source": "// SPDX-License-Identifier: MIT\r\n\r\npragma solidity ^0.8.14;\r\n\r\nimport \"@openzeppelin/contracts/token/ERC721/ERC721.sol\";\r\nimport \"@openzeppelin/contracts/token/ERC721/extensions/ERC721Enumerable.sol\";\r\nimport \"@openzeppelin/contracts/token/ERC721/extensions/ERC721URIStorage.sol\";\r\nimport \"./Owner.sol\";\r\n\r\ncontract TKMBox is ERC721, ERC721Enumerable, ERC721URIStorage, Owner, Minter {\r\n    event BoxOpen(address indexed opener, uint256 indexed tokenId);\r\n\r\n    // owned box\r\n    struct Boxes {\r\n        uint256 tokenId;\r\n        bool isOpened;\r\n    }\r\n\r\n    // Mapping from token ID to box opened\r\n    mapping(uint256 => bool) private _boxOpened;\r\n\r\n    constructor(address minter_)\r\n        ERC721(\"Three Kingdom Multiverse Box\", \"3KMBox\")\r\n        Minter(minter_)\r\n    {}\r\n\r\n    function inoMint(uint256 startId, uint256 endId) external onlyMinter {\r\n        for (uint256 k = startId; k <= endId; k++) {\r\n            _safeMint(msg.sender, k);\r\n        }\r\n    }\r\n\r\n    function isOpened(uint256 tokenId) external view returns (bool) {\r\n        return _boxOpened[tokenId];\r\n    }\r\n\r\n    function collection()\r\n        external\r\n        view\r\n        returns (string memory, Boxes[] memory)\r\n    {\r\n        uint256 boxAmount = ERC721.balanceOf(msg.sender);\r\n        Boxes[] memory boxes = new Boxes[](boxAmount);\r\n        for (uint256 i = 0; i < boxAmount; i++) {\r\n            uint256 tokenId = ERC721Enumerable.tokenOfOwnerByIndex(\r\n                msg.sender,\r\n                i\r\n            );\r\n            boxes[i].tokenId = tokenId;\r\n            boxes[i].isOpened = _boxOpened[tokenId];\r\n        }\r\n        return (_baseURI(), boxes);\r\n    }\r\n\r\n    function boxOpen(uint256 tokenId) external {\r\n        require(\r\n            msg.sender == ownerOf(tokenId),\r\n            \"TKMBox: only token owner can open\"\r\n        );\r\n        require(\r\n            false == _boxOpened[tokenId],\r\n            \"TKMBox: already token is opened\"\r\n        );\r\n        _boxOpened[tokenId] = true;\r\n        emit BoxOpen(msg.sender, tokenId);\r\n    }\r\n\r\n    function _baseURI() internal pure override returns (string memory) {\r\n        return \"https://alpha-api.prunemarket.xyz:552/nft/ino/TKM/\";\r\n    }\r\n\r\n    function _beforeTokenTransfer(\r\n        address from,\r\n        address to,\r\n        uint256 tokenId\r\n    ) internal override(ERC721, ERC721Enumerable) {\r\n        super._beforeTokenTransfer(from, to, tokenId);\r\n    }\r\n\r\n    function _burn(uint256 tokenId)\r\n        internal\r\n        override(ERC721, ERC721URIStorage)\r\n    {\r\n        super._burn(tokenId);\r\n    }\r\n\r\n    function tokenURI(uint256 tokenId)\r\n        public\r\n        view\r\n        override(ERC721, ERC721URIStorage)\r\n        returns (string memory)\r\n    {\r\n        return super.tokenURI(tokenId);\r\n    }\r\n\r\n    function supportsInterface(bytes4 interfaceId)\r\n        public\r\n        view\r\n        override(ERC721, ERC721Enumerable)\r\n        returns (bool)\r\n    {\r\n        return super.supportsInterface(interfaceId);\r\n    }\r\n}\r\n",
  "sourcePath": "D:\\github\\solidity_tinyping\\contracts\\TKMBox.sol",
  "compiler": {
    "name": "solc",
    "version": "0.8.14+commit.80d49f37.Emscripten.clang"
  },
  "schemaVersion": "3.4.7",
  "updatedAt": "2022-08-09T02:17:20.662Z",
  "networkType": "ethereum",
  "devdoc": {
    "kind": "dev",
    "methods": {
      "approve(address,uint256)": {
        "details": "See {IERC721-approve}."
      },
      "balanceOf(address)": {
        "details": "See {IERC721-balanceOf}."
      },
      "getApproved(uint256)": {
        "details": "See {IERC721-getApproved}."
      },
      "isApprovedForAll(address,address)": {
        "details": "See {IERC721-isApprovedForAll}."
      },
      "name()": {
        "details": "See {IERC721Metadata-name}."
      },
      "ownerOf(uint256)": {
        "details": "See {IERC721-ownerOf}."
      },
      "safeTransferFrom(address,address,uint256)": {
        "details": "See {IERC721-safeTransferFrom}."
      },
      "safeTransferFrom(address,address,uint256,bytes)": {
        "details": "See {IERC721-safeTransferFrom}."
      },
      "setApprovalForAll(address,bool)": {
        "details": "See {IERC721-setApprovalForAll}."
      },
      "symbol()": {
        "details": "See {IERC721Metadata-symbol}."
      },
      "tokenByIndex(uint256)": {
        "details": "See {IERC721Enumerable-tokenByIndex}."
      },
      "tokenOfOwnerByIndex(address,uint256)": {
        "details": "See {IERC721Enumerable-tokenOfOwnerByIndex}."
      },
      "totalSupply()": {
        "details": "See {IERC721Enumerable-totalSupply}."
      },
      "transferFrom(address,address,uint256)": {
        "details": "See {IERC721-transferFrom}."
      }
    },
    "version": 1
  },
  "userdoc": {
    "kind": "user",
    "methods": {},
    "version": 1
  }
}