{
  "contractName": "TKMInoB",
  "abi": [
    {
      "inputs": [
        {
          "internalType": "address",
          "name": "_TKMBox",
          "type": "address"
        },
        {
          "internalType": "address",
          "name": "_Operator",
          "type": "address"
        }
      ],
      "stateMutability": "nonpayable",
      "type": "constructor"
    },
    {
      "anonymous": false,
      "inputs": [
        {
          "indexed": true,
          "internalType": "address",
          "name": "from",
          "type": "address"
        },
        {
          "indexed": true,
          "internalType": "address",
          "name": "to",
          "type": "address"
        }
      ],
      "name": "ChangeOwner",
      "type": "event"
    },
    {
      "anonymous": false,
      "inputs": [
        {
          "indexed": true,
          "internalType": "address",
          "name": "from",
          "type": "address"
        },
        {
          "indexed": true,
          "internalType": "uint8",
          "name": "order",
          "type": "uint8"
        },
        {
          "indexed": true,
          "internalType": "uint256",
          "name": "boxId",
          "type": "uint256"
        }
      ],
      "name": "Sale",
      "type": "event"
    },
    {
      "inputs": [],
      "name": "Operator",
      "outputs": [
        {
          "internalType": "address",
          "name": "",
          "type": "address"
        }
      ],
      "stateMutability": "view",
      "type": "function"
    },
    {
      "inputs": [],
      "name": "TKMBox",
      "outputs": [
        {
          "internalType": "contract ERC721",
          "name": "",
          "type": "address"
        }
      ],
      "stateMutability": "view",
      "type": "function"
    },
    {
      "inputs": [
        {
          "internalType": "uint8",
          "name": "",
          "type": "uint8"
        },
        {
          "internalType": "address",
          "name": "",
          "type": "address"
        }
      ],
      "name": "boxPerUser",
      "outputs": [
        {
          "internalType": "uint256",
          "name": "",
          "type": "uint256"
        }
      ],
      "stateMutability": "view",
      "type": "function"
    },
    {
      "inputs": [
        {
          "internalType": "address payable",
          "name": "newOwner_",
          "type": "address"
        }
      ],
      "name": "changeOwner",
      "outputs": [],
      "stateMutability": "nonpayable",
      "type": "function"
    },
    {
      "inputs": [
        {
          "internalType": "uint8",
          "name": "",
          "type": "uint8"
        }
      ],
      "name": "currentNftIds",
      "outputs": [
        {
          "internalType": "uint256",
          "name": "",
          "type": "uint256"
        }
      ],
      "stateMutability": "view",
      "type": "function"
    },
    {
      "inputs": [],
      "name": "owner",
      "outputs": [
        {
          "internalType": "address payable",
          "name": "",
          "type": "address"
        }
      ],
      "stateMutability": "view",
      "type": "function"
    },
    {
      "inputs": [
        {
          "internalType": "uint8",
          "name": "",
          "type": "uint8"
        }
      ],
      "name": "saleOrders",
      "outputs": [
        {
          "internalType": "uint256",
          "name": "startBoxId",
          "type": "uint256"
        },
        {
          "internalType": "uint256",
          "name": "endBoxId",
          "type": "uint256"
        },
        {
          "internalType": "uint256",
          "name": "startTime",
          "type": "uint256"
        },
        {
          "internalType": "uint256",
          "name": "endTime",
          "type": "uint256"
        },
        {
          "internalType": "uint256",
          "name": "price",
          "type": "uint256"
        },
        {
          "internalType": "uint256",
          "name": "limitPerUser",
          "type": "uint256"
        },
        {
          "internalType": "bool",
          "name": "whiteList",
          "type": "bool"
        }
      ],
      "stateMutability": "view",
      "type": "function"
    },
    {
      "inputs": [
        {
          "internalType": "uint8",
          "name": "",
          "type": "uint8"
        },
        {
          "internalType": "address",
          "name": "",
          "type": "address"
        }
      ],
      "name": "whiteLists",
      "outputs": [
        {
          "internalType": "bool",
          "name": "",
          "type": "bool"
        }
      ],
      "stateMutability": "view",
      "type": "function"
    },
    {
      "inputs": [
        {
          "internalType": "uint8",
          "name": "_order",
          "type": "uint8"
        },
        {
          "internalType": "uint256",
          "name": "_startBoxId",
          "type": "uint256"
        },
        {
          "internalType": "uint256",
          "name": "_endBoxId",
          "type": "uint256"
        },
        {
          "internalType": "uint256",
          "name": "_startTime",
          "type": "uint256"
        },
        {
          "internalType": "uint256",
          "name": "_endTime",
          "type": "uint256"
        },
        {
          "internalType": "uint256",
          "name": "_price",
          "type": "uint256"
        },
        {
          "internalType": "uint256",
          "name": "_limitPerUser",
          "type": "uint256"
        },
        {
          "internalType": "bool",
          "name": "_whiteList",
          "type": "bool"
        }
      ],
      "name": "setSaleOrder",
      "outputs": [],
      "stateMutability": "nonpayable",
      "type": "function"
    },
    {
      "inputs": [
        {
          "internalType": "uint8",
          "name": "_order",
          "type": "uint8"
        },
        {
          "internalType": "address[]",
          "name": "_addresses",
          "type": "address[]"
        }
      ],
      "name": "addWhiteList",
      "outputs": [],
      "stateMutability": "nonpayable",
      "type": "function"
    },
    {
      "inputs": [
        {
          "internalType": "uint8",
          "name": "_order",
          "type": "uint8"
        }
      ],
      "name": "sale",
      "outputs": [],
      "stateMutability": "payable",
      "type": "function"
    },
    {
      "inputs": [
        {
          "internalType": "address",
          "name": "to",
          "type": "address"
        }
      ],
      "name": "withdrawEth",
      "outputs": [],
      "stateMutability": "nonpayable",
      "type": "function"
    }
  ],
  "bytecode": "0x60806040523480156200001157600080fd5b50604051620025783803806200257883398181016040528101906200003791906200016b565b336000806101000a81548173ffffffffffffffffffffffffffffffffffffffff021916908373ffffffffffffffffffffffffffffffffffffffff16021790555081600160006101000a81548173ffffffffffffffffffffffffffffffffffffffff021916908373ffffffffffffffffffffffffffffffffffffffff16021790555080600260006101000a81548173ffffffffffffffffffffffffffffffffffffffff021916908373ffffffffffffffffffffffffffffffffffffffff1602179055505050620001b2565b600080fd5b600073ffffffffffffffffffffffffffffffffffffffff82169050919050565b6000620001338262000106565b9050919050565b620001458162000126565b81146200015157600080fd5b50565b60008151905062000165816200013a565b92915050565b6000806040838503121562000185576200018462000101565b5b6000620001958582860162000154565b9250506020620001a88582860162000154565b9150509250929050565b6123b680620001c26000396000f3fe6080604052600436106100a75760003560e01c80632dd07fbc116100645780632dd07fbc146101c55780635491f538146101f0578063626a02c61461022d5780638da5cb5b1461026a578063a6f9dae114610295578063bcc8661a146102be576100a7565b80630b6f4cc7146100ac57806312e9b926146100e957806325e160631461010557806327466f991461012e57806328c9ddb414610157578063297da2a614610182575b600080fd5b3480156100b857600080fd5b506100d360048036038101906100ce91906111e7565b6102e7565b6040516100e09190611242565b60405180910390f35b61010360048036038101906100fe919061125d565b610316565b005b34801561011157600080fd5b5061012c6004803603810190610127919061128a565b61093f565b005b34801561013a57600080fd5b5061015560048036038101906101509190611319565b610a8c565b005b34801561016357600080fd5b5061016c610cdb565b604051610179919061142e565b60405180910390f35b34801561018e57600080fd5b506101a960048036038101906101a4919061125d565b610d01565b6040516101bc9796959493929190611458565b60405180910390f35b3480156101d157600080fd5b506101da610d50565b6040516101e791906114d6565b60405180910390f35b3480156101fc57600080fd5b506102176004803603810190610212919061125d565b610d76565b60405161022491906114f1565b60405180910390f35b34801561023957600080fd5b50610254600480360381019061024f91906111e7565b610d8e565b60405161026191906114f1565b60405180910390f35b34801561027657600080fd5b5061027f610db3565b60405161028c919061152d565b60405180910390f35b3480156102a157600080fd5b506102bc60048036038101906102b79190611574565b610dd7565b005b3480156102ca57600080fd5b506102e560048036038101906102e091906116fa565b610f71565b005b60046020528160005260406000206020528060005260406000206000915091509054906101000a900460ff1681565b60008160ff161161035c576040517f08c379a0000000000000000000000000000000000000000000000000000000008152600401610353906117d9565b60405180910390fd5b42600360008360ff1660ff1681526020019081526020016000206002015411156103bb576040517f08c379a00000000000000000000000000000000000000000000000000000000081526004016103b29061186b565b60405180910390fd5b42600360008360ff1660ff16815260200190815260200160002060030154101561041a576040517f08c379a0000000000000000000000000000000000000000000000000000000008152600401610411906118d7565b60405180910390fd5b60011515600360008360ff1660ff16815260200190815260200160002060060160009054906101000a900460ff161515036104fa5760011515600460008360ff1660ff16815260200190815260200160002060003373ffffffffffffffffffffffffffffffffffffffff1673ffffffffffffffffffffffffffffffffffffffff16815260200190815260200160002060009054906101000a900460ff161515146104f9576040517f08c379a00000000000000000000000000000000000000000000000000000000081526004016104f090611969565b60405180910390fd5b5b6000600360008360ff1660ff168152602001908152602001600020600401543461052491906119e7565b905034600360008460ff1660ff168152602001908152602001600020600401548261054f9190611a18565b1461058f576040517f08c379a000000000000000000000000000000000000000000000000000000000815260040161058690611abe565b60405180910390fd5b806000106105d2576040517f08c379a00000000000000000000000000000000000000000000000000000000081526004016105c990611b50565b60405180910390fd5b8060141015610616576040517f08c379a000000000000000000000000000000000000000000000000000000000815260040161060d90611c08565b60405180910390fd5b80600660008460ff1660ff16815260200190815260200160002060003373ffffffffffffffffffffffffffffffffffffffff1673ffffffffffffffffffffffffffffffffffffffff168152602001908152602001600020600082825461067c9190611c28565b92505081905550600360008360ff1660ff16815260200190815260200160002060050154600660008460ff1660ff16815260200190815260200160002060003373ffffffffffffffffffffffffffffffffffffffff1673ffffffffffffffffffffffffffffffffffffffff168152602001908152602001600020541115610738576040517f08c379a000000000000000000000000000000000000000000000000000000000815260040161072f90611cf0565b60405180910390fd5b6000600560008460ff1660ff16815260200190815260200160002054905081600560008560ff1660ff168152602001908152602001600020600082825461077f9190611c28565b92505081905550600360008460ff1660ff168152602001908152602001600020600101546001600560008660ff1660ff168152602001908152602001600020546107c99190611d10565b111561080a576040517f08c379a000000000000000000000000000000000000000000000000000000000815260040161080190611db6565b60405180910390fd5b60005b8281101561093957600160009054906101000a900473ffffffffffffffffffffffffffffffffffffffff1673ffffffffffffffffffffffffffffffffffffffff166342842e0e600260009054906101000a900473ffffffffffffffffffffffffffffffffffffffff163384866108839190611c28565b6040518463ffffffff1660e01b81526004016108a193929190611dd6565b600060405180830381600087803b1580156108bb57600080fd5b505af11580156108cf573d6000803e3d6000fd5b5050505080826108df9190611c28565b8460ff163373ffffffffffffffffffffffffffffffffffffffff167f9abe6afca30e7673e8c923fe25a0263b60d2951081abd0160cd8451576f94ec960405160405180910390a4808061093190611e0d565b91505061080d565b50505050565b60008054906101000a900473ffffffffffffffffffffffffffffffffffffffff1673ffffffffffffffffffffffffffffffffffffffff163373ffffffffffffffffffffffffffffffffffffffff16146109cd576040517f08c379a00000000000000000000000000000000000000000000000000000000081526004016109c490611ec7565b60405180910390fd5b600073ffffffffffffffffffffffffffffffffffffffff168173ffffffffffffffffffffffffffffffffffffffff1603610a3c576040517f08c379a0000000000000000000000000000000000000000000000000000000008152600401610a3390611f59565b60405180910390fd5b60008190508073ffffffffffffffffffffffffffffffffffffffff166108fc479081150290604051600060405180830381858888f19350505050158015610a87573d6000803e3d6000fd5b505050565b60008054906101000a900473ffffffffffffffffffffffffffffffffffffffff1673ffffffffffffffffffffffffffffffffffffffff163373ffffffffffffffffffffffffffffffffffffffff1614610b1a576040517f08c379a0000000000000000000000000000000000000000000000000000000008152600401610b1190611ec7565b60405180910390fd5b600360008960ff1660ff16815260200190815260200160002060020154600014610b79576040517f08c379a0000000000000000000000000000000000000000000000000000000008152600401610b7090611feb565b60405180910390fd5b60008860ff1611610bbf576040517f08c379a0000000000000000000000000000000000000000000000000000000008152600401610bb69061207d565b60405180910390fd5b428411610c01576040517f08c379a0000000000000000000000000000000000000000000000000000000008152600401610bf89061210f565b60405180910390fd5b848411610c43576040517f08c379a0000000000000000000000000000000000000000000000000000000008152600401610c3a906121a1565b60405180910390fd5b6000600360008a60ff1660ff1681526020019081526020016000209050878160000181905550868160010181905550858160020181905550848160030181905550838160040181905550828160050181905550818160060160006101000a81548160ff02191690831515021790555087600560008b60ff1660ff16815260200190815260200160002081905550505050505050505050565b600160009054906101000a900473ffffffffffffffffffffffffffffffffffffffff1681565b60036020528060005260406000206000915090508060000154908060010154908060020154908060030154908060040154908060050154908060060160009054906101000a900460ff16905087565b600260009054906101000a900473ffffffffffffffffffffffffffffffffffffffff1681565b60056020528060005260406000206000915090505481565b6006602052816000526040600020602052806000526040600020600091509150505481565b60008054906101000a900473ffffffffffffffffffffffffffffffffffffffff1681565b60008054906101000a900473ffffffffffffffffffffffffffffffffffffffff1673ffffffffffffffffffffffffffffffffffffffff163373ffffffffffffffffffffffffffffffffffffffff1614610e65576040517f08c379a0000000000000000000000000000000000000000000000000000000008152600401610e5c90611ec7565b60405180910390fd5b600073ffffffffffffffffffffffffffffffffffffffff168173ffffffffffffffffffffffffffffffffffffffff1603610ed4576040517f08c379a0000000000000000000000000000000000000000000000000000000008152600401610ecb9061220d565b60405180910390fd5b806000806101000a81548173ffffffffffffffffffffffffffffffffffffffff021916908373ffffffffffffffffffffffffffffffffffffffff1602179055508073ffffffffffffffffffffffffffffffffffffffff163373ffffffffffffffffffffffffffffffffffffffff167f9aecf86140d81442289f667eb72e1202a8fbb3478a686659952e145e8531965660405160405180910390a350565b60008054906101000a900473ffffffffffffffffffffffffffffffffffffffff1673ffffffffffffffffffffffffffffffffffffffff163373ffffffffffffffffffffffffffffffffffffffff1614610fff576040517f08c379a0000000000000000000000000000000000000000000000000000000008152600401610ff690611ec7565b60405180910390fd5b60008260ff1611611045576040517f08c379a000000000000000000000000000000000000000000000000000000000815260040161103c9061229f565b60405180910390fd5b8051600010611089576040517f08c379a000000000000000000000000000000000000000000000000000000000815260040161108090612331565b60405180910390fd5b60008151905060005b81811015611136576001600460008660ff1660ff16815260200190815260200160002060008584815181106110ca576110c9612351565b5b602002602001015173ffffffffffffffffffffffffffffffffffffffff1673ffffffffffffffffffffffffffffffffffffffff16815260200190815260200160002060006101000a81548160ff021916908315150217905550808061112e90611e0d565b915050611092565b50505050565b6000604051905090565b600080fd5b600080fd5b600060ff82169050919050565b61116681611150565b811461117157600080fd5b50565b6000813590506111838161115d565b92915050565b600073ffffffffffffffffffffffffffffffffffffffff82169050919050565b60006111b482611189565b9050919050565b6111c4816111a9565b81146111cf57600080fd5b50565b6000813590506111e1816111bb565b92915050565b600080604083850312156111fe576111fd611146565b5b600061120c85828601611174565b925050602061121d858286016111d2565b9150509250929050565b60008115159050919050565b61123c81611227565b82525050565b60006020820190506112576000830184611233565b92915050565b60006020828403121561127357611272611146565b5b600061128184828501611174565b91505092915050565b6000602082840312156112a05761129f611146565b5b60006112ae848285016111d2565b91505092915050565b6000819050919050565b6112ca816112b7565b81146112d557600080fd5b50565b6000813590506112e7816112c1565b92915050565b6112f681611227565b811461130157600080fd5b50565b600081359050611313816112ed565b92915050565b600080600080600080600080610100898b03121561133a57611339611146565b5b60006113488b828c01611174565b98505060206113598b828c016112d8565b975050604061136a8b828c016112d8565b965050606061137b8b828c016112d8565b955050608061138c8b828c016112d8565b94505060a061139d8b828c016112d8565b93505060c06113ae8b828c016112d8565b92505060e06113bf8b828c01611304565b9150509295985092959890939650565b6000819050919050565b60006113f46113ef6113ea84611189565b6113cf565b611189565b9050919050565b6000611406826113d9565b9050919050565b6000611418826113fb565b9050919050565b6114288161140d565b82525050565b6000602082019050611443600083018461141f565b92915050565b611452816112b7565b82525050565b600060e08201905061146d600083018a611449565b61147a6020830189611449565b6114876040830188611449565b6114946060830187611449565b6114a16080830186611449565b6114ae60a0830185611449565b6114bb60c0830184611233565b98975050505050505050565b6114d0816111a9565b82525050565b60006020820190506114eb60008301846114c7565b92915050565b60006020820190506115066000830184611449565b92915050565b600061151782611189565b9050919050565b6115278161150c565b82525050565b6000602082019050611542600083018461151e565b92915050565b6115518161150c565b811461155c57600080fd5b50565b60008135905061156e81611548565b92915050565b60006020828403121561158a57611589611146565b5b60006115988482850161155f565b91505092915050565b600080fd5b6000601f19601f8301169050919050565b7f4e487b7100000000000000000000000000000000000000000000000000000000600052604160045260246000fd5b6115ef826115a6565b810181811067ffffffffffffffff8211171561160e5761160d6115b7565b5b80604052505050565b600061162161113c565b905061162d82826115e6565b919050565b600067ffffffffffffffff82111561164d5761164c6115b7565b5b602082029050602081019050919050565b600080fd5b600061167661167184611632565b611617565b905080838252602082019050602084028301858111156116995761169861165e565b5b835b818110156116c257806116ae88826111d2565b84526020840193505060208101905061169b565b5050509392505050565b600082601f8301126116e1576116e06115a1565b5b81356116f1848260208601611663565b91505092915050565b6000806040838503121561171157611710611146565b5b600061171f85828601611174565b925050602083013567ffffffffffffffff8111156117405761173f61114b565b5b61174c858286016116cc565b9150509250929050565b600082825260208201905092915050565b7f5b544b4d496e6f425d5b73616c655d3a206f72646572206d757374206265206760008201527f726561746572207468616e207a65726f00000000000000000000000000000000602082015250565b60006117c3603083611756565b91506117ce82611767565b604082019050919050565b600060208201905081810360008301526117f2816117b6565b9050919050565b7f5b544b4d496e6f425d5b73616c655d3a2073616c65206973206e6f742073746160008201527f7274656400000000000000000000000000000000000000000000000000000000602082015250565b6000611855602483611756565b9150611860826117f9565b604082019050919050565b6000602082019050818103600083015261188481611848565b9050919050565b7f5b544b4d496e6f425d5b73616c655d3a2073616c6520697320656e6465640000600082015250565b60006118c1601e83611756565b91506118cc8261188b565b602082019050919050565b600060208201905081810360008301526118f0816118b4565b9050919050565b7f5b544b4d496e6f425d5b73616c655d3a206e6f7420696e2077686974656c697360008201527f7400000000000000000000000000000000000000000000000000000000000000602082015250565b6000611953602183611756565b915061195e826118f7565b604082019050919050565b6000602082019050818103600083015261198281611946565b9050919050565b7f4e487b7100000000000000000000000000000000000000000000000000000000600052601260045260246000fd5b7f4e487b7100000000000000000000000000000000000000000000000000000000600052601160045260246000fd5b60006119f2826112b7565b91506119fd836112b7565b925082611a0d57611a0c611989565b5b828204905092915050565b6000611a23826112b7565b9150611a2e836112b7565b9250817fffffffffffffffffffffffffffffffffffffffffffffffffffffffffffffffff0483118215151615611a6757611a666119b8565b5b828202905092915050565b7f5b544b4d496e6f425d5b73616c655d3a20696e636f72726563742076616c7565600082015250565b6000611aa8602083611756565b9150611ab382611a72565b602082019050919050565b60006020820190508181036000830152611ad781611a9b565b9050919050565b7f5b544b4d496e6f425d5b73616c655d3a20626f7820616d6f756e74206d75737460008201527f2062652067726561746572207468616e207a65726f0000000000000000000000602082015250565b6000611b3a603583611756565b9150611b4582611ade565b604082019050919050565b60006020820190508181036000830152611b6981611b2d565b9050919050565b7f5b544b4d496e6f425d5b73616c655d3a206578636565646564206e756d62657260008201527f206f6620626f786573207075726368617361626c65206174206f6e652074696d60208201527f6500000000000000000000000000000000000000000000000000000000000000604082015250565b6000611bf2604183611756565b9150611bfd82611b70565b606082019050919050565b60006020820190508181036000830152611c2181611be5565b9050919050565b6000611c33826112b7565b9150611c3e836112b7565b9250827fffffffffffffffffffffffffffffffffffffffffffffffffffffffffffffffff03821115611c7357611c726119b8565b5b828201905092915050565b7f5b544b4d496e6f425d5b73616c655d3a206578636565646564206e756d62657260008201527f206f6620626f786573207075726368617361626c650000000000000000000000602082015250565b6000611cda603583611756565b9150611ce582611c7e565b604082019050919050565b60006020820190508181036000830152611d0981611ccd565b9050919050565b6000611d1b826112b7565b9150611d26836112b7565b925082821015611d3957611d386119b8565b5b828203905092915050565b7f5b544b4d496e6f425d5b73616c655d3a204e6f7420656e6f75676820626f786560008201527f7320617265206c65667400000000000000000000000000000000000000000000602082015250565b6000611da0602a83611756565b9150611dab82611d44565b604082019050919050565b60006020820190508181036000830152611dcf81611d93565b9050919050565b6000606082019050611deb60008301866114c7565b611df860208301856114c7565b611e056040830184611449565b949350505050565b6000611e18826112b7565b91507fffffffffffffffffffffffffffffffffffffffffffffffffffffffffffffffff8203611e4a57611e496119b8565b5b600182019050919050565b7f4f6e6c792074686520636f6e7472616374206f776e65722063616e2063616c6c60008201527f20746869732066756e6374696f6e000000000000000000000000000000000000602082015250565b6000611eb1602e83611756565b9150611ebc82611e55565b604082019050919050565b60006020820190508181036000830152611ee081611ea4565b9050919050565b7f5b544b4d496e6f425d5b77697468647261774574685d3a207472616e7366657260008201527f20746f20746865207a65726f2061646472657373000000000000000000000000602082015250565b6000611f43603483611756565b9150611f4e82611ee7565b604082019050919050565b60006020820190508181036000830152611f7281611f36565b9050919050565b7f5b544b4d496e6f425d5b73657453616c654f726465725d3a2074686973206f7260008201527f64657220616c7265616479207365740000000000000000000000000000000000602082015250565b6000611fd5602f83611756565b9150611fe082611f79565b604082019050919050565b6000602082019050818103600083015261200481611fc8565b9050919050565b7f5b544b4d496e6f425d5b73657453616c654f726465725d3a206f72646572206d60008201527f7573742062652067726561746572207468616e207a65726f0000000000000000602082015250565b6000612067603883611756565b91506120728261200b565b604082019050919050565b600060208201905081810360008301526120968161205a565b9050919050565b7f5b544b4d496e6f425d5b73657453616c654f726465725d3a205f656e6454696d60008201527f6520697320756e646572206e6f77000000000000000000000000000000000000602082015250565b60006120f9602e83611756565b91506121048261209d565b604082019050919050565b60006020820190508181036000830152612128816120ec565b9050919050565b7f5b544b4d496e6f425d5b73657453616c654f726465725d3a205f656e6454696d60008201527f6520697320756e646572205f737461727454696d650000000000000000000000602082015250565b600061218b603583611756565b91506121968261212f565b604082019050919050565b600060208201905081810360008301526121ba8161217e565b9050919050565b7f6e6f74207a65726f206164647265737320666f72206e6577206f776e65720000600082015250565b60006121f7601e83611756565b9150612202826121c1565b602082019050919050565b60006020820190508181036000830152612226816121ea565b9050919050565b7f5b544b4d496e6f425d5b61646457686974654c6973745d3a206f72646572206d60008201527f7573742062652067726561746572207468616e207a65726f0000000000000000602082015250565b6000612289603883611756565b91506122948261222d565b604082019050919050565b600060208201905081810360008301526122b88161227c565b9050919050565b7f5b544b4d496e6f425d5b61646457686974654c6973745d3a206164647265737360008201527f206d7573742062652067726561746572207468616e207a65726f000000000000602082015250565b600061231b603a83611756565b9150612326826122bf565b604082019050919050565b6000602082019050818103600083015261234a8161230e565b9050919050565b7f4e487b7100000000000000000000000000000000000000000000000000000000600052603260045260246000fdfea2646970667358221220a24df5f5e505df3028dd7c6f76cf771d5b5a340ffe4696299066aab614f29a6364736f6c634300080e0033",
  "immutableReferences": {},
  "source": "// SPDX-License-Identifier: MIT\r\npragma solidity ^0.8.14;\r\n\r\nimport \"@openzeppelin/contracts/token/ERC721/ERC721.sol\";\r\nimport \"./Owner.sol\";\r\n\r\ncontract TKMInoB is Owner {\r\n    ERC721 public TKMBox;\r\n    address public Operator;\r\n\r\n    event Sale(address indexed from, uint8 indexed order, uint256 indexed boxId);\r\n\r\n    /////////////////////////////////////////////////////\r\n    // Box Sale\r\n    struct saleOrder {\r\n        uint256 startBoxId;\r\n        uint256 endBoxId;\r\n        uint256 startTime;\r\n        uint256 endTime;\r\n        uint256 price;\r\n        uint256 limitPerUser;\r\n        bool whiteList;\r\n    }\r\n    mapping(uint8 => saleOrder) public saleOrders;\r\n    \r\n    mapping(uint8 => mapping(address => bool)) public whiteLists;\r\n\r\n    mapping(uint8 => uint256) public currentNftIds;\r\n    \r\n    mapping(uint8 => mapping(address => uint256)) public boxPerUser;\r\n\r\n    constructor(address _TKMBox, address _Operator) {\r\n        TKMBox = ERC721(payable(_TKMBox));\r\n        Operator = _Operator;\r\n    }\r\n\r\n    function setSaleOrder(\r\n        uint8 _order,\r\n        uint256 _startBoxId,\r\n        uint256 _endBoxId,\r\n        uint256 _startTime,\r\n        uint256 _endTime,\r\n        uint256 _price,\r\n        uint256 _limitPerUser,\r\n        bool _whiteList\r\n    ) public onlyOwner {\r\n        require(0 == saleOrders[_order].startTime, \"[TKMInoB][setSaleOrder]: this order already set\");\r\n\r\n        require(_order > 0, \"[TKMInoB][setSaleOrder]: order must be greater than zero\");\r\n\r\n        require(_endTime > block.timestamp, \"[TKMInoB][setSaleOrder]: _endTime is under now\");\r\n        require(_endTime > _startTime, \"[TKMInoB][setSaleOrder]: _endTime is under _startTime\");\r\n\r\n        saleOrder storage newOrder = saleOrders[_order];\r\n        newOrder.startBoxId = _startBoxId;\r\n        newOrder.endBoxId = _endBoxId;\r\n        newOrder.startTime = _startTime;\r\n        newOrder.endTime = _endTime;\r\n        newOrder.price = _price;\r\n        newOrder.limitPerUser = _limitPerUser;\r\n        newOrder.whiteList = _whiteList;\r\n\r\n        currentNftIds[_order] = _startBoxId;\r\n    }\r\n\r\n    function addWhiteList(uint8 _order, address[] memory _addresses) public onlyOwner {\r\n        require(_order > 0, \"[TKMInoB][addWhiteList]: order must be greater than zero\");\r\n\r\n        require(0 < _addresses.length, \"[TKMInoB][addWhiteList]: address must be greater than zero\");\r\n\r\n        uint256 length = _addresses.length;\r\n        for (uint256 i = 0; i < length; i++) {\r\n            whiteLists[_order][_addresses[i]] = true;\r\n        }\r\n    }\r\n\r\n    function sale(uint8 _order) public payable {\r\n        require(_order > 0, \"[TKMInoB][sale]: order must be greater than zero\");\r\n\r\n        require(saleOrders[_order].startTime <= block.timestamp, \"[TKMInoB][sale]: sale is not started\");\r\n        require(saleOrders[_order].endTime >= block.timestamp, \"[TKMInoB][sale]: sale is ended\");\r\n\r\n        if(saleOrders[_order].whiteList == true) {\r\n            require(whiteLists[_order][msg.sender] == true, \"[TKMInoB][sale]: not in whitelist\");\r\n        }\r\n\r\n        uint256 boxAmount = msg.value / saleOrders[_order].price;\r\n        require(boxAmount * saleOrders[_order].price == msg.value, \"[TKMInoB][sale]: incorrect value\");\r\n        require(0 < boxAmount, \"[TKMInoB][sale]: box amount must be greater than zero\");\r\n        require(20 >= boxAmount, \"[TKMInoB][sale]: exceeded number of boxes purchasable at one time\");\r\n        \r\n        boxPerUser[_order][msg.sender] += boxAmount;\r\n        require(boxPerUser[_order][msg.sender] <= saleOrders[_order].limitPerUser, \"[TKMInoB][sale]: exceeded number of boxes purchasable\");\r\n\r\n        uint256 currentNftId = currentNftIds[_order];\r\n        currentNftIds[_order] += boxAmount;\r\n        require(currentNftIds[_order] - 1 <= saleOrders[_order].endBoxId, \"[TKMInoB][sale]: Not enough boxes are left\");\r\n        \r\n        for (uint256 i = 0; i < boxAmount; i++) {\r\n            TKMBox.safeTransferFrom(Operator, msg.sender, currentNftId + i);\r\n            emit Sale(msg.sender, _order, currentNftId + i);\r\n        }\r\n    }\r\n\r\n    function withdrawEth(address to) public onlyOwner {\r\n        require(to != address(0), \"[TKMInoB][withdrawEth]: transfer to the zero address\");\r\n        address payable receiver = payable(to);\r\n        receiver.transfer(address(this).balance);\r\n    }\r\n}\r\n",
  "sourcePath": "C:\\Works\\1_Github\\solidity_tinyping\\contracts\\TKMInoB.sol",
  "compiler": {
    "name": "solc",
    "version": "0.8.14+commit.80d49f37.Emscripten.clang"
  },
  "schemaVersion": "3.4.7",
  "updatedAt": "2022-11-07T05:00:05.116Z",
  "networkType": "ethereum",
  "devdoc": {
    "kind": "dev",
    "methods": {},
    "version": 1
  },
  "userdoc": {
    "kind": "user",
    "methods": {},
    "version": 1
  }
}