{
  "contractName": "RankeIco",
  "abi": [
    {
      "inputs": [
        {
          "internalType": "address",
          "name": "_RankeToken",
          "type": "address"
        },
        {
          "internalType": "address",
          "name": "_Operator",
          "type": "address"
        }
      ],
      "stateMutability": "nonpayable",
      "type": "constructor"
    },
    {
      "anonymous": false,
      "inputs": [
        {
          "indexed": true,
          "internalType": "address",
          "name": "from",
          "type": "address"
        },
        {
          "indexed": true,
          "internalType": "address",
          "name": "to",
          "type": "address"
        }
      ],
      "name": "ChangeOwner",
      "type": "event"
    },
    {
      "anonymous": false,
      "inputs": [
        {
          "indexed": true,
          "internalType": "address",
          "name": "from",
          "type": "address"
        }
      ],
      "name": "Ico",
      "type": "event"
    },
    {
      "inputs": [],
      "name": "Operator",
      "outputs": [
        {
          "internalType": "address",
          "name": "",
          "type": "address"
        }
      ],
      "stateMutability": "view",
      "type": "function",
      "constant": true
    },
    {
      "inputs": [],
      "name": "RankeToken",
      "outputs": [
        {
          "internalType": "contract ERC20",
          "name": "",
          "type": "address"
        }
      ],
      "stateMutability": "view",
      "type": "function",
      "constant": true
    },
    {
      "inputs": [
        {
          "internalType": "address payable",
          "name": "_newOwner",
          "type": "address"
        }
      ],
      "name": "changeOwner",
      "outputs": [],
      "stateMutability": "nonpayable",
      "type": "function"
    },
    {
      "inputs": [],
      "name": "owner",
      "outputs": [
        {
          "internalType": "address payable",
          "name": "",
          "type": "address"
        }
      ],
      "stateMutability": "view",
      "type": "function",
      "constant": true
    },
    {
      "inputs": [],
      "name": "ico",
      "outputs": [],
      "stateMutability": "payable",
      "type": "function",
      "payable": true
    },
    {
      "inputs": [
        {
          "internalType": "address",
          "name": "to",
          "type": "address"
        }
      ],
      "name": "withdrawEth",
      "outputs": [],
      "stateMutability": "nonpayable",
      "type": "function"
    }
  ],
  "bytecode": "0x608060405234801561001057600080fd5b50604051610c7b380380610c7b8339818101604052810190610032919061015e565b336000806101000a81548173ffffffffffffffffffffffffffffffffffffffff021916908373ffffffffffffffffffffffffffffffffffffffff16021790555081600160006101000a81548173ffffffffffffffffffffffffffffffffffffffff021916908373ffffffffffffffffffffffffffffffffffffffff16021790555080600260006101000a81548173ffffffffffffffffffffffffffffffffffffffff021916908373ffffffffffffffffffffffffffffffffffffffff160217905550505061019e565b600080fd5b600073ffffffffffffffffffffffffffffffffffffffff82169050919050565b600061012b82610100565b9050919050565b61013b81610120565b811461014657600080fd5b50565b60008151905061015881610132565b92915050565b60008060408385031215610175576101746100fb565b5b600061018385828601610149565b925050602061019485828601610149565b9150509250929050565b610ace806101ad6000396000f3fe6080604052600436106100555760003560e01c806325e160631461005a5780632dd07fbc146100835780635d452201146100ae5780636a088d7f146100b85780638da5cb5b146100e3578063a6f9dae11461010e575b600080fd5b34801561006657600080fd5b50610081600480360381019061007c919061061e565b610137565b005b34801561008f57600080fd5b50610098610284565b6040516100a5919061065a565b60405180910390f35b6100b66102aa565b005b3480156100c457600080fd5b506100cd610446565b6040516100da91906106d4565b60405180910390f35b3480156100ef57600080fd5b506100f861046c565b6040516101059190610710565b60405180910390f35b34801561011a57600080fd5b5061013560048036038101906101309190610757565b610490565b005b60008054906101000a900473ffffffffffffffffffffffffffffffffffffffff1673ffffffffffffffffffffffffffffffffffffffff163373ffffffffffffffffffffffffffffffffffffffff16146101c5576040517f08c379a00000000000000000000000000000000000000000000000000000000081526004016101bc90610807565b60405180910390fd5b600073ffffffffffffffffffffffffffffffffffffffff168173ffffffffffffffffffffffffffffffffffffffff1603610234576040517f08c379a000000000000000000000000000000000000000000000000000000000815260040161022b90610899565b60405180910390fd5b60008190508073ffffffffffffffffffffffffffffffffffffffff166108fc479081150290604051600060405180830381858888f1935050505015801561027f573d6000803e3d6000fd5b505050565b600260009054906101000a900473ffffffffffffffffffffffffffffffffffffffff1681565b34670de0b6b3a7640000146102f4576040517f08c379a00000000000000000000000000000000000000000000000000000000081526004016102eb90610905565b60405180910390fd5b600160009054906101000a900473ffffffffffffffffffffffffffffffffffffffff1673ffffffffffffffffffffffffffffffffffffffff166323b872dd600260009054906101000a900473ffffffffffffffffffffffffffffffffffffffff163369021e19e0c9bab24000006040518463ffffffff1660e01b815260040161037f9392919061096a565b6020604051808303816000875af115801561039e573d6000803e3d6000fd5b505050506040513d601f19601f820116820180604052508101906103c291906109d9565b610401576040517f08c379a00000000000000000000000000000000000000000000000000000000081526004016103f890610a78565b60405180910390fd5b3373ffffffffffffffffffffffffffffffffffffffff167fd63fd88781852d6316714a2518ba98187a198375d829060bd1490e54d09cd83260405160405180910390a2565b600160009054906101000a900473ffffffffffffffffffffffffffffffffffffffff1681565b60008054906101000a900473ffffffffffffffffffffffffffffffffffffffff1681565b60008054906101000a900473ffffffffffffffffffffffffffffffffffffffff1673ffffffffffffffffffffffffffffffffffffffff163373ffffffffffffffffffffffffffffffffffffffff161461051e576040517f08c379a000000000000000000000000000000000000000000000000000000000815260040161051590610807565b60405180910390fd5b806000806101000a81548173ffffffffffffffffffffffffffffffffffffffff021916908373ffffffffffffffffffffffffffffffffffffffff1602179055508073ffffffffffffffffffffffffffffffffffffffff163373ffffffffffffffffffffffffffffffffffffffff167f9aecf86140d81442289f667eb72e1202a8fbb3478a686659952e145e8531965660405160405180910390a350565b600080fd5b600073ffffffffffffffffffffffffffffffffffffffff82169050919050565b60006105eb826105c0565b9050919050565b6105fb816105e0565b811461060657600080fd5b50565b600081359050610618816105f2565b92915050565b600060208284031215610634576106336105bb565b5b600061064284828501610609565b91505092915050565b610654816105e0565b82525050565b600060208201905061066f600083018461064b565b92915050565b6000819050919050565b600061069a610695610690846105c0565b610675565b6105c0565b9050919050565b60006106ac8261067f565b9050919050565b60006106be826106a1565b9050919050565b6106ce816106b3565b82525050565b60006020820190506106e960008301846106c5565b92915050565b60006106fa826105c0565b9050919050565b61070a816106ef565b82525050565b60006020820190506107256000830184610701565b92915050565b610734816106ef565b811461073f57600080fd5b50565b6000813590506107518161072b565b92915050565b60006020828403121561076d5761076c6105bb565b5b600061077b84828501610742565b91505092915050565b600082825260208201905092915050565b7f4f6e6c792074686520636f6e7472616374206f776e65722063616e2063616c6c60008201527f20746869732066756e6374696f6e000000000000000000000000000000000000602082015250565b60006107f1602e83610784565b91506107fc82610795565b604082019050919050565b60006020820190508181036000830152610820816107e4565b9050919050565b7f52616e6b6549636f3a207472616e7366657220746f20746865207a65726f206160008201527f6464726573730000000000000000000000000000000000000000000000000000602082015250565b6000610883602683610784565b915061088e82610827565b604082019050919050565b600060208201905081810360008301526108b281610876565b9050919050565b7f4f6e6c7920312065746865720000000000000000000000000000000000000000600082015250565b60006108ef600c83610784565b91506108fa826108b9565b602082019050919050565b6000602082019050818103600083015261091e816108e2565b9050919050565b6000819050919050565b6000819050919050565b600061095461094f61094a84610925565b610675565b61092f565b9050919050565b61096481610939565b82525050565b600060608201905061097f600083018661064b565b61098c602083018561064b565b610999604083018461095b565b949350505050565b60008115159050919050565b6109b6816109a1565b81146109c157600080fd5b50565b6000815190506109d3816109ad565b92915050565b6000602082840312156109ef576109ee6105bb565b5b60006109fd848285016109c4565b91505092915050565b7f52616e6b6549636f3a20756e61626c6520746f2073656e6420746f6b656e2c2060008201527f726563697069656e74206d617920686176652072657665727465640000000000602082015250565b6000610a62603b83610784565b9150610a6d82610a06565b604082019050919050565b60006020820190508181036000830152610a9181610a55565b905091905056fea2646970667358221220e59c74344d3981fb1fd4e240f442ab0c9d166242c230ac69dfc4cf936ee8cddd64736f6c634300080e0033",
  "immutableReferences": {},
  "source": "// SPDX-License-Identifier: MIT\r\n\r\npragma solidity ^0.8.14;\r\n\r\nimport \"@openzeppelin/contracts/token/ERC20/ERC20.sol\";\r\nimport \"./Owner.sol\";\r\n\r\ncontract RankeIco is Owner {\r\n    ERC20 public RankeToken;\r\n    address public Operator; //    \r\n\r\n    event Ico(address indexed from);\r\n\r\n    constructor(address _RankeToken, address _Operator) {\r\n        RankeToken = ERC20(payable(_RankeToken));\r\n        Operator = _Operator;\r\n    }\r\n\r\n    // ORK  \r\n    function ico() public payable {\r\n        //       1 ETH == 10000 ORK\r\n        require(1 ether == msg.value, \"Only 1 ether\");\r\n        // uint checkWei = msg.value / 2;\r\n        // require(checkWei * 2 == msg.value);\r\n\r\n        //   10000 ORK \r\n        require(\r\n            RankeToken.transferFrom(Operator, msg.sender, 10000 ether),\r\n            \"RankeIco: unable to send token, recipient may have reverted\"\r\n        );\r\n        emit Ico(msg.sender);\r\n    }\r\n\r\n    // ico        \r\n    function withdrawEth(address to) public onlyOwner {\r\n        require(to != address(0), \"RankeIco: transfer to the zero address\");\r\n        //       \r\n        address payable receiver = payable(to);\r\n        receiver.transfer(address(this).balance);\r\n    }\r\n}\r\n",
  "sourcePath": "D:\\github\\solidity_tinyping\\contracts\\RankeIco.sol",
  "compiler": {
    "name": "solc",
    "version": "0.8.14+commit.80d49f37.Emscripten.clang"
  },
  "schemaVersion": "3.4.7",
  "updatedAt": "2022-06-30T02:42:36.307Z",
  "networkType": "ethereum",
  "devdoc": {
    "kind": "dev",
    "methods": {},
    "version": 1
  },
  "userdoc": {
    "kind": "user",
    "methods": {},
    "version": 1
  }
}