{
  "contractName": "Ranke",
  "abi": [
    {
      "inputs": [],
      "stateMutability": "nonpayable",
      "type": "constructor"
    },
    {
      "inputs": [
        {
          "internalType": "address",
          "name": "sender",
          "type": "address"
        },
        {
          "internalType": "uint256",
          "name": "amount",
          "type": "uint256"
        }
      ],
      "name": "ErrRecvCant",
      "type": "error"
    },
    {
      "anonymous": false,
      "inputs": [
        {
          "indexed": true,
          "internalType": "address",
          "name": "owner",
          "type": "address"
        },
        {
          "indexed": true,
          "internalType": "address",
          "name": "spender",
          "type": "address"
        },
        {
          "indexed": false,
          "internalType": "uint256",
          "name": "value",
          "type": "uint256"
        }
      ],
      "name": "Approval",
      "type": "event"
    },
    {
      "anonymous": false,
      "inputs": [
        {
          "indexed": true,
          "internalType": "address",
          "name": "from",
          "type": "address"
        },
        {
          "indexed": true,
          "internalType": "address",
          "name": "to",
          "type": "address"
        }
      ],
      "name": "ChangeMinter",
      "type": "event"
    },
    {
      "anonymous": false,
      "inputs": [
        {
          "indexed": true,
          "internalType": "address",
          "name": "from",
          "type": "address"
        },
        {
          "indexed": true,
          "internalType": "address",
          "name": "to",
          "type": "address"
        }
      ],
      "name": "ChangeOwner",
      "type": "event"
    },
    {
      "anonymous": false,
      "inputs": [
        {
          "indexed": true,
          "internalType": "address",
          "name": "from",
          "type": "address"
        },
        {
          "indexed": true,
          "internalType": "address",
          "name": "to",
          "type": "address"
        },
        {
          "indexed": false,
          "internalType": "uint256",
          "name": "value",
          "type": "uint256"
        }
      ],
      "name": "Transfer",
      "type": "event"
    },
    {
      "stateMutability": "payable",
      "type": "fallback",
      "payable": true
    },
    {
      "inputs": [
        {
          "internalType": "address",
          "name": "owner",
          "type": "address"
        },
        {
          "internalType": "address",
          "name": "spender",
          "type": "address"
        }
      ],
      "name": "allowance",
      "outputs": [
        {
          "internalType": "uint256",
          "name": "",
          "type": "uint256"
        }
      ],
      "stateMutability": "view",
      "type": "function",
      "constant": true
    },
    {
      "inputs": [
        {
          "internalType": "address",
          "name": "spender",
          "type": "address"
        },
        {
          "internalType": "uint256",
          "name": "amount",
          "type": "uint256"
        }
      ],
      "name": "approve",
      "outputs": [
        {
          "internalType": "bool",
          "name": "",
          "type": "bool"
        }
      ],
      "stateMutability": "nonpayable",
      "type": "function"
    },
    {
      "inputs": [
        {
          "internalType": "address",
          "name": "account",
          "type": "address"
        }
      ],
      "name": "balanceOf",
      "outputs": [
        {
          "internalType": "uint256",
          "name": "",
          "type": "uint256"
        }
      ],
      "stateMutability": "view",
      "type": "function",
      "constant": true
    },
    {
      "inputs": [
        {
          "internalType": "address",
          "name": "_newMinter",
          "type": "address"
        }
      ],
      "name": "changeMinter",
      "outputs": [],
      "stateMutability": "nonpayable",
      "type": "function"
    },
    {
      "inputs": [
        {
          "internalType": "address payable",
          "name": "_newOwner",
          "type": "address"
        }
      ],
      "name": "changeOwner",
      "outputs": [],
      "stateMutability": "nonpayable",
      "type": "function"
    },
    {
      "inputs": [
        {
          "internalType": "address",
          "name": "spender",
          "type": "address"
        },
        {
          "internalType": "uint256",
          "name": "subtractedValue",
          "type": "uint256"
        }
      ],
      "name": "decreaseAllowance",
      "outputs": [
        {
          "internalType": "bool",
          "name": "",
          "type": "bool"
        }
      ],
      "stateMutability": "nonpayable",
      "type": "function"
    },
    {
      "inputs": [
        {
          "internalType": "address",
          "name": "spender",
          "type": "address"
        },
        {
          "internalType": "uint256",
          "name": "addedValue",
          "type": "uint256"
        }
      ],
      "name": "increaseAllowance",
      "outputs": [
        {
          "internalType": "bool",
          "name": "",
          "type": "bool"
        }
      ],
      "stateMutability": "nonpayable",
      "type": "function"
    },
    {
      "inputs": [],
      "name": "minter",
      "outputs": [
        {
          "internalType": "address",
          "name": "",
          "type": "address"
        }
      ],
      "stateMutability": "view",
      "type": "function",
      "constant": true
    },
    {
      "inputs": [],
      "name": "name",
      "outputs": [
        {
          "internalType": "string",
          "name": "",
          "type": "string"
        }
      ],
      "stateMutability": "view",
      "type": "function",
      "constant": true
    },
    {
      "inputs": [],
      "name": "owner",
      "outputs": [
        {
          "internalType": "address payable",
          "name": "",
          "type": "address"
        }
      ],
      "stateMutability": "view",
      "type": "function",
      "constant": true
    },
    {
      "inputs": [],
      "name": "symbol",
      "outputs": [
        {
          "internalType": "string",
          "name": "",
          "type": "string"
        }
      ],
      "stateMutability": "view",
      "type": "function",
      "constant": true
    },
    {
      "inputs": [],
      "name": "totalSupply",
      "outputs": [
        {
          "internalType": "uint256",
          "name": "",
          "type": "uint256"
        }
      ],
      "stateMutability": "view",
      "type": "function",
      "constant": true
    },
    {
      "inputs": [
        {
          "internalType": "address",
          "name": "to",
          "type": "address"
        },
        {
          "internalType": "uint256",
          "name": "amount",
          "type": "uint256"
        }
      ],
      "name": "transfer",
      "outputs": [
        {
          "internalType": "bool",
          "name": "",
          "type": "bool"
        }
      ],
      "stateMutability": "nonpayable",
      "type": "function"
    },
    {
      "inputs": [
        {
          "internalType": "address",
          "name": "from",
          "type": "address"
        },
        {
          "internalType": "address",
          "name": "to",
          "type": "address"
        },
        {
          "internalType": "uint256",
          "name": "amount",
          "type": "uint256"
        }
      ],
      "name": "transferFrom",
      "outputs": [
        {
          "internalType": "bool",
          "name": "",
          "type": "bool"
        }
      ],
      "stateMutability": "nonpayable",
      "type": "function"
    },
    {
      "stateMutability": "payable",
      "type": "receive",
      "payable": true
    },
    {
      "inputs": [],
      "name": "decimals",
      "outputs": [
        {
          "internalType": "uint8",
          "name": "",
          "type": "uint8"
        }
      ],
      "stateMutability": "view",
      "type": "function",
      "constant": true
    },
    {
      "inputs": [
        {
          "internalType": "uint256",
          "name": "mintAmount",
          "type": "uint256"
        }
      ],
      "name": "mint",
      "outputs": [
        {
          "internalType": "bool",
          "name": "",
          "type": "bool"
        }
      ],
      "stateMutability": "nonpayable",
      "type": "function"
    }
  ],
  "bytecode": "0x60806040523480156200001157600080fd5b506040518060400160405280600581526020017f52616e6b650000000000000000000000000000000000000000000000000000008152506040518060400160405280600381526020017f4f524b000000000000000000000000000000000000000000000000000000000081525081600390805190602001906200009692919062000308565b508060049080519060200190620000af92919062000308565b50505033600560006101000a81548173ffffffffffffffffffffffffffffffffffffffff021916908373ffffffffffffffffffffffffffffffffffffffff16021790555033600660006101000a81548173ffffffffffffffffffffffffffffffffffffffff021916908373ffffffffffffffffffffffffffffffffffffffff1602179055506200017733620001496200017d60201b60201c565b60ff16600a6200015a919062000545565b633b9aca006200016b919062000596565b6200018660201b60201c565b62000769565b60006012905090565b600073ffffffffffffffffffffffffffffffffffffffff168273ffffffffffffffffffffffffffffffffffffffff1603620001f8576040517f08c379a0000000000000000000000000000000000000000000000000000000008152600401620001ef9062000658565b60405180910390fd5b6200020c60008383620002fe60201b60201c565b80600260008282546200022091906200067a565b92505081905550806000808473ffffffffffffffffffffffffffffffffffffffff1673ffffffffffffffffffffffffffffffffffffffff16815260200190815260200160002060008282546200027791906200067a565b925050819055508173ffffffffffffffffffffffffffffffffffffffff16600073ffffffffffffffffffffffffffffffffffffffff167fddf252ad1be2c89b69c2b068fc378daa952ba7f163c4a11628f55a4df523b3ef83604051620002de9190620006e8565b60405180910390a3620002fa600083836200030360201b60201c565b5050565b505050565b505050565b828054620003169062000734565b90600052602060002090601f0160209004810192826200033a576000855562000386565b82601f106200035557805160ff191683800117855562000386565b8280016001018555821562000386579182015b828111156200038557825182559160200191906001019062000368565b5b50905062000395919062000399565b5090565b5b80821115620003b45760008160009055506001016200039a565b5090565b7f4e487b7100000000000000000000000000000000000000000000000000000000600052601160045260246000fd5b60008160011c9050919050565b6000808291508390505b600185111562000446578086048111156200041e576200041d620003b8565b5b60018516156200042e5780820291505b80810290506200043e85620003e7565b9450620003fe565b94509492505050565b60008262000461576001905062000534565b8162000471576000905062000534565b81600181146200048a57600281146200049557620004cb565b600191505062000534565b60ff841115620004aa57620004a9620003b8565b5b8360020a915084821115620004c457620004c3620003b8565b5b5062000534565b5060208310610133831016604e8410600b8410161715620005055782820a905083811115620004ff57620004fe620003b8565b5b62000534565b620005148484846001620003f4565b925090508184048111156200052e576200052d620003b8565b5b81810290505b9392505050565b6000819050919050565b600062000552826200053b565b91506200055f836200053b565b92506200058e7fffffffffffffffffffffffffffffffffffffffffffffffffffffffffffffffff84846200044f565b905092915050565b6000620005a3826200053b565b9150620005b0836200053b565b9250817fffffffffffffffffffffffffffffffffffffffffffffffffffffffffffffffff0483118215151615620005ec57620005eb620003b8565b5b828202905092915050565b600082825260208201905092915050565b7f45524332303a206d696e7420746f20746865207a65726f206164647265737300600082015250565b600062000640601f83620005f7565b91506200064d8262000608565b602082019050919050565b60006020820190508181036000830152620006738162000631565b9050919050565b600062000687826200053b565b915062000694836200053b565b9250827fffffffffffffffffffffffffffffffffffffffffffffffffffffffffffffffff03821115620006cc57620006cb620003b8565b5b828201905092915050565b620006e2816200053b565b82525050565b6000602082019050620006ff6000830184620006d7565b92915050565b7f4e487b7100000000000000000000000000000000000000000000000000000000600052602260045260246000fd5b600060028204905060018216806200074d57607f821691505b60208210810362000763576200076262000705565b5b50919050565b611bf480620007796000396000f3fe6080604052600436106100f75760003560e01c806370a082311161008a578063a457c2d711610059578063a457c2d7146103d6578063a6f9dae114610413578063a9059cbb1461043c578063dd62ed3e146104795761013b565b806370a08231146103065780638da5cb5b1461034357806395d89b411461036e578063a0712d68146103995761013b565b806323b872dd116100c657806323b872dd146102385780632c4d4d1814610275578063313ce5671461029e57806339509351146102c95761013b565b806306fdde031461017a57806307546172146101a5578063095ea7b3146101d057806318160ddd1461020d5761013b565b3661013b5733346040517fd047ce290000000000000000000000000000000000000000000000000000000081526004016101329291906111cb565b60405180910390fd5b33346040517fd047ce290000000000000000000000000000000000000000000000000000000081526004016101719291906111cb565b60405180910390fd5b34801561018657600080fd5b5061018f6104b6565b60405161019c919061128d565b60405180910390f35b3480156101b157600080fd5b506101ba610548565b6040516101c791906112af565b60405180910390f35b3480156101dc57600080fd5b506101f760048036038101906101f29190611327565b61056e565b6040516102049190611382565b60405180910390f35b34801561021957600080fd5b50610222610591565b60405161022f919061139d565b60405180910390f35b34801561024457600080fd5b5061025f600480360381019061025a91906113b8565b61059b565b60405161026c9190611382565b60405180910390f35b34801561028157600080fd5b5061029c6004803603810190610297919061140b565b6105ca565b005b3480156102aa57600080fd5b506102b36106f8565b6040516102c09190611454565b60405180910390f35b3480156102d557600080fd5b506102f060048036038101906102eb9190611327565b610701565b6040516102fd9190611382565b60405180910390f35b34801561031257600080fd5b5061032d6004803603810190610328919061140b565b610738565b60405161033a919061139d565b60405180910390f35b34801561034f57600080fd5b50610358610780565b6040516103659190611490565b60405180910390f35b34801561037a57600080fd5b506103836107a6565b604051610390919061128d565b60405180910390f35b3480156103a557600080fd5b506103c060048036038101906103bb91906114ab565b610838565b6040516103cd9190611382565b60405180910390f35b3480156103e257600080fd5b506103fd60048036038101906103f89190611327565b6108dd565b60405161040a9190611382565b60405180910390f35b34801561041f57600080fd5b5061043a60048036038101906104359190611504565b610954565b005b34801561044857600080fd5b50610463600480360381019061045e9190611327565b610a82565b6040516104709190611382565b60405180910390f35b34801561048557600080fd5b506104a0600480360381019061049b9190611531565b610aa5565b6040516104ad919061139d565b60405180910390f35b6060600380546104c5906115a0565b80601f01602080910402602001604051908101604052809291908181526020018280546104f1906115a0565b801561053e5780601f106105135761010080835404028352916020019161053e565b820191906000526020600020905b81548152906001019060200180831161052157829003601f168201915b5050505050905090565b600660009054906101000a900473ffffffffffffffffffffffffffffffffffffffff1681565b600080610579610b2c565b9050610586818585610b34565b600191505092915050565b6000600254905090565b6000806105a6610b2c565b90506105b3858285610cfd565b6105be858585610d89565b60019150509392505050565b600660009054906101000a900473ffffffffffffffffffffffffffffffffffffffff1673ffffffffffffffffffffffffffffffffffffffff163373ffffffffffffffffffffffffffffffffffffffff161461065a576040517f08c379a000000000000000000000000000000000000000000000000000000000815260040161065190611643565b60405180910390fd5b80600660006101000a81548173ffffffffffffffffffffffffffffffffffffffff021916908373ffffffffffffffffffffffffffffffffffffffff1602179055508073ffffffffffffffffffffffffffffffffffffffff163373ffffffffffffffffffffffffffffffffffffffff167fcba8b2f67b1b66244252c443e6260110af641687bcceb46c810da702119ec82860405160405180910390a350565b60006012905090565b60008061070c610b2c565b905061072d81858561071e8589610aa5565b6107289190611692565b610b34565b600191505092915050565b60008060008373ffffffffffffffffffffffffffffffffffffffff1673ffffffffffffffffffffffffffffffffffffffff168152602001908152602001600020549050919050565b600560009054906101000a900473ffffffffffffffffffffffffffffffffffffffff1681565b6060600480546107b5906115a0565b80601f01602080910402602001604051908101604052809291908181526020018280546107e1906115a0565b801561082e5780601f106108035761010080835404028352916020019161082e565b820191906000526020600020905b81548152906001019060200180831161081157829003601f168201915b5050505050905090565b6000600660009054906101000a900473ffffffffffffffffffffffffffffffffffffffff1673ffffffffffffffffffffffffffffffffffffffff163373ffffffffffffffffffffffffffffffffffffffff16146108ca576040517f08c379a00000000000000000000000000000000000000000000000000000000081526004016108c190611643565b60405180910390fd5b6108d43383611008565b60019050919050565b6000806108e8610b2c565b905060006108f68286610aa5565b90508381101561093b576040517f08c379a00000000000000000000000000000000000000000000000000000000081526004016109329061175a565b60405180910390fd5b6109488286868403610b34565b60019250505092915050565b600560009054906101000a900473ffffffffffffffffffffffffffffffffffffffff1673ffffffffffffffffffffffffffffffffffffffff163373ffffffffffffffffffffffffffffffffffffffff16146109e4576040517f08c379a00000000000000000000000000000000000000000000000000000000081526004016109db906117ec565b60405180910390fd5b80600560006101000a81548173ffffffffffffffffffffffffffffffffffffffff021916908373ffffffffffffffffffffffffffffffffffffffff1602179055508073ffffffffffffffffffffffffffffffffffffffff163373ffffffffffffffffffffffffffffffffffffffff167f9aecf86140d81442289f667eb72e1202a8fbb3478a686659952e145e8531965660405160405180910390a350565b600080610a8d610b2c565b9050610a9a818585610d89565b600191505092915050565b6000600160008473ffffffffffffffffffffffffffffffffffffffff1673ffffffffffffffffffffffffffffffffffffffff16815260200190815260200160002060008373ffffffffffffffffffffffffffffffffffffffff1673ffffffffffffffffffffffffffffffffffffffff16815260200190815260200160002054905092915050565b600033905090565b600073ffffffffffffffffffffffffffffffffffffffff168373ffffffffffffffffffffffffffffffffffffffff1603610ba3576040517f08c379a0000000000000000000000000000000000000000000000000000000008152600401610b9a9061187e565b60405180910390fd5b600073ffffffffffffffffffffffffffffffffffffffff168273ffffffffffffffffffffffffffffffffffffffff1603610c12576040517f08c379a0000000000000000000000000000000000000000000000000000000008152600401610c0990611910565b60405180910390fd5b80600160008573ffffffffffffffffffffffffffffffffffffffff1673ffffffffffffffffffffffffffffffffffffffff16815260200190815260200160002060008473ffffffffffffffffffffffffffffffffffffffff1673ffffffffffffffffffffffffffffffffffffffff168152602001908152602001600020819055508173ffffffffffffffffffffffffffffffffffffffff168373ffffffffffffffffffffffffffffffffffffffff167f8c5be1e5ebec7d5bd14f71427d1e84f3dd0314c0f7b2291e5b200ac8c7c3b92583604051610cf0919061139d565b60405180910390a3505050565b6000610d098484610aa5565b90507fffffffffffffffffffffffffffffffffffffffffffffffffffffffffffffffff8114610d835781811015610d75576040517f08c379a0000000000000000000000000000000000000000000000000000000008152600401610d6c9061197c565b60405180910390fd5b610d828484848403610b34565b5b50505050565b600073ffffffffffffffffffffffffffffffffffffffff168373ffffffffffffffffffffffffffffffffffffffff1603610df8576040517f08c379a0000000000000000000000000000000000000000000000000000000008152600401610def90611a0e565b60405180910390fd5b600073ffffffffffffffffffffffffffffffffffffffff168273ffffffffffffffffffffffffffffffffffffffff1603610e67576040517f08c379a0000000000000000000000000000000000000000000000000000000008152600401610e5e90611aa0565b60405180910390fd5b610e72838383611167565b60008060008573ffffffffffffffffffffffffffffffffffffffff1673ffffffffffffffffffffffffffffffffffffffff16815260200190815260200160002054905081811015610ef8576040517f08c379a0000000000000000000000000000000000000000000000000000000008152600401610eef90611b32565b60405180910390fd5b8181036000808673ffffffffffffffffffffffffffffffffffffffff1673ffffffffffffffffffffffffffffffffffffffff16815260200190815260200160002081905550816000808573ffffffffffffffffffffffffffffffffffffffff1673ffffffffffffffffffffffffffffffffffffffff1681526020019081526020016000206000828254610f8b9190611692565b925050819055508273ffffffffffffffffffffffffffffffffffffffff168473ffffffffffffffffffffffffffffffffffffffff167fddf252ad1be2c89b69c2b068fc378daa952ba7f163c4a11628f55a4df523b3ef84604051610fef919061139d565b60405180910390a361100284848461116c565b50505050565b600073ffffffffffffffffffffffffffffffffffffffff168273ffffffffffffffffffffffffffffffffffffffff1603611077576040517f08c379a000000000000000000000000000000000000000000000000000000000815260040161106e90611b9e565b60405180910390fd5b61108360008383611167565b80600260008282546110959190611692565b92505081905550806000808473ffffffffffffffffffffffffffffffffffffffff1673ffffffffffffffffffffffffffffffffffffffff16815260200190815260200160002060008282546110ea9190611692565b925050819055508173ffffffffffffffffffffffffffffffffffffffff16600073ffffffffffffffffffffffffffffffffffffffff167fddf252ad1be2c89b69c2b068fc378daa952ba7f163c4a11628f55a4df523b3ef8360405161114f919061139d565b60405180910390a36111636000838361116c565b5050565b505050565b505050565b600073ffffffffffffffffffffffffffffffffffffffff82169050919050565b600061119c82611171565b9050919050565b6111ac81611191565b82525050565b6000819050919050565b6111c5816111b2565b82525050565b60006040820190506111e060008301856111a3565b6111ed60208301846111bc565b9392505050565b600081519050919050565b600082825260208201905092915050565b60005b8381101561122e578082015181840152602081019050611213565b8381111561123d576000848401525b50505050565b6000601f19601f8301169050919050565b600061125f826111f4565b61126981856111ff565b9350611279818560208601611210565b61128281611243565b840191505092915050565b600060208201905081810360008301526112a78184611254565b905092915050565b60006020820190506112c460008301846111a3565b92915050565b600080fd5b6112d881611191565b81146112e357600080fd5b50565b6000813590506112f5816112cf565b92915050565b611304816111b2565b811461130f57600080fd5b50565b600081359050611321816112fb565b92915050565b6000806040838503121561133e5761133d6112ca565b5b600061134c858286016112e6565b925050602061135d85828601611312565b9150509250929050565b60008115159050919050565b61137c81611367565b82525050565b60006020820190506113976000830184611373565b92915050565b60006020820190506113b260008301846111bc565b92915050565b6000806000606084860312156113d1576113d06112ca565b5b60006113df868287016112e6565b93505060206113f0868287016112e6565b925050604061140186828701611312565b9150509250925092565b600060208284031215611421576114206112ca565b5b600061142f848285016112e6565b91505092915050565b600060ff82169050919050565b61144e81611438565b82525050565b60006020820190506114696000830184611445565b92915050565b600061147a82611171565b9050919050565b61148a8161146f565b82525050565b60006020820190506114a56000830184611481565b92915050565b6000602082840312156114c1576114c06112ca565b5b60006114cf84828501611312565b91505092915050565b6114e18161146f565b81146114ec57600080fd5b50565b6000813590506114fe816114d8565b92915050565b60006020828403121561151a576115196112ca565b5b6000611528848285016114ef565b91505092915050565b60008060408385031215611548576115476112ca565b5b6000611556858286016112e6565b9250506020611567858286016112e6565b9150509250929050565b7f4e487b7100000000000000000000000000000000000000000000000000000000600052602260045260246000fd5b600060028204905060018216806115b857607f821691505b6020821081036115cb576115ca611571565b5b50919050565b7f4f6e6c792074686520636f6e7472616374206d696e7465722063616e2063616c60008201527f6c20746869732066756e6374696f6e0000000000000000000000000000000000602082015250565b600061162d602f836111ff565b9150611638826115d1565b604082019050919050565b6000602082019050818103600083015261165c81611620565b9050919050565b7f4e487b7100000000000000000000000000000000000000000000000000000000600052601160045260246000fd5b600061169d826111b2565b91506116a8836111b2565b9250827fffffffffffffffffffffffffffffffffffffffffffffffffffffffffffffffff038211156116dd576116dc611663565b5b828201905092915050565b7f45524332303a2064656372656173656420616c6c6f77616e63652062656c6f7760008201527f207a65726f000000000000000000000000000000000000000000000000000000602082015250565b60006117446025836111ff565b915061174f826116e8565b604082019050919050565b6000602082019050818103600083015261177381611737565b9050919050565b7f4f6e6c792074686520636f6e7472616374206f776e65722063616e2063616c6c60008201527f20746869732066756e6374696f6e000000000000000000000000000000000000602082015250565b60006117d6602e836111ff565b91506117e18261177a565b604082019050919050565b60006020820190508181036000830152611805816117c9565b9050919050565b7f45524332303a20617070726f76652066726f6d20746865207a65726f2061646460008201527f7265737300000000000000000000000000000000000000000000000000000000602082015250565b60006118686024836111ff565b91506118738261180c565b604082019050919050565b600060208201905081810360008301526118978161185b565b9050919050565b7f45524332303a20617070726f766520746f20746865207a65726f20616464726560008201527f7373000000000000000000000000000000000000000000000000000000000000602082015250565b60006118fa6022836111ff565b91506119058261189e565b604082019050919050565b60006020820190508181036000830152611929816118ed565b9050919050565b7f45524332303a20696e73756666696369656e7420616c6c6f77616e6365000000600082015250565b6000611966601d836111ff565b915061197182611930565b602082019050919050565b6000602082019050818103600083015261199581611959565b9050919050565b7f45524332303a207472616e736665722066726f6d20746865207a65726f20616460008201527f6472657373000000000000000000000000000000000000000000000000000000602082015250565b60006119f86025836111ff565b9150611a038261199c565b604082019050919050565b60006020820190508181036000830152611a27816119eb565b9050919050565b7f45524332303a207472616e7366657220746f20746865207a65726f206164647260008201527f6573730000000000000000000000000000000000000000000000000000000000602082015250565b6000611a8a6023836111ff565b9150611a9582611a2e565b604082019050919050565b60006020820190508181036000830152611ab981611a7d565b9050919050565b7f45524332303a207472616e7366657220616d6f756e742065786365656473206260008201527f616c616e63650000000000000000000000000000000000000000000000000000602082015250565b6000611b1c6026836111ff565b9150611b2782611ac0565b604082019050919050565b60006020820190508181036000830152611b4b81611b0f565b9050919050565b7f45524332303a206d696e7420746f20746865207a65726f206164647265737300600082015250565b6000611b88601f836111ff565b9150611b9382611b52565b602082019050919050565b60006020820190508181036000830152611bb781611b7b565b905091905056fea2646970667358221220268dc79f852805db7c046f9c4d28db555aa8711b8ae6c68a1ce07eef689aa36a64736f6c634300080e0033",
  "immutableReferences": {},
  "source": "// SPDX-License-Identifier: MIT\r\n\r\npragma solidity ^0.8.14;\r\n\r\nimport \"@openzeppelin/contracts/token/ERC20/ERC20.sol\";\r\nimport \"./Owner.sol\";\r\nimport \"./Revert.sol\";\r\n\r\ncontract Ranke is ERC20, Owner, Minter, RevertFallback {\r\n    uint256 constant _initial_supply = 1 * 1e9; //   \r\n\r\n    constructor() ERC20(\"Ranke\", \"ORK\") {\r\n        _mint(msg.sender, _initial_supply * (10**uint256(decimals())));\r\n    }\r\n\r\n    function decimals() public view virtual override returns (uint8) {\r\n        return 18;\r\n    }\r\n\r\n    function mint(uint256 mintAmount) external onlyMinter returns (bool) {\r\n        _mint(msg.sender, mintAmount);\r\n        return true;\r\n    }\r\n\r\n    /*\r\n  ///////////////////// test\r\n  function isContract(address account) internal view returns (bool) {\r\n    // This method relies on extcodesize/address.code.length, which returns 0\r\n    // for contracts in construction, since the code is only stored at the end\r\n    // of the constructor execution.\r\n\r\n    return account.code.length > 0;\r\n  }\r\n\r\n  ///////////////////// test: overflow, underflow\r\n  mapping(address => uint256) private _testMap;\r\n\r\n  function getTestBalance(address owner) public view returns (uint256) {\r\n    return _testMap[owner];\r\n  }\r\n\r\n  function setTestBalance() public {\r\n    _testMap[msg.sender] = 1;\r\n  }\r\n  \r\n  function overflow() external returns (bool) {\r\n    uint256 MAX_INT = 2 ** 256 - 1;\r\n    _testMap[msg.sender] = MAX_INT;\r\n    _testMap[msg.sender] += 100;\r\n    return true;\r\n  }\r\n\r\n  function underflow() external returns (bool) {\r\n    _testMap[msg.sender] -= 2;\r\n    return true;\r\n  }\r\n\r\n  ///////////////////// test: modifier order\r\n  event Modify(uint256 indexed value);\r\n  event ModifyEnd(uint256 indexed value);\r\n\r\n  modifier modify1() {\r\n    emit Modify(1);\r\n    _;\r\n  }\r\n\r\n  modifier modify2() {\r\n    emit Modify(2);\r\n    _;\r\n  }\r\n\r\n  function modifyTest1() public modify1() modify2() {\r\n    _testMap[msg.sender] += 100;\r\n    emit ModifyEnd(1);\r\n  }\r\n\r\n  function modifyTest2() public modify2() modify1() {\r\n    _testMap[msg.sender] += 200;\r\n    emit ModifyEnd(2);\r\n  }\r\n  */\r\n}\r\n",
  "sourcePath": "D:\\github\\solidity_tinyping\\contracts\\Ranke.sol",
  "compiler": {
    "name": "solc",
    "version": "0.8.14+commit.80d49f37.Emscripten.clang"
  },
  "schemaVersion": "3.4.7",
  "updatedAt": "2022-06-29T02:06:00.709Z",
  "networkType": "ethereum",
  "devdoc": {
    "kind": "dev",
    "methods": {
      "allowance(address,address)": {
        "details": "See {IERC20-allowance}."
      },
      "approve(address,uint256)": {
        "details": "See {IERC20-approve}. NOTE: If `amount` is the maximum `uint256`, the allowance is not updated on `transferFrom`. This is semantically equivalent to an infinite approval. Requirements: - `spender` cannot be the zero address."
      },
      "balanceOf(address)": {
        "details": "See {IERC20-balanceOf}."
      },
      "decimals()": {
        "details": "Returns the number of decimals used to get its user representation. For example, if `decimals` equals `2`, a balance of `505` tokens should be displayed to a user as `5.05` (`505 / 10 ** 2`). Tokens usually opt for a value of 18, imitating the relationship between Ether and Wei. This is the value {ERC20} uses, unless this function is overridden; NOTE: This information is only used for _display_ purposes: it in no way affects any of the arithmetic of the contract, including {IERC20-balanceOf} and {IERC20-transfer}."
      },
      "decreaseAllowance(address,uint256)": {
        "details": "Atomically decreases the allowance granted to `spender` by the caller. This is an alternative to {approve} that can be used as a mitigation for problems described in {IERC20-approve}. Emits an {Approval} event indicating the updated allowance. Requirements: - `spender` cannot be the zero address. - `spender` must have allowance for the caller of at least `subtractedValue`."
      },
      "increaseAllowance(address,uint256)": {
        "details": "Atomically increases the allowance granted to `spender` by the caller. This is an alternative to {approve} that can be used as a mitigation for problems described in {IERC20-approve}. Emits an {Approval} event indicating the updated allowance. Requirements: - `spender` cannot be the zero address."
      },
      "name()": {
        "details": "Returns the name of the token."
      },
      "symbol()": {
        "details": "Returns the symbol of the token, usually a shorter version of the name."
      },
      "totalSupply()": {
        "details": "See {IERC20-totalSupply}."
      },
      "transfer(address,uint256)": {
        "details": "See {IERC20-transfer}. Requirements: - `to` cannot be the zero address. - the caller must have a balance of at least `amount`."
      },
      "transferFrom(address,address,uint256)": {
        "details": "See {IERC20-transferFrom}. Emits an {Approval} event indicating the updated allowance. This is not required by the EIP. See the note at the beginning of {ERC20}. NOTE: Does not update the allowance if the current allowance is the maximum `uint256`. Requirements: - `from` and `to` cannot be the zero address. - `from` must have a balance of at least `amount`. - the caller must have allowance for ``from``'s tokens of at least `amount`."
      }
    },
    "version": 1
  },
  "userdoc": {
    "kind": "user",
    "methods": {},
    "version": 1
  }
}