{
  "contractName": "TKMNftA",
  "abi": [
    {
      "inputs": [
        {
          "internalType": "address",
          "name": "minter_",
          "type": "address"
        }
      ],
      "stateMutability": "nonpayable",
      "type": "constructor"
    },
    {
      "anonymous": false,
      "inputs": [
        {
          "indexed": true,
          "internalType": "address",
          "name": "owner",
          "type": "address"
        },
        {
          "indexed": true,
          "internalType": "address",
          "name": "approved",
          "type": "address"
        },
        {
          "indexed": true,
          "internalType": "uint256",
          "name": "tokenId",
          "type": "uint256"
        }
      ],
      "name": "Approval",
      "type": "event"
    },
    {
      "anonymous": false,
      "inputs": [
        {
          "indexed": true,
          "internalType": "address",
          "name": "owner",
          "type": "address"
        },
        {
          "indexed": true,
          "internalType": "address",
          "name": "operator",
          "type": "address"
        },
        {
          "indexed": false,
          "internalType": "bool",
          "name": "approved",
          "type": "bool"
        }
      ],
      "name": "ApprovalForAll",
      "type": "event"
    },
    {
      "anonymous": false,
      "inputs": [
        {
          "indexed": true,
          "internalType": "address",
          "name": "from",
          "type": "address"
        },
        {
          "indexed": true,
          "internalType": "address",
          "name": "to",
          "type": "address"
        }
      ],
      "name": "ChangeMinter",
      "type": "event"
    },
    {
      "anonymous": false,
      "inputs": [
        {
          "indexed": true,
          "internalType": "address",
          "name": "from",
          "type": "address"
        },
        {
          "indexed": true,
          "internalType": "address",
          "name": "to",
          "type": "address"
        }
      ],
      "name": "ChangeOwner",
      "type": "event"
    },
    {
      "anonymous": false,
      "inputs": [
        {
          "indexed": true,
          "internalType": "uint256",
          "name": "tokenId",
          "type": "uint256"
        },
        {
          "indexed": true,
          "internalType": "uint16",
          "name": "reason",
          "type": "uint16"
        }
      ],
      "name": "NftBurn",
      "type": "event"
    },
    {
      "anonymous": false,
      "inputs": [
        {
          "indexed": true,
          "internalType": "address",
          "name": "from",
          "type": "address"
        },
        {
          "indexed": true,
          "internalType": "address",
          "name": "to",
          "type": "address"
        },
        {
          "indexed": true,
          "internalType": "uint256",
          "name": "tokenId",
          "type": "uint256"
        }
      ],
      "name": "Transfer",
      "type": "event"
    },
    {
      "inputs": [
        {
          "internalType": "address",
          "name": "to",
          "type": "address"
        },
        {
          "internalType": "uint256",
          "name": "tokenId",
          "type": "uint256"
        }
      ],
      "name": "approve",
      "outputs": [],
      "stateMutability": "nonpayable",
      "type": "function"
    },
    {
      "inputs": [
        {
          "internalType": "address",
          "name": "owner",
          "type": "address"
        }
      ],
      "name": "balanceOf",
      "outputs": [
        {
          "internalType": "uint256",
          "name": "",
          "type": "uint256"
        }
      ],
      "stateMutability": "view",
      "type": "function",
      "constant": true
    },
    {
      "inputs": [
        {
          "internalType": "address",
          "name": "newMinter_",
          "type": "address"
        }
      ],
      "name": "changeMinter",
      "outputs": [],
      "stateMutability": "nonpayable",
      "type": "function"
    },
    {
      "inputs": [
        {
          "internalType": "address payable",
          "name": "newOwner_",
          "type": "address"
        }
      ],
      "name": "changeOwner",
      "outputs": [],
      "stateMutability": "nonpayable",
      "type": "function"
    },
    {
      "inputs": [
        {
          "internalType": "uint256",
          "name": "tokenId",
          "type": "uint256"
        }
      ],
      "name": "getApproved",
      "outputs": [
        {
          "internalType": "address",
          "name": "",
          "type": "address"
        }
      ],
      "stateMutability": "view",
      "type": "function",
      "constant": true
    },
    {
      "inputs": [
        {
          "internalType": "address",
          "name": "owner",
          "type": "address"
        },
        {
          "internalType": "address",
          "name": "operator",
          "type": "address"
        }
      ],
      "name": "isApprovedForAll",
      "outputs": [
        {
          "internalType": "bool",
          "name": "",
          "type": "bool"
        }
      ],
      "stateMutability": "view",
      "type": "function",
      "constant": true
    },
    {
      "inputs": [],
      "name": "minter",
      "outputs": [
        {
          "internalType": "address",
          "name": "",
          "type": "address"
        }
      ],
      "stateMutability": "view",
      "type": "function",
      "constant": true
    },
    {
      "inputs": [],
      "name": "name",
      "outputs": [
        {
          "internalType": "string",
          "name": "",
          "type": "string"
        }
      ],
      "stateMutability": "view",
      "type": "function",
      "constant": true
    },
    {
      "inputs": [],
      "name": "nftId",
      "outputs": [
        {
          "internalType": "uint256",
          "name": "",
          "type": "uint256"
        }
      ],
      "stateMutability": "view",
      "type": "function",
      "constant": true
    },
    {
      "inputs": [],
      "name": "owner",
      "outputs": [
        {
          "internalType": "address payable",
          "name": "",
          "type": "address"
        }
      ],
      "stateMutability": "view",
      "type": "function",
      "constant": true
    },
    {
      "inputs": [
        {
          "internalType": "uint256",
          "name": "tokenId",
          "type": "uint256"
        }
      ],
      "name": "ownerOf",
      "outputs": [
        {
          "internalType": "address",
          "name": "",
          "type": "address"
        }
      ],
      "stateMutability": "view",
      "type": "function",
      "constant": true
    },
    {
      "inputs": [
        {
          "internalType": "address",
          "name": "from",
          "type": "address"
        },
        {
          "internalType": "address",
          "name": "to",
          "type": "address"
        },
        {
          "internalType": "uint256",
          "name": "tokenId",
          "type": "uint256"
        }
      ],
      "name": "safeTransferFrom",
      "outputs": [],
      "stateMutability": "nonpayable",
      "type": "function"
    },
    {
      "inputs": [
        {
          "internalType": "address",
          "name": "from",
          "type": "address"
        },
        {
          "internalType": "address",
          "name": "to",
          "type": "address"
        },
        {
          "internalType": "uint256",
          "name": "tokenId",
          "type": "uint256"
        },
        {
          "internalType": "bytes",
          "name": "_data",
          "type": "bytes"
        }
      ],
      "name": "safeTransferFrom",
      "outputs": [],
      "stateMutability": "nonpayable",
      "type": "function"
    },
    {
      "inputs": [
        {
          "internalType": "address",
          "name": "operator",
          "type": "address"
        },
        {
          "internalType": "bool",
          "name": "approved",
          "type": "bool"
        }
      ],
      "name": "setApprovalForAll",
      "outputs": [],
      "stateMutability": "nonpayable",
      "type": "function"
    },
    {
      "inputs": [],
      "name": "symbol",
      "outputs": [
        {
          "internalType": "string",
          "name": "",
          "type": "string"
        }
      ],
      "stateMutability": "view",
      "type": "function",
      "constant": true
    },
    {
      "inputs": [
        {
          "internalType": "uint256",
          "name": "index",
          "type": "uint256"
        }
      ],
      "name": "tokenByIndex",
      "outputs": [
        {
          "internalType": "uint256",
          "name": "",
          "type": "uint256"
        }
      ],
      "stateMutability": "view",
      "type": "function",
      "constant": true
    },
    {
      "inputs": [
        {
          "internalType": "address",
          "name": "owner",
          "type": "address"
        },
        {
          "internalType": "uint256",
          "name": "index",
          "type": "uint256"
        }
      ],
      "name": "tokenOfOwnerByIndex",
      "outputs": [
        {
          "internalType": "uint256",
          "name": "",
          "type": "uint256"
        }
      ],
      "stateMutability": "view",
      "type": "function",
      "constant": true
    },
    {
      "inputs": [],
      "name": "totalSupply",
      "outputs": [
        {
          "internalType": "uint256",
          "name": "",
          "type": "uint256"
        }
      ],
      "stateMutability": "view",
      "type": "function",
      "constant": true
    },
    {
      "inputs": [
        {
          "internalType": "address",
          "name": "from",
          "type": "address"
        },
        {
          "internalType": "address",
          "name": "to",
          "type": "address"
        },
        {
          "internalType": "uint256",
          "name": "tokenId",
          "type": "uint256"
        }
      ],
      "name": "transferFrom",
      "outputs": [],
      "stateMutability": "nonpayable",
      "type": "function"
    },
    {
      "inputs": [
        {
          "internalType": "address",
          "name": "nftOwner",
          "type": "address"
        }
      ],
      "name": "Mint",
      "outputs": [
        {
          "internalType": "uint256",
          "name": "",
          "type": "uint256"
        }
      ],
      "stateMutability": "nonpayable",
      "type": "function"
    },
    {
      "inputs": [
        {
          "internalType": "uint256",
          "name": "_nftId",
          "type": "uint256"
        },
        {
          "internalType": "uint16",
          "name": "reason",
          "type": "uint16"
        }
      ],
      "name": "Burn",
      "outputs": [],
      "stateMutability": "nonpayable",
      "type": "function"
    },
    {
      "inputs": [
        {
          "internalType": "uint256",
          "name": "tokenId",
          "type": "uint256"
        }
      ],
      "name": "tokenURI",
      "outputs": [
        {
          "internalType": "string",
          "name": "",
          "type": "string"
        }
      ],
      "stateMutability": "view",
      "type": "function",
      "constant": true
    },
    {
      "inputs": [
        {
          "internalType": "bytes4",
          "name": "interfaceId",
          "type": "bytes4"
        }
      ],
      "name": "supportsInterface",
      "outputs": [
        {
          "internalType": "bool",
          "name": "",
          "type": "bool"
        }
      ],
      "stateMutability": "view",
      "type": "function",
      "constant": true
    }
  ],
  "bytecode": "0x60806040523480156200001157600080fd5b5060405162003f5438038062003f5483398181016040528101906200003791906200027c565b806040518060400160405280601c81526020017f5468726565204b696e67646f6d204d756c74697665727365204e6674000000008152506040518060400160405280600881526020017f334b4d4e66745f410000000000000000000000000000000000000000000000008152508160009080519060200190620000bc92919062000162565b508060019080519060200190620000d592919062000162565b50505033600b60006101000a81548173ffffffffffffffffffffffffffffffffffffffff021916908373ffffffffffffffffffffffffffffffffffffffff16021790555080600c60006101000a81548173ffffffffffffffffffffffffffffffffffffffff021916908373ffffffffffffffffffffffffffffffffffffffff160217905550505062000312565b8280546200017090620002dd565b90600052602060002090601f016020900481019282620001945760008555620001e0565b82601f10620001af57805160ff1916838001178555620001e0565b82800160010185558215620001e0579182015b82811115620001df578251825591602001919060010190620001c2565b5b509050620001ef9190620001f3565b5090565b5b808211156200020e576000816000905550600101620001f4565b5090565b600080fd5b600073ffffffffffffffffffffffffffffffffffffffff82169050919050565b6000620002448262000217565b9050919050565b620002568162000237565b81146200026257600080fd5b50565b60008151905062000276816200024b565b92915050565b60006020828403121562000295576200029462000212565b5b6000620002a58482850162000265565b91505092915050565b7f4e487b7100000000000000000000000000000000000000000000000000000000600052602260045260246000fd5b60006002820490506001821680620002f657607f821691505b6020821081036200030c576200030b620002ae565b5b50919050565b613c3280620003226000396000f3fe608060405234801561001057600080fd5b506004361061014d5760003560e01c80634f6ccce7116100c3578063a6f9dae11161007c578063a6f9dae1146103c4578063b88d4fde146103e0578063bd6cac4c146103fc578063c6bc518214610418578063c87b56dd14610436578063e985e9c5146104665761014d565b80634f6ccce7146102dc5780636352211e1461030c57806370a082311461033c5780638da5cb5b1461036c57806395d89b411461038a578063a22cb465146103a85761014d565b806318160ddd1161011557806318160ddd1461020a57806323b872dd146102285780632c4d4d18146102445780632f745c59146102605780633c3284d11461029057806342842e0e146102c05761014d565b806301ffc9a71461015257806306fdde031461018257806307546172146101a0578063081812fc146101be578063095ea7b3146101ee575b600080fd5b61016c60048036038101906101679190612694565b610496565b60405161017991906126dc565b60405180910390f35b61018a6104a8565b6040516101979190612790565b60405180910390f35b6101a861053a565b6040516101b591906127f3565b60405180910390f35b6101d860048036038101906101d39190612844565b610560565b6040516101e591906127f3565b60405180910390f35b6102086004803603810190610203919061289d565b6105e5565b005b6102126106fc565b60405161021f91906128ec565b60405180910390f35b610242600480360381019061023d9190612907565b610709565b005b61025e6004803603810190610259919061295a565b610769565b005b61027a6004803603810190610275919061289d565b610906565b60405161028791906128ec565b60405180910390f35b6102aa60048036038101906102a5919061295a565b6109ab565b6040516102b791906128ec565b60405180910390f35b6102da60048036038101906102d59190612907565b610a69565b005b6102f660048036038101906102f19190612844565b610a89565b60405161030391906128ec565b60405180910390f35b61032660048036038101906103219190612844565b610afa565b60405161033391906127f3565b60405180910390f35b6103566004803603810190610351919061295a565b610bab565b60405161036391906128ec565b60405180910390f35b610374610c62565b60405161038191906129a8565b60405180910390f35b610392610c88565b60405161039f9190612790565b60405180910390f35b6103c260048036038101906103bd91906129ef565b610d1a565b005b6103de60048036038101906103d99190612a5b565b610d30565b005b6103fa60048036038101906103f59190612bbd565b610ecd565b005b61041660048036038101906104119190612c7a565b610f2f565b005b610420610ffe565b60405161042d91906128ec565b60405180910390f35b610450600480360381019061044b9190612844565b611004565b60405161045d9190612790565b60405180910390f35b610480600480360381019061047b9190612cba565b611016565b60405161048d91906126dc565b60405180910390f35b60006104a1826110aa565b9050919050565b6060600080546104b790612d29565b80601f01602080910402602001604051908101604052809291908181526020018280546104e390612d29565b80156105305780601f1061050557610100808354040283529160200191610530565b820191906000526020600020905b81548152906001019060200180831161051357829003601f168201915b5050505050905090565b600c60009054906101000a900473ffffffffffffffffffffffffffffffffffffffff1681565b600061056b82611124565b6105aa576040517f08c379a00000000000000000000000000000000000000000000000000000000081526004016105a190612dcc565b60405180910390fd5b6004600083815260200190815260200160002060009054906101000a900473ffffffffffffffffffffffffffffffffffffffff169050919050565b60006105f082610afa565b90508073ffffffffffffffffffffffffffffffffffffffff168373ffffffffffffffffffffffffffffffffffffffff1603610660576040517f08c379a000000000000000000000000000000000000000000000000000000000815260040161065790612e5e565b60405180910390fd5b8073ffffffffffffffffffffffffffffffffffffffff1661067f611190565b73ffffffffffffffffffffffffffffffffffffffff1614806106ae57506106ad816106a8611190565b611016565b5b6106ed576040517f08c379a00000000000000000000000000000000000000000000000000000000081526004016106e490612ef0565b60405180910390fd5b6106f78383611198565b505050565b6000600880549050905090565b61071a610714611190565b82611251565b610759576040517f08c379a000000000000000000000000000000000000000000000000000000000815260040161075090612f82565b60405180910390fd5b61076483838361132f565b505050565b600c60009054906101000a900473ffffffffffffffffffffffffffffffffffffffff1673ffffffffffffffffffffffffffffffffffffffff163373ffffffffffffffffffffffffffffffffffffffff16146107f9576040517f08c379a00000000000000000000000000000000000000000000000000000000081526004016107f090613014565b60405180910390fd5b600073ffffffffffffffffffffffffffffffffffffffff168173ffffffffffffffffffffffffffffffffffffffff1603610868576040517f08c379a000000000000000000000000000000000000000000000000000000000815260040161085f90613080565b60405180910390fd5b80600c60006101000a81548173ffffffffffffffffffffffffffffffffffffffff021916908373ffffffffffffffffffffffffffffffffffffffff1602179055508073ffffffffffffffffffffffffffffffffffffffff163373ffffffffffffffffffffffffffffffffffffffff167fcba8b2f67b1b66244252c443e6260110af641687bcceb46c810da702119ec82860405160405180910390a350565b600061091183610bab565b8210610952576040517f08c379a000000000000000000000000000000000000000000000000000000000815260040161094990613112565b60405180910390fd5b600660008473ffffffffffffffffffffffffffffffffffffffff1673ffffffffffffffffffffffffffffffffffffffff168152602001908152602001600020600083815260200190815260200160002054905092915050565b6000600c60009054906101000a900473ffffffffffffffffffffffffffffffffffffffff1673ffffffffffffffffffffffffffffffffffffffff163373ffffffffffffffffffffffffffffffffffffffff1614610a3d576040517f08c379a0000000000000000000000000000000000000000000000000000000008152600401610a3490613014565b60405180910390fd5b600d60008154610a4c90613161565b91905081905550610a5f82600d54611595565b600d549050919050565b610a8483838360405180602001604052806000815250610ecd565b505050565b6000610a936106fc565b8210610ad4576040517f08c379a0000000000000000000000000000000000000000000000000000000008152600401610acb9061321b565b60405180910390fd5b60088281548110610ae857610ae761323b565b5b90600052602060002001549050919050565b6000806002600084815260200190815260200160002060009054906101000a900473ffffffffffffffffffffffffffffffffffffffff169050600073ffffffffffffffffffffffffffffffffffffffff168173ffffffffffffffffffffffffffffffffffffffff1603610ba2576040517f08c379a0000000000000000000000000000000000000000000000000000000008152600401610b99906132dc565b60405180910390fd5b80915050919050565b60008073ffffffffffffffffffffffffffffffffffffffff168273ffffffffffffffffffffffffffffffffffffffff1603610c1b576040517f08c379a0000000000000000000000000000000000000000000000000000000008152600401610c129061336e565b60405180910390fd5b600360008373ffffffffffffffffffffffffffffffffffffffff1673ffffffffffffffffffffffffffffffffffffffff168152602001908152602001600020549050919050565b600b60009054906101000a900473ffffffffffffffffffffffffffffffffffffffff1681565b606060018054610c9790612d29565b80601f0160208091040260200160405190810160405280929190818152602001828054610cc390612d29565b8015610d105780601f10610ce557610100808354040283529160200191610d10565b820191906000526020600020905b815481529060010190602001808311610cf357829003601f168201915b5050505050905090565b610d2c610d25611190565b83836115b3565b5050565b600b60009054906101000a900473ffffffffffffffffffffffffffffffffffffffff1673ffffffffffffffffffffffffffffffffffffffff163373ffffffffffffffffffffffffffffffffffffffff1614610dc0576040517f08c379a0000000000000000000000000000000000000000000000000000000008152600401610db790613400565b60405180910390fd5b600073ffffffffffffffffffffffffffffffffffffffff168173ffffffffffffffffffffffffffffffffffffffff1603610e2f576040517f08c379a0000000000000000000000000000000000000000000000000000000008152600401610e269061346c565b60405180910390fd5b80600b60006101000a81548173ffffffffffffffffffffffffffffffffffffffff021916908373ffffffffffffffffffffffffffffffffffffffff1602179055508073ffffffffffffffffffffffffffffffffffffffff163373ffffffffffffffffffffffffffffffffffffffff167f9aecf86140d81442289f667eb72e1202a8fbb3478a686659952e145e8531965660405160405180910390a350565b610ede610ed8611190565b83611251565b610f1d576040517f08c379a0000000000000000000000000000000000000000000000000000000008152600401610f1490612f82565b60405180910390fd5b610f298484848461171f565b50505050565b600c60009054906101000a900473ffffffffffffffffffffffffffffffffffffffff1673ffffffffffffffffffffffffffffffffffffffff163373ffffffffffffffffffffffffffffffffffffffff1614610fbf576040517f08c379a0000000000000000000000000000000000000000000000000000000008152600401610fb690613014565b60405180910390fd5b610fc88261177b565b8061ffff16827f3041e7ec70f8f50e03a5834751baa287138a965f2ac86b666709c46a530658cc60405160405180910390a35050565b600d5481565b606061100f82611787565b9050919050565b6000600560008473ffffffffffffffffffffffffffffffffffffffff1673ffffffffffffffffffffffffffffffffffffffff16815260200190815260200160002060008373ffffffffffffffffffffffffffffffffffffffff1673ffffffffffffffffffffffffffffffffffffffff16815260200190815260200160002060009054906101000a900460ff16905092915050565b60007f780e9d63000000000000000000000000000000000000000000000000000000007bffffffffffffffffffffffffffffffffffffffffffffffffffffffff1916827bffffffffffffffffffffffffffffffffffffffffffffffffffffffff1916148061111d575061111c826118d8565b5b9050919050565b60008073ffffffffffffffffffffffffffffffffffffffff166002600084815260200190815260200160002060009054906101000a900473ffffffffffffffffffffffffffffffffffffffff1673ffffffffffffffffffffffffffffffffffffffff1614159050919050565b600033905090565b816004600083815260200190815260200160002060006101000a81548173ffffffffffffffffffffffffffffffffffffffff021916908373ffffffffffffffffffffffffffffffffffffffff160217905550808273ffffffffffffffffffffffffffffffffffffffff1661120b83610afa565b73ffffffffffffffffffffffffffffffffffffffff167f8c5be1e5ebec7d5bd14f71427d1e84f3dd0314c0f7b2291e5b200ac8c7c3b92560405160405180910390a45050565b600061125c82611124565b61129b576040517f08c379a0000000000000000000000000000000000000000000000000000000008152600401611292906134fe565b60405180910390fd5b60006112a683610afa565b90508073ffffffffffffffffffffffffffffffffffffffff168473ffffffffffffffffffffffffffffffffffffffff1614806112e857506112e78185611016565b5b8061132657508373ffffffffffffffffffffffffffffffffffffffff1661130e84610560565b73ffffffffffffffffffffffffffffffffffffffff16145b91505092915050565b8273ffffffffffffffffffffffffffffffffffffffff1661134f82610afa565b73ffffffffffffffffffffffffffffffffffffffff16146113a5576040517f08c379a000000000000000000000000000000000000000000000000000000000815260040161139c90613590565b60405180910390fd5b600073ffffffffffffffffffffffffffffffffffffffff168273ffffffffffffffffffffffffffffffffffffffff1603611414576040517f08c379a000000000000000000000000000000000000000000000000000000000815260040161140b90613622565b60405180910390fd5b61141f8383836119ba565b61142a600082611198565b6001600360008573ffffffffffffffffffffffffffffffffffffffff1673ffffffffffffffffffffffffffffffffffffffff168152602001908152602001600020600082825461147a9190613642565b925050819055506001600360008473ffffffffffffffffffffffffffffffffffffffff1673ffffffffffffffffffffffffffffffffffffffff16815260200190815260200160002060008282546114d19190613676565b92505081905550816002600083815260200190815260200160002060006101000a81548173ffffffffffffffffffffffffffffffffffffffff021916908373ffffffffffffffffffffffffffffffffffffffff160217905550808273ffffffffffffffffffffffffffffffffffffffff168473ffffffffffffffffffffffffffffffffffffffff167fddf252ad1be2c89b69c2b068fc378daa952ba7f163c4a11628f55a4df523b3ef60405160405180910390a46115908383836119ca565b505050565b6115af8282604051806020016040528060008152506119cf565b5050565b8173ffffffffffffffffffffffffffffffffffffffff168373ffffffffffffffffffffffffffffffffffffffff1603611621576040517f08c379a000000000000000000000000000000000000000000000000000000000815260040161161890613718565b60405180910390fd5b80600560008573ffffffffffffffffffffffffffffffffffffffff1673ffffffffffffffffffffffffffffffffffffffff16815260200190815260200160002060008473ffffffffffffffffffffffffffffffffffffffff1673ffffffffffffffffffffffffffffffffffffffff16815260200190815260200160002060006101000a81548160ff0219169083151502179055508173ffffffffffffffffffffffffffffffffffffffff168373ffffffffffffffffffffffffffffffffffffffff167f17307eab39ab6107e8899845ad3d59bd9653f200f220920489ca2b5937696c318360405161171291906126dc565b60405180910390a3505050565b61172a84848461132f565b61173684848484611a2a565b611775576040517f08c379a000000000000000000000000000000000000000000000000000000000815260040161176c906137aa565b60405180910390fd5b50505050565b61178481611bb1565b50565b606061179282611124565b6117d1576040517f08c379a00000000000000000000000000000000000000000000000000000000081526004016117c89061383c565b60405180910390fd5b6000600a600084815260200190815260200160002080546117f190612d29565b80601f016020809104026020016040519081016040528092919081815260200182805461181d90612d29565b801561186a5780601f1061183f5761010080835404028352916020019161186a565b820191906000526020600020905b81548152906001019060200180831161184d57829003601f168201915b50505050509050600061187b611c04565b905060008151036118905781925050506118d3565b6000825111156118c55780826040516020016118ad929190613898565b604051602081830303815290604052925050506118d3565b6118ce84611c24565b925050505b919050565b60007f80ac58cd000000000000000000000000000000000000000000000000000000007bffffffffffffffffffffffffffffffffffffffffffffffffffffffff1916827bffffffffffffffffffffffffffffffffffffffffffffffffffffffff191614806119a357507f5b5e139f000000000000000000000000000000000000000000000000000000007bffffffffffffffffffffffffffffffffffffffffffffffffffffffff1916827bffffffffffffffffffffffffffffffffffffffffffffffffffffffff1916145b806119b357506119b282611ccb565b5b9050919050565b6119c5838383611d35565b505050565b505050565b6119d98383611e47565b6119e66000848484611a2a565b611a25576040517f08c379a0000000000000000000000000000000000000000000000000000000008152600401611a1c906137aa565b60405180910390fd5b505050565b6000611a4b8473ffffffffffffffffffffffffffffffffffffffff16612020565b15611ba4578373ffffffffffffffffffffffffffffffffffffffff1663150b7a02611a74611190565b8786866040518563ffffffff1660e01b8152600401611a969493929190613911565b6020604051808303816000875af1925050508015611ad257506040513d601f19601f82011682018060405250810190611acf9190613972565b60015b611b54573d8060008114611b02576040519150601f19603f3d011682016040523d82523d6000602084013e611b07565b606091505b506000815103611b4c576040517f08c379a0000000000000000000000000000000000000000000000000000000008152600401611b43906137aa565b60405180910390fd5b805181602001fd5b63150b7a0260e01b7bffffffffffffffffffffffffffffffffffffffffffffffffffffffff1916817bffffffffffffffffffffffffffffffffffffffffffffffffffffffff191614915050611ba9565b600190505b949350505050565b611bba81612043565b6000600a60008381526020019081526020016000208054611bda90612d29565b905014611c0157600a60008281526020019081526020016000206000611c0091906125cb565b5b50565b6060604051806060016040528060338152602001613bca60339139905090565b6060611c2f82611124565b611c6e576040517f08c379a0000000000000000000000000000000000000000000000000000000008152600401611c6590613a11565b60405180910390fd5b6000611c78611c04565b90506000815111611c985760405180602001604052806000815250611cc3565b80611ca284612160565b604051602001611cb3929190613898565b6040516020818303038152906040525b915050919050565b60007f01ffc9a7000000000000000000000000000000000000000000000000000000007bffffffffffffffffffffffffffffffffffffffffffffffffffffffff1916827bffffffffffffffffffffffffffffffffffffffffffffffffffffffff1916149050919050565b611d408383836122c0565b600073ffffffffffffffffffffffffffffffffffffffff168373ffffffffffffffffffffffffffffffffffffffff1603611d8257611d7d816122c5565b611dc1565b8173ffffffffffffffffffffffffffffffffffffffff168373ffffffffffffffffffffffffffffffffffffffff1614611dc057611dbf838261230e565b5b5b600073ffffffffffffffffffffffffffffffffffffffff168273ffffffffffffffffffffffffffffffffffffffff1603611e0357611dfe8161247b565b611e42565b8273ffffffffffffffffffffffffffffffffffffffff168273ffffffffffffffffffffffffffffffffffffffff1614611e4157611e40828261254c565b5b5b505050565b600073ffffffffffffffffffffffffffffffffffffffff168273ffffffffffffffffffffffffffffffffffffffff1603611eb6576040517f08c379a0000000000000000000000000000000000000000000000000000000008152600401611ead90613a7d565b60405180910390fd5b611ebf81611124565b15611eff576040517f08c379a0000000000000000000000000000000000000000000000000000000008152600401611ef690613ae9565b60405180910390fd5b611f0b600083836119ba565b6001600360008473ffffffffffffffffffffffffffffffffffffffff1673ffffffffffffffffffffffffffffffffffffffff1681526020019081526020016000206000828254611f5b9190613676565b92505081905550816002600083815260200190815260200160002060006101000a81548173ffffffffffffffffffffffffffffffffffffffff021916908373ffffffffffffffffffffffffffffffffffffffff160217905550808273ffffffffffffffffffffffffffffffffffffffff16600073ffffffffffffffffffffffffffffffffffffffff167fddf252ad1be2c89b69c2b068fc378daa952ba7f163c4a11628f55a4df523b3ef60405160405180910390a461201c600083836119ca565b5050565b6000808273ffffffffffffffffffffffffffffffffffffffff163b119050919050565b600061204e82610afa565b905061205c816000846119ba565b612067600083611198565b6001600360008373ffffffffffffffffffffffffffffffffffffffff1673ffffffffffffffffffffffffffffffffffffffff16815260200190815260200160002060008282546120b79190613642565b925050819055506002600083815260200190815260200160002060006101000a81549073ffffffffffffffffffffffffffffffffffffffff021916905581600073ffffffffffffffffffffffffffffffffffffffff168273ffffffffffffffffffffffffffffffffffffffff167fddf252ad1be2c89b69c2b068fc378daa952ba7f163c4a11628f55a4df523b3ef60405160405180910390a461215c816000846119ca565b5050565b6060600082036121a7576040518060400160405280600181526020017f300000000000000000000000000000000000000000000000000000000000000081525090506122bb565b600082905060005b600082146121d95780806121c290613161565b915050600a826121d29190613b38565b91506121af565b60008167ffffffffffffffff8111156121f5576121f4612a92565b5b6040519080825280601f01601f1916602001820160405280156122275781602001600182028036833780820191505090505b5090505b600085146122b4576001826122409190613642565b9150600a8561224f9190613b69565b603061225b9190613676565b60f81b8183815181106122715761227061323b565b5b60200101907effffffffffffffffffffffffffffffffffffffffffffffffffffffffffffff1916908160001a905350600a856122ad9190613b38565b945061222b565b8093505050505b919050565b505050565b6008805490506009600083815260200190815260200160002081905550600881908060018154018082558091505060019003906000526020600020016000909190919091505550565b6000600161231b84610bab565b6123259190613642565b905060006007600084815260200190815260200160002054905081811461240a576000600660008673ffffffffffffffffffffffffffffffffffffffff1673ffffffffffffffffffffffffffffffffffffffff168152602001908152602001600020600084815260200190815260200160002054905080600660008773ffffffffffffffffffffffffffffffffffffffff1673ffffffffffffffffffffffffffffffffffffffff168152602001908152602001600020600084815260200190815260200160002081905550816007600083815260200190815260200160002081905550505b6007600084815260200190815260200160002060009055600660008573ffffffffffffffffffffffffffffffffffffffff1673ffffffffffffffffffffffffffffffffffffffff16815260200190815260200160002060008381526020019081526020016000206000905550505050565b6000600160088054905061248f9190613642565b90506000600960008481526020019081526020016000205490506000600883815481106124bf576124be61323b565b5b9060005260206000200154905080600883815481106124e1576124e061323b565b5b9060005260206000200181905550816009600083815260200190815260200160002081905550600960008581526020019081526020016000206000905560088054806125305761252f613b9a565b5b6001900381819060005260206000200160009055905550505050565b600061255783610bab565b905081600660008573ffffffffffffffffffffffffffffffffffffffff1673ffffffffffffffffffffffffffffffffffffffff168152602001908152602001600020600083815260200190815260200160002081905550806007600084815260200190815260200160002081905550505050565b5080546125d790612d29565b6000825580601f106125e95750612608565b601f016020900490600052602060002090810190612607919061260b565b5b50565b5b8082111561262457600081600090555060010161260c565b5090565b6000604051905090565b600080fd5b600080fd5b60007fffffffff0000000000000000000000000000000000000000000000000000000082169050919050565b6126718161263c565b811461267c57600080fd5b50565b60008135905061268e81612668565b92915050565b6000602082840312156126aa576126a9612632565b5b60006126b88482850161267f565b91505092915050565b60008115159050919050565b6126d6816126c1565b82525050565b60006020820190506126f160008301846126cd565b92915050565b600081519050919050565b600082825260208201905092915050565b60005b83811015612731578082015181840152602081019050612716565b83811115612740576000848401525b50505050565b6000601f19601f8301169050919050565b6000612762826126f7565b61276c8185612702565b935061277c818560208601612713565b61278581612746565b840191505092915050565b600060208201905081810360008301526127aa8184612757565b905092915050565b600073ffffffffffffffffffffffffffffffffffffffff82169050919050565b60006127dd826127b2565b9050919050565b6127ed816127d2565b82525050565b600060208201905061280860008301846127e4565b92915050565b6000819050919050565b6128218161280e565b811461282c57600080fd5b50565b60008135905061283e81612818565b92915050565b60006020828403121561285a57612859612632565b5b60006128688482850161282f565b91505092915050565b61287a816127d2565b811461288557600080fd5b50565b60008135905061289781612871565b92915050565b600080604083850312156128b4576128b3612632565b5b60006128c285828601612888565b92505060206128d38582860161282f565b9150509250929050565b6128e68161280e565b82525050565b600060208201905061290160008301846128dd565b92915050565b6000806000606084860312156129205761291f612632565b5b600061292e86828701612888565b935050602061293f86828701612888565b92505060406129508682870161282f565b9150509250925092565b6000602082840312156129705761296f612632565b5b600061297e84828501612888565b91505092915050565b6000612992826127b2565b9050919050565b6129a281612987565b82525050565b60006020820190506129bd6000830184612999565b92915050565b6129cc816126c1565b81146129d757600080fd5b50565b6000813590506129e9816129c3565b92915050565b60008060408385031215612a0657612a05612632565b5b6000612a1485828601612888565b9250506020612a25858286016129da565b9150509250929050565b612a3881612987565b8114612a4357600080fd5b50565b600081359050612a5581612a2f565b92915050565b600060208284031215612a7157612a70612632565b5b6000612a7f84828501612a46565b91505092915050565b600080fd5b600080fd5b7f4e487b7100000000000000000000000000000000000000000000000000000000600052604160045260246000fd5b612aca82612746565b810181811067ffffffffffffffff82111715612ae957612ae8612a92565b5b80604052505050565b6000612afc612628565b9050612b088282612ac1565b919050565b600067ffffffffffffffff821115612b2857612b27612a92565b5b612b3182612746565b9050602081019050919050565b82818337600083830152505050565b6000612b60612b5b84612b0d565b612af2565b905082815260208101848484011115612b7c57612b7b612a8d565b5b612b87848285612b3e565b509392505050565b600082601f830112612ba457612ba3612a88565b5b8135612bb4848260208601612b4d565b91505092915050565b60008060008060808587031215612bd757612bd6612632565b5b6000612be587828801612888565b9450506020612bf687828801612888565b9350506040612c078782880161282f565b925050606085013567ffffffffffffffff811115612c2857612c27612637565b5b612c3487828801612b8f565b91505092959194509250565b600061ffff82169050919050565b612c5781612c40565b8114612c6257600080fd5b50565b600081359050612c7481612c4e565b92915050565b60008060408385031215612c9157612c90612632565b5b6000612c9f8582860161282f565b9250506020612cb085828601612c65565b9150509250929050565b60008060408385031215612cd157612cd0612632565b5b6000612cdf85828601612888565b9250506020612cf085828601612888565b9150509250929050565b7f4e487b7100000000000000000000000000000000000000000000000000000000600052602260045260246000fd5b60006002820490506001821680612d4157607f821691505b602082108103612d5457612d53612cfa565b5b50919050565b7f4552433732313a20617070726f76656420717565727920666f72206e6f6e657860008201527f697374656e7420746f6b656e0000000000000000000000000000000000000000602082015250565b6000612db6602c83612702565b9150612dc182612d5a565b604082019050919050565b60006020820190508181036000830152612de581612da9565b9050919050565b7f4552433732313a20617070726f76616c20746f2063757272656e74206f776e6560008201527f7200000000000000000000000000000000000000000000000000000000000000602082015250565b6000612e48602183612702565b9150612e5382612dec565b604082019050919050565b60006020820190508181036000830152612e7781612e3b565b9050919050565b7f4552433732313a20617070726f76652063616c6c6572206973206e6f74206f7760008201527f6e6572206e6f7220617070726f76656420666f7220616c6c0000000000000000602082015250565b6000612eda603883612702565b9150612ee582612e7e565b604082019050919050565b60006020820190508181036000830152612f0981612ecd565b9050919050565b7f4552433732313a207472616e736665722063616c6c6572206973206e6f74206f60008201527f776e6572206e6f7220617070726f766564000000000000000000000000000000602082015250565b6000612f6c603183612702565b9150612f7782612f10565b604082019050919050565b60006020820190508181036000830152612f9b81612f5f565b9050919050565b7f4f6e6c792074686520636f6e7472616374206d696e7465722063616e2063616c60008201527f6c20746869732066756e6374696f6e0000000000000000000000000000000000602082015250565b6000612ffe602f83612702565b915061300982612fa2565b604082019050919050565b6000602082019050818103600083015261302d81612ff1565b9050919050565b7f6e6f74207a65726f206164647265737320666f72206e6577206d696e74657200600082015250565b600061306a601f83612702565b915061307582613034565b602082019050919050565b600060208201905081810360008301526130998161305d565b9050919050565b7f455243373231456e756d657261626c653a206f776e657220696e646578206f7560008201527f74206f6620626f756e6473000000000000000000000000000000000000000000602082015250565b60006130fc602b83612702565b9150613107826130a0565b604082019050919050565b6000602082019050818103600083015261312b816130ef565b9050919050565b7f4e487b7100000000000000000000000000000000000000000000000000000000600052601160045260246000fd5b600061316c8261280e565b91507fffffffffffffffffffffffffffffffffffffffffffffffffffffffffffffffff820361319e5761319d613132565b5b600182019050919050565b7f455243373231456e756d657261626c653a20676c6f62616c20696e646578206f60008201527f7574206f6620626f756e64730000000000000000000000000000000000000000602082015250565b6000613205602c83612702565b9150613210826131a9565b604082019050919050565b60006020820190508181036000830152613234816131f8565b9050919050565b7f4e487b7100000000000000000000000000000000000000000000000000000000600052603260045260246000fd5b7f4552433732313a206f776e657220717565727920666f72206e6f6e657869737460008201527f656e7420746f6b656e0000000000000000000000000000000000000000000000602082015250565b60006132c6602983612702565b91506132d18261326a565b604082019050919050565b600060208201905081810360008301526132f5816132b9565b9050919050565b7f4552433732313a2062616c616e636520717565727920666f7220746865207a6560008201527f726f206164647265737300000000000000000000000000000000000000000000602082015250565b6000613358602a83612702565b9150613363826132fc565b604082019050919050565b600060208201905081810360008301526133878161334b565b9050919050565b7f4f6e6c792074686520636f6e7472616374206f776e65722063616e2063616c6c60008201527f20746869732066756e6374696f6e000000000000000000000000000000000000602082015250565b60006133ea602e83612702565b91506133f58261338e565b604082019050919050565b60006020820190508181036000830152613419816133dd565b9050919050565b7f6e6f74207a65726f206164647265737320666f72206e6577206f776e65720000600082015250565b6000613456601e83612702565b915061346182613420565b602082019050919050565b6000602082019050818103600083015261348581613449565b9050919050565b7f4552433732313a206f70657261746f7220717565727920666f72206e6f6e657860008201527f697374656e7420746f6b656e0000000000000000000000000000000000000000602082015250565b60006134e8602c83612702565b91506134f38261348c565b604082019050919050565b60006020820190508181036000830152613517816134db565b9050919050565b7f4552433732313a207472616e736665722066726f6d20696e636f72726563742060008201527f6f776e6572000000000000000000000000000000000000000000000000000000602082015250565b600061357a602583612702565b91506135858261351e565b604082019050919050565b600060208201905081810360008301526135a98161356d565b9050919050565b7f4552433732313a207472616e7366657220746f20746865207a65726f2061646460008201527f7265737300000000000000000000000000000000000000000000000000000000602082015250565b600061360c602483612702565b9150613617826135b0565b604082019050919050565b6000602082019050818103600083015261363b816135ff565b9050919050565b600061364d8261280e565b91506136588361280e565b92508282101561366b5761366a613132565b5b828203905092915050565b60006136818261280e565b915061368c8361280e565b9250827fffffffffffffffffffffffffffffffffffffffffffffffffffffffffffffffff038211156136c1576136c0613132565b5b828201905092915050565b7f4552433732313a20617070726f766520746f2063616c6c657200000000000000600082015250565b6000613702601983612702565b915061370d826136cc565b602082019050919050565b60006020820190508181036000830152613731816136f5565b9050919050565b7f4552433732313a207472616e7366657220746f206e6f6e20455243373231526560008201527f63656976657220696d706c656d656e7465720000000000000000000000000000602082015250565b6000613794603283612702565b915061379f82613738565b604082019050919050565b600060208201905081810360008301526137c381613787565b9050919050565b7f45524337323155524953746f726167653a2055524920717565727920666f722060008201527f6e6f6e6578697374656e7420746f6b656e000000000000000000000000000000602082015250565b6000613826603183612702565b9150613831826137ca565b604082019050919050565b6000602082019050818103600083015261385581613819565b9050919050565b600081905092915050565b6000613872826126f7565b61387c818561385c565b935061388c818560208601612713565b80840191505092915050565b60006138a48285613867565b91506138b08284613867565b91508190509392505050565b600081519050919050565b600082825260208201905092915050565b60006138e3826138bc565b6138ed81856138c7565b93506138fd818560208601612713565b61390681612746565b840191505092915050565b600060808201905061392660008301876127e4565b61393360208301866127e4565b61394060408301856128dd565b818103606083015261395281846138d8565b905095945050505050565b60008151905061396c81612668565b92915050565b60006020828403121561398857613987612632565b5b60006139968482850161395d565b91505092915050565b7f4552433732314d657461646174613a2055524920717565727920666f72206e6f60008201527f6e6578697374656e7420746f6b656e0000000000000000000000000000000000602082015250565b60006139fb602f83612702565b9150613a068261399f565b604082019050919050565b60006020820190508181036000830152613a2a816139ee565b9050919050565b7f4552433732313a206d696e7420746f20746865207a65726f2061646472657373600082015250565b6000613a67602083612702565b9150613a7282613a31565b602082019050919050565b60006020820190508181036000830152613a9681613a5a565b9050919050565b7f4552433732313a20746f6b656e20616c7265616479206d696e74656400000000600082015250565b6000613ad3601c83612702565b9150613ade82613a9d565b602082019050919050565b60006020820190508181036000830152613b0281613ac6565b9050919050565b7f4e487b7100000000000000000000000000000000000000000000000000000000600052601260045260246000fd5b6000613b438261280e565b9150613b4e8361280e565b925082613b5e57613b5d613b09565b5b828204905092915050565b6000613b748261280e565b9150613b7f8361280e565b925082613b8f57613b8e613b09565b5b828206905092915050565b7f4e487b7100000000000000000000000000000000000000000000000000000000600052603160045260246000fdfe68747470733a2f2f616c7068612d6170692e7072756e656d61726b65742e78797a3a3535322f6e66742f6974656d2f746b6d2fa2646970667358221220e246d9a233d27bad6749e62927b920d3d8e903d4c3c2991b00d413869287702464736f6c634300080e0033",
  "immutableReferences": {},
  "source": "// SPDX-License-Identifier: MIT\r\n\r\npragma solidity ^0.8.14;\r\n\r\nimport \"@openzeppelin/contracts/token/ERC721/ERC721.sol\";\r\nimport \"@openzeppelin/contracts/token/ERC721/extensions/ERC721Enumerable.sol\";\r\nimport \"@openzeppelin/contracts/token/ERC721/extensions/ERC721URIStorage.sol\";\r\nimport \"./Owner.sol\";\r\n\r\ncontract TKMNftA is ERC721, ERC721Enumerable, ERC721URIStorage, Owner, Minter {\r\n    event NftBurn(uint256 indexed tokenId, uint16 indexed reason);\r\n\r\n    // nft token id\r\n    uint256 public nftId;\r\n\r\n    constructor(address minter_)\r\n        ERC721(\"Three Kingdom Multiverse Nft\", \"3KMNft_A\")\r\n        Minter(minter_)\r\n    {}\r\n\r\n    function Mint(address nftOwner) external onlyMinter returns (uint256) {\r\n        ++nftId;\r\n        _safeMint(nftOwner, nftId);\r\n        return nftId;\r\n    }\r\n\r\n    function Burn(uint256 _nftId, uint16 reason) external onlyMinter {\r\n        _burn(_nftId);\r\n        emit NftBurn(_nftId, reason);\r\n    }\r\n\r\n    function _baseURI() internal pure override returns (string memory) {\r\n        return \"https://alpha-api.prunemarket.xyz:552/nft/item/tkm/\";\r\n    }\r\n\r\n    function _beforeTokenTransfer(\r\n        address from,\r\n        address to,\r\n        uint256 tokenId\r\n    ) internal override(ERC721, ERC721Enumerable) {\r\n        super._beforeTokenTransfer(from, to, tokenId);\r\n    }\r\n\r\n    function _burn(uint256 tokenId)\r\n        internal\r\n        override(ERC721, ERC721URIStorage)\r\n    {\r\n        super._burn(tokenId);\r\n    }\r\n\r\n    function tokenURI(uint256 tokenId)\r\n        public\r\n        view\r\n        override(ERC721, ERC721URIStorage)\r\n        returns (string memory)\r\n    {\r\n        return super.tokenURI(tokenId);\r\n    }\r\n\r\n    function supportsInterface(bytes4 interfaceId)\r\n        public\r\n        view\r\n        override(ERC721, ERC721Enumerable)\r\n        returns (bool)\r\n    {\r\n        return super.supportsInterface(interfaceId);\r\n    }\r\n}\r\n",
  "sourcePath": "C:\\Works\\1_Github\\solidity_tinyping\\contracts\\TKMNftA.sol",
  "compiler": {
    "name": "solc",
    "version": "0.8.14+commit.80d49f37.Emscripten.clang"
  },
  "schemaVersion": "3.4.7",
  "updatedAt": "2022-10-06T01:38:11.560Z",
  "networkType": "ethereum",
  "devdoc": {
    "kind": "dev",
    "methods": {
      "approve(address,uint256)": {
        "details": "See {IERC721-approve}."
      },
      "balanceOf(address)": {
        "details": "See {IERC721-balanceOf}."
      },
      "getApproved(uint256)": {
        "details": "See {IERC721-getApproved}."
      },
      "isApprovedForAll(address,address)": {
        "details": "See {IERC721-isApprovedForAll}."
      },
      "name()": {
        "details": "See {IERC721Metadata-name}."
      },
      "ownerOf(uint256)": {
        "details": "See {IERC721-ownerOf}."
      },
      "safeTransferFrom(address,address,uint256)": {
        "details": "See {IERC721-safeTransferFrom}."
      },
      "safeTransferFrom(address,address,uint256,bytes)": {
        "details": "See {IERC721-safeTransferFrom}."
      },
      "setApprovalForAll(address,bool)": {
        "details": "See {IERC721-setApprovalForAll}."
      },
      "symbol()": {
        "details": "See {IERC721Metadata-symbol}."
      },
      "tokenByIndex(uint256)": {
        "details": "See {IERC721Enumerable-tokenByIndex}."
      },
      "tokenOfOwnerByIndex(address,uint256)": {
        "details": "See {IERC721Enumerable-tokenOfOwnerByIndex}."
      },
      "totalSupply()": {
        "details": "See {IERC721Enumerable-totalSupply}."
      },
      "transferFrom(address,address,uint256)": {
        "details": "See {IERC721-transferFrom}."
      }
    },
    "version": 1
  },
  "userdoc": {
    "kind": "user",
    "methods": {},
    "version": 1
  }
}