{
  "contractName": "TKMInoA",
  "abi": [
    {
      "inputs": [
        {
          "internalType": "address",
          "name": "_TKMBox",
          "type": "address"
        },
        {
          "internalType": "address",
          "name": "_Operator",
          "type": "address"
        }
      ],
      "stateMutability": "nonpayable",
      "type": "constructor"
    },
    {
      "anonymous": false,
      "inputs": [
        {
          "indexed": true,
          "internalType": "address",
          "name": "from",
          "type": "address"
        },
        {
          "indexed": true,
          "internalType": "address",
          "name": "to",
          "type": "address"
        }
      ],
      "name": "ChangeOwner",
      "type": "event"
    },
    {
      "anonymous": false,
      "inputs": [
        {
          "indexed": true,
          "internalType": "address",
          "name": "from",
          "type": "address"
        },
        {
          "indexed": true,
          "internalType": "uint8",
          "name": "order",
          "type": "uint8"
        },
        {
          "indexed": true,
          "internalType": "uint256",
          "name": "boxId",
          "type": "uint256"
        }
      ],
      "name": "Sale",
      "type": "event"
    },
    {
      "inputs": [],
      "name": "Operator",
      "outputs": [
        {
          "internalType": "address",
          "name": "",
          "type": "address"
        }
      ],
      "stateMutability": "view",
      "type": "function",
      "constant": true
    },
    {
      "inputs": [],
      "name": "TKMBox",
      "outputs": [
        {
          "internalType": "contract ERC721",
          "name": "",
          "type": "address"
        }
      ],
      "stateMutability": "view",
      "type": "function",
      "constant": true
    },
    {
      "inputs": [
        {
          "internalType": "uint8",
          "name": "",
          "type": "uint8"
        },
        {
          "internalType": "address",
          "name": "",
          "type": "address"
        }
      ],
      "name": "boxPerUser",
      "outputs": [
        {
          "internalType": "uint256",
          "name": "",
          "type": "uint256"
        }
      ],
      "stateMutability": "view",
      "type": "function",
      "constant": true
    },
    {
      "inputs": [
        {
          "internalType": "address payable",
          "name": "newOwner_",
          "type": "address"
        }
      ],
      "name": "changeOwner",
      "outputs": [],
      "stateMutability": "nonpayable",
      "type": "function"
    },
    {
      "inputs": [
        {
          "internalType": "uint8",
          "name": "",
          "type": "uint8"
        }
      ],
      "name": "currentNftIds",
      "outputs": [
        {
          "internalType": "uint256",
          "name": "",
          "type": "uint256"
        }
      ],
      "stateMutability": "view",
      "type": "function",
      "constant": true
    },
    {
      "inputs": [],
      "name": "owner",
      "outputs": [
        {
          "internalType": "address payable",
          "name": "",
          "type": "address"
        }
      ],
      "stateMutability": "view",
      "type": "function",
      "constant": true
    },
    {
      "inputs": [
        {
          "internalType": "uint8",
          "name": "",
          "type": "uint8"
        }
      ],
      "name": "saleOrders",
      "outputs": [
        {
          "internalType": "uint256",
          "name": "startBoxId",
          "type": "uint256"
        },
        {
          "internalType": "uint256",
          "name": "endBoxId",
          "type": "uint256"
        },
        {
          "internalType": "uint256",
          "name": "startTime",
          "type": "uint256"
        },
        {
          "internalType": "uint256",
          "name": "endTime",
          "type": "uint256"
        },
        {
          "internalType": "uint256",
          "name": "price",
          "type": "uint256"
        },
        {
          "internalType": "uint256",
          "name": "limitPerUser",
          "type": "uint256"
        }
      ],
      "stateMutability": "view",
      "type": "function",
      "constant": true
    },
    {
      "inputs": [
        {
          "internalType": "uint8",
          "name": "",
          "type": "uint8"
        },
        {
          "internalType": "address",
          "name": "",
          "type": "address"
        }
      ],
      "name": "whiteLists",
      "outputs": [
        {
          "internalType": "bool",
          "name": "",
          "type": "bool"
        }
      ],
      "stateMutability": "view",
      "type": "function",
      "constant": true
    },
    {
      "inputs": [
        {
          "internalType": "uint8",
          "name": "_order",
          "type": "uint8"
        },
        {
          "internalType": "uint256",
          "name": "_startBoxId",
          "type": "uint256"
        },
        {
          "internalType": "uint256",
          "name": "_endBoxId",
          "type": "uint256"
        },
        {
          "internalType": "uint256",
          "name": "_startTime",
          "type": "uint256"
        },
        {
          "internalType": "uint256",
          "name": "_endTime",
          "type": "uint256"
        },
        {
          "internalType": "uint256",
          "name": "_price",
          "type": "uint256"
        },
        {
          "internalType": "uint16",
          "name": "_limitPerUser",
          "type": "uint16"
        }
      ],
      "name": "setSaleOrder",
      "outputs": [],
      "stateMutability": "nonpayable",
      "type": "function"
    },
    {
      "inputs": [
        {
          "internalType": "uint8",
          "name": "_order",
          "type": "uint8"
        },
        {
          "internalType": "address[]",
          "name": "_addresses",
          "type": "address[]"
        }
      ],
      "name": "addWhiteList",
      "outputs": [],
      "stateMutability": "nonpayable",
      "type": "function"
    },
    {
      "inputs": [],
      "name": "sale1",
      "outputs": [],
      "stateMutability": "payable",
      "type": "function",
      "payable": true
    },
    {
      "inputs": [],
      "name": "sale2",
      "outputs": [],
      "stateMutability": "payable",
      "type": "function",
      "payable": true
    },
    {
      "inputs": [],
      "name": "sale3",
      "outputs": [],
      "stateMutability": "payable",
      "type": "function",
      "payable": true
    },
    {
      "inputs": [],
      "name": "sale4",
      "outputs": [],
      "stateMutability": "payable",
      "type": "function",
      "payable": true
    },
    {
      "inputs": [],
      "name": "sale5",
      "outputs": [],
      "stateMutability": "payable",
      "type": "function",
      "payable": true
    },
    {
      "inputs": [],
      "name": "sale6",
      "outputs": [],
      "stateMutability": "payable",
      "type": "function",
      "payable": true
    },
    {
      "inputs": [
        {
          "internalType": "address",
          "name": "to",
          "type": "address"
        }
      ],
      "name": "withdrawEth",
      "outputs": [],
      "stateMutability": "nonpayable",
      "type": "function"
    }
  ],
  "bytecode": "0x60806040523480156200001157600080fd5b5060405162004b2f38038062004b2f83398181016040528101906200003791906200016b565b336000806101000a81548173ffffffffffffffffffffffffffffffffffffffff021916908373ffffffffffffffffffffffffffffffffffffffff16021790555081600160006101000a81548173ffffffffffffffffffffffffffffffffffffffff021916908373ffffffffffffffffffffffffffffffffffffffff16021790555080600260006101000a81548173ffffffffffffffffffffffffffffffffffffffff021916908373ffffffffffffffffffffffffffffffffffffffff1602179055505050620001b2565b600080fd5b600073ffffffffffffffffffffffffffffffffffffffff82169050919050565b6000620001338262000106565b9050919050565b620001458162000126565b81146200015157600080fd5b50565b60008151905062000165816200013a565b92915050565b6000806040838503121562000185576200018462000101565b5b6000620001958582860162000154565b9250506020620001a88582860162000154565b9150509250929050565b61496d80620001c26000396000f3fe6080604052600436106100fe5760003560e01c8063626a02c611610095578063b80c6c8b11610064578063b80c6c8b146102ed578063bcc8661a146102f7578063cf44d9df14610320578063da5a358f1461032a578063e5429eb314610353576100fe565b8063626a02c6146102525780638baa025a1461028f5780638da5cb5b14610299578063a6f9dae1146102c4576100fe565b8063297da2a6116100d1578063297da2a61461019e5780632dd07fbc146101e0578063347958001461020b5780635491f53814610215576100fe565b80630b6f4cc7146101035780630d5854971461014057806325e160631461014a57806328c9ddb414610173575b600080fd5b34801561010f57600080fd5b5061012a60048036038101906101259190612964565b61035d565b60405161013791906129bf565b60405180910390f35b61014861038c565b005b34801561015657600080fd5b50610171600480360381019061016c91906129da565b6107e8565b005b34801561017f57600080fd5b50610188610935565b6040516101959190612a66565b60405180910390f35b3480156101aa57600080fd5b506101c560048036038101906101c09190612a81565b61095b565b6040516101d796959493929190612ac7565b60405180910390f35b3480156101ec57600080fd5b506101f5610997565b6040516102029190612b37565b60405180910390f35b6102136109bd565b005b34801561022157600080fd5b5061023c60048036038101906102379190612a81565b610ec3565b6040516102499190612b52565b60405180910390f35b34801561025e57600080fd5b5061027960048036038101906102749190612964565b610edb565b6040516102869190612b52565b60405180910390f35b610297610f00565b005b3480156102a557600080fd5b506102ae61135c565b6040516102bb9190612b8e565b60405180910390f35b3480156102d057600080fd5b506102eb60048036038101906102e69190612bd5565b611380565b005b6102f561151a565b005b34801561030357600080fd5b5061031e60048036038101906103199190612d5b565b611a20565b005b610328611c31565b005b34801561033657600080fd5b50610351600480360381019061034c9190612e1d565b612137565b005b61035b6123b3565b005b60046020528160005260406000206020528060005260406000206000915091509054906101000a900460ff1681565b60006004905042600360008360ff1660ff1681526020019081526020016000206002015411156103f1576040517f08c379a00000000000000000000000000000000000000000000000000000000081526004016103e890612f42565b60405180910390fd5b42600360008360ff1660ff168152602001908152602001600020600301541015610450576040517f08c379a000000000000000000000000000000000000000000000000000000000815260040161044790612fae565b60405180910390fd5b6000600360008360ff1660ff168152602001908152602001600020600401543461047a919061302c565b9050806000106104bf576040517f08c379a00000000000000000000000000000000000000000000000000000000081526004016104b6906130cf565b60405180910390fd5b80600660008460ff1660ff16815260200190815260200160002060003373ffffffffffffffffffffffffffffffffffffffff1673ffffffffffffffffffffffffffffffffffffffff168152602001908152602001600020600082825461052591906130ef565b92505081905550600360008360ff1660ff16815260200190815260200160002060050154600660008460ff1660ff16815260200190815260200160002060003373ffffffffffffffffffffffffffffffffffffffff1673ffffffffffffffffffffffffffffffffffffffff1681526020019081526020016000205411156105e1576040517f08c379a00000000000000000000000000000000000000000000000000000000081526004016105d8906131b7565b60405180910390fd5b6000600560008460ff1660ff16815260200190815260200160002054905081600560008560ff1660ff168152602001908152602001600020600082825461062891906130ef565b92505081905550600360008460ff1660ff168152602001908152602001600020600101546001600560008660ff1660ff1681526020019081526020016000205461067291906131d7565b11156106b3576040517f08c379a00000000000000000000000000000000000000000000000000000000081526004016106aa9061327d565b60405180910390fd5b60005b828110156107e257600160009054906101000a900473ffffffffffffffffffffffffffffffffffffffff1673ffffffffffffffffffffffffffffffffffffffff166342842e0e600260009054906101000a900473ffffffffffffffffffffffffffffffffffffffff1633848661072c91906130ef565b6040518463ffffffff1660e01b815260040161074a9392919061329d565b600060405180830381600087803b15801561076457600080fd5b505af1158015610778573d6000803e3d6000fd5b50505050808261078891906130ef565b8460ff163373ffffffffffffffffffffffffffffffffffffffff167f9abe6afca30e7673e8c923fe25a0263b60d2951081abd0160cd8451576f94ec960405160405180910390a480806107da906132d4565b9150506106b6565b50505050565b60008054906101000a900473ffffffffffffffffffffffffffffffffffffffff1673ffffffffffffffffffffffffffffffffffffffff163373ffffffffffffffffffffffffffffffffffffffff1614610876576040517f08c379a000000000000000000000000000000000000000000000000000000000815260040161086d9061338e565b60405180910390fd5b600073ffffffffffffffffffffffffffffffffffffffff168173ffffffffffffffffffffffffffffffffffffffff16036108e5576040517f08c379a00000000000000000000000000000000000000000000000000000000081526004016108dc90613420565b60405180910390fd5b60008190508073ffffffffffffffffffffffffffffffffffffffff166108fc479081150290604051600060405180830381858888f19350505050158015610930573d6000803e3d6000fd5b505050565b600160009054906101000a900473ffffffffffffffffffffffffffffffffffffffff1681565b60036020528060005260406000206000915090508060000154908060010154908060020154908060030154908060040154908060050154905086565b600260009054906101000a900473ffffffffffffffffffffffffffffffffffffffff1681565b60006005905042600360008360ff1660ff168152602001908152602001600020600201541115610a22576040517f08c379a0000000000000000000000000000000000000000000000000000000008152600401610a19906134b2565b60405180910390fd5b42600360008360ff1660ff168152602001908152602001600020600301541015610a81576040517f08c379a0000000000000000000000000000000000000000000000000000000008152600401610a789061351e565b60405180910390fd5b60011515600460008360ff1660ff16815260200190815260200160002060003373ffffffffffffffffffffffffffffffffffffffff1673ffffffffffffffffffffffffffffffffffffffff16815260200190815260200160002060009054906101000a900460ff16151514610b2b576040517f08c379a0000000000000000000000000000000000000000000000000000000008152600401610b22906135b0565b60405180910390fd5b6000600360008360ff1660ff1681526020019081526020016000206004015434610b55919061302c565b905080600010610b9a576040517f08c379a0000000000000000000000000000000000000000000000000000000008152600401610b9190613642565b60405180910390fd5b80600660008460ff1660ff16815260200190815260200160002060003373ffffffffffffffffffffffffffffffffffffffff1673ffffffffffffffffffffffffffffffffffffffff1681526020019081526020016000206000828254610c0091906130ef565b92505081905550600360008360ff1660ff16815260200190815260200160002060050154600660008460ff1660ff16815260200190815260200160002060003373ffffffffffffffffffffffffffffffffffffffff1673ffffffffffffffffffffffffffffffffffffffff168152602001908152602001600020541115610cbc576040517f08c379a0000000000000000000000000000000000000000000000000000000008152600401610cb3906136d4565b60405180910390fd5b6000600560008460ff1660ff16815260200190815260200160002054905081600560008560ff1660ff1681526020019081526020016000206000828254610d0391906130ef565b92505081905550600360008460ff1660ff168152602001908152602001600020600101546001600560008660ff1660ff16815260200190815260200160002054610d4d91906131d7565b1115610d8e576040517f08c379a0000000000000000000000000000000000000000000000000000000008152600401610d8590613766565b60405180910390fd5b60005b82811015610ebd57600160009054906101000a900473ffffffffffffffffffffffffffffffffffffffff1673ffffffffffffffffffffffffffffffffffffffff166342842e0e600260009054906101000a900473ffffffffffffffffffffffffffffffffffffffff16338486610e0791906130ef565b6040518463ffffffff1660e01b8152600401610e259392919061329d565b600060405180830381600087803b158015610e3f57600080fd5b505af1158015610e53573d6000803e3d6000fd5b505050508082610e6391906130ef565b8460ff163373ffffffffffffffffffffffffffffffffffffffff167f9abe6afca30e7673e8c923fe25a0263b60d2951081abd0160cd8451576f94ec960405160405180910390a48080610eb5906132d4565b915050610d91565b50505050565b60056020528060005260406000206000915090505481565b6006602052816000526040600020602052806000526040600020600091509150505481565b60006003905042600360008360ff1660ff168152602001908152602001600020600201541115610f65576040517f08c379a0000000000000000000000000000000000000000000000000000000008152600401610f5c906137f8565b60405180910390fd5b42600360008360ff1660ff168152602001908152602001600020600301541015610fc4576040517f08c379a0000000000000000000000000000000000000000000000000000000008152600401610fbb90613864565b60405180910390fd5b6000600360008360ff1660ff1681526020019081526020016000206004015434610fee919061302c565b905080600010611033576040517f08c379a000000000000000000000000000000000000000000000000000000000815260040161102a906138f6565b60405180910390fd5b80600660008460ff1660ff16815260200190815260200160002060003373ffffffffffffffffffffffffffffffffffffffff1673ffffffffffffffffffffffffffffffffffffffff168152602001908152602001600020600082825461109991906130ef565b92505081905550600360008360ff1660ff16815260200190815260200160002060050154600660008460ff1660ff16815260200190815260200160002060003373ffffffffffffffffffffffffffffffffffffffff1673ffffffffffffffffffffffffffffffffffffffff168152602001908152602001600020541115611155576040517f08c379a000000000000000000000000000000000000000000000000000000000815260040161114c90613988565b60405180910390fd5b6000600560008460ff1660ff16815260200190815260200160002054905081600560008560ff1660ff168152602001908152602001600020600082825461119c91906130ef565b92505081905550600360008460ff1660ff168152602001908152602001600020600101546001600560008660ff1660ff168152602001908152602001600020546111e691906131d7565b1115611227576040517f08c379a000000000000000000000000000000000000000000000000000000000815260040161121e90613a1a565b60405180910390fd5b60005b8281101561135657600160009054906101000a900473ffffffffffffffffffffffffffffffffffffffff1673ffffffffffffffffffffffffffffffffffffffff166342842e0e600260009054906101000a900473ffffffffffffffffffffffffffffffffffffffff163384866112a091906130ef565b6040518463ffffffff1660e01b81526004016112be9392919061329d565b600060405180830381600087803b1580156112d857600080fd5b505af11580156112ec573d6000803e3d6000fd5b5050505080826112fc91906130ef565b8460ff163373ffffffffffffffffffffffffffffffffffffffff167f9abe6afca30e7673e8c923fe25a0263b60d2951081abd0160cd8451576f94ec960405160405180910390a4808061134e906132d4565b91505061122a565b50505050565b60008054906101000a900473ffffffffffffffffffffffffffffffffffffffff1681565b60008054906101000a900473ffffffffffffffffffffffffffffffffffffffff1673ffffffffffffffffffffffffffffffffffffffff163373ffffffffffffffffffffffffffffffffffffffff161461140e576040517f08c379a00000000000000000000000000000000000000000000000000000000081526004016114059061338e565b60405180910390fd5b600073ffffffffffffffffffffffffffffffffffffffff168173ffffffffffffffffffffffffffffffffffffffff160361147d576040517f08c379a000000000000000000000000000000000000000000000000000000000815260040161147490613a86565b60405180910390fd5b806000806101000a81548173ffffffffffffffffffffffffffffffffffffffff021916908373ffffffffffffffffffffffffffffffffffffffff1602179055508073ffffffffffffffffffffffffffffffffffffffff163373ffffffffffffffffffffffffffffffffffffffff167f9aecf86140d81442289f667eb72e1202a8fbb3478a686659952e145e8531965660405160405180910390a350565b60006001905042600360008360ff1660ff16815260200190815260200160002060020154111561157f576040517f08c379a000000000000000000000000000000000000000000000000000000000815260040161157690613b18565b60405180910390fd5b42600360008360ff1660ff1681526020019081526020016000206003015410156115de576040517f08c379a00000000000000000000000000000000000000000000000000000000081526004016115d590613b84565b60405180910390fd5b60011515600460008360ff1660ff16815260200190815260200160002060003373ffffffffffffffffffffffffffffffffffffffff1673ffffffffffffffffffffffffffffffffffffffff16815260200190815260200160002060009054906101000a900460ff16151514611688576040517f08c379a000000000000000000000000000000000000000000000000000000000815260040161167f90613c16565b60405180910390fd5b6000600360008360ff1660ff16815260200190815260200160002060040154346116b2919061302c565b9050806000106116f7576040517f08c379a00000000000000000000000000000000000000000000000000000000081526004016116ee90613ca8565b60405180910390fd5b80600660008460ff1660ff16815260200190815260200160002060003373ffffffffffffffffffffffffffffffffffffffff1673ffffffffffffffffffffffffffffffffffffffff168152602001908152602001600020600082825461175d91906130ef565b92505081905550600360008360ff1660ff16815260200190815260200160002060050154600660008460ff1660ff16815260200190815260200160002060003373ffffffffffffffffffffffffffffffffffffffff1673ffffffffffffffffffffffffffffffffffffffff168152602001908152602001600020541115611819576040517f08c379a000000000000000000000000000000000000000000000000000000000815260040161181090613d3a565b60405180910390fd5b6000600560008460ff1660ff16815260200190815260200160002054905081600560008560ff1660ff168152602001908152602001600020600082825461186091906130ef565b92505081905550600360008460ff1660ff168152602001908152602001600020600101546001600560008660ff1660ff168152602001908152602001600020546118aa91906131d7565b11156118eb576040517f08c379a00000000000000000000000000000000000000000000000000000000081526004016118e290613dcc565b60405180910390fd5b60005b82811015611a1a57600160009054906101000a900473ffffffffffffffffffffffffffffffffffffffff1673ffffffffffffffffffffffffffffffffffffffff166342842e0e600260009054906101000a900473ffffffffffffffffffffffffffffffffffffffff1633848661196491906130ef565b6040518463ffffffff1660e01b81526004016119829392919061329d565b600060405180830381600087803b15801561199c57600080fd5b505af11580156119b0573d6000803e3d6000fd5b5050505080826119c091906130ef565b8460ff163373ffffffffffffffffffffffffffffffffffffffff167f9abe6afca30e7673e8c923fe25a0263b60d2951081abd0160cd8451576f94ec960405160405180910390a48080611a12906132d4565b9150506118ee565b50505050565b60008054906101000a900473ffffffffffffffffffffffffffffffffffffffff1673ffffffffffffffffffffffffffffffffffffffff163373ffffffffffffffffffffffffffffffffffffffff1614611aae576040517f08c379a0000000000000000000000000000000000000000000000000000000008152600401611aa59061338e565b60405180910390fd5b60008260ff1611611af4576040517f08c379a0000000000000000000000000000000000000000000000000000000008152600401611aeb90613e5e565b60405180910390fd5b60078260ff1610611b3a576040517f08c379a0000000000000000000000000000000000000000000000000000000008152600401611b3190613ef0565b60405180910390fd5b8051600010611b7e576040517f08c379a0000000000000000000000000000000000000000000000000000000008152600401611b7590613f82565b60405180910390fd5b60008151905060005b81811015611c2b576001600460008660ff1660ff1681526020019081526020016000206000858481518110611bbf57611bbe613fa2565b5b602002602001015173ffffffffffffffffffffffffffffffffffffffff1673ffffffffffffffffffffffffffffffffffffffff16815260200190815260200160002060006101000a81548160ff0219169083151502179055508080611c23906132d4565b915050611b87565b50505050565b60006002905042600360008360ff1660ff168152602001908152602001600020600201541115611c96576040517f08c379a0000000000000000000000000000000000000000000000000000000008152600401611c8d90614043565b60405180910390fd5b42600360008360ff1660ff168152602001908152602001600020600301541015611cf5576040517f08c379a0000000000000000000000000000000000000000000000000000000008152600401611cec906140af565b60405180910390fd5b60011515600460008360ff1660ff16815260200190815260200160002060003373ffffffffffffffffffffffffffffffffffffffff1673ffffffffffffffffffffffffffffffffffffffff16815260200190815260200160002060009054906101000a900460ff16151514611d9f576040517f08c379a0000000000000000000000000000000000000000000000000000000008152600401611d9690614141565b60405180910390fd5b6000600360008360ff1660ff1681526020019081526020016000206004015434611dc9919061302c565b905080600010611e0e576040517f08c379a0000000000000000000000000000000000000000000000000000000008152600401611e05906141d3565b60405180910390fd5b80600660008460ff1660ff16815260200190815260200160002060003373ffffffffffffffffffffffffffffffffffffffff1673ffffffffffffffffffffffffffffffffffffffff1681526020019081526020016000206000828254611e7491906130ef565b92505081905550600360008360ff1660ff16815260200190815260200160002060050154600660008460ff1660ff16815260200190815260200160002060003373ffffffffffffffffffffffffffffffffffffffff1673ffffffffffffffffffffffffffffffffffffffff168152602001908152602001600020541115611f30576040517f08c379a0000000000000000000000000000000000000000000000000000000008152600401611f2790614265565b60405180910390fd5b6000600560008460ff1660ff16815260200190815260200160002054905081600560008560ff1660ff1681526020019081526020016000206000828254611f7791906130ef565b92505081905550600360008460ff1660ff168152602001908152602001600020600101546001600560008660ff1660ff16815260200190815260200160002054611fc191906131d7565b1115612002576040517f08c379a0000000000000000000000000000000000000000000000000000000008152600401611ff9906142f7565b60405180910390fd5b60005b8281101561213157600160009054906101000a900473ffffffffffffffffffffffffffffffffffffffff1673ffffffffffffffffffffffffffffffffffffffff166342842e0e600260009054906101000a900473ffffffffffffffffffffffffffffffffffffffff1633848661207b91906130ef565b6040518463ffffffff1660e01b81526004016120999392919061329d565b600060405180830381600087803b1580156120b357600080fd5b505af11580156120c7573d6000803e3d6000fd5b5050505080826120d791906130ef565b8460ff163373ffffffffffffffffffffffffffffffffffffffff167f9abe6afca30e7673e8c923fe25a0263b60d2951081abd0160cd8451576f94ec960405160405180910390a48080612129906132d4565b915050612005565b50505050565b60008054906101000a900473ffffffffffffffffffffffffffffffffffffffff1673ffffffffffffffffffffffffffffffffffffffff163373ffffffffffffffffffffffffffffffffffffffff16146121c5576040517f08c379a00000000000000000000000000000000000000000000000000000000081526004016121bc9061338e565b60405180910390fd5b60008760ff161161220b576040517f08c379a000000000000000000000000000000000000000000000000000000000815260040161220290614389565b60405180910390fd5b60078760ff1610612251576040517f08c379a00000000000000000000000000000000000000000000000000000000081526004016122489061441b565b60405180910390fd5b428311612293576040517f08c379a000000000000000000000000000000000000000000000000000000000815260040161228a906144ad565b60405180910390fd5b8383116122d5576040517f08c379a00000000000000000000000000000000000000000000000000000000081526004016122cc9061453f565b60405180910390fd5b600360008860ff1660ff16815260200190815260200160002060020154600014612334576040517f08c379a000000000000000000000000000000000000000000000000000000000815260040161232b906145d1565b60405180910390fd5b6000600360008960ff1660ff16815260200190815260200160002090508681600001819055508581600101819055508481600201819055508381600301819055508281600401819055508161ffff16816005018190555086600560008a60ff1660ff168152602001908152602001600020819055505050505050505050565b60006006905042600360008360ff1660ff168152602001908152602001600020600201541115612418576040517f08c379a000000000000000000000000000000000000000000000000000000000815260040161240f90614663565b60405180910390fd5b42600360008360ff1660ff168152602001908152602001600020600301541015612477576040517f08c379a000000000000000000000000000000000000000000000000000000000815260040161246e906146cf565b60405180910390fd5b60011515600460008360ff1660ff16815260200190815260200160002060003373ffffffffffffffffffffffffffffffffffffffff1673ffffffffffffffffffffffffffffffffffffffff16815260200190815260200160002060009054906101000a900460ff16151514612521576040517f08c379a000000000000000000000000000000000000000000000000000000000815260040161251890614761565b60405180910390fd5b6000600360008360ff1660ff168152602001908152602001600020600401543461254b919061302c565b905080600010612590576040517f08c379a0000000000000000000000000000000000000000000000000000000008152600401612587906147f3565b60405180910390fd5b80600660008460ff1660ff16815260200190815260200160002060003373ffffffffffffffffffffffffffffffffffffffff1673ffffffffffffffffffffffffffffffffffffffff16815260200190815260200160002060008282546125f691906130ef565b92505081905550600360008360ff1660ff16815260200190815260200160002060050154600660008460ff1660ff16815260200190815260200160002060003373ffffffffffffffffffffffffffffffffffffffff1673ffffffffffffffffffffffffffffffffffffffff1681526020019081526020016000205411156126b2576040517f08c379a00000000000000000000000000000000000000000000000000000000081526004016126a990614885565b60405180910390fd5b6000600560008460ff1660ff16815260200190815260200160002054905081600560008560ff1660ff16815260200190815260200160002060008282546126f991906130ef565b92505081905550600360008460ff1660ff168152602001908152602001600020600101546001600560008660ff1660ff1681526020019081526020016000205461274391906131d7565b1115612784576040517f08c379a000000000000000000000000000000000000000000000000000000000815260040161277b90614917565b60405180910390fd5b60005b828110156128b357600160009054906101000a900473ffffffffffffffffffffffffffffffffffffffff1673ffffffffffffffffffffffffffffffffffffffff166342842e0e600260009054906101000a900473ffffffffffffffffffffffffffffffffffffffff163384866127fd91906130ef565b6040518463ffffffff1660e01b815260040161281b9392919061329d565b600060405180830381600087803b15801561283557600080fd5b505af1158015612849573d6000803e3d6000fd5b50505050808261285991906130ef565b8460ff163373ffffffffffffffffffffffffffffffffffffffff167f9abe6afca30e7673e8c923fe25a0263b60d2951081abd0160cd8451576f94ec960405160405180910390a480806128ab906132d4565b915050612787565b50505050565b6000604051905090565b600080fd5b600080fd5b600060ff82169050919050565b6128e3816128cd565b81146128ee57600080fd5b50565b600081359050612900816128da565b92915050565b600073ffffffffffffffffffffffffffffffffffffffff82169050919050565b600061293182612906565b9050919050565b61294181612926565b811461294c57600080fd5b50565b60008135905061295e81612938565b92915050565b6000806040838503121561297b5761297a6128c3565b5b6000612989858286016128f1565b925050602061299a8582860161294f565b9150509250929050565b60008115159050919050565b6129b9816129a4565b82525050565b60006020820190506129d460008301846129b0565b92915050565b6000602082840312156129f0576129ef6128c3565b5b60006129fe8482850161294f565b91505092915050565b6000819050919050565b6000612a2c612a27612a2284612906565b612a07565b612906565b9050919050565b6000612a3e82612a11565b9050919050565b6000612a5082612a33565b9050919050565b612a6081612a45565b82525050565b6000602082019050612a7b6000830184612a57565b92915050565b600060208284031215612a9757612a966128c3565b5b6000612aa5848285016128f1565b91505092915050565b6000819050919050565b612ac181612aae565b82525050565b600060c082019050612adc6000830189612ab8565b612ae96020830188612ab8565b612af66040830187612ab8565b612b036060830186612ab8565b612b106080830185612ab8565b612b1d60a0830184612ab8565b979650505050505050565b612b3181612926565b82525050565b6000602082019050612b4c6000830184612b28565b92915050565b6000602082019050612b676000830184612ab8565b92915050565b6000612b7882612906565b9050919050565b612b8881612b6d565b82525050565b6000602082019050612ba36000830184612b7f565b92915050565b612bb281612b6d565b8114612bbd57600080fd5b50565b600081359050612bcf81612ba9565b92915050565b600060208284031215612beb57612bea6128c3565b5b6000612bf984828501612bc0565b91505092915050565b600080fd5b6000601f19601f8301169050919050565b7f4e487b7100000000000000000000000000000000000000000000000000000000600052604160045260246000fd5b612c5082612c07565b810181811067ffffffffffffffff82111715612c6f57612c6e612c18565b5b80604052505050565b6000612c826128b9565b9050612c8e8282612c47565b919050565b600067ffffffffffffffff821115612cae57612cad612c18565b5b602082029050602081019050919050565b600080fd5b6000612cd7612cd284612c93565b612c78565b90508083825260208201905060208402830185811115612cfa57612cf9612cbf565b5b835b81811015612d235780612d0f888261294f565b845260208401935050602081019050612cfc565b5050509392505050565b600082601f830112612d4257612d41612c02565b5b8135612d52848260208601612cc4565b91505092915050565b60008060408385031215612d7257612d716128c3565b5b6000612d80858286016128f1565b925050602083013567ffffffffffffffff811115612da157612da06128c8565b5b612dad85828601612d2d565b9150509250929050565b612dc081612aae565b8114612dcb57600080fd5b50565b600081359050612ddd81612db7565b92915050565b600061ffff82169050919050565b612dfa81612de3565b8114612e0557600080fd5b50565b600081359050612e1781612df1565b92915050565b600080600080600080600060e0888a031215612e3c57612e3b6128c3565b5b6000612e4a8a828b016128f1565b9750506020612e5b8a828b01612dce565b9650506040612e6c8a828b01612dce565b9550506060612e7d8a828b01612dce565b9450506080612e8e8a828b01612dce565b93505060a0612e9f8a828b01612dce565b92505060c0612eb08a828b01612e08565b91505092959891949750929550565b600082825260208201905092915050565b7f5b544b4d496e6f415d5b73616c65345d3a2073616c65206973206e6f7420737460008201527f6172746564000000000000000000000000000000000000000000000000000000602082015250565b6000612f2c602583612ebf565b9150612f3782612ed0565b604082019050919050565b60006020820190508181036000830152612f5b81612f1f565b9050919050565b7f5b544b4d496e6f415d5b73616c65345d3a2073616c6520697320656e64656400600082015250565b6000612f98601f83612ebf565b9150612fa382612f62565b602082019050919050565b60006020820190508181036000830152612fc781612f8b565b9050919050565b7f4e487b7100000000000000000000000000000000000000000000000000000000600052601260045260246000fd5b7f4e487b7100000000000000000000000000000000000000000000000000000000600052601160045260246000fd5b600061303782612aae565b915061304283612aae565b92508261305257613051612fce565b5b828204905092915050565b7f5b544b4d496e6f415d5b73616c65345d3a20626f7820616d6f756e74206d757360008201527f742062652067726561746572207468616e207a65726f00000000000000000000602082015250565b60006130b9603683612ebf565b91506130c48261305d565b604082019050919050565b600060208201905081810360008301526130e8816130ac565b9050919050565b60006130fa82612aae565b915061310583612aae565b9250827fffffffffffffffffffffffffffffffffffffffffffffffffffffffffffffffff0382111561313a57613139612ffd565b5b828201905092915050565b7f5b544b4d496e6f415d5b73616c65345d3a206578636565646564206e756d626560008201527f72206f6620626f786573207075726368617361626c6500000000000000000000602082015250565b60006131a1603683612ebf565b91506131ac82613145565b604082019050919050565b600060208201905081810360008301526131d081613194565b9050919050565b60006131e282612aae565b91506131ed83612aae565b925082821015613200576131ff612ffd565b5b828203905092915050565b7f5b544b4d496e6f415d5b73616c65345d3a204e6f7420656e6f75676820626f7860008201527f657320617265206c656674000000000000000000000000000000000000000000602082015250565b6000613267602b83612ebf565b91506132728261320b565b604082019050919050565b600060208201905081810360008301526132968161325a565b9050919050565b60006060820190506132b26000830186612b28565b6132bf6020830185612b28565b6132cc6040830184612ab8565b949350505050565b60006132df82612aae565b91507fffffffffffffffffffffffffffffffffffffffffffffffffffffffffffffffff820361331157613310612ffd565b5b600182019050919050565b7f4f6e6c792074686520636f6e7472616374206f776e65722063616e2063616c6c60008201527f20746869732066756e6374696f6e000000000000000000000000000000000000602082015250565b6000613378602e83612ebf565b91506133838261331c565b604082019050919050565b600060208201905081810360008301526133a78161336b565b9050919050565b7f5b544b4d496e6f415d5b77697468647261774574685d3a207472616e7366657260008201527f20746f20746865207a65726f2061646472657373000000000000000000000000602082015250565b600061340a603483612ebf565b9150613415826133ae565b604082019050919050565b60006020820190508181036000830152613439816133fd565b9050919050565b7f5b544b4d496e6f415d5b73616c65355d3a2073616c65206973206e6f7420737460008201527f6172746564000000000000000000000000000000000000000000000000000000602082015250565b600061349c602583612ebf565b91506134a782613440565b604082019050919050565b600060208201905081810360008301526134cb8161348f565b9050919050565b7f5b544b4d496e6f415d5b73616c65355d3a2073616c6520697320656e64656400600082015250565b6000613508601f83612ebf565b9150613513826134d2565b602082019050919050565b60006020820190508181036000830152613537816134fb565b9050919050565b7f5b544b4d496e6f415d5b73616c65355d3a206e6f7420696e2077686974656c6960008201527f7374000000000000000000000000000000000000000000000000000000000000602082015250565b600061359a602283612ebf565b91506135a58261353e565b604082019050919050565b600060208201905081810360008301526135c98161358d565b9050919050565b7f5b544b4d496e6f415d5b73616c65355d3a20626f7820616d6f756e74206d757360008201527f742062652067726561746572207468616e207a65726f00000000000000000000602082015250565b600061362c603683612ebf565b9150613637826135d0565b604082019050919050565b6000602082019050818103600083015261365b8161361f565b9050919050565b7f5b544b4d496e6f415d5b73616c65355d3a206578636565646564206e756d626560008201527f72206f6620626f786573207075726368617361626c6500000000000000000000602082015250565b60006136be603683612ebf565b91506136c982613662565b604082019050919050565b600060208201905081810360008301526136ed816136b1565b9050919050565b7f5b544b4d496e6f415d5b73616c65355d3a204e6f7420656e6f75676820626f7860008201527f657320617265206c656674000000000000000000000000000000000000000000602082015250565b6000613750602b83612ebf565b915061375b826136f4565b604082019050919050565b6000602082019050818103600083015261377f81613743565b9050919050565b7f5b544b4d496e6f415d5b73616c65335d3a2073616c65206973206e6f7420737460008201527f6172746564000000000000000000000000000000000000000000000000000000602082015250565b60006137e2602583612ebf565b91506137ed82613786565b604082019050919050565b60006020820190508181036000830152613811816137d5565b9050919050565b7f5b544b4d496e6f415d5b73616c65335d3a2073616c6520697320656e64656400600082015250565b600061384e601f83612ebf565b915061385982613818565b602082019050919050565b6000602082019050818103600083015261387d81613841565b9050919050565b7f5b544b4d496e6f415d5b73616c65335d3a20626f7820616d6f756e74206d757360008201527f742062652067726561746572207468616e207a65726f00000000000000000000602082015250565b60006138e0603683612ebf565b91506138eb82613884565b604082019050919050565b6000602082019050818103600083015261390f816138d3565b9050919050565b7f5b544b4d496e6f415d5b73616c65335d3a206578636565646564206e756d626560008201527f72206f6620626f786573207075726368617361626c6500000000000000000000602082015250565b6000613972603683612ebf565b915061397d82613916565b604082019050919050565b600060208201905081810360008301526139a181613965565b9050919050565b7f5b544b4d496e6f415d5b73616c65335d3a204e6f7420656e6f75676820626f7860008201527f657320617265206c656674000000000000000000000000000000000000000000602082015250565b6000613a04602b83612ebf565b9150613a0f826139a8565b604082019050919050565b60006020820190508181036000830152613a33816139f7565b9050919050565b7f6e6f74207a65726f206164647265737320666f72206e6577206f776e65720000600082015250565b6000613a70601e83612ebf565b9150613a7b82613a3a565b602082019050919050565b60006020820190508181036000830152613a9f81613a63565b9050919050565b7f5b544b4d496e6f415d5b73616c65315d3a2073616c65206973206e6f7420737460008201527f6172746564000000000000000000000000000000000000000000000000000000602082015250565b6000613b02602583612ebf565b9150613b0d82613aa6565b604082019050919050565b60006020820190508181036000830152613b3181613af5565b9050919050565b7f5b544b4d496e6f415d5b73616c65315d3a2073616c6520697320656e64656400600082015250565b6000613b6e601f83612ebf565b9150613b7982613b38565b602082019050919050565b60006020820190508181036000830152613b9d81613b61565b9050919050565b7f5b544b4d496e6f415d5b73616c65315d3a206e6f7420696e2077686974656c6960008201527f7374000000000000000000000000000000000000000000000000000000000000602082015250565b6000613c00602283612ebf565b9150613c0b82613ba4565b604082019050919050565b60006020820190508181036000830152613c2f81613bf3565b9050919050565b7f5b544b4d496e6f415d5b73616c65315d3a20626f7820616d6f756e74206d757360008201527f742062652067726561746572207468616e207a65726f00000000000000000000602082015250565b6000613c92603683612ebf565b9150613c9d82613c36565b604082019050919050565b60006020820190508181036000830152613cc181613c85565b9050919050565b7f5b544b4d496e6f415d5b73616c65315d3a206578636565646564206e756d626560008201527f72206f6620626f786573207075726368617361626c6500000000000000000000602082015250565b6000613d24603683612ebf565b9150613d2f82613cc8565b604082019050919050565b60006020820190508181036000830152613d5381613d17565b9050919050565b7f5b544b4d496e6f415d5b73616c65315d3a204e6f7420656e6f75676820626f7860008201527f657320617265206c656674000000000000000000000000000000000000000000602082015250565b6000613db6602b83612ebf565b9150613dc182613d5a565b604082019050919050565b60006020820190508181036000830152613de581613da9565b9050919050565b7f5b544b4d496e6f415d5b61646457686974654c6973745d3a206f72646572206d60008201527f7573742062652067726561746572207468616e207a65726f0000000000000000602082015250565b6000613e48603883612ebf565b9150613e5382613dec565b604082019050919050565b60006020820190508181036000830152613e7781613e3b565b9050919050565b7f5b544b4d496e6f415d5b61646457686974654c6973745d3a206f72646572206d60008201527f757374206265206c657373207468616e20736576656e00000000000000000000602082015250565b6000613eda603683612ebf565b9150613ee582613e7e565b604082019050919050565b60006020820190508181036000830152613f0981613ecd565b9050919050565b7f5b544b4d496e6f415d5b61646457686974654c6973745d3a206164647265737360008201527f206d7573742062652067726561746572207468616e207a65726f000000000000602082015250565b6000613f6c603a83612ebf565b9150613f7782613f10565b604082019050919050565b60006020820190508181036000830152613f9b81613f5f565b9050919050565b7f4e487b7100000000000000000000000000000000000000000000000000000000600052603260045260246000fd5b7f5b544b4d496e6f415d5b73616c65325d3a2073616c65206973206e6f7420737460008201527f6172746564000000000000000000000000000000000000000000000000000000602082015250565b600061402d602583612ebf565b915061403882613fd1565b604082019050919050565b6000602082019050818103600083015261405c81614020565b9050919050565b7f5b544b4d496e6f415d5b73616c65325d3a2073616c6520697320656e64656400600082015250565b6000614099601f83612ebf565b91506140a482614063565b602082019050919050565b600060208201905081810360008301526140c88161408c565b9050919050565b7f5b544b4d496e6f415d5b73616c65325d3a206e6f7420696e2077686974656c6960008201527f7374000000000000000000000000000000000000000000000000000000000000602082015250565b600061412b602283612ebf565b9150614136826140cf565b604082019050919050565b6000602082019050818103600083015261415a8161411e565b9050919050565b7f5b544b4d496e6f415d5b73616c65325d3a20626f7820616d6f756e74206d757360008201527f742062652067726561746572207468616e207a65726f00000000000000000000602082015250565b60006141bd603683612ebf565b91506141c882614161565b604082019050919050565b600060208201905081810360008301526141ec816141b0565b9050919050565b7f5b544b4d496e6f415d5b73616c65325d3a206578636565646564206e756d626560008201527f72206f6620626f786573207075726368617361626c6500000000000000000000602082015250565b600061424f603683612ebf565b915061425a826141f3565b604082019050919050565b6000602082019050818103600083015261427e81614242565b9050919050565b7f5b544b4d496e6f415d5b73616c65325d3a204e6f7420656e6f75676820626f7860008201527f657320617265206c656674000000000000000000000000000000000000000000602082015250565b60006142e1602b83612ebf565b91506142ec82614285565b604082019050919050565b60006020820190508181036000830152614310816142d4565b9050919050565b7f5b544b4d496e6f415d5b73657453616c654f726465725d3a206f72646572206d60008201527f7573742062652067726561746572207468616e207a65726f0000000000000000602082015250565b6000614373603883612ebf565b915061437e82614317565b604082019050919050565b600060208201905081810360008301526143a281614366565b9050919050565b7f5b544b4d496e6f415d5b73657453616c654f726465725d3a206f72646572206d60008201527f757374206265206c657373207468616e20736576656e00000000000000000000602082015250565b6000614405603683612ebf565b9150614410826143a9565b604082019050919050565b60006020820190508181036000830152614434816143f8565b9050919050565b7f5b544b4d496e6f415d5b73657453616c654f726465725d3a205f656e6454696d60008201527f6520697320756e646572206e6f77000000000000000000000000000000000000602082015250565b6000614497602e83612ebf565b91506144a28261443b565b604082019050919050565b600060208201905081810360008301526144c68161448a565b9050919050565b7f5b544b4d496e6f415d5b73657453616c654f726465725d3a205f656e6454696d60008201527f6520697320756e646572205f737461727454696d650000000000000000000000602082015250565b6000614529603583612ebf565b9150614534826144cd565b604082019050919050565b600060208201905081810360008301526145588161451c565b9050919050565b7f5b544b4d496e6f415d5b73657453616c654f726465725d3a2074686973206f7260008201527f64657220616c7265616479207365740000000000000000000000000000000000602082015250565b60006145bb602f83612ebf565b91506145c68261455f565b604082019050919050565b600060208201905081810360008301526145ea816145ae565b9050919050565b7f5b544b4d496e6f415d5b73616c65365d3a2073616c65206973206e6f7420737460008201527f6172746564000000000000000000000000000000000000000000000000000000602082015250565b600061464d602583612ebf565b9150614658826145f1565b604082019050919050565b6000602082019050818103600083015261467c81614640565b9050919050565b7f5b544b4d496e6f415d5b73616c65365d3a2073616c6520697320656e64656400600082015250565b60006146b9601f83612ebf565b91506146c482614683565b602082019050919050565b600060208201905081810360008301526146e8816146ac565b9050919050565b7f5b544b4d496e6f415d5b73616c65365d3a206e6f7420696e2077686974656c6960008201527f7374000000000000000000000000000000000000000000000000000000000000602082015250565b600061474b602283612ebf565b9150614756826146ef565b604082019050919050565b6000602082019050818103600083015261477a8161473e565b9050919050565b7f5b544b4d496e6f415d5b73616c65365d3a20626f7820616d6f756e74206d757360008201527f742062652067726561746572207468616e207a65726f00000000000000000000602082015250565b60006147dd603683612ebf565b91506147e882614781565b604082019050919050565b6000602082019050818103600083015261480c816147d0565b9050919050565b7f5b544b4d496e6f415d5b73616c65365d3a206578636565646564206e756d626560008201527f72206f6620626f786573207075726368617361626c6500000000000000000000602082015250565b600061486f603683612ebf565b915061487a82614813565b604082019050919050565b6000602082019050818103600083015261489e81614862565b9050919050565b7f5b544b4d496e6f415d5b73616c65365d3a204e6f7420656e6f75676820626f7860008201527f657320617265206c656674000000000000000000000000000000000000000000602082015250565b6000614901602b83612ebf565b915061490c826148a5565b604082019050919050565b60006020820190508181036000830152614930816148f4565b905091905056fea26469706673582212206c7b3380a3d782d76b8570241c0b407766ed805b9684a0a3fdefe6377d9ba8aa64736f6c634300080e0033",
  "immutableReferences": {},
  "source": "// SPDX-License-Identifier: MIT\r\npragma solidity ^0.8.14;\r\n\r\nimport \"@openzeppelin/contracts/token/ERC721/ERC721.sol\";\r\nimport \"./Owner.sol\";\r\n\r\ncontract TKMInoA is Owner {\r\n    ERC721 public TKMBox;\r\n    address public Operator; //    \r\n\r\n    //  , NFT ID\r\n    event Sale(address indexed from, uint8 indexed order, uint256 indexed boxId);\r\n\r\n    /////////////////////////////////////////////////////\r\n    // Box Sale\r\n    // box sale \r\n    struct saleOrder {\r\n        uint256 startBoxId; //   \r\n        uint256 endBoxId; //   \r\n        uint256 startTime; //  \r\n        uint256 endTime; //  \r\n        uint256 price; //  (klay)\r\n        uint256 limitPerUser; //        \r\n    }\r\n    // 1~6 => Box Sale \r\n    mapping(uint8 => saleOrder) public saleOrders;\r\n    \r\n    //  \r\n    mapping(uint8 => mapping(address => bool)) public whiteLists;\r\n\r\n    //   NFT ID\r\n    mapping(uint8 => uint256) public currentNftIds;\r\n    \r\n    // -   \r\n    mapping(uint8 => mapping(address => uint256)) public boxPerUser;\r\n\r\n    constructor(address _TKMBox, address _Operator) {\r\n        TKMBox = ERC721(payable(_TKMBox));\r\n        Operator = _Operator;\r\n    }\r\n\r\n    // sale  \r\n    function setSaleOrder(\r\n        uint8 _order,\r\n        uint256 _startBoxId,\r\n        uint256 _endBoxId,\r\n        uint256 _startTime,\r\n        uint256 _endTime,\r\n        uint256 _price,\r\n        uint16 _limitPerUser\r\n    ) public onlyOwner {\r\n        require(_order > 0, \"[TKMInoA][setSaleOrder]: order must be greater than zero\");\r\n        require(_order < 7, \"[TKMInoA][setSaleOrder]: order must be less than seven\");\r\n\r\n        require(_endTime > block.timestamp, \"[TKMInoA][setSaleOrder]: _endTime is under now\");\r\n        require(_endTime > _startTime, \"[TKMInoA][setSaleOrder]: _endTime is under _startTime\");\r\n        \r\n        require(0 == saleOrders[_order].startTime, \"[TKMInoA][setSaleOrder]: this order already set\");\r\n\r\n        saleOrder storage newOrder = saleOrders[_order];\r\n        newOrder.startBoxId = _startBoxId;\r\n        newOrder.endBoxId = _endBoxId;\r\n        newOrder.startTime = _startTime;\r\n        newOrder.endTime = _endTime;\r\n        newOrder.price = _price;\r\n        newOrder.limitPerUser = _limitPerUser;\r\n\r\n        currentNftIds[_order] = _startBoxId;\r\n    }\r\n\r\n    //  whitelist \r\n    function addWhiteList(uint8 _order, address[] memory _addresses) public onlyOwner {\r\n        require(_order > 0, \"[TKMInoA][addWhiteList]: order must be greater than zero\");\r\n        require(_order < 7, \"[TKMInoA][addWhiteList]: order must be less than seven\");\r\n        \r\n        require(0 < _addresses.length, \"[TKMInoA][addWhiteList]: address must be greater than zero\");\r\n\r\n        uint256 length = _addresses.length;\r\n        for (uint256 i = 0; i < length; i++) {\r\n            whiteLists[_order][_addresses[i]] = true;\r\n        }\r\n    }\r\n\r\n    // Whitelist 1st minting\r\n    function sale1() public payable {\r\n        uint8 order = 1;\r\n        //  \r\n        require(saleOrders[order].startTime <= block.timestamp, \"[TKMInoA][sale1]: sale is not started\");\r\n        require(saleOrders[order].endTime >= block.timestamp, \"[TKMInoA][sale1]: sale is ended\");\r\n\r\n        // whitelist  \r\n        require(whiteLists[order][msg.sender] == true, \"[TKMInoA][sale1]: not in whitelist\");\r\n\r\n        // msg.value   \r\n        uint256 boxAmount = msg.value / saleOrders[order].price;\r\n        require(0 < boxAmount, \"[TKMInoA][sale1]: box amount must be greater than zero\");\r\n        \r\n        //     \r\n        boxPerUser[order][msg.sender] += boxAmount;\r\n        require(boxPerUser[order][msg.sender] <= saleOrders[order].limitPerUser, \"[TKMInoA][sale1]: exceeded number of boxes purchasable\");\r\n\r\n        //     \r\n        uint256 currentNftId = currentNftIds[order];\r\n        currentNftIds[order] += boxAmount;\r\n        require(currentNftIds[order] - 1 <= saleOrders[order].endBoxId, \"[TKMInoA][sale1]: Not enough boxes are left\");\r\n        \r\n        for (uint256 i = 0; i < boxAmount; i++) {\r\n            TKMBox.safeTransferFrom(Operator, msg.sender, currentNftId + i);\r\n            emit Sale(msg.sender, order, currentNftId + i);\r\n        }\r\n    }\r\n\r\n    // Whitelist 2st minting\r\n    function sale2() public payable {\r\n        uint8 order = 2;\r\n        //  \r\n        require(saleOrders[order].startTime <= block.timestamp, \"[TKMInoA][sale2]: sale is not started\");\r\n        require(saleOrders[order].endTime >= block.timestamp, \"[TKMInoA][sale2]: sale is ended\");\r\n\r\n        // whitelist  \r\n        require(whiteLists[order][msg.sender] == true, \"[TKMInoA][sale2]: not in whitelist\");\r\n\r\n        // msg.value   \r\n        uint256 boxAmount = msg.value / saleOrders[order].price;\r\n        require(0 < boxAmount, \"[TKMInoA][sale2]: box amount must be greater than zero\");\r\n        \r\n        //     \r\n        boxPerUser[order][msg.sender] += boxAmount;\r\n        require(boxPerUser[order][msg.sender] <= saleOrders[order].limitPerUser, \"[TKMInoA][sale2]: exceeded number of boxes purchasable\");\r\n\r\n        //     \r\n        uint256 currentNftId = currentNftIds[order];\r\n        currentNftIds[order] += boxAmount;\r\n        require(currentNftIds[order] - 1 <= saleOrders[order].endBoxId, \"[TKMInoA][sale2]: Not enough boxes are left\");\r\n        \r\n        for (uint256 i = 0; i < boxAmount; i++) {\r\n            TKMBox.safeTransferFrom(Operator, msg.sender, currentNftId + i);\r\n            emit Sale(msg.sender, order, currentNftId + i);\r\n        }\r\n    }\r\n\r\n    // Public 1st minting\r\n    function sale3() public payable {\r\n        uint8 order = 3;\r\n        //  \r\n        require(saleOrders[order].startTime <= block.timestamp, \"[TKMInoA][sale3]: sale is not started\");\r\n        require(saleOrders[order].endTime >= block.timestamp, \"[TKMInoA][sale3]: sale is ended\");\r\n\r\n        // msg.value   \r\n        uint256 boxAmount = msg.value / saleOrders[order].price;\r\n        require(0 < boxAmount, \"[TKMInoA][sale3]: box amount must be greater than zero\");\r\n        \r\n        //     \r\n        boxPerUser[order][msg.sender] += boxAmount;\r\n        require(boxPerUser[order][msg.sender] <= saleOrders[order].limitPerUser, \"[TKMInoA][sale3]: exceeded number of boxes purchasable\");\r\n\r\n        //     \r\n        uint256 currentNftId = currentNftIds[order];\r\n        currentNftIds[order] += boxAmount;\r\n        require(currentNftIds[order] - 1 <= saleOrders[order].endBoxId, \"[TKMInoA][sale3]: Not enough boxes are left\");\r\n        \r\n        for (uint256 i = 0; i < boxAmount; i++) {\r\n            TKMBox.safeTransferFrom(Operator, msg.sender, currentNftId + i);\r\n            emit Sale(msg.sender, order, currentNftId + i);\r\n        }\r\n    }\r\n\r\n    // Public 2st minting\r\n    function sale4() public payable {\r\n        uint8 order = 4;\r\n        //  \r\n        require(saleOrders[order].startTime <= block.timestamp, \"[TKMInoA][sale4]: sale is not started\");\r\n        require(saleOrders[order].endTime >= block.timestamp, \"[TKMInoA][sale4]: sale is ended\");\r\n\r\n        // msg.value   \r\n        uint256 boxAmount = msg.value / saleOrders[order].price;\r\n        require(0 < boxAmount, \"[TKMInoA][sale4]: box amount must be greater than zero\");\r\n        \r\n        //     \r\n        boxPerUser[order][msg.sender] += boxAmount;\r\n        require(boxPerUser[order][msg.sender] <= saleOrders[order].limitPerUser, \"[TKMInoA][sale4]: exceeded number of boxes purchasable\");\r\n\r\n        //     \r\n        uint256 currentNftId = currentNftIds[order];\r\n        currentNftIds[order] += boxAmount;\r\n        require(currentNftIds[order] - 1 <= saleOrders[order].endBoxId, \"[TKMInoA][sale4]: Not enough boxes are left\");\r\n        \r\n        for (uint256 i = 0; i < boxAmount; i++) {\r\n            TKMBox.safeTransferFrom(Operator, msg.sender, currentNftId + i);\r\n            emit Sale(msg.sender, order, currentNftId + i);\r\n        }\r\n    }\r\n\r\n    // OG minting\r\n    function sale5() public payable {\r\n        uint8 order = 5;\r\n        //  \r\n        require(saleOrders[order].startTime <= block.timestamp, \"[TKMInoA][sale5]: sale is not started\");\r\n        require(saleOrders[order].endTime >= block.timestamp, \"[TKMInoA][sale5]: sale is ended\");\r\n\r\n        // whitelist  \r\n        require(whiteLists[order][msg.sender] == true, \"[TKMInoA][sale5]: not in whitelist\");\r\n\r\n        // msg.value   \r\n        uint256 boxAmount = msg.value / saleOrders[order].price;\r\n        require(0 < boxAmount, \"[TKMInoA][sale5]: box amount must be greater than zero\");\r\n        \r\n        //     \r\n        boxPerUser[order][msg.sender] += boxAmount;\r\n        require(boxPerUser[order][msg.sender] <= saleOrders[order].limitPerUser, \"[TKMInoA][sale5]: exceeded number of boxes purchasable\");\r\n\r\n        //     \r\n        uint256 currentNftId = currentNftIds[order];\r\n        currentNftIds[order] += boxAmount;\r\n        require(currentNftIds[order] - 1 <= saleOrders[order].endBoxId, \"[TKMInoA][sale5]: Not enough boxes are left\");\r\n        \r\n        for (uint256 i = 0; i < boxAmount; i++) {\r\n            TKMBox.safeTransferFrom(Operator, msg.sender, currentNftId + i);\r\n            emit Sale(msg.sender, order, currentNftId + i);\r\n        }\r\n    }\r\n\r\n    // Guild minting\r\n    function sale6() public payable {\r\n        uint8 order = 6;\r\n        //  \r\n        require(saleOrders[order].startTime <= block.timestamp, \"[TKMInoA][sale6]: sale is not started\");\r\n        require(saleOrders[order].endTime >= block.timestamp, \"[TKMInoA][sale6]: sale is ended\");\r\n\r\n        // whitelist  \r\n        require(whiteLists[order][msg.sender] == true, \"[TKMInoA][sale6]: not in whitelist\");\r\n\r\n        // msg.value   \r\n        uint256 boxAmount = msg.value / saleOrders[order].price;\r\n        require(0 < boxAmount, \"[TKMInoA][sale6]: box amount must be greater than zero\");\r\n        \r\n        //     \r\n        boxPerUser[order][msg.sender] += boxAmount;\r\n        require(boxPerUser[order][msg.sender] <= saleOrders[order].limitPerUser, \"[TKMInoA][sale6]: exceeded number of boxes purchasable\");\r\n\r\n        //     \r\n        uint256 currentNftId = currentNftIds[order];\r\n        currentNftIds[order] += boxAmount;\r\n        require(currentNftIds[order] - 1 <= saleOrders[order].endBoxId, \"[TKMInoA][sale6]: Not enough boxes are left\");\r\n        \r\n        for (uint256 i = 0; i < boxAmount; i++) {\r\n            TKMBox.safeTransferFrom(Operator, msg.sender, currentNftId + i);\r\n            emit Sale(msg.sender, order, currentNftId + i);\r\n        }\r\n    }\r\n\r\n    // ico        \r\n    function withdrawEth(address to) public onlyOwner {\r\n        require(to != address(0), \"[TKMInoA][withdrawEth]: transfer to the zero address\");\r\n        //       \r\n        address payable receiver = payable(to);\r\n        receiver.transfer(address(this).balance);\r\n    }\r\n}\r\n",
  "sourcePath": "C:\\Works\\1_Github\\solidity_tinyping\\contracts\\TKMInoA.sol",
  "compiler": {
    "name": "solc",
    "version": "0.8.14+commit.80d49f37.Emscripten.clang"
  },
  "schemaVersion": "3.4.7",
  "updatedAt": "2022-09-14T06:40:37.484Z",
  "networkType": "ethereum",
  "devdoc": {
    "kind": "dev",
    "methods": {},
    "version": 1
  },
  "userdoc": {
    "kind": "user",
    "methods": {},
    "version": 1
  }
}