{
  "contractName": "TKMStaking3A",
  "abi": [
    {
      "inputs": [
        {
          "internalType": "address",
          "name": "_TKMToken",
          "type": "address"
        },
        {
          "internalType": "address",
          "name": "_TokenHolder",
          "type": "address"
        }
      ],
      "stateMutability": "nonpayable",
      "type": "constructor"
    },
    {
      "anonymous": false,
      "inputs": [
        {
          "indexed": true,
          "internalType": "address",
          "name": "previousOwner",
          "type": "address"
        },
        {
          "indexed": true,
          "internalType": "address",
          "name": "newOwner",
          "type": "address"
        }
      ],
      "name": "OwnershipTransferred",
      "type": "event"
    },
    {
      "anonymous": false,
      "inputs": [
        {
          "indexed": false,
          "internalType": "address",
          "name": "account",
          "type": "address"
        }
      ],
      "name": "Paused",
      "type": "event"
    },
    {
      "anonymous": false,
      "inputs": [
        {
          "indexed": true,
          "internalType": "address",
          "name": "from",
          "type": "address"
        },
        {
          "indexed": false,
          "internalType": "uint256",
          "name": "blockNumber",
          "type": "uint256"
        },
        {
          "indexed": false,
          "internalType": "uint256",
          "name": "stakeId",
          "type": "uint256"
        },
        {
          "indexed": false,
          "internalType": "uint256",
          "name": "stakingIdx",
          "type": "uint256"
        },
        {
          "indexed": false,
          "internalType": "uint256",
          "name": "amount",
          "type": "uint256"
        },
        {
          "indexed": false,
          "internalType": "uint256",
          "name": "releaseTime",
          "type": "uint256"
        }
      ],
      "name": "Stake",
      "type": "event"
    },
    {
      "anonymous": false,
      "inputs": [
        {
          "indexed": false,
          "internalType": "address",
          "name": "account",
          "type": "address"
        }
      ],
      "name": "Unpaused",
      "type": "event"
    },
    {
      "anonymous": false,
      "inputs": [
        {
          "indexed": true,
          "internalType": "address",
          "name": "from",
          "type": "address"
        },
        {
          "indexed": false,
          "internalType": "uint256",
          "name": "blockNumber",
          "type": "uint256"
        },
        {
          "indexed": false,
          "internalType": "uint256",
          "name": "stakeId",
          "type": "uint256"
        },
        {
          "indexed": false,
          "internalType": "uint256",
          "name": "stakingIdx",
          "type": "uint256"
        },
        {
          "indexed": false,
          "internalType": "uint256",
          "name": "rewardAmount",
          "type": "uint256"
        }
      ],
      "name": "Withdraw",
      "type": "event"
    },
    {
      "inputs": [],
      "name": "TKMToken",
      "outputs": [
        {
          "internalType": "contract ERC20",
          "name": "",
          "type": "address"
        }
      ],
      "stateMutability": "view",
      "type": "function",
      "constant": true
    },
    {
      "inputs": [],
      "name": "owner",
      "outputs": [
        {
          "internalType": "address",
          "name": "",
          "type": "address"
        }
      ],
      "stateMutability": "view",
      "type": "function",
      "constant": true
    },
    {
      "inputs": [],
      "name": "paused",
      "outputs": [
        {
          "internalType": "bool",
          "name": "",
          "type": "bool"
        }
      ],
      "stateMutability": "view",
      "type": "function",
      "constant": true
    },
    {
      "inputs": [
        {
          "internalType": "uint256",
          "name": "",
          "type": "uint256"
        }
      ],
      "name": "progressing",
      "outputs": [
        {
          "internalType": "address",
          "name": "user",
          "type": "address"
        },
        {
          "internalType": "uint256",
          "name": "stakeId",
          "type": "uint256"
        },
        {
          "internalType": "uint256",
          "name": "stakeAmount",
          "type": "uint256"
        },
        {
          "internalType": "uint256",
          "name": "rewardAmount",
          "type": "uint256"
        },
        {
          "internalType": "uint256",
          "name": "releaseTime",
          "type": "uint256"
        }
      ],
      "stateMutability": "view",
      "type": "function",
      "constant": true
    },
    {
      "inputs": [],
      "name": "renounceOwnership",
      "outputs": [],
      "stateMutability": "nonpayable",
      "type": "function"
    },
    {
      "inputs": [
        {
          "internalType": "uint256",
          "name": "",
          "type": "uint256"
        }
      ],
      "name": "stakeIds",
      "outputs": [
        {
          "internalType": "bool",
          "name": "",
          "type": "bool"
        }
      ],
      "stateMutability": "view",
      "type": "function",
      "constant": true
    },
    {
      "inputs": [],
      "name": "stakingIdx",
      "outputs": [
        {
          "internalType": "uint256",
          "name": "",
          "type": "uint256"
        }
      ],
      "stateMutability": "view",
      "type": "function",
      "constant": true
    },
    {
      "inputs": [
        {
          "internalType": "uint256",
          "name": "",
          "type": "uint256"
        }
      ],
      "name": "stakings",
      "outputs": [
        {
          "internalType": "uint256",
          "name": "startTime",
          "type": "uint256"
        },
        {
          "internalType": "uint256",
          "name": "endTime",
          "type": "uint256"
        },
        {
          "internalType": "uint256",
          "name": "minTokenAmount",
          "type": "uint256"
        },
        {
          "internalType": "uint256",
          "name": "curTokenAmount",
          "type": "uint256"
        },
        {
          "internalType": "uint256",
          "name": "maxTokenAmount",
          "type": "uint256"
        },
        {
          "internalType": "uint256",
          "name": "lockDurationSecond",
          "type": "uint256"
        },
        {
          "internalType": "uint256",
          "name": "rewardRate",
          "type": "uint256"
        }
      ],
      "stateMutability": "view",
      "type": "function",
      "constant": true
    },
    {
      "inputs": [],
      "name": "tokenHolder",
      "outputs": [
        {
          "internalType": "address",
          "name": "",
          "type": "address"
        }
      ],
      "stateMutability": "view",
      "type": "function",
      "constant": true
    },
    {
      "inputs": [
        {
          "internalType": "address",
          "name": "newOwner",
          "type": "address"
        }
      ],
      "name": "transferOwnership",
      "outputs": [],
      "stateMutability": "nonpayable",
      "type": "function"
    },
    {
      "inputs": [],
      "name": "pause",
      "outputs": [],
      "stateMutability": "nonpayable",
      "type": "function"
    },
    {
      "inputs": [],
      "name": "unpause",
      "outputs": [],
      "stateMutability": "nonpayable",
      "type": "function"
    },
    {
      "inputs": [
        {
          "internalType": "uint256",
          "name": "_stakeId",
          "type": "uint256"
        },
        {
          "internalType": "uint256",
          "name": "_startTime",
          "type": "uint256"
        },
        {
          "internalType": "uint256",
          "name": "_endTime",
          "type": "uint256"
        },
        {
          "internalType": "uint256",
          "name": "_minTokenAmount",
          "type": "uint256"
        },
        {
          "internalType": "uint256",
          "name": "_maxTokenAmount",
          "type": "uint256"
        },
        {
          "internalType": "uint256",
          "name": "_lockDurationSecond",
          "type": "uint256"
        },
        {
          "internalType": "uint256",
          "name": "_rewardRate",
          "type": "uint256"
        }
      ],
      "name": "setStaking",
      "outputs": [],
      "stateMutability": "nonpayable",
      "type": "function"
    },
    {
      "inputs": [
        {
          "internalType": "uint256",
          "name": "_stakeId",
          "type": "uint256"
        },
        {
          "internalType": "uint256",
          "name": "_amount",
          "type": "uint256"
        }
      ],
      "name": "stake",
      "outputs": [],
      "stateMutability": "nonpayable",
      "type": "function"
    },
    {
      "inputs": [
        {
          "internalType": "uint256",
          "name": "_stakingIdx",
          "type": "uint256"
        }
      ],
      "name": "withdraw",
      "outputs": [],
      "stateMutability": "nonpayable",
      "type": "function"
    }
  ],
  "bytecode": "0x60806040523480156200001157600080fd5b50604051620023c4380380620023c48339818101604052810190620000379190620002b9565b60008060006101000a81548160ff02191690831515021790555062000071620000656200018260201b60201c565b6200018a60201b60201c565b81600260006101000a81548173ffffffffffffffffffffffffffffffffffffffff021916908373ffffffffffffffffffffffffffffffffffffffff16021790555080600160006101000a81548173ffffffffffffffffffffffffffffffffffffffff021916908373ffffffffffffffffffffffffffffffffffffffff160217905550600160036000600d815260200190815260200160002060006101000a81548160ff021916908315150217905550600160036000600e815260200190815260200160002060006101000a81548160ff021916908315150217905550600160036000600f815260200190815260200160002060006101000a81548160ff021916908315150217905550505062000300565b600033905090565b60008060019054906101000a900473ffffffffffffffffffffffffffffffffffffffff16905081600060016101000a81548173ffffffffffffffffffffffffffffffffffffffff021916908373ffffffffffffffffffffffffffffffffffffffff1602179055508173ffffffffffffffffffffffffffffffffffffffff168173ffffffffffffffffffffffffffffffffffffffff167f8be0079c531659141344cd1fd0a4f28419497f9722a3daafe3b4186f6b6457e060405160405180910390a35050565b600080fd5b600073ffffffffffffffffffffffffffffffffffffffff82169050919050565b6000620002818262000254565b9050919050565b620002938162000274565b81146200029f57600080fd5b50565b600081519050620002b38162000288565b92915050565b60008060408385031215620002d357620002d26200024f565b5b6000620002e385828601620002a2565b9250506020620002f685828601620002a2565b9150509250929050565b6120b480620003106000396000f3fe608060405234801561001057600080fd5b50600436106100f55760003560e01c80637bb72d6211610097578063b62888bd11610066578063b62888bd14610216578063c4f0c1fc1461024a578063e56a35c814610280578063f2fde38b1461029c576100f5565b80637bb72d62146101b25780638456cb59146101d05780638da5cb5b146101da578063b58634fe146101f8576100f5565b8063420a83e7116100d3578063420a83e7146101505780635c975abb1461016e578063715018a61461018c5780637b0472f014610196576100f5565b80631d80cf32146100fa5780632e1a7d4d1461012a5780633f4ba83a14610146575b600080fd5b610114600480360381019061010f91906112d4565b6102b8565b604051610121919061131c565b60405180910390f35b610144600480360381019061013f91906112d4565b6102d8565b005b61014e6106a1565b005b610158610727565b6040516101659190611378565b60405180910390f35b61017661074d565b604051610183919061131c565b60405180910390f35b610194610763565b005b6101b060048036038101906101ab9190611393565b6107eb565b005b6101ba610c73565b6040516101c79190611432565b60405180910390f35b6101d8610c99565b005b6101e2610d1f565b6040516101ef9190611378565b60405180910390f35b610200610d48565b60405161020d919061145c565b60405180910390f35b610230600480360381019061022b91906112d4565b610d4e565b604051610241959493929190611477565b60405180910390f35b610264600480360381019061025f91906112d4565b610da4565b60405161027797969594939291906114ca565b60405180910390f35b61029a60048036038101906102959190611539565b610de6565b005b6102b660048036038101906102b19190611607565b610f92565b005b60036020528060005260406000206000915054906101000a900460ff1681565b6102e061074d565b15610320576040517f08c379a000000000000000000000000000000000000000000000000000000000815260040161031790611691565b60405180910390fd5b600073ffffffffffffffffffffffffffffffffffffffff166006600083815260200190815260200160002060000160009054906101000a900473ffffffffffffffffffffffffffffffffffffffff1673ffffffffffffffffffffffffffffffffffffffff16036103c5576040517f08c379a00000000000000000000000000000000000000000000000000000000081526004016103bc90611723565b60405180910390fd5b3373ffffffffffffffffffffffffffffffffffffffff166006600083815260200190815260200160002060000160009054906101000a900473ffffffffffffffffffffffffffffffffffffffff1673ffffffffffffffffffffffffffffffffffffffff1614610469576040517f08c379a0000000000000000000000000000000000000000000000000000000008152600401610460906117b5565b60405180910390fd5b600660008281526020019081526020016000206004015442116104c1576040517f08c379a00000000000000000000000000000000000000000000000000000000081526004016104b890611847565b60405180910390fd5b60006006600083815260200190815260200160002060030154905060008160066000858152602001908152602001600020600201546105009190611896565b905060006006600085815260200190815260200160002060010154905060066000858152602001908152602001600020600080820160006101000a81549073ffffffffffffffffffffffffffffffffffffffff021916905560018201600090556002820160009055600382016000905560048201600090555050600260009054906101000a900473ffffffffffffffffffffffffffffffffffffffff1673ffffffffffffffffffffffffffffffffffffffff166323b872dd600160009054906101000a900473ffffffffffffffffffffffffffffffffffffffff1633856040518463ffffffff1660e01b81526004016105fb939291906118ec565b6020604051808303816000875af115801561061a573d6000803e3d6000fd5b505050506040513d601f19601f8201168201806040525081019061063e919061194f565b61064757600080fd5b3373ffffffffffffffffffffffffffffffffffffffff167fe08737ac48a1dab4b1a46c7dc9398bd5bfc6d7ad6fabb7cd8caa254de14def3543838787604051610693949392919061197c565b60405180910390a250505050565b6106a9611089565b73ffffffffffffffffffffffffffffffffffffffff166106c7610d1f565b73ffffffffffffffffffffffffffffffffffffffff161461071d576040517f08c379a000000000000000000000000000000000000000000000000000000000815260040161071490611a0d565b60405180910390fd5b610725611091565b565b600160009054906101000a900473ffffffffffffffffffffffffffffffffffffffff1681565b60008060009054906101000a900460ff16905090565b61076b611089565b73ffffffffffffffffffffffffffffffffffffffff16610789610d1f565b73ffffffffffffffffffffffffffffffffffffffff16146107df576040517f08c379a00000000000000000000000000000000000000000000000000000000081526004016107d690611a0d565b60405180910390fd5b6107e96000611132565b565b6107f361074d565b15610833576040517f08c379a000000000000000000000000000000000000000000000000000000000815260040161082a90611691565b60405180910390fd5b6003600083815260200190815260200160002060009054906101000a900460ff161515600115151461089a576040517f08c379a000000000000000000000000000000000000000000000000000000000815260040161089190611a9f565b60405180910390fd5b6005600083815260200190815260200160002060010154600014610912574260056000848152602001908152602001600020600101541015610911576040517f08c379a000000000000000000000000000000000000000000000000000000000815260040161090890611b31565b60405180910390fd5b5b426005600084815260200190815260200160002060000154111561096b576040517f08c379a000000000000000000000000000000000000000000000000000000000815260040161096290611bc3565b60405180910390fd5b80600560008481526020019081526020016000206002015411156109c4576040517f08c379a00000000000000000000000000000000000000000000000000000000081526004016109bb90611c55565b60405180910390fd5b806005600084815260200190815260200160002060030160008282546109ea9190611896565b92505081905550600560008381526020019081526020016000206004015460056000848152602001908152602001600020600301541115610a60576040517f08c379a0000000000000000000000000000000000000000000000000000000008152600401610a5790611ce7565b60405180910390fd5b600260009054906101000a900473ffffffffffffffffffffffffffffffffffffffff1673ffffffffffffffffffffffffffffffffffffffff166323b872dd33600160009054906101000a900473ffffffffffffffffffffffffffffffffffffffff16846040518463ffffffff1660e01b8152600401610ae1939291906118ec565b6020604051808303816000875af1158015610b00573d6000803e3d6000fd5b505050506040513d601f19601f82011682018060405250810190610b24919061194f565b610b2d57600080fd5b600460008154610b3c90611d07565b9190508190555060006006600060045481526020019081526020016000209050338160000160006101000a81548173ffffffffffffffffffffffffffffffffffffffff021916908373ffffffffffffffffffffffffffffffffffffffff1602179055508281600101819055508181600201819055506103e8600560008581526020019081526020016000206006015483610bd69190611d4f565b610be09190611dd8565b8160030181905550600560008481526020019081526020016000206005015442610c0a9190611896565b81600401819055503373ffffffffffffffffffffffffffffffffffffffff167fc6f8dbf1fa0a0918d52df74fa2b529a0a4da7011a24f263a28678e7504444cd64385600454868660040154604051610c66959493929190611e09565b60405180910390a2505050565b600260009054906101000a900473ffffffffffffffffffffffffffffffffffffffff1681565b610ca1611089565b73ffffffffffffffffffffffffffffffffffffffff16610cbf610d1f565b73ffffffffffffffffffffffffffffffffffffffff1614610d15576040517f08c379a0000000000000000000000000000000000000000000000000000000008152600401610d0c90611a0d565b60405180910390fd5b610d1d6111f7565b565b60008060019054906101000a900473ffffffffffffffffffffffffffffffffffffffff16905090565b60045481565b60066020528060005260406000206000915090508060000160009054906101000a900473ffffffffffffffffffffffffffffffffffffffff16908060010154908060020154908060030154908060040154905085565b60056020528060005260406000206000915090508060000154908060010154908060020154908060030154908060040154908060050154908060060154905087565b610dee611089565b73ffffffffffffffffffffffffffffffffffffffff16610e0c610d1f565b73ffffffffffffffffffffffffffffffffffffffff1614610e62576040517f08c379a0000000000000000000000000000000000000000000000000000000008152600401610e5990611a0d565b60405180910390fd5b6005600088815260200190815260200160002060000154600014610f3a5760056000888152602001908152602001600020600001548511610ed8576040517f08c379a0000000000000000000000000000000000000000000000000000000008152600401610ecf90611ece565b60405180910390fd5b428511610f1a576040517f08c379a0000000000000000000000000000000000000000000000000000000008152600401610f1190611f60565b60405180910390fd5b846005600089815260200190815260200160002060010181905550610f89565b6000600560008981526020019081526020016000209050868160000181905550858160010181905550848160020181905550838160040181905550828160050181905550818160060181905550505b50505050505050565b610f9a611089565b73ffffffffffffffffffffffffffffffffffffffff16610fb8610d1f565b73ffffffffffffffffffffffffffffffffffffffff161461100e576040517f08c379a000000000000000000000000000000000000000000000000000000000815260040161100590611a0d565b60405180910390fd5b600073ffffffffffffffffffffffffffffffffffffffff168173ffffffffffffffffffffffffffffffffffffffff160361107d576040517f08c379a000000000000000000000000000000000000000000000000000000000815260040161107490611ff2565b60405180910390fd5b61108681611132565b50565b600033905090565b61109961074d565b6110d8576040517f08c379a00000000000000000000000000000000000000000000000000000000081526004016110cf9061205e565b60405180910390fd5b60008060006101000a81548160ff0219169083151502179055507f5db9ee0a495bf2e6ff9c91a7834c1ba4fdd244a5e8aa4e537bd38aeae4b073aa61111b611089565b6040516111289190611378565b60405180910390a1565b60008060019054906101000a900473ffffffffffffffffffffffffffffffffffffffff16905081600060016101000a81548173ffffffffffffffffffffffffffffffffffffffff021916908373ffffffffffffffffffffffffffffffffffffffff1602179055508173ffffffffffffffffffffffffffffffffffffffff168173ffffffffffffffffffffffffffffffffffffffff167f8be0079c531659141344cd1fd0a4f28419497f9722a3daafe3b4186f6b6457e060405160405180910390a35050565b6111ff61074d565b1561123f576040517f08c379a000000000000000000000000000000000000000000000000000000000815260040161123690611691565b60405180910390fd5b60016000806101000a81548160ff0219169083151502179055507f62e78cea01bee320cd4e420270b5ea74000d11b0c9f74754ebdbfc544b05a258611282611089565b60405161128f9190611378565b60405180910390a1565b600080fd5b6000819050919050565b6112b18161129e565b81146112bc57600080fd5b50565b6000813590506112ce816112a8565b92915050565b6000602082840312156112ea576112e9611299565b5b60006112f8848285016112bf565b91505092915050565b60008115159050919050565b61131681611301565b82525050565b6000602082019050611331600083018461130d565b92915050565b600073ffffffffffffffffffffffffffffffffffffffff82169050919050565b600061136282611337565b9050919050565b61137281611357565b82525050565b600060208201905061138d6000830184611369565b92915050565b600080604083850312156113aa576113a9611299565b5b60006113b8858286016112bf565b92505060206113c9858286016112bf565b9150509250929050565b6000819050919050565b60006113f86113f36113ee84611337565b6113d3565b611337565b9050919050565b600061140a826113dd565b9050919050565b600061141c826113ff565b9050919050565b61142c81611411565b82525050565b60006020820190506114476000830184611423565b92915050565b6114568161129e565b82525050565b6000602082019050611471600083018461144d565b92915050565b600060a08201905061148c6000830188611369565b611499602083018761144d565b6114a6604083018661144d565b6114b3606083018561144d565b6114c0608083018461144d565b9695505050505050565b600060e0820190506114df600083018a61144d565b6114ec602083018961144d565b6114f9604083018861144d565b611506606083018761144d565b611513608083018661144d565b61152060a083018561144d565b61152d60c083018461144d565b98975050505050505050565b600080600080600080600060e0888a03121561155857611557611299565b5b60006115668a828b016112bf565b97505060206115778a828b016112bf565b96505060406115888a828b016112bf565b95505060606115998a828b016112bf565b94505060806115aa8a828b016112bf565b93505060a06115bb8a828b016112bf565b92505060c06115cc8a828b016112bf565b91505092959891949750929550565b6115e481611357565b81146115ef57600080fd5b50565b600081359050611601816115db565b92915050565b60006020828403121561161d5761161c611299565b5b600061162b848285016115f2565b91505092915050565b600082825260208201905092915050565b7f5061757361626c653a2070617573656400000000000000000000000000000000600082015250565b600061167b601083611634565b915061168682611645565b602082019050919050565b600060208201905081810360008301526116aa8161166e565b9050919050565b7f5b544b4d5374616b696e6733415d5b77697468647261775d3a206e6f7420657860008201527f697374207374616b696e67206461746100000000000000000000000000000000602082015250565b600061170d603083611634565b9150611718826116b1565b604082019050919050565b6000602082019050818103600083015261173c81611700565b9050919050565b7f5b544b4d5374616b696e6733415d5b77697468647261775d3a206e6f74204f7760008201527f6e65720000000000000000000000000000000000000000000000000000000000602082015250565b600061179f602383611634565b91506117aa82611743565b604082019050919050565b600060208201905081810360008301526117ce81611792565b9050919050565b7f5b544b4d5374616b696e6733415d5b77697468647261775d3a2072656d61696e60008201527f696e672074696d65206973207374696c6c206c65667400000000000000000000602082015250565b6000611831603683611634565b915061183c826117d5565b604082019050919050565b6000602082019050818103600083015261186081611824565b9050919050565b7f4e487b7100000000000000000000000000000000000000000000000000000000600052601160045260246000fd5b60006118a18261129e565b91506118ac8361129e565b9250827fffffffffffffffffffffffffffffffffffffffffffffffffffffffffffffffff038211156118e1576118e0611867565b5b828201905092915050565b60006060820190506119016000830186611369565b61190e6020830185611369565b61191b604083018461144d565b949350505050565b61192c81611301565b811461193757600080fd5b50565b60008151905061194981611923565b92915050565b60006020828403121561196557611964611299565b5b60006119738482850161193a565b91505092915050565b6000608082019050611991600083018761144d565b61199e602083018661144d565b6119ab604083018561144d565b6119b8606083018461144d565b95945050505050565b7f4f776e61626c653a2063616c6c6572206973206e6f7420746865206f776e6572600082015250565b60006119f7602083611634565b9150611a02826119c1565b602082019050919050565b60006020820190508181036000830152611a26816119ea565b9050919050565b7f5b544b4d5374616b696e6733415d5b7374616b655d3a20696e76616c6964207360008201527f74616b6520696400000000000000000000000000000000000000000000000000602082015250565b6000611a89602783611634565b9150611a9482611a2d565b604082019050919050565b60006020820190508181036000830152611ab881611a7c565b9050919050565b7f5b544b4d5374616b696e6733415d5b7374616b655d3a207374616b696e67206960008201527f7320656e64656400000000000000000000000000000000000000000000000000602082015250565b6000611b1b602783611634565b9150611b2682611abf565b604082019050919050565b60006020820190508181036000830152611b4a81611b0e565b9050919050565b7f5b544b4d5374616b696e6733415d5b7374616b655d3a207374616b696e67206960008201527f73206e6f74207374617274656400000000000000000000000000000000000000602082015250565b6000611bad602d83611634565b9150611bb882611b51565b604082019050919050565b60006020820190508181036000830152611bdc81611ba0565b9050919050565b7f5b544b4d5374616b696e6733415d5b7374616b655d3a205374616b696e67206160008201527f6d6f756e74206e6f7420656e6f75676800000000000000000000000000000000602082015250565b6000611c3f603083611634565b9150611c4a82611be3565b604082019050919050565b60006020820190508181036000830152611c6e81611c32565b9050919050565b7f5b544b4d5374616b696e6733415d5b7374616b655d3a205374616b696e67206160008201527f6d6f756e74206f766572666c6f77000000000000000000000000000000000000602082015250565b6000611cd1602e83611634565b9150611cdc82611c75565b604082019050919050565b60006020820190508181036000830152611d0081611cc4565b9050919050565b6000611d128261129e565b91507fffffffffffffffffffffffffffffffffffffffffffffffffffffffffffffffff8203611d4457611d43611867565b5b600182019050919050565b6000611d5a8261129e565b9150611d658361129e565b9250817fffffffffffffffffffffffffffffffffffffffffffffffffffffffffffffffff0483118215151615611d9e57611d9d611867565b5b828202905092915050565b7f4e487b7100000000000000000000000000000000000000000000000000000000600052601260045260246000fd5b6000611de38261129e565b9150611dee8361129e565b925082611dfe57611dfd611da9565b5b828204905092915050565b600060a082019050611e1e600083018861144d565b611e2b602083018761144d565b611e38604083018661144d565b611e45606083018561144d565b611e52608083018461144d565b9695505050505050565b7f5b544b4d5374616b696e6733415d5b7365745374616b696e675d3a205f656e6460008201527f54696d6520697320756e646572205f737461727454696d650000000000000000602082015250565b6000611eb8603883611634565b9150611ec382611e5c565b604082019050919050565b60006020820190508181036000830152611ee781611eab565b9050919050565b7f5b544b4d5374616b696e6733415d5b7365745374616b696e675d3a205f656e6460008201527f54696d6520697320756e646572206e6f77000000000000000000000000000000602082015250565b6000611f4a603183611634565b9150611f5582611eee565b604082019050919050565b60006020820190508181036000830152611f7981611f3d565b9050919050565b7f4f776e61626c653a206e6577206f776e657220697320746865207a65726f206160008201527f6464726573730000000000000000000000000000000000000000000000000000602082015250565b6000611fdc602683611634565b9150611fe782611f80565b604082019050919050565b6000602082019050818103600083015261200b81611fcf565b9050919050565b7f5061757361626c653a206e6f7420706175736564000000000000000000000000600082015250565b6000612048601483611634565b915061205382612012565b602082019050919050565b600060208201905081810360008301526120778161203b565b905091905056fea2646970667358221220681456ab5fb9bef0a86d9e81311786af15370de468371dcf149bc61d1f69b55164736f6c634300080e0033",
  "immutableReferences": {},
  "source": "// SPDX-License-Identifier: MIT\r\npragma solidity ^0.8.14;\r\n\r\nimport \"@openzeppelin/contracts/token/ERC20/ERC20.sol\";\r\nimport \"@openzeppelin/contracts/access/Ownable.sol\";\r\nimport \"@openzeppelin/contracts/security/Pausable.sol\";\r\n\r\ncontract TKMStaking3A is Pausable, Ownable {\r\n    address public tokenHolder; //    (NFTHolder  )\r\n    ERC20 public TKMToken; // 3km contract\r\n\r\n    // stake id: 13, 14, 15\r\n    mapping(uint256 => bool) public stakeIds;\r\n\r\n    //  \r\n    uint256 public stakingIdx;\r\n\r\n    // //  ( ,  , stakeId,  ,   ,   )\r\n    event Stake(address indexed from, uint256 blockNumber, uint256 stakeId, uint256 stakingIdx, uint256 amount, uint256 releaseTime);\r\n    // //  \r\n    event Withdraw(address indexed from, uint256 blockNumber, uint256 stakeId, uint256 stakingIdx, uint256 rewardAmount);\r\n\r\n    /////////////////////////////////////////////////////\r\n    // Staking\r\n    // Staking \r\n    struct staking {\r\n        uint256 startTime; //  \r\n        uint256 endTime; //   ( )\r\n        uint256 minTokenAmount; //   \r\n        uint256 curTokenAmount; //    \r\n        uint256 maxTokenAmount; //   \r\n        uint256 lockDurationSecond; //   \r\n        uint256 rewardRate; //  (9.6% => 96)\r\n    }\r\n\r\n    // stake id \r\n    mapping(uint256 => staking) public stakings;\r\n\r\n    //  \r\n    struct stakingProgress {\r\n        address user; //   \r\n        uint256 stakeId; // stake id\r\n        uint256 stakeAmount; //   \r\n        uint256 rewardAmount; //    \r\n        uint256 releaseTime; //   \r\n    }\r\n\r\n    //  (  =>  )\r\n    mapping(uint256 => stakingProgress) public progressing;\r\n\r\n    constructor(address _TKMToken, address _TokenHolder) {\r\n        TKMToken = ERC20(payable(_TKMToken));\r\n        tokenHolder = _TokenHolder;\r\n\r\n        stakeIds[13] = true;\r\n        stakeIds[14] = true;\r\n        stakeIds[15] = true;\r\n    }\r\n\r\n    function pause() public onlyOwner {\r\n        _pause();\r\n    }\r\n\r\n    function unpause() public onlyOwner {\r\n        _unpause();\r\n    }\r\n\r\n    //   \r\n    function setStaking(\r\n        uint256 _stakeId,\r\n        uint256 _startTime,\r\n        uint256 _endTime,\r\n        uint256 _minTokenAmount,\r\n        uint256 _maxTokenAmount,\r\n        uint256 _lockDurationSecond,\r\n        uint256 _rewardRate\r\n    ) public onlyOwner {\r\n        //    \r\n        if(0 != stakings[_stakeId].startTime) {\r\n            require(_endTime > stakings[_stakeId].startTime, \"[TKMStaking3A][setStaking]: _endTime is under _startTime\");\r\n            require(_endTime > block.timestamp, \"[TKMStaking3A][setStaking]: _endTime is under now\");\r\n            stakings[_stakeId].endTime = _endTime;\r\n            return;\r\n        }\r\n\r\n        staking storage newStake = stakings[_stakeId];\r\n        newStake.startTime = _startTime;\r\n        newStake.endTime = _endTime;\r\n        newStake.minTokenAmount = _minTokenAmount;\r\n        newStake.maxTokenAmount = _maxTokenAmount;\r\n        newStake.lockDurationSecond = _lockDurationSecond;\r\n        newStake.rewardRate = _rewardRate;\r\n    }\r\n\r\n    //  \r\n    function stake(uint256 _stakeId, uint256 _amount) public whenNotPaused {\r\n        // stake id \r\n        require(true == stakeIds[_stakeId], \"[TKMStaking3A][stake]: invalid stake id\");\r\n\r\n        //  \r\n        if(0 != stakings[_stakeId].endTime) {\r\n            require(stakings[_stakeId].endTime >= block.timestamp, \"[TKMStaking3A][stake]: staking is ended\");\r\n        }\r\n        require(stakings[_stakeId].startTime <= block.timestamp, \"[TKMStaking3A][stake]: staking is not started\");\r\n\r\n        // minTokenAmount \r\n        require(stakings[_stakeId].minTokenAmount <= _amount, \"[TKMStaking3A][stake]: Staking amount not enough\");\r\n\r\n        // maxTokenAmount \r\n        stakings[_stakeId].curTokenAmount += _amount;\r\n        require(stakings[_stakeId].curTokenAmount <= stakings[_stakeId].maxTokenAmount, \"[TKMStaking3A][stake]: Staking amount overflow\");\r\n\r\n        //  \r\n        require(TKMToken.transferFrom(msg.sender, tokenHolder, _amount));\r\n        \r\n        //   \r\n        ++stakingIdx;\r\n\r\n        //  \r\n        stakingProgress storage progress = progressing[stakingIdx];\r\n        progress.user = msg.sender;\r\n        progress.stakeId = _stakeId;\r\n        progress.stakeAmount = _amount;\r\n        progress.rewardAmount = _amount * stakings[_stakeId].rewardRate / 1000;\r\n        progress.releaseTime = block.timestamp + stakings[_stakeId].lockDurationSecond;\r\n\r\n        emit Stake(msg.sender, block.number, _stakeId, stakingIdx, _amount, progress.releaseTime);\r\n    }\r\n\r\n    // \r\n    function withdraw(uint256 _stakingIdx) public whenNotPaused {\r\n        //      \r\n        require(progressing[_stakingIdx].user != address(0), \"[TKMStaking3A][withdraw]: not exist staking data\");\r\n        require(progressing[_stakingIdx].user == msg.sender, \"[TKMStaking3A][withdraw]: not Owner\");\r\n\r\n        //   \r\n        require(block.timestamp > progressing[_stakingIdx].releaseTime, \"[TKMStaking3A][withdraw]: remaining time is still left\");\r\n\r\n        uint256 rewardAmount = progressing[_stakingIdx].rewardAmount;\r\n        uint256 amount = progressing[_stakingIdx].stakeAmount + rewardAmount;\r\n        uint256 stakeId = progressing[_stakingIdx].stakeId;\r\n\r\n        //  \r\n        delete progressing[_stakingIdx];\r\n\r\n        //  \r\n        require(TKMToken.transferFrom(tokenHolder, msg.sender, amount));\r\n\r\n        emit Withdraw(msg.sender, block.number, stakeId, _stakingIdx, rewardAmount);\r\n    }\r\n}\r\n",
  "sourcePath": "C:\\Works\\1_Github\\solidity_tinyping\\contracts\\TKMStaking3A.sol",
  "compiler": {
    "name": "solc",
    "version": "0.8.14+commit.80d49f37.Emscripten.clang"
  },
  "schemaVersion": "3.4.7",
  "updatedAt": "2023-02-02T06:21:12.651Z",
  "networkType": "ethereum",
  "devdoc": {
    "kind": "dev",
    "methods": {
      "owner()": {
        "details": "Returns the address of the current owner."
      },
      "paused()": {
        "details": "Returns true if the contract is paused, and false otherwise."
      },
      "renounceOwnership()": {
        "details": "Leaves the contract without owner. It will not be possible to call `onlyOwner` functions anymore. Can only be called by the current owner. NOTE: Renouncing ownership will leave the contract without an owner, thereby removing any functionality that is only available to the owner."
      },
      "transferOwnership(address)": {
        "details": "Transfers ownership of the contract to a new account (`newOwner`). Can only be called by the current owner."
      }
    },
    "version": 1
  },
  "userdoc": {
    "kind": "user",
    "methods": {},
    "version": 1
  }
}