{
  "contractName": "Ranke",
  "abi": [
    {
      "inputs": [],
      "stateMutability": "nonpayable",
      "type": "constructor"
    },
    {
      "inputs": [
        {
          "internalType": "address",
          "name": "sender",
          "type": "address"
        },
        {
          "internalType": "uint256",
          "name": "amount",
          "type": "uint256"
        }
      ],
      "name": "ErrRecvCant",
      "type": "error"
    },
    {
      "anonymous": false,
      "inputs": [
        {
          "indexed": true,
          "internalType": "address",
          "name": "owner",
          "type": "address"
        },
        {
          "indexed": true,
          "internalType": "address",
          "name": "spender",
          "type": "address"
        },
        {
          "indexed": false,
          "internalType": "uint256",
          "name": "value",
          "type": "uint256"
        }
      ],
      "name": "Approval",
      "type": "event"
    },
    {
      "anonymous": false,
      "inputs": [
        {
          "indexed": true,
          "internalType": "address",
          "name": "from",
          "type": "address"
        },
        {
          "indexed": true,
          "internalType": "address",
          "name": "to",
          "type": "address"
        }
      ],
      "name": "ChangeMinter",
      "type": "event"
    },
    {
      "anonymous": false,
      "inputs": [
        {
          "indexed": true,
          "internalType": "address",
          "name": "from",
          "type": "address"
        },
        {
          "indexed": true,
          "internalType": "address",
          "name": "to",
          "type": "address"
        }
      ],
      "name": "ChangeOwner",
      "type": "event"
    },
    {
      "anonymous": false,
      "inputs": [
        {
          "indexed": true,
          "internalType": "address",
          "name": "from",
          "type": "address"
        },
        {
          "indexed": true,
          "internalType": "address",
          "name": "to",
          "type": "address"
        },
        {
          "indexed": false,
          "internalType": "uint256",
          "name": "value",
          "type": "uint256"
        }
      ],
      "name": "Transfer",
      "type": "event"
    },
    {
      "stateMutability": "payable",
      "type": "fallback"
    },
    {
      "inputs": [
        {
          "internalType": "address",
          "name": "owner",
          "type": "address"
        },
        {
          "internalType": "address",
          "name": "spender",
          "type": "address"
        }
      ],
      "name": "allowance",
      "outputs": [
        {
          "internalType": "uint256",
          "name": "",
          "type": "uint256"
        }
      ],
      "stateMutability": "view",
      "type": "function"
    },
    {
      "inputs": [
        {
          "internalType": "address",
          "name": "spender",
          "type": "address"
        },
        {
          "internalType": "uint256",
          "name": "amount",
          "type": "uint256"
        }
      ],
      "name": "approve",
      "outputs": [
        {
          "internalType": "bool",
          "name": "",
          "type": "bool"
        }
      ],
      "stateMutability": "nonpayable",
      "type": "function"
    },
    {
      "inputs": [
        {
          "internalType": "address",
          "name": "account",
          "type": "address"
        }
      ],
      "name": "balanceOf",
      "outputs": [
        {
          "internalType": "uint256",
          "name": "",
          "type": "uint256"
        }
      ],
      "stateMutability": "view",
      "type": "function"
    },
    {
      "inputs": [
        {
          "internalType": "address",
          "name": "_newMinter",
          "type": "address"
        }
      ],
      "name": "changeMinter",
      "outputs": [],
      "stateMutability": "nonpayable",
      "type": "function"
    },
    {
      "inputs": [
        {
          "internalType": "address payable",
          "name": "_newOwner",
          "type": "address"
        }
      ],
      "name": "changeOwner",
      "outputs": [],
      "stateMutability": "nonpayable",
      "type": "function"
    },
    {
      "inputs": [
        {
          "internalType": "address",
          "name": "spender",
          "type": "address"
        },
        {
          "internalType": "uint256",
          "name": "subtractedValue",
          "type": "uint256"
        }
      ],
      "name": "decreaseAllowance",
      "outputs": [
        {
          "internalType": "bool",
          "name": "",
          "type": "bool"
        }
      ],
      "stateMutability": "nonpayable",
      "type": "function"
    },
    {
      "inputs": [
        {
          "internalType": "address",
          "name": "spender",
          "type": "address"
        },
        {
          "internalType": "uint256",
          "name": "addedValue",
          "type": "uint256"
        }
      ],
      "name": "increaseAllowance",
      "outputs": [
        {
          "internalType": "bool",
          "name": "",
          "type": "bool"
        }
      ],
      "stateMutability": "nonpayable",
      "type": "function"
    },
    {
      "inputs": [],
      "name": "minter",
      "outputs": [
        {
          "internalType": "address",
          "name": "",
          "type": "address"
        }
      ],
      "stateMutability": "view",
      "type": "function"
    },
    {
      "inputs": [],
      "name": "name",
      "outputs": [
        {
          "internalType": "string",
          "name": "",
          "type": "string"
        }
      ],
      "stateMutability": "view",
      "type": "function"
    },
    {
      "inputs": [],
      "name": "owner",
      "outputs": [
        {
          "internalType": "address payable",
          "name": "",
          "type": "address"
        }
      ],
      "stateMutability": "view",
      "type": "function"
    },
    {
      "inputs": [],
      "name": "symbol",
      "outputs": [
        {
          "internalType": "string",
          "name": "",
          "type": "string"
        }
      ],
      "stateMutability": "view",
      "type": "function"
    },
    {
      "inputs": [],
      "name": "totalSupply",
      "outputs": [
        {
          "internalType": "uint256",
          "name": "",
          "type": "uint256"
        }
      ],
      "stateMutability": "view",
      "type": "function"
    },
    {
      "inputs": [
        {
          "internalType": "address",
          "name": "to",
          "type": "address"
        },
        {
          "internalType": "uint256",
          "name": "amount",
          "type": "uint256"
        }
      ],
      "name": "transfer",
      "outputs": [
        {
          "internalType": "bool",
          "name": "",
          "type": "bool"
        }
      ],
      "stateMutability": "nonpayable",
      "type": "function"
    },
    {
      "inputs": [
        {
          "internalType": "address",
          "name": "from",
          "type": "address"
        },
        {
          "internalType": "address",
          "name": "to",
          "type": "address"
        },
        {
          "internalType": "uint256",
          "name": "amount",
          "type": "uint256"
        }
      ],
      "name": "transferFrom",
      "outputs": [
        {
          "internalType": "bool",
          "name": "",
          "type": "bool"
        }
      ],
      "stateMutability": "nonpayable",
      "type": "function"
    },
    {
      "stateMutability": "payable",
      "type": "receive"
    },
    {
      "inputs": [],
      "name": "decimals",
      "outputs": [
        {
          "internalType": "uint8",
          "name": "",
          "type": "uint8"
        }
      ],
      "stateMutability": "view",
      "type": "function"
    }
  ],
  "bytecode": "0x60806040523480156200001157600080fd5b506040518060400160405280600581526020017f52616e6b650000000000000000000000000000000000000000000000000000008152506040518060400160405280600381526020017f4f524b000000000000000000000000000000000000000000000000000000000081525081600390805190602001906200009692919062000308565b508060049080519060200190620000af92919062000308565b50505033600560006101000a81548173ffffffffffffffffffffffffffffffffffffffff021916908373ffffffffffffffffffffffffffffffffffffffff16021790555033600660006101000a81548173ffffffffffffffffffffffffffffffffffffffff021916908373ffffffffffffffffffffffffffffffffffffffff1602179055506200017733620001496200017d60201b60201c565b60ff16600a6200015a919062000545565b633b9aca006200016b919062000596565b6200018660201b60201c565b62000769565b60006012905090565b600073ffffffffffffffffffffffffffffffffffffffff168273ffffffffffffffffffffffffffffffffffffffff1603620001f8576040517f08c379a0000000000000000000000000000000000000000000000000000000008152600401620001ef9062000658565b60405180910390fd5b6200020c60008383620002fe60201b60201c565b80600260008282546200022091906200067a565b92505081905550806000808473ffffffffffffffffffffffffffffffffffffffff1673ffffffffffffffffffffffffffffffffffffffff16815260200190815260200160002060008282546200027791906200067a565b925050819055508173ffffffffffffffffffffffffffffffffffffffff16600073ffffffffffffffffffffffffffffffffffffffff167fddf252ad1be2c89b69c2b068fc378daa952ba7f163c4a11628f55a4df523b3ef83604051620002de9190620006e8565b60405180910390a3620002fa600083836200030360201b60201c565b5050565b505050565b505050565b828054620003169062000734565b90600052602060002090601f0160209004810192826200033a576000855562000386565b82601f106200035557805160ff191683800117855562000386565b8280016001018555821562000386579182015b828111156200038557825182559160200191906001019062000368565b5b50905062000395919062000399565b5090565b5b80821115620003b45760008160009055506001016200039a565b5090565b7f4e487b7100000000000000000000000000000000000000000000000000000000600052601160045260246000fd5b60008160011c9050919050565b6000808291508390505b600185111562000446578086048111156200041e576200041d620003b8565b5b60018516156200042e5780820291505b80810290506200043e85620003e7565b9450620003fe565b94509492505050565b60008262000461576001905062000534565b8162000471576000905062000534565b81600181146200048a57600281146200049557620004cb565b600191505062000534565b60ff841115620004aa57620004a9620003b8565b5b8360020a915084821115620004c457620004c3620003b8565b5b5062000534565b5060208310610133831016604e8410600b8410161715620005055782820a905083811115620004ff57620004fe620003b8565b5b62000534565b620005148484846001620003f4565b925090508184048111156200052e576200052d620003b8565b5b81810290505b9392505050565b6000819050919050565b600062000552826200053b565b91506200055f836200053b565b92506200058e7fffffffffffffffffffffffffffffffffffffffffffffffffffffffffffffffff84846200044f565b905092915050565b6000620005a3826200053b565b9150620005b0836200053b565b9250817fffffffffffffffffffffffffffffffffffffffffffffffffffffffffffffffff0483118215151615620005ec57620005eb620003b8565b5b828202905092915050565b600082825260208201905092915050565b7f45524332303a206d696e7420746f20746865207a65726f206164647265737300600082015250565b600062000640601f83620005f7565b91506200064d8262000608565b602082019050919050565b60006020820190508181036000830152620006738162000631565b9050919050565b600062000687826200053b565b915062000694836200053b565b9250827fffffffffffffffffffffffffffffffffffffffffffffffffffffffffffffffff03821115620006cc57620006cb620003b8565b5b828201905092915050565b620006e2816200053b565b82525050565b6000602082019050620006ff6000830184620006d7565b92915050565b7f4e487b7100000000000000000000000000000000000000000000000000000000600052602260045260246000fd5b600060028204905060018216806200074d57607f821691505b60208210810362000763576200076262000705565b5b50919050565b61190f80620007796000396000f3fe6080604052600436106100ec5760003560e01c8063395093511161008a578063a457c2d711610059578063a457c2d71461038e578063a6f9dae1146103cb578063a9059cbb146103f4578063dd62ed3e1461043157610130565b806339509351146102be57806370a08231146102fb5780638da5cb5b1461033857806395d89b411461036357610130565b806318160ddd116100c657806318160ddd1461020257806323b872dd1461022d5780632c4d4d181461026a578063313ce5671461029357610130565b806306fdde031461016f578063075461721461019a578063095ea7b3146101c557610130565b366101305733346040517fd047ce29000000000000000000000000000000000000000000000000000000008152600401610127929190610f7f565b60405180910390fd5b33346040517fd047ce29000000000000000000000000000000000000000000000000000000008152600401610166929190610f7f565b60405180910390fd5b34801561017b57600080fd5b5061018461046e565b6040516101919190611041565b60405180910390f35b3480156101a657600080fd5b506101af610500565b6040516101bc9190611063565b60405180910390f35b3480156101d157600080fd5b506101ec60048036038101906101e791906110db565b610526565b6040516101f99190611136565b60405180910390f35b34801561020e57600080fd5b50610217610549565b6040516102249190611151565b60405180910390f35b34801561023957600080fd5b50610254600480360381019061024f919061116c565b610553565b6040516102619190611136565b60405180910390f35b34801561027657600080fd5b50610291600480360381019061028c91906111bf565b610582565b005b34801561029f57600080fd5b506102a86106b0565b6040516102b59190611208565b60405180910390f35b3480156102ca57600080fd5b506102e560048036038101906102e091906110db565b6106b9565b6040516102f29190611136565b60405180910390f35b34801561030757600080fd5b50610322600480360381019061031d91906111bf565b6106f0565b60405161032f9190611151565b60405180910390f35b34801561034457600080fd5b5061034d610738565b60405161035a9190611244565b60405180910390f35b34801561036f57600080fd5b5061037861075e565b6040516103859190611041565b60405180910390f35b34801561039a57600080fd5b506103b560048036038101906103b091906110db565b6107f0565b6040516103c29190611136565b60405180910390f35b3480156103d757600080fd5b506103f260048036038101906103ed919061128b565b610867565b005b34801561040057600080fd5b5061041b600480360381019061041691906110db565b610995565b6040516104289190611136565b60405180910390f35b34801561043d57600080fd5b50610458600480360381019061045391906112b8565b6109b8565b6040516104659190611151565b60405180910390f35b60606003805461047d90611327565b80601f01602080910402602001604051908101604052809291908181526020018280546104a990611327565b80156104f65780601f106104cb576101008083540402835291602001916104f6565b820191906000526020600020905b8154815290600101906020018083116104d957829003601f168201915b5050505050905090565b600660009054906101000a900473ffffffffffffffffffffffffffffffffffffffff1681565b600080610531610a3f565b905061053e818585610a47565b600191505092915050565b6000600254905090565b60008061055e610a3f565b905061056b858285610c10565b610576858585610c9c565b60019150509392505050565b600660009054906101000a900473ffffffffffffffffffffffffffffffffffffffff1673ffffffffffffffffffffffffffffffffffffffff163373ffffffffffffffffffffffffffffffffffffffff1614610612576040517f08c379a0000000000000000000000000000000000000000000000000000000008152600401610609906113ca565b60405180910390fd5b80600660006101000a81548173ffffffffffffffffffffffffffffffffffffffff021916908373ffffffffffffffffffffffffffffffffffffffff1602179055508073ffffffffffffffffffffffffffffffffffffffff163373ffffffffffffffffffffffffffffffffffffffff167fcba8b2f67b1b66244252c443e6260110af641687bcceb46c810da702119ec82860405160405180910390a350565b60006012905090565b6000806106c4610a3f565b90506106e58185856106d685896109b8565b6106e09190611419565b610a47565b600191505092915050565b60008060008373ffffffffffffffffffffffffffffffffffffffff1673ffffffffffffffffffffffffffffffffffffffff168152602001908152602001600020549050919050565b600560009054906101000a900473ffffffffffffffffffffffffffffffffffffffff1681565b60606004805461076d90611327565b80601f016020809104026020016040519081016040528092919081815260200182805461079990611327565b80156107e65780601f106107bb576101008083540402835291602001916107e6565b820191906000526020600020905b8154815290600101906020018083116107c957829003601f168201915b5050505050905090565b6000806107fb610a3f565b9050600061080982866109b8565b90508381101561084e576040517f08c379a0000000000000000000000000000000000000000000000000000000008152600401610845906114e1565b60405180910390fd5b61085b8286868403610a47565b60019250505092915050565b600560009054906101000a900473ffffffffffffffffffffffffffffffffffffffff1673ffffffffffffffffffffffffffffffffffffffff163373ffffffffffffffffffffffffffffffffffffffff16146108f7576040517f08c379a00000000000000000000000000000000000000000000000000000000081526004016108ee90611573565b60405180910390fd5b80600560006101000a81548173ffffffffffffffffffffffffffffffffffffffff021916908373ffffffffffffffffffffffffffffffffffffffff1602179055508073ffffffffffffffffffffffffffffffffffffffff163373ffffffffffffffffffffffffffffffffffffffff167f9aecf86140d81442289f667eb72e1202a8fbb3478a686659952e145e8531965660405160405180910390a350565b6000806109a0610a3f565b90506109ad818585610c9c565b600191505092915050565b6000600160008473ffffffffffffffffffffffffffffffffffffffff1673ffffffffffffffffffffffffffffffffffffffff16815260200190815260200160002060008373ffffffffffffffffffffffffffffffffffffffff1673ffffffffffffffffffffffffffffffffffffffff16815260200190815260200160002054905092915050565b600033905090565b600073ffffffffffffffffffffffffffffffffffffffff168373ffffffffffffffffffffffffffffffffffffffff1603610ab6576040517f08c379a0000000000000000000000000000000000000000000000000000000008152600401610aad90611605565b60405180910390fd5b600073ffffffffffffffffffffffffffffffffffffffff168273ffffffffffffffffffffffffffffffffffffffff1603610b25576040517f08c379a0000000000000000000000000000000000000000000000000000000008152600401610b1c90611697565b60405180910390fd5b80600160008573ffffffffffffffffffffffffffffffffffffffff1673ffffffffffffffffffffffffffffffffffffffff16815260200190815260200160002060008473ffffffffffffffffffffffffffffffffffffffff1673ffffffffffffffffffffffffffffffffffffffff168152602001908152602001600020819055508173ffffffffffffffffffffffffffffffffffffffff168373ffffffffffffffffffffffffffffffffffffffff167f8c5be1e5ebec7d5bd14f71427d1e84f3dd0314c0f7b2291e5b200ac8c7c3b92583604051610c039190611151565b60405180910390a3505050565b6000610c1c84846109b8565b90507fffffffffffffffffffffffffffffffffffffffffffffffffffffffffffffffff8114610c965781811015610c88576040517f08c379a0000000000000000000000000000000000000000000000000000000008152600401610c7f90611703565b60405180910390fd5b610c958484848403610a47565b5b50505050565b600073ffffffffffffffffffffffffffffffffffffffff168373ffffffffffffffffffffffffffffffffffffffff1603610d0b576040517f08c379a0000000000000000000000000000000000000000000000000000000008152600401610d0290611795565b60405180910390fd5b600073ffffffffffffffffffffffffffffffffffffffff168273ffffffffffffffffffffffffffffffffffffffff1603610d7a576040517f08c379a0000000000000000000000000000000000000000000000000000000008152600401610d7190611827565b60405180910390fd5b610d85838383610f1b565b60008060008573ffffffffffffffffffffffffffffffffffffffff1673ffffffffffffffffffffffffffffffffffffffff16815260200190815260200160002054905081811015610e0b576040517f08c379a0000000000000000000000000000000000000000000000000000000008152600401610e02906118b9565b60405180910390fd5b8181036000808673ffffffffffffffffffffffffffffffffffffffff1673ffffffffffffffffffffffffffffffffffffffff16815260200190815260200160002081905550816000808573ffffffffffffffffffffffffffffffffffffffff1673ffffffffffffffffffffffffffffffffffffffff1681526020019081526020016000206000828254610e9e9190611419565b925050819055508273ffffffffffffffffffffffffffffffffffffffff168473ffffffffffffffffffffffffffffffffffffffff167fddf252ad1be2c89b69c2b068fc378daa952ba7f163c4a11628f55a4df523b3ef84604051610f029190611151565b60405180910390a3610f15848484610f20565b50505050565b505050565b505050565b600073ffffffffffffffffffffffffffffffffffffffff82169050919050565b6000610f5082610f25565b9050919050565b610f6081610f45565b82525050565b6000819050919050565b610f7981610f66565b82525050565b6000604082019050610f946000830185610f57565b610fa16020830184610f70565b9392505050565b600081519050919050565b600082825260208201905092915050565b60005b83811015610fe2578082015181840152602081019050610fc7565b83811115610ff1576000848401525b50505050565b6000601f19601f8301169050919050565b600061101382610fa8565b61101d8185610fb3565b935061102d818560208601610fc4565b61103681610ff7565b840191505092915050565b6000602082019050818103600083015261105b8184611008565b905092915050565b60006020820190506110786000830184610f57565b92915050565b600080fd5b61108c81610f45565b811461109757600080fd5b50565b6000813590506110a981611083565b92915050565b6110b881610f66565b81146110c357600080fd5b50565b6000813590506110d5816110af565b92915050565b600080604083850312156110f2576110f161107e565b5b60006111008582860161109a565b9250506020611111858286016110c6565b9150509250929050565b60008115159050919050565b6111308161111b565b82525050565b600060208201905061114b6000830184611127565b92915050565b60006020820190506111666000830184610f70565b92915050565b6000806000606084860312156111855761118461107e565b5b60006111938682870161109a565b93505060206111a48682870161109a565b92505060406111b5868287016110c6565b9150509250925092565b6000602082840312156111d5576111d461107e565b5b60006111e38482850161109a565b91505092915050565b600060ff82169050919050565b611202816111ec565b82525050565b600060208201905061121d60008301846111f9565b92915050565b600061122e82610f25565b9050919050565b61123e81611223565b82525050565b60006020820190506112596000830184611235565b92915050565b61126881611223565b811461127357600080fd5b50565b6000813590506112858161125f565b92915050565b6000602082840312156112a1576112a061107e565b5b60006112af84828501611276565b91505092915050565b600080604083850312156112cf576112ce61107e565b5b60006112dd8582860161109a565b92505060206112ee8582860161109a565b9150509250929050565b7f4e487b7100000000000000000000000000000000000000000000000000000000600052602260045260246000fd5b6000600282049050600182168061133f57607f821691505b602082108103611352576113516112f8565b5b50919050565b7f4f6e6c792074686520636f6e7472616374206d696e7465722063616e2063616c60008201527f6c20746869732066756e6374696f6e0000000000000000000000000000000000602082015250565b60006113b4602f83610fb3565b91506113bf82611358565b604082019050919050565b600060208201905081810360008301526113e3816113a7565b9050919050565b7f4e487b7100000000000000000000000000000000000000000000000000000000600052601160045260246000fd5b600061142482610f66565b915061142f83610f66565b9250827fffffffffffffffffffffffffffffffffffffffffffffffffffffffffffffffff03821115611464576114636113ea565b5b828201905092915050565b7f45524332303a2064656372656173656420616c6c6f77616e63652062656c6f7760008201527f207a65726f000000000000000000000000000000000000000000000000000000602082015250565b60006114cb602583610fb3565b91506114d68261146f565b604082019050919050565b600060208201905081810360008301526114fa816114be565b9050919050565b7f4f6e6c792074686520636f6e7472616374206f776e65722063616e2063616c6c60008201527f20746869732066756e6374696f6e000000000000000000000000000000000000602082015250565b600061155d602e83610fb3565b915061156882611501565b604082019050919050565b6000602082019050818103600083015261158c81611550565b9050919050565b7f45524332303a20617070726f76652066726f6d20746865207a65726f2061646460008201527f7265737300000000000000000000000000000000000000000000000000000000602082015250565b60006115ef602483610fb3565b91506115fa82611593565b604082019050919050565b6000602082019050818103600083015261161e816115e2565b9050919050565b7f45524332303a20617070726f766520746f20746865207a65726f20616464726560008201527f7373000000000000000000000000000000000000000000000000000000000000602082015250565b6000611681602283610fb3565b915061168c82611625565b604082019050919050565b600060208201905081810360008301526116b081611674565b9050919050565b7f45524332303a20696e73756666696369656e7420616c6c6f77616e6365000000600082015250565b60006116ed601d83610fb3565b91506116f8826116b7565b602082019050919050565b6000602082019050818103600083015261171c816116e0565b9050919050565b7f45524332303a207472616e736665722066726f6d20746865207a65726f20616460008201527f6472657373000000000000000000000000000000000000000000000000000000602082015250565b600061177f602583610fb3565b915061178a82611723565b604082019050919050565b600060208201905081810360008301526117ae81611772565b9050919050565b7f45524332303a207472616e7366657220746f20746865207a65726f206164647260008201527f6573730000000000000000000000000000000000000000000000000000000000602082015250565b6000611811602383610fb3565b915061181c826117b5565b604082019050919050565b6000602082019050818103600083015261184081611804565b9050919050565b7f45524332303a207472616e7366657220616d6f756e742065786365656473206260008201527f616c616e63650000000000000000000000000000000000000000000000000000602082015250565b60006118a3602683610fb3565b91506118ae82611847565b604082019050919050565b600060208201905081810360008301526118d281611896565b905091905056fea26469706673582212206d2d1484c046d1978b6a0244c768ea1ed07a6ba9cbca3dc305e8343850f74e5664736f6c634300080e0033",
  "immutableReferences": {},
  "source": "// SPDX-License-Identifier: MIT\r\n\r\npragma solidity ^0.8.14;\r\n\r\nimport \"@openzeppelin/contracts/token/ERC20/ERC20.sol\";\r\nimport \"./Owner.sol\";\r\nimport \"./Revert.sol\";\r\n\r\ncontract Ranke is ERC20, Owner, Minter, RevertFallback {\r\n    uint256 constant _initial_supply = 1 * 1e9; //   . 10\r\n\r\n    constructor() ERC20(\"Ranke\", \"ORK\") {\r\n        _mint(msg.sender, _initial_supply * (10**uint256(decimals())));\r\n    }\r\n\r\n    function decimals() public view virtual override returns (uint8) {\r\n        return 18;\r\n    }\r\n\r\n    // function mint(uint256 mintAmount) external onlyMinter returns (bool) {\r\n    //     _mint(msg.sender, mintAmount);\r\n    //     return true;\r\n    // }\r\n}\r\n",
  "sourcePath": "D:\\github\\solidity_tinyping\\contracts\\Ranke.sol",
  "compiler": {
    "name": "solc",
    "version": "0.8.14+commit.80d49f37.Emscripten.clang"
  },
  "schemaVersion": "3.4.7",
  "updatedAt": "2022-06-30T02:41:51.296Z",
  "networkType": "ethereum",
  "devdoc": {
    "kind": "dev",
    "methods": {
      "allowance(address,address)": {
        "details": "See {IERC20-allowance}."
      },
      "approve(address,uint256)": {
        "details": "See {IERC20-approve}. NOTE: If `amount` is the maximum `uint256`, the allowance is not updated on `transferFrom`. This is semantically equivalent to an infinite approval. Requirements: - `spender` cannot be the zero address."
      },
      "balanceOf(address)": {
        "details": "See {IERC20-balanceOf}."
      },
      "decimals()": {
        "details": "Returns the number of decimals used to get its user representation. For example, if `decimals` equals `2`, a balance of `505` tokens should be displayed to a user as `5.05` (`505 / 10 ** 2`). Tokens usually opt for a value of 18, imitating the relationship between Ether and Wei. This is the value {ERC20} uses, unless this function is overridden; NOTE: This information is only used for _display_ purposes: it in no way affects any of the arithmetic of the contract, including {IERC20-balanceOf} and {IERC20-transfer}."
      },
      "decreaseAllowance(address,uint256)": {
        "details": "Atomically decreases the allowance granted to `spender` by the caller. This is an alternative to {approve} that can be used as a mitigation for problems described in {IERC20-approve}. Emits an {Approval} event indicating the updated allowance. Requirements: - `spender` cannot be the zero address. - `spender` must have allowance for the caller of at least `subtractedValue`."
      },
      "increaseAllowance(address,uint256)": {
        "details": "Atomically increases the allowance granted to `spender` by the caller. This is an alternative to {approve} that can be used as a mitigation for problems described in {IERC20-approve}. Emits an {Approval} event indicating the updated allowance. Requirements: - `spender` cannot be the zero address."
      },
      "name()": {
        "details": "Returns the name of the token."
      },
      "symbol()": {
        "details": "Returns the symbol of the token, usually a shorter version of the name."
      },
      "totalSupply()": {
        "details": "See {IERC20-totalSupply}."
      },
      "transfer(address,uint256)": {
        "details": "See {IERC20-transfer}. Requirements: - `to` cannot be the zero address. - the caller must have a balance of at least `amount`."
      },
      "transferFrom(address,address,uint256)": {
        "details": "See {IERC20-transferFrom}. Emits an {Approval} event indicating the updated allowance. This is not required by the EIP. See the note at the beginning of {ERC20}. NOTE: Does not update the allowance if the current allowance is the maximum `uint256`. Requirements: - `from` and `to` cannot be the zero address. - `from` must have a balance of at least `amount`. - the caller must have allowance for ``from``'s tokens of at least `amount`."
      }
    },
    "version": 1
  },
  "userdoc": {
    "kind": "user",
    "methods": {},
    "version": 1
  }
}