{
  "contractName": "TKMStaking2",
  "abi": [
    {
      "inputs": [
        {
          "internalType": "address",
          "name": "_TKMNft",
          "type": "address"
        },
        {
          "internalType": "address",
          "name": "_NftHolder",
          "type": "address"
        }
      ],
      "stateMutability": "nonpayable",
      "type": "constructor"
    },
    {
      "anonymous": false,
      "inputs": [
        {
          "indexed": true,
          "internalType": "address",
          "name": "from",
          "type": "address"
        },
        {
          "indexed": false,
          "internalType": "uint256",
          "name": "blockNumber",
          "type": "uint256"
        },
        {
          "indexed": false,
          "internalType": "uint256",
          "name": "stakeId",
          "type": "uint256"
        },
        {
          "indexed": false,
          "internalType": "uint256",
          "name": "stakingIdx",
          "type": "uint256"
        }
      ],
      "name": "Harvest",
      "type": "event"
    },
    {
      "anonymous": false,
      "inputs": [
        {
          "indexed": false,
          "internalType": "address",
          "name": "account",
          "type": "address"
        }
      ],
      "name": "Paused",
      "type": "event"
    },
    {
      "anonymous": false,
      "inputs": [
        {
          "indexed": true,
          "internalType": "bytes32",
          "name": "role",
          "type": "bytes32"
        },
        {
          "indexed": true,
          "internalType": "bytes32",
          "name": "previousAdminRole",
          "type": "bytes32"
        },
        {
          "indexed": true,
          "internalType": "bytes32",
          "name": "newAdminRole",
          "type": "bytes32"
        }
      ],
      "name": "RoleAdminChanged",
      "type": "event"
    },
    {
      "anonymous": false,
      "inputs": [
        {
          "indexed": true,
          "internalType": "bytes32",
          "name": "role",
          "type": "bytes32"
        },
        {
          "indexed": true,
          "internalType": "address",
          "name": "account",
          "type": "address"
        },
        {
          "indexed": true,
          "internalType": "address",
          "name": "sender",
          "type": "address"
        }
      ],
      "name": "RoleGranted",
      "type": "event"
    },
    {
      "anonymous": false,
      "inputs": [
        {
          "indexed": true,
          "internalType": "bytes32",
          "name": "role",
          "type": "bytes32"
        },
        {
          "indexed": true,
          "internalType": "address",
          "name": "account",
          "type": "address"
        },
        {
          "indexed": true,
          "internalType": "address",
          "name": "sender",
          "type": "address"
        }
      ],
      "name": "RoleRevoked",
      "type": "event"
    },
    {
      "anonymous": false,
      "inputs": [
        {
          "indexed": true,
          "internalType": "address",
          "name": "from",
          "type": "address"
        },
        {
          "indexed": false,
          "internalType": "uint256",
          "name": "blockNumber",
          "type": "uint256"
        },
        {
          "indexed": false,
          "internalType": "uint256",
          "name": "stakeId",
          "type": "uint256"
        },
        {
          "indexed": false,
          "internalType": "uint256",
          "name": "stakingIdx",
          "type": "uint256"
        },
        {
          "indexed": false,
          "internalType": "uint256[]",
          "name": "ids",
          "type": "uint256[]"
        }
      ],
      "name": "Stake",
      "type": "event"
    },
    {
      "anonymous": false,
      "inputs": [
        {
          "indexed": false,
          "internalType": "address",
          "name": "account",
          "type": "address"
        }
      ],
      "name": "Unpaused",
      "type": "event"
    },
    {
      "anonymous": false,
      "inputs": [
        {
          "indexed": true,
          "internalType": "address",
          "name": "from",
          "type": "address"
        },
        {
          "indexed": false,
          "internalType": "uint256",
          "name": "blockNumber",
          "type": "uint256"
        },
        {
          "indexed": false,
          "internalType": "uint256",
          "name": "stakeId",
          "type": "uint256"
        },
        {
          "indexed": false,
          "internalType": "uint256",
          "name": "stakingIdx",
          "type": "uint256"
        }
      ],
      "name": "Withdraw",
      "type": "event"
    },
    {
      "inputs": [],
      "name": "DEFAULT_ADMIN_ROLE",
      "outputs": [
        {
          "internalType": "bytes32",
          "name": "",
          "type": "bytes32"
        }
      ],
      "stateMutability": "view",
      "type": "function",
      "constant": true
    },
    {
      "inputs": [],
      "name": "NftHolder",
      "outputs": [
        {
          "internalType": "address",
          "name": "",
          "type": "address"
        }
      ],
      "stateMutability": "view",
      "type": "function",
      "constant": true
    },
    {
      "inputs": [],
      "name": "TKMNft",
      "outputs": [
        {
          "internalType": "contract ERC721",
          "name": "",
          "type": "address"
        }
      ],
      "stateMutability": "view",
      "type": "function",
      "constant": true
    },
    {
      "inputs": [],
      "name": "gapIndex",
      "outputs": [
        {
          "internalType": "uint8",
          "name": "",
          "type": "uint8"
        }
      ],
      "stateMutability": "view",
      "type": "function",
      "constant": true
    },
    {
      "inputs": [
        {
          "internalType": "bytes32",
          "name": "role",
          "type": "bytes32"
        }
      ],
      "name": "getRoleAdmin",
      "outputs": [
        {
          "internalType": "bytes32",
          "name": "",
          "type": "bytes32"
        }
      ],
      "stateMutability": "view",
      "type": "function",
      "constant": true
    },
    {
      "inputs": [
        {
          "internalType": "bytes32",
          "name": "role",
          "type": "bytes32"
        },
        {
          "internalType": "address",
          "name": "account",
          "type": "address"
        }
      ],
      "name": "grantRole",
      "outputs": [],
      "stateMutability": "nonpayable",
      "type": "function"
    },
    {
      "inputs": [
        {
          "internalType": "bytes32",
          "name": "role",
          "type": "bytes32"
        },
        {
          "internalType": "address",
          "name": "account",
          "type": "address"
        }
      ],
      "name": "hasRole",
      "outputs": [
        {
          "internalType": "bool",
          "name": "",
          "type": "bool"
        }
      ],
      "stateMutability": "view",
      "type": "function",
      "constant": true
    },
    {
      "inputs": [],
      "name": "paused",
      "outputs": [
        {
          "internalType": "bool",
          "name": "",
          "type": "bool"
        }
      ],
      "stateMutability": "view",
      "type": "function",
      "constant": true
    },
    {
      "inputs": [
        {
          "internalType": "uint256",
          "name": "",
          "type": "uint256"
        }
      ],
      "name": "progressing",
      "outputs": [
        {
          "internalType": "address",
          "name": "user",
          "type": "address"
        },
        {
          "internalType": "uint256",
          "name": "stakeId",
          "type": "uint256"
        }
      ],
      "stateMutability": "view",
      "type": "function",
      "constant": true
    },
    {
      "inputs": [
        {
          "internalType": "bytes32",
          "name": "role",
          "type": "bytes32"
        },
        {
          "internalType": "address",
          "name": "account",
          "type": "address"
        }
      ],
      "name": "renounceRole",
      "outputs": [],
      "stateMutability": "nonpayable",
      "type": "function"
    },
    {
      "inputs": [
        {
          "internalType": "bytes32",
          "name": "role",
          "type": "bytes32"
        },
        {
          "internalType": "address",
          "name": "account",
          "type": "address"
        }
      ],
      "name": "revokeRole",
      "outputs": [],
      "stateMutability": "nonpayable",
      "type": "function"
    },
    {
      "inputs": [
        {
          "internalType": "uint256",
          "name": "",
          "type": "uint256"
        }
      ],
      "name": "stakeIdList",
      "outputs": [
        {
          "internalType": "uint256",
          "name": "",
          "type": "uint256"
        }
      ],
      "stateMutability": "view",
      "type": "function",
      "constant": true
    },
    {
      "inputs": [
        {
          "internalType": "uint256",
          "name": "",
          "type": "uint256"
        }
      ],
      "name": "stakeIds",
      "outputs": [
        {
          "internalType": "bool",
          "name": "",
          "type": "bool"
        }
      ],
      "stateMutability": "view",
      "type": "function",
      "constant": true
    },
    {
      "inputs": [
        {
          "internalType": "uint256",
          "name": "",
          "type": "uint256"
        }
      ],
      "name": "stakedInfoList",
      "outputs": [
        {
          "internalType": "uint256",
          "name": "nftCount",
          "type": "uint256"
        },
        {
          "internalType": "uint256",
          "name": "walletCount",
          "type": "uint256"
        }
      ],
      "stateMutability": "view",
      "type": "function",
      "constant": true
    },
    {
      "inputs": [],
      "name": "stakingIdx",
      "outputs": [
        {
          "internalType": "uint256",
          "name": "",
          "type": "uint256"
        }
      ],
      "stateMutability": "view",
      "type": "function",
      "constant": true
    },
    {
      "inputs": [
        {
          "internalType": "uint256",
          "name": "",
          "type": "uint256"
        }
      ],
      "name": "stakings",
      "outputs": [
        {
          "internalType": "uint256",
          "name": "startTime",
          "type": "uint256"
        },
        {
          "internalType": "uint256",
          "name": "endTime",
          "type": "uint256"
        },
        {
          "internalType": "uint8",
          "name": "nftAmount",
          "type": "uint8"
        },
        {
          "internalType": "uint256",
          "name": "withdrawTime",
          "type": "uint256"
        }
      ],
      "stateMutability": "view",
      "type": "function",
      "constant": true
    },
    {
      "inputs": [
        {
          "internalType": "bytes4",
          "name": "interfaceId",
          "type": "bytes4"
        }
      ],
      "name": "supportsInterface",
      "outputs": [
        {
          "internalType": "bool",
          "name": "",
          "type": "bool"
        }
      ],
      "stateMutability": "view",
      "type": "function",
      "constant": true
    },
    {
      "inputs": [],
      "name": "pause",
      "outputs": [],
      "stateMutability": "nonpayable",
      "type": "function"
    },
    {
      "inputs": [],
      "name": "unpause",
      "outputs": [],
      "stateMutability": "nonpayable",
      "type": "function"
    },
    {
      "inputs": [
        {
          "internalType": "uint256",
          "name": "_stakeId",
          "type": "uint256"
        },
        {
          "internalType": "uint256",
          "name": "_startTime",
          "type": "uint256"
        },
        {
          "internalType": "uint256",
          "name": "_endTime",
          "type": "uint256"
        },
        {
          "internalType": "uint8",
          "name": "_nftAmount",
          "type": "uint8"
        },
        {
          "internalType": "uint256",
          "name": "_withdrawTime",
          "type": "uint256"
        }
      ],
      "name": "setStaking",
      "outputs": [],
      "stateMutability": "nonpayable",
      "type": "function"
    },
    {
      "inputs": [
        {
          "internalType": "uint256",
          "name": "_stakeId",
          "type": "uint256"
        },
        {
          "internalType": "uint256[]",
          "name": "_ids",
          "type": "uint256[]"
        }
      ],
      "name": "stake",
      "outputs": [],
      "stateMutability": "nonpayable",
      "type": "function"
    },
    {
      "inputs": [
        {
          "internalType": "uint256",
          "name": "_stakingIdx",
          "type": "uint256"
        }
      ],
      "name": "withdraw",
      "outputs": [],
      "stateMutability": "nonpayable",
      "type": "function"
    },
    {
      "inputs": [
        {
          "internalType": "uint256",
          "name": "_stakingIdx",
          "type": "uint256"
        }
      ],
      "name": "harvest",
      "outputs": [],
      "stateMutability": "nonpayable",
      "type": "function"
    },
    {
      "inputs": [
        {
          "internalType": "uint256",
          "name": "_stakingIdx",
          "type": "uint256"
        }
      ],
      "name": "getIds",
      "outputs": [
        {
          "internalType": "uint256[]",
          "name": "ids",
          "type": "uint256[]"
        }
      ],
      "stateMutability": "view",
      "type": "function",
      "constant": true
    },
    {
      "inputs": [],
      "name": "getStakedInfo",
      "outputs": [
        {
          "internalType": "uint256",
          "name": "blockNumber",
          "type": "uint256"
        },
        {
          "components": [
            {
              "internalType": "uint256",
              "name": "nftCount",
              "type": "uint256"
            },
            {
              "internalType": "uint256",
              "name": "walletCount",
              "type": "uint256"
            }
          ],
          "internalType": "struct TKMStaking2.stakedInfo[4]",
          "name": "stakedList",
          "type": "tuple[4]"
        }
      ],
      "stateMutability": "view",
      "type": "function",
      "constant": true
    }
  ],
  "bytecode": "0x60806040526040518060800160405280600960ff168152602001600a60ff168152602001600b60ff168152602001600c60ff1681525060049060046200004792919062000373565b503480156200005557600080fd5b50604051620039803803806200398083398181016040528101906200007b919062000446565b60008060006101000a81548160ff021916908315150217905550620000aa6000801b336200020f60201b60201c565b81600260006101000a81548173ffffffffffffffffffffffffffffffffffffffff021916908373ffffffffffffffffffffffffffffffffffffffff16021790555080600360006101000a81548173ffffffffffffffffffffffffffffffffffffffff021916908373ffffffffffffffffffffffffffffffffffffffff16021790555060005b60048110156200019357600160086000600484600481106200015657620001556200048d565b5b0154815260200190815260200160002060006101000a81548160ff02191690831515021790555080806200018a90620004f5565b9150506200012f565b5060005b6004811015620002065760006040518060400160405280600081526020016000815250905080600a8360048110620001d457620001d36200048d565b5b600202016000820151816000015560208201518160010155905050508080620001fd90620004f5565b91505062000197565b50505062000542565b6200022182826200030060201b60201c565b620002fc57600180600084815260200190815260200160002060000160008373ffffffffffffffffffffffffffffffffffffffff1673ffffffffffffffffffffffffffffffffffffffff16815260200190815260200160002060006101000a81548160ff021916908315150217905550620002a16200036b60201b60201c565b73ffffffffffffffffffffffffffffffffffffffff168173ffffffffffffffffffffffffffffffffffffffff16837f2f8788117e7eff1d82e926ec794901d17c78024a50270940304540a733656f0d60405160405180910390a45b5050565b60006001600084815260200190815260200160002060000160008373ffffffffffffffffffffffffffffffffffffffff1673ffffffffffffffffffffffffffffffffffffffff16815260200190815260200160002060009054906101000a900460ff16905092915050565b600033905090565b8260048101928215620003aa579160200282015b82811115620003a9578251829060ff1690559160200191906001019062000387565b5b509050620003b99190620003bd565b5090565b5b80821115620003d8576000816000905550600101620003be565b5090565b600080fd5b600073ffffffffffffffffffffffffffffffffffffffff82169050919050565b60006200040e82620003e1565b9050919050565b620004208162000401565b81146200042c57600080fd5b50565b600081519050620004408162000415565b92915050565b6000806040838503121562000460576200045f620003dc565b5b600062000470858286016200042f565b925050602062000483858286016200042f565b9150509250929050565b7f4e487b7100000000000000000000000000000000000000000000000000000000600052603260045260246000fd5b7f4e487b7100000000000000000000000000000000000000000000000000000000600052601160045260246000fd5b6000819050919050565b60006200050282620004eb565b91507fffffffffffffffffffffffffffffffffffffffffffffffffffffffffffffffff8203620005375762000536620004bc565b5b600182019050919050565b61342e80620005526000396000f3fe608060405234801561001057600080fd5b50600436106101735760003560e01c806345c0403a116100de578063b58634fe11610097578063c751600a11610071578063c751600a14610463578063d547741f14610482578063dab397081461049e578063ddc63262146104bc57610173565b8063b58634fe146103e1578063b62888bd146103ff578063c4f0c1fc1461043057610173565b806345c0403a1461031d5780635c975abb1461034d5780638456cb591461036b57806391d1485414610375578063a217fddf146103a5578063b3e78bed146103c357610173565b80632f2ff15d116101305780632f2ff15d1461027157806333c400aa1461028d57806336568abe146102bd57806339533a4f146102d95780633bccdd69146102f75780633f4ba83a1461031357610173565b806301ffc9a71461017857806316f60557146101a85780631aa16ec4146101c45780631d80cf32146101f5578063248a9ca3146102255780632e1a7d4d14610255575b600080fd5b610192600480360381019061018d9190611f25565b6104d8565b60405161019f9190611f6d565b60405180910390f35b6101c260048036038101906101bd9190612117565b610552565b005b6101de60048036038101906101d99190612173565b610b2e565b6040516101ec9291906121af565b60405180910390f35b61020f600480360381019061020a9190612173565b610b58565b60405161021c9190611f6d565b60405180910390f35b61023f600480360381019061023a919061220e565b610b78565b60405161024c919061224a565b60405180910390f35b61026f600480360381019061026a9190612173565b610b98565b005b61028b600480360381019061028691906122c3565b61109f565b005b6102a760048036038101906102a29190612173565b6110c0565b6040516102b491906123c1565b60405180910390f35b6102d760048036038101906102d291906122c3565b61112e565b005b6102e16111b1565b6040516102ee91906123ff565b60405180910390f35b610311600480360381019061030c9190612446565b6111b6565b005b61031b611351565b005b61033760048036038101906103329190612173565b611369565b60405161034491906124c1565b60405180910390f35b610355611384565b6040516103629190611f6d565b60405180910390f35b61037361139a565b005b61038f600480360381019061038a91906122c3565b6113b2565b60405161039c9190611f6d565b60405180910390f35b6103ad61141d565b6040516103ba919061224a565b60405180910390f35b6103cb611424565b6040516103d891906124eb565b60405180910390f35b6103e961144a565b6040516103f691906124c1565b60405180910390f35b61041960048036038101906104149190612173565b611450565b604051610427929190612506565b60405180910390f35b61044a60048036038101906104459190612173565b611494565b60405161045a949392919061252f565b60405180910390f35b61046b6114d1565b60405161047992919061263f565b60405180910390f35b61049c600480360381019061049791906122c3565b611540565b005b6104a6611561565b6040516104b391906126c8565b60405180910390f35b6104d660048036038101906104d19190612173565b611587565b005b60007f7965db0b000000000000000000000000000000000000000000000000000000007bffffffffffffffffffffffffffffffffffffffffffffffffffffffff1916827bffffffffffffffffffffffffffffffffffffffffffffffffffffffff1916148061054b575061054a82611783565b5b9050919050565b61055a611384565b1561059a576040517f08c379a000000000000000000000000000000000000000000000000000000000815260040161059190612740565b60405180910390fd5b6008600083815260200190815260200160002060009054906101000a900460ff1615156001151514610601576040517f08c379a00000000000000000000000000000000000000000000000000000000081526004016105f8906127d2565b60405180910390fd5b426012600084815260200190815260200160002060000154111561065a576040517f08c379a000000000000000000000000000000000000000000000000000000000815260040161065190612864565b60405180910390fd5b42601260008481526020019081526020016000206001015410156106b3576040517f08c379a00000000000000000000000000000000000000000000000000000000081526004016106aa906128f6565b60405180910390fd5b80516012600084815260200190815260200160002060020160009054906101000a900460ff1660ff161461071c576040517f08c379a000000000000000000000000000000000000000000000000000000000815260040161071390612988565b60405180910390fd5b60005b6012600084815260200190815260200160002060020160009054906101000a900460ff1660ff16811015610883573373ffffffffffffffffffffffffffffffffffffffff16600260009054906101000a900473ffffffffffffffffffffffffffffffffffffffff1673ffffffffffffffffffffffffffffffffffffffff16636352211e8484815181106107b5576107b46129a8565b5b60200260200101516040518263ffffffff1660e01b81526004016107d991906124c1565b602060405180830381865afa1580156107f6573d6000803e3d6000fd5b505050506040513d601f19601f8201168201806040525081019061081a91906129ec565b73ffffffffffffffffffffffffffffffffffffffff1614610870576040517f08c379a000000000000000000000000000000000000000000000000000000000815260040161086790612a8b565b60405180910390fd5b808061087b90612ada565b91505061071f565b5060096000815461089390612ada565b9190508190555060005b6012600084815260200190815260200160002060020160009054906101000a900460ff1660ff168110156109ab57600260009054906101000a900473ffffffffffffffffffffffffffffffffffffffff1673ffffffffffffffffffffffffffffffffffffffff166342842e0e33600360009054906101000a900473ffffffffffffffffffffffffffffffffffffffff168585815181106109405761093f6129a8565b5b60200260200101516040518463ffffffff1660e01b815260040161096693929190612b22565b600060405180830381600087803b15801561098057600080fd5b505af1158015610994573d6000803e3d6000fd5b5050505080806109a390612ada565b91505061089d565b5060006013600060095481526020019081526020016000209050338160000160006101000a81548173ffffffffffffffffffffffffffffffffffffffff021916908373ffffffffffffffffffffffffffffffffffffffff16021790555082816001018190555081816002019080519060200190610a29929190611de7565b506012600084815260200190815260200160002060020160009054906101000a900460ff1660ff16600a600960ff1685610a639190612b59565b60048110610a7457610a736129a8565b5b600202016000016000828254610a8a9190612b8d565b925050819055506001600a600960ff1685610aa59190612b59565b60048110610ab657610ab56129a8565b5b600202016001016000828254610acc9190612b8d565b925050819055503373ffffffffffffffffffffffffffffffffffffffff167f1ee5ed85e4ccf21a09b0d94bae9ce3d430778ea6ca542ab05c99001e69884293438560095486604051610b219493929190612be3565b60405180910390a2505050565b600a8160048110610b3e57600080fd5b600202016000915090508060000154908060010154905082565b60086020528060005260406000206000915054906101000a900460ff1681565b600060016000838152602001908152602001600020600101549050919050565b610ba0611384565b15610be0576040517f08c379a0000000000000000000000000000000000000000000000000000000008152600401610bd790612740565b60405180910390fd5b6012600060136000848152602001908152602001600020600101548152602001908152602001600020600301544211610c4e576040517f08c379a0000000000000000000000000000000000000000000000000000000008152600401610c4590612ca1565b60405180910390fd5b600073ffffffffffffffffffffffffffffffffffffffff166013600083815260200190815260200160002060000160009054906101000a900473ffffffffffffffffffffffffffffffffffffffff1673ffffffffffffffffffffffffffffffffffffffff1603610cf3576040517f08c379a0000000000000000000000000000000000000000000000000000000008152600401610cea90612d33565b60405180910390fd5b3373ffffffffffffffffffffffffffffffffffffffff166013600083815260200190815260200160002060000160009054906101000a900473ffffffffffffffffffffffffffffffffffffffff1673ffffffffffffffffffffffffffffffffffffffff1614610d97576040517f08c379a0000000000000000000000000000000000000000000000000000000008152600401610d8e90612dc5565b60405180910390fd5b601260006013600084815260200190815260200160002060010154815260200190815260200160002060020160009054906101000a900460ff1660ff16600a600960ff166013600085815260200190815260200160002060010154610dfc9190612b59565b60048110610e0d57610e0c6129a8565b5b600202016000016000828254610e239190612b59565b925050819055506001600a600960ff166013600085815260200190815260200160002060010154610e549190612b59565b60048110610e6557610e646129a8565b5b600202016001016000828254610e7b9190612b59565b92505081905550600060136000838152602001908152602001600020600201805480602002602001604051908101604052809291908181526020018280548015610ee457602002820191906000526020600020905b815481526020019060010190808311610ed0575b5050505050905060006013600084815260200190815260200160002060010154905060136000848152602001908152602001600020600080820160006101000a81549073ffffffffffffffffffffffffffffffffffffffff02191690556001820160009055600282016000610f599190611e34565b505060005b825181101561104757600260009054906101000a900473ffffffffffffffffffffffffffffffffffffffff1673ffffffffffffffffffffffffffffffffffffffff166342842e0e600360009054906101000a900473ffffffffffffffffffffffffffffffffffffffff1633868581518110610fdc57610fdb6129a8565b5b60200260200101516040518463ffffffff1660e01b815260040161100293929190612b22565b600060405180830381600087803b15801561101c57600080fd5b505af1158015611030573d6000803e3d6000fd5b50505050808061103f90612ada565b915050610f5e565b503373ffffffffffffffffffffffffffffffffffffffff167f02f25270a4d87bea75db541cdfe559334a275b4a233520ed6c0a2429667cca9443838660405161109293929190612de5565b60405180910390a2505050565b6110a882610b78565b6110b1816117ed565b6110bb8383611801565b505050565b60606013600083815260200190815260200160002060020180548060200260200160405190810160405280929190818152602001828054801561112257602002820191906000526020600020905b81548152602001906001019080831161110e575b50505050509050919050565b6111366118e1565b73ffffffffffffffffffffffffffffffffffffffff168173ffffffffffffffffffffffffffffffffffffffff16146111a3576040517f08c379a000000000000000000000000000000000000000000000000000000000815260040161119a90612e8e565b60405180910390fd5b6111ad82826118e9565b5050565b600981565b6000801b6111c3816117ed565b60126000878152602001908152602001600020600001546000146112b65760126000878152602001908152602001600020600001548411611239576040517f08c379a000000000000000000000000000000000000000000000000000000000815260040161123090612f20565b60405180910390fd5b42841161127b576040517f08c379a000000000000000000000000000000000000000000000000000000000815260040161127290612fb2565b60405180910390fd5b836012600088815260200190815260200160002060010181905550816012600088815260200190815260200160002060030181905550611349565b4284116112f8576040517f08c379a00000000000000000000000000000000000000000000000000000000081526004016112ef90612fb2565b60405180910390fd5b6000601260008881526020019081526020016000209050858160000181905550848160010181905550838160020160006101000a81548160ff021916908360ff160217905550828160030181905550505b505050505050565b6000801b61135e816117ed565b6113666119cb565b50565b6004816004811061137957600080fd5b016000915090505481565b60008060009054906101000a900460ff16905090565b6000801b6113a7816117ed565b6113af611a6c565b50565b60006001600084815260200190815260200160002060000160008373ffffffffffffffffffffffffffffffffffffffff1673ffffffffffffffffffffffffffffffffffffffff16815260200190815260200160002060009054906101000a900460ff16905092915050565b6000801b81565b600360009054906101000a900473ffffffffffffffffffffffffffffffffffffffff1681565b60095481565b60136020528060005260406000206000915090508060000160009054906101000a900473ffffffffffffffffffffffffffffffffffffffff16908060010154905082565b60126020528060005260406000206000915090508060000154908060010154908060020160009054906101000a900460ff16908060030154905084565b60006114db611e55565b43600a80600480602002604051908101604052809291906000905b828210156115325783826002020160405180604001604052908160008201548152602001600182015481525050815260200190600101906114f6565b505050509050915091509091565b61154982610b78565b611552816117ed565b61155c83836118e9565b505050565b600260009054906101000a900473ffffffffffffffffffffffffffffffffffffffff1681565b61158f611384565b156115cf576040517f08c379a00000000000000000000000000000000000000000000000000000000081526004016115c690612740565b60405180910390fd5b600073ffffffffffffffffffffffffffffffffffffffff166013600083815260200190815260200160002060000160009054906101000a900473ffffffffffffffffffffffffffffffffffffffff1673ffffffffffffffffffffffffffffffffffffffff1603611674576040517f08c379a000000000000000000000000000000000000000000000000000000000815260040161166b90613044565b60405180910390fd5b3373ffffffffffffffffffffffffffffffffffffffff166013600083815260200190815260200160002060000160009054906101000a900473ffffffffffffffffffffffffffffffffffffffff1673ffffffffffffffffffffffffffffffffffffffff1614611718576040517f08c379a000000000000000000000000000000000000000000000000000000000815260040161170f906130d6565b60405180910390fd5b3373ffffffffffffffffffffffffffffffffffffffff167f4534f107610758c3931de9ad1e176476fcfb8c74adf920167e1d54ee84fcfe764360136000858152602001908152602001600020600101548460405161177893929190612de5565b60405180910390a250565b60007f01ffc9a7000000000000000000000000000000000000000000000000000000007bffffffffffffffffffffffffffffffffffffffffffffffffffffffff1916827bffffffffffffffffffffffffffffffffffffffffffffffffffffffff1916149050919050565b6117fe816117f96118e1565b611b0e565b50565b61180b82826113b2565b6118dd57600180600084815260200190815260200160002060000160008373ffffffffffffffffffffffffffffffffffffffff1673ffffffffffffffffffffffffffffffffffffffff16815260200190815260200160002060006101000a81548160ff0219169083151502179055506118826118e1565b73ffffffffffffffffffffffffffffffffffffffff168173ffffffffffffffffffffffffffffffffffffffff16837f2f8788117e7eff1d82e926ec794901d17c78024a50270940304540a733656f0d60405160405180910390a45b5050565b600033905090565b6118f382826113b2565b156119c75760006001600084815260200190815260200160002060000160008373ffffffffffffffffffffffffffffffffffffffff1673ffffffffffffffffffffffffffffffffffffffff16815260200190815260200160002060006101000a81548160ff02191690831515021790555061196c6118e1565b73ffffffffffffffffffffffffffffffffffffffff168173ffffffffffffffffffffffffffffffffffffffff16837ff6391f5c32d9c69d2a47ea670b442974b53935d1edc7fd64eb21e047a839171b60405160405180910390a45b5050565b6119d3611384565b611a12576040517f08c379a0000000000000000000000000000000000000000000000000000000008152600401611a0990613142565b60405180910390fd5b60008060006101000a81548160ff0219169083151502179055507f5db9ee0a495bf2e6ff9c91a7834c1ba4fdd244a5e8aa4e537bd38aeae4b073aa611a556118e1565b604051611a6291906124eb565b60405180910390a1565b611a74611384565b15611ab4576040517f08c379a0000000000000000000000000000000000000000000000000000000008152600401611aab90612740565b60405180910390fd5b60016000806101000a81548160ff0219169083151502179055507f62e78cea01bee320cd4e420270b5ea74000d11b0c9f74754ebdbfc544b05a258611af76118e1565b604051611b0491906124eb565b60405180910390a1565b611b1882826113b2565b611ba757611b3d8173ffffffffffffffffffffffffffffffffffffffff166014611bab565b611b4b8360001c6020611bab565b604051602001611b5c929190613274565b6040516020818303038152906040526040517f08c379a0000000000000000000000000000000000000000000000000000000008152600401611b9e91906132e7565b60405180910390fd5b5050565b606060006002836002611bbe9190613309565b611bc89190612b8d565b67ffffffffffffffff811115611be157611be0611fd4565b5b6040519080825280601f01601f191660200182016040528015611c135781602001600182028036833780820191505090505b5090507f300000000000000000000000000000000000000000000000000000000000000081600081518110611c4b57611c4a6129a8565b5b60200101907effffffffffffffffffffffffffffffffffffffffffffffffffffffffffffff1916908160001a9053507f780000000000000000000000000000000000000000000000000000000000000081600181518110611caf57611cae6129a8565b5b60200101907effffffffffffffffffffffffffffffffffffffffffffffffffffffffffffff1916908160001a90535060006001846002611cef9190613309565b611cf99190612b8d565b90505b6001811115611d99577f3031323334353637383961626364656600000000000000000000000000000000600f861660108110611d3b57611d3a6129a8565b5b1a60f81b828281518110611d5257611d516129a8565b5b60200101907effffffffffffffffffffffffffffffffffffffffffffffffffffffffffffff1916908160001a905350600485901c945080611d9290613363565b9050611cfc565b5060008414611ddd576040517f08c379a0000000000000000000000000000000000000000000000000000000008152600401611dd4906133d8565b60405180910390fd5b8091505092915050565b828054828255906000526020600020908101928215611e23579160200282015b82811115611e22578251825591602001919060010190611e07565b5b509050611e309190611e82565b5090565b5080546000825590600052602060002090810190611e529190611e82565b50565b60405180608001604052806004905b611e6c611e9f565b815260200190600190039081611e645790505090565b5b80821115611e9b576000816000905550600101611e83565b5090565b604051806040016040528060008152602001600081525090565b6000604051905090565b600080fd5b600080fd5b60007fffffffff0000000000000000000000000000000000000000000000000000000082169050919050565b611f0281611ecd565b8114611f0d57600080fd5b50565b600081359050611f1f81611ef9565b92915050565b600060208284031215611f3b57611f3a611ec3565b5b6000611f4984828501611f10565b91505092915050565b60008115159050919050565b611f6781611f52565b82525050565b6000602082019050611f826000830184611f5e565b92915050565b6000819050919050565b611f9b81611f88565b8114611fa657600080fd5b50565b600081359050611fb881611f92565b92915050565b600080fd5b6000601f19601f8301169050919050565b7f4e487b7100000000000000000000000000000000000000000000000000000000600052604160045260246000fd5b61200c82611fc3565b810181811067ffffffffffffffff8211171561202b5761202a611fd4565b5b80604052505050565b600061203e611eb9565b905061204a8282612003565b919050565b600067ffffffffffffffff82111561206a57612069611fd4565b5b602082029050602081019050919050565b600080fd5b600061209361208e8461204f565b612034565b905080838252602082019050602084028301858111156120b6576120b561207b565b5b835b818110156120df57806120cb8882611fa9565b8452602084019350506020810190506120b8565b5050509392505050565b600082601f8301126120fe576120fd611fbe565b5b813561210e848260208601612080565b91505092915050565b6000806040838503121561212e5761212d611ec3565b5b600061213c85828601611fa9565b925050602083013567ffffffffffffffff81111561215d5761215c611ec8565b5b612169858286016120e9565b9150509250929050565b60006020828403121561218957612188611ec3565b5b600061219784828501611fa9565b91505092915050565b6121a981611f88565b82525050565b60006040820190506121c460008301856121a0565b6121d160208301846121a0565b9392505050565b6000819050919050565b6121eb816121d8565b81146121f657600080fd5b50565b600081359050612208816121e2565b92915050565b60006020828403121561222457612223611ec3565b5b6000612232848285016121f9565b91505092915050565b612244816121d8565b82525050565b600060208201905061225f600083018461223b565b92915050565b600073ffffffffffffffffffffffffffffffffffffffff82169050919050565b600061229082612265565b9050919050565b6122a081612285565b81146122ab57600080fd5b50565b6000813590506122bd81612297565b92915050565b600080604083850312156122da576122d9611ec3565b5b60006122e8858286016121f9565b92505060206122f9858286016122ae565b9150509250929050565b600081519050919050565b600082825260208201905092915050565b6000819050602082019050919050565b61233881611f88565b82525050565b600061234a838361232f565b60208301905092915050565b6000602082019050919050565b600061236e82612303565b612378818561230e565b93506123838361231f565b8060005b838110156123b457815161239b888261233e565b97506123a683612356565b925050600181019050612387565b5085935050505092915050565b600060208201905081810360008301526123db8184612363565b905092915050565b600060ff82169050919050565b6123f9816123e3565b82525050565b600060208201905061241460008301846123f0565b92915050565b612423816123e3565b811461242e57600080fd5b50565b6000813590506124408161241a565b92915050565b600080600080600060a0868803121561246257612461611ec3565b5b600061247088828901611fa9565b955050602061248188828901611fa9565b945050604061249288828901611fa9565b93505060606124a388828901612431565b92505060806124b488828901611fa9565b9150509295509295909350565b60006020820190506124d660008301846121a0565b92915050565b6124e581612285565b82525050565b600060208201905061250060008301846124dc565b92915050565b600060408201905061251b60008301856124dc565b61252860208301846121a0565b9392505050565b600060808201905061254460008301876121a0565b61255160208301866121a0565b61255e60408301856123f0565b61256b60608301846121a0565b95945050505050565b600060049050919050565b600081905092915050565b6000819050919050565b6040820160008201516125aa600085018261232f565b5060208201516125bd602085018261232f565b50505050565b60006125cf8383612594565b60408301905092915050565b6000602082019050919050565b6125f181612574565b6125fb818461257f565b92506126068261258a565b8060005b8381101561263757815161261e87826125c3565b9650612629836125db565b92505060018101905061260a565b505050505050565b60006101208201905061265560008301856121a0565b61266260208301846125e8565b9392505050565b6000819050919050565b600061268e61268961268484612265565b612669565b612265565b9050919050565b60006126a082612673565b9050919050565b60006126b282612695565b9050919050565b6126c2816126a7565b82525050565b60006020820190506126dd60008301846126b9565b92915050565b600082825260208201905092915050565b7f5061757361626c653a2070617573656400000000000000000000000000000000600082015250565b600061272a6010836126e3565b9150612735826126f4565b602082019050919050565b600060208201905081810360008301526127598161271d565b9050919050565b7f5b544b4d5374616b696e67325d5b7374616b655d3a20696e76616c696420737460008201527f616b652069640000000000000000000000000000000000000000000000000000602082015250565b60006127bc6026836126e3565b91506127c782612760565b604082019050919050565b600060208201905081810360008301526127eb816127af565b9050919050565b7f5b544b4d5374616b696e67325d5b7374616b696e675d3a207374616b696e672060008201527f6973206e6f742073746172746564000000000000000000000000000000000000602082015250565b600061284e602e836126e3565b9150612859826127f2565b604082019050919050565b6000602082019050818103600083015261287d81612841565b9050919050565b7f5b544b4d5374616b696e67325d5b7374616b696e675d3a207374616b696e672060008201527f697320656e646564000000000000000000000000000000000000000000000000602082015250565b60006128e06028836126e3565b91506128eb82612884565b604082019050919050565b6000602082019050818103600083015261290f816128d3565b9050919050565b7f5b544b4d5374616b696e67325d5b7374616b696e675d3a206e6f74206571756160008201527f6c206e6674416d6f756e74000000000000000000000000000000000000000000602082015250565b6000612972602b836126e3565b915061297d82612916565b604082019050919050565b600060208201905081810360008301526129a181612965565b9050919050565b7f4e487b7100000000000000000000000000000000000000000000000000000000600052603260045260246000fd5b6000815190506129e681612297565b92915050565b600060208284031215612a0257612a01611ec3565b5b6000612a10848285016129d7565b91505092915050565b7f5b544b4d5374616b696e67325d5b7374616b696e675d3a206f776e657220696e60008201527f76616c6964000000000000000000000000000000000000000000000000000000602082015250565b6000612a756025836126e3565b9150612a8082612a19565b604082019050919050565b60006020820190508181036000830152612aa481612a68565b9050919050565b7f4e487b7100000000000000000000000000000000000000000000000000000000600052601160045260246000fd5b6000612ae582611f88565b91507fffffffffffffffffffffffffffffffffffffffffffffffffffffffffffffffff8203612b1757612b16612aab565b5b600182019050919050565b6000606082019050612b3760008301866124dc565b612b4460208301856124dc565b612b5160408301846121a0565b949350505050565b6000612b6482611f88565b9150612b6f83611f88565b925082821015612b8257612b81612aab565b5b828203905092915050565b6000612b9882611f88565b9150612ba383611f88565b9250827fffffffffffffffffffffffffffffffffffffffffffffffffffffffffffffffff03821115612bd857612bd7612aab565b5b828201905092915050565b6000608082019050612bf860008301876121a0565b612c0560208301866121a0565b612c1260408301856121a0565b8181036060830152612c248184612363565b905095945050505050565b7f5b544b4d5374616b696e67325d5b77697468647261775d3a207769746864726160008201527f772074696d65206973207374696c6c206c656674000000000000000000000000602082015250565b6000612c8b6034836126e3565b9150612c9682612c2f565b604082019050919050565b60006020820190508181036000830152612cba81612c7e565b9050919050565b7f5b544b4d5374616b696e67325d5b77697468647261775d3a206e6f742065786960008201527f7374207374616b696e6720646174610000000000000000000000000000000000602082015250565b6000612d1d602f836126e3565b9150612d2882612cc1565b604082019050919050565b60006020820190508181036000830152612d4c81612d10565b9050919050565b7f5b544b4d5374616b696e67325d5b77697468647261775d3a206e6f74204f776e60008201527f6572000000000000000000000000000000000000000000000000000000000000602082015250565b6000612daf6022836126e3565b9150612dba82612d53565b604082019050919050565b60006020820190508181036000830152612dde81612da2565b9050919050565b6000606082019050612dfa60008301866121a0565b612e0760208301856121a0565b612e1460408301846121a0565b949350505050565b7f416363657373436f6e74726f6c3a2063616e206f6e6c792072656e6f756e636560008201527f20726f6c657320666f722073656c660000000000000000000000000000000000602082015250565b6000612e78602f836126e3565b9150612e8382612e1c565b604082019050919050565b60006020820190508181036000830152612ea781612e6b565b9050919050565b7f5b544b4d5374616b696e67325d5b7365745374616b696e675d3a205f656e645460008201527f696d6520697320756e646572205f737461727454696d65000000000000000000602082015250565b6000612f0a6037836126e3565b9150612f1582612eae565b604082019050919050565b60006020820190508181036000830152612f3981612efd565b9050919050565b7f5b544b4d5374616b696e67325d5b7365745374616b696e675d3a205f656e645460008201527f696d6520697320756e646572206e6f7700000000000000000000000000000000602082015250565b6000612f9c6030836126e3565b9150612fa782612f40565b604082019050919050565b60006020820190508181036000830152612fcb81612f8f565b9050919050565b7f5b544b4d5374616b696e67325d5b686172766573745d3a206e6f74206578697360008201527f74207374616b696e672064617461000000000000000000000000000000000000602082015250565b600061302e602e836126e3565b915061303982612fd2565b604082019050919050565b6000602082019050818103600083015261305d81613021565b9050919050565b7f5b544b4d5374616b696e67325d5b686172766573745d3a206e6f74204f776e6560008201527f7200000000000000000000000000000000000000000000000000000000000000602082015250565b60006130c06021836126e3565b91506130cb82613064565b604082019050919050565b600060208201905081810360008301526130ef816130b3565b9050919050565b7f5061757361626c653a206e6f7420706175736564000000000000000000000000600082015250565b600061312c6014836126e3565b9150613137826130f6565b602082019050919050565b6000602082019050818103600083015261315b8161311f565b9050919050565b600081905092915050565b7f416363657373436f6e74726f6c3a206163636f756e7420000000000000000000600082015250565b60006131a3601783613162565b91506131ae8261316d565b601782019050919050565b600081519050919050565b60005b838110156131e25780820151818401526020810190506131c7565b838111156131f1576000848401525b50505050565b6000613202826131b9565b61320c8185613162565b935061321c8185602086016131c4565b80840191505092915050565b7f206973206d697373696e6720726f6c6520000000000000000000000000000000600082015250565b600061325e601183613162565b915061326982613228565b601182019050919050565b600061327f82613196565b915061328b82856131f7565b915061329682613251565b91506132a282846131f7565b91508190509392505050565b60006132b9826131b9565b6132c381856126e3565b93506132d38185602086016131c4565b6132dc81611fc3565b840191505092915050565b6000602082019050818103600083015261330181846132ae565b905092915050565b600061331482611f88565b915061331f83611f88565b9250817fffffffffffffffffffffffffffffffffffffffffffffffffffffffffffffffff048311821515161561335857613357612aab565b5b828202905092915050565b600061336e82611f88565b91506000820361338157613380612aab565b5b600182039050919050565b7f537472696e67733a20686578206c656e67746820696e73756666696369656e74600082015250565b60006133c26020836126e3565b91506133cd8261338c565b602082019050919050565b600060208201905081810360008301526133f1816133b5565b905091905056fea2646970667358221220a7b943368306987bfc39be05745004baa1ed437652b23fd6b4f582e6da26161264736f6c634300080e0033",
  "immutableReferences": {},
  "source": "// SPDX-License-Identifier: MIT\r\npragma solidity ^0.8.14;\r\n\r\nimport \"@openzeppelin/contracts/token/ERC721/ERC721.sol\";\r\nimport \"@openzeppelin/contracts/security/Pausable.sol\";\r\nimport \"@openzeppelin/contracts/access/AccessControl.sol\";\r\n\r\ncontract TKMStaking2 is Pausable, AccessControl {\r\n    ERC721 public TKMNft; // tkm nft\r\n    address public NftHolder; // NFT   \r\n\r\n    uint8 public constant gapIndex = 9; // TKMStaking1,2  \r\n\r\n    // stakeId (9 ~ 12: 3km)\r\n    uint256[4] public stakeIdList = [9, 10, 11, 12];\r\n    mapping(uint256 => bool) public stakeIds;\r\n\r\n    //  \r\n    uint256 public stakingIdx;\r\n\r\n    struct stakedInfo {\r\n        uint256 nftCount; \r\n        uint256 walletCount;\r\n    }\r\n    \r\n    //  \r\n    stakedInfo[4] public stakedInfoList;\r\n\r\n    //  ( ,  , stakeId,  , nft id )\r\n    event Stake(address indexed from, uint256 blockNumber, uint256 stakeId, uint256 stakingIdx, uint256[] ids);\r\n    //  \r\n    event Withdraw(address indexed from, uint256 blockNumber, uint256 stakeId, uint256 stakingIdx);\r\n    //  \r\n    event Harvest(address indexed from, uint256 blockNumber, uint256 stakeId, uint256 stakingIdx);\r\n\r\n    /////////////////////////////////////////////////////\r\n    // Staking\r\n    // Staking \r\n    struct staking {\r\n        uint256 startTime; //  \r\n        uint256 endTime; //  \r\n        uint8 nftAmount; // 1   NFT (1, 3, 5, 7)\r\n        uint256 withdrawTime; //   \r\n    }\r\n\r\n    // stake id \r\n    mapping(uint256 => staking) public stakings;\r\n\r\n    //  \r\n    struct stakingProgress {\r\n        address user; //   \r\n        uint256 stakeId; // stake id\r\n        uint256[] ids; //  NFT ID\r\n    }\r\n\r\n    //  (  =>  )\r\n    mapping(uint256 => stakingProgress) public progressing;\r\n\r\n    constructor(address _TKMNft, address _NftHolder) {\r\n        _grantRole(DEFAULT_ADMIN_ROLE, msg.sender);\r\n        TKMNft = ERC721(payable(_TKMNft));\r\n        NftHolder = _NftHolder;\r\n\r\n        // stake id \r\n        for (uint256 i = 0; i < stakeIdList.length; i++) {\r\n            stakeIds[stakeIdList[i]] = true;\r\n        }\r\n\r\n        // stakedInfo \r\n        for (uint256 i = 0; i < stakeIdList.length; i++) {\r\n            stakedInfo memory info = stakedInfo(0, 0);\r\n            stakedInfoList[i] = info;\r\n        }\r\n    }\r\n\r\n    function pause() public onlyRole(DEFAULT_ADMIN_ROLE) {\r\n        _pause();\r\n    }\r\n\r\n    function unpause() public onlyRole(DEFAULT_ADMIN_ROLE) {\r\n        _unpause();\r\n    }\r\n\r\n    //   \r\n    function setStaking(\r\n        uint256 _stakeId,\r\n        uint256 _startTime,\r\n        uint256 _endTime,\r\n        uint8 _nftAmount,\r\n        uint256 _withdrawTime\r\n    ) public onlyRole(DEFAULT_ADMIN_ROLE) {\r\n        //  ,    \r\n        if(0 != stakings[_stakeId].startTime) {\r\n            require(_endTime > stakings[_stakeId].startTime, \"[TKMStaking2][setStaking]: _endTime is under _startTime\");\r\n            require(_endTime > block.timestamp, \"[TKMStaking2][setStaking]: _endTime is under now\");\r\n            stakings[_stakeId].endTime = _endTime;\r\n            stakings[_stakeId].withdrawTime = _withdrawTime;\r\n            return;\r\n        }\r\n\r\n        //  \r\n        require(_endTime > block.timestamp, \"[TKMStaking2][setStaking]: _endTime is under now\");\r\n\r\n        staking storage newStake = stakings[_stakeId];\r\n        newStake.startTime = _startTime;\r\n        newStake.endTime = _endTime;\r\n        newStake.nftAmount = _nftAmount;\r\n        newStake.withdrawTime = _withdrawTime;\r\n    }\r\n\r\n    //  \r\n    function stake(uint256 _stakeId, uint256[] memory _ids) public whenNotPaused {\r\n        // stake id \r\n        require(true == stakeIds[_stakeId], \"[TKMStaking2][stake]: invalid stake id\");\r\n\r\n        //  \r\n        require(stakings[_stakeId].startTime <= block.timestamp, \"[TKMStaking2][staking]: staking is not started\");\r\n        require(stakings[_stakeId].endTime >= block.timestamp, \"[TKMStaking2][staking]: staking is ended\");\r\n\r\n        // nft  \r\n        require(stakings[_stakeId].nftAmount == _ids.length, \"[TKMStaking2][staking]: not equal nftAmount\");\r\n\r\n        //  \r\n        for (uint256 i = 0; i < stakings[_stakeId].nftAmount; i++) {\r\n            require(TKMNft.ownerOf(_ids[i]) == msg.sender, \"[TKMStaking2][staking]: owner invalid\");\r\n        }\r\n\r\n        //   \r\n        ++stakingIdx;\r\n        for (uint256 i = 0; i < stakings[_stakeId].nftAmount; i++) {\r\n            TKMNft.safeTransferFrom(msg.sender, NftHolder, _ids[i]);\r\n        }\r\n\r\n        //  \r\n        stakingProgress storage progress = progressing[stakingIdx];\r\n        progress.user = msg.sender;\r\n        progress.stakeId = _stakeId;\r\n        progress.ids = _ids;\r\n\r\n        // stakedInfo \r\n        stakedInfoList[_stakeId - gapIndex].nftCount += stakings[_stakeId].nftAmount;\r\n        stakedInfoList[_stakeId - gapIndex].walletCount += 1;\r\n\r\n        emit Stake(msg.sender, block.number, _stakeId, stakingIdx, _ids);\r\n    }\r\n\r\n    // \r\n    function withdraw(uint256 _stakingIdx) public whenNotPaused {\r\n        //    \r\n        require(block.timestamp > stakings[progressing[_stakingIdx].stakeId].withdrawTime, \"[TKMStaking2][withdraw]: withdraw time is still left\");\r\n\r\n        //      \r\n        require(progressing[_stakingIdx].user != address(0), \"[TKMStaking2][withdraw]: not exist staking data\");\r\n        require(progressing[_stakingIdx].user == msg.sender, \"[TKMStaking2][withdraw]: not Owner\");\r\n\r\n        // stakedInfo \r\n        stakedInfoList[progressing[_stakingIdx].stakeId - gapIndex].nftCount -= stakings[progressing[_stakingIdx].stakeId].nftAmount;\r\n        stakedInfoList[progressing[_stakingIdx].stakeId - gapIndex].walletCount -= 1;\r\n\r\n        //  \r\n        uint256[] memory ids = progressing[_stakingIdx].ids;\r\n        uint256 stakeId = progressing[_stakingIdx].stakeId;\r\n        delete progressing[_stakingIdx];\r\n\r\n        // nft \r\n        for (uint256 i = 0; i < ids.length; i++) {\r\n            TKMNft.safeTransferFrom(NftHolder, msg.sender, ids[i]);\r\n        }\r\n\r\n        emit Withdraw(msg.sender, block.number, stakeId, _stakingIdx);\r\n    }\r\n\r\n    // harvest\r\n    function harvest(uint256 _stakingIdx) public whenNotPaused {\r\n        //      \r\n        require(progressing[_stakingIdx].user != address(0), \"[TKMStaking2][harvest]: not exist staking data\");\r\n        require(progressing[_stakingIdx].user == msg.sender, \"[TKMStaking2][harvest]: not Owner\");\r\n\r\n        emit Harvest(msg.sender, block.number, progressing[_stakingIdx].stakeId, _stakingIdx);\r\n    }\r\n\r\n    function getIds(uint256 _stakingIdx) public view returns (uint256[] memory ids) {\r\n        return progressing[_stakingIdx].ids;\r\n    }\r\n\r\n    function getStakedInfo() public view returns (uint256 blockNumber, stakedInfo[4] memory stakedList) {\r\n        return (block.number, stakedInfoList);\r\n    }\r\n}\r\n",
  "sourcePath": "C:\\Works\\1_Github\\solidity_tinyping\\contracts\\TKMStaking2.sol",
  "compiler": {
    "name": "solc",
    "version": "0.8.14+commit.80d49f37.Emscripten.clang"
  },
  "schemaVersion": "3.4.7",
  "updatedAt": "2023-01-30T08:54:06.027Z",
  "networkType": "ethereum",
  "devdoc": {
    "kind": "dev",
    "methods": {
      "getRoleAdmin(bytes32)": {
        "details": "Returns the admin role that controls `role`. See {grantRole} and {revokeRole}. To change a role's admin, use {_setRoleAdmin}."
      },
      "grantRole(bytes32,address)": {
        "details": "Grants `role` to `account`. If `account` had not been already granted `role`, emits a {RoleGranted} event. Requirements: - the caller must have ``role``'s admin role."
      },
      "hasRole(bytes32,address)": {
        "details": "Returns `true` if `account` has been granted `role`."
      },
      "paused()": {
        "details": "Returns true if the contract is paused, and false otherwise."
      },
      "renounceRole(bytes32,address)": {
        "details": "Revokes `role` from the calling account. Roles are often managed via {grantRole} and {revokeRole}: this function's purpose is to provide a mechanism for accounts to lose their privileges if they are compromised (such as when a trusted device is misplaced). If the calling account had been revoked `role`, emits a {RoleRevoked} event. Requirements: - the caller must be `account`."
      },
      "revokeRole(bytes32,address)": {
        "details": "Revokes `role` from `account`. If `account` had been granted `role`, emits a {RoleRevoked} event. Requirements: - the caller must have ``role``'s admin role."
      },
      "supportsInterface(bytes4)": {
        "details": "See {IERC165-supportsInterface}."
      }
    },
    "version": 1
  },
  "userdoc": {
    "kind": "user",
    "methods": {},
    "version": 1
  }
}