{
  "contractName": "TKMMarketTkm",
  "abi": [
    {
      "inputs": [
        {
          "internalType": "address",
          "name": "_TokenContract",
          "type": "address"
        },
        {
          "internalType": "address",
          "name": "_NFTContract",
          "type": "address"
        },
        {
          "internalType": "address",
          "name": "_holder",
          "type": "address"
        },
        {
          "internalType": "address[2]",
          "name": "_feeOwner",
          "type": "address[2]"
        }
      ],
      "stateMutability": "nonpayable",
      "type": "constructor"
    },
    {
      "anonymous": false,
      "inputs": [
        {
          "indexed": true,
          "internalType": "address",
          "name": "from",
          "type": "address"
        },
        {
          "indexed": true,
          "internalType": "uint256",
          "name": "tokenId",
          "type": "uint256"
        },
        {
          "indexed": false,
          "internalType": "uint256",
          "name": "price",
          "type": "uint256"
        },
        {
          "indexed": false,
          "internalType": "uint256",
          "name": "listingIdx",
          "type": "uint256"
        }
      ],
      "name": "Cancel",
      "type": "event"
    },
    {
      "anonymous": false,
      "inputs": [
        {
          "indexed": true,
          "internalType": "address",
          "name": "from",
          "type": "address"
        },
        {
          "indexed": true,
          "internalType": "uint256",
          "name": "tokenId",
          "type": "uint256"
        },
        {
          "indexed": false,
          "internalType": "uint256",
          "name": "price",
          "type": "uint256"
        },
        {
          "indexed": false,
          "internalType": "uint256",
          "name": "listingIdx",
          "type": "uint256"
        }
      ],
      "name": "Listing",
      "type": "event"
    },
    {
      "anonymous": false,
      "inputs": [
        {
          "indexed": true,
          "internalType": "address",
          "name": "from",
          "type": "address"
        },
        {
          "indexed": false,
          "internalType": "uint256",
          "name": "itemId",
          "type": "uint256"
        },
        {
          "indexed": false,
          "internalType": "uint256",
          "name": "amount",
          "type": "uint256"
        },
        {
          "indexed": false,
          "internalType": "uint256",
          "name": "price",
          "type": "uint256"
        },
        {
          "indexed": false,
          "internalType": "uint256",
          "name": "listingIdx",
          "type": "uint256"
        }
      ],
      "name": "ListingItem",
      "type": "event"
    },
    {
      "anonymous": false,
      "inputs": [
        {
          "indexed": true,
          "internalType": "address",
          "name": "previousOwner",
          "type": "address"
        },
        {
          "indexed": true,
          "internalType": "address",
          "name": "newOwner",
          "type": "address"
        }
      ],
      "name": "OwnershipTransferred",
      "type": "event"
    },
    {
      "anonymous": false,
      "inputs": [
        {
          "indexed": false,
          "internalType": "address",
          "name": "account",
          "type": "address"
        }
      ],
      "name": "Paused",
      "type": "event"
    },
    {
      "anonymous": false,
      "inputs": [
        {
          "indexed": true,
          "internalType": "address",
          "name": "from",
          "type": "address"
        },
        {
          "indexed": true,
          "internalType": "address",
          "name": "to",
          "type": "address"
        },
        {
          "indexed": true,
          "internalType": "uint256",
          "name": "tokenId",
          "type": "uint256"
        },
        {
          "indexed": false,
          "internalType": "uint256",
          "name": "price",
          "type": "uint256"
        },
        {
          "indexed": false,
          "internalType": "uint256",
          "name": "listingIdx",
          "type": "uint256"
        }
      ],
      "name": "Sell",
      "type": "event"
    },
    {
      "anonymous": false,
      "inputs": [
        {
          "indexed": false,
          "internalType": "address",
          "name": "account",
          "type": "address"
        }
      ],
      "name": "Unpaused",
      "type": "event"
    },
    {
      "inputs": [],
      "name": "NFTContract_",
      "outputs": [
        {
          "internalType": "contract ERC721",
          "name": "",
          "type": "address"
        }
      ],
      "stateMutability": "view",
      "type": "function",
      "constant": true
    },
    {
      "inputs": [],
      "name": "TokenContract_",
      "outputs": [
        {
          "internalType": "contract ERC20",
          "name": "",
          "type": "address"
        }
      ],
      "stateMutability": "view",
      "type": "function",
      "constant": true
    },
    {
      "inputs": [
        {
          "internalType": "uint256",
          "name": "_listingIdx",
          "type": "uint256"
        }
      ],
      "name": "cancelForce",
      "outputs": [],
      "stateMutability": "nonpayable",
      "type": "function"
    },
    {
      "inputs": [
        {
          "internalType": "uint256",
          "name": "",
          "type": "uint256"
        }
      ],
      "name": "feeOwner_",
      "outputs": [
        {
          "internalType": "address",
          "name": "",
          "type": "address"
        }
      ],
      "stateMutability": "view",
      "type": "function",
      "constant": true
    },
    {
      "inputs": [
        {
          "internalType": "uint256",
          "name": "",
          "type": "uint256"
        }
      ],
      "name": "fee_",
      "outputs": [
        {
          "internalType": "uint256",
          "name": "",
          "type": "uint256"
        }
      ],
      "stateMutability": "view",
      "type": "function",
      "constant": true
    },
    {
      "inputs": [],
      "name": "holder_",
      "outputs": [
        {
          "internalType": "address",
          "name": "",
          "type": "address"
        }
      ],
      "stateMutability": "view",
      "type": "function",
      "constant": true
    },
    {
      "inputs": [],
      "name": "listingIdx",
      "outputs": [
        {
          "internalType": "uint256",
          "name": "",
          "type": "uint256"
        }
      ],
      "stateMutability": "view",
      "type": "function",
      "constant": true
    },
    {
      "inputs": [],
      "name": "owner",
      "outputs": [
        {
          "internalType": "address",
          "name": "",
          "type": "address"
        }
      ],
      "stateMutability": "view",
      "type": "function",
      "constant": true
    },
    {
      "inputs": [],
      "name": "pause",
      "outputs": [],
      "stateMutability": "nonpayable",
      "type": "function"
    },
    {
      "inputs": [],
      "name": "paused",
      "outputs": [
        {
          "internalType": "bool",
          "name": "",
          "type": "bool"
        }
      ],
      "stateMutability": "view",
      "type": "function",
      "constant": true
    },
    {
      "inputs": [],
      "name": "renounceOwnership",
      "outputs": [],
      "stateMutability": "nonpayable",
      "type": "function"
    },
    {
      "inputs": [
        {
          "internalType": "uint256",
          "name": "",
          "type": "uint256"
        }
      ],
      "name": "sellItems",
      "outputs": [
        {
          "internalType": "uint256",
          "name": "tokenId",
          "type": "uint256"
        },
        {
          "internalType": "uint256",
          "name": "price",
          "type": "uint256"
        },
        {
          "internalType": "address",
          "name": "tokenOwner",
          "type": "address"
        }
      ],
      "stateMutability": "view",
      "type": "function",
      "constant": true
    },
    {
      "inputs": [
        {
          "internalType": "uint8",
          "name": "index",
          "type": "uint8"
        },
        {
          "internalType": "uint256",
          "name": "_fee",
          "type": "uint256"
        }
      ],
      "name": "setFee",
      "outputs": [],
      "stateMutability": "nonpayable",
      "type": "function"
    },
    {
      "inputs": [
        {
          "internalType": "uint8",
          "name": "index",
          "type": "uint8"
        },
        {
          "internalType": "address",
          "name": "_feeOwner",
          "type": "address"
        }
      ],
      "name": "setFeeOwner",
      "outputs": [],
      "stateMutability": "nonpayable",
      "type": "function"
    },
    {
      "inputs": [
        {
          "internalType": "address",
          "name": "newOwner",
          "type": "address"
        }
      ],
      "name": "transferOwnership",
      "outputs": [],
      "stateMutability": "nonpayable",
      "type": "function"
    },
    {
      "inputs": [],
      "name": "unpause",
      "outputs": [],
      "stateMutability": "nonpayable",
      "type": "function"
    },
    {
      "inputs": [
        {
          "internalType": "uint256",
          "name": "tokenId",
          "type": "uint256"
        },
        {
          "internalType": "uint256",
          "name": "price",
          "type": "uint256"
        }
      ],
      "name": "listing",
      "outputs": [],
      "stateMutability": "nonpayable",
      "type": "function"
    },
    {
      "inputs": [
        {
          "internalType": "uint256",
          "name": "itemId",
          "type": "uint256"
        },
        {
          "internalType": "uint256",
          "name": "amount",
          "type": "uint256"
        },
        {
          "internalType": "uint256",
          "name": "price",
          "type": "uint256"
        }
      ],
      "name": "listingItem",
      "outputs": [],
      "stateMutability": "nonpayable",
      "type": "function"
    },
    {
      "inputs": [
        {
          "internalType": "uint256",
          "name": "_listingIdx",
          "type": "uint256"
        }
      ],
      "name": "cancel",
      "outputs": [],
      "stateMutability": "nonpayable",
      "type": "function"
    },
    {
      "inputs": [
        {
          "internalType": "uint256",
          "name": "_listingIdx",
          "type": "uint256"
        }
      ],
      "name": "sell",
      "outputs": [],
      "stateMutability": "payable",
      "type": "function",
      "payable": true
    }
  ],
  "bytecode": "0x60806040523480156200001157600080fd5b50604051620039683803806200396883398181016040528101906200003791906200050e565b8383838360008060006101000a81548160ff02191690831515021790555062000075620000696200026a60201b60201c565b6200027260201b60201c565b83600160006101000a81548173ffffffffffffffffffffffffffffffffffffffff021916908373ffffffffffffffffffffffffffffffffffffffff16021790555082600260006101000a81548173ffffffffffffffffffffffffffffffffffffffff021916908373ffffffffffffffffffffffffffffffffffffffff16021790555081600360006101000a81548173ffffffffffffffffffffffffffffffffffffffff021916908373ffffffffffffffffffffffffffffffffffffffff1602179055506019600560006002811062000152576200015162000580565b5b0181905550604b600560016002811062000171576200017062000580565b5b0181905550806000600281106200018d576200018c62000580565b5b60200201516007600060028110620001aa57620001a962000580565b5b0160006101000a81548173ffffffffffffffffffffffffffffffffffffffff021916908373ffffffffffffffffffffffffffffffffffffffff160217905550806001600281106200020057620001ff62000580565b5b602002015160076001600281106200021d576200021c62000580565b5b0160006101000a81548173ffffffffffffffffffffffffffffffffffffffff021916908373ffffffffffffffffffffffffffffffffffffffff1602179055505050505050505050620005af565b600033905090565b60008060019054906101000a900473ffffffffffffffffffffffffffffffffffffffff16905081600060016101000a81548173ffffffffffffffffffffffffffffffffffffffff021916908373ffffffffffffffffffffffffffffffffffffffff1602179055508173ffffffffffffffffffffffffffffffffffffffff168173ffffffffffffffffffffffffffffffffffffffff167f8be0079c531659141344cd1fd0a4f28419497f9722a3daafe3b4186f6b6457e060405160405180910390a35050565b6000604051905090565b600080fd5b600073ffffffffffffffffffffffffffffffffffffffff82169050919050565b6000620003738262000346565b9050919050565b620003858162000366565b81146200039157600080fd5b50565b600081519050620003a5816200037a565b92915050565b600080fd5b6000601f19601f8301169050919050565b7f4e487b7100000000000000000000000000000000000000000000000000000000600052604160045260246000fd5b620003fb82620003b0565b810181811067ffffffffffffffff821117156200041d576200041c620003c1565b5b80604052505050565b60006200043262000337565b9050620004408282620003f0565b919050565b600067ffffffffffffffff821115620004635762000462620003c1565b5b602082029050919050565b600080fd5b60006200048a620004848462000445565b62000426565b90508060208402830185811115620004a757620004a66200046e565b5b835b81811015620004d45780620004bf888262000394565b845260208401935050602081019050620004a9565b5050509392505050565b600082601f830112620004f657620004f5620003ab565b5b60026200050584828562000473565b91505092915050565b60008060008060a085870312156200052b576200052a62000341565b5b60006200053b8782880162000394565b94505060206200054e8782880162000394565b9350506040620005618782880162000394565b92505060606200057487828801620004de565b91505092959194509250565b7f4e487b7100000000000000000000000000000000000000000000000000000000600052603260045260246000fd5b6133a980620005bf6000396000f3fe60806040526004361061011f5760003560e01c80637f6d6df9116100a0578063ad8e653e11610064578063ad8e653e1461039b578063b2742961146103c6578063d2965181146103f1578063e4849b321461041a578063f2fde38b146104365761011f565b80637f6d6df9146102dc5780638456cb591461030557806386f9258e1461031c5780638c6aa3f5146103475780638da5cb5b146103705761011f565b80635c33bd56116100e75780635c33bd56146102095780635c975abb1461024657806363b6c8bd14610271578063645509341461029a578063715018a6146102c55761011f565b806308edded21461012457806317e50ef3146101615780633452195a146101a05780633f4ba83a146101c957806340e58ee5146101e0575b600080fd5b34801561013057600080fd5b5061014b6004803603810190610146919061221a565b61045f565b6040516101589190612256565b60405180910390f35b34801561016d57600080fd5b506101886004803603810190610183919061221a565b61047a565b604051610197939291906122b2565b60405180910390f35b3480156101ac57600080fd5b506101c760048036038101906101c291906122e9565b6104c4565b005b3480156101d557600080fd5b506101de6105c2565b005b3480156101ec57600080fd5b506102076004803603810190610202919061221a565b610648565b005b34801561021557600080fd5b50610230600480360381019061022b919061221a565b6106dd565b60405161023d919061233c565b60405180910390f35b34801561025257600080fd5b5061025b610713565b6040516102689190612372565b60405180910390f35b34801561027d57600080fd5b506102986004803603810190610293919061221a565b610729565b005b3480156102a657600080fd5b506102af61096c565b6040516102bc9190612256565b60405180910390f35b3480156102d157600080fd5b506102da610972565b005b3480156102e857600080fd5b5061030360048036038101906102fe919061238d565b6109fa565b005b34801561031157600080fd5b5061031a610af3565b005b34801561032857600080fd5b50610331610b79565b60405161033e919061242c565b60405180910390f35b34801561035357600080fd5b5061036e60048036038101906103699190612480565b610b9f565b005b34801561037c57600080fd5b50610385610c3c565b604051610392919061233c565b60405180910390f35b3480156103a757600080fd5b506103b0610c65565b6040516103bd919061233c565b60405180910390f35b3480156103d257600080fd5b506103db610c8b565b6040516103e891906124e1565b60405180910390f35b3480156103fd57600080fd5b5061041860048036038101906104139190612528565b610cb1565b005b610434600480360381019061042f919061221a565b610d88565b005b34801561044257600080fd5b5061045d60048036038101906104589190612568565b610eb3565b005b6005816002811061046f57600080fd5b016000915090505481565b60096020528060005260406000206000915090508060000154908060010154908060020160009054906101000a900473ffffffffffffffffffffffffffffffffffffffff16905083565b66038d7ea4c6800081101561050e576040517f08c379a000000000000000000000000000000000000000000000000000000000815260040161050590612618565b60405180910390fd5b6b033b2e3c9fd0803ce8000000811061055c576040517f08c379a0000000000000000000000000000000000000000000000000000000008152600401610553906126aa565b60405180910390fd5b610567838383610faa565b3373ffffffffffffffffffffffffffffffffffffffff167f077d323e7757933f5680780579c5143eb0c26d4d14f80eb52209043dc9dffede8484846004546040516105b594939291906126ca565b60405180910390a2505050565b6105ca61107d565b73ffffffffffffffffffffffffffffffffffffffff166105e8610c3c565b73ffffffffffffffffffffffffffffffffffffffff161461063e576040517f08c379a00000000000000000000000000000000000000000000000000000000081526004016106359061275b565b60405180910390fd5b610646611085565b565b60006009600083815260200190815260200160002060000154905060006009600084815260200190815260200160002060010154905061068783611126565b813373ffffffffffffffffffffffffffffffffffffffff167f49f50fca4a590bc780b00eea7d6be105e57280946507e6075bc777b9645d6d0383866040516106d092919061277b565b60405180910390a3505050565b600781600281106106ed57600080fd5b016000915054906101000a900473ffffffffffffffffffffffffffffffffffffffff1681565b60008060009054906101000a900460ff16905090565b61073161107d565b73ffffffffffffffffffffffffffffffffffffffff1661074f610c3c565b73ffffffffffffffffffffffffffffffffffffffff16146107a5576040517f08c379a000000000000000000000000000000000000000000000000000000000815260040161079c9061275b565b60405180910390fd5b60096000828152602001908152602001600020600101546000106107fe576040517f08c379a00000000000000000000000000000000000000000000000000000000081526004016107f590612816565b60405180910390fd5b600060096000838152602001908152602001600020600001541461091c57600260009054906101000a900473ffffffffffffffffffffffffffffffffffffffff1673ffffffffffffffffffffffffffffffffffffffff166342842e0e600360009054906101000a900473ffffffffffffffffffffffffffffffffffffffff166009600085815260200190815260200160002060020160009054906101000a900473ffffffffffffffffffffffffffffffffffffffff1660096000868152602001908152602001600020600001546040518463ffffffff1660e01b81526004016108e993929190612836565b600060405180830381600087803b15801561090357600080fd5b505af1158015610917573d6000803e3d6000fd5b505050505b6009600082815260200190815260200160002060008082016000905560018201600090556002820160006101000a81549073ffffffffffffffffffffffffffffffffffffffff0219169055505050565b60045481565b61097a61107d565b73ffffffffffffffffffffffffffffffffffffffff16610998610c3c565b73ffffffffffffffffffffffffffffffffffffffff16146109ee576040517f08c379a00000000000000000000000000000000000000000000000000000000081526004016109e59061275b565b60405180910390fd5b6109f860006113a3565b565b66038d7ea4c68000811015610a44576040517f08c379a0000000000000000000000000000000000000000000000000000000008152600401610a3b906128df565b60405180910390fd5b6b033b2e3c9fd0803ce80000008110610a92576040517f08c379a0000000000000000000000000000000000000000000000000000000008152600401610a8990612971565b60405180910390fd5b610a9c8282611468565b813373ffffffffffffffffffffffffffffffffffffffff167f1cca8fbe2aeed62da3196c51f5ed97d57ce94ec62a6fcd743eb85c7ce68d88fb83600454604051610ae792919061277b565b60405180910390a35050565b610afb61107d565b73ffffffffffffffffffffffffffffffffffffffff16610b19610c3c565b73ffffffffffffffffffffffffffffffffffffffff1614610b6f576040517f08c379a0000000000000000000000000000000000000000000000000000000008152600401610b669061275b565b60405180910390fd5b610b776117d2565b565b600260009054906101000a900473ffffffffffffffffffffffffffffffffffffffff1681565b610ba761107d565b73ffffffffffffffffffffffffffffffffffffffff16610bc5610c3c565b73ffffffffffffffffffffffffffffffffffffffff1614610c1b576040517f08c379a0000000000000000000000000000000000000000000000000000000008152600401610c129061275b565b60405180910390fd5b8060058360ff1660028110610c3357610c32612991565b5b01819055505050565b60008060019054906101000a900473ffffffffffffffffffffffffffffffffffffffff16905090565b600360009054906101000a900473ffffffffffffffffffffffffffffffffffffffff1681565b600160009054906101000a900473ffffffffffffffffffffffffffffffffffffffff1681565b610cb961107d565b73ffffffffffffffffffffffffffffffffffffffff16610cd7610c3c565b73ffffffffffffffffffffffffffffffffffffffff1614610d2d576040517f08c379a0000000000000000000000000000000000000000000000000000000008152600401610d249061275b565b60405180910390fd5b8060078360ff1660028110610d4557610d44612991565b5b0160006101000a81548173ffffffffffffffffffffffffffffffffffffffff021916908373ffffffffffffffffffffffffffffffffffffffff1602179055505050565b60006009600083815260200190815260200160002060010154905080600010610de6576040517f08c379a0000000000000000000000000000000000000000000000000000000008152600401610ddd90612a0c565b60405180910390fd5b60006009600084815260200190815260200160002060020160009054906101000a900473ffffffffffffffffffffffffffffffffffffffff169050600060096000858152602001908152602001600020600001549050610e4584611874565b803373ffffffffffffffffffffffffffffffffffffffff168373ffffffffffffffffffffffffffffffffffffffff167f01fbb57444511e3de5b26ac09ad6bec45c3f9a1e59dd4a0f2b13a240d18476ce8688604051610ea592919061277b565b60405180910390a450505050565b610ebb61107d565b73ffffffffffffffffffffffffffffffffffffffff16610ed9610c3c565b73ffffffffffffffffffffffffffffffffffffffff1614610f2f576040517f08c379a0000000000000000000000000000000000000000000000000000000008152600401610f269061275b565b60405180910390fd5b600073ffffffffffffffffffffffffffffffffffffffff168173ffffffffffffffffffffffffffffffffffffffff1603610f9e576040517f08c379a0000000000000000000000000000000000000000000000000000000008152600401610f9590612a9e565b60405180910390fd5b610fa7816113a3565b50565b610fb2610713565b15610ff2576040517f08c379a0000000000000000000000000000000000000000000000000000000008152600401610fe990612b0a565b60405180910390fd5b60046000815461100190612b59565b919050819055506000600960006004548152602001908152602001600020905060008160000181905550818160010181905550338160020160006101000a81548173ffffffffffffffffffffffffffffffffffffffff021916908373ffffffffffffffffffffffffffffffffffffffff16021790555050505050565b600033905090565b61108d610713565b6110cc576040517f08c379a00000000000000000000000000000000000000000000000000000000081526004016110c390612bed565b60405180910390fd5b60008060006101000a81548160ff0219169083151502179055507f5db9ee0a495bf2e6ff9c91a7834c1ba4fdd244a5e8aa4e537bd38aeae4b073aa61110f61107d565b60405161111c919061233c565b60405180910390a1565b61112e610713565b1561116e576040517f08c379a000000000000000000000000000000000000000000000000000000000815260040161116590612b0a565b60405180910390fd5b60096000828152602001908152602001600020600101546000106111c7576040517f08c379a00000000000000000000000000000000000000000000000000000000081526004016111be90612c59565b60405180910390fd5b6009600082815260200190815260200160002060020160009054906101000a900473ffffffffffffffffffffffffffffffffffffffff1673ffffffffffffffffffffffffffffffffffffffff163373ffffffffffffffffffffffffffffffffffffffff161461126b576040517f08c379a000000000000000000000000000000000000000000000000000000000815260040161126290612cc5565b60405180910390fd5b600060096000838152602001908152602001600020600001541461135357600260009054906101000a900473ffffffffffffffffffffffffffffffffffffffff1673ffffffffffffffffffffffffffffffffffffffff166342842e0e600360009054906101000a900473ffffffffffffffffffffffffffffffffffffffff163360096000868152602001908152602001600020600001546040518463ffffffff1660e01b815260040161132093929190612836565b600060405180830381600087803b15801561133a57600080fd5b505af115801561134e573d6000803e3d6000fd5b505050505b6009600082815260200190815260200160002060008082016000905560018201600090556002820160006101000a81549073ffffffffffffffffffffffffffffffffffffffff0219169055505050565b60008060019054906101000a900473ffffffffffffffffffffffffffffffffffffffff16905081600060016101000a81548173ffffffffffffffffffffffffffffffffffffffff021916908373ffffffffffffffffffffffffffffffffffffffff1602179055508173ffffffffffffffffffffffffffffffffffffffff168173ffffffffffffffffffffffffffffffffffffffff167f8be0079c531659141344cd1fd0a4f28419497f9722a3daafe3b4186f6b6457e060405160405180910390a35050565b611470610713565b156114b0576040517f08c379a00000000000000000000000000000000000000000000000000000000081526004016114a790612b0a565b60405180910390fd5b600260009054906101000a900473ffffffffffffffffffffffffffffffffffffffff1673ffffffffffffffffffffffffffffffffffffffff16636352211e836040518263ffffffff1660e01b815260040161150b9190612256565b602060405180830381865afa158015611528573d6000803e3d6000fd5b505050506040513d601f19601f8201168201806040525081019061154c9190612cfa565b73ffffffffffffffffffffffffffffffffffffffff163373ffffffffffffffffffffffffffffffffffffffff16146115b9576040517f08c379a00000000000000000000000000000000000000000000000000000000081526004016115b090612d99565b60405180910390fd5b600260009054906101000a900473ffffffffffffffffffffffffffffffffffffffff1673ffffffffffffffffffffffffffffffffffffffff1663e985e9c533306040518363ffffffff1660e01b8152600401611616929190612db9565b602060405180830381865afa158015611633573d6000803e3d6000fd5b505050506040513d601f19601f820116820180604052508101906116579190612e0e565b611696576040517f08c379a000000000000000000000000000000000000000000000000000000000815260040161168d90612ead565b60405180910390fd5b600260009054906101000a900473ffffffffffffffffffffffffffffffffffffffff1673ffffffffffffffffffffffffffffffffffffffff166342842e0e33600360009054906101000a900473ffffffffffffffffffffffffffffffffffffffff16856040518463ffffffff1660e01b815260040161171793929190612836565b600060405180830381600087803b15801561173157600080fd5b505af1158015611745573d6000803e3d6000fd5b5050505060046000815461175890612b59565b9190508190555060006009600060045481526020019081526020016000209050828160000181905550818160010181905550338160020160006101000a81548173ffffffffffffffffffffffffffffffffffffffff021916908373ffffffffffffffffffffffffffffffffffffffff160217905550505050565b6117da610713565b1561181a576040517f08c379a000000000000000000000000000000000000000000000000000000000815260040161181190612b0a565b60405180910390fd5b60016000806101000a81548160ff0219169083151502179055507f62e78cea01bee320cd4e420270b5ea74000d11b0c9f74754ebdbfc544b05a25861185d61107d565b60405161186a919061233c565b60405180910390a1565b61187c610713565b156118bc576040517f08c379a00000000000000000000000000000000000000000000000000000000081526004016118b390612b0a565b60405180910390fd5b6009600082815260200190815260200160002060010154600010611915576040517f08c379a000000000000000000000000000000000000000000000000000000000815260040161190c90612a0c565b60405180910390fd5b6009600082815260200190815260200160002060020160009054906101000a900473ffffffffffffffffffffffffffffffffffffffff1673ffffffffffffffffffffffffffffffffffffffff163373ffffffffffffffffffffffffffffffffffffffff16036119b9576040517f08c379a00000000000000000000000000000000000000000000000000000000081526004016119b090612f19565b60405180910390fd5b6009600082815260200190815260200160002060010154600160009054906101000a900473ffffffffffffffffffffffffffffffffffffffff1673ffffffffffffffffffffffffffffffffffffffff166370a08231336040518263ffffffff1660e01b8152600401611a2b919061233c565b602060405180830381865afa158015611a48573d6000803e3d6000fd5b505050506040513d601f19601f82011682018060405250810190611a6c9190612f4e565b1015611aad576040517f08c379a0000000000000000000000000000000000000000000000000000000008152600401611aa490612fc7565b60405180910390fd5b6009600082815260200190815260200160002060010154600160009054906101000a900473ffffffffffffffffffffffffffffffffffffffff1673ffffffffffffffffffffffffffffffffffffffff1663dd62ed3e33306040518363ffffffff1660e01b8152600401611b21929190612db9565b602060405180830381865afa158015611b3e573d6000803e3d6000fd5b505050506040513d601f19601f82011682018060405250810190611b629190612f4e565b1015611ba3576040517f08c379a0000000000000000000000000000000000000000000000000000000008152600401611b9a90613059565b60405180910390fd5b611bab6121bd565b6103e86005600060028110611bc357611bc2612991565b5b01546009600085815260200190815260200160002060010154611be69190613079565b611bf09190613102565b81600060028110611c0457611c03612991565b5b6020020181815250506103e86005600160028110611c2557611c24612991565b5b01546009600085815260200190815260200160002060010154611c489190613079565b611c529190613102565b81600160028110611c6657611c65612991565b5b60200201818152505080600060028110611c8357611c82612991565b5b602002015160001015611dc057600160009054906101000a900473ffffffffffffffffffffffffffffffffffffffff1673ffffffffffffffffffffffffffffffffffffffff166323b872dd336007600060028110611ce457611ce3612991565b5b0160009054906101000a900473ffffffffffffffffffffffffffffffffffffffff1684600060028110611d1a57611d19612991565b5b60200201516040518463ffffffff1660e01b8152600401611d3d93929190612836565b6020604051808303816000875af1158015611d5c573d6000803e3d6000fd5b505050506040513d601f19601f82011682018060405250810190611d809190612e0e565b611dbf576040517f08c379a0000000000000000000000000000000000000000000000000000000008152600401611db6906131a5565b60405180910390fd5b5b80600160028110611dd457611dd3612991565b5b602002015160001015611f1157600160009054906101000a900473ffffffffffffffffffffffffffffffffffffffff1673ffffffffffffffffffffffffffffffffffffffff166323b872dd336007600160028110611e3557611e34612991565b5b0160009054906101000a900473ffffffffffffffffffffffffffffffffffffffff1684600160028110611e6b57611e6a612991565b5b60200201516040518463ffffffff1660e01b8152600401611e8e93929190612836565b6020604051808303816000875af1158015611ead573d6000803e3d6000fd5b505050506040513d601f19601f82011682018060405250810190611ed19190612e0e565b611f10576040517f08c379a0000000000000000000000000000000000000000000000000000000008152600401611f0790613237565b60405180910390fd5b5b600160009054906101000a900473ffffffffffffffffffffffffffffffffffffffff1673ffffffffffffffffffffffffffffffffffffffff166323b872dd336009600086815260200190815260200160002060020160009054906101000a900473ffffffffffffffffffffffffffffffffffffffff1684600160028110611f9b57611f9a612991565b5b602002015185600060028110611fb457611fb3612991565b5b6020020151611fc39190613257565b6009600088815260200190815260200160002060010154611fe491906132ad565b6040518463ffffffff1660e01b815260040161200293929190612836565b6020604051808303816000875af1158015612021573d6000803e3d6000fd5b505050506040513d601f19601f820116820180604052508101906120459190612e0e565b612084576040517f08c379a000000000000000000000000000000000000000000000000000000000815260040161207b90613353565b60405180910390fd5b600060096000848152602001908152602001600020600001541461216c57600260009054906101000a900473ffffffffffffffffffffffffffffffffffffffff1673ffffffffffffffffffffffffffffffffffffffff166342842e0e600360009054906101000a900473ffffffffffffffffffffffffffffffffffffffff163360096000878152602001908152602001600020600001546040518463ffffffff1660e01b815260040161213993929190612836565b600060405180830381600087803b15801561215357600080fd5b505af1158015612167573d6000803e3d6000fd5b505050505b6009600083815260200190815260200160002060008082016000905560018201600090556002820160006101000a81549073ffffffffffffffffffffffffffffffffffffffff021916905550505050565b6040518060400160405280600290602082028036833780820191505090505090565b600080fd5b6000819050919050565b6121f7816121e4565b811461220257600080fd5b50565b600081359050612214816121ee565b92915050565b6000602082840312156122305761222f6121df565b5b600061223e84828501612205565b91505092915050565b612250816121e4565b82525050565b600060208201905061226b6000830184612247565b92915050565b600073ffffffffffffffffffffffffffffffffffffffff82169050919050565b600061229c82612271565b9050919050565b6122ac81612291565b82525050565b60006060820190506122c76000830186612247565b6122d46020830185612247565b6122e160408301846122a3565b949350505050565b600080600060608486031215612302576123016121df565b5b600061231086828701612205565b935050602061232186828701612205565b925050604061233286828701612205565b9150509250925092565b600060208201905061235160008301846122a3565b92915050565b60008115159050919050565b61236c81612357565b82525050565b60006020820190506123876000830184612363565b92915050565b600080604083850312156123a4576123a36121df565b5b60006123b285828601612205565b92505060206123c385828601612205565b9150509250929050565b6000819050919050565b60006123f26123ed6123e884612271565b6123cd565b612271565b9050919050565b6000612404826123d7565b9050919050565b6000612416826123f9565b9050919050565b6124268161240b565b82525050565b6000602082019050612441600083018461241d565b92915050565b600060ff82169050919050565b61245d81612447565b811461246857600080fd5b50565b60008135905061247a81612454565b92915050565b60008060408385031215612497576124966121df565b5b60006124a58582860161246b565b92505060206124b685828601612205565b9150509250929050565b60006124cb826123f9565b9050919050565b6124db816124c0565b82525050565b60006020820190506124f660008301846124d2565b92915050565b61250581612291565b811461251057600080fd5b50565b600081359050612522816124fc565b92915050565b6000806040838503121561253f5761253e6121df565b5b600061254d8582860161246b565b925050602061255e85828601612513565b9150509250929050565b60006020828403121561257e5761257d6121df565b5b600061258c84828501612513565b91505092915050565b600082825260208201905092915050565b7f6c697374696e674974656d3a207072696365206d75737420677265617465722060008201527f7468616e20302e30303120657468657200000000000000000000000000000000602082015250565b6000612602603083612595565b915061260d826125a6565b604082019050919050565b60006020820190508181036000830152612631816125f5565b9050919050565b7f6c697374696e674974656d3a207072696365206d757374206c6573732074686160008201527f6e2031303030206d696c6c696f6e000000000000000000000000000000000000602082015250565b6000612694602e83612595565b915061269f82612638565b604082019050919050565b600060208201905081810360008301526126c381612687565b9050919050565b60006080820190506126df6000830187612247565b6126ec6020830186612247565b6126f96040830185612247565b6127066060830184612247565b95945050505050565b7f4f776e61626c653a2063616c6c6572206973206e6f7420746865206f776e6572600082015250565b6000612745602083612595565b91506127508261270f565b602082019050919050565b6000602082019050818103600083015261277481612738565b9050919050565b60006040820190506127906000830185612247565b61279d6020830184612247565b9392505050565b7f63616e63656c466f7263653a206e6f7420657869737420696e2073656c6c206960008201527f74656d7300000000000000000000000000000000000000000000000000000000602082015250565b6000612800602483612595565b915061280b826127a4565b604082019050919050565b6000602082019050818103600083015261282f816127f3565b9050919050565b600060608201905061284b60008301866122a3565b61285860208301856122a3565b6128656040830184612247565b949350505050565b7f6c697374696e673a207072696365206d7573742067726561746572207468616e60008201527f20302e3030312065746865720000000000000000000000000000000000000000602082015250565b60006128c9602c83612595565b91506128d48261286d565b604082019050919050565b600060208201905081810360008301526128f8816128bc565b9050919050565b7f6c697374696e673a207072696365206d757374206c657373207468616e20313060008201527f3030206d696c6c696f6e00000000000000000000000000000000000000000000602082015250565b600061295b602a83612595565b9150612966826128ff565b604082019050919050565b6000602082019050818103600083015261298a8161294e565b9050919050565b7f4e487b7100000000000000000000000000000000000000000000000000000000600052603260045260246000fd5b7f73656c6c3a206e6f7420657869737420696e2073656c6c206974656d73000000600082015250565b60006129f6601d83612595565b9150612a01826129c0565b602082019050919050565b60006020820190508181036000830152612a25816129e9565b9050919050565b7f4f776e61626c653a206e6577206f776e657220697320746865207a65726f206160008201527f6464726573730000000000000000000000000000000000000000000000000000602082015250565b6000612a88602683612595565b9150612a9382612a2c565b604082019050919050565b60006020820190508181036000830152612ab781612a7b565b9050919050565b7f5061757361626c653a2070617573656400000000000000000000000000000000600082015250565b6000612af4601083612595565b9150612aff82612abe565b602082019050919050565b60006020820190508181036000830152612b2381612ae7565b9050919050565b7f4e487b7100000000000000000000000000000000000000000000000000000000600052601160045260246000fd5b6000612b64826121e4565b91507fffffffffffffffffffffffffffffffffffffffffffffffffffffffffffffffff8203612b9657612b95612b2a565b5b600182019050919050565b7f5061757361626c653a206e6f7420706175736564000000000000000000000000600082015250565b6000612bd7601483612595565b9150612be282612ba1565b602082019050919050565b60006020820190508181036000830152612c0681612bca565b9050919050565b7f63616e63656c3a206e6f7420657869737420696e2073656c6c206974656d7300600082015250565b6000612c43601f83612595565b9150612c4e82612c0d565b602082019050919050565b60006020820190508181036000830152612c7281612c36565b9050919050565b7f63616e63656c3a206e6f74206f776e6572000000000000000000000000000000600082015250565b6000612caf601183612595565b9150612cba82612c79565b602082019050919050565b60006020820190508181036000830152612cde81612ca2565b9050919050565b600081519050612cf4816124fc565b92915050565b600060208284031215612d1057612d0f6121df565b5b6000612d1e84828501612ce5565b91505092915050565b7f6c697374696e673a206f6e6c7920746f6b656e206f776e65722063616e206c6960008201527f7374696e67000000000000000000000000000000000000000000000000000000602082015250565b6000612d83602583612595565b9150612d8e82612d27565b604082019050919050565b60006020820190508181036000830152612db281612d76565b9050919050565b6000604082019050612dce60008301856122a3565b612ddb60208301846122a3565b9392505050565b612deb81612357565b8114612df657600080fd5b50565b600081519050612e0881612de2565b92915050565b600060208284031215612e2457612e236121df565b5b6000612e3284828501612df9565b91505092915050565b7f6c697374696e673a206e6f7420617070726f766564206f6e207468697320636f60008201527f6e74726163740000000000000000000000000000000000000000000000000000602082015250565b6000612e97602683612595565b9150612ea282612e3b565b604082019050919050565b60006020820190508181036000830152612ec681612e8a565b9050919050565b7f73656c6c3a20796f7520617265206f776e657200000000000000000000000000600082015250565b6000612f03601383612595565b9150612f0e82612ecd565b602082019050919050565b60006020820190508181036000830152612f3281612ef6565b9050919050565b600081519050612f48816121ee565b92915050565b600060208284031215612f6457612f636121df565b5b6000612f7284828501612f39565b91505092915050565b7f73656c6c3a204e6f7420656e6f75676820746f6b656e20616d6f756e74000000600082015250565b6000612fb1601d83612595565b9150612fbc82612f7b565b602082019050919050565b60006020820190508181036000830152612fe081612fa4565b9050919050565b7f73656c6c3a204e6f7420656e6f75676820616c6c6f77616e63656420746f6b6560008201527f6e20616d6f756e74000000000000000000000000000000000000000000000000602082015250565b6000613043602883612595565b915061304e82612fe7565b604082019050919050565b6000602082019050818103600083015261307281613036565b9050919050565b6000613084826121e4565b915061308f836121e4565b9250817fffffffffffffffffffffffffffffffffffffffffffffffffffffffffffffffff04831182151516156130c8576130c7612b2a565b5b828202905092915050565b7f4e487b7100000000000000000000000000000000000000000000000000000000600052601260045260246000fd5b600061310d826121e4565b9150613118836121e4565b925082613128576131276130d3565b5b828204905092915050565b7f73656c6c3a206572633230207472616e73666572206665655b305d206661696c60008201527f6564000000000000000000000000000000000000000000000000000000000000602082015250565b600061318f602283612595565b915061319a82613133565b604082019050919050565b600060208201905081810360008301526131be81613182565b9050919050565b7f73656c6c3a206572633230207472616e73666572206665655b315d206661696c60008201527f6564000000000000000000000000000000000000000000000000000000000000602082015250565b6000613221602283612595565b915061322c826131c5565b604082019050919050565b6000602082019050818103600083015261325081613214565b9050919050565b6000613262826121e4565b915061326d836121e4565b9250827fffffffffffffffffffffffffffffffffffffffffffffffffffffffffffffffff038211156132a2576132a1612b2a565b5b828201905092915050565b60006132b8826121e4565b91506132c3836121e4565b9250828210156132d6576132d5612b2a565b5b828203905092915050565b7f73656c6c3a206572633230207472616e73666572207072696365206661696c6560008201527f6400000000000000000000000000000000000000000000000000000000000000602082015250565b600061333d602183612595565b9150613348826132e1565b604082019050919050565b6000602082019050818103600083015261336c81613330565b905091905056fea2646970667358221220a8413ae142ee52ce596025be32c01b5b7d0f6707455c62a05604f53caafc13f664736f6c634300080e0033",
  "immutableReferences": {},
  "source": "// SPDX-License-Identifier: MIT\r\npragma solidity ^0.8.14;\r\n\r\nimport \"@openzeppelin/contracts/token/ERC20/ERC20.sol\";\r\nimport \"@openzeppelin/contracts/token/ERC721/ERC721.sol\";\r\nimport \"./TKMMarketToken.sol\";\r\n\r\ncontract TKMMarketTkm is TKMMarketToken {\r\n    constructor(address _TokenContract, address _NFTContract, address _holder, address[2] memory _feeOwner)\r\n        TKMMarketToken(_TokenContract, _NFTContract, _holder, _feeOwner) {\r\n    }\r\n\r\n    function listing(uint256 tokenId, uint256 price) public virtual override {\r\n        require(price >= 0.001 ether, \"listing: price must greater than 0.001 ether\");\r\n        require(price < 1000000000 ether, \"listing: price must less than 1000 million\");\r\n\r\n        super.listing(tokenId, price);\r\n\r\n        emit Listing(msg.sender, tokenId, price, listingIdx);\r\n    }\r\n\r\n    function listingItem(uint256 itemId, uint256 amount, uint256 price) public virtual override {\r\n        require(price >= 0.001 ether, \"listingItem: price must greater than 0.001 ether\");\r\n        require(price < 1000000000 ether, \"listingItem: price must less than 1000 million\");\r\n\r\n        super.listingItem(itemId, amount, price);\r\n\r\n        emit ListingItem(msg.sender, itemId, amount, price, listingIdx);\r\n    }\r\n\r\n    function cancel(uint256 _listingIdx) public virtual override {\r\n        uint256 tokenId = sellItems[_listingIdx].tokenId;\r\n        uint256 price = sellItems[_listingIdx].price;\r\n        super.cancel(_listingIdx);\r\n\r\n        emit Cancel(msg.sender, tokenId, price, _listingIdx);\r\n    }\r\n\r\n    function sell(uint256 _listingIdx) public payable virtual override {\r\n        uint256 price = sellItems[_listingIdx].price;\r\n        require(0 < price, \"sell: not exist in sell items\");\r\n\r\n        address tokenOwner = sellItems[_listingIdx].tokenOwner;\r\n        uint256 tokenId = sellItems[_listingIdx].tokenId;\r\n\r\n        super.sell(_listingIdx);\r\n\r\n        emit Sell(tokenOwner, msg.sender, tokenId, price, _listingIdx);\r\n    }\r\n}\r\n",
  "sourcePath": "D:\\github\\solidity_tinyping\\contracts\\TKMMarketTkm.sol",
  "compiler": {
    "name": "solc",
    "version": "0.8.14+commit.80d49f37.Emscripten.clang"
  },
  "schemaVersion": "3.4.13",
  "updatedAt": "2023-05-31T06:13:24.755Z",
  "networkType": "ethereum",
  "devdoc": {
    "kind": "dev",
    "methods": {
      "owner()": {
        "details": "Returns the address of the current owner."
      },
      "paused()": {
        "details": "Returns true if the contract is paused, and false otherwise."
      },
      "renounceOwnership()": {
        "details": "Leaves the contract without owner. It will not be possible to call `onlyOwner` functions anymore. Can only be called by the current owner. NOTE: Renouncing ownership will leave the contract without an owner, thereby removing any functionality that is only available to the owner."
      },
      "transferOwnership(address)": {
        "details": "Transfers ownership of the contract to a new account (`newOwner`). Can only be called by the current owner."
      }
    },
    "version": 1
  },
  "userdoc": {
    "kind": "user",
    "methods": {},
    "version": 1
  }
}