{
  "contractName": "TKMBoxA",
  "abi": [
    {
      "inputs": [
        {
          "internalType": "address",
          "name": "_minter",
          "type": "address"
        }
      ],
      "stateMutability": "nonpayable",
      "type": "constructor"
    },
    {
      "anonymous": false,
      "inputs": [
        {
          "indexed": true,
          "internalType": "address",
          "name": "owner",
          "type": "address"
        },
        {
          "indexed": true,
          "internalType": "address",
          "name": "approved",
          "type": "address"
        },
        {
          "indexed": true,
          "internalType": "uint256",
          "name": "tokenId",
          "type": "uint256"
        }
      ],
      "name": "Approval",
      "type": "event"
    },
    {
      "anonymous": false,
      "inputs": [
        {
          "indexed": true,
          "internalType": "address",
          "name": "owner",
          "type": "address"
        },
        {
          "indexed": true,
          "internalType": "address",
          "name": "operator",
          "type": "address"
        },
        {
          "indexed": false,
          "internalType": "bool",
          "name": "approved",
          "type": "bool"
        }
      ],
      "name": "ApprovalForAll",
      "type": "event"
    },
    {
      "anonymous": false,
      "inputs": [
        {
          "indexed": true,
          "internalType": "address",
          "name": "opener",
          "type": "address"
        },
        {
          "indexed": true,
          "internalType": "uint256",
          "name": "tokenId",
          "type": "uint256"
        }
      ],
      "name": "BoxOpen",
      "type": "event"
    },
    {
      "anonymous": false,
      "inputs": [
        {
          "indexed": false,
          "internalType": "address",
          "name": "account",
          "type": "address"
        }
      ],
      "name": "Paused",
      "type": "event"
    },
    {
      "anonymous": false,
      "inputs": [
        {
          "indexed": true,
          "internalType": "bytes32",
          "name": "role",
          "type": "bytes32"
        },
        {
          "indexed": true,
          "internalType": "bytes32",
          "name": "previousAdminRole",
          "type": "bytes32"
        },
        {
          "indexed": true,
          "internalType": "bytes32",
          "name": "newAdminRole",
          "type": "bytes32"
        }
      ],
      "name": "RoleAdminChanged",
      "type": "event"
    },
    {
      "anonymous": false,
      "inputs": [
        {
          "indexed": true,
          "internalType": "bytes32",
          "name": "role",
          "type": "bytes32"
        },
        {
          "indexed": true,
          "internalType": "address",
          "name": "account",
          "type": "address"
        },
        {
          "indexed": true,
          "internalType": "address",
          "name": "sender",
          "type": "address"
        }
      ],
      "name": "RoleGranted",
      "type": "event"
    },
    {
      "anonymous": false,
      "inputs": [
        {
          "indexed": true,
          "internalType": "bytes32",
          "name": "role",
          "type": "bytes32"
        },
        {
          "indexed": true,
          "internalType": "address",
          "name": "account",
          "type": "address"
        },
        {
          "indexed": true,
          "internalType": "address",
          "name": "sender",
          "type": "address"
        }
      ],
      "name": "RoleRevoked",
      "type": "event"
    },
    {
      "anonymous": false,
      "inputs": [
        {
          "indexed": true,
          "internalType": "address",
          "name": "from",
          "type": "address"
        },
        {
          "indexed": true,
          "internalType": "address",
          "name": "to",
          "type": "address"
        },
        {
          "indexed": true,
          "internalType": "uint256",
          "name": "tokenId",
          "type": "uint256"
        }
      ],
      "name": "Transfer",
      "type": "event"
    },
    {
      "anonymous": false,
      "inputs": [
        {
          "indexed": false,
          "internalType": "address",
          "name": "account",
          "type": "address"
        }
      ],
      "name": "Unpaused",
      "type": "event"
    },
    {
      "inputs": [],
      "name": "DEFAULT_ADMIN_ROLE",
      "outputs": [
        {
          "internalType": "bytes32",
          "name": "",
          "type": "bytes32"
        }
      ],
      "stateMutability": "view",
      "type": "function"
    },
    {
      "inputs": [],
      "name": "MINTER_ROLE",
      "outputs": [
        {
          "internalType": "bytes32",
          "name": "",
          "type": "bytes32"
        }
      ],
      "stateMutability": "view",
      "type": "function"
    },
    {
      "inputs": [
        {
          "internalType": "address",
          "name": "to",
          "type": "address"
        },
        {
          "internalType": "uint256",
          "name": "tokenId",
          "type": "uint256"
        }
      ],
      "name": "approve",
      "outputs": [],
      "stateMutability": "nonpayable",
      "type": "function"
    },
    {
      "inputs": [
        {
          "internalType": "address",
          "name": "owner",
          "type": "address"
        }
      ],
      "name": "balanceOf",
      "outputs": [
        {
          "internalType": "uint256",
          "name": "",
          "type": "uint256"
        }
      ],
      "stateMutability": "view",
      "type": "function"
    },
    {
      "inputs": [
        {
          "internalType": "uint256",
          "name": "tokenId",
          "type": "uint256"
        }
      ],
      "name": "getApproved",
      "outputs": [
        {
          "internalType": "address",
          "name": "",
          "type": "address"
        }
      ],
      "stateMutability": "view",
      "type": "function"
    },
    {
      "inputs": [
        {
          "internalType": "bytes32",
          "name": "role",
          "type": "bytes32"
        }
      ],
      "name": "getRoleAdmin",
      "outputs": [
        {
          "internalType": "bytes32",
          "name": "",
          "type": "bytes32"
        }
      ],
      "stateMutability": "view",
      "type": "function"
    },
    {
      "inputs": [
        {
          "internalType": "bytes32",
          "name": "role",
          "type": "bytes32"
        },
        {
          "internalType": "address",
          "name": "account",
          "type": "address"
        }
      ],
      "name": "grantRole",
      "outputs": [],
      "stateMutability": "nonpayable",
      "type": "function"
    },
    {
      "inputs": [
        {
          "internalType": "bytes32",
          "name": "role",
          "type": "bytes32"
        },
        {
          "internalType": "address",
          "name": "account",
          "type": "address"
        }
      ],
      "name": "hasRole",
      "outputs": [
        {
          "internalType": "bool",
          "name": "",
          "type": "bool"
        }
      ],
      "stateMutability": "view",
      "type": "function"
    },
    {
      "inputs": [
        {
          "internalType": "address",
          "name": "owner",
          "type": "address"
        },
        {
          "internalType": "address",
          "name": "operator",
          "type": "address"
        }
      ],
      "name": "isApprovedForAll",
      "outputs": [
        {
          "internalType": "bool",
          "name": "",
          "type": "bool"
        }
      ],
      "stateMutability": "view",
      "type": "function"
    },
    {
      "inputs": [],
      "name": "name",
      "outputs": [
        {
          "internalType": "string",
          "name": "",
          "type": "string"
        }
      ],
      "stateMutability": "view",
      "type": "function"
    },
    {
      "inputs": [
        {
          "internalType": "uint256",
          "name": "tokenId",
          "type": "uint256"
        }
      ],
      "name": "ownerOf",
      "outputs": [
        {
          "internalType": "address",
          "name": "",
          "type": "address"
        }
      ],
      "stateMutability": "view",
      "type": "function"
    },
    {
      "inputs": [],
      "name": "paused",
      "outputs": [
        {
          "internalType": "bool",
          "name": "",
          "type": "bool"
        }
      ],
      "stateMutability": "view",
      "type": "function"
    },
    {
      "inputs": [
        {
          "internalType": "bytes32",
          "name": "role",
          "type": "bytes32"
        },
        {
          "internalType": "address",
          "name": "account",
          "type": "address"
        }
      ],
      "name": "renounceRole",
      "outputs": [],
      "stateMutability": "nonpayable",
      "type": "function"
    },
    {
      "inputs": [
        {
          "internalType": "bytes32",
          "name": "role",
          "type": "bytes32"
        },
        {
          "internalType": "address",
          "name": "account",
          "type": "address"
        }
      ],
      "name": "revokeRole",
      "outputs": [],
      "stateMutability": "nonpayable",
      "type": "function"
    },
    {
      "inputs": [
        {
          "internalType": "address",
          "name": "from",
          "type": "address"
        },
        {
          "internalType": "address",
          "name": "to",
          "type": "address"
        },
        {
          "internalType": "uint256",
          "name": "tokenId",
          "type": "uint256"
        }
      ],
      "name": "safeTransferFrom",
      "outputs": [],
      "stateMutability": "nonpayable",
      "type": "function"
    },
    {
      "inputs": [
        {
          "internalType": "address",
          "name": "from",
          "type": "address"
        },
        {
          "internalType": "address",
          "name": "to",
          "type": "address"
        },
        {
          "internalType": "uint256",
          "name": "tokenId",
          "type": "uint256"
        },
        {
          "internalType": "bytes",
          "name": "_data",
          "type": "bytes"
        }
      ],
      "name": "safeTransferFrom",
      "outputs": [],
      "stateMutability": "nonpayable",
      "type": "function"
    },
    {
      "inputs": [
        {
          "internalType": "address",
          "name": "operator",
          "type": "address"
        },
        {
          "internalType": "bool",
          "name": "approved",
          "type": "bool"
        }
      ],
      "name": "setApprovalForAll",
      "outputs": [],
      "stateMutability": "nonpayable",
      "type": "function"
    },
    {
      "inputs": [],
      "name": "symbol",
      "outputs": [
        {
          "internalType": "string",
          "name": "",
          "type": "string"
        }
      ],
      "stateMutability": "view",
      "type": "function"
    },
    {
      "inputs": [
        {
          "internalType": "uint256",
          "name": "index",
          "type": "uint256"
        }
      ],
      "name": "tokenByIndex",
      "outputs": [
        {
          "internalType": "uint256",
          "name": "",
          "type": "uint256"
        }
      ],
      "stateMutability": "view",
      "type": "function"
    },
    {
      "inputs": [
        {
          "internalType": "address",
          "name": "owner",
          "type": "address"
        },
        {
          "internalType": "uint256",
          "name": "index",
          "type": "uint256"
        }
      ],
      "name": "tokenOfOwnerByIndex",
      "outputs": [
        {
          "internalType": "uint256",
          "name": "",
          "type": "uint256"
        }
      ],
      "stateMutability": "view",
      "type": "function"
    },
    {
      "inputs": [],
      "name": "totalSupply",
      "outputs": [
        {
          "internalType": "uint256",
          "name": "",
          "type": "uint256"
        }
      ],
      "stateMutability": "view",
      "type": "function"
    },
    {
      "inputs": [
        {
          "internalType": "address",
          "name": "from",
          "type": "address"
        },
        {
          "internalType": "address",
          "name": "to",
          "type": "address"
        },
        {
          "internalType": "uint256",
          "name": "tokenId",
          "type": "uint256"
        }
      ],
      "name": "transferFrom",
      "outputs": [],
      "stateMutability": "nonpayable",
      "type": "function"
    },
    {
      "inputs": [],
      "name": "pause",
      "outputs": [],
      "stateMutability": "nonpayable",
      "type": "function"
    },
    {
      "inputs": [],
      "name": "unpause",
      "outputs": [],
      "stateMutability": "nonpayable",
      "type": "function"
    },
    {
      "inputs": [
        {
          "internalType": "address",
          "name": "to",
          "type": "address"
        },
        {
          "internalType": "uint256",
          "name": "startId",
          "type": "uint256"
        },
        {
          "internalType": "uint256",
          "name": "endId",
          "type": "uint256"
        }
      ],
      "name": "inoMint",
      "outputs": [],
      "stateMutability": "nonpayable",
      "type": "function"
    },
    {
      "inputs": [
        {
          "internalType": "address",
          "name": "owner",
          "type": "address"
        }
      ],
      "name": "collection",
      "outputs": [
        {
          "internalType": "uint256[]",
          "name": "",
          "type": "uint256[]"
        }
      ],
      "stateMutability": "view",
      "type": "function"
    },
    {
      "inputs": [
        {
          "internalType": "uint256",
          "name": "tokenId",
          "type": "uint256"
        }
      ],
      "name": "boxOpen",
      "outputs": [],
      "stateMutability": "nonpayable",
      "type": "function"
    },
    {
      "inputs": [
        {
          "internalType": "uint256",
          "name": "tokenId",
          "type": "uint256"
        }
      ],
      "name": "tokenURI",
      "outputs": [
        {
          "internalType": "string",
          "name": "",
          "type": "string"
        }
      ],
      "stateMutability": "view",
      "type": "function"
    },
    {
      "inputs": [
        {
          "internalType": "bytes4",
          "name": "interfaceId",
          "type": "bytes4"
        }
      ],
      "name": "supportsInterface",
      "outputs": [
        {
          "internalType": "bool",
          "name": "",
          "type": "bool"
        }
      ],
      "stateMutability": "view",
      "type": "function"
    }
  ],
  "bytecode": "0x60806040523480156200001157600080fd5b50604051620049f3380380620049f38339818101604052810190620000379190620003bf565b6040518060400160405280601c81526020017f5468726565204b696e67646f6d204d756c7469766572736520426f78000000008152506040518060400160405280600881526020017f334b4d426f785f410000000000000000000000000000000000000000000000008152508160009080519060200190620000bb929190620002a5565b508060019080519060200190620000d4929190620002a5565b5050506000600b60006101000a81548160ff021916908315150217905550620001076000801b336200014060201b60201c565b620001397f9f2df0fed2c77648de5860a4cc508cd0818c85b8b8a1ab4ceeef8d981c8956a6826200014060201b60201c565b5062000455565b6200015282826200023260201b60201c565b6200022e576001600c600084815260200190815260200160002060000160008373ffffffffffffffffffffffffffffffffffffffff1673ffffffffffffffffffffffffffffffffffffffff16815260200190815260200160002060006101000a81548160ff021916908315150217905550620001d36200029d60201b60201c565b73ffffffffffffffffffffffffffffffffffffffff168173ffffffffffffffffffffffffffffffffffffffff16837f2f8788117e7eff1d82e926ec794901d17c78024a50270940304540a733656f0d60405160405180910390a45b5050565b6000600c600084815260200190815260200160002060000160008373ffffffffffffffffffffffffffffffffffffffff1673ffffffffffffffffffffffffffffffffffffffff16815260200190815260200160002060009054906101000a900460ff16905092915050565b600033905090565b828054620002b39062000420565b90600052602060002090601f016020900481019282620002d7576000855562000323565b82601f10620002f257805160ff191683800117855562000323565b8280016001018555821562000323579182015b828111156200032257825182559160200191906001019062000305565b5b50905062000332919062000336565b5090565b5b808211156200035157600081600090555060010162000337565b5090565b600080fd5b600073ffffffffffffffffffffffffffffffffffffffff82169050919050565b600062000387826200035a565b9050919050565b62000399816200037a565b8114620003a557600080fd5b50565b600081519050620003b9816200038e565b92915050565b600060208284031215620003d857620003d762000355565b5b6000620003e884828501620003a8565b91505092915050565b7f4e487b7100000000000000000000000000000000000000000000000000000000600052602260045260246000fd5b600060028204905060018216806200043957607f821691505b6020821081036200044f576200044e620003f1565b5b50919050565b61458e80620004656000396000f3fe608060405234801561001057600080fd5b50600436106101cf5760003560e01c80636352211e11610104578063a22cb465116100a2578063d547741f11610071578063d547741f1461052c578063e322b36814610548578063e94886d214610564578063e985e9c514610594576101cf565b8063a22cb465146104a6578063b88d4fde146104c2578063c87b56dd146104de578063d53913931461050e576101cf565b806385b5e984116100de57806385b5e9841461041e57806391d148541461043a57806395d89b411461046a578063a217fddf14610488576101cf565b80636352211e146103b457806370a08231146103e45780638456cb5914610414576101cf565b80632f2ff15d116101715780633f4ba83a1161014b5780633f4ba83a1461034057806342842e0e1461034a5780634f6ccce7146103665780635c975abb14610396576101cf565b80632f2ff15d146102d85780632f745c59146102f457806336568abe14610324576101cf565b8063095ea7b3116101ad578063095ea7b31461025257806318160ddd1461026e57806323b872dd1461028c578063248a9ca3146102a8576101cf565b806301ffc9a7146101d457806306fdde0314610204578063081812fc14610222575b600080fd5b6101ee60048036038101906101e99190612d3f565b6105c4565b6040516101fb9190612d87565b60405180910390f35b61020c6105d6565b6040516102199190612e3b565b60405180910390f35b61023c60048036038101906102379190612e93565b610668565b6040516102499190612f01565b60405180910390f35b61026c60048036038101906102679190612f48565b6106ed565b005b610276610804565b6040516102839190612f97565b60405180910390f35b6102a660048036038101906102a19190612fb2565b610811565b005b6102c260048036038101906102bd919061303b565b610871565b6040516102cf9190613077565b60405180910390f35b6102f260048036038101906102ed9190613092565b610891565b005b61030e60048036038101906103099190612f48565b6108b2565b60405161031b9190612f97565b60405180910390f35b61033e60048036038101906103399190613092565b610957565b005b6103486109da565b005b610364600480360381019061035f9190612fb2565b6109f2565b005b610380600480360381019061037b9190612e93565b610a12565b60405161038d9190612f97565b60405180910390f35b61039e610a83565b6040516103ab9190612d87565b60405180910390f35b6103ce60048036038101906103c99190612e93565b610a9a565b6040516103db9190612f01565b60405180910390f35b6103fe60048036038101906103f991906130d2565b610b4b565b60405161040b9190612f97565b60405180910390f35b61041c610c02565b005b610438600480360381019061043391906130ff565b610c1a565b005b610454600480360381019061044f9190613092565b610c75565b6040516104619190612d87565b60405180910390f35b610472610ce0565b60405161047f9190612e3b565b60405180910390f35b610490610d72565b60405161049d9190613077565b60405180910390f35b6104c060048036038101906104bb919061317e565b610d79565b005b6104dc60048036038101906104d791906132f3565b610d8f565b005b6104f860048036038101906104f39190612e93565b610df1565b6040516105059190612e3b565b60405180910390f35b610516610e03565b6040516105239190613077565b60405180910390f35b61054660048036038101906105419190613092565b610e27565b005b610562600480360381019061055d9190612e93565b610e48565b005b61057e600480360381019061057991906130d2565b610f56565b60405161058b9190613434565b60405180910390f35b6105ae60048036038101906105a99190613456565b61100a565b6040516105bb9190612d87565b60405180910390f35b60006105cf8261109e565b9050919050565b6060600080546105e5906134c5565b80601f0160208091040260200160405190810160405280929190818152602001828054610611906134c5565b801561065e5780601f106106335761010080835404028352916020019161065e565b820191906000526020600020905b81548152906001019060200180831161064157829003601f168201915b5050505050905090565b600061067382611118565b6106b2576040517f08c379a00000000000000000000000000000000000000000000000000000000081526004016106a990613568565b60405180910390fd5b6004600083815260200190815260200160002060009054906101000a900473ffffffffffffffffffffffffffffffffffffffff169050919050565b60006106f882610a9a565b90508073ffffffffffffffffffffffffffffffffffffffff168373ffffffffffffffffffffffffffffffffffffffff1603610768576040517f08c379a000000000000000000000000000000000000000000000000000000000815260040161075f906135fa565b60405180910390fd5b8073ffffffffffffffffffffffffffffffffffffffff16610787611184565b73ffffffffffffffffffffffffffffffffffffffff1614806107b657506107b5816107b0611184565b61100a565b5b6107f5576040517f08c379a00000000000000000000000000000000000000000000000000000000081526004016107ec9061368c565b60405180910390fd5b6107ff838361118c565b505050565b6000600880549050905090565b61082261081c611184565b82611245565b610861576040517f08c379a00000000000000000000000000000000000000000000000000000000081526004016108589061371e565b60405180910390fd5b61086c838383611323565b505050565b6000600c6000838152602001908152602001600020600101549050919050565b61089a82610871565b6108a381611589565b6108ad838361159d565b505050565b60006108bd83610b4b565b82106108fe576040517f08c379a00000000000000000000000000000000000000000000000000000000081526004016108f5906137b0565b60405180910390fd5b600660008473ffffffffffffffffffffffffffffffffffffffff1673ffffffffffffffffffffffffffffffffffffffff168152602001908152602001600020600083815260200190815260200160002054905092915050565b61095f611184565b73ffffffffffffffffffffffffffffffffffffffff168173ffffffffffffffffffffffffffffffffffffffff16146109cc576040517f08c379a00000000000000000000000000000000000000000000000000000000081526004016109c390613842565b60405180910390fd5b6109d6828261167e565b5050565b6000801b6109e781611589565b6109ef611760565b50565b610a0d83838360405180602001604052806000815250610d8f565b505050565b6000610a1c610804565b8210610a5d576040517f08c379a0000000000000000000000000000000000000000000000000000000008152600401610a54906138d4565b60405180910390fd5b60088281548110610a7157610a706138f4565b5b90600052602060002001549050919050565b6000600b60009054906101000a900460ff16905090565b6000806002600084815260200190815260200160002060009054906101000a900473ffffffffffffffffffffffffffffffffffffffff169050600073ffffffffffffffffffffffffffffffffffffffff168173ffffffffffffffffffffffffffffffffffffffff1603610b42576040517f08c379a0000000000000000000000000000000000000000000000000000000008152600401610b3990613995565b60405180910390fd5b80915050919050565b60008073ffffffffffffffffffffffffffffffffffffffff168273ffffffffffffffffffffffffffffffffffffffff1603610bbb576040517f08c379a0000000000000000000000000000000000000000000000000000000008152600401610bb290613a27565b60405180910390fd5b600360008373ffffffffffffffffffffffffffffffffffffffff1673ffffffffffffffffffffffffffffffffffffffff168152602001908152602001600020549050919050565b6000801b610c0f81611589565b610c17611802565b50565b7f9f2df0fed2c77648de5860a4cc508cd0818c85b8b8a1ab4ceeef8d981c8956a6610c4481611589565b60008390505b828111610c6e57610c5b85826118a5565b8080610c6690613a76565b915050610c4a565b5050505050565b6000600c600084815260200190815260200160002060000160008373ffffffffffffffffffffffffffffffffffffffff1673ffffffffffffffffffffffffffffffffffffffff16815260200190815260200160002060009054906101000a900460ff16905092915050565b606060018054610cef906134c5565b80601f0160208091040260200160405190810160405280929190818152602001828054610d1b906134c5565b8015610d685780601f10610d3d57610100808354040283529160200191610d68565b820191906000526020600020905b815481529060010190602001808311610d4b57829003601f168201915b5050505050905090565b6000801b81565b610d8b610d84611184565b83836118c3565b5050565b610da0610d9a611184565b83611245565b610ddf576040517f08c379a0000000000000000000000000000000000000000000000000000000008152600401610dd69061371e565b60405180910390fd5b610deb84848484611a2f565b50505050565b6060610dfc82611a8b565b9050919050565b7f9f2df0fed2c77648de5860a4cc508cd0818c85b8b8a1ab4ceeef8d981c8956a681565b610e3082610871565b610e3981611589565b610e43838361167e565b505050565b610e50610a83565b15610e90576040517f08c379a0000000000000000000000000000000000000000000000000000000008152600401610e8790613b0a565b60405180910390fd5b610e9981610a9a565b73ffffffffffffffffffffffffffffffffffffffff163373ffffffffffffffffffffffffffffffffffffffff1614610f06576040517f08c379a0000000000000000000000000000000000000000000000000000000008152600401610efd90613b9c565b60405180910390fd5b803373ffffffffffffffffffffffffffffffffffffffff167fb6d0f573cba3d4a03c7eaa036f7d5a9228d6fb816811d88b4a7c5c9505ffb59260405160405180910390a3610f5381611bdc565b50565b60606000610f6383610b4b565b905060008167ffffffffffffffff811115610f8157610f806131c8565b5b604051908082528060200260200182016040528015610faf5781602001602082028036833780820191505090505b50905060005b82811015610fff576000610fc986836108b2565b905080838381518110610fdf57610fde6138f4565b5b602002602001018181525050508080610ff790613a76565b915050610fb5565b508092505050919050565b6000600560008473ffffffffffffffffffffffffffffffffffffffff1673ffffffffffffffffffffffffffffffffffffffff16815260200190815260200160002060008373ffffffffffffffffffffffffffffffffffffffff1673ffffffffffffffffffffffffffffffffffffffff16815260200190815260200160002060009054906101000a900460ff16905092915050565b60007f7965db0b000000000000000000000000000000000000000000000000000000007bffffffffffffffffffffffffffffffffffffffffffffffffffffffff1916827bffffffffffffffffffffffffffffffffffffffffffffffffffffffff19161480611111575061111082611be8565b5b9050919050565b60008073ffffffffffffffffffffffffffffffffffffffff166002600084815260200190815260200160002060009054906101000a900473ffffffffffffffffffffffffffffffffffffffff1673ffffffffffffffffffffffffffffffffffffffff1614159050919050565b600033905090565b816004600083815260200190815260200160002060006101000a81548173ffffffffffffffffffffffffffffffffffffffff021916908373ffffffffffffffffffffffffffffffffffffffff160217905550808273ffffffffffffffffffffffffffffffffffffffff166111ff83610a9a565b73ffffffffffffffffffffffffffffffffffffffff167f8c5be1e5ebec7d5bd14f71427d1e84f3dd0314c0f7b2291e5b200ac8c7c3b92560405160405180910390a45050565b600061125082611118565b61128f576040517f08c379a000000000000000000000000000000000000000000000000000000000815260040161128690613c2e565b60405180910390fd5b600061129a83610a9a565b90508073ffffffffffffffffffffffffffffffffffffffff168473ffffffffffffffffffffffffffffffffffffffff1614806112dc57506112db818561100a565b5b8061131a57508373ffffffffffffffffffffffffffffffffffffffff1661130284610668565b73ffffffffffffffffffffffffffffffffffffffff16145b91505092915050565b8273ffffffffffffffffffffffffffffffffffffffff1661134382610a9a565b73ffffffffffffffffffffffffffffffffffffffff1614611399576040517f08c379a000000000000000000000000000000000000000000000000000000000815260040161139090613cc0565b60405180910390fd5b600073ffffffffffffffffffffffffffffffffffffffff168273ffffffffffffffffffffffffffffffffffffffff1603611408576040517f08c379a00000000000000000000000000000000000000000000000000000000081526004016113ff90613d52565b60405180910390fd5b611413838383611c62565b61141e60008261118c565b6001600360008573ffffffffffffffffffffffffffffffffffffffff1673ffffffffffffffffffffffffffffffffffffffff168152602001908152602001600020600082825461146e9190613d72565b925050819055506001600360008473ffffffffffffffffffffffffffffffffffffffff1673ffffffffffffffffffffffffffffffffffffffff16815260200190815260200160002060008282546114c59190613da6565b92505081905550816002600083815260200190815260200160002060006101000a81548173ffffffffffffffffffffffffffffffffffffffff021916908373ffffffffffffffffffffffffffffffffffffffff160217905550808273ffffffffffffffffffffffffffffffffffffffff168473ffffffffffffffffffffffffffffffffffffffff167fddf252ad1be2c89b69c2b068fc378daa952ba7f163c4a11628f55a4df523b3ef60405160405180910390a4611584838383611cba565b505050565b61159a81611595611184565b611cbf565b50565b6115a78282610c75565b61167a576001600c600084815260200190815260200160002060000160008373ffffffffffffffffffffffffffffffffffffffff1673ffffffffffffffffffffffffffffffffffffffff16815260200190815260200160002060006101000a81548160ff02191690831515021790555061161f611184565b73ffffffffffffffffffffffffffffffffffffffff168173ffffffffffffffffffffffffffffffffffffffff16837f2f8788117e7eff1d82e926ec794901d17c78024a50270940304540a733656f0d60405160405180910390a45b5050565b6116888282610c75565b1561175c576000600c600084815260200190815260200160002060000160008373ffffffffffffffffffffffffffffffffffffffff1673ffffffffffffffffffffffffffffffffffffffff16815260200190815260200160002060006101000a81548160ff021916908315150217905550611701611184565b73ffffffffffffffffffffffffffffffffffffffff168173ffffffffffffffffffffffffffffffffffffffff16837ff6391f5c32d9c69d2a47ea670b442974b53935d1edc7fd64eb21e047a839171b60405160405180910390a45b5050565b611768610a83565b6117a7576040517f08c379a000000000000000000000000000000000000000000000000000000000815260040161179e90613e48565b60405180910390fd5b6000600b60006101000a81548160ff0219169083151502179055507f5db9ee0a495bf2e6ff9c91a7834c1ba4fdd244a5e8aa4e537bd38aeae4b073aa6117eb611184565b6040516117f89190612f01565b60405180910390a1565b61180a610a83565b1561184a576040517f08c379a000000000000000000000000000000000000000000000000000000000815260040161184190613b0a565b60405180910390fd5b6001600b60006101000a81548160ff0219169083151502179055507f62e78cea01bee320cd4e420270b5ea74000d11b0c9f74754ebdbfc544b05a25861188e611184565b60405161189b9190612f01565b60405180910390a1565b6118bf828260405180602001604052806000815250611d5c565b5050565b8173ffffffffffffffffffffffffffffffffffffffff168373ffffffffffffffffffffffffffffffffffffffff1603611931576040517f08c379a000000000000000000000000000000000000000000000000000000000815260040161192890613eb4565b60405180910390fd5b80600560008573ffffffffffffffffffffffffffffffffffffffff1673ffffffffffffffffffffffffffffffffffffffff16815260200190815260200160002060008473ffffffffffffffffffffffffffffffffffffffff1673ffffffffffffffffffffffffffffffffffffffff16815260200190815260200160002060006101000a81548160ff0219169083151502179055508173ffffffffffffffffffffffffffffffffffffffff168373ffffffffffffffffffffffffffffffffffffffff167f17307eab39ab6107e8899845ad3d59bd9653f200f220920489ca2b5937696c3183604051611a229190612d87565b60405180910390a3505050565b611a3a848484611323565b611a4684848484611db7565b611a85576040517f08c379a0000000000000000000000000000000000000000000000000000000008152600401611a7c90613f46565b60405180910390fd5b50505050565b6060611a9682611118565b611ad5576040517f08c379a0000000000000000000000000000000000000000000000000000000008152600401611acc90613fd8565b60405180910390fd5b6000600a60008481526020019081526020016000208054611af5906134c5565b80601f0160208091040260200160405190810160405280929190818152602001828054611b21906134c5565b8015611b6e5780601f10611b4357610100808354040283529160200191611b6e565b820191906000526020600020905b815481529060010190602001808311611b5157829003601f168201915b505050505090506000611b7f611f3e565b90506000815103611b94578192505050611bd7565b600082511115611bc9578082604051602001611bb1929190614034565b60405160208183030381529060405292505050611bd7565b611bd284611f5e565b925050505b919050565b611be581612005565b50565b60007f780e9d63000000000000000000000000000000000000000000000000000000007bffffffffffffffffffffffffffffffffffffffffffffffffffffffff1916827bffffffffffffffffffffffffffffffffffffffffffffffffffffffff19161480611c5b5750611c5a82612058565b5b9050919050565b611c6a610a83565b15611caa576040517f08c379a0000000000000000000000000000000000000000000000000000000008152600401611ca190613b0a565b60405180910390fd5b611cb583838361213a565b505050565b505050565b611cc98282610c75565b611d5857611cee8173ffffffffffffffffffffffffffffffffffffffff16601461224c565b611cfc8360001c602061224c565b604051602001611d0d9291906140f0565b6040516020818303038152906040526040517f08c379a0000000000000000000000000000000000000000000000000000000008152600401611d4f9190612e3b565b60405180910390fd5b5050565b611d668383612488565b611d736000848484611db7565b611db2576040517f08c379a0000000000000000000000000000000000000000000000000000000008152600401611da990613f46565b60405180910390fd5b505050565b6000611dd88473ffffffffffffffffffffffffffffffffffffffff16612661565b15611f31578373ffffffffffffffffffffffffffffffffffffffff1663150b7a02611e01611184565b8786866040518563ffffffff1660e01b8152600401611e23949392919061417f565b6020604051808303816000875af1925050508015611e5f57506040513d601f19601f82011682018060405250810190611e5c91906141e0565b60015b611ee1573d8060008114611e8f576040519150601f19603f3d011682016040523d82523d6000602084013e611e94565b606091505b506000815103611ed9576040517f08c379a0000000000000000000000000000000000000000000000000000000008152600401611ed090613f46565b60405180910390fd5b805181602001fd5b63150b7a0260e01b7bffffffffffffffffffffffffffffffffffffffffffffffffffffffff1916817bffffffffffffffffffffffffffffffffffffffffffffffffffffffff191614915050611f36565b600190505b949350505050565b606060405180606001604052806032815260200161452760329139905090565b6060611f6982611118565b611fa8576040517f08c379a0000000000000000000000000000000000000000000000000000000008152600401611f9f9061427f565b60405180910390fd5b6000611fb2611f3e565b90506000815111611fd25760405180602001604052806000815250611ffd565b80611fdc84612684565b604051602001611fed929190614034565b6040516020818303038152906040525b915050919050565b61200e816127e4565b6000600a6000838152602001908152602001600020805461202e906134c5565b90501461205557600a600082815260200190815260200160002060006120549190612c76565b5b50565b60007f80ac58cd000000000000000000000000000000000000000000000000000000007bffffffffffffffffffffffffffffffffffffffffffffffffffffffff1916827bffffffffffffffffffffffffffffffffffffffffffffffffffffffff1916148061212357507f5b5e139f000000000000000000000000000000000000000000000000000000007bffffffffffffffffffffffffffffffffffffffffffffffffffffffff1916827bffffffffffffffffffffffffffffffffffffffffffffffffffffffff1916145b80612133575061213282612901565b5b9050919050565b61214583838361296b565b600073ffffffffffffffffffffffffffffffffffffffff168373ffffffffffffffffffffffffffffffffffffffff16036121875761218281612970565b6121c6565b8173ffffffffffffffffffffffffffffffffffffffff168373ffffffffffffffffffffffffffffffffffffffff16146121c5576121c483826129b9565b5b5b600073ffffffffffffffffffffffffffffffffffffffff168273ffffffffffffffffffffffffffffffffffffffff16036122085761220381612b26565b612247565b8273ffffffffffffffffffffffffffffffffffffffff168273ffffffffffffffffffffffffffffffffffffffff1614612246576122458282612bf7565b5b5b505050565b60606000600283600261225f919061429f565b6122699190613da6565b67ffffffffffffffff811115612282576122816131c8565b5b6040519080825280601f01601f1916602001820160405280156122b45781602001600182028036833780820191505090505b5090507f3000000000000000000000000000000000000000000000000000000000000000816000815181106122ec576122eb6138f4565b5b60200101907effffffffffffffffffffffffffffffffffffffffffffffffffffffffffffff1916908160001a9053507f7800000000000000000000000000000000000000000000000000000000000000816001815181106123505761234f6138f4565b5b60200101907effffffffffffffffffffffffffffffffffffffffffffffffffffffffffffff1916908160001a90535060006001846002612390919061429f565b61239a9190613da6565b90505b600181111561243a577f3031323334353637383961626364656600000000000000000000000000000000600f8616601081106123dc576123db6138f4565b5b1a60f81b8282815181106123f3576123f26138f4565b5b60200101907effffffffffffffffffffffffffffffffffffffffffffffffffffffffffffff1916908160001a905350600485901c945080612433906142f9565b905061239d565b506000841461247e576040517f08c379a00000000000000000000000000000000000000000000000000000000081526004016124759061436e565b60405180910390fd5b8091505092915050565b600073ffffffffffffffffffffffffffffffffffffffff168273ffffffffffffffffffffffffffffffffffffffff16036124f7576040517f08c379a00000000000000000000000000000000000000000000000000000000081526004016124ee906143da565b60405180910390fd5b61250081611118565b15612540576040517f08c379a000000000000000000000000000000000000000000000000000000000815260040161253790614446565b60405180910390fd5b61254c60008383611c62565b6001600360008473ffffffffffffffffffffffffffffffffffffffff1673ffffffffffffffffffffffffffffffffffffffff168152602001908152602001600020600082825461259c9190613da6565b92505081905550816002600083815260200190815260200160002060006101000a81548173ffffffffffffffffffffffffffffffffffffffff021916908373ffffffffffffffffffffffffffffffffffffffff160217905550808273ffffffffffffffffffffffffffffffffffffffff16600073ffffffffffffffffffffffffffffffffffffffff167fddf252ad1be2c89b69c2b068fc378daa952ba7f163c4a11628f55a4df523b3ef60405160405180910390a461265d60008383611cba565b5050565b6000808273ffffffffffffffffffffffffffffffffffffffff163b119050919050565b6060600082036126cb576040518060400160405280600181526020017f300000000000000000000000000000000000000000000000000000000000000081525090506127df565b600082905060005b600082146126fd5780806126e690613a76565b915050600a826126f69190614495565b91506126d3565b60008167ffffffffffffffff811115612719576127186131c8565b5b6040519080825280601f01601f19166020018201604052801561274b5781602001600182028036833780820191505090505b5090505b600085146127d8576001826127649190613d72565b9150600a8561277391906144c6565b603061277f9190613da6565b60f81b818381518110612795576127946138f4565b5b60200101907effffffffffffffffffffffffffffffffffffffffffffffffffffffffffffff1916908160001a905350600a856127d19190614495565b945061274f565b8093505050505b919050565b60006127ef82610a9a565b90506127fd81600084611c62565b61280860008361118c565b6001600360008373ffffffffffffffffffffffffffffffffffffffff1673ffffffffffffffffffffffffffffffffffffffff16815260200190815260200160002060008282546128589190613d72565b925050819055506002600083815260200190815260200160002060006101000a81549073ffffffffffffffffffffffffffffffffffffffff021916905581600073ffffffffffffffffffffffffffffffffffffffff168273ffffffffffffffffffffffffffffffffffffffff167fddf252ad1be2c89b69c2b068fc378daa952ba7f163c4a11628f55a4df523b3ef60405160405180910390a46128fd81600084611cba565b5050565b60007f01ffc9a7000000000000000000000000000000000000000000000000000000007bffffffffffffffffffffffffffffffffffffffffffffffffffffffff1916827bffffffffffffffffffffffffffffffffffffffffffffffffffffffff1916149050919050565b505050565b6008805490506009600083815260200190815260200160002081905550600881908060018154018082558091505060019003906000526020600020016000909190919091505550565b600060016129c684610b4b565b6129d09190613d72565b9050600060076000848152602001908152602001600020549050818114612ab5576000600660008673ffffffffffffffffffffffffffffffffffffffff1673ffffffffffffffffffffffffffffffffffffffff168152602001908152602001600020600084815260200190815260200160002054905080600660008773ffffffffffffffffffffffffffffffffffffffff1673ffffffffffffffffffffffffffffffffffffffff168152602001908152602001600020600084815260200190815260200160002081905550816007600083815260200190815260200160002081905550505b6007600084815260200190815260200160002060009055600660008573ffffffffffffffffffffffffffffffffffffffff1673ffffffffffffffffffffffffffffffffffffffff16815260200190815260200160002060008381526020019081526020016000206000905550505050565b60006001600880549050612b3a9190613d72565b9050600060096000848152602001908152602001600020549050600060088381548110612b6a57612b696138f4565b5b906000526020600020015490508060088381548110612b8c57612b8b6138f4565b5b906000526020600020018190555081600960008381526020019081526020016000208190555060096000858152602001908152602001600020600090556008805480612bdb57612bda6144f7565b5b6001900381819060005260206000200160009055905550505050565b6000612c0283610b4b565b905081600660008573ffffffffffffffffffffffffffffffffffffffff1673ffffffffffffffffffffffffffffffffffffffff168152602001908152602001600020600083815260200190815260200160002081905550806007600084815260200190815260200160002081905550505050565b508054612c82906134c5565b6000825580601f10612c945750612cb3565b601f016020900490600052602060002090810190612cb29190612cb6565b5b50565b5b80821115612ccf576000816000905550600101612cb7565b5090565b6000604051905090565b600080fd5b600080fd5b60007fffffffff0000000000000000000000000000000000000000000000000000000082169050919050565b612d1c81612ce7565b8114612d2757600080fd5b50565b600081359050612d3981612d13565b92915050565b600060208284031215612d5557612d54612cdd565b5b6000612d6384828501612d2a565b91505092915050565b60008115159050919050565b612d8181612d6c565b82525050565b6000602082019050612d9c6000830184612d78565b92915050565b600081519050919050565b600082825260208201905092915050565b60005b83811015612ddc578082015181840152602081019050612dc1565b83811115612deb576000848401525b50505050565b6000601f19601f8301169050919050565b6000612e0d82612da2565b612e178185612dad565b9350612e27818560208601612dbe565b612e3081612df1565b840191505092915050565b60006020820190508181036000830152612e558184612e02565b905092915050565b6000819050919050565b612e7081612e5d565b8114612e7b57600080fd5b50565b600081359050612e8d81612e67565b92915050565b600060208284031215612ea957612ea8612cdd565b5b6000612eb784828501612e7e565b91505092915050565b600073ffffffffffffffffffffffffffffffffffffffff82169050919050565b6000612eeb82612ec0565b9050919050565b612efb81612ee0565b82525050565b6000602082019050612f166000830184612ef2565b92915050565b612f2581612ee0565b8114612f3057600080fd5b50565b600081359050612f4281612f1c565b92915050565b60008060408385031215612f5f57612f5e612cdd565b5b6000612f6d85828601612f33565b9250506020612f7e85828601612e7e565b9150509250929050565b612f9181612e5d565b82525050565b6000602082019050612fac6000830184612f88565b92915050565b600080600060608486031215612fcb57612fca612cdd565b5b6000612fd986828701612f33565b9350506020612fea86828701612f33565b9250506040612ffb86828701612e7e565b9150509250925092565b6000819050919050565b61301881613005565b811461302357600080fd5b50565b6000813590506130358161300f565b92915050565b60006020828403121561305157613050612cdd565b5b600061305f84828501613026565b91505092915050565b61307181613005565b82525050565b600060208201905061308c6000830184613068565b92915050565b600080604083850312156130a9576130a8612cdd565b5b60006130b785828601613026565b92505060206130c885828601612f33565b9150509250929050565b6000602082840312156130e8576130e7612cdd565b5b60006130f684828501612f33565b91505092915050565b60008060006060848603121561311857613117612cdd565b5b600061312686828701612f33565b935050602061313786828701612e7e565b925050604061314886828701612e7e565b9150509250925092565b61315b81612d6c565b811461316657600080fd5b50565b60008135905061317881613152565b92915050565b6000806040838503121561319557613194612cdd565b5b60006131a385828601612f33565b92505060206131b485828601613169565b9150509250929050565b600080fd5b600080fd5b7f4e487b7100000000000000000000000000000000000000000000000000000000600052604160045260246000fd5b61320082612df1565b810181811067ffffffffffffffff8211171561321f5761321e6131c8565b5b80604052505050565b6000613232612cd3565b905061323e82826131f7565b919050565b600067ffffffffffffffff82111561325e5761325d6131c8565b5b61326782612df1565b9050602081019050919050565b82818337600083830152505050565b600061329661329184613243565b613228565b9050828152602081018484840111156132b2576132b16131c3565b5b6132bd848285613274565b509392505050565b600082601f8301126132da576132d96131be565b5b81356132ea848260208601613283565b91505092915050565b6000806000806080858703121561330d5761330c612cdd565b5b600061331b87828801612f33565b945050602061332c87828801612f33565b935050604061333d87828801612e7e565b925050606085013567ffffffffffffffff81111561335e5761335d612ce2565b5b61336a878288016132c5565b91505092959194509250565b600081519050919050565b600082825260208201905092915050565b6000819050602082019050919050565b6133ab81612e5d565b82525050565b60006133bd83836133a2565b60208301905092915050565b6000602082019050919050565b60006133e182613376565b6133eb8185613381565b93506133f683613392565b8060005b8381101561342757815161340e88826133b1565b9750613419836133c9565b9250506001810190506133fa565b5085935050505092915050565b6000602082019050818103600083015261344e81846133d6565b905092915050565b6000806040838503121561346d5761346c612cdd565b5b600061347b85828601612f33565b925050602061348c85828601612f33565b9150509250929050565b7f4e487b7100000000000000000000000000000000000000000000000000000000600052602260045260246000fd5b600060028204905060018216806134dd57607f821691505b6020821081036134f0576134ef613496565b5b50919050565b7f4552433732313a20617070726f76656420717565727920666f72206e6f6e657860008201527f697374656e7420746f6b656e0000000000000000000000000000000000000000602082015250565b6000613552602c83612dad565b915061355d826134f6565b604082019050919050565b6000602082019050818103600083015261358181613545565b9050919050565b7f4552433732313a20617070726f76616c20746f2063757272656e74206f776e6560008201527f7200000000000000000000000000000000000000000000000000000000000000602082015250565b60006135e4602183612dad565b91506135ef82613588565b604082019050919050565b60006020820190508181036000830152613613816135d7565b9050919050565b7f4552433732313a20617070726f76652063616c6c6572206973206e6f74206f7760008201527f6e6572206e6f7220617070726f76656420666f7220616c6c0000000000000000602082015250565b6000613676603883612dad565b91506136818261361a565b604082019050919050565b600060208201905081810360008301526136a581613669565b9050919050565b7f4552433732313a207472616e736665722063616c6c6572206973206e6f74206f60008201527f776e6572206e6f7220617070726f766564000000000000000000000000000000602082015250565b6000613708603183612dad565b9150613713826136ac565b604082019050919050565b60006020820190508181036000830152613737816136fb565b9050919050565b7f455243373231456e756d657261626c653a206f776e657220696e646578206f7560008201527f74206f6620626f756e6473000000000000000000000000000000000000000000602082015250565b600061379a602b83612dad565b91506137a58261373e565b604082019050919050565b600060208201905081810360008301526137c98161378d565b9050919050565b7f416363657373436f6e74726f6c3a2063616e206f6e6c792072656e6f756e636560008201527f20726f6c657320666f722073656c660000000000000000000000000000000000602082015250565b600061382c602f83612dad565b9150613837826137d0565b604082019050919050565b6000602082019050818103600083015261385b8161381f565b9050919050565b7f455243373231456e756d657261626c653a20676c6f62616c20696e646578206f60008201527f7574206f6620626f756e64730000000000000000000000000000000000000000602082015250565b60006138be602c83612dad565b91506138c982613862565b604082019050919050565b600060208201905081810360008301526138ed816138b1565b9050919050565b7f4e487b7100000000000000000000000000000000000000000000000000000000600052603260045260246000fd5b7f4552433732313a206f776e657220717565727920666f72206e6f6e657869737460008201527f656e7420746f6b656e0000000000000000000000000000000000000000000000602082015250565b600061397f602983612dad565b915061398a82613923565b604082019050919050565b600060208201905081810360008301526139ae81613972565b9050919050565b7f4552433732313a2062616c616e636520717565727920666f7220746865207a6560008201527f726f206164647265737300000000000000000000000000000000000000000000602082015250565b6000613a11602a83612dad565b9150613a1c826139b5565b604082019050919050565b60006020820190508181036000830152613a4081613a04565b9050919050565b7f4e487b7100000000000000000000000000000000000000000000000000000000600052601160045260246000fd5b6000613a8182612e5d565b91507fffffffffffffffffffffffffffffffffffffffffffffffffffffffffffffffff8203613ab357613ab2613a47565b5b600182019050919050565b7f5061757361626c653a2070617573656400000000000000000000000000000000600082015250565b6000613af4601083612dad565b9150613aff82613abe565b602082019050919050565b60006020820190508181036000830152613b2381613ae7565b9050919050565b7f544b4d426f783a206f6e6c7920746f6b656e206f776e65722063616e206f706560008201527f6e00000000000000000000000000000000000000000000000000000000000000602082015250565b6000613b86602183612dad565b9150613b9182613b2a565b604082019050919050565b60006020820190508181036000830152613bb581613b79565b9050919050565b7f4552433732313a206f70657261746f7220717565727920666f72206e6f6e657860008201527f697374656e7420746f6b656e0000000000000000000000000000000000000000602082015250565b6000613c18602c83612dad565b9150613c2382613bbc565b604082019050919050565b60006020820190508181036000830152613c4781613c0b565b9050919050565b7f4552433732313a207472616e736665722066726f6d20696e636f72726563742060008201527f6f776e6572000000000000000000000000000000000000000000000000000000602082015250565b6000613caa602583612dad565b9150613cb582613c4e565b604082019050919050565b60006020820190508181036000830152613cd981613c9d565b9050919050565b7f4552433732313a207472616e7366657220746f20746865207a65726f2061646460008201527f7265737300000000000000000000000000000000000000000000000000000000602082015250565b6000613d3c602483612dad565b9150613d4782613ce0565b604082019050919050565b60006020820190508181036000830152613d6b81613d2f565b9050919050565b6000613d7d82612e5d565b9150613d8883612e5d565b925082821015613d9b57613d9a613a47565b5b828203905092915050565b6000613db182612e5d565b9150613dbc83612e5d565b9250827fffffffffffffffffffffffffffffffffffffffffffffffffffffffffffffffff03821115613df157613df0613a47565b5b828201905092915050565b7f5061757361626c653a206e6f7420706175736564000000000000000000000000600082015250565b6000613e32601483612dad565b9150613e3d82613dfc565b602082019050919050565b60006020820190508181036000830152613e6181613e25565b9050919050565b7f4552433732313a20617070726f766520746f2063616c6c657200000000000000600082015250565b6000613e9e601983612dad565b9150613ea982613e68565b602082019050919050565b60006020820190508181036000830152613ecd81613e91565b9050919050565b7f4552433732313a207472616e7366657220746f206e6f6e20455243373231526560008201527f63656976657220696d706c656d656e7465720000000000000000000000000000602082015250565b6000613f30603283612dad565b9150613f3b82613ed4565b604082019050919050565b60006020820190508181036000830152613f5f81613f23565b9050919050565b7f45524337323155524953746f726167653a2055524920717565727920666f722060008201527f6e6f6e6578697374656e7420746f6b656e000000000000000000000000000000602082015250565b6000613fc2603183612dad565b9150613fcd82613f66565b604082019050919050565b60006020820190508181036000830152613ff181613fb5565b9050919050565b600081905092915050565b600061400e82612da2565b6140188185613ff8565b9350614028818560208601612dbe565b80840191505092915050565b60006140408285614003565b915061404c8284614003565b91508190509392505050565b7f416363657373436f6e74726f6c3a206163636f756e7420000000000000000000600082015250565b600061408e601783613ff8565b915061409982614058565b601782019050919050565b7f206973206d697373696e6720726f6c6520000000000000000000000000000000600082015250565b60006140da601183613ff8565b91506140e5826140a4565b601182019050919050565b60006140fb82614081565b91506141078285614003565b9150614112826140cd565b915061411e8284614003565b91508190509392505050565b600081519050919050565b600082825260208201905092915050565b60006141518261412a565b61415b8185614135565b935061416b818560208601612dbe565b61417481612df1565b840191505092915050565b60006080820190506141946000830187612ef2565b6141a16020830186612ef2565b6141ae6040830185612f88565b81810360608301526141c08184614146565b905095945050505050565b6000815190506141da81612d13565b92915050565b6000602082840312156141f6576141f5612cdd565b5b6000614204848285016141cb565b91505092915050565b7f4552433732314d657461646174613a2055524920717565727920666f72206e6f60008201527f6e6578697374656e7420746f6b656e0000000000000000000000000000000000602082015250565b6000614269602f83612dad565b91506142748261420d565b604082019050919050565b600060208201905081810360008301526142988161425c565b9050919050565b60006142aa82612e5d565b91506142b583612e5d565b9250817fffffffffffffffffffffffffffffffffffffffffffffffffffffffffffffffff04831182151516156142ee576142ed613a47565b5b828202905092915050565b600061430482612e5d565b91506000820361431757614316613a47565b5b600182039050919050565b7f537472696e67733a20686578206c656e67746820696e73756666696369656e74600082015250565b6000614358602083612dad565b915061436382614322565b602082019050919050565b600060208201905081810360008301526143878161434b565b9050919050565b7f4552433732313a206d696e7420746f20746865207a65726f2061646472657373600082015250565b60006143c4602083612dad565b91506143cf8261438e565b602082019050919050565b600060208201905081810360008301526143f3816143b7565b9050919050565b7f4552433732313a20746f6b656e20616c7265616479206d696e74656400000000600082015250565b6000614430601c83612dad565b915061443b826143fa565b602082019050919050565b6000602082019050818103600083015261445f81614423565b9050919050565b7f4e487b7100000000000000000000000000000000000000000000000000000000600052601260045260246000fd5b60006144a082612e5d565b91506144ab83612e5d565b9250826144bb576144ba614466565b5b828204905092915050565b60006144d182612e5d565b91506144dc83612e5d565b9250826144ec576144eb614466565b5b828206905092915050565b7f4e487b7100000000000000000000000000000000000000000000000000000000600052603160045260246000fdfe68747470733a2f2f616c7068612d6170692e7072756e656d61726b65742e78797a3a3535322f6e66742f696e6f2f746b6d2fa2646970667358221220472097154d4ad41d7cb9a3c79dd0a05f08ea16050bb4975d4d4fc5570e8e93c164736f6c634300080e0033",
  "immutableReferences": {},
  "source": "// SPDX-License-Identifier: MIT\r\n\r\npragma solidity ^0.8.14;\r\n\r\nimport \"@openzeppelin/contracts/token/ERC721/ERC721.sol\";\r\nimport \"@openzeppelin/contracts/token/ERC721/extensions/ERC721Enumerable.sol\";\r\nimport \"@openzeppelin/contracts/token/ERC721/extensions/ERC721URIStorage.sol\";\r\nimport \"@openzeppelin/contracts/security/Pausable.sol\";\r\nimport \"@openzeppelin/contracts/access/AccessControl.sol\";\r\n\r\ncontract TKMBoxA is ERC721, ERC721Enumerable, ERC721URIStorage, Pausable, AccessControl {\r\n    bytes32 public constant MINTER_ROLE = keccak256(\"MINTER_ROLE\");\r\n\r\n    event BoxOpen(address indexed opener, uint256 indexed tokenId);\r\n\r\n    constructor(address _minter)\r\n        ERC721(\"Three Kingdom Multiverse Box\", \"3KMBox_A\")\r\n    {\r\n        _grantRole(DEFAULT_ADMIN_ROLE, msg.sender);\r\n        _grantRole(MINTER_ROLE, _minter);\r\n    }\r\n\r\n    function pause() public onlyRole(DEFAULT_ADMIN_ROLE) {\r\n        _pause();\r\n    }\r\n\r\n    function unpause() public onlyRole(DEFAULT_ADMIN_ROLE) {\r\n        _unpause();\r\n    }\r\n\r\n    function inoMint(address to, uint256 startId, uint256 endId) external onlyRole(MINTER_ROLE) {\r\n        for (uint256 k = startId; k <= endId; k++) {\r\n            _safeMint(to, k);\r\n        }\r\n    }\r\n\r\n    function collection(address owner)\r\n        public\r\n        view\r\n        returns (uint256[] memory)\r\n    {\r\n        uint256 boxAmount = ERC721.balanceOf(owner);\r\n        uint256[] memory boxes = new uint256[](boxAmount);\r\n        for (uint256 i = 0; i < boxAmount; i++) {\r\n            uint256 tokenId = ERC721Enumerable.tokenOfOwnerByIndex(owner, i);\r\n            boxes[i] = tokenId;\r\n        }\r\n        return boxes;\r\n    }\r\n\r\n    function boxOpen(uint256 tokenId) external whenNotPaused {\r\n        require(\r\n            msg.sender == ownerOf(tokenId),\r\n            \"TKMBox: only token owner can open\"\r\n        );\r\n        \r\n        emit BoxOpen(msg.sender, tokenId);\r\n\r\n        _burn(tokenId);\r\n    }\r\n\r\n    function _baseURI() internal pure override returns (string memory) {\r\n        return \"https://alpha-api.prunemarket.xyz:552/nft/ino/tkm/\";\r\n    }\r\n\r\n    function _beforeTokenTransfer(\r\n        address from,\r\n        address to,\r\n        uint256 tokenId\r\n    ) internal whenNotPaused override(ERC721, ERC721Enumerable) {\r\n        super._beforeTokenTransfer(from, to, tokenId);\r\n    }\r\n\r\n    function _burn(uint256 tokenId)\r\n        internal\r\n        override(ERC721, ERC721URIStorage)\r\n    {\r\n        super._burn(tokenId);\r\n    }\r\n\r\n    function tokenURI(uint256 tokenId)\r\n        public\r\n        view\r\n        override(ERC721, ERC721URIStorage)\r\n        returns (string memory)\r\n    {\r\n        return super.tokenURI(tokenId);\r\n    }\r\n\r\n    function supportsInterface(bytes4 interfaceId)\r\n        public\r\n        view\r\n        override(ERC721, ERC721Enumerable, AccessControl)\r\n        returns (bool)\r\n    {\r\n        return super.supportsInterface(interfaceId);\r\n    }\r\n}\r\n",
  "sourcePath": "D:\\github\\solidity_tinyping\\contracts\\TKMBoxA.sol",
  "compiler": {
    "name": "solc",
    "version": "0.8.14+commit.80d49f37.Emscripten.clang"
  },
  "schemaVersion": "3.4.7",
  "updatedAt": "2022-12-13T02:11:47.468Z",
  "devdoc": {
    "kind": "dev",
    "methods": {
      "approve(address,uint256)": {
        "details": "See {IERC721-approve}."
      },
      "balanceOf(address)": {
        "details": "See {IERC721-balanceOf}."
      },
      "getApproved(uint256)": {
        "details": "See {IERC721-getApproved}."
      },
      "getRoleAdmin(bytes32)": {
        "details": "Returns the admin role that controls `role`. See {grantRole} and {revokeRole}. To change a role's admin, use {_setRoleAdmin}."
      },
      "grantRole(bytes32,address)": {
        "details": "Grants `role` to `account`. If `account` had not been already granted `role`, emits a {RoleGranted} event. Requirements: - the caller must have ``role``'s admin role."
      },
      "hasRole(bytes32,address)": {
        "details": "Returns `true` if `account` has been granted `role`."
      },
      "isApprovedForAll(address,address)": {
        "details": "See {IERC721-isApprovedForAll}."
      },
      "name()": {
        "details": "See {IERC721Metadata-name}."
      },
      "ownerOf(uint256)": {
        "details": "See {IERC721-ownerOf}."
      },
      "paused()": {
        "details": "Returns true if the contract is paused, and false otherwise."
      },
      "renounceRole(bytes32,address)": {
        "details": "Revokes `role` from the calling account. Roles are often managed via {grantRole} and {revokeRole}: this function's purpose is to provide a mechanism for accounts to lose their privileges if they are compromised (such as when a trusted device is misplaced). If the calling account had been revoked `role`, emits a {RoleRevoked} event. Requirements: - the caller must be `account`."
      },
      "revokeRole(bytes32,address)": {
        "details": "Revokes `role` from `account`. If `account` had been granted `role`, emits a {RoleRevoked} event. Requirements: - the caller must have ``role``'s admin role."
      },
      "safeTransferFrom(address,address,uint256)": {
        "details": "See {IERC721-safeTransferFrom}."
      },
      "safeTransferFrom(address,address,uint256,bytes)": {
        "details": "See {IERC721-safeTransferFrom}."
      },
      "setApprovalForAll(address,bool)": {
        "details": "See {IERC721-setApprovalForAll}."
      },
      "symbol()": {
        "details": "See {IERC721Metadata-symbol}."
      },
      "tokenByIndex(uint256)": {
        "details": "See {IERC721Enumerable-tokenByIndex}."
      },
      "tokenOfOwnerByIndex(address,uint256)": {
        "details": "See {IERC721Enumerable-tokenOfOwnerByIndex}."
      },
      "totalSupply()": {
        "details": "See {IERC721Enumerable-totalSupply}."
      },
      "transferFrom(address,address,uint256)": {
        "details": "See {IERC721-transferFrom}."
      }
    },
    "version": 1
  },
  "userdoc": {
    "kind": "user",
    "methods": {},
    "version": 1
  }
}