{
  "contractName": "TKMStaking4A",
  "abi": [
    {
      "inputs": [
        {
          "internalType": "address",
          "name": "_TKMToken",
          "type": "address"
        },
        {
          "internalType": "address",
          "name": "_DTCToken",
          "type": "address"
        },
        {
          "internalType": "address",
          "name": "_TokenHolder",
          "type": "address"
        }
      ],
      "stateMutability": "nonpayable",
      "type": "constructor"
    },
    {
      "anonymous": false,
      "inputs": [
        {
          "indexed": true,
          "internalType": "address",
          "name": "from",
          "type": "address"
        },
        {
          "indexed": false,
          "internalType": "uint256",
          "name": "blockNumber",
          "type": "uint256"
        },
        {
          "indexed": false,
          "internalType": "uint256",
          "name": "stakeId",
          "type": "uint256"
        },
        {
          "indexed": false,
          "internalType": "uint256",
          "name": "stakingIdx",
          "type": "uint256"
        }
      ],
      "name": "Harvest",
      "type": "event"
    },
    {
      "anonymous": false,
      "inputs": [
        {
          "indexed": true,
          "internalType": "address",
          "name": "previousOwner",
          "type": "address"
        },
        {
          "indexed": true,
          "internalType": "address",
          "name": "newOwner",
          "type": "address"
        }
      ],
      "name": "OwnershipTransferred",
      "type": "event"
    },
    {
      "anonymous": false,
      "inputs": [
        {
          "indexed": false,
          "internalType": "address",
          "name": "account",
          "type": "address"
        }
      ],
      "name": "Paused",
      "type": "event"
    },
    {
      "anonymous": false,
      "inputs": [
        {
          "indexed": true,
          "internalType": "address",
          "name": "from",
          "type": "address"
        },
        {
          "indexed": false,
          "internalType": "uint256",
          "name": "blockNumber",
          "type": "uint256"
        },
        {
          "indexed": false,
          "internalType": "uint256",
          "name": "stakeId",
          "type": "uint256"
        },
        {
          "indexed": false,
          "internalType": "uint256",
          "name": "stakingIdx",
          "type": "uint256"
        },
        {
          "indexed": false,
          "internalType": "uint256",
          "name": "amount",
          "type": "uint256"
        }
      ],
      "name": "Stake",
      "type": "event"
    },
    {
      "anonymous": false,
      "inputs": [
        {
          "indexed": false,
          "internalType": "address",
          "name": "account",
          "type": "address"
        }
      ],
      "name": "Unpaused",
      "type": "event"
    },
    {
      "anonymous": false,
      "inputs": [
        {
          "indexed": true,
          "internalType": "address",
          "name": "from",
          "type": "address"
        },
        {
          "indexed": false,
          "internalType": "uint256",
          "name": "blockNumber",
          "type": "uint256"
        },
        {
          "indexed": false,
          "internalType": "uint256",
          "name": "stakeId",
          "type": "uint256"
        },
        {
          "indexed": false,
          "internalType": "uint256",
          "name": "stakingIdx",
          "type": "uint256"
        }
      ],
      "name": "Withdraw",
      "type": "event"
    },
    {
      "inputs": [],
      "name": "owner",
      "outputs": [
        {
          "internalType": "address",
          "name": "",
          "type": "address"
        }
      ],
      "stateMutability": "view",
      "type": "function",
      "constant": true
    },
    {
      "inputs": [],
      "name": "paused",
      "outputs": [
        {
          "internalType": "bool",
          "name": "",
          "type": "bool"
        }
      ],
      "stateMutability": "view",
      "type": "function",
      "constant": true
    },
    {
      "inputs": [
        {
          "internalType": "uint256",
          "name": "",
          "type": "uint256"
        }
      ],
      "name": "progressing",
      "outputs": [
        {
          "internalType": "address",
          "name": "user",
          "type": "address"
        },
        {
          "internalType": "uint256",
          "name": "stakeId",
          "type": "uint256"
        },
        {
          "internalType": "uint256",
          "name": "stakeAmount",
          "type": "uint256"
        }
      ],
      "stateMutability": "view",
      "type": "function",
      "constant": true
    },
    {
      "inputs": [],
      "name": "renounceOwnership",
      "outputs": [],
      "stateMutability": "nonpayable",
      "type": "function"
    },
    {
      "inputs": [
        {
          "internalType": "uint256",
          "name": "",
          "type": "uint256"
        }
      ],
      "name": "stakeIds",
      "outputs": [
        {
          "internalType": "bool",
          "name": "",
          "type": "bool"
        }
      ],
      "stateMutability": "view",
      "type": "function",
      "constant": true
    },
    {
      "inputs": [
        {
          "internalType": "address",
          "name": "",
          "type": "address"
        },
        {
          "internalType": "uint256",
          "name": "",
          "type": "uint256"
        }
      ],
      "name": "stakeJoin",
      "outputs": [
        {
          "internalType": "bool",
          "name": "",
          "type": "bool"
        }
      ],
      "stateMutability": "view",
      "type": "function",
      "constant": true
    },
    {
      "inputs": [],
      "name": "stakingIdx",
      "outputs": [
        {
          "internalType": "uint256",
          "name": "",
          "type": "uint256"
        }
      ],
      "stateMutability": "view",
      "type": "function",
      "constant": true
    },
    {
      "inputs": [
        {
          "internalType": "uint256",
          "name": "",
          "type": "uint256"
        }
      ],
      "name": "stakings",
      "outputs": [
        {
          "internalType": "uint256",
          "name": "startTime",
          "type": "uint256"
        },
        {
          "internalType": "uint256",
          "name": "endTime",
          "type": "uint256"
        },
        {
          "internalType": "uint256",
          "name": "minTokenAmount",
          "type": "uint256"
        },
        {
          "internalType": "uint256",
          "name": "perTokenAmount",
          "type": "uint256"
        },
        {
          "internalType": "uint256",
          "name": "curTokenAmount",
          "type": "uint256"
        }
      ],
      "stateMutability": "view",
      "type": "function",
      "constant": true
    },
    {
      "inputs": [],
      "name": "tokenHolder",
      "outputs": [
        {
          "internalType": "address",
          "name": "",
          "type": "address"
        }
      ],
      "stateMutability": "view",
      "type": "function",
      "constant": true
    },
    {
      "inputs": [
        {
          "internalType": "uint256",
          "name": "",
          "type": "uint256"
        }
      ],
      "name": "tokens",
      "outputs": [
        {
          "internalType": "contract ERC20",
          "name": "",
          "type": "address"
        }
      ],
      "stateMutability": "view",
      "type": "function",
      "constant": true
    },
    {
      "inputs": [
        {
          "internalType": "address",
          "name": "newOwner",
          "type": "address"
        }
      ],
      "name": "transferOwnership",
      "outputs": [],
      "stateMutability": "nonpayable",
      "type": "function"
    },
    {
      "inputs": [],
      "name": "pause",
      "outputs": [],
      "stateMutability": "nonpayable",
      "type": "function"
    },
    {
      "inputs": [],
      "name": "unpause",
      "outputs": [],
      "stateMutability": "nonpayable",
      "type": "function"
    },
    {
      "inputs": [
        {
          "internalType": "uint256",
          "name": "_stakeId",
          "type": "uint256"
        },
        {
          "internalType": "uint256",
          "name": "_startTime",
          "type": "uint256"
        },
        {
          "internalType": "uint256",
          "name": "_endTime",
          "type": "uint256"
        },
        {
          "internalType": "uint256",
          "name": "_minTokenAmount",
          "type": "uint256"
        },
        {
          "internalType": "uint256",
          "name": "_perTokenAmount",
          "type": "uint256"
        }
      ],
      "name": "setStaking",
      "outputs": [],
      "stateMutability": "nonpayable",
      "type": "function"
    },
    {
      "inputs": [
        {
          "internalType": "uint256",
          "name": "_stakeId",
          "type": "uint256"
        },
        {
          "internalType": "uint256",
          "name": "_amount",
          "type": "uint256"
        }
      ],
      "name": "stake",
      "outputs": [],
      "stateMutability": "nonpayable",
      "type": "function"
    },
    {
      "inputs": [
        {
          "internalType": "uint256",
          "name": "_stakingIdx",
          "type": "uint256"
        }
      ],
      "name": "withdraw",
      "outputs": [],
      "stateMutability": "nonpayable",
      "type": "function"
    },
    {
      "inputs": [
        {
          "internalType": "uint256",
          "name": "_stakingIdx",
          "type": "uint256"
        }
      ],
      "name": "harvest",
      "outputs": [],
      "stateMutability": "nonpayable",
      "type": "function"
    }
  ],
  "bytecode": "0x60806040523480156200001157600080fd5b506040516200283238038062002832833981810160405281019062000037919062000372565b60008060006101000a81548160ff02191690831515021790555062000071620000656200023b60201b60201c565b6200024360201b60201c565b80600160006101000a81548173ffffffffffffffffffffffffffffffffffffffff021916908373ffffffffffffffffffffffffffffffffffffffff16021790555082600260006010815260200190815260200160002060006101000a81548173ffffffffffffffffffffffffffffffffffffffff021916908373ffffffffffffffffffffffffffffffffffffffff16021790555081600260006011815260200190815260200160002060006101000a81548173ffffffffffffffffffffffffffffffffffffffff021916908373ffffffffffffffffffffffffffffffffffffffff16021790555082600260006012815260200190815260200160002060006101000a81548173ffffffffffffffffffffffffffffffffffffffff021916908373ffffffffffffffffffffffffffffffffffffffff1602179055506001600360006010815260200190815260200160002060006101000a81548160ff0219169083151502179055506001600360006011815260200190815260200160002060006101000a81548160ff0219169083151502179055506001600360006012815260200190815260200160002060006101000a81548160ff021916908315150217905550505050620003ce565b600033905090565b60008060019054906101000a900473ffffffffffffffffffffffffffffffffffffffff16905081600060016101000a81548173ffffffffffffffffffffffffffffffffffffffff021916908373ffffffffffffffffffffffffffffffffffffffff1602179055508173ffffffffffffffffffffffffffffffffffffffff168173ffffffffffffffffffffffffffffffffffffffff167f8be0079c531659141344cd1fd0a4f28419497f9722a3daafe3b4186f6b6457e060405160405180910390a35050565b600080fd5b600073ffffffffffffffffffffffffffffffffffffffff82169050919050565b60006200033a826200030d565b9050919050565b6200034c816200032d565b81146200035857600080fd5b50565b6000815190506200036c8162000341565b92915050565b6000806000606084860312156200038e576200038d62000308565b5b60006200039e868287016200035b565b9350506020620003b1868287016200035b565b9250506040620003c4868287016200035b565b9150509250925092565b61245480620003de6000396000f3fe608060405234801561001057600080fd5b506004361061010b5760003560e01c80637b0472f0116100a2578063b62888bd11610071578063b62888bd1461025a578063c4f0c1fc1461028c578063ddc63262146102c0578063f2fde38b146102dc578063fc226db3146102f85761010b565b80637b0472f0146101f85780638456cb59146102145780638da5cb5b1461021e578063b58634fe1461023c5761010b565b8063420a83e7116100de578063420a83e7146101825780634f64b2be146101a05780635c975abb146101d0578063715018a6146101ee5761010b565b8063125accff146101105780631d80cf321461012c5780632e1a7d4d1461015c5780633f4ba83a14610178575b600080fd5b61012a600480360381019061012591906115e5565b610328565b005b61014660048036038101906101419190611660565b6104c0565b60405161015391906116a8565b60405180910390f35b61017660048036038101906101719190611660565b6104e0565b005b610180610892565b005b61018a610918565b6040516101979190611704565b60405180910390f35b6101ba60048036038101906101b59190611660565b61093e565b6040516101c7919061177e565b60405180910390f35b6101d8610971565b6040516101e591906116a8565b60405180910390f35b6101f6610987565b005b610212600480360381019061020d9190611799565b610a0f565b005b61021c610f43565b005b610226610fc9565b6040516102339190611704565b60405180910390f35b610244610ff2565b60405161025191906117e8565b60405180910390f35b610274600480360381019061026f9190611660565b610ff8565b60405161028393929190611803565b60405180910390f35b6102a660048036038101906102a19190611660565b611042565b6040516102b795949392919061183a565b60405180910390f35b6102da60048036038101906102d59190611660565b611078565b005b6102f660048036038101906102f191906118b9565b611274565b005b610312600480360381019061030d91906118e6565b61136b565b60405161031f91906116a8565b60405180910390f35b61033061139a565b73ffffffffffffffffffffffffffffffffffffffff1661034e610fc9565b73ffffffffffffffffffffffffffffffffffffffff16146103a4576040517f08c379a000000000000000000000000000000000000000000000000000000000815260040161039b90611983565b60405180910390fd5b600560008681526020019081526020016000206000015460001461047c576005600086815260200190815260200160002060000154831161041a576040517f08c379a000000000000000000000000000000000000000000000000000000000815260040161041190611a15565b60405180910390fd5b42831161045c576040517f08c379a000000000000000000000000000000000000000000000000000000000815260040161045390611aa7565b60405180910390fd5b8260056000878152602001908152602001600020600101819055506104b9565b6000600560008781526020019081526020016000209050848160000181905550838160010181905550828160020181905550818160030181905550505b5050505050565b60036020528060005260406000206000915054906101000a900460ff1681565b6104e8610971565b15610528576040517f08c379a000000000000000000000000000000000000000000000000000000000815260040161051f90611b13565b60405180910390fd5b600073ffffffffffffffffffffffffffffffffffffffff166006600083815260200190815260200160002060000160009054906101000a900473ffffffffffffffffffffffffffffffffffffffff1673ffffffffffffffffffffffffffffffffffffffff16036105cd576040517f08c379a00000000000000000000000000000000000000000000000000000000081526004016105c490611ba5565b60405180910390fd5b3373ffffffffffffffffffffffffffffffffffffffff166006600083815260200190815260200160002060000160009054906101000a900473ffffffffffffffffffffffffffffffffffffffff1673ffffffffffffffffffffffffffffffffffffffff1614610671576040517f08c379a000000000000000000000000000000000000000000000000000000000815260040161066890611c37565b60405180910390fd5b6000600660008381526020019081526020016000206002015490506000600660008481526020019081526020016000206001015490506000600760003373ffffffffffffffffffffffffffffffffffffffff1673ffffffffffffffffffffffffffffffffffffffff168152602001908152602001600020600083815260200190815260200160002060006101000a81548160ff02191690831515021790555060066000848152602001908152602001600020600080820160006101000a81549073ffffffffffffffffffffffffffffffffffffffff02191690556001820160009055600282016000905550506002600082815260200190815260200160002060009054906101000a900473ffffffffffffffffffffffffffffffffffffffff1673ffffffffffffffffffffffffffffffffffffffff166323b872dd600160009054906101000a900473ffffffffffffffffffffffffffffffffffffffff1633856040518463ffffffff1660e01b81526004016107ef93929190611c57565b6020604051808303816000875af115801561080e573d6000803e3d6000fd5b505050506040513d601f19601f820116820180604052508101906108329190611cba565b61083b57600080fd5b3373ffffffffffffffffffffffffffffffffffffffff167f02f25270a4d87bea75db541cdfe559334a275b4a233520ed6c0a2429667cca9443838660405161088593929190611ce7565b60405180910390a2505050565b61089a61139a565b73ffffffffffffffffffffffffffffffffffffffff166108b8610fc9565b73ffffffffffffffffffffffffffffffffffffffff161461090e576040517f08c379a000000000000000000000000000000000000000000000000000000000815260040161090590611983565b60405180910390fd5b6109166113a2565b565b600160009054906101000a900473ffffffffffffffffffffffffffffffffffffffff1681565b60026020528060005260406000206000915054906101000a900473ffffffffffffffffffffffffffffffffffffffff1681565b60008060009054906101000a900460ff16905090565b61098f61139a565b73ffffffffffffffffffffffffffffffffffffffff166109ad610fc9565b73ffffffffffffffffffffffffffffffffffffffff1614610a03576040517f08c379a00000000000000000000000000000000000000000000000000000000081526004016109fa90611983565b60405180910390fd5b610a0d6000611443565b565b610a17610971565b15610a57576040517f08c379a0000000000000000000000000000000000000000000000000000000008152600401610a4e90611b13565b60405180910390fd5b6003600083815260200190815260200160002060009054906101000a900460ff1615156001151514610abe576040517f08c379a0000000000000000000000000000000000000000000000000000000008152600401610ab590611d90565b60405180910390fd5b600760003373ffffffffffffffffffffffffffffffffffffffff1673ffffffffffffffffffffffffffffffffffffffff168152602001908152602001600020600083815260200190815260200160002060009054906101000a900460ff1615156000151514610b62576040517f08c379a0000000000000000000000000000000000000000000000000000000008152600401610b5990611e22565b60405180910390fd5b6001600760003373ffffffffffffffffffffffffffffffffffffffff1673ffffffffffffffffffffffffffffffffffffffff168152602001908152602001600020600084815260200190815260200160002060006101000a81548160ff0219169083151502179055506005600083815260200190815260200160002060010154600014610c43574260056000848152602001908152602001600020600101541015610c42576040517f08c379a0000000000000000000000000000000000000000000000000000000008152600401610c3990611eb4565b60405180910390fd5b5b4260056000848152602001908152602001600020600001541115610c9c576040517f08c379a0000000000000000000000000000000000000000000000000000000008152600401610c9390611f46565b60405180910390fd5b8060056000848152602001908152602001600020600201541115610cf5576040517f08c379a0000000000000000000000000000000000000000000000000000000008152600401610cec90611fd8565b60405180910390fd5b6000600560008481526020019081526020016000206003015482610d199190612027565b14610d59576040517f08c379a0000000000000000000000000000000000000000000000000000000008152600401610d50906120ca565b60405180910390fd5b80600560008481526020019081526020016000206004016000828254610d7f9190612119565b925050819055506002600083815260200190815260200160002060009054906101000a900473ffffffffffffffffffffffffffffffffffffffff1673ffffffffffffffffffffffffffffffffffffffff166323b872dd33600160009054906101000a900473ffffffffffffffffffffffffffffffffffffffff16846040518463ffffffff1660e01b8152600401610e1893929190611c57565b6020604051808303816000875af1158015610e37573d6000803e3d6000fd5b505050506040513d601f19601f82011682018060405250810190610e5b9190611cba565b610e6457600080fd5b600460008154610e739061216f565b9190508190555060006006600060045481526020019081526020016000209050338160000160006101000a81548173ffffffffffffffffffffffffffffffffffffffff021916908373ffffffffffffffffffffffffffffffffffffffff1602179055508281600101819055508181600201819055503373ffffffffffffffffffffffffffffffffffffffff167f2720efa4b2dd4f3f8a347da3cbd290a522e9432da9072c5b8e6300496fdde282438560045486604051610f3694939291906121b7565b60405180910390a2505050565b610f4b61139a565b73ffffffffffffffffffffffffffffffffffffffff16610f69610fc9565b73ffffffffffffffffffffffffffffffffffffffff1614610fbf576040517f08c379a0000000000000000000000000000000000000000000000000000000008152600401610fb690611983565b60405180910390fd5b610fc7611508565b565b60008060019054906101000a900473ffffffffffffffffffffffffffffffffffffffff16905090565b60045481565b60066020528060005260406000206000915090508060000160009054906101000a900473ffffffffffffffffffffffffffffffffffffffff16908060010154908060020154905083565b60056020528060005260406000206000915090508060000154908060010154908060020154908060030154908060040154905085565b611080610971565b156110c0576040517f08c379a00000000000000000000000000000000000000000000000000000000081526004016110b790611b13565b60405180910390fd5b600073ffffffffffffffffffffffffffffffffffffffff166006600083815260200190815260200160002060000160009054906101000a900473ffffffffffffffffffffffffffffffffffffffff1673ffffffffffffffffffffffffffffffffffffffff1603611165576040517f08c379a000000000000000000000000000000000000000000000000000000000815260040161115c9061226e565b60405180910390fd5b3373ffffffffffffffffffffffffffffffffffffffff166006600083815260200190815260200160002060000160009054906101000a900473ffffffffffffffffffffffffffffffffffffffff1673ffffffffffffffffffffffffffffffffffffffff1614611209576040517f08c379a000000000000000000000000000000000000000000000000000000000815260040161120090612300565b60405180910390fd5b3373ffffffffffffffffffffffffffffffffffffffff167f4534f107610758c3931de9ad1e176476fcfb8c74adf920167e1d54ee84fcfe764360066000858152602001908152602001600020600101548460405161126993929190611ce7565b60405180910390a250565b61127c61139a565b73ffffffffffffffffffffffffffffffffffffffff1661129a610fc9565b73ffffffffffffffffffffffffffffffffffffffff16146112f0576040517f08c379a00000000000000000000000000000000000000000000000000000000081526004016112e790611983565b60405180910390fd5b600073ffffffffffffffffffffffffffffffffffffffff168173ffffffffffffffffffffffffffffffffffffffff160361135f576040517f08c379a000000000000000000000000000000000000000000000000000000000815260040161135690612392565b60405180910390fd5b61136881611443565b50565b60076020528160005260406000206020528060005260406000206000915091509054906101000a900460ff1681565b600033905090565b6113aa610971565b6113e9576040517f08c379a00000000000000000000000000000000000000000000000000000000081526004016113e0906123fe565b60405180910390fd5b60008060006101000a81548160ff0219169083151502179055507f5db9ee0a495bf2e6ff9c91a7834c1ba4fdd244a5e8aa4e537bd38aeae4b073aa61142c61139a565b6040516114399190611704565b60405180910390a1565b60008060019054906101000a900473ffffffffffffffffffffffffffffffffffffffff16905081600060016101000a81548173ffffffffffffffffffffffffffffffffffffffff021916908373ffffffffffffffffffffffffffffffffffffffff1602179055508173ffffffffffffffffffffffffffffffffffffffff168173ffffffffffffffffffffffffffffffffffffffff167f8be0079c531659141344cd1fd0a4f28419497f9722a3daafe3b4186f6b6457e060405160405180910390a35050565b611510610971565b15611550576040517f08c379a000000000000000000000000000000000000000000000000000000000815260040161154790611b13565b60405180910390fd5b60016000806101000a81548160ff0219169083151502179055507f62e78cea01bee320cd4e420270b5ea74000d11b0c9f74754ebdbfc544b05a25861159361139a565b6040516115a09190611704565b60405180910390a1565b600080fd5b6000819050919050565b6115c2816115af565b81146115cd57600080fd5b50565b6000813590506115df816115b9565b92915050565b600080600080600060a08688031215611601576116006115aa565b5b600061160f888289016115d0565b9550506020611620888289016115d0565b9450506040611631888289016115d0565b9350506060611642888289016115d0565b9250506080611653888289016115d0565b9150509295509295909350565b600060208284031215611676576116756115aa565b5b6000611684848285016115d0565b91505092915050565b60008115159050919050565b6116a28161168d565b82525050565b60006020820190506116bd6000830184611699565b92915050565b600073ffffffffffffffffffffffffffffffffffffffff82169050919050565b60006116ee826116c3565b9050919050565b6116fe816116e3565b82525050565b600060208201905061171960008301846116f5565b92915050565b6000819050919050565b600061174461173f61173a846116c3565b61171f565b6116c3565b9050919050565b600061175682611729565b9050919050565b60006117688261174b565b9050919050565b6117788161175d565b82525050565b6000602082019050611793600083018461176f565b92915050565b600080604083850312156117b0576117af6115aa565b5b60006117be858286016115d0565b92505060206117cf858286016115d0565b9150509250929050565b6117e2816115af565b82525050565b60006020820190506117fd60008301846117d9565b92915050565b600060608201905061181860008301866116f5565b61182560208301856117d9565b61183260408301846117d9565b949350505050565b600060a08201905061184f60008301886117d9565b61185c60208301876117d9565b61186960408301866117d9565b61187660608301856117d9565b61188360808301846117d9565b9695505050505050565b611896816116e3565b81146118a157600080fd5b50565b6000813590506118b38161188d565b92915050565b6000602082840312156118cf576118ce6115aa565b5b60006118dd848285016118a4565b91505092915050565b600080604083850312156118fd576118fc6115aa565b5b600061190b858286016118a4565b925050602061191c858286016115d0565b9150509250929050565b600082825260208201905092915050565b7f4f776e61626c653a2063616c6c6572206973206e6f7420746865206f776e6572600082015250565b600061196d602083611926565b915061197882611937565b602082019050919050565b6000602082019050818103600083015261199c81611960565b9050919050565b7f5b544b4d5374616b696e6734415d5b7365745374616b696e675d3a205f656e6460008201527f54696d6520697320756e646572205f737461727454696d650000000000000000602082015250565b60006119ff603883611926565b9150611a0a826119a3565b604082019050919050565b60006020820190508181036000830152611a2e816119f2565b9050919050565b7f5b544b4d5374616b696e6734415d5b7365745374616b696e675d3a205f656e6460008201527f54696d6520697320756e646572206e6f77000000000000000000000000000000602082015250565b6000611a91603183611926565b9150611a9c82611a35565b604082019050919050565b60006020820190508181036000830152611ac081611a84565b9050919050565b7f5061757361626c653a2070617573656400000000000000000000000000000000600082015250565b6000611afd601083611926565b9150611b0882611ac7565b602082019050919050565b60006020820190508181036000830152611b2c81611af0565b9050919050565b7f5b544b4d5374616b696e6734415d5b77697468647261775d3a206e6f7420657860008201527f697374207374616b696e67206461746100000000000000000000000000000000602082015250565b6000611b8f603083611926565b9150611b9a82611b33565b604082019050919050565b60006020820190508181036000830152611bbe81611b82565b9050919050565b7f5b544b4d5374616b696e6734415d5b77697468647261775d3a206e6f74204f7760008201527f6e65720000000000000000000000000000000000000000000000000000000000602082015250565b6000611c21602383611926565b9150611c2c82611bc5565b604082019050919050565b60006020820190508181036000830152611c5081611c14565b9050919050565b6000606082019050611c6c60008301866116f5565b611c7960208301856116f5565b611c8660408301846117d9565b949350505050565b611c978161168d565b8114611ca257600080fd5b50565b600081519050611cb481611c8e565b92915050565b600060208284031215611cd057611ccf6115aa565b5b6000611cde84828501611ca5565b91505092915050565b6000606082019050611cfc60008301866117d9565b611d0960208301856117d9565b611d1660408301846117d9565b949350505050565b7f5b544b4d5374616b696e6734415d5b7374616b655d3a20696e76616c6964207360008201527f74616b6520696400000000000000000000000000000000000000000000000000602082015250565b6000611d7a602783611926565b9150611d8582611d1e565b604082019050919050565b60006020820190508181036000830152611da981611d6d565b9050919050565b7f5b544b4d5374616b696e6734415d5b7374616b655d3a20616c7265616479207360008201527f74616b6564000000000000000000000000000000000000000000000000000000602082015250565b6000611e0c602583611926565b9150611e1782611db0565b604082019050919050565b60006020820190508181036000830152611e3b81611dff565b9050919050565b7f5b544b4d5374616b696e6734415d5b7374616b655d3a207374616b696e67206960008201527f7320656e64656400000000000000000000000000000000000000000000000000602082015250565b6000611e9e602783611926565b9150611ea982611e42565b604082019050919050565b60006020820190508181036000830152611ecd81611e91565b9050919050565b7f5b544b4d5374616b696e6734415d5b7374616b655d3a207374616b696e67206960008201527f73206e6f74207374617274656400000000000000000000000000000000000000602082015250565b6000611f30602d83611926565b9150611f3b82611ed4565b604082019050919050565b60006020820190508181036000830152611f5f81611f23565b9050919050565b7f5b544b4d5374616b696e6734415d5b7374616b655d3a205374616b696e67206160008201527f6d6f756e74206e6f7420656e6f75676800000000000000000000000000000000602082015250565b6000611fc2603083611926565b9150611fcd82611f66565b604082019050919050565b60006020820190508181036000830152611ff181611fb5565b9050919050565b7f4e487b7100000000000000000000000000000000000000000000000000000000600052601260045260246000fd5b6000612032826115af565b915061203d836115af565b92508261204d5761204c611ff8565b5b828206905092915050565b7f5b544b4d5374616b696e6734415d5b7374616b655d3a205374616b696e67206160008201527f6d6f756e7420696e76616c696400000000000000000000000000000000000000602082015250565b60006120b4602d83611926565b91506120bf82612058565b604082019050919050565b600060208201905081810360008301526120e3816120a7565b9050919050565b7f4e487b7100000000000000000000000000000000000000000000000000000000600052601160045260246000fd5b6000612124826115af565b915061212f836115af565b9250827fffffffffffffffffffffffffffffffffffffffffffffffffffffffffffffffff03821115612164576121636120ea565b5b828201905092915050565b600061217a826115af565b91507fffffffffffffffffffffffffffffffffffffffffffffffffffffffffffffffff82036121ac576121ab6120ea565b5b600182019050919050565b60006080820190506121cc60008301876117d9565b6121d960208301866117d9565b6121e660408301856117d9565b6121f360608301846117d9565b95945050505050565b7f5b544b4d5374616b696e6734415d5b686172766573745d3a206e6f742065786960008201527f7374207374616b696e6720646174610000000000000000000000000000000000602082015250565b6000612258602f83611926565b9150612263826121fc565b604082019050919050565b600060208201905081810360008301526122878161224b565b9050919050565b7f5b544b4d5374616b696e6734415d5b686172766573745d3a206e6f74204f776e60008201527f6572000000000000000000000000000000000000000000000000000000000000602082015250565b60006122ea602283611926565b91506122f58261228e565b604082019050919050565b60006020820190508181036000830152612319816122dd565b9050919050565b7f4f776e61626c653a206e6577206f776e657220697320746865207a65726f206160008201527f6464726573730000000000000000000000000000000000000000000000000000602082015250565b600061237c602683611926565b915061238782612320565b604082019050919050565b600060208201905081810360008301526123ab8161236f565b9050919050565b7f5061757361626c653a206e6f7420706175736564000000000000000000000000600082015250565b60006123e8601483611926565b91506123f3826123b2565b602082019050919050565b60006020820190508181036000830152612417816123db565b905091905056fea26469706673582212206f206f2666498a49c565d8fdc9df495b2224f1407655272b4679e5982dd1165a64736f6c634300080e0033",
  "immutableReferences": {},
  "source": "// SPDX-License-Identifier: MIT\r\npragma solidity ^0.8.14;\r\n\r\nimport \"@openzeppelin/contracts/token/ERC20/ERC20.sol\";\r\nimport \"@openzeppelin/contracts/access/Ownable.sol\";\r\nimport \"@openzeppelin/contracts/security/Pausable.sol\";\r\n\r\ncontract TKMStaking4A is Pausable, Ownable {\r\n    address public tokenHolder; //    (NFTHolder  )\r\n\r\n    // stake id: 16, 17, 18\r\n    mapping(uint256 => ERC20) public tokens;\r\n\r\n    // stake id: 16, 17, 18\r\n    mapping(uint256 => bool) public stakeIds;\r\n\r\n    //  \r\n    uint256 public stakingIdx;\r\n\r\n    // //  ( ,  , stakeId,  ,   )\r\n    event Stake(address indexed from, uint256 blockNumber, uint256 stakeId, uint256 stakingIdx, uint256 amount);\r\n    // //  \r\n    event Withdraw(address indexed from, uint256 blockNumber, uint256 stakeId, uint256 stakingIdx);\r\n    //  \r\n    event Harvest(address indexed from, uint256 blockNumber, uint256 stakeId, uint256 stakingIdx);\r\n\r\n    /////////////////////////////////////////////////////\r\n    // Staking\r\n    // Staking \r\n    struct staking {\r\n        uint256 startTime; //  \r\n        uint256 endTime; //   ( )\r\n        uint256 minTokenAmount; //   \r\n        uint256 perTokenAmount; //  \r\n        uint256 curTokenAmount; //    \r\n    }\r\n\r\n    // stake id \r\n    mapping(uint256 => staking) public stakings;\r\n\r\n    //  \r\n    struct stakingProgress {\r\n        address user; //   \r\n        uint256 stakeId; // stake id\r\n        uint256 stakeAmount; //   \r\n    }\r\n\r\n    //  (  =>  )\r\n    mapping(uint256 => stakingProgress) public progressing;\r\n\r\n    //  ( => stake id => stake )\r\n    mapping(address => mapping(uint256 => bool)) public stakeJoin;\r\n\r\n    constructor(address _TKMToken, address _DTCToken, address _TokenHolder) {\r\n        tokenHolder = _TokenHolder;\r\n\r\n        tokens[16] = ERC20(payable(_TKMToken));\r\n        tokens[17] = ERC20(payable(_DTCToken));\r\n        tokens[18] = ERC20(payable(_TKMToken));\r\n\r\n        stakeIds[16] = true;\r\n        stakeIds[17] = true;\r\n        stakeIds[18] = true;\r\n    }\r\n\r\n    function pause() public onlyOwner {\r\n        _pause();\r\n    }\r\n\r\n    function unpause() public onlyOwner {\r\n        _unpause();\r\n    }\r\n\r\n    //   \r\n    function setStaking(\r\n        uint256 _stakeId,\r\n        uint256 _startTime,\r\n        uint256 _endTime,\r\n        uint256 _minTokenAmount,\r\n        uint256 _perTokenAmount\r\n    ) public onlyOwner {\r\n        //    \r\n        if(0 != stakings[_stakeId].startTime) {\r\n            require(_endTime > stakings[_stakeId].startTime, \"[TKMStaking4A][setStaking]: _endTime is under _startTime\");\r\n            require(_endTime > block.timestamp, \"[TKMStaking4A][setStaking]: _endTime is under now\");\r\n            stakings[_stakeId].endTime = _endTime;\r\n            return;\r\n        }\r\n\r\n        staking storage newStake = stakings[_stakeId];\r\n        newStake.startTime = _startTime;\r\n        newStake.endTime = _endTime;\r\n        newStake.minTokenAmount = _minTokenAmount;\r\n        newStake.perTokenAmount = _perTokenAmount;\r\n    }\r\n\r\n    //  \r\n    function stake(uint256 _stakeId, uint256 _amount) public whenNotPaused {\r\n        // stake id \r\n        require(true == stakeIds[_stakeId], \"[TKMStaking4A][stake]: invalid stake id\");\r\n\r\n        // stake  \r\n        require(false == stakeJoin[msg.sender][_stakeId], \"[TKMStaking4A][stake]: already staked\");\r\n        stakeJoin[msg.sender][_stakeId] = true;\r\n\r\n        //  \r\n        if(0 != stakings[_stakeId].endTime) {\r\n            require(stakings[_stakeId].endTime >= block.timestamp, \"[TKMStaking4A][stake]: staking is ended\");\r\n        }\r\n        require(stakings[_stakeId].startTime <= block.timestamp, \"[TKMStaking4A][stake]: staking is not started\");\r\n\r\n        // minTokenAmount \r\n        require(stakings[_stakeId].minTokenAmount <= _amount, \"[TKMStaking4A][stake]: Staking amount not enough\");\r\n\r\n        // perTokenAmount \r\n        require(_amount % stakings[_stakeId].perTokenAmount == 0, \"[TKMStaking4A][stake]: Staking amount invalid\");\r\n\r\n        stakings[_stakeId].curTokenAmount += _amount;\r\n\r\n        //  \r\n        require(tokens[_stakeId].transferFrom(msg.sender, tokenHolder, _amount));\r\n        \r\n        //   \r\n        ++stakingIdx;\r\n\r\n        //  \r\n        stakingProgress storage progress = progressing[stakingIdx];\r\n        progress.user = msg.sender;\r\n        progress.stakeId = _stakeId;\r\n        progress.stakeAmount = _amount;\r\n\r\n        emit Stake(msg.sender, block.number, _stakeId, stakingIdx, _amount);\r\n    }\r\n\r\n    // \r\n    function withdraw(uint256 _stakingIdx) public whenNotPaused {\r\n        //      \r\n        require(progressing[_stakingIdx].user != address(0), \"[TKMStaking4A][withdraw]: not exist staking data\");\r\n        require(progressing[_stakingIdx].user == msg.sender, \"[TKMStaking4A][withdraw]: not Owner\");\r\n\r\n        uint256 amount = progressing[_stakingIdx].stakeAmount;\r\n        uint256 stakeId = progressing[_stakingIdx].stakeId;\r\n\r\n        // stake  \r\n        stakeJoin[msg.sender][stakeId] = false;\r\n\r\n        //  \r\n        delete progressing[_stakingIdx];\r\n\r\n        //  \r\n        require(tokens[stakeId].transferFrom(tokenHolder, msg.sender, amount));\r\n\r\n        emit Withdraw(msg.sender, block.number, stakeId, _stakingIdx);\r\n    }\r\n    \r\n    // harvest\r\n    function harvest(uint256 _stakingIdx) public whenNotPaused {\r\n        //      \r\n        require(progressing[_stakingIdx].user != address(0), \"[TKMStaking4A][harvest]: not exist staking data\");\r\n        require(progressing[_stakingIdx].user == msg.sender, \"[TKMStaking4A][harvest]: not Owner\");\r\n\r\n        emit Harvest(msg.sender, block.number, progressing[_stakingIdx].stakeId, _stakingIdx);\r\n    }\r\n}\r\n",
  "sourcePath": "C:\\Works\\1_Github\\solidity_tinyping\\contracts\\TKMStaking4A.sol",
  "compiler": {
    "name": "solc",
    "version": "0.8.14+commit.80d49f37.Emscripten.clang"
  },
  "schemaVersion": "3.4.7",
  "updatedAt": "2023-03-21T01:42:00.227Z",
  "networkType": "ethereum",
  "devdoc": {
    "kind": "dev",
    "methods": {
      "owner()": {
        "details": "Returns the address of the current owner."
      },
      "paused()": {
        "details": "Returns true if the contract is paused, and false otherwise."
      },
      "renounceOwnership()": {
        "details": "Leaves the contract without owner. It will not be possible to call `onlyOwner` functions anymore. Can only be called by the current owner. NOTE: Renouncing ownership will leave the contract without an owner, thereby removing any functionality that is only available to the owner."
      },
      "transferOwnership(address)": {
        "details": "Transfers ownership of the contract to a new account (`newOwner`). Can only be called by the current owner."
      }
    },
    "version": 1
  },
  "userdoc": {
    "kind": "user",
    "methods": {},
    "version": 1
  }
}