{
  "contractName": "TKMMarketTkmNftA",
  "abi": [
    {
      "inputs": [
        {
          "internalType": "address",
          "name": "_TokenContract",
          "type": "address"
        },
        {
          "internalType": "address",
          "name": "_NFTContract",
          "type": "address"
        },
        {
          "internalType": "address",
          "name": "_holder",
          "type": "address"
        },
        {
          "internalType": "uint256",
          "name": "_fee",
          "type": "uint256"
        },
        {
          "internalType": "address",
          "name": "_feeOwner",
          "type": "address"
        }
      ],
      "stateMutability": "nonpayable",
      "type": "constructor"
    },
    {
      "anonymous": false,
      "inputs": [
        {
          "indexed": true,
          "internalType": "address",
          "name": "from",
          "type": "address"
        },
        {
          "indexed": true,
          "internalType": "uint256",
          "name": "tokenId",
          "type": "uint256"
        },
        {
          "indexed": false,
          "internalType": "uint256",
          "name": "price",
          "type": "uint256"
        }
      ],
      "name": "Cancel",
      "type": "event"
    },
    {
      "anonymous": false,
      "inputs": [
        {
          "indexed": true,
          "internalType": "address",
          "name": "from",
          "type": "address"
        },
        {
          "indexed": true,
          "internalType": "address",
          "name": "to",
          "type": "address"
        }
      ],
      "name": "ChangeOwner",
      "type": "event"
    },
    {
      "anonymous": false,
      "inputs": [
        {
          "indexed": true,
          "internalType": "address",
          "name": "from",
          "type": "address"
        },
        {
          "indexed": true,
          "internalType": "uint256",
          "name": "tokenId",
          "type": "uint256"
        },
        {
          "indexed": false,
          "internalType": "uint256",
          "name": "price",
          "type": "uint256"
        }
      ],
      "name": "Listing",
      "type": "event"
    },
    {
      "anonymous": false,
      "inputs": [
        {
          "indexed": true,
          "internalType": "address",
          "name": "from",
          "type": "address"
        },
        {
          "indexed": true,
          "internalType": "address",
          "name": "to",
          "type": "address"
        },
        {
          "indexed": true,
          "internalType": "uint256",
          "name": "tokenId",
          "type": "uint256"
        },
        {
          "indexed": false,
          "internalType": "uint256",
          "name": "price",
          "type": "uint256"
        }
      ],
      "name": "Sell",
      "type": "event"
    },
    {
      "inputs": [],
      "name": "NFTContract_",
      "outputs": [
        {
          "internalType": "contract ERC721",
          "name": "",
          "type": "address"
        }
      ],
      "stateMutability": "view",
      "type": "function",
      "constant": true
    },
    {
      "inputs": [],
      "name": "TokenContract_",
      "outputs": [
        {
          "internalType": "contract ERC20",
          "name": "",
          "type": "address"
        }
      ],
      "stateMutability": "view",
      "type": "function",
      "constant": true
    },
    {
      "inputs": [
        {
          "internalType": "address payable",
          "name": "newOwner_",
          "type": "address"
        }
      ],
      "name": "changeOwner",
      "outputs": [],
      "stateMutability": "nonpayable",
      "type": "function"
    },
    {
      "inputs": [],
      "name": "fee_",
      "outputs": [
        {
          "internalType": "uint256",
          "name": "",
          "type": "uint256"
        }
      ],
      "stateMutability": "view",
      "type": "function",
      "constant": true
    },
    {
      "inputs": [],
      "name": "holder_",
      "outputs": [
        {
          "internalType": "address",
          "name": "",
          "type": "address"
        }
      ],
      "stateMutability": "view",
      "type": "function",
      "constant": true
    },
    {
      "inputs": [],
      "name": "owner",
      "outputs": [
        {
          "internalType": "address payable",
          "name": "",
          "type": "address"
        }
      ],
      "stateMutability": "view",
      "type": "function",
      "constant": true
    },
    {
      "inputs": [
        {
          "internalType": "uint256",
          "name": "",
          "type": "uint256"
        }
      ],
      "name": "sellItems",
      "outputs": [
        {
          "internalType": "uint256",
          "name": "price",
          "type": "uint256"
        },
        {
          "internalType": "address",
          "name": "tokenOwner",
          "type": "address"
        }
      ],
      "stateMutability": "view",
      "type": "function",
      "constant": true
    },
    {
      "inputs": [
        {
          "internalType": "uint256",
          "name": "_fee",
          "type": "uint256"
        }
      ],
      "name": "setFee",
      "outputs": [],
      "stateMutability": "nonpayable",
      "type": "function"
    },
    {
      "inputs": [
        {
          "internalType": "address",
          "name": "_feeOwner",
          "type": "address"
        }
      ],
      "name": "setFeeOwner",
      "outputs": [],
      "stateMutability": "nonpayable",
      "type": "function"
    },
    {
      "inputs": [
        {
          "internalType": "address",
          "name": "to",
          "type": "address"
        }
      ],
      "name": "withdrawEth",
      "outputs": [],
      "stateMutability": "nonpayable",
      "type": "function"
    },
    {
      "inputs": [
        {
          "internalType": "uint256",
          "name": "tokenId",
          "type": "uint256"
        },
        {
          "internalType": "uint256",
          "name": "price",
          "type": "uint256"
        }
      ],
      "name": "listing",
      "outputs": [],
      "stateMutability": "nonpayable",
      "type": "function"
    },
    {
      "inputs": [
        {
          "internalType": "uint256",
          "name": "tokenId",
          "type": "uint256"
        }
      ],
      "name": "cancel",
      "outputs": [],
      "stateMutability": "nonpayable",
      "type": "function"
    },
    {
      "inputs": [
        {
          "internalType": "uint256",
          "name": "tokenId",
          "type": "uint256"
        }
      ],
      "name": "sell",
      "outputs": [],
      "stateMutability": "payable",
      "type": "function",
      "payable": true
    }
  ],
  "bytecode": "0x60806040523480156200001157600080fd5b50604051620024b4380380620024b483398181016040528101906200003791906200023c565b8484848484336000806101000a81548173ffffffffffffffffffffffffffffffffffffffff021916908373ffffffffffffffffffffffffffffffffffffffff16021790555084600160006101000a81548173ffffffffffffffffffffffffffffffffffffffff021916908373ffffffffffffffffffffffffffffffffffffffff16021790555083600260006101000a81548173ffffffffffffffffffffffffffffffffffffffff021916908373ffffffffffffffffffffffffffffffffffffffff16021790555082600360006101000a81548173ffffffffffffffffffffffffffffffffffffffff021916908373ffffffffffffffffffffffffffffffffffffffff1602179055508160048190555080600560006101000a81548173ffffffffffffffffffffffffffffffffffffffff021916908373ffffffffffffffffffffffffffffffffffffffff16021790555050505050505050505050620002c4565b600080fd5b600073ffffffffffffffffffffffffffffffffffffffff82169050919050565b6000620001c9826200019c565b9050919050565b620001db81620001bc565b8114620001e757600080fd5b50565b600081519050620001fb81620001d0565b92915050565b6000819050919050565b620002168162000201565b81146200022257600080fd5b50565b60008151905062000236816200020b565b92915050565b600080600080600060a086880312156200025b576200025a62000197565b5b60006200026b88828901620001ea565b95505060206200027e88828901620001ea565b94505060406200029188828901620001ea565b9350506060620002a48882890162000225565b9250506080620002b788828901620001ea565b9150509295509295909350565b6121e080620002d46000396000f3fe6080604052600436106100c25760003560e01c806386f9258e1161007f578063ad8e653e11610059578063ad8e653e14610251578063b27429611461027c578063ccfdeb0a146102a7578063e4849b32146102d2576100c2565b806386f9258e146101d25780638da5cb5b146101fd578063a6f9dae114610228576100c2565b806317e50ef3146100c757806325e160631461010557806340e58ee51461012e5780634b104eff1461015757806369fe0e2d146101805780637f6d6df9146101a9575b600080fd5b3480156100d357600080fd5b506100ee60048036038101906100e9919061155b565b6102ee565b6040516100fc9291906115d8565b60405180910390f35b34801561011157600080fd5b5061012c6004803603810190610127919061162d565b610332565b005b34801561013a57600080fd5b506101556004803603810190610150919061155b565b61047f565b005b34801561016357600080fd5b5061017e6004803603810190610179919061162d565b6104f6565b005b34801561018c57600080fd5b506101a760048036038101906101a2919061155b565b6105c8565b005b3480156101b557600080fd5b506101d060048036038101906101cb919061165a565b610660565b005b3480156101de57600080fd5b506101e76106d3565b6040516101f491906116f9565b60405180910390f35b34801561020957600080fd5b506102126106f9565b60405161021f9190611735565b60405180910390f35b34801561023457600080fd5b5061024f600480360381019061024a919061177c565b61071d565b005b34801561025d57600080fd5b506102666108b7565b60405161027391906117a9565b60405180910390f35b34801561028857600080fd5b506102916108dd565b60405161029e91906117e5565b60405180910390f35b3480156102b357600080fd5b506102bc610903565b6040516102c99190611800565b60405180910390f35b6102ec60048036038101906102e7919061155b565b610909565b005b60066020528060005260406000206000915090508060000154908060010160009054906101000a900473ffffffffffffffffffffffffffffffffffffffff16905082565b60008054906101000a900473ffffffffffffffffffffffffffffffffffffffff1673ffffffffffffffffffffffffffffffffffffffff163373ffffffffffffffffffffffffffffffffffffffff16146103c0576040517f08c379a00000000000000000000000000000000000000000000000000000000081526004016103b79061189e565b60405180910390fd5b600073ffffffffffffffffffffffffffffffffffffffff168173ffffffffffffffffffffffffffffffffffffffff160361042f576040517f08c379a000000000000000000000000000000000000000000000000000000000815260040161042690611930565b60405180910390fd5b60008190508073ffffffffffffffffffffffffffffffffffffffff166108fc479081150290604051600060405180830381858888f1935050505015801561047a573d6000803e3d6000fd5b505050565b6000600660008381526020019081526020016000206000015490506104a3826109d3565b813373ffffffffffffffffffffffffffffffffffffffff167f13f70c3891bf9326a78bedbd802efd57fa4451e8b0eab22d638b4e6b7a878eaf836040516104ea9190611800565b60405180910390a35050565b60008054906101000a900473ffffffffffffffffffffffffffffffffffffffff1673ffffffffffffffffffffffffffffffffffffffff163373ffffffffffffffffffffffffffffffffffffffff1614610584576040517f08c379a000000000000000000000000000000000000000000000000000000000815260040161057b9061189e565b60405180910390fd5b80600560006101000a81548173ffffffffffffffffffffffffffffffffffffffff021916908373ffffffffffffffffffffffffffffffffffffffff16021790555050565b60008054906101000a900473ffffffffffffffffffffffffffffffffffffffff1673ffffffffffffffffffffffffffffffffffffffff163373ffffffffffffffffffffffffffffffffffffffff1614610656576040517f08c379a000000000000000000000000000000000000000000000000000000000815260040161064d9061189e565b60405180910390fd5b8060048190555050565b61066a8282610bcb565b813373ffffffffffffffffffffffffffffffffffffffff167f6935191bc626032d8c74ced321b2d6a62df2578bf60599625cb4f59d51e3849f60066000868152602001908152602001600020600001546040516106c79190611800565b60405180910390a35050565b600260009054906101000a900473ffffffffffffffffffffffffffffffffffffffff1681565b60008054906101000a900473ffffffffffffffffffffffffffffffffffffffff1681565b60008054906101000a900473ffffffffffffffffffffffffffffffffffffffff1673ffffffffffffffffffffffffffffffffffffffff163373ffffffffffffffffffffffffffffffffffffffff16146107ab576040517f08c379a00000000000000000000000000000000000000000000000000000000081526004016107a29061189e565b60405180910390fd5b600073ffffffffffffffffffffffffffffffffffffffff168173ffffffffffffffffffffffffffffffffffffffff160361081a576040517f08c379a00000000000000000000000000000000000000000000000000000000081526004016108119061199c565b60405180910390fd5b806000806101000a81548173ffffffffffffffffffffffffffffffffffffffff021916908373ffffffffffffffffffffffffffffffffffffffff1602179055508073ffffffffffffffffffffffffffffffffffffffff163373ffffffffffffffffffffffffffffffffffffffff167f9aecf86140d81442289f667eb72e1202a8fbb3478a686659952e145e8531965660405160405180910390a350565b600360009054906101000a900473ffffffffffffffffffffffffffffffffffffffff1681565b600160009054906101000a900473ffffffffffffffffffffffffffffffffffffffff1681565b60045481565b60006006600083815260200190815260200160002060000154905060006006600084815260200190815260200160002060010160009054906101000a900473ffffffffffffffffffffffffffffffffffffffff16905061096883610f68565b823373ffffffffffffffffffffffffffffffffffffffff168273ffffffffffffffffffffffffffffffffffffffff167fa082022e93cfcd9f1da5f9236718053910f7e840da080c789c7845698dc032ff856040516109c69190611800565b60405180910390a4505050565b6006600082815260200190815260200160002060000154600010610a2c576040517f08c379a0000000000000000000000000000000000000000000000000000000008152600401610a2390611a08565b60405180910390fd5b6006600082815260200190815260200160002060010160009054906101000a900473ffffffffffffffffffffffffffffffffffffffff1673ffffffffffffffffffffffffffffffffffffffff163373ffffffffffffffffffffffffffffffffffffffff1614610ad0576040517f08c379a0000000000000000000000000000000000000000000000000000000008152600401610ac790611a74565b60405180910390fd5b600260009054906101000a900473ffffffffffffffffffffffffffffffffffffffff1673ffffffffffffffffffffffffffffffffffffffff166342842e0e600360009054906101000a900473ffffffffffffffffffffffffffffffffffffffff1633846040518463ffffffff1660e01b8152600401610b5193929190611a94565b600060405180830381600087803b158015610b6b57600080fd5b505af1158015610b7f573d6000803e3d6000fd5b50505050600660008281526020019081526020016000206000808201600090556001820160006101000a81549073ffffffffffffffffffffffffffffffffffffffff0219169055505050565b60008111610c0e576040517f08c379a0000000000000000000000000000000000000000000000000000000008152600401610c0590611b3d565b60405180910390fd5b600260009054906101000a900473ffffffffffffffffffffffffffffffffffffffff1673ffffffffffffffffffffffffffffffffffffffff16636352211e836040518263ffffffff1660e01b8152600401610c699190611800565b602060405180830381865afa158015610c86573d6000803e3d6000fd5b505050506040513d601f19601f82011682018060405250810190610caa9190611b72565b73ffffffffffffffffffffffffffffffffffffffff163373ffffffffffffffffffffffffffffffffffffffff1614610d17576040517f08c379a0000000000000000000000000000000000000000000000000000000008152600401610d0e90611c11565b60405180910390fd5b6006600083815260200190815260200160002060000154600014610d70576040517f08c379a0000000000000000000000000000000000000000000000000000000008152600401610d6790611ca3565b60405180910390fd5b600260009054906101000a900473ffffffffffffffffffffffffffffffffffffffff1673ffffffffffffffffffffffffffffffffffffffff1663e985e9c533306040518363ffffffff1660e01b8152600401610dcd929190611cc3565b602060405180830381865afa158015610dea573d6000803e3d6000fd5b505050506040513d601f19601f82011682018060405250810190610e0e9190611d24565b610e4d576040517f08c379a0000000000000000000000000000000000000000000000000000000008152600401610e4490611dc3565b60405180910390fd5b600260009054906101000a900473ffffffffffffffffffffffffffffffffffffffff1673ffffffffffffffffffffffffffffffffffffffff166342842e0e33600360009054906101000a900473ffffffffffffffffffffffffffffffffffffffff16856040518463ffffffff1660e01b8152600401610ece93929190611a94565b600060405180830381600087803b158015610ee857600080fd5b505af1158015610efc573d6000803e3d6000fd5b505050506000600660008481526020019081526020016000209050818160000181905550338160010160006101000a81548173ffffffffffffffffffffffffffffffffffffffff021916908373ffffffffffffffffffffffffffffffffffffffff160217905550505050565b6006600082815260200190815260200160002060000154600010610fc1576040517f08c379a0000000000000000000000000000000000000000000000000000000008152600401610fb890611e2f565b60405180910390fd5b6006600082815260200190815260200160002060000154600160009054906101000a900473ffffffffffffffffffffffffffffffffffffffff1673ffffffffffffffffffffffffffffffffffffffff166370a08231336040518263ffffffff1660e01b815260040161103391906117a9565b602060405180830381865afa158015611050573d6000803e3d6000fd5b505050506040513d601f19601f820116820180604052508101906110749190611e64565b10156110b5576040517f08c379a00000000000000000000000000000000000000000000000000000000081526004016110ac90611edd565b60405180910390fd5b6006600082815260200190815260200160002060000154600160009054906101000a900473ffffffffffffffffffffffffffffffffffffffff1673ffffffffffffffffffffffffffffffffffffffff1663dd62ed3e33306040518363ffffffff1660e01b8152600401611129929190611cc3565b602060405180830381865afa158015611146573d6000803e3d6000fd5b505050506040513d601f19601f8201168201806040525081019061116a9190611e64565b10156111ab576040517f08c379a00000000000000000000000000000000000000000000000000000000081526004016111a290611f6f565b60405180910390fd5b6000606460045460066000858152602001908152602001600020600001546111d39190611fbe565b6111dd9190612047565b905080600010156112ec57600160009054906101000a900473ffffffffffffffffffffffffffffffffffffffff1673ffffffffffffffffffffffffffffffffffffffff166323b872dd33600560009054906101000a900473ffffffffffffffffffffffffffffffffffffffff16846040518463ffffffff1660e01b815260040161126993929190611a94565b6020604051808303816000875af1158015611288573d6000803e3d6000fd5b505050506040513d601f19601f820116820180604052508101906112ac9190611d24565b6112eb576040517f08c379a00000000000000000000000000000000000000000000000000000000081526004016112e2906120c4565b60405180910390fd5b5b600160009054906101000a900473ffffffffffffffffffffffffffffffffffffffff1673ffffffffffffffffffffffffffffffffffffffff166323b872dd336006600086815260200190815260200160002060010160009054906101000a900473ffffffffffffffffffffffffffffffffffffffff1684600660008881526020019081526020016000206000015461138491906120e4565b6040518463ffffffff1660e01b81526004016113a293929190611a94565b6020604051808303816000875af11580156113c1573d6000803e3d6000fd5b505050506040513d601f19601f820116820180604052508101906113e59190611d24565b611424576040517f08c379a000000000000000000000000000000000000000000000000000000000815260040161141b9061218a565b60405180910390fd5b600260009054906101000a900473ffffffffffffffffffffffffffffffffffffffff1673ffffffffffffffffffffffffffffffffffffffff166342842e0e600360009054906101000a900473ffffffffffffffffffffffffffffffffffffffff1633856040518463ffffffff1660e01b81526004016114a593929190611a94565b600060405180830381600087803b1580156114bf57600080fd5b505af11580156114d3573d6000803e3d6000fd5b50505050600660008381526020019081526020016000206000808201600090556001820160006101000a81549073ffffffffffffffffffffffffffffffffffffffff021916905550505050565b600080fd5b6000819050919050565b61153881611525565b811461154357600080fd5b50565b6000813590506115558161152f565b92915050565b60006020828403121561157157611570611520565b5b600061157f84828501611546565b91505092915050565b61159181611525565b82525050565b600073ffffffffffffffffffffffffffffffffffffffff82169050919050565b60006115c282611597565b9050919050565b6115d2816115b7565b82525050565b60006040820190506115ed6000830185611588565b6115fa60208301846115c9565b9392505050565b61160a816115b7565b811461161557600080fd5b50565b60008135905061162781611601565b92915050565b60006020828403121561164357611642611520565b5b600061165184828501611618565b91505092915050565b6000806040838503121561167157611670611520565b5b600061167f85828601611546565b925050602061169085828601611546565b9150509250929050565b6000819050919050565b60006116bf6116ba6116b584611597565b61169a565b611597565b9050919050565b60006116d1826116a4565b9050919050565b60006116e3826116c6565b9050919050565b6116f3816116d8565b82525050565b600060208201905061170e60008301846116ea565b92915050565b600061171f82611597565b9050919050565b61172f81611714565b82525050565b600060208201905061174a6000830184611726565b92915050565b61175981611714565b811461176457600080fd5b50565b60008135905061177681611750565b92915050565b60006020828403121561179257611791611520565b5b60006117a084828501611767565b91505092915050565b60006020820190506117be60008301846115c9565b92915050565b60006117cf826116c6565b9050919050565b6117df816117c4565b82525050565b60006020820190506117fa60008301846117d6565b92915050565b60006020820190506118156000830184611588565b92915050565b600082825260208201905092915050565b7f4f6e6c792074686520636f6e7472616374206f776e65722063616e2063616c6c60008201527f20746869732066756e6374696f6e000000000000000000000000000000000000602082015250565b6000611888602e8361181b565b91506118938261182c565b604082019050919050565b600060208201905081810360008301526118b78161187b565b9050919050565b7f5b544b4d4d61726b6574546f6b656e415d5b77697468647261774574685d3a2060008201527f7472616e7366657220746f20746865207a65726f206164647265737300000000602082015250565b600061191a603c8361181b565b9150611925826118be565b604082019050919050565b600060208201905081810360008301526119498161190d565b9050919050565b7f6e6f74207a65726f206164647265737320666f72206e6577206f776e65720000600082015250565b6000611986601e8361181b565b915061199182611950565b602082019050919050565b600060208201905081810360008301526119b581611979565b9050919050565b7f63616e63656c3a206e6f7420657869737420696e2073656c6c206974656d7300600082015250565b60006119f2601f8361181b565b91506119fd826119bc565b602082019050919050565b60006020820190508181036000830152611a21816119e5565b9050919050565b7f63616e63656c3a206e6f74206f776e6572000000000000000000000000000000600082015250565b6000611a5e60118361181b565b9150611a6982611a28565b602082019050919050565b60006020820190508181036000830152611a8d81611a51565b9050919050565b6000606082019050611aa960008301866115c9565b611ab660208301856115c9565b611ac36040830184611588565b949350505050565b7f6c697374696e673a207072696365206d7573742067726561746572207468616e60008201527f207a65726f000000000000000000000000000000000000000000000000000000602082015250565b6000611b2760258361181b565b9150611b3282611acb565b604082019050919050565b60006020820190508181036000830152611b5681611b1a565b9050919050565b600081519050611b6c81611601565b92915050565b600060208284031215611b8857611b87611520565b5b6000611b9684828501611b5d565b91505092915050565b7f6c697374696e673a206f6e6c7920746f6b656e206f776e65722063616e206c6960008201527f7374696e67000000000000000000000000000000000000000000000000000000602082015250565b6000611bfb60258361181b565b9150611c0682611b9f565b604082019050919050565b60006020820190508181036000830152611c2a81611bee565b9050919050565b7f6c697374696e673a20616c726561647920657869737420696e2073656c6c206960008201527f74656d7300000000000000000000000000000000000000000000000000000000602082015250565b6000611c8d60248361181b565b9150611c9882611c31565b604082019050919050565b60006020820190508181036000830152611cbc81611c80565b9050919050565b6000604082019050611cd860008301856115c9565b611ce560208301846115c9565b9392505050565b60008115159050919050565b611d0181611cec565b8114611d0c57600080fd5b50565b600081519050611d1e81611cf8565b92915050565b600060208284031215611d3a57611d39611520565b5b6000611d4884828501611d0f565b91505092915050565b7f6c697374696e673a206e6f7420617070726f766564206f6e207468697320636f60008201527f6e74726163740000000000000000000000000000000000000000000000000000602082015250565b6000611dad60268361181b565b9150611db882611d51565b604082019050919050565b60006020820190508181036000830152611ddc81611da0565b9050919050565b7f73656c6c3a206e6f7420657869737420696e2073656c6c206974656d73000000600082015250565b6000611e19601d8361181b565b9150611e2482611de3565b602082019050919050565b60006020820190508181036000830152611e4881611e0c565b9050919050565b600081519050611e5e8161152f565b92915050565b600060208284031215611e7a57611e79611520565b5b6000611e8884828501611e4f565b91505092915050565b7f73656c6c3a204e6f7420656e6f75676820746f6b656e20616d6f756e74000000600082015250565b6000611ec7601d8361181b565b9150611ed282611e91565b602082019050919050565b60006020820190508181036000830152611ef681611eba565b9050919050565b7f73656c6c3a204e6f7420656e6f75676820616c6c6f77616e63656420746f6b6560008201527f6e20616d6f756e74000000000000000000000000000000000000000000000000602082015250565b6000611f5960288361181b565b9150611f6482611efd565b604082019050919050565b60006020820190508181036000830152611f8881611f4c565b9050919050565b7f4e487b7100000000000000000000000000000000000000000000000000000000600052601160045260246000fd5b6000611fc982611525565b9150611fd483611525565b9250817fffffffffffffffffffffffffffffffffffffffffffffffffffffffffffffffff048311821515161561200d5761200c611f8f565b5b828202905092915050565b7f4e487b7100000000000000000000000000000000000000000000000000000000600052601260045260246000fd5b600061205282611525565b915061205d83611525565b92508261206d5761206c612018565b5b828204905092915050565b7f73656c6c3a206572633230207472616e7366657220666565206661696c656400600082015250565b60006120ae601f8361181b565b91506120b982612078565b602082019050919050565b600060208201905081810360008301526120dd816120a1565b9050919050565b60006120ef82611525565b91506120fa83611525565b92508282101561210d5761210c611f8f565b5b828203905092915050565b7f73656c6c3a206572633230207472616e73666572207072696365206661696c6560008201527f6400000000000000000000000000000000000000000000000000000000000000602082015250565b600061217460218361181b565b915061217f82612118565b604082019050919050565b600060208201905081810360008301526121a381612167565b905091905056fea264697066735822122080a819506cf322225ffd2c85cfc3c31ca79f1d73054fdb6269462bc59fdf040964736f6c634300080e0033",
  "immutableReferences": {},
  "source": "// SPDX-License-Identifier: MIT\r\npragma solidity ^0.8.14;\r\n\r\nimport \"@openzeppelin/contracts/token/ERC20/ERC20.sol\";\r\nimport \"@openzeppelin/contracts/token/ERC721/ERC721.sol\";\r\nimport \"./TKMMarketTokenA.sol\";\r\n\r\n// 3km  NFT  \r\ncontract TKMMarketTkmNftA is TKMMarketTokenA {\r\n    constructor(address _TokenContract, address _NFTContract, address _holder, uint256 _fee, address _feeOwner)\r\n        TKMMarketTokenA(_TokenContract, _NFTContract, _holder, _fee, _feeOwner) {\r\n    }\r\n\r\n    //  \r\n    function listing(uint256 tokenId, uint256 price) public virtual override {\r\n        super.listing(tokenId, price);\r\n\r\n        // event\r\n        emit Listing(msg.sender, tokenId, sellItems[tokenId].price);\r\n    }\r\n\r\n    //  \r\n    function cancel(uint256 tokenId) public virtual override {\r\n        uint256 price = sellItems[tokenId].price;\r\n        super.cancel(tokenId);\r\n\r\n        // event\r\n        emit Cancel(msg.sender, tokenId, price);\r\n    }\r\n\r\n    //  (ERC20)\r\n    function sell(uint256 tokenId) public payable virtual override {\r\n        uint256 price = sellItems[tokenId].price;\r\n        address tokenOwner = sellItems[tokenId].tokenOwner;\r\n        super.sell(tokenId);\r\n\r\n        // event\r\n        emit Sell(tokenOwner, msg.sender, tokenId, price);\r\n    }\r\n}\r\n",
  "sourcePath": "C:\\Works\\1_Github\\solidity_tinyping\\contracts\\TKMMarketTkmNftA.sol",
  "compiler": {
    "name": "solc",
    "version": "0.8.14+commit.80d49f37.Emscripten.clang"
  },
  "schemaVersion": "3.4.7",
  "updatedAt": "2022-10-13T05:26:41.061Z",
  "networkType": "ethereum",
  "devdoc": {
    "kind": "dev",
    "methods": {},
    "version": 1
  },
  "userdoc": {
    "kind": "user",
    "methods": {},
    "version": 1
  }
}