{
  "contractName": "TKMNftA",
  "abi": [
    {
      "inputs": [
        {
          "internalType": "address",
          "name": "_minter",
          "type": "address"
        },
        {
          "internalType": "address",
          "name": "_holder",
          "type": "address"
        }
      ],
      "stateMutability": "nonpayable",
      "type": "constructor"
    },
    {
      "anonymous": false,
      "inputs": [
        {
          "indexed": true,
          "internalType": "address",
          "name": "owner",
          "type": "address"
        },
        {
          "indexed": true,
          "internalType": "address",
          "name": "approved",
          "type": "address"
        },
        {
          "indexed": true,
          "internalType": "uint256",
          "name": "tokenId",
          "type": "uint256"
        }
      ],
      "name": "Approval",
      "type": "event"
    },
    {
      "anonymous": false,
      "inputs": [
        {
          "indexed": true,
          "internalType": "address",
          "name": "owner",
          "type": "address"
        },
        {
          "indexed": true,
          "internalType": "address",
          "name": "operator",
          "type": "address"
        },
        {
          "indexed": false,
          "internalType": "bool",
          "name": "approved",
          "type": "bool"
        }
      ],
      "name": "ApprovalForAll",
      "type": "event"
    },
    {
      "anonymous": false,
      "inputs": [
        {
          "indexed": true,
          "internalType": "address",
          "name": "from",
          "type": "address"
        },
        {
          "indexed": true,
          "internalType": "address",
          "name": "to",
          "type": "address"
        }
      ],
      "name": "ChangeHolder",
      "type": "event"
    },
    {
      "anonymous": false,
      "inputs": [
        {
          "indexed": true,
          "internalType": "address",
          "name": "from",
          "type": "address"
        },
        {
          "indexed": true,
          "internalType": "address",
          "name": "to",
          "type": "address"
        }
      ],
      "name": "ChangeMinter",
      "type": "event"
    },
    {
      "anonymous": false,
      "inputs": [
        {
          "indexed": true,
          "internalType": "address",
          "name": "from",
          "type": "address"
        },
        {
          "indexed": true,
          "internalType": "address",
          "name": "to",
          "type": "address"
        }
      ],
      "name": "ChangeOwner",
      "type": "event"
    },
    {
      "anonymous": false,
      "inputs": [
        {
          "indexed": true,
          "internalType": "uint256",
          "name": "tokenId",
          "type": "uint256"
        },
        {
          "indexed": true,
          "internalType": "uint16",
          "name": "reason",
          "type": "uint16"
        }
      ],
      "name": "NftBurn",
      "type": "event"
    },
    {
      "anonymous": false,
      "inputs": [
        {
          "indexed": true,
          "internalType": "address",
          "name": "from",
          "type": "address"
        },
        {
          "indexed": true,
          "internalType": "address",
          "name": "to",
          "type": "address"
        },
        {
          "indexed": true,
          "internalType": "uint256",
          "name": "tokenId",
          "type": "uint256"
        }
      ],
      "name": "Transfer",
      "type": "event"
    },
    {
      "inputs": [
        {
          "internalType": "address",
          "name": "to",
          "type": "address"
        },
        {
          "internalType": "uint256",
          "name": "tokenId",
          "type": "uint256"
        }
      ],
      "name": "approve",
      "outputs": [],
      "stateMutability": "nonpayable",
      "type": "function"
    },
    {
      "inputs": [
        {
          "internalType": "address",
          "name": "owner",
          "type": "address"
        }
      ],
      "name": "balanceOf",
      "outputs": [
        {
          "internalType": "uint256",
          "name": "",
          "type": "uint256"
        }
      ],
      "stateMutability": "view",
      "type": "function"
    },
    {
      "inputs": [
        {
          "internalType": "address",
          "name": "_newHolder",
          "type": "address"
        }
      ],
      "name": "changeHolder",
      "outputs": [],
      "stateMutability": "nonpayable",
      "type": "function"
    },
    {
      "inputs": [
        {
          "internalType": "address",
          "name": "newMinter_",
          "type": "address"
        }
      ],
      "name": "changeMinter",
      "outputs": [],
      "stateMutability": "nonpayable",
      "type": "function"
    },
    {
      "inputs": [
        {
          "internalType": "address payable",
          "name": "newOwner_",
          "type": "address"
        }
      ],
      "name": "changeOwner",
      "outputs": [],
      "stateMutability": "nonpayable",
      "type": "function"
    },
    {
      "inputs": [
        {
          "internalType": "uint256",
          "name": "tokenId",
          "type": "uint256"
        }
      ],
      "name": "getApproved",
      "outputs": [
        {
          "internalType": "address",
          "name": "",
          "type": "address"
        }
      ],
      "stateMutability": "view",
      "type": "function"
    },
    {
      "inputs": [],
      "name": "holder",
      "outputs": [
        {
          "internalType": "address",
          "name": "",
          "type": "address"
        }
      ],
      "stateMutability": "view",
      "type": "function"
    },
    {
      "inputs": [
        {
          "internalType": "address",
          "name": "owner",
          "type": "address"
        },
        {
          "internalType": "address",
          "name": "operator",
          "type": "address"
        }
      ],
      "name": "isApprovedForAll",
      "outputs": [
        {
          "internalType": "bool",
          "name": "",
          "type": "bool"
        }
      ],
      "stateMutability": "view",
      "type": "function"
    },
    {
      "inputs": [],
      "name": "minter",
      "outputs": [
        {
          "internalType": "address",
          "name": "",
          "type": "address"
        }
      ],
      "stateMutability": "view",
      "type": "function"
    },
    {
      "inputs": [],
      "name": "name",
      "outputs": [
        {
          "internalType": "string",
          "name": "",
          "type": "string"
        }
      ],
      "stateMutability": "view",
      "type": "function"
    },
    {
      "inputs": [],
      "name": "nftId",
      "outputs": [
        {
          "internalType": "uint256",
          "name": "",
          "type": "uint256"
        }
      ],
      "stateMutability": "view",
      "type": "function"
    },
    {
      "inputs": [],
      "name": "owner",
      "outputs": [
        {
          "internalType": "address payable",
          "name": "",
          "type": "address"
        }
      ],
      "stateMutability": "view",
      "type": "function"
    },
    {
      "inputs": [
        {
          "internalType": "uint256",
          "name": "tokenId",
          "type": "uint256"
        }
      ],
      "name": "ownerOf",
      "outputs": [
        {
          "internalType": "address",
          "name": "",
          "type": "address"
        }
      ],
      "stateMutability": "view",
      "type": "function"
    },
    {
      "inputs": [
        {
          "internalType": "address",
          "name": "from",
          "type": "address"
        },
        {
          "internalType": "address",
          "name": "to",
          "type": "address"
        },
        {
          "internalType": "uint256",
          "name": "tokenId",
          "type": "uint256"
        }
      ],
      "name": "safeTransferFrom",
      "outputs": [],
      "stateMutability": "nonpayable",
      "type": "function"
    },
    {
      "inputs": [
        {
          "internalType": "address",
          "name": "from",
          "type": "address"
        },
        {
          "internalType": "address",
          "name": "to",
          "type": "address"
        },
        {
          "internalType": "uint256",
          "name": "tokenId",
          "type": "uint256"
        },
        {
          "internalType": "bytes",
          "name": "_data",
          "type": "bytes"
        }
      ],
      "name": "safeTransferFrom",
      "outputs": [],
      "stateMutability": "nonpayable",
      "type": "function"
    },
    {
      "inputs": [
        {
          "internalType": "address",
          "name": "operator",
          "type": "address"
        },
        {
          "internalType": "bool",
          "name": "approved",
          "type": "bool"
        }
      ],
      "name": "setApprovalForAll",
      "outputs": [],
      "stateMutability": "nonpayable",
      "type": "function"
    },
    {
      "inputs": [],
      "name": "symbol",
      "outputs": [
        {
          "internalType": "string",
          "name": "",
          "type": "string"
        }
      ],
      "stateMutability": "view",
      "type": "function"
    },
    {
      "inputs": [
        {
          "internalType": "uint256",
          "name": "index",
          "type": "uint256"
        }
      ],
      "name": "tokenByIndex",
      "outputs": [
        {
          "internalType": "uint256",
          "name": "",
          "type": "uint256"
        }
      ],
      "stateMutability": "view",
      "type": "function"
    },
    {
      "inputs": [
        {
          "internalType": "address",
          "name": "owner",
          "type": "address"
        },
        {
          "internalType": "uint256",
          "name": "index",
          "type": "uint256"
        }
      ],
      "name": "tokenOfOwnerByIndex",
      "outputs": [
        {
          "internalType": "uint256",
          "name": "",
          "type": "uint256"
        }
      ],
      "stateMutability": "view",
      "type": "function"
    },
    {
      "inputs": [],
      "name": "totalSupply",
      "outputs": [
        {
          "internalType": "uint256",
          "name": "",
          "type": "uint256"
        }
      ],
      "stateMutability": "view",
      "type": "function"
    },
    {
      "inputs": [
        {
          "internalType": "address",
          "name": "from",
          "type": "address"
        },
        {
          "internalType": "address",
          "name": "to",
          "type": "address"
        },
        {
          "internalType": "uint256",
          "name": "tokenId",
          "type": "uint256"
        }
      ],
      "name": "transferFrom",
      "outputs": [],
      "stateMutability": "nonpayable",
      "type": "function"
    },
    {
      "inputs": [
        {
          "internalType": "address",
          "name": "nftOwner",
          "type": "address"
        }
      ],
      "name": "Mint",
      "outputs": [
        {
          "internalType": "uint256",
          "name": "",
          "type": "uint256"
        }
      ],
      "stateMutability": "nonpayable",
      "type": "function"
    },
    {
      "inputs": [
        {
          "internalType": "uint256",
          "name": "_tokenId",
          "type": "uint256"
        },
        {
          "internalType": "uint16",
          "name": "reason",
          "type": "uint16"
        }
      ],
      "name": "Burn",
      "outputs": [],
      "stateMutability": "nonpayable",
      "type": "function"
    },
    {
      "inputs": [
        {
          "internalType": "uint256",
          "name": "tokenId",
          "type": "uint256"
        }
      ],
      "name": "tokenURI",
      "outputs": [
        {
          "internalType": "string",
          "name": "",
          "type": "string"
        }
      ],
      "stateMutability": "view",
      "type": "function"
    },
    {
      "inputs": [
        {
          "internalType": "bytes4",
          "name": "interfaceId",
          "type": "bytes4"
        }
      ],
      "name": "supportsInterface",
      "outputs": [
        {
          "internalType": "bool",
          "name": "",
          "type": "bool"
        }
      ],
      "stateMutability": "view",
      "type": "function"
    }
  ],
  "bytecode": "0x60806040523480156200001157600080fd5b50604051620042ce380380620042ce8339818101604052810190620000379190620002c0565b80826040518060400160405280601c81526020017f5468726565204b696e67646f6d204d756c74697665727365204e6674000000008152506040518060400160405280600881526020017f334b4d4e66745f410000000000000000000000000000000000000000000000008152508160009080519060200190620000bd929190620001a6565b508060019080519060200190620000d6929190620001a6565b50505033600b60006101000a81548173ffffffffffffffffffffffffffffffffffffffff021916908373ffffffffffffffffffffffffffffffffffffffff16021790555080600c60006101000a81548173ffffffffffffffffffffffffffffffffffffffff021916908373ffffffffffffffffffffffffffffffffffffffff1602179055505080600d60006101000a81548173ffffffffffffffffffffffffffffffffffffffff021916908373ffffffffffffffffffffffffffffffffffffffff1602179055505050506200036b565b828054620001b49062000336565b90600052602060002090601f016020900481019282620001d8576000855562000224565b82601f10620001f357805160ff191683800117855562000224565b8280016001018555821562000224579182015b828111156200022357825182559160200191906001019062000206565b5b50905062000233919062000237565b5090565b5b808211156200025257600081600090555060010162000238565b5090565b600080fd5b600073ffffffffffffffffffffffffffffffffffffffff82169050919050565b600062000288826200025b565b9050919050565b6200029a816200027b565b8114620002a657600080fd5b50565b600081519050620002ba816200028f565b92915050565b60008060408385031215620002da57620002d962000256565b5b6000620002ea85828601620002a9565b9250506020620002fd85828601620002a9565b9150509250929050565b7f4e487b7100000000000000000000000000000000000000000000000000000000600052602260045260246000fd5b600060028204905060018216806200034f57607f821691505b60208210810362000365576200036462000307565b5b50919050565b613f53806200037b6000396000f3fe608060405234801561001057600080fd5b50600436106101735760003560e01c80635a87db75116100de578063a6f9dae111610097578063c6bc518211610071578063c6bc51821461045a578063c87b56dd14610478578063e534155d146104a8578063e985e9c5146104c657610173565b8063a6f9dae114610406578063b88d4fde14610422578063bd6cac4c1461043e57610173565b80635a87db75146103325780636352211e1461034e57806370a082311461037e5780638da5cb5b146103ae57806395d89b41146103cc578063a22cb465146103ea57610173565b806323b872dd1161013057806323b872dd1461024e5780632c4d4d181461026a5780632f745c59146102865780633c3284d1146102b657806342842e0e146102e65780634f6ccce71461030257610173565b806301ffc9a71461017857806306fdde03146101a857806307546172146101c6578063081812fc146101e4578063095ea7b31461021457806318160ddd14610230575b600080fd5b610192600480360381019061018d91906128b7565b6104f6565b60405161019f91906128ff565b60405180910390f35b6101b0610508565b6040516101bd91906129b3565b60405180910390f35b6101ce61059a565b6040516101db9190612a16565b60405180910390f35b6101fe60048036038101906101f99190612a67565b6105c0565b60405161020b9190612a16565b60405180910390f35b61022e60048036038101906102299190612ac0565b610645565b005b61023861075c565b6040516102459190612b0f565b60405180910390f35b61026860048036038101906102639190612b2a565b610769565b005b610284600480360381019061027f9190612b7d565b6107c9565b005b6102a0600480360381019061029b9190612ac0565b610966565b6040516102ad9190612b0f565b60405180910390f35b6102d060048036038101906102cb9190612b7d565b610a0b565b6040516102dd9190612b0f565b60405180910390f35b61030060048036038101906102fb9190612b2a565b610ac9565b005b61031c60048036038101906103179190612a67565b610ae9565b6040516103299190612b0f565b60405180910390f35b61034c60048036038101906103479190612b7d565b610b5a565b005b61036860048036038101906103639190612a67565b610cf7565b6040516103759190612a16565b60405180910390f35b61039860048036038101906103939190612b7d565b610da8565b6040516103a59190612b0f565b60405180910390f35b6103b6610e5f565b6040516103c39190612bcb565b60405180910390f35b6103d4610e85565b6040516103e191906129b3565b60405180910390f35b61040460048036038101906103ff9190612c12565b610f17565b005b610420600480360381019061041b9190612c7e565b610f2d565b005b61043c60048036038101906104379190612de0565b6110ca565b005b61045860048036038101906104539190612e9d565b61112c565b005b6104626111fb565b60405161046f9190612b0f565b60405180910390f35b610492600480360381019061048d9190612a67565b611201565b60405161049f91906129b3565b60405180910390f35b6104b0611213565b6040516104bd9190612a16565b60405180910390f35b6104e060048036038101906104db9190612edd565b611239565b6040516104ed91906128ff565b60405180910390f35b6000610501826112cd565b9050919050565b60606000805461051790612f4c565b80601f016020809104026020016040519081016040528092919081815260200182805461054390612f4c565b80156105905780601f1061056557610100808354040283529160200191610590565b820191906000526020600020905b81548152906001019060200180831161057357829003601f168201915b5050505050905090565b600c60009054906101000a900473ffffffffffffffffffffffffffffffffffffffff1681565b60006105cb82611347565b61060a576040517f08c379a000000000000000000000000000000000000000000000000000000000815260040161060190612fef565b60405180910390fd5b6004600083815260200190815260200160002060009054906101000a900473ffffffffffffffffffffffffffffffffffffffff169050919050565b600061065082610cf7565b90508073ffffffffffffffffffffffffffffffffffffffff168373ffffffffffffffffffffffffffffffffffffffff16036106c0576040517f08c379a00000000000000000000000000000000000000000000000000000000081526004016106b790613081565b60405180910390fd5b8073ffffffffffffffffffffffffffffffffffffffff166106df6113b3565b73ffffffffffffffffffffffffffffffffffffffff16148061070e575061070d816107086113b3565b611239565b5b61074d576040517f08c379a000000000000000000000000000000000000000000000000000000000815260040161074490613113565b60405180910390fd5b61075783836113bb565b505050565b6000600880549050905090565b61077a6107746113b3565b82611474565b6107b9576040517f08c379a00000000000000000000000000000000000000000000000000000000081526004016107b0906131a5565b60405180910390fd5b6107c4838383611552565b505050565b600c60009054906101000a900473ffffffffffffffffffffffffffffffffffffffff1673ffffffffffffffffffffffffffffffffffffffff163373ffffffffffffffffffffffffffffffffffffffff1614610859576040517f08c379a000000000000000000000000000000000000000000000000000000000815260040161085090613237565b60405180910390fd5b600073ffffffffffffffffffffffffffffffffffffffff168173ffffffffffffffffffffffffffffffffffffffff16036108c8576040517f08c379a00000000000000000000000000000000000000000000000000000000081526004016108bf906132a3565b60405180910390fd5b80600c60006101000a81548173ffffffffffffffffffffffffffffffffffffffff021916908373ffffffffffffffffffffffffffffffffffffffff1602179055508073ffffffffffffffffffffffffffffffffffffffff163373ffffffffffffffffffffffffffffffffffffffff167fcba8b2f67b1b66244252c443e6260110af641687bcceb46c810da702119ec82860405160405180910390a350565b600061097183610da8565b82106109b2576040517f08c379a00000000000000000000000000000000000000000000000000000000081526004016109a990613335565b60405180910390fd5b600660008473ffffffffffffffffffffffffffffffffffffffff1673ffffffffffffffffffffffffffffffffffffffff168152602001908152602001600020600083815260200190815260200160002054905092915050565b6000600c60009054906101000a900473ffffffffffffffffffffffffffffffffffffffff1673ffffffffffffffffffffffffffffffffffffffff163373ffffffffffffffffffffffffffffffffffffffff1614610a9d576040517f08c379a0000000000000000000000000000000000000000000000000000000008152600401610a9490613237565b60405180910390fd5b600e60008154610aac90613384565b91905081905550610abf82600e546117b8565b600e549050919050565b610ae4838383604051806020016040528060008152506110ca565b505050565b6000610af361075c565b8210610b34576040517f08c379a0000000000000000000000000000000000000000000000000000000008152600401610b2b9061343e565b60405180910390fd5b60088281548110610b4857610b4761345e565b5b90600052602060002001549050919050565b600d60009054906101000a900473ffffffffffffffffffffffffffffffffffffffff1673ffffffffffffffffffffffffffffffffffffffff163373ffffffffffffffffffffffffffffffffffffffff1614610bea576040517f08c379a0000000000000000000000000000000000000000000000000000000008152600401610be1906134ff565b60405180910390fd5b600073ffffffffffffffffffffffffffffffffffffffff168173ffffffffffffffffffffffffffffffffffffffff1603610c59576040517f08c379a0000000000000000000000000000000000000000000000000000000008152600401610c509061356b565b60405180910390fd5b80600d60006101000a81548173ffffffffffffffffffffffffffffffffffffffff021916908373ffffffffffffffffffffffffffffffffffffffff1602179055508073ffffffffffffffffffffffffffffffffffffffff163373ffffffffffffffffffffffffffffffffffffffff167faacb557aec2a550c25d78cd9d6085c2068d5aa4878d98bcd1178b2eabd18598460405160405180910390a350565b6000806002600084815260200190815260200160002060009054906101000a900473ffffffffffffffffffffffffffffffffffffffff169050600073ffffffffffffffffffffffffffffffffffffffff168173ffffffffffffffffffffffffffffffffffffffff1603610d9f576040517f08c379a0000000000000000000000000000000000000000000000000000000008152600401610d96906135fd565b60405180910390fd5b80915050919050565b60008073ffffffffffffffffffffffffffffffffffffffff168273ffffffffffffffffffffffffffffffffffffffff1603610e18576040517f08c379a0000000000000000000000000000000000000000000000000000000008152600401610e0f9061368f565b60405180910390fd5b600360008373ffffffffffffffffffffffffffffffffffffffff1673ffffffffffffffffffffffffffffffffffffffff168152602001908152602001600020549050919050565b600b60009054906101000a900473ffffffffffffffffffffffffffffffffffffffff1681565b606060018054610e9490612f4c565b80601f0160208091040260200160405190810160405280929190818152602001828054610ec090612f4c565b8015610f0d5780601f10610ee257610100808354040283529160200191610f0d565b820191906000526020600020905b815481529060010190602001808311610ef057829003601f168201915b5050505050905090565b610f29610f226113b3565b83836117d6565b5050565b600b60009054906101000a900473ffffffffffffffffffffffffffffffffffffffff1673ffffffffffffffffffffffffffffffffffffffff163373ffffffffffffffffffffffffffffffffffffffff1614610fbd576040517f08c379a0000000000000000000000000000000000000000000000000000000008152600401610fb490613721565b60405180910390fd5b600073ffffffffffffffffffffffffffffffffffffffff168173ffffffffffffffffffffffffffffffffffffffff160361102c576040517f08c379a00000000000000000000000000000000000000000000000000000000081526004016110239061378d565b60405180910390fd5b80600b60006101000a81548173ffffffffffffffffffffffffffffffffffffffff021916908373ffffffffffffffffffffffffffffffffffffffff1602179055508073ffffffffffffffffffffffffffffffffffffffff163373ffffffffffffffffffffffffffffffffffffffff167f9aecf86140d81442289f667eb72e1202a8fbb3478a686659952e145e8531965660405160405180910390a350565b6110db6110d56113b3565b83611474565b61111a576040517f08c379a0000000000000000000000000000000000000000000000000000000008152600401611111906131a5565b60405180910390fd5b61112684848484611942565b50505050565b600d60009054906101000a900473ffffffffffffffffffffffffffffffffffffffff1673ffffffffffffffffffffffffffffffffffffffff163373ffffffffffffffffffffffffffffffffffffffff16146111bc576040517f08c379a00000000000000000000000000000000000000000000000000000000081526004016111b3906134ff565b60405180910390fd5b6111c58261199e565b8061ffff16827f3041e7ec70f8f50e03a5834751baa287138a965f2ac86b666709c46a530658cc60405160405180910390a35050565b600e5481565b606061120c826119aa565b9050919050565b600d60009054906101000a900473ffffffffffffffffffffffffffffffffffffffff1681565b6000600560008473ffffffffffffffffffffffffffffffffffffffff1673ffffffffffffffffffffffffffffffffffffffff16815260200190815260200160002060008373ffffffffffffffffffffffffffffffffffffffff1673ffffffffffffffffffffffffffffffffffffffff16815260200190815260200160002060009054906101000a900460ff16905092915050565b60007f780e9d63000000000000000000000000000000000000000000000000000000007bffffffffffffffffffffffffffffffffffffffffffffffffffffffff1916827bffffffffffffffffffffffffffffffffffffffffffffffffffffffff19161480611340575061133f82611afb565b5b9050919050565b60008073ffffffffffffffffffffffffffffffffffffffff166002600084815260200190815260200160002060009054906101000a900473ffffffffffffffffffffffffffffffffffffffff1673ffffffffffffffffffffffffffffffffffffffff1614159050919050565b600033905090565b816004600083815260200190815260200160002060006101000a81548173ffffffffffffffffffffffffffffffffffffffff021916908373ffffffffffffffffffffffffffffffffffffffff160217905550808273ffffffffffffffffffffffffffffffffffffffff1661142e83610cf7565b73ffffffffffffffffffffffffffffffffffffffff167f8c5be1e5ebec7d5bd14f71427d1e84f3dd0314c0f7b2291e5b200ac8c7c3b92560405160405180910390a45050565b600061147f82611347565b6114be576040517f08c379a00000000000000000000000000000000000000000000000000000000081526004016114b59061381f565b60405180910390fd5b60006114c983610cf7565b90508073ffffffffffffffffffffffffffffffffffffffff168473ffffffffffffffffffffffffffffffffffffffff16148061150b575061150a8185611239565b5b8061154957508373ffffffffffffffffffffffffffffffffffffffff16611531846105c0565b73ffffffffffffffffffffffffffffffffffffffff16145b91505092915050565b8273ffffffffffffffffffffffffffffffffffffffff1661157282610cf7565b73ffffffffffffffffffffffffffffffffffffffff16146115c8576040517f08c379a00000000000000000000000000000000000000000000000000000000081526004016115bf906138b1565b60405180910390fd5b600073ffffffffffffffffffffffffffffffffffffffff168273ffffffffffffffffffffffffffffffffffffffff1603611637576040517f08c379a000000000000000000000000000000000000000000000000000000000815260040161162e90613943565b60405180910390fd5b611642838383611bdd565b61164d6000826113bb565b6001600360008573ffffffffffffffffffffffffffffffffffffffff1673ffffffffffffffffffffffffffffffffffffffff168152602001908152602001600020600082825461169d9190613963565b925050819055506001600360008473ffffffffffffffffffffffffffffffffffffffff1673ffffffffffffffffffffffffffffffffffffffff16815260200190815260200160002060008282546116f49190613997565b92505081905550816002600083815260200190815260200160002060006101000a81548173ffffffffffffffffffffffffffffffffffffffff021916908373ffffffffffffffffffffffffffffffffffffffff160217905550808273ffffffffffffffffffffffffffffffffffffffff168473ffffffffffffffffffffffffffffffffffffffff167fddf252ad1be2c89b69c2b068fc378daa952ba7f163c4a11628f55a4df523b3ef60405160405180910390a46117b3838383611bed565b505050565b6117d2828260405180602001604052806000815250611bf2565b5050565b8173ffffffffffffffffffffffffffffffffffffffff168373ffffffffffffffffffffffffffffffffffffffff1603611844576040517f08c379a000000000000000000000000000000000000000000000000000000000815260040161183b90613a39565b60405180910390fd5b80600560008573ffffffffffffffffffffffffffffffffffffffff1673ffffffffffffffffffffffffffffffffffffffff16815260200190815260200160002060008473ffffffffffffffffffffffffffffffffffffffff1673ffffffffffffffffffffffffffffffffffffffff16815260200190815260200160002060006101000a81548160ff0219169083151502179055508173ffffffffffffffffffffffffffffffffffffffff168373ffffffffffffffffffffffffffffffffffffffff167f17307eab39ab6107e8899845ad3d59bd9653f200f220920489ca2b5937696c318360405161193591906128ff565b60405180910390a3505050565b61194d848484611552565b61195984848484611c4d565b611998576040517f08c379a000000000000000000000000000000000000000000000000000000000815260040161198f90613acb565b60405180910390fd5b50505050565b6119a781611dd4565b50565b60606119b582611347565b6119f4576040517f08c379a00000000000000000000000000000000000000000000000000000000081526004016119eb90613b5d565b60405180910390fd5b6000600a60008481526020019081526020016000208054611a1490612f4c565b80601f0160208091040260200160405190810160405280929190818152602001828054611a4090612f4c565b8015611a8d5780601f10611a6257610100808354040283529160200191611a8d565b820191906000526020600020905b815481529060010190602001808311611a7057829003601f168201915b505050505090506000611a9e611e27565b90506000815103611ab3578192505050611af6565b600082511115611ae8578082604051602001611ad0929190613bb9565b60405160208183030381529060405292505050611af6565b611af184611e47565b925050505b919050565b60007f80ac58cd000000000000000000000000000000000000000000000000000000007bffffffffffffffffffffffffffffffffffffffffffffffffffffffff1916827bffffffffffffffffffffffffffffffffffffffffffffffffffffffff19161480611bc657507f5b5e139f000000000000000000000000000000000000000000000000000000007bffffffffffffffffffffffffffffffffffffffffffffffffffffffff1916827bffffffffffffffffffffffffffffffffffffffffffffffffffffffff1916145b80611bd65750611bd582611eee565b5b9050919050565b611be8838383611f58565b505050565b505050565b611bfc838361206a565b611c096000848484611c4d565b611c48576040517f08c379a0000000000000000000000000000000000000000000000000000000008152600401611c3f90613acb565b60405180910390fd5b505050565b6000611c6e8473ffffffffffffffffffffffffffffffffffffffff16612243565b15611dc7578373ffffffffffffffffffffffffffffffffffffffff1663150b7a02611c976113b3565b8786866040518563ffffffff1660e01b8152600401611cb99493929190613c32565b6020604051808303816000875af1925050508015611cf557506040513d601f19601f82011682018060405250810190611cf29190613c93565b60015b611d77573d8060008114611d25576040519150601f19603f3d011682016040523d82523d6000602084013e611d2a565b606091505b506000815103611d6f576040517f08c379a0000000000000000000000000000000000000000000000000000000008152600401611d6690613acb565b60405180910390fd5b805181602001fd5b63150b7a0260e01b7bffffffffffffffffffffffffffffffffffffffffffffffffffffffff1916817bffffffffffffffffffffffffffffffffffffffffffffffffffffffff191614915050611dcc565b600190505b949350505050565b611ddd81612266565b6000600a60008381526020019081526020016000208054611dfd90612f4c565b905014611e2457600a60008281526020019081526020016000206000611e2391906127ee565b5b50565b6060604051806060016040528060338152602001613eeb60339139905090565b6060611e5282611347565b611e91576040517f08c379a0000000000000000000000000000000000000000000000000000000008152600401611e8890613d32565b60405180910390fd5b6000611e9b611e27565b90506000815111611ebb5760405180602001604052806000815250611ee6565b80611ec584612383565b604051602001611ed6929190613bb9565b6040516020818303038152906040525b915050919050565b60007f01ffc9a7000000000000000000000000000000000000000000000000000000007bffffffffffffffffffffffffffffffffffffffffffffffffffffffff1916827bffffffffffffffffffffffffffffffffffffffffffffffffffffffff1916149050919050565b611f638383836124e3565b600073ffffffffffffffffffffffffffffffffffffffff168373ffffffffffffffffffffffffffffffffffffffff1603611fa557611fa0816124e8565b611fe4565b8173ffffffffffffffffffffffffffffffffffffffff168373ffffffffffffffffffffffffffffffffffffffff1614611fe357611fe28382612531565b5b5b600073ffffffffffffffffffffffffffffffffffffffff168273ffffffffffffffffffffffffffffffffffffffff1603612026576120218161269e565b612065565b8273ffffffffffffffffffffffffffffffffffffffff168273ffffffffffffffffffffffffffffffffffffffff161461206457612063828261276f565b5b5b505050565b600073ffffffffffffffffffffffffffffffffffffffff168273ffffffffffffffffffffffffffffffffffffffff16036120d9576040517f08c379a00000000000000000000000000000000000000000000000000000000081526004016120d090613d9e565b60405180910390fd5b6120e281611347565b15612122576040517f08c379a000000000000000000000000000000000000000000000000000000000815260040161211990613e0a565b60405180910390fd5b61212e60008383611bdd565b6001600360008473ffffffffffffffffffffffffffffffffffffffff1673ffffffffffffffffffffffffffffffffffffffff168152602001908152602001600020600082825461217e9190613997565b92505081905550816002600083815260200190815260200160002060006101000a81548173ffffffffffffffffffffffffffffffffffffffff021916908373ffffffffffffffffffffffffffffffffffffffff160217905550808273ffffffffffffffffffffffffffffffffffffffff16600073ffffffffffffffffffffffffffffffffffffffff167fddf252ad1be2c89b69c2b068fc378daa952ba7f163c4a11628f55a4df523b3ef60405160405180910390a461223f60008383611bed565b5050565b6000808273ffffffffffffffffffffffffffffffffffffffff163b119050919050565b600061227182610cf7565b905061227f81600084611bdd565b61228a6000836113bb565b6001600360008373ffffffffffffffffffffffffffffffffffffffff1673ffffffffffffffffffffffffffffffffffffffff16815260200190815260200160002060008282546122da9190613963565b925050819055506002600083815260200190815260200160002060006101000a81549073ffffffffffffffffffffffffffffffffffffffff021916905581600073ffffffffffffffffffffffffffffffffffffffff168273ffffffffffffffffffffffffffffffffffffffff167fddf252ad1be2c89b69c2b068fc378daa952ba7f163c4a11628f55a4df523b3ef60405160405180910390a461237f81600084611bed565b5050565b6060600082036123ca576040518060400160405280600181526020017f300000000000000000000000000000000000000000000000000000000000000081525090506124de565b600082905060005b600082146123fc5780806123e590613384565b915050600a826123f59190613e59565b91506123d2565b60008167ffffffffffffffff81111561241857612417612cb5565b5b6040519080825280601f01601f19166020018201604052801561244a5781602001600182028036833780820191505090505b5090505b600085146124d7576001826124639190613963565b9150600a856124729190613e8a565b603061247e9190613997565b60f81b8183815181106124945761249361345e565b5b60200101907effffffffffffffffffffffffffffffffffffffffffffffffffffffffffffff1916908160001a905350600a856124d09190613e59565b945061244e565b8093505050505b919050565b505050565b6008805490506009600083815260200190815260200160002081905550600881908060018154018082558091505060019003906000526020600020016000909190919091505550565b6000600161253e84610da8565b6125489190613963565b905060006007600084815260200190815260200160002054905081811461262d576000600660008673ffffffffffffffffffffffffffffffffffffffff1673ffffffffffffffffffffffffffffffffffffffff168152602001908152602001600020600084815260200190815260200160002054905080600660008773ffffffffffffffffffffffffffffffffffffffff1673ffffffffffffffffffffffffffffffffffffffff168152602001908152602001600020600084815260200190815260200160002081905550816007600083815260200190815260200160002081905550505b6007600084815260200190815260200160002060009055600660008573ffffffffffffffffffffffffffffffffffffffff1673ffffffffffffffffffffffffffffffffffffffff16815260200190815260200160002060008381526020019081526020016000206000905550505050565b600060016008805490506126b29190613963565b90506000600960008481526020019081526020016000205490506000600883815481106126e2576126e161345e565b5b9060005260206000200154905080600883815481106127045761270361345e565b5b90600052602060002001819055508160096000838152602001908152602001600020819055506009600085815260200190815260200160002060009055600880548061275357612752613ebb565b5b6001900381819060005260206000200160009055905550505050565b600061277a83610da8565b905081600660008573ffffffffffffffffffffffffffffffffffffffff1673ffffffffffffffffffffffffffffffffffffffff168152602001908152602001600020600083815260200190815260200160002081905550806007600084815260200190815260200160002081905550505050565b5080546127fa90612f4c565b6000825580601f1061280c575061282b565b601f01602090049060005260206000209081019061282a919061282e565b5b50565b5b8082111561284757600081600090555060010161282f565b5090565b6000604051905090565b600080fd5b600080fd5b60007fffffffff0000000000000000000000000000000000000000000000000000000082169050919050565b6128948161285f565b811461289f57600080fd5b50565b6000813590506128b18161288b565b92915050565b6000602082840312156128cd576128cc612855565b5b60006128db848285016128a2565b91505092915050565b60008115159050919050565b6128f9816128e4565b82525050565b600060208201905061291460008301846128f0565b92915050565b600081519050919050565b600082825260208201905092915050565b60005b83811015612954578082015181840152602081019050612939565b83811115612963576000848401525b50505050565b6000601f19601f8301169050919050565b60006129858261291a565b61298f8185612925565b935061299f818560208601612936565b6129a881612969565b840191505092915050565b600060208201905081810360008301526129cd818461297a565b905092915050565b600073ffffffffffffffffffffffffffffffffffffffff82169050919050565b6000612a00826129d5565b9050919050565b612a10816129f5565b82525050565b6000602082019050612a2b6000830184612a07565b92915050565b6000819050919050565b612a4481612a31565b8114612a4f57600080fd5b50565b600081359050612a6181612a3b565b92915050565b600060208284031215612a7d57612a7c612855565b5b6000612a8b84828501612a52565b91505092915050565b612a9d816129f5565b8114612aa857600080fd5b50565b600081359050612aba81612a94565b92915050565b60008060408385031215612ad757612ad6612855565b5b6000612ae585828601612aab565b9250506020612af685828601612a52565b9150509250929050565b612b0981612a31565b82525050565b6000602082019050612b246000830184612b00565b92915050565b600080600060608486031215612b4357612b42612855565b5b6000612b5186828701612aab565b9350506020612b6286828701612aab565b9250506040612b7386828701612a52565b9150509250925092565b600060208284031215612b9357612b92612855565b5b6000612ba184828501612aab565b91505092915050565b6000612bb5826129d5565b9050919050565b612bc581612baa565b82525050565b6000602082019050612be06000830184612bbc565b92915050565b612bef816128e4565b8114612bfa57600080fd5b50565b600081359050612c0c81612be6565b92915050565b60008060408385031215612c2957612c28612855565b5b6000612c3785828601612aab565b9250506020612c4885828601612bfd565b9150509250929050565b612c5b81612baa565b8114612c6657600080fd5b50565b600081359050612c7881612c52565b92915050565b600060208284031215612c9457612c93612855565b5b6000612ca284828501612c69565b91505092915050565b600080fd5b600080fd5b7f4e487b7100000000000000000000000000000000000000000000000000000000600052604160045260246000fd5b612ced82612969565b810181811067ffffffffffffffff82111715612d0c57612d0b612cb5565b5b80604052505050565b6000612d1f61284b565b9050612d2b8282612ce4565b919050565b600067ffffffffffffffff821115612d4b57612d4a612cb5565b5b612d5482612969565b9050602081019050919050565b82818337600083830152505050565b6000612d83612d7e84612d30565b612d15565b905082815260208101848484011115612d9f57612d9e612cb0565b5b612daa848285612d61565b509392505050565b600082601f830112612dc757612dc6612cab565b5b8135612dd7848260208601612d70565b91505092915050565b60008060008060808587031215612dfa57612df9612855565b5b6000612e0887828801612aab565b9450506020612e1987828801612aab565b9350506040612e2a87828801612a52565b925050606085013567ffffffffffffffff811115612e4b57612e4a61285a565b5b612e5787828801612db2565b91505092959194509250565b600061ffff82169050919050565b612e7a81612e63565b8114612e8557600080fd5b50565b600081359050612e9781612e71565b92915050565b60008060408385031215612eb457612eb3612855565b5b6000612ec285828601612a52565b9250506020612ed385828601612e88565b9150509250929050565b60008060408385031215612ef457612ef3612855565b5b6000612f0285828601612aab565b9250506020612f1385828601612aab565b9150509250929050565b7f4e487b7100000000000000000000000000000000000000000000000000000000600052602260045260246000fd5b60006002820490506001821680612f6457607f821691505b602082108103612f7757612f76612f1d565b5b50919050565b7f4552433732313a20617070726f76656420717565727920666f72206e6f6e657860008201527f697374656e7420746f6b656e0000000000000000000000000000000000000000602082015250565b6000612fd9602c83612925565b9150612fe482612f7d565b604082019050919050565b6000602082019050818103600083015261300881612fcc565b9050919050565b7f4552433732313a20617070726f76616c20746f2063757272656e74206f776e6560008201527f7200000000000000000000000000000000000000000000000000000000000000602082015250565b600061306b602183612925565b91506130768261300f565b604082019050919050565b6000602082019050818103600083015261309a8161305e565b9050919050565b7f4552433732313a20617070726f76652063616c6c6572206973206e6f74206f7760008201527f6e6572206e6f7220617070726f76656420666f7220616c6c0000000000000000602082015250565b60006130fd603883612925565b9150613108826130a1565b604082019050919050565b6000602082019050818103600083015261312c816130f0565b9050919050565b7f4552433732313a207472616e736665722063616c6c6572206973206e6f74206f60008201527f776e6572206e6f7220617070726f766564000000000000000000000000000000602082015250565b600061318f603183612925565b915061319a82613133565b604082019050919050565b600060208201905081810360008301526131be81613182565b9050919050565b7f4f6e6c792074686520636f6e7472616374206d696e7465722063616e2063616c60008201527f6c20746869732066756e6374696f6e0000000000000000000000000000000000602082015250565b6000613221602f83612925565b915061322c826131c5565b604082019050919050565b6000602082019050818103600083015261325081613214565b9050919050565b7f6e6f74207a65726f206164647265737320666f72206e6577206d696e74657200600082015250565b600061328d601f83612925565b915061329882613257565b602082019050919050565b600060208201905081810360008301526132bc81613280565b9050919050565b7f455243373231456e756d657261626c653a206f776e657220696e646578206f7560008201527f74206f6620626f756e6473000000000000000000000000000000000000000000602082015250565b600061331f602b83612925565b915061332a826132c3565b604082019050919050565b6000602082019050818103600083015261334e81613312565b9050919050565b7f4e487b7100000000000000000000000000000000000000000000000000000000600052601160045260246000fd5b600061338f82612a31565b91507fffffffffffffffffffffffffffffffffffffffffffffffffffffffffffffffff82036133c1576133c0613355565b5b600182019050919050565b7f455243373231456e756d657261626c653a20676c6f62616c20696e646578206f60008201527f7574206f6620626f756e64730000000000000000000000000000000000000000602082015250565b6000613428602c83612925565b9150613433826133cc565b604082019050919050565b600060208201905081810360008301526134578161341b565b9050919050565b7f4e487b7100000000000000000000000000000000000000000000000000000000600052603260045260246000fd5b7f4f6e6c792074686520636f6e747261637420686f6c6465722063616e2063616c60008201527f6c20746869732066756e6374696f6e0000000000000000000000000000000000602082015250565b60006134e9602f83612925565b91506134f48261348d565b604082019050919050565b60006020820190508181036000830152613518816134dc565b9050919050565b7f6e6f74207a65726f206164647265737320666f72206e657720686f6c64657200600082015250565b6000613555601f83612925565b91506135608261351f565b602082019050919050565b6000602082019050818103600083015261358481613548565b9050919050565b7f4552433732313a206f776e657220717565727920666f72206e6f6e657869737460008201527f656e7420746f6b656e0000000000000000000000000000000000000000000000602082015250565b60006135e7602983612925565b91506135f28261358b565b604082019050919050565b60006020820190508181036000830152613616816135da565b9050919050565b7f4552433732313a2062616c616e636520717565727920666f7220746865207a6560008201527f726f206164647265737300000000000000000000000000000000000000000000602082015250565b6000613679602a83612925565b91506136848261361d565b604082019050919050565b600060208201905081810360008301526136a88161366c565b9050919050565b7f4f6e6c792074686520636f6e7472616374206f776e65722063616e2063616c6c60008201527f20746869732066756e6374696f6e000000000000000000000000000000000000602082015250565b600061370b602e83612925565b9150613716826136af565b604082019050919050565b6000602082019050818103600083015261373a816136fe565b9050919050565b7f6e6f74207a65726f206164647265737320666f72206e6577206f776e65720000600082015250565b6000613777601e83612925565b915061378282613741565b602082019050919050565b600060208201905081810360008301526137a68161376a565b9050919050565b7f4552433732313a206f70657261746f7220717565727920666f72206e6f6e657860008201527f697374656e7420746f6b656e0000000000000000000000000000000000000000602082015250565b6000613809602c83612925565b9150613814826137ad565b604082019050919050565b60006020820190508181036000830152613838816137fc565b9050919050565b7f4552433732313a207472616e736665722066726f6d20696e636f72726563742060008201527f6f776e6572000000000000000000000000000000000000000000000000000000602082015250565b600061389b602583612925565b91506138a68261383f565b604082019050919050565b600060208201905081810360008301526138ca8161388e565b9050919050565b7f4552433732313a207472616e7366657220746f20746865207a65726f2061646460008201527f7265737300000000000000000000000000000000000000000000000000000000602082015250565b600061392d602483612925565b9150613938826138d1565b604082019050919050565b6000602082019050818103600083015261395c81613920565b9050919050565b600061396e82612a31565b915061397983612a31565b92508282101561398c5761398b613355565b5b828203905092915050565b60006139a282612a31565b91506139ad83612a31565b9250827fffffffffffffffffffffffffffffffffffffffffffffffffffffffffffffffff038211156139e2576139e1613355565b5b828201905092915050565b7f4552433732313a20617070726f766520746f2063616c6c657200000000000000600082015250565b6000613a23601983612925565b9150613a2e826139ed565b602082019050919050565b60006020820190508181036000830152613a5281613a16565b9050919050565b7f4552433732313a207472616e7366657220746f206e6f6e20455243373231526560008201527f63656976657220696d706c656d656e7465720000000000000000000000000000602082015250565b6000613ab5603283612925565b9150613ac082613a59565b604082019050919050565b60006020820190508181036000830152613ae481613aa8565b9050919050565b7f45524337323155524953746f726167653a2055524920717565727920666f722060008201527f6e6f6e6578697374656e7420746f6b656e000000000000000000000000000000602082015250565b6000613b47603183612925565b9150613b5282613aeb565b604082019050919050565b60006020820190508181036000830152613b7681613b3a565b9050919050565b600081905092915050565b6000613b938261291a565b613b9d8185613b7d565b9350613bad818560208601612936565b80840191505092915050565b6000613bc58285613b88565b9150613bd18284613b88565b91508190509392505050565b600081519050919050565b600082825260208201905092915050565b6000613c0482613bdd565b613c0e8185613be8565b9350613c1e818560208601612936565b613c2781612969565b840191505092915050565b6000608082019050613c476000830187612a07565b613c546020830186612a07565b613c616040830185612b00565b8181036060830152613c738184613bf9565b905095945050505050565b600081519050613c8d8161288b565b92915050565b600060208284031215613ca957613ca8612855565b5b6000613cb784828501613c7e565b91505092915050565b7f4552433732314d657461646174613a2055524920717565727920666f72206e6f60008201527f6e6578697374656e7420746f6b656e0000000000000000000000000000000000602082015250565b6000613d1c602f83612925565b9150613d2782613cc0565b604082019050919050565b60006020820190508181036000830152613d4b81613d0f565b9050919050565b7f4552433732313a206d696e7420746f20746865207a65726f2061646472657373600082015250565b6000613d88602083612925565b9150613d9382613d52565b602082019050919050565b60006020820190508181036000830152613db781613d7b565b9050919050565b7f4552433732313a20746f6b656e20616c7265616479206d696e74656400000000600082015250565b6000613df4601c83612925565b9150613dff82613dbe565b602082019050919050565b60006020820190508181036000830152613e2381613de7565b9050919050565b7f4e487b7100000000000000000000000000000000000000000000000000000000600052601260045260246000fd5b6000613e6482612a31565b9150613e6f83612a31565b925082613e7f57613e7e613e2a565b5b828204905092915050565b6000613e9582612a31565b9150613ea083612a31565b925082613eb057613eaf613e2a565b5b828206905092915050565b7f4e487b7100000000000000000000000000000000000000000000000000000000600052603160045260246000fdfe68747470733a2f2f616c7068612d6170692e7072756e656d61726b65742e78797a3a3535322f6e66742f6974656d2f746b6d2fa26469706673582212202b635a5ad6d09a2a70ed97b015e9cfb011ff749b2fbdb8737856bd4a8faeec3564736f6c634300080e0033",
  "immutableReferences": {},
  "source": "// SPDX-License-Identifier: MIT\r\n\r\npragma solidity ^0.8.14;\r\n\r\nimport \"@openzeppelin/contracts/token/ERC721/ERC721.sol\";\r\nimport \"@openzeppelin/contracts/token/ERC721/extensions/ERC721Enumerable.sol\";\r\nimport \"@openzeppelin/contracts/token/ERC721/extensions/ERC721URIStorage.sol\";\r\nimport \"./Owner.sol\";\r\n\r\ncontract TKMNftA is ERC721, ERC721Enumerable, ERC721URIStorage, Owner, Minter, Holder {\r\n    event NftBurn(uint256 indexed tokenId, uint16 indexed reason);\r\n\r\n    // nft token id\r\n    uint256 public nftId;\r\n\r\n    constructor(address _minter, address _holder)\r\n        ERC721(\"Three Kingdom Multiverse Nft\", \"3KMNft_A\")\r\n        Minter(_minter)\r\n        Holder(_holder)\r\n    {}\r\n\r\n    function Mint(address nftOwner) external onlyMinter returns (uint256) {\r\n        ++nftId;\r\n        _safeMint(nftOwner, nftId);\r\n        return nftId;\r\n    }\r\n\r\n    function Burn(uint256 _tokenId, uint16 reason) external onlyHolder {\r\n        _burn(_tokenId);\r\n        emit NftBurn(_tokenId, reason);\r\n    }\r\n\r\n    function _baseURI() internal pure override returns (string memory) {\r\n        return \"https://alpha-api.prunemarket.xyz:552/nft/item/tkm/\";\r\n    }\r\n\r\n    function _beforeTokenTransfer(\r\n        address from,\r\n        address to,\r\n        uint256 tokenId\r\n    ) internal override(ERC721, ERC721Enumerable) {\r\n        super._beforeTokenTransfer(from, to, tokenId);\r\n    }\r\n\r\n    function _burn(uint256 tokenId)\r\n        internal\r\n        override(ERC721, ERC721URIStorage)\r\n    {\r\n        super._burn(tokenId);\r\n    }\r\n\r\n    function tokenURI(uint256 tokenId)\r\n        public\r\n        view\r\n        override(ERC721, ERC721URIStorage)\r\n        returns (string memory)\r\n    {\r\n        return super.tokenURI(tokenId);\r\n    }\r\n\r\n    function supportsInterface(bytes4 interfaceId)\r\n        public\r\n        view\r\n        override(ERC721, ERC721Enumerable)\r\n        returns (bool)\r\n    {\r\n        return super.supportsInterface(interfaceId);\r\n    }\r\n}\r\n",
  "sourcePath": "D:\\github\\solidity_tinyping\\contracts\\TKMNftA.sol",
  "compiler": {
    "name": "solc",
    "version": "0.8.14+commit.80d49f37.Emscripten.clang"
  },
  "schemaVersion": "3.4.7",
  "updatedAt": "2022-11-23T01:59:54.586Z",
  "networkType": "ethereum",
  "devdoc": {
    "kind": "dev",
    "methods": {
      "approve(address,uint256)": {
        "details": "See {IERC721-approve}."
      },
      "balanceOf(address)": {
        "details": "See {IERC721-balanceOf}."
      },
      "getApproved(uint256)": {
        "details": "See {IERC721-getApproved}."
      },
      "isApprovedForAll(address,address)": {
        "details": "See {IERC721-isApprovedForAll}."
      },
      "name()": {
        "details": "See {IERC721Metadata-name}."
      },
      "ownerOf(uint256)": {
        "details": "See {IERC721-ownerOf}."
      },
      "safeTransferFrom(address,address,uint256)": {
        "details": "See {IERC721-safeTransferFrom}."
      },
      "safeTransferFrom(address,address,uint256,bytes)": {
        "details": "See {IERC721-safeTransferFrom}."
      },
      "setApprovalForAll(address,bool)": {
        "details": "See {IERC721-setApprovalForAll}."
      },
      "symbol()": {
        "details": "See {IERC721Metadata-symbol}."
      },
      "tokenByIndex(uint256)": {
        "details": "See {IERC721Enumerable-tokenByIndex}."
      },
      "tokenOfOwnerByIndex(address,uint256)": {
        "details": "See {IERC721Enumerable-tokenOfOwnerByIndex}."
      },
      "totalSupply()": {
        "details": "See {IERC721Enumerable-totalSupply}."
      },
      "transferFrom(address,address,uint256)": {
        "details": "See {IERC721-transferFrom}."
      }
    },
    "version": 1
  },
  "userdoc": {
    "kind": "user",
    "methods": {},
    "version": 1
  }
}