{
  "contractName": "TKMNftA",
  "abi": [
    {
      "inputs": [
        {
          "internalType": "address",
          "name": "_minter",
          "type": "address"
        },
        {
          "internalType": "address",
          "name": "_holder",
          "type": "address"
        }
      ],
      "stateMutability": "nonpayable",
      "type": "constructor"
    },
    {
      "anonymous": false,
      "inputs": [
        {
          "indexed": true,
          "internalType": "address",
          "name": "owner",
          "type": "address"
        },
        {
          "indexed": true,
          "internalType": "address",
          "name": "approved",
          "type": "address"
        },
        {
          "indexed": true,
          "internalType": "uint256",
          "name": "tokenId",
          "type": "uint256"
        }
      ],
      "name": "Approval",
      "type": "event"
    },
    {
      "anonymous": false,
      "inputs": [
        {
          "indexed": true,
          "internalType": "address",
          "name": "owner",
          "type": "address"
        },
        {
          "indexed": true,
          "internalType": "address",
          "name": "operator",
          "type": "address"
        },
        {
          "indexed": false,
          "internalType": "bool",
          "name": "approved",
          "type": "bool"
        }
      ],
      "name": "ApprovalForAll",
      "type": "event"
    },
    {
      "anonymous": false,
      "inputs": [
        {
          "indexed": true,
          "internalType": "uint256",
          "name": "tokenId",
          "type": "uint256"
        },
        {
          "indexed": true,
          "internalType": "uint16",
          "name": "reason",
          "type": "uint16"
        }
      ],
      "name": "NftBurn",
      "type": "event"
    },
    {
      "anonymous": false,
      "inputs": [
        {
          "indexed": false,
          "internalType": "address",
          "name": "account",
          "type": "address"
        }
      ],
      "name": "Paused",
      "type": "event"
    },
    {
      "anonymous": false,
      "inputs": [
        {
          "indexed": true,
          "internalType": "bytes32",
          "name": "role",
          "type": "bytes32"
        },
        {
          "indexed": true,
          "internalType": "bytes32",
          "name": "previousAdminRole",
          "type": "bytes32"
        },
        {
          "indexed": true,
          "internalType": "bytes32",
          "name": "newAdminRole",
          "type": "bytes32"
        }
      ],
      "name": "RoleAdminChanged",
      "type": "event"
    },
    {
      "anonymous": false,
      "inputs": [
        {
          "indexed": true,
          "internalType": "bytes32",
          "name": "role",
          "type": "bytes32"
        },
        {
          "indexed": true,
          "internalType": "address",
          "name": "account",
          "type": "address"
        },
        {
          "indexed": true,
          "internalType": "address",
          "name": "sender",
          "type": "address"
        }
      ],
      "name": "RoleGranted",
      "type": "event"
    },
    {
      "anonymous": false,
      "inputs": [
        {
          "indexed": true,
          "internalType": "bytes32",
          "name": "role",
          "type": "bytes32"
        },
        {
          "indexed": true,
          "internalType": "address",
          "name": "account",
          "type": "address"
        },
        {
          "indexed": true,
          "internalType": "address",
          "name": "sender",
          "type": "address"
        }
      ],
      "name": "RoleRevoked",
      "type": "event"
    },
    {
      "anonymous": false,
      "inputs": [
        {
          "indexed": true,
          "internalType": "address",
          "name": "from",
          "type": "address"
        },
        {
          "indexed": true,
          "internalType": "address",
          "name": "to",
          "type": "address"
        },
        {
          "indexed": true,
          "internalType": "uint256",
          "name": "tokenId",
          "type": "uint256"
        }
      ],
      "name": "Transfer",
      "type": "event"
    },
    {
      "anonymous": false,
      "inputs": [
        {
          "indexed": false,
          "internalType": "address",
          "name": "account",
          "type": "address"
        }
      ],
      "name": "Unpaused",
      "type": "event"
    },
    {
      "inputs": [],
      "name": "DEFAULT_ADMIN_ROLE",
      "outputs": [
        {
          "internalType": "bytes32",
          "name": "",
          "type": "bytes32"
        }
      ],
      "stateMutability": "view",
      "type": "function"
    },
    {
      "inputs": [],
      "name": "HOLDER_ROLE",
      "outputs": [
        {
          "internalType": "bytes32",
          "name": "",
          "type": "bytes32"
        }
      ],
      "stateMutability": "view",
      "type": "function"
    },
    {
      "inputs": [],
      "name": "MINTER_ROLE",
      "outputs": [
        {
          "internalType": "bytes32",
          "name": "",
          "type": "bytes32"
        }
      ],
      "stateMutability": "view",
      "type": "function"
    },
    {
      "inputs": [
        {
          "internalType": "address",
          "name": "to",
          "type": "address"
        },
        {
          "internalType": "uint256",
          "name": "tokenId",
          "type": "uint256"
        }
      ],
      "name": "approve",
      "outputs": [],
      "stateMutability": "nonpayable",
      "type": "function"
    },
    {
      "inputs": [
        {
          "internalType": "address",
          "name": "owner",
          "type": "address"
        }
      ],
      "name": "balanceOf",
      "outputs": [
        {
          "internalType": "uint256",
          "name": "",
          "type": "uint256"
        }
      ],
      "stateMutability": "view",
      "type": "function"
    },
    {
      "inputs": [
        {
          "internalType": "uint256",
          "name": "tokenId",
          "type": "uint256"
        }
      ],
      "name": "getApproved",
      "outputs": [
        {
          "internalType": "address",
          "name": "",
          "type": "address"
        }
      ],
      "stateMutability": "view",
      "type": "function"
    },
    {
      "inputs": [
        {
          "internalType": "bytes32",
          "name": "role",
          "type": "bytes32"
        }
      ],
      "name": "getRoleAdmin",
      "outputs": [
        {
          "internalType": "bytes32",
          "name": "",
          "type": "bytes32"
        }
      ],
      "stateMutability": "view",
      "type": "function"
    },
    {
      "inputs": [
        {
          "internalType": "bytes32",
          "name": "role",
          "type": "bytes32"
        },
        {
          "internalType": "address",
          "name": "account",
          "type": "address"
        }
      ],
      "name": "grantRole",
      "outputs": [],
      "stateMutability": "nonpayable",
      "type": "function"
    },
    {
      "inputs": [
        {
          "internalType": "bytes32",
          "name": "role",
          "type": "bytes32"
        },
        {
          "internalType": "address",
          "name": "account",
          "type": "address"
        }
      ],
      "name": "hasRole",
      "outputs": [
        {
          "internalType": "bool",
          "name": "",
          "type": "bool"
        }
      ],
      "stateMutability": "view",
      "type": "function"
    },
    {
      "inputs": [
        {
          "internalType": "address",
          "name": "owner",
          "type": "address"
        },
        {
          "internalType": "address",
          "name": "operator",
          "type": "address"
        }
      ],
      "name": "isApprovedForAll",
      "outputs": [
        {
          "internalType": "bool",
          "name": "",
          "type": "bool"
        }
      ],
      "stateMutability": "view",
      "type": "function"
    },
    {
      "inputs": [],
      "name": "name",
      "outputs": [
        {
          "internalType": "string",
          "name": "",
          "type": "string"
        }
      ],
      "stateMutability": "view",
      "type": "function"
    },
    {
      "inputs": [],
      "name": "nftId",
      "outputs": [
        {
          "internalType": "uint256",
          "name": "",
          "type": "uint256"
        }
      ],
      "stateMutability": "view",
      "type": "function"
    },
    {
      "inputs": [
        {
          "internalType": "uint256",
          "name": "tokenId",
          "type": "uint256"
        }
      ],
      "name": "ownerOf",
      "outputs": [
        {
          "internalType": "address",
          "name": "",
          "type": "address"
        }
      ],
      "stateMutability": "view",
      "type": "function"
    },
    {
      "inputs": [],
      "name": "paused",
      "outputs": [
        {
          "internalType": "bool",
          "name": "",
          "type": "bool"
        }
      ],
      "stateMutability": "view",
      "type": "function"
    },
    {
      "inputs": [
        {
          "internalType": "bytes32",
          "name": "role",
          "type": "bytes32"
        },
        {
          "internalType": "address",
          "name": "account",
          "type": "address"
        }
      ],
      "name": "renounceRole",
      "outputs": [],
      "stateMutability": "nonpayable",
      "type": "function"
    },
    {
      "inputs": [
        {
          "internalType": "bytes32",
          "name": "role",
          "type": "bytes32"
        },
        {
          "internalType": "address",
          "name": "account",
          "type": "address"
        }
      ],
      "name": "revokeRole",
      "outputs": [],
      "stateMutability": "nonpayable",
      "type": "function"
    },
    {
      "inputs": [
        {
          "internalType": "address",
          "name": "from",
          "type": "address"
        },
        {
          "internalType": "address",
          "name": "to",
          "type": "address"
        },
        {
          "internalType": "uint256",
          "name": "tokenId",
          "type": "uint256"
        }
      ],
      "name": "safeTransferFrom",
      "outputs": [],
      "stateMutability": "nonpayable",
      "type": "function"
    },
    {
      "inputs": [
        {
          "internalType": "address",
          "name": "from",
          "type": "address"
        },
        {
          "internalType": "address",
          "name": "to",
          "type": "address"
        },
        {
          "internalType": "uint256",
          "name": "tokenId",
          "type": "uint256"
        },
        {
          "internalType": "bytes",
          "name": "_data",
          "type": "bytes"
        }
      ],
      "name": "safeTransferFrom",
      "outputs": [],
      "stateMutability": "nonpayable",
      "type": "function"
    },
    {
      "inputs": [
        {
          "internalType": "address",
          "name": "operator",
          "type": "address"
        },
        {
          "internalType": "bool",
          "name": "approved",
          "type": "bool"
        }
      ],
      "name": "setApprovalForAll",
      "outputs": [],
      "stateMutability": "nonpayable",
      "type": "function"
    },
    {
      "inputs": [],
      "name": "symbol",
      "outputs": [
        {
          "internalType": "string",
          "name": "",
          "type": "string"
        }
      ],
      "stateMutability": "view",
      "type": "function"
    },
    {
      "inputs": [
        {
          "internalType": "address",
          "name": "from",
          "type": "address"
        },
        {
          "internalType": "address",
          "name": "to",
          "type": "address"
        },
        {
          "internalType": "uint256",
          "name": "tokenId",
          "type": "uint256"
        }
      ],
      "name": "transferFrom",
      "outputs": [],
      "stateMutability": "nonpayable",
      "type": "function"
    },
    {
      "inputs": [],
      "name": "pause",
      "outputs": [],
      "stateMutability": "nonpayable",
      "type": "function"
    },
    {
      "inputs": [],
      "name": "unpause",
      "outputs": [],
      "stateMutability": "nonpayable",
      "type": "function"
    },
    {
      "inputs": [
        {
          "internalType": "address",
          "name": "nftOwner",
          "type": "address"
        }
      ],
      "name": "Mint",
      "outputs": [
        {
          "internalType": "uint256",
          "name": "",
          "type": "uint256"
        }
      ],
      "stateMutability": "nonpayable",
      "type": "function"
    },
    {
      "inputs": [
        {
          "internalType": "uint256",
          "name": "_tokenId",
          "type": "uint256"
        },
        {
          "internalType": "uint16",
          "name": "reason",
          "type": "uint16"
        }
      ],
      "name": "Burn",
      "outputs": [],
      "stateMutability": "nonpayable",
      "type": "function"
    },
    {
      "inputs": [
        {
          "internalType": "uint256",
          "name": "tokenId",
          "type": "uint256"
        }
      ],
      "name": "tokenURI",
      "outputs": [
        {
          "internalType": "string",
          "name": "",
          "type": "string"
        }
      ],
      "stateMutability": "view",
      "type": "function"
    },
    {
      "inputs": [
        {
          "internalType": "bytes4",
          "name": "interfaceId",
          "type": "bytes4"
        }
      ],
      "name": "supportsInterface",
      "outputs": [
        {
          "internalType": "bool",
          "name": "",
          "type": "bool"
        }
      ],
      "stateMutability": "view",
      "type": "function"
    }
  ],
  "bytecode": "0x60806040523480156200001157600080fd5b50604051620040c5380380620040c58339818101604052810190620000379190620003f2565b6040518060400160405280601c81526020017f5468726565204b696e67646f6d204d756c74697665727365204e6674000000008152506040518060400160405280600881526020017f334b4d4e66745f410000000000000000000000000000000000000000000000008152508160009080519060200190620000bb929190620002d8565b508060019080519060200190620000d4929190620002d8565b5050506000600760006101000a81548160ff021916908315150217905550620001076000801b336200017360201b60201c565b620001397f9f2df0fed2c77648de5860a4cc508cd0818c85b8b8a1ab4ceeef8d981c8956a6836200017360201b60201c565b6200016b7f88a91f33d69233608ec901106cda3805f1356caac193014d6c70c694090df4ae826200017360201b60201c565b50506200049d565b6200018582826200026560201b60201c565b620002615760016008600084815260200190815260200160002060000160008373ffffffffffffffffffffffffffffffffffffffff1673ffffffffffffffffffffffffffffffffffffffff16815260200190815260200160002060006101000a81548160ff02191690831515021790555062000206620002d060201b60201c565b73ffffffffffffffffffffffffffffffffffffffff168173ffffffffffffffffffffffffffffffffffffffff16837f2f8788117e7eff1d82e926ec794901d17c78024a50270940304540a733656f0d60405160405180910390a45b5050565b60006008600084815260200190815260200160002060000160008373ffffffffffffffffffffffffffffffffffffffff1673ffffffffffffffffffffffffffffffffffffffff16815260200190815260200160002060009054906101000a900460ff16905092915050565b600033905090565b828054620002e69062000468565b90600052602060002090601f0160209004810192826200030a576000855562000356565b82601f106200032557805160ff191683800117855562000356565b8280016001018555821562000356579182015b828111156200035557825182559160200191906001019062000338565b5b50905062000365919062000369565b5090565b5b80821115620003845760008160009055506001016200036a565b5090565b600080fd5b600073ffffffffffffffffffffffffffffffffffffffff82169050919050565b6000620003ba826200038d565b9050919050565b620003cc81620003ad565b8114620003d857600080fd5b50565b600081519050620003ec81620003c1565b92915050565b600080604083850312156200040c576200040b62000388565b5b60006200041c85828601620003db565b92505060206200042f85828601620003db565b9150509250929050565b7f4e487b7100000000000000000000000000000000000000000000000000000000600052602260045260246000fd5b600060028204905060018216806200048157607f821691505b60208210810362000497576200049662000439565b5b50919050565b613c1880620004ad6000396000f3fe608060405234801561001057600080fd5b50600436106101a95760003560e01c80636352211e116100f9578063b88d4fde11610097578063c87b56dd11610071578063c87b56dd146104a6578063d5391393146104d6578063d547741f146104f4578063e985e9c514610510576101a9565b8063b88d4fde14610450578063bd6cac4c1461046c578063c6bc518214610488576101a9565b806391d14854116100d357806391d14854146103c857806395d89b41146103f8578063a217fddf14610416578063a22cb46514610434576101a9565b80636352211e1461035e57806370a082311461038e5780638456cb59146103be576101a9565b8063248a9ca3116101665780633c3284d1116101405780633c3284d1146102ea5780633f4ba83a1461031a57806342842e0e146103245780635c975abb14610340576101a9565b8063248a9ca3146102825780632f2ff15d146102b257806336568abe146102ce576101a9565b806301ffc9a7146101ae57806306fdde03146101de578063081812fc146101fc578063095ea7b31461022c5780631c9c304d1461024857806323b872dd14610266575b600080fd5b6101c860048036038101906101c39190612666565b610540565b6040516101d591906126ae565b60405180910390f35b6101e6610552565b6040516101f39190612762565b60405180910390f35b610216600480360381019061021191906127ba565b6105e4565b6040516102239190612828565b60405180910390f35b6102466004803603810190610241919061286f565b610669565b005b610250610780565b60405161025d91906128c8565b60405180910390f35b610280600480360381019061027b91906128e3565b6107a4565b005b61029c60048036038101906102979190612962565b610804565b6040516102a991906128c8565b60405180910390f35b6102cc60048036038101906102c7919061298f565b610824565b005b6102e860048036038101906102e3919061298f565b610845565b005b61030460048036038101906102ff91906129cf565b6108c8565b6040516103119190612a0b565b60405180910390f35b610322610969565b005b61033e600480360381019061033991906128e3565b610981565b005b6103486109a1565b60405161035591906126ae565b60405180910390f35b610378600480360381019061037391906127ba565b6109b8565b6040516103859190612828565b60405180910390f35b6103a860048036038101906103a391906129cf565b610a69565b6040516103b59190612a0b565b60405180910390f35b6103c6610b20565b005b6103e260048036038101906103dd919061298f565b610b38565b6040516103ef91906126ae565b60405180910390f35b610400610ba3565b60405161040d9190612762565b60405180910390f35b61041e610c35565b60405161042b91906128c8565b60405180910390f35b61044e60048036038101906104499190612a52565b610c3c565b005b61046a60048036038101906104659190612bc7565b610c52565b005b61048660048036038101906104819190612c84565b610cb4565b005b610490610d66565b60405161049d9190612a0b565b60405180910390f35b6104c060048036038101906104bb91906127ba565b610d6c565b6040516104cd9190612762565b60405180910390f35b6104de610d7e565b6040516104eb91906128c8565b60405180910390f35b61050e6004803603810190610509919061298f565b610da2565b005b61052a60048036038101906105259190612cc4565b610dc3565b60405161053791906126ae565b60405180910390f35b600061054b82610e57565b9050919050565b60606000805461056190612d33565b80601f016020809104026020016040519081016040528092919081815260200182805461058d90612d33565b80156105da5780601f106105af576101008083540402835291602001916105da565b820191906000526020600020905b8154815290600101906020018083116105bd57829003601f168201915b5050505050905090565b60006105ef82610ed1565b61062e576040517f08c379a000000000000000000000000000000000000000000000000000000000815260040161062590612dd6565b60405180910390fd5b6004600083815260200190815260200160002060009054906101000a900473ffffffffffffffffffffffffffffffffffffffff169050919050565b6000610674826109b8565b90508073ffffffffffffffffffffffffffffffffffffffff168373ffffffffffffffffffffffffffffffffffffffff16036106e4576040517f08c379a00000000000000000000000000000000000000000000000000000000081526004016106db90612e68565b60405180910390fd5b8073ffffffffffffffffffffffffffffffffffffffff16610703610f3d565b73ffffffffffffffffffffffffffffffffffffffff16148061073257506107318161072c610f3d565b610dc3565b5b610771576040517f08c379a000000000000000000000000000000000000000000000000000000000815260040161076890612efa565b60405180910390fd5b61077b8383610f45565b505050565b7f88a91f33d69233608ec901106cda3805f1356caac193014d6c70c694090df4ae81565b6107b56107af610f3d565b82610ffe565b6107f4576040517f08c379a00000000000000000000000000000000000000000000000000000000081526004016107eb90612f8c565b60405180910390fd5b6107ff8383836110dc565b505050565b600060086000838152602001908152602001600020600101549050919050565b61082d82610804565b61083681611342565b6108408383611356565b505050565b61084d610f3d565b73ffffffffffffffffffffffffffffffffffffffff168173ffffffffffffffffffffffffffffffffffffffff16146108ba576040517f08c379a00000000000000000000000000000000000000000000000000000000081526004016108b19061301e565b60405180910390fd5b6108c48282611437565b5050565b60006108d26109a1565b15610912576040517f08c379a00000000000000000000000000000000000000000000000000000000081526004016109099061308a565b60405180910390fd5b7f9f2df0fed2c77648de5860a4cc508cd0818c85b8b8a1ab4ceeef8d981c8956a661093c81611342565b60096000815461094b906130d9565b9190508190555061095e83600954611519565b600954915050919050565b6000801b61097681611342565b61097e611537565b50565b61099c83838360405180602001604052806000815250610c52565b505050565b6000600760009054906101000a900460ff16905090565b6000806002600084815260200190815260200160002060009054906101000a900473ffffffffffffffffffffffffffffffffffffffff169050600073ffffffffffffffffffffffffffffffffffffffff168173ffffffffffffffffffffffffffffffffffffffff1603610a60576040517f08c379a0000000000000000000000000000000000000000000000000000000008152600401610a5790613193565b60405180910390fd5b80915050919050565b60008073ffffffffffffffffffffffffffffffffffffffff168273ffffffffffffffffffffffffffffffffffffffff1603610ad9576040517f08c379a0000000000000000000000000000000000000000000000000000000008152600401610ad090613225565b60405180910390fd5b600360008373ffffffffffffffffffffffffffffffffffffffff1673ffffffffffffffffffffffffffffffffffffffff168152602001908152602001600020549050919050565b6000801b610b2d81611342565b610b356115d9565b50565b60006008600084815260200190815260200160002060000160008373ffffffffffffffffffffffffffffffffffffffff1673ffffffffffffffffffffffffffffffffffffffff16815260200190815260200160002060009054906101000a900460ff16905092915050565b606060018054610bb290612d33565b80601f0160208091040260200160405190810160405280929190818152602001828054610bde90612d33565b8015610c2b5780601f10610c0057610100808354040283529160200191610c2b565b820191906000526020600020905b815481529060010190602001808311610c0e57829003601f168201915b5050505050905090565b6000801b81565b610c4e610c47610f3d565b838361167c565b5050565b610c63610c5d610f3d565b83610ffe565b610ca2576040517f08c379a0000000000000000000000000000000000000000000000000000000008152600401610c9990612f8c565b60405180910390fd5b610cae848484846117e8565b50505050565b610cbc6109a1565b15610cfc576040517f08c379a0000000000000000000000000000000000000000000000000000000008152600401610cf39061308a565b60405180910390fd5b7f88a91f33d69233608ec901106cda3805f1356caac193014d6c70c694090df4ae610d2681611342565b610d2f83611844565b8161ffff16837f3041e7ec70f8f50e03a5834751baa287138a965f2ac86b666709c46a530658cc60405160405180910390a3505050565b60095481565b6060610d7782611850565b9050919050565b7f9f2df0fed2c77648de5860a4cc508cd0818c85b8b8a1ab4ceeef8d981c8956a681565b610dab82610804565b610db481611342565b610dbe8383611437565b505050565b6000600560008473ffffffffffffffffffffffffffffffffffffffff1673ffffffffffffffffffffffffffffffffffffffff16815260200190815260200160002060008373ffffffffffffffffffffffffffffffffffffffff1673ffffffffffffffffffffffffffffffffffffffff16815260200190815260200160002060009054906101000a900460ff16905092915050565b60007f7965db0b000000000000000000000000000000000000000000000000000000007bffffffffffffffffffffffffffffffffffffffffffffffffffffffff1916827bffffffffffffffffffffffffffffffffffffffffffffffffffffffff19161480610eca5750610ec9826119a1565b5b9050919050565b60008073ffffffffffffffffffffffffffffffffffffffff166002600084815260200190815260200160002060009054906101000a900473ffffffffffffffffffffffffffffffffffffffff1673ffffffffffffffffffffffffffffffffffffffff1614159050919050565b600033905090565b816004600083815260200190815260200160002060006101000a81548173ffffffffffffffffffffffffffffffffffffffff021916908373ffffffffffffffffffffffffffffffffffffffff160217905550808273ffffffffffffffffffffffffffffffffffffffff16610fb8836109b8565b73ffffffffffffffffffffffffffffffffffffffff167f8c5be1e5ebec7d5bd14f71427d1e84f3dd0314c0f7b2291e5b200ac8c7c3b92560405160405180910390a45050565b600061100982610ed1565b611048576040517f08c379a000000000000000000000000000000000000000000000000000000000815260040161103f906132b7565b60405180910390fd5b6000611053836109b8565b90508073ffffffffffffffffffffffffffffffffffffffff168473ffffffffffffffffffffffffffffffffffffffff16148061109557506110948185610dc3565b5b806110d357508373ffffffffffffffffffffffffffffffffffffffff166110bb846105e4565b73ffffffffffffffffffffffffffffffffffffffff16145b91505092915050565b8273ffffffffffffffffffffffffffffffffffffffff166110fc826109b8565b73ffffffffffffffffffffffffffffffffffffffff1614611152576040517f08c379a000000000000000000000000000000000000000000000000000000000815260040161114990613349565b60405180910390fd5b600073ffffffffffffffffffffffffffffffffffffffff168273ffffffffffffffffffffffffffffffffffffffff16036111c1576040517f08c379a00000000000000000000000000000000000000000000000000000000081526004016111b8906133db565b60405180910390fd5b6111cc838383611a83565b6111d7600082610f45565b6001600360008573ffffffffffffffffffffffffffffffffffffffff1673ffffffffffffffffffffffffffffffffffffffff168152602001908152602001600020600082825461122791906133fb565b925050819055506001600360008473ffffffffffffffffffffffffffffffffffffffff1673ffffffffffffffffffffffffffffffffffffffff168152602001908152602001600020600082825461127e919061342f565b92505081905550816002600083815260200190815260200160002060006101000a81548173ffffffffffffffffffffffffffffffffffffffff021916908373ffffffffffffffffffffffffffffffffffffffff160217905550808273ffffffffffffffffffffffffffffffffffffffff168473ffffffffffffffffffffffffffffffffffffffff167fddf252ad1be2c89b69c2b068fc378daa952ba7f163c4a11628f55a4df523b3ef60405160405180910390a461133d838383611adb565b505050565b6113538161134e610f3d565b611ae0565b50565b6113608282610b38565b6114335760016008600084815260200190815260200160002060000160008373ffffffffffffffffffffffffffffffffffffffff1673ffffffffffffffffffffffffffffffffffffffff16815260200190815260200160002060006101000a81548160ff0219169083151502179055506113d8610f3d565b73ffffffffffffffffffffffffffffffffffffffff168173ffffffffffffffffffffffffffffffffffffffff16837f2f8788117e7eff1d82e926ec794901d17c78024a50270940304540a733656f0d60405160405180910390a45b5050565b6114418282610b38565b156115155760006008600084815260200190815260200160002060000160008373ffffffffffffffffffffffffffffffffffffffff1673ffffffffffffffffffffffffffffffffffffffff16815260200190815260200160002060006101000a81548160ff0219169083151502179055506114ba610f3d565b73ffffffffffffffffffffffffffffffffffffffff168173ffffffffffffffffffffffffffffffffffffffff16837ff6391f5c32d9c69d2a47ea670b442974b53935d1edc7fd64eb21e047a839171b60405160405180910390a45b5050565b611533828260405180602001604052806000815250611b7d565b5050565b61153f6109a1565b61157e576040517f08c379a0000000000000000000000000000000000000000000000000000000008152600401611575906134d1565b60405180910390fd5b6000600760006101000a81548160ff0219169083151502179055507f5db9ee0a495bf2e6ff9c91a7834c1ba4fdd244a5e8aa4e537bd38aeae4b073aa6115c2610f3d565b6040516115cf9190612828565b60405180910390a1565b6115e16109a1565b15611621576040517f08c379a00000000000000000000000000000000000000000000000000000000081526004016116189061308a565b60405180910390fd5b6001600760006101000a81548160ff0219169083151502179055507f62e78cea01bee320cd4e420270b5ea74000d11b0c9f74754ebdbfc544b05a258611665610f3d565b6040516116729190612828565b60405180910390a1565b8173ffffffffffffffffffffffffffffffffffffffff168373ffffffffffffffffffffffffffffffffffffffff16036116ea576040517f08c379a00000000000000000000000000000000000000000000000000000000081526004016116e19061353d565b60405180910390fd5b80600560008573ffffffffffffffffffffffffffffffffffffffff1673ffffffffffffffffffffffffffffffffffffffff16815260200190815260200160002060008473ffffffffffffffffffffffffffffffffffffffff1673ffffffffffffffffffffffffffffffffffffffff16815260200190815260200160002060006101000a81548160ff0219169083151502179055508173ffffffffffffffffffffffffffffffffffffffff168373ffffffffffffffffffffffffffffffffffffffff167f17307eab39ab6107e8899845ad3d59bd9653f200f220920489ca2b5937696c31836040516117db91906126ae565b60405180910390a3505050565b6117f38484846110dc565b6117ff84848484611bd8565b61183e576040517f08c379a0000000000000000000000000000000000000000000000000000000008152600401611835906135cf565b60405180910390fd5b50505050565b61184d81611d5f565b50565b606061185b82610ed1565b61189a576040517f08c379a000000000000000000000000000000000000000000000000000000000815260040161189190613661565b60405180910390fd5b60006006600084815260200190815260200160002080546118ba90612d33565b80601f01602080910402602001604051908101604052809291908181526020018280546118e690612d33565b80156119335780601f1061190857610100808354040283529160200191611933565b820191906000526020600020905b81548152906001019060200180831161191657829003601f168201915b505050505090506000611944611db2565b9050600081510361195957819250505061199c565b60008251111561198e5780826040516020016119769291906136bd565b6040516020818303038152906040529250505061199c565b61199784611dd2565b925050505b919050565b60007f80ac58cd000000000000000000000000000000000000000000000000000000007bffffffffffffffffffffffffffffffffffffffffffffffffffffffff1916827bffffffffffffffffffffffffffffffffffffffffffffffffffffffff19161480611a6c57507f5b5e139f000000000000000000000000000000000000000000000000000000007bffffffffffffffffffffffffffffffffffffffffffffffffffffffff1916827bffffffffffffffffffffffffffffffffffffffffffffffffffffffff1916145b80611a7c5750611a7b82611e79565b5b9050919050565b611a8b6109a1565b15611acb576040517f08c379a0000000000000000000000000000000000000000000000000000000008152600401611ac29061308a565b60405180910390fd5b611ad6838383611ee3565b505050565b505050565b611aea8282610b38565b611b7957611b0f8173ffffffffffffffffffffffffffffffffffffffff166014611ee8565b611b1d8360001c6020611ee8565b604051602001611b2e929190613779565b6040516020818303038152906040526040517f08c379a0000000000000000000000000000000000000000000000000000000008152600401611b709190612762565b60405180910390fd5b5050565b611b878383612124565b611b946000848484611bd8565b611bd3576040517f08c379a0000000000000000000000000000000000000000000000000000000008152600401611bca906135cf565b60405180910390fd5b505050565b6000611bf98473ffffffffffffffffffffffffffffffffffffffff166122fd565b15611d52578373ffffffffffffffffffffffffffffffffffffffff1663150b7a02611c22610f3d565b8786866040518563ffffffff1660e01b8152600401611c449493929190613808565b6020604051808303816000875af1925050508015611c8057506040513d601f19601f82011682018060405250810190611c7d9190613869565b60015b611d02573d8060008114611cb0576040519150601f19603f3d011682016040523d82523d6000602084013e611cb5565b606091505b506000815103611cfa576040517f08c379a0000000000000000000000000000000000000000000000000000000008152600401611cf1906135cf565b60405180910390fd5b805181602001fd5b63150b7a0260e01b7bffffffffffffffffffffffffffffffffffffffffffffffffffffffff1916817bffffffffffffffffffffffffffffffffffffffffffffffffffffffff191614915050611d57565b600190505b949350505050565b611d6881612320565b6000600660008381526020019081526020016000208054611d8890612d33565b905014611daf57600660008281526020019081526020016000206000611dae919061259d565b5b50565b6060604051806060016040528060338152602001613bb060339139905090565b6060611ddd82610ed1565b611e1c576040517f08c379a0000000000000000000000000000000000000000000000000000000008152600401611e1390613908565b60405180910390fd5b6000611e26611db2565b90506000815111611e465760405180602001604052806000815250611e71565b80611e508461243d565b604051602001611e619291906136bd565b6040516020818303038152906040525b915050919050565b60007f01ffc9a7000000000000000000000000000000000000000000000000000000007bffffffffffffffffffffffffffffffffffffffffffffffffffffffff1916827bffffffffffffffffffffffffffffffffffffffffffffffffffffffff1916149050919050565b505050565b606060006002836002611efb9190613928565b611f05919061342f565b67ffffffffffffffff811115611f1e57611f1d612a9c565b5b6040519080825280601f01601f191660200182016040528015611f505781602001600182028036833780820191505090505b5090507f300000000000000000000000000000000000000000000000000000000000000081600081518110611f8857611f87613982565b5b60200101907effffffffffffffffffffffffffffffffffffffffffffffffffffffffffffff1916908160001a9053507f780000000000000000000000000000000000000000000000000000000000000081600181518110611fec57611feb613982565b5b60200101907effffffffffffffffffffffffffffffffffffffffffffffffffffffffffffff1916908160001a9053506000600184600261202c9190613928565b612036919061342f565b90505b60018111156120d6577f3031323334353637383961626364656600000000000000000000000000000000600f86166010811061207857612077613982565b5b1a60f81b82828151811061208f5761208e613982565b5b60200101907effffffffffffffffffffffffffffffffffffffffffffffffffffffffffffff1916908160001a905350600485901c9450806120cf906139b1565b9050612039565b506000841461211a576040517f08c379a000000000000000000000000000000000000000000000000000000000815260040161211190613a26565b60405180910390fd5b8091505092915050565b600073ffffffffffffffffffffffffffffffffffffffff168273ffffffffffffffffffffffffffffffffffffffff1603612193576040517f08c379a000000000000000000000000000000000000000000000000000000000815260040161218a90613a92565b60405180910390fd5b61219c81610ed1565b156121dc576040517f08c379a00000000000000000000000000000000000000000000000000000000081526004016121d390613afe565b60405180910390fd5b6121e860008383611a83565b6001600360008473ffffffffffffffffffffffffffffffffffffffff1673ffffffffffffffffffffffffffffffffffffffff1681526020019081526020016000206000828254612238919061342f565b92505081905550816002600083815260200190815260200160002060006101000a81548173ffffffffffffffffffffffffffffffffffffffff021916908373ffffffffffffffffffffffffffffffffffffffff160217905550808273ffffffffffffffffffffffffffffffffffffffff16600073ffffffffffffffffffffffffffffffffffffffff167fddf252ad1be2c89b69c2b068fc378daa952ba7f163c4a11628f55a4df523b3ef60405160405180910390a46122f960008383611adb565b5050565b6000808273ffffffffffffffffffffffffffffffffffffffff163b119050919050565b600061232b826109b8565b905061233981600084611a83565b612344600083610f45565b6001600360008373ffffffffffffffffffffffffffffffffffffffff1673ffffffffffffffffffffffffffffffffffffffff168152602001908152602001600020600082825461239491906133fb565b925050819055506002600083815260200190815260200160002060006101000a81549073ffffffffffffffffffffffffffffffffffffffff021916905581600073ffffffffffffffffffffffffffffffffffffffff168273ffffffffffffffffffffffffffffffffffffffff167fddf252ad1be2c89b69c2b068fc378daa952ba7f163c4a11628f55a4df523b3ef60405160405180910390a461243981600084611adb565b5050565b606060008203612484576040518060400160405280600181526020017f30000000000000000000000000000000000000000000000000000000000000008152509050612598565b600082905060005b600082146124b657808061249f906130d9565b915050600a826124af9190613b4d565b915061248c565b60008167ffffffffffffffff8111156124d2576124d1612a9c565b5b6040519080825280601f01601f1916602001820160405280156125045781602001600182028036833780820191505090505b5090505b600085146125915760018261251d91906133fb565b9150600a8561252c9190613b7e565b6030612538919061342f565b60f81b81838151811061254e5761254d613982565b5b60200101907effffffffffffffffffffffffffffffffffffffffffffffffffffffffffffff1916908160001a905350600a8561258a9190613b4d565b9450612508565b8093505050505b919050565b5080546125a990612d33565b6000825580601f106125bb57506125da565b601f0160209004906000526020600020908101906125d991906125dd565b5b50565b5b808211156125f65760008160009055506001016125de565b5090565b6000604051905090565b600080fd5b600080fd5b60007fffffffff0000000000000000000000000000000000000000000000000000000082169050919050565b6126438161260e565b811461264e57600080fd5b50565b6000813590506126608161263a565b92915050565b60006020828403121561267c5761267b612604565b5b600061268a84828501612651565b91505092915050565b60008115159050919050565b6126a881612693565b82525050565b60006020820190506126c3600083018461269f565b92915050565b600081519050919050565b600082825260208201905092915050565b60005b838110156127035780820151818401526020810190506126e8565b83811115612712576000848401525b50505050565b6000601f19601f8301169050919050565b6000612734826126c9565b61273e81856126d4565b935061274e8185602086016126e5565b61275781612718565b840191505092915050565b6000602082019050818103600083015261277c8184612729565b905092915050565b6000819050919050565b61279781612784565b81146127a257600080fd5b50565b6000813590506127b48161278e565b92915050565b6000602082840312156127d0576127cf612604565b5b60006127de848285016127a5565b91505092915050565b600073ffffffffffffffffffffffffffffffffffffffff82169050919050565b6000612812826127e7565b9050919050565b61282281612807565b82525050565b600060208201905061283d6000830184612819565b92915050565b61284c81612807565b811461285757600080fd5b50565b60008135905061286981612843565b92915050565b6000806040838503121561288657612885612604565b5b60006128948582860161285a565b92505060206128a5858286016127a5565b9150509250929050565b6000819050919050565b6128c2816128af565b82525050565b60006020820190506128dd60008301846128b9565b92915050565b6000806000606084860312156128fc576128fb612604565b5b600061290a8682870161285a565b935050602061291b8682870161285a565b925050604061292c868287016127a5565b9150509250925092565b61293f816128af565b811461294a57600080fd5b50565b60008135905061295c81612936565b92915050565b60006020828403121561297857612977612604565b5b60006129868482850161294d565b91505092915050565b600080604083850312156129a6576129a5612604565b5b60006129b48582860161294d565b92505060206129c58582860161285a565b9150509250929050565b6000602082840312156129e5576129e4612604565b5b60006129f38482850161285a565b91505092915050565b612a0581612784565b82525050565b6000602082019050612a2060008301846129fc565b92915050565b612a2f81612693565b8114612a3a57600080fd5b50565b600081359050612a4c81612a26565b92915050565b60008060408385031215612a6957612a68612604565b5b6000612a778582860161285a565b9250506020612a8885828601612a3d565b9150509250929050565b600080fd5b600080fd5b7f4e487b7100000000000000000000000000000000000000000000000000000000600052604160045260246000fd5b612ad482612718565b810181811067ffffffffffffffff82111715612af357612af2612a9c565b5b80604052505050565b6000612b066125fa565b9050612b128282612acb565b919050565b600067ffffffffffffffff821115612b3257612b31612a9c565b5b612b3b82612718565b9050602081019050919050565b82818337600083830152505050565b6000612b6a612b6584612b17565b612afc565b905082815260208101848484011115612b8657612b85612a97565b5b612b91848285612b48565b509392505050565b600082601f830112612bae57612bad612a92565b5b8135612bbe848260208601612b57565b91505092915050565b60008060008060808587031215612be157612be0612604565b5b6000612bef8782880161285a565b9450506020612c008782880161285a565b9350506040612c11878288016127a5565b925050606085013567ffffffffffffffff811115612c3257612c31612609565b5b612c3e87828801612b99565b91505092959194509250565b600061ffff82169050919050565b612c6181612c4a565b8114612c6c57600080fd5b50565b600081359050612c7e81612c58565b92915050565b60008060408385031215612c9b57612c9a612604565b5b6000612ca9858286016127a5565b9250506020612cba85828601612c6f565b9150509250929050565b60008060408385031215612cdb57612cda612604565b5b6000612ce98582860161285a565b9250506020612cfa8582860161285a565b9150509250929050565b7f4e487b7100000000000000000000000000000000000000000000000000000000600052602260045260246000fd5b60006002820490506001821680612d4b57607f821691505b602082108103612d5e57612d5d612d04565b5b50919050565b7f4552433732313a20617070726f76656420717565727920666f72206e6f6e657860008201527f697374656e7420746f6b656e0000000000000000000000000000000000000000602082015250565b6000612dc0602c836126d4565b9150612dcb82612d64565b604082019050919050565b60006020820190508181036000830152612def81612db3565b9050919050565b7f4552433732313a20617070726f76616c20746f2063757272656e74206f776e6560008201527f7200000000000000000000000000000000000000000000000000000000000000602082015250565b6000612e526021836126d4565b9150612e5d82612df6565b604082019050919050565b60006020820190508181036000830152612e8181612e45565b9050919050565b7f4552433732313a20617070726f76652063616c6c6572206973206e6f74206f7760008201527f6e6572206e6f7220617070726f76656420666f7220616c6c0000000000000000602082015250565b6000612ee46038836126d4565b9150612eef82612e88565b604082019050919050565b60006020820190508181036000830152612f1381612ed7565b9050919050565b7f4552433732313a207472616e736665722063616c6c6572206973206e6f74206f60008201527f776e6572206e6f7220617070726f766564000000000000000000000000000000602082015250565b6000612f766031836126d4565b9150612f8182612f1a565b604082019050919050565b60006020820190508181036000830152612fa581612f69565b9050919050565b7f416363657373436f6e74726f6c3a2063616e206f6e6c792072656e6f756e636560008201527f20726f6c657320666f722073656c660000000000000000000000000000000000602082015250565b6000613008602f836126d4565b915061301382612fac565b604082019050919050565b6000602082019050818103600083015261303781612ffb565b9050919050565b7f5061757361626c653a2070617573656400000000000000000000000000000000600082015250565b60006130746010836126d4565b915061307f8261303e565b602082019050919050565b600060208201905081810360008301526130a381613067565b9050919050565b7f4e487b7100000000000000000000000000000000000000000000000000000000600052601160045260246000fd5b60006130e482612784565b91507fffffffffffffffffffffffffffffffffffffffffffffffffffffffffffffffff8203613116576131156130aa565b5b600182019050919050565b7f4552433732313a206f776e657220717565727920666f72206e6f6e657869737460008201527f656e7420746f6b656e0000000000000000000000000000000000000000000000602082015250565b600061317d6029836126d4565b915061318882613121565b604082019050919050565b600060208201905081810360008301526131ac81613170565b9050919050565b7f4552433732313a2062616c616e636520717565727920666f7220746865207a6560008201527f726f206164647265737300000000000000000000000000000000000000000000602082015250565b600061320f602a836126d4565b915061321a826131b3565b604082019050919050565b6000602082019050818103600083015261323e81613202565b9050919050565b7f4552433732313a206f70657261746f7220717565727920666f72206e6f6e657860008201527f697374656e7420746f6b656e0000000000000000000000000000000000000000602082015250565b60006132a1602c836126d4565b91506132ac82613245565b604082019050919050565b600060208201905081810360008301526132d081613294565b9050919050565b7f4552433732313a207472616e736665722066726f6d20696e636f72726563742060008201527f6f776e6572000000000000000000000000000000000000000000000000000000602082015250565b60006133336025836126d4565b915061333e826132d7565b604082019050919050565b6000602082019050818103600083015261336281613326565b9050919050565b7f4552433732313a207472616e7366657220746f20746865207a65726f2061646460008201527f7265737300000000000000000000000000000000000000000000000000000000602082015250565b60006133c56024836126d4565b91506133d082613369565b604082019050919050565b600060208201905081810360008301526133f4816133b8565b9050919050565b600061340682612784565b915061341183612784565b925082821015613424576134236130aa565b5b828203905092915050565b600061343a82612784565b915061344583612784565b9250827fffffffffffffffffffffffffffffffffffffffffffffffffffffffffffffffff0382111561347a576134796130aa565b5b828201905092915050565b7f5061757361626c653a206e6f7420706175736564000000000000000000000000600082015250565b60006134bb6014836126d4565b91506134c682613485565b602082019050919050565b600060208201905081810360008301526134ea816134ae565b9050919050565b7f4552433732313a20617070726f766520746f2063616c6c657200000000000000600082015250565b60006135276019836126d4565b9150613532826134f1565b602082019050919050565b600060208201905081810360008301526135568161351a565b9050919050565b7f4552433732313a207472616e7366657220746f206e6f6e20455243373231526560008201527f63656976657220696d706c656d656e7465720000000000000000000000000000602082015250565b60006135b96032836126d4565b91506135c48261355d565b604082019050919050565b600060208201905081810360008301526135e8816135ac565b9050919050565b7f45524337323155524953746f726167653a2055524920717565727920666f722060008201527f6e6f6e6578697374656e7420746f6b656e000000000000000000000000000000602082015250565b600061364b6031836126d4565b9150613656826135ef565b604082019050919050565b6000602082019050818103600083015261367a8161363e565b9050919050565b600081905092915050565b6000613697826126c9565b6136a18185613681565b93506136b18185602086016126e5565b80840191505092915050565b60006136c9828561368c565b91506136d5828461368c565b91508190509392505050565b7f416363657373436f6e74726f6c3a206163636f756e7420000000000000000000600082015250565b6000613717601783613681565b9150613722826136e1565b601782019050919050565b7f206973206d697373696e6720726f6c6520000000000000000000000000000000600082015250565b6000613763601183613681565b915061376e8261372d565b601182019050919050565b60006137848261370a565b9150613790828561368c565b915061379b82613756565b91506137a7828461368c565b91508190509392505050565b600081519050919050565b600082825260208201905092915050565b60006137da826137b3565b6137e481856137be565b93506137f48185602086016126e5565b6137fd81612718565b840191505092915050565b600060808201905061381d6000830187612819565b61382a6020830186612819565b61383760408301856129fc565b818103606083015261384981846137cf565b905095945050505050565b6000815190506138638161263a565b92915050565b60006020828403121561387f5761387e612604565b5b600061388d84828501613854565b91505092915050565b7f4552433732314d657461646174613a2055524920717565727920666f72206e6f60008201527f6e6578697374656e7420746f6b656e0000000000000000000000000000000000602082015250565b60006138f2602f836126d4565b91506138fd82613896565b604082019050919050565b60006020820190508181036000830152613921816138e5565b9050919050565b600061393382612784565b915061393e83612784565b9250817fffffffffffffffffffffffffffffffffffffffffffffffffffffffffffffffff0483118215151615613977576139766130aa565b5b828202905092915050565b7f4e487b7100000000000000000000000000000000000000000000000000000000600052603260045260246000fd5b60006139bc82612784565b9150600082036139cf576139ce6130aa565b5b600182039050919050565b7f537472696e67733a20686578206c656e67746820696e73756666696369656e74600082015250565b6000613a106020836126d4565b9150613a1b826139da565b602082019050919050565b60006020820190508181036000830152613a3f81613a03565b9050919050565b7f4552433732313a206d696e7420746f20746865207a65726f2061646472657373600082015250565b6000613a7c6020836126d4565b9150613a8782613a46565b602082019050919050565b60006020820190508181036000830152613aab81613a6f565b9050919050565b7f4552433732313a20746f6b656e20616c7265616479206d696e74656400000000600082015250565b6000613ae8601c836126d4565b9150613af382613ab2565b602082019050919050565b60006020820190508181036000830152613b1781613adb565b9050919050565b7f4e487b7100000000000000000000000000000000000000000000000000000000600052601260045260246000fd5b6000613b5882612784565b9150613b6383612784565b925082613b7357613b72613b1e565b5b828204905092915050565b6000613b8982612784565b9150613b9483612784565b925082613ba457613ba3613b1e565b5b82820690509291505056fe68747470733a2f2f616c7068612d6170692e7072756e656d61726b65742e78797a3a3535322f6e66742f6974656d2f746b6d2fa2646970667358221220be78bf38fd72e67bd6b1c44bd2754f70d95b3be0707e849711bcca088013105d64736f6c634300080e0033",
  "immutableReferences": {},
  "source": "// SPDX-License-Identifier: MIT\r\n\r\npragma solidity ^0.8.14;\r\n\r\nimport \"@openzeppelin/contracts/token/ERC721/ERC721.sol\";\r\nimport \"@openzeppelin/contracts/token/ERC721/extensions/ERC721URIStorage.sol\";\r\nimport \"@openzeppelin/contracts/security/Pausable.sol\";\r\nimport \"@openzeppelin/contracts/access/AccessControl.sol\";\r\n\r\ncontract TKMNftA is ERC721, ERC721URIStorage, Pausable, AccessControl {\r\n    bytes32 public constant MINTER_ROLE = keccak256(\"MINTER_ROLE\");\r\n    bytes32 public constant HOLDER_ROLE = keccak256(\"HOLDER_ROLE\");\r\n\r\n    event NftBurn(uint256 indexed tokenId, uint16 indexed reason);\r\n\r\n    // nft token id\r\n    uint256 public nftId;\r\n\r\n    constructor(address _minter, address _holder)\r\n        ERC721(\"Three Kingdom Multiverse Nft\", \"3KMNft_A\")\r\n    {\r\n        _grantRole(DEFAULT_ADMIN_ROLE, msg.sender);\r\n        _grantRole(MINTER_ROLE, _minter);\r\n        _grantRole(HOLDER_ROLE, _holder);\r\n    }\r\n\r\n    function pause() public onlyRole(DEFAULT_ADMIN_ROLE) {\r\n        _pause();\r\n    }\r\n\r\n    function unpause() public onlyRole(DEFAULT_ADMIN_ROLE) {\r\n        _unpause();\r\n    }\r\n\r\n    function Mint(address nftOwner) external whenNotPaused onlyRole(MINTER_ROLE) returns (uint256) {\r\n        ++nftId;\r\n        _safeMint(nftOwner, nftId);\r\n        return nftId;\r\n    }\r\n\r\n    function Burn(uint256 _tokenId, uint16 reason) external whenNotPaused onlyRole(HOLDER_ROLE) {\r\n        _burn(_tokenId);\r\n        emit NftBurn(_tokenId, reason);\r\n    }\r\n\r\n    function _baseURI() internal pure override returns (string memory) {\r\n        return \"https://alpha-api.prunemarket.xyz:552/nft/item/tkm/\";\r\n    }\r\n\r\n    function _beforeTokenTransfer(\r\n        address from,\r\n        address to,\r\n        uint256 tokenId\r\n    ) internal whenNotPaused override(ERC721) {\r\n        super._beforeTokenTransfer(from, to, tokenId);\r\n    }\r\n\r\n    function _burn(uint256 tokenId)\r\n        internal\r\n        override(ERC721, ERC721URIStorage)\r\n    {\r\n        super._burn(tokenId);\r\n    }\r\n\r\n    function tokenURI(uint256 tokenId)\r\n        public\r\n        view\r\n        override(ERC721, ERC721URIStorage)\r\n        returns (string memory)\r\n    {\r\n        return super.tokenURI(tokenId);\r\n    }\r\n\r\n    function supportsInterface(bytes4 interfaceId)\r\n        public\r\n        view\r\n        override(ERC721, AccessControl)\r\n        returns (bool)\r\n    {\r\n        return super.supportsInterface(interfaceId);\r\n    }\r\n}\r\n",
  "sourcePath": "D:\\github\\solidity_tinyping\\contracts\\TKMNftA.sol",
  "compiler": {
    "name": "solc",
    "version": "0.8.14+commit.80d49f37.Emscripten.clang"
  },
  "schemaVersion": "3.4.7",
  "updatedAt": "2022-12-13T02:11:47.560Z",
  "devdoc": {
    "kind": "dev",
    "methods": {
      "approve(address,uint256)": {
        "details": "See {IERC721-approve}."
      },
      "balanceOf(address)": {
        "details": "See {IERC721-balanceOf}."
      },
      "getApproved(uint256)": {
        "details": "See {IERC721-getApproved}."
      },
      "getRoleAdmin(bytes32)": {
        "details": "Returns the admin role that controls `role`. See {grantRole} and {revokeRole}. To change a role's admin, use {_setRoleAdmin}."
      },
      "grantRole(bytes32,address)": {
        "details": "Grants `role` to `account`. If `account` had not been already granted `role`, emits a {RoleGranted} event. Requirements: - the caller must have ``role``'s admin role."
      },
      "hasRole(bytes32,address)": {
        "details": "Returns `true` if `account` has been granted `role`."
      },
      "isApprovedForAll(address,address)": {
        "details": "See {IERC721-isApprovedForAll}."
      },
      "name()": {
        "details": "See {IERC721Metadata-name}."
      },
      "ownerOf(uint256)": {
        "details": "See {IERC721-ownerOf}."
      },
      "paused()": {
        "details": "Returns true if the contract is paused, and false otherwise."
      },
      "renounceRole(bytes32,address)": {
        "details": "Revokes `role` from the calling account. Roles are often managed via {grantRole} and {revokeRole}: this function's purpose is to provide a mechanism for accounts to lose their privileges if they are compromised (such as when a trusted device is misplaced). If the calling account had been revoked `role`, emits a {RoleRevoked} event. Requirements: - the caller must be `account`."
      },
      "revokeRole(bytes32,address)": {
        "details": "Revokes `role` from `account`. If `account` had been granted `role`, emits a {RoleRevoked} event. Requirements: - the caller must have ``role``'s admin role."
      },
      "safeTransferFrom(address,address,uint256)": {
        "details": "See {IERC721-safeTransferFrom}."
      },
      "safeTransferFrom(address,address,uint256,bytes)": {
        "details": "See {IERC721-safeTransferFrom}."
      },
      "setApprovalForAll(address,bool)": {
        "details": "See {IERC721-setApprovalForAll}."
      },
      "symbol()": {
        "details": "See {IERC721Metadata-symbol}."
      },
      "transferFrom(address,address,uint256)": {
        "details": "See {IERC721-transferFrom}."
      }
    },
    "version": 1
  },
  "userdoc": {
    "kind": "user",
    "methods": {},
    "version": 1
  }
}