{
  "contractName": "TKMMarketTkmA",
  "abi": [
    {
      "inputs": [
        {
          "internalType": "address",
          "name": "_TokenContract",
          "type": "address"
        },
        {
          "internalType": "address",
          "name": "_NFTContract",
          "type": "address"
        },
        {
          "internalType": "address",
          "name": "_holder",
          "type": "address"
        },
        {
          "internalType": "address[2]",
          "name": "_feeOwner",
          "type": "address[2]"
        }
      ],
      "stateMutability": "nonpayable",
      "type": "constructor"
    },
    {
      "anonymous": false,
      "inputs": [
        {
          "indexed": true,
          "internalType": "address",
          "name": "from",
          "type": "address"
        },
        {
          "indexed": true,
          "internalType": "uint256",
          "name": "tokenId",
          "type": "uint256"
        },
        {
          "indexed": false,
          "internalType": "uint256",
          "name": "price",
          "type": "uint256"
        },
        {
          "indexed": false,
          "internalType": "uint256",
          "name": "listingIdx",
          "type": "uint256"
        }
      ],
      "name": "Cancel",
      "type": "event"
    },
    {
      "anonymous": false,
      "inputs": [
        {
          "indexed": true,
          "internalType": "address",
          "name": "from",
          "type": "address"
        },
        {
          "indexed": true,
          "internalType": "uint256",
          "name": "tokenId",
          "type": "uint256"
        },
        {
          "indexed": false,
          "internalType": "uint256",
          "name": "price",
          "type": "uint256"
        },
        {
          "indexed": false,
          "internalType": "uint256",
          "name": "listingIdx",
          "type": "uint256"
        }
      ],
      "name": "Listing",
      "type": "event"
    },
    {
      "anonymous": false,
      "inputs": [
        {
          "indexed": true,
          "internalType": "address",
          "name": "from",
          "type": "address"
        },
        {
          "indexed": false,
          "internalType": "uint256",
          "name": "itemId",
          "type": "uint256"
        },
        {
          "indexed": false,
          "internalType": "uint256",
          "name": "amount",
          "type": "uint256"
        },
        {
          "indexed": false,
          "internalType": "uint256",
          "name": "price",
          "type": "uint256"
        },
        {
          "indexed": false,
          "internalType": "uint256",
          "name": "listingIdx",
          "type": "uint256"
        }
      ],
      "name": "ListingItem",
      "type": "event"
    },
    {
      "anonymous": false,
      "inputs": [
        {
          "indexed": true,
          "internalType": "address",
          "name": "previousOwner",
          "type": "address"
        },
        {
          "indexed": true,
          "internalType": "address",
          "name": "newOwner",
          "type": "address"
        }
      ],
      "name": "OwnershipTransferred",
      "type": "event"
    },
    {
      "anonymous": false,
      "inputs": [
        {
          "indexed": false,
          "internalType": "address",
          "name": "account",
          "type": "address"
        }
      ],
      "name": "Paused",
      "type": "event"
    },
    {
      "anonymous": false,
      "inputs": [
        {
          "indexed": true,
          "internalType": "address",
          "name": "from",
          "type": "address"
        },
        {
          "indexed": true,
          "internalType": "address",
          "name": "to",
          "type": "address"
        },
        {
          "indexed": true,
          "internalType": "uint256",
          "name": "tokenId",
          "type": "uint256"
        },
        {
          "indexed": false,
          "internalType": "uint256",
          "name": "price",
          "type": "uint256"
        },
        {
          "indexed": false,
          "internalType": "uint256",
          "name": "listingIdx",
          "type": "uint256"
        }
      ],
      "name": "Sell",
      "type": "event"
    },
    {
      "anonymous": false,
      "inputs": [
        {
          "indexed": false,
          "internalType": "address",
          "name": "account",
          "type": "address"
        }
      ],
      "name": "Unpaused",
      "type": "event"
    },
    {
      "inputs": [],
      "name": "NFTContract_",
      "outputs": [
        {
          "internalType": "contract ERC721",
          "name": "",
          "type": "address"
        }
      ],
      "stateMutability": "view",
      "type": "function",
      "constant": true
    },
    {
      "inputs": [],
      "name": "TokenContract_",
      "outputs": [
        {
          "internalType": "contract ERC20",
          "name": "",
          "type": "address"
        }
      ],
      "stateMutability": "view",
      "type": "function",
      "constant": true
    },
    {
      "inputs": [
        {
          "internalType": "uint256",
          "name": "_listingIdx",
          "type": "uint256"
        }
      ],
      "name": "cancelForce",
      "outputs": [],
      "stateMutability": "nonpayable",
      "type": "function"
    },
    {
      "inputs": [
        {
          "internalType": "uint256",
          "name": "",
          "type": "uint256"
        }
      ],
      "name": "feeOwner_",
      "outputs": [
        {
          "internalType": "address",
          "name": "",
          "type": "address"
        }
      ],
      "stateMutability": "view",
      "type": "function",
      "constant": true
    },
    {
      "inputs": [
        {
          "internalType": "uint256",
          "name": "",
          "type": "uint256"
        }
      ],
      "name": "fee_",
      "outputs": [
        {
          "internalType": "uint256",
          "name": "",
          "type": "uint256"
        }
      ],
      "stateMutability": "view",
      "type": "function",
      "constant": true
    },
    {
      "inputs": [],
      "name": "holder_",
      "outputs": [
        {
          "internalType": "address",
          "name": "",
          "type": "address"
        }
      ],
      "stateMutability": "view",
      "type": "function",
      "constant": true
    },
    {
      "inputs": [],
      "name": "listingIdx",
      "outputs": [
        {
          "internalType": "uint256",
          "name": "",
          "type": "uint256"
        }
      ],
      "stateMutability": "view",
      "type": "function",
      "constant": true
    },
    {
      "inputs": [],
      "name": "owner",
      "outputs": [
        {
          "internalType": "address",
          "name": "",
          "type": "address"
        }
      ],
      "stateMutability": "view",
      "type": "function",
      "constant": true
    },
    {
      "inputs": [],
      "name": "pause",
      "outputs": [],
      "stateMutability": "nonpayable",
      "type": "function"
    },
    {
      "inputs": [],
      "name": "paused",
      "outputs": [
        {
          "internalType": "bool",
          "name": "",
          "type": "bool"
        }
      ],
      "stateMutability": "view",
      "type": "function",
      "constant": true
    },
    {
      "inputs": [],
      "name": "renounceOwnership",
      "outputs": [],
      "stateMutability": "nonpayable",
      "type": "function"
    },
    {
      "inputs": [
        {
          "internalType": "uint256",
          "name": "",
          "type": "uint256"
        }
      ],
      "name": "sellItems",
      "outputs": [
        {
          "internalType": "uint256",
          "name": "tokenId",
          "type": "uint256"
        },
        {
          "internalType": "uint256",
          "name": "price",
          "type": "uint256"
        },
        {
          "internalType": "address",
          "name": "tokenOwner",
          "type": "address"
        }
      ],
      "stateMutability": "view",
      "type": "function",
      "constant": true
    },
    {
      "inputs": [
        {
          "internalType": "uint8",
          "name": "index",
          "type": "uint8"
        },
        {
          "internalType": "uint256",
          "name": "_fee",
          "type": "uint256"
        }
      ],
      "name": "setFee",
      "outputs": [],
      "stateMutability": "nonpayable",
      "type": "function"
    },
    {
      "inputs": [
        {
          "internalType": "uint8",
          "name": "index",
          "type": "uint8"
        },
        {
          "internalType": "address",
          "name": "_feeOwner",
          "type": "address"
        }
      ],
      "name": "setFeeOwner",
      "outputs": [],
      "stateMutability": "nonpayable",
      "type": "function"
    },
    {
      "inputs": [
        {
          "internalType": "address",
          "name": "newOwner",
          "type": "address"
        }
      ],
      "name": "transferOwnership",
      "outputs": [],
      "stateMutability": "nonpayable",
      "type": "function"
    },
    {
      "inputs": [],
      "name": "unpause",
      "outputs": [],
      "stateMutability": "nonpayable",
      "type": "function"
    },
    {
      "inputs": [
        {
          "internalType": "uint256",
          "name": "tokenId",
          "type": "uint256"
        },
        {
          "internalType": "uint256",
          "name": "price",
          "type": "uint256"
        }
      ],
      "name": "listing",
      "outputs": [],
      "stateMutability": "nonpayable",
      "type": "function"
    },
    {
      "inputs": [
        {
          "internalType": "uint256",
          "name": "itemId",
          "type": "uint256"
        },
        {
          "internalType": "uint256",
          "name": "amount",
          "type": "uint256"
        },
        {
          "internalType": "uint256",
          "name": "price",
          "type": "uint256"
        }
      ],
      "name": "listingItem",
      "outputs": [],
      "stateMutability": "nonpayable",
      "type": "function"
    },
    {
      "inputs": [
        {
          "internalType": "uint256",
          "name": "_listingIdx",
          "type": "uint256"
        }
      ],
      "name": "cancel",
      "outputs": [],
      "stateMutability": "nonpayable",
      "type": "function"
    },
    {
      "inputs": [
        {
          "internalType": "uint256",
          "name": "_listingIdx",
          "type": "uint256"
        }
      ],
      "name": "sell",
      "outputs": [],
      "stateMutability": "payable",
      "type": "function",
      "payable": true
    }
  ],
  "bytecode": "0x60806040523480156200001157600080fd5b506040516200395a3803806200395a83398181016040528101906200003791906200050e565b8383838360008060006101000a81548160ff02191690831515021790555062000075620000696200026a60201b60201c565b6200027260201b60201c565b83600160006101000a81548173ffffffffffffffffffffffffffffffffffffffff021916908373ffffffffffffffffffffffffffffffffffffffff16021790555082600260006101000a81548173ffffffffffffffffffffffffffffffffffffffff021916908373ffffffffffffffffffffffffffffffffffffffff16021790555081600360006101000a81548173ffffffffffffffffffffffffffffffffffffffff021916908373ffffffffffffffffffffffffffffffffffffffff1602179055506019600560006002811062000152576200015162000580565b5b0181905550604b600560016002811062000171576200017062000580565b5b0181905550806000600281106200018d576200018c62000580565b5b60200201516007600060028110620001aa57620001a962000580565b5b0160006101000a81548173ffffffffffffffffffffffffffffffffffffffff021916908373ffffffffffffffffffffffffffffffffffffffff160217905550806001600281106200020057620001ff62000580565b5b602002015160076001600281106200021d576200021c62000580565b5b0160006101000a81548173ffffffffffffffffffffffffffffffffffffffff021916908373ffffffffffffffffffffffffffffffffffffffff1602179055505050505050505050620005af565b600033905090565b60008060019054906101000a900473ffffffffffffffffffffffffffffffffffffffff16905081600060016101000a81548173ffffffffffffffffffffffffffffffffffffffff021916908373ffffffffffffffffffffffffffffffffffffffff1602179055508173ffffffffffffffffffffffffffffffffffffffff168173ffffffffffffffffffffffffffffffffffffffff167f8be0079c531659141344cd1fd0a4f28419497f9722a3daafe3b4186f6b6457e060405160405180910390a35050565b6000604051905090565b600080fd5b600073ffffffffffffffffffffffffffffffffffffffff82169050919050565b6000620003738262000346565b9050919050565b620003858162000366565b81146200039157600080fd5b50565b600081519050620003a5816200037a565b92915050565b600080fd5b6000601f19601f8301169050919050565b7f4e487b7100000000000000000000000000000000000000000000000000000000600052604160045260246000fd5b620003fb82620003b0565b810181811067ffffffffffffffff821117156200041d576200041c620003c1565b5b80604052505050565b60006200043262000337565b9050620004408282620003f0565b919050565b600067ffffffffffffffff821115620004635762000462620003c1565b5b602082029050919050565b600080fd5b60006200048a620004848462000445565b62000426565b90508060208402830185811115620004a757620004a66200046e565b5b835b81811015620004d45780620004bf888262000394565b845260208401935050602081019050620004a9565b5050509392505050565b600082601f830112620004f657620004f5620003ab565b5b60026200050584828562000473565b91505092915050565b60008060008060a085870312156200052b576200052a62000341565b5b60006200053b8782880162000394565b94505060206200054e8782880162000394565b9350506040620005618782880162000394565b92505060606200057487828801620004de565b91505092959194509250565b7f4e487b7100000000000000000000000000000000000000000000000000000000600052603260045260246000fd5b61339b80620005bf6000396000f3fe60806040526004361061011f5760003560e01c80637f6d6df9116100a0578063ad8e653e11610064578063ad8e653e1461039b578063b2742961146103c6578063d2965181146103f1578063e4849b321461041a578063f2fde38b146104365761011f565b80637f6d6df9146102dc5780638456cb591461030557806386f9258e1461031c5780638c6aa3f5146103475780638da5cb5b146103705761011f565b80635c33bd56116100e75780635c33bd56146102095780635c975abb1461024657806363b6c8bd14610271578063645509341461029a578063715018a6146102c55761011f565b806308edded21461012457806317e50ef3146101615780633452195a146101a05780633f4ba83a146101c957806340e58ee5146101e0575b600080fd5b34801561013057600080fd5b5061014b6004803603810190610146919061220c565b61045f565b6040516101589190612248565b60405180910390f35b34801561016d57600080fd5b506101886004803603810190610183919061220c565b61047a565b604051610197939291906122a4565b60405180910390f35b3480156101ac57600080fd5b506101c760048036038101906101c291906122db565b6104c4565b005b3480156101d557600080fd5b506101de6105bb565b005b3480156101ec57600080fd5b506102076004803603810190610202919061220c565b610641565b005b34801561021557600080fd5b50610230600480360381019061022b919061220c565b6106d6565b60405161023d919061232e565b60405180910390f35b34801561025257600080fd5b5061025b61070c565b6040516102689190612364565b60405180910390f35b34801561027d57600080fd5b506102986004803603810190610293919061220c565b610722565b005b3480156102a657600080fd5b506102af610965565b6040516102bc9190612248565b60405180910390f35b3480156102d157600080fd5b506102da61096b565b005b3480156102e857600080fd5b5061030360048036038101906102fe919061237f565b6109f3565b005b34801561031157600080fd5b5061031a610ae5565b005b34801561032857600080fd5b50610331610b6b565b60405161033e919061241e565b60405180910390f35b34801561035357600080fd5b5061036e60048036038101906103699190612472565b610b91565b005b34801561037c57600080fd5b50610385610c2e565b604051610392919061232e565b60405180910390f35b3480156103a757600080fd5b506103b0610c57565b6040516103bd919061232e565b60405180910390f35b3480156103d257600080fd5b506103db610c7d565b6040516103e891906124d3565b60405180910390f35b3480156103fd57600080fd5b506104186004803603810190610413919061251a565b610ca3565b005b610434600480360381019061042f919061220c565b610d7a565b005b34801561044257600080fd5b5061045d6004803603810190610458919061255a565b610ea5565b005b6005816002811061046f57600080fd5b016000915090505481565b60096020528060005260406000206000915090508060000154908060010154908060020160009054906101000a900473ffffffffffffffffffffffffffffffffffffffff16905083565b60008111610507576040517f08c379a00000000000000000000000000000000000000000000000000000000081526004016104fe9061260a565b60405180910390fd5b6a084595161401484a000000811115610555576040517f08c379a000000000000000000000000000000000000000000000000000000000815260040161054c9061269c565b60405180910390fd5b610560838383610f9c565b3373ffffffffffffffffffffffffffffffffffffffff167f077d323e7757933f5680780579c5143eb0c26d4d14f80eb52209043dc9dffede8484846004546040516105ae94939291906126bc565b60405180910390a2505050565b6105c361106f565b73ffffffffffffffffffffffffffffffffffffffff166105e1610c2e565b73ffffffffffffffffffffffffffffffffffffffff1614610637576040517f08c379a000000000000000000000000000000000000000000000000000000000815260040161062e9061274d565b60405180910390fd5b61063f611077565b565b60006009600083815260200190815260200160002060000154905060006009600084815260200190815260200160002060010154905061068083611118565b813373ffffffffffffffffffffffffffffffffffffffff167f49f50fca4a590bc780b00eea7d6be105e57280946507e6075bc777b9645d6d0383866040516106c992919061276d565b60405180910390a3505050565b600781600281106106e657600080fd5b016000915054906101000a900473ffffffffffffffffffffffffffffffffffffffff1681565b60008060009054906101000a900460ff16905090565b61072a61106f565b73ffffffffffffffffffffffffffffffffffffffff16610748610c2e565b73ffffffffffffffffffffffffffffffffffffffff161461079e576040517f08c379a00000000000000000000000000000000000000000000000000000000081526004016107959061274d565b60405180910390fd5b60096000828152602001908152602001600020600101546000106107f7576040517f08c379a00000000000000000000000000000000000000000000000000000000081526004016107ee90612808565b60405180910390fd5b600060096000838152602001908152602001600020600001541461091557600260009054906101000a900473ffffffffffffffffffffffffffffffffffffffff1673ffffffffffffffffffffffffffffffffffffffff166342842e0e600360009054906101000a900473ffffffffffffffffffffffffffffffffffffffff166009600085815260200190815260200160002060020160009054906101000a900473ffffffffffffffffffffffffffffffffffffffff1660096000868152602001908152602001600020600001546040518463ffffffff1660e01b81526004016108e293929190612828565b600060405180830381600087803b1580156108fc57600080fd5b505af1158015610910573d6000803e3d6000fd5b505050505b6009600082815260200190815260200160002060008082016000905560018201600090556002820160006101000a81549073ffffffffffffffffffffffffffffffffffffffff0219169055505050565b60045481565b61097361106f565b73ffffffffffffffffffffffffffffffffffffffff16610991610c2e565b73ffffffffffffffffffffffffffffffffffffffff16146109e7576040517f08c379a00000000000000000000000000000000000000000000000000000000081526004016109de9061274d565b60405180910390fd5b6109f16000611395565b565b60008111610a36576040517f08c379a0000000000000000000000000000000000000000000000000000000008152600401610a2d906128d1565b60405180910390fd5b6a084595161401484a000000811115610a84576040517f08c379a0000000000000000000000000000000000000000000000000000000008152600401610a7b90612963565b60405180910390fd5b610a8e828261145a565b813373ffffffffffffffffffffffffffffffffffffffff167f1cca8fbe2aeed62da3196c51f5ed97d57ce94ec62a6fcd743eb85c7ce68d88fb83600454604051610ad992919061276d565b60405180910390a35050565b610aed61106f565b73ffffffffffffffffffffffffffffffffffffffff16610b0b610c2e565b73ffffffffffffffffffffffffffffffffffffffff1614610b61576040517f08c379a0000000000000000000000000000000000000000000000000000000008152600401610b589061274d565b60405180910390fd5b610b696117c4565b565b600260009054906101000a900473ffffffffffffffffffffffffffffffffffffffff1681565b610b9961106f565b73ffffffffffffffffffffffffffffffffffffffff16610bb7610c2e565b73ffffffffffffffffffffffffffffffffffffffff1614610c0d576040517f08c379a0000000000000000000000000000000000000000000000000000000008152600401610c049061274d565b60405180910390fd5b8060058360ff1660028110610c2557610c24612983565b5b01819055505050565b60008060019054906101000a900473ffffffffffffffffffffffffffffffffffffffff16905090565b600360009054906101000a900473ffffffffffffffffffffffffffffffffffffffff1681565b600160009054906101000a900473ffffffffffffffffffffffffffffffffffffffff1681565b610cab61106f565b73ffffffffffffffffffffffffffffffffffffffff16610cc9610c2e565b73ffffffffffffffffffffffffffffffffffffffff1614610d1f576040517f08c379a0000000000000000000000000000000000000000000000000000000008152600401610d169061274d565b60405180910390fd5b8060078360ff1660028110610d3757610d36612983565b5b0160006101000a81548173ffffffffffffffffffffffffffffffffffffffff021916908373ffffffffffffffffffffffffffffffffffffffff1602179055505050565b60006009600083815260200190815260200160002060010154905080600010610dd8576040517f08c379a0000000000000000000000000000000000000000000000000000000008152600401610dcf906129fe565b60405180910390fd5b60006009600084815260200190815260200160002060020160009054906101000a900473ffffffffffffffffffffffffffffffffffffffff169050600060096000858152602001908152602001600020600001549050610e3784611866565b803373ffffffffffffffffffffffffffffffffffffffff168373ffffffffffffffffffffffffffffffffffffffff167f01fbb57444511e3de5b26ac09ad6bec45c3f9a1e59dd4a0f2b13a240d18476ce8688604051610e9792919061276d565b60405180910390a450505050565b610ead61106f565b73ffffffffffffffffffffffffffffffffffffffff16610ecb610c2e565b73ffffffffffffffffffffffffffffffffffffffff1614610f21576040517f08c379a0000000000000000000000000000000000000000000000000000000008152600401610f189061274d565b60405180910390fd5b600073ffffffffffffffffffffffffffffffffffffffff168173ffffffffffffffffffffffffffffffffffffffff1603610f90576040517f08c379a0000000000000000000000000000000000000000000000000000000008152600401610f8790612a90565b60405180910390fd5b610f9981611395565b50565b610fa461070c565b15610fe4576040517f08c379a0000000000000000000000000000000000000000000000000000000008152600401610fdb90612afc565b60405180910390fd5b600460008154610ff390612b4b565b919050819055506000600960006004548152602001908152602001600020905060008160000181905550818160010181905550338160020160006101000a81548173ffffffffffffffffffffffffffffffffffffffff021916908373ffffffffffffffffffffffffffffffffffffffff16021790555050505050565b600033905090565b61107f61070c565b6110be576040517f08c379a00000000000000000000000000000000000000000000000000000000081526004016110b590612bdf565b60405180910390fd5b60008060006101000a81548160ff0219169083151502179055507f5db9ee0a495bf2e6ff9c91a7834c1ba4fdd244a5e8aa4e537bd38aeae4b073aa61110161106f565b60405161110e919061232e565b60405180910390a1565b61112061070c565b15611160576040517f08c379a000000000000000000000000000000000000000000000000000000000815260040161115790612afc565b60405180910390fd5b60096000828152602001908152602001600020600101546000106111b9576040517f08c379a00000000000000000000000000000000000000000000000000000000081526004016111b090612c4b565b60405180910390fd5b6009600082815260200190815260200160002060020160009054906101000a900473ffffffffffffffffffffffffffffffffffffffff1673ffffffffffffffffffffffffffffffffffffffff163373ffffffffffffffffffffffffffffffffffffffff161461125d576040517f08c379a000000000000000000000000000000000000000000000000000000000815260040161125490612cb7565b60405180910390fd5b600060096000838152602001908152602001600020600001541461134557600260009054906101000a900473ffffffffffffffffffffffffffffffffffffffff1673ffffffffffffffffffffffffffffffffffffffff166342842e0e600360009054906101000a900473ffffffffffffffffffffffffffffffffffffffff163360096000868152602001908152602001600020600001546040518463ffffffff1660e01b815260040161131293929190612828565b600060405180830381600087803b15801561132c57600080fd5b505af1158015611340573d6000803e3d6000fd5b505050505b6009600082815260200190815260200160002060008082016000905560018201600090556002820160006101000a81549073ffffffffffffffffffffffffffffffffffffffff0219169055505050565b60008060019054906101000a900473ffffffffffffffffffffffffffffffffffffffff16905081600060016101000a81548173ffffffffffffffffffffffffffffffffffffffff021916908373ffffffffffffffffffffffffffffffffffffffff1602179055508173ffffffffffffffffffffffffffffffffffffffff168173ffffffffffffffffffffffffffffffffffffffff167f8be0079c531659141344cd1fd0a4f28419497f9722a3daafe3b4186f6b6457e060405160405180910390a35050565b61146261070c565b156114a2576040517f08c379a000000000000000000000000000000000000000000000000000000000815260040161149990612afc565b60405180910390fd5b600260009054906101000a900473ffffffffffffffffffffffffffffffffffffffff1673ffffffffffffffffffffffffffffffffffffffff16636352211e836040518263ffffffff1660e01b81526004016114fd9190612248565b602060405180830381865afa15801561151a573d6000803e3d6000fd5b505050506040513d601f19601f8201168201806040525081019061153e9190612cec565b73ffffffffffffffffffffffffffffffffffffffff163373ffffffffffffffffffffffffffffffffffffffff16146115ab576040517f08c379a00000000000000000000000000000000000000000000000000000000081526004016115a290612d8b565b60405180910390fd5b600260009054906101000a900473ffffffffffffffffffffffffffffffffffffffff1673ffffffffffffffffffffffffffffffffffffffff1663e985e9c533306040518363ffffffff1660e01b8152600401611608929190612dab565b602060405180830381865afa158015611625573d6000803e3d6000fd5b505050506040513d601f19601f820116820180604052508101906116499190612e00565b611688576040517f08c379a000000000000000000000000000000000000000000000000000000000815260040161167f90612e9f565b60405180910390fd5b600260009054906101000a900473ffffffffffffffffffffffffffffffffffffffff1673ffffffffffffffffffffffffffffffffffffffff166342842e0e33600360009054906101000a900473ffffffffffffffffffffffffffffffffffffffff16856040518463ffffffff1660e01b815260040161170993929190612828565b600060405180830381600087803b15801561172357600080fd5b505af1158015611737573d6000803e3d6000fd5b5050505060046000815461174a90612b4b565b9190508190555060006009600060045481526020019081526020016000209050828160000181905550818160010181905550338160020160006101000a81548173ffffffffffffffffffffffffffffffffffffffff021916908373ffffffffffffffffffffffffffffffffffffffff160217905550505050565b6117cc61070c565b1561180c576040517f08c379a000000000000000000000000000000000000000000000000000000000815260040161180390612afc565b60405180910390fd5b60016000806101000a81548160ff0219169083151502179055507f62e78cea01bee320cd4e420270b5ea74000d11b0c9f74754ebdbfc544b05a25861184f61106f565b60405161185c919061232e565b60405180910390a1565b61186e61070c565b156118ae576040517f08c379a00000000000000000000000000000000000000000000000000000000081526004016118a590612afc565b60405180910390fd5b6009600082815260200190815260200160002060010154600010611907576040517f08c379a00000000000000000000000000000000000000000000000000000000081526004016118fe906129fe565b60405180910390fd5b6009600082815260200190815260200160002060020160009054906101000a900473ffffffffffffffffffffffffffffffffffffffff1673ffffffffffffffffffffffffffffffffffffffff163373ffffffffffffffffffffffffffffffffffffffff16036119ab576040517f08c379a00000000000000000000000000000000000000000000000000000000081526004016119a290612f0b565b60405180910390fd5b6009600082815260200190815260200160002060010154600160009054906101000a900473ffffffffffffffffffffffffffffffffffffffff1673ffffffffffffffffffffffffffffffffffffffff166370a08231336040518263ffffffff1660e01b8152600401611a1d919061232e565b602060405180830381865afa158015611a3a573d6000803e3d6000fd5b505050506040513d601f19601f82011682018060405250810190611a5e9190612f40565b1015611a9f576040517f08c379a0000000000000000000000000000000000000000000000000000000008152600401611a9690612fb9565b60405180910390fd5b6009600082815260200190815260200160002060010154600160009054906101000a900473ffffffffffffffffffffffffffffffffffffffff1673ffffffffffffffffffffffffffffffffffffffff1663dd62ed3e33306040518363ffffffff1660e01b8152600401611b13929190612dab565b602060405180830381865afa158015611b30573d6000803e3d6000fd5b505050506040513d601f19601f82011682018060405250810190611b549190612f40565b1015611b95576040517f08c379a0000000000000000000000000000000000000000000000000000000008152600401611b8c9061304b565b60405180910390fd5b611b9d6121af565b6103e86005600060028110611bb557611bb4612983565b5b01546009600085815260200190815260200160002060010154611bd8919061306b565b611be291906130f4565b81600060028110611bf657611bf5612983565b5b6020020181815250506103e86005600160028110611c1757611c16612983565b5b01546009600085815260200190815260200160002060010154611c3a919061306b565b611c4491906130f4565b81600160028110611c5857611c57612983565b5b60200201818152505080600060028110611c7557611c74612983565b5b602002015160001015611db257600160009054906101000a900473ffffffffffffffffffffffffffffffffffffffff1673ffffffffffffffffffffffffffffffffffffffff166323b872dd336007600060028110611cd657611cd5612983565b5b0160009054906101000a900473ffffffffffffffffffffffffffffffffffffffff1684600060028110611d0c57611d0b612983565b5b60200201516040518463ffffffff1660e01b8152600401611d2f93929190612828565b6020604051808303816000875af1158015611d4e573d6000803e3d6000fd5b505050506040513d601f19601f82011682018060405250810190611d729190612e00565b611db1576040517f08c379a0000000000000000000000000000000000000000000000000000000008152600401611da890613197565b60405180910390fd5b5b80600160028110611dc657611dc5612983565b5b602002015160001015611f0357600160009054906101000a900473ffffffffffffffffffffffffffffffffffffffff1673ffffffffffffffffffffffffffffffffffffffff166323b872dd336007600160028110611e2757611e26612983565b5b0160009054906101000a900473ffffffffffffffffffffffffffffffffffffffff1684600160028110611e5d57611e5c612983565b5b60200201516040518463ffffffff1660e01b8152600401611e8093929190612828565b6020604051808303816000875af1158015611e9f573d6000803e3d6000fd5b505050506040513d601f19601f82011682018060405250810190611ec39190612e00565b611f02576040517f08c379a0000000000000000000000000000000000000000000000000000000008152600401611ef990613229565b60405180910390fd5b5b600160009054906101000a900473ffffffffffffffffffffffffffffffffffffffff1673ffffffffffffffffffffffffffffffffffffffff166323b872dd336009600086815260200190815260200160002060020160009054906101000a900473ffffffffffffffffffffffffffffffffffffffff1684600160028110611f8d57611f8c612983565b5b602002015185600060028110611fa657611fa5612983565b5b6020020151611fb59190613249565b6009600088815260200190815260200160002060010154611fd6919061329f565b6040518463ffffffff1660e01b8152600401611ff493929190612828565b6020604051808303816000875af1158015612013573d6000803e3d6000fd5b505050506040513d601f19601f820116820180604052508101906120379190612e00565b612076576040517f08c379a000000000000000000000000000000000000000000000000000000000815260040161206d90613345565b60405180910390fd5b600060096000848152602001908152602001600020600001541461215e57600260009054906101000a900473ffffffffffffffffffffffffffffffffffffffff1673ffffffffffffffffffffffffffffffffffffffff166342842e0e600360009054906101000a900473ffffffffffffffffffffffffffffffffffffffff163360096000878152602001908152602001600020600001546040518463ffffffff1660e01b815260040161212b93929190612828565b600060405180830381600087803b15801561214557600080fd5b505af1158015612159573d6000803e3d6000fd5b505050505b6009600083815260200190815260200160002060008082016000905560018201600090556002820160006101000a81549073ffffffffffffffffffffffffffffffffffffffff021916905550505050565b6040518060400160405280600290602082028036833780820191505090505090565b600080fd5b6000819050919050565b6121e9816121d6565b81146121f457600080fd5b50565b600081359050612206816121e0565b92915050565b600060208284031215612222576122216121d1565b5b6000612230848285016121f7565b91505092915050565b612242816121d6565b82525050565b600060208201905061225d6000830184612239565b92915050565b600073ffffffffffffffffffffffffffffffffffffffff82169050919050565b600061228e82612263565b9050919050565b61229e81612283565b82525050565b60006060820190506122b96000830186612239565b6122c66020830185612239565b6122d36040830184612295565b949350505050565b6000806000606084860312156122f4576122f36121d1565b5b6000612302868287016121f7565b9350506020612313868287016121f7565b9250506040612324868287016121f7565b9150509250925092565b60006020820190506123436000830184612295565b92915050565b60008115159050919050565b61235e81612349565b82525050565b60006020820190506123796000830184612355565b92915050565b60008060408385031215612396576123956121d1565b5b60006123a4858286016121f7565b92505060206123b5858286016121f7565b9150509250929050565b6000819050919050565b60006123e46123df6123da84612263565b6123bf565b612263565b9050919050565b60006123f6826123c9565b9050919050565b6000612408826123eb565b9050919050565b612418816123fd565b82525050565b6000602082019050612433600083018461240f565b92915050565b600060ff82169050919050565b61244f81612439565b811461245a57600080fd5b50565b60008135905061246c81612446565b92915050565b60008060408385031215612489576124886121d1565b5b60006124978582860161245d565b92505060206124a8858286016121f7565b9150509250929050565b60006124bd826123eb565b9050919050565b6124cd816124b2565b82525050565b60006020820190506124e860008301846124c4565b92915050565b6124f781612283565b811461250257600080fd5b50565b600081359050612514816124ee565b92915050565b60008060408385031215612531576125306121d1565b5b600061253f8582860161245d565b925050602061255085828601612505565b9150509250929050565b6000602082840312156125705761256f6121d1565b5b600061257e84828501612505565b91505092915050565b600082825260208201905092915050565b7f6c697374696e674974656d3a207072696365206d75737420677265617465722060008201527f7468616e207a65726f0000000000000000000000000000000000000000000000602082015250565b60006125f4602983612587565b91506125ff82612598565b604082019050919050565b60006020820190508181036000830152612623816125e7565b9050919050565b7f6c697374696e674974656d3a207072696365206d757374206c6573732074686160008201527f6e203130206d696c6c696f6e0000000000000000000000000000000000000000602082015250565b6000612686602c83612587565b91506126918261262a565b604082019050919050565b600060208201905081810360008301526126b581612679565b9050919050565b60006080820190506126d16000830187612239565b6126de6020830186612239565b6126eb6040830185612239565b6126f86060830184612239565b95945050505050565b7f4f776e61626c653a2063616c6c6572206973206e6f7420746865206f776e6572600082015250565b6000612737602083612587565b915061274282612701565b602082019050919050565b600060208201905081810360008301526127668161272a565b9050919050565b60006040820190506127826000830185612239565b61278f6020830184612239565b9392505050565b7f63616e63656c466f7263653a206e6f7420657869737420696e2073656c6c206960008201527f74656d7300000000000000000000000000000000000000000000000000000000602082015250565b60006127f2602483612587565b91506127fd82612796565b604082019050919050565b60006020820190508181036000830152612821816127e5565b9050919050565b600060608201905061283d6000830186612295565b61284a6020830185612295565b6128576040830184612239565b949350505050565b7f6c697374696e673a207072696365206d7573742067726561746572207468616e60008201527f207a65726f000000000000000000000000000000000000000000000000000000602082015250565b60006128bb602583612587565b91506128c68261285f565b604082019050919050565b600060208201905081810360008301526128ea816128ae565b9050919050565b7f6c697374696e673a207072696365206d757374206c657373207468616e20313060008201527f206d696c6c696f6e000000000000000000000000000000000000000000000000602082015250565b600061294d602883612587565b9150612958826128f1565b604082019050919050565b6000602082019050818103600083015261297c81612940565b9050919050565b7f4e487b7100000000000000000000000000000000000000000000000000000000600052603260045260246000fd5b7f73656c6c3a206e6f7420657869737420696e2073656c6c206974656d73000000600082015250565b60006129e8601d83612587565b91506129f3826129b2565b602082019050919050565b60006020820190508181036000830152612a17816129db565b9050919050565b7f4f776e61626c653a206e6577206f776e657220697320746865207a65726f206160008201527f6464726573730000000000000000000000000000000000000000000000000000602082015250565b6000612a7a602683612587565b9150612a8582612a1e565b604082019050919050565b60006020820190508181036000830152612aa981612a6d565b9050919050565b7f5061757361626c653a2070617573656400000000000000000000000000000000600082015250565b6000612ae6601083612587565b9150612af182612ab0565b602082019050919050565b60006020820190508181036000830152612b1581612ad9565b9050919050565b7f4e487b7100000000000000000000000000000000000000000000000000000000600052601160045260246000fd5b6000612b56826121d6565b91507fffffffffffffffffffffffffffffffffffffffffffffffffffffffffffffffff8203612b8857612b87612b1c565b5b600182019050919050565b7f5061757361626c653a206e6f7420706175736564000000000000000000000000600082015250565b6000612bc9601483612587565b9150612bd482612b93565b602082019050919050565b60006020820190508181036000830152612bf881612bbc565b9050919050565b7f63616e63656c3a206e6f7420657869737420696e2073656c6c206974656d7300600082015250565b6000612c35601f83612587565b9150612c4082612bff565b602082019050919050565b60006020820190508181036000830152612c6481612c28565b9050919050565b7f63616e63656c3a206e6f74206f776e6572000000000000000000000000000000600082015250565b6000612ca1601183612587565b9150612cac82612c6b565b602082019050919050565b60006020820190508181036000830152612cd081612c94565b9050919050565b600081519050612ce6816124ee565b92915050565b600060208284031215612d0257612d016121d1565b5b6000612d1084828501612cd7565b91505092915050565b7f6c697374696e673a206f6e6c7920746f6b656e206f776e65722063616e206c6960008201527f7374696e67000000000000000000000000000000000000000000000000000000602082015250565b6000612d75602583612587565b9150612d8082612d19565b604082019050919050565b60006020820190508181036000830152612da481612d68565b9050919050565b6000604082019050612dc06000830185612295565b612dcd6020830184612295565b9392505050565b612ddd81612349565b8114612de857600080fd5b50565b600081519050612dfa81612dd4565b92915050565b600060208284031215612e1657612e156121d1565b5b6000612e2484828501612deb565b91505092915050565b7f6c697374696e673a206e6f7420617070726f766564206f6e207468697320636f60008201527f6e74726163740000000000000000000000000000000000000000000000000000602082015250565b6000612e89602683612587565b9150612e9482612e2d565b604082019050919050565b60006020820190508181036000830152612eb881612e7c565b9050919050565b7f73656c6c3a20796f7520617265206f776e657200000000000000000000000000600082015250565b6000612ef5601383612587565b9150612f0082612ebf565b602082019050919050565b60006020820190508181036000830152612f2481612ee8565b9050919050565b600081519050612f3a816121e0565b92915050565b600060208284031215612f5657612f556121d1565b5b6000612f6484828501612f2b565b91505092915050565b7f73656c6c3a204e6f7420656e6f75676820746f6b656e20616d6f756e74000000600082015250565b6000612fa3601d83612587565b9150612fae82612f6d565b602082019050919050565b60006020820190508181036000830152612fd281612f96565b9050919050565b7f73656c6c3a204e6f7420656e6f75676820616c6c6f77616e63656420746f6b6560008201527f6e20616d6f756e74000000000000000000000000000000000000000000000000602082015250565b6000613035602883612587565b915061304082612fd9565b604082019050919050565b6000602082019050818103600083015261306481613028565b9050919050565b6000613076826121d6565b9150613081836121d6565b9250817fffffffffffffffffffffffffffffffffffffffffffffffffffffffffffffffff04831182151516156130ba576130b9612b1c565b5b828202905092915050565b7f4e487b7100000000000000000000000000000000000000000000000000000000600052601260045260246000fd5b60006130ff826121d6565b915061310a836121d6565b92508261311a576131196130c5565b5b828204905092915050565b7f73656c6c3a206572633230207472616e73666572206665655b305d206661696c60008201527f6564000000000000000000000000000000000000000000000000000000000000602082015250565b6000613181602283612587565b915061318c82613125565b604082019050919050565b600060208201905081810360008301526131b081613174565b9050919050565b7f73656c6c3a206572633230207472616e73666572206665655b315d206661696c60008201527f6564000000000000000000000000000000000000000000000000000000000000602082015250565b6000613213602283612587565b915061321e826131b7565b604082019050919050565b6000602082019050818103600083015261324281613206565b9050919050565b6000613254826121d6565b915061325f836121d6565b9250827fffffffffffffffffffffffffffffffffffffffffffffffffffffffffffffffff0382111561329457613293612b1c565b5b828201905092915050565b60006132aa826121d6565b91506132b5836121d6565b9250828210156132c8576132c7612b1c565b5b828203905092915050565b7f73656c6c3a206572633230207472616e73666572207072696365206661696c6560008201527f6400000000000000000000000000000000000000000000000000000000000000602082015250565b600061332f602183612587565b915061333a826132d3565b604082019050919050565b6000602082019050818103600083015261335e81613322565b905091905056fea264697066735822122027d63680ed8200124560ae30a0370375c9e4a9892f921e30048a7da6798017fa64736f6c634300080e0033",
  "immutableReferences": {},
  "source": "// SPDX-License-Identifier: MIT\r\npragma solidity ^0.8.14;\r\n\r\nimport \"@openzeppelin/contracts/token/ERC20/ERC20.sol\";\r\nimport \"@openzeppelin/contracts/token/ERC721/ERC721.sol\";\r\nimport \"./TKMMarketTokenA.sol\";\r\n\r\n// 3km  NFT,   \r\ncontract TKMMarketTkmA is TKMMarketTokenA {\r\n    constructor(address _TokenContract, address _NFTContract, address _holder, address[2] memory _feeOwner)\r\n        TKMMarketTokenA(_TokenContract, _NFTContract, _holder, _feeOwner) {\r\n    }\r\n\r\n    // NFT  \r\n    function listing(uint256 tokenId, uint256 price) public virtual override {\r\n        require(price > 0, \"listing: price must greater than zero\");\r\n        require(price <= 10000000 ether, \"listing: price must less than 10 million\");\r\n\r\n        super.listing(tokenId, price);\r\n\r\n        // event\r\n        emit Listing(msg.sender, tokenId, price, listingIdx);\r\n    }\r\n\r\n    //   \r\n    function listingItem(uint256 itemId, uint256 amount, uint256 price) public virtual override {\r\n        require(price > 0, \"listingItem: price must greater than zero\");\r\n        require(price <= 10000000 ether, \"listingItem: price must less than 10 million\");\r\n\r\n        super.listingItem(itemId, amount, price);\r\n\r\n        // event\r\n        emit ListingItem(msg.sender, itemId, amount, price, listingIdx);\r\n    }\r\n\r\n    // NFT  \r\n    function cancel(uint256 _listingIdx) public virtual override {\r\n        uint256 tokenId = sellItems[_listingIdx].tokenId;\r\n        uint256 price = sellItems[_listingIdx].price;\r\n        super.cancel(_listingIdx);\r\n\r\n        // event\r\n        emit Cancel(msg.sender, tokenId, price, _listingIdx);\r\n    }\r\n\r\n    // NFT  (ERC20)\r\n    function sell(uint256 _listingIdx) public payable virtual override {\r\n        uint256 price = sellItems[_listingIdx].price;\r\n        require(0 < price, \"sell: not exist in sell items\");\r\n\r\n        address tokenOwner = sellItems[_listingIdx].tokenOwner;\r\n        uint256 tokenId = sellItems[_listingIdx].tokenId;\r\n\r\n        super.sell(_listingIdx);\r\n\r\n        // event\r\n        emit Sell(tokenOwner, msg.sender, tokenId, price, _listingIdx);\r\n    }\r\n}\r\n",
  "sourcePath": "C:\\Works\\1_Github\\solidity_tinyping\\contracts\\TKMMarketTkmA.sol",
  "compiler": {
    "name": "solc",
    "version": "0.8.14+commit.80d49f37.Emscripten.clang"
  },
  "schemaVersion": "3.4.13",
  "updatedAt": "2023-05-11T07:00:56.432Z",
  "networkType": "ethereum",
  "devdoc": {
    "kind": "dev",
    "methods": {
      "owner()": {
        "details": "Returns the address of the current owner."
      },
      "paused()": {
        "details": "Returns true if the contract is paused, and false otherwise."
      },
      "renounceOwnership()": {
        "details": "Leaves the contract without owner. It will not be possible to call `onlyOwner` functions anymore. Can only be called by the current owner. NOTE: Renouncing ownership will leave the contract without an owner, thereby removing any functionality that is only available to the owner."
      },
      "transferOwnership(address)": {
        "details": "Transfers ownership of the contract to a new account (`newOwner`). Can only be called by the current owner."
      }
    },
    "version": 1
  },
  "userdoc": {
    "kind": "user",
    "methods": {},
    "version": 1
  }
}