{
  "contractName": "TKMInoA",
  "abi": [
    {
      "inputs": [
        {
          "internalType": "address",
          "name": "_TKMBox",
          "type": "address"
        },
        {
          "internalType": "address",
          "name": "_Operator",
          "type": "address"
        }
      ],
      "stateMutability": "nonpayable",
      "type": "constructor"
    },
    {
      "anonymous": false,
      "inputs": [
        {
          "indexed": true,
          "internalType": "address",
          "name": "from",
          "type": "address"
        },
        {
          "indexed": true,
          "internalType": "address",
          "name": "to",
          "type": "address"
        }
      ],
      "name": "ChangeOwner",
      "type": "event"
    },
    {
      "anonymous": false,
      "inputs": [
        {
          "indexed": true,
          "internalType": "address",
          "name": "from",
          "type": "address"
        },
        {
          "indexed": true,
          "internalType": "uint8",
          "name": "order",
          "type": "uint8"
        },
        {
          "indexed": true,
          "internalType": "uint256",
          "name": "boxId",
          "type": "uint256"
        }
      ],
      "name": "Sale",
      "type": "event"
    },
    {
      "inputs": [],
      "name": "Operator",
      "outputs": [
        {
          "internalType": "address",
          "name": "",
          "type": "address"
        }
      ],
      "stateMutability": "view",
      "type": "function",
      "constant": true
    },
    {
      "inputs": [],
      "name": "TKMBox",
      "outputs": [
        {
          "internalType": "contract ERC721",
          "name": "",
          "type": "address"
        }
      ],
      "stateMutability": "view",
      "type": "function",
      "constant": true
    },
    {
      "inputs": [
        {
          "internalType": "uint8",
          "name": "",
          "type": "uint8"
        },
        {
          "internalType": "address",
          "name": "",
          "type": "address"
        }
      ],
      "name": "boxPerUser",
      "outputs": [
        {
          "internalType": "uint256",
          "name": "",
          "type": "uint256"
        }
      ],
      "stateMutability": "view",
      "type": "function",
      "constant": true
    },
    {
      "inputs": [
        {
          "internalType": "address payable",
          "name": "newOwner_",
          "type": "address"
        }
      ],
      "name": "changeOwner",
      "outputs": [],
      "stateMutability": "nonpayable",
      "type": "function"
    },
    {
      "inputs": [
        {
          "internalType": "uint8",
          "name": "",
          "type": "uint8"
        }
      ],
      "name": "currentNftIds",
      "outputs": [
        {
          "internalType": "uint256",
          "name": "",
          "type": "uint256"
        }
      ],
      "stateMutability": "view",
      "type": "function",
      "constant": true
    },
    {
      "inputs": [],
      "name": "owner",
      "outputs": [
        {
          "internalType": "address payable",
          "name": "",
          "type": "address"
        }
      ],
      "stateMutability": "view",
      "type": "function",
      "constant": true
    },
    {
      "inputs": [
        {
          "internalType": "uint8",
          "name": "",
          "type": "uint8"
        }
      ],
      "name": "saleOrders",
      "outputs": [
        {
          "internalType": "uint256",
          "name": "startBoxId",
          "type": "uint256"
        },
        {
          "internalType": "uint256",
          "name": "endBoxId",
          "type": "uint256"
        },
        {
          "internalType": "uint256",
          "name": "startTime",
          "type": "uint256"
        },
        {
          "internalType": "uint256",
          "name": "endTime",
          "type": "uint256"
        },
        {
          "internalType": "uint256",
          "name": "price",
          "type": "uint256"
        },
        {
          "internalType": "uint256",
          "name": "limitPerUser",
          "type": "uint256"
        },
        {
          "internalType": "bool",
          "name": "whiteList",
          "type": "bool"
        }
      ],
      "stateMutability": "view",
      "type": "function",
      "constant": true
    },
    {
      "inputs": [
        {
          "internalType": "uint8",
          "name": "",
          "type": "uint8"
        },
        {
          "internalType": "address",
          "name": "",
          "type": "address"
        }
      ],
      "name": "whiteLists",
      "outputs": [
        {
          "internalType": "bool",
          "name": "",
          "type": "bool"
        }
      ],
      "stateMutability": "view",
      "type": "function",
      "constant": true
    },
    {
      "inputs": [
        {
          "internalType": "uint8",
          "name": "_order",
          "type": "uint8"
        },
        {
          "internalType": "uint256",
          "name": "_startBoxId",
          "type": "uint256"
        },
        {
          "internalType": "uint256",
          "name": "_endBoxId",
          "type": "uint256"
        },
        {
          "internalType": "uint256",
          "name": "_startTime",
          "type": "uint256"
        },
        {
          "internalType": "uint256",
          "name": "_endTime",
          "type": "uint256"
        },
        {
          "internalType": "uint256",
          "name": "_price",
          "type": "uint256"
        },
        {
          "internalType": "uint256",
          "name": "_limitPerUser",
          "type": "uint256"
        },
        {
          "internalType": "bool",
          "name": "_whiteList",
          "type": "bool"
        }
      ],
      "name": "setSaleOrder",
      "outputs": [],
      "stateMutability": "nonpayable",
      "type": "function"
    },
    {
      "inputs": [
        {
          "internalType": "uint8",
          "name": "_order",
          "type": "uint8"
        },
        {
          "internalType": "address[]",
          "name": "_addresses",
          "type": "address[]"
        }
      ],
      "name": "addWhiteList",
      "outputs": [],
      "stateMutability": "nonpayable",
      "type": "function"
    },
    {
      "inputs": [
        {
          "internalType": "uint8",
          "name": "_order",
          "type": "uint8"
        }
      ],
      "name": "sale",
      "outputs": [],
      "stateMutability": "payable",
      "type": "function",
      "payable": true
    },
    {
      "inputs": [
        {
          "internalType": "address",
          "name": "to",
          "type": "address"
        }
      ],
      "name": "withdrawEth",
      "outputs": [],
      "stateMutability": "nonpayable",
      "type": "function"
    }
  ],
  "bytecode": "0x60806040523480156200001157600080fd5b50604051620024493803806200244983398181016040528101906200003791906200016b565b336000806101000a81548173ffffffffffffffffffffffffffffffffffffffff021916908373ffffffffffffffffffffffffffffffffffffffff16021790555081600160006101000a81548173ffffffffffffffffffffffffffffffffffffffff021916908373ffffffffffffffffffffffffffffffffffffffff16021790555080600260006101000a81548173ffffffffffffffffffffffffffffffffffffffff021916908373ffffffffffffffffffffffffffffffffffffffff1602179055505050620001b2565b600080fd5b600073ffffffffffffffffffffffffffffffffffffffff82169050919050565b6000620001338262000106565b9050919050565b620001458162000126565b81146200015157600080fd5b50565b60008151905062000165816200013a565b92915050565b6000806040838503121562000185576200018462000101565b5b6000620001958582860162000154565b9250506020620001a88582860162000154565b9150509250929050565b61228780620001c26000396000f3fe6080604052600436106100a75760003560e01c80632dd07fbc116100645780632dd07fbc146101c55780635491f538146101f0578063626a02c61461022d5780638da5cb5b1461026a578063a6f9dae114610295578063bcc8661a146102be576100a7565b80630b6f4cc7146100ac57806312e9b926146100e957806325e160631461010557806327466f991461012e57806328c9ddb414610157578063297da2a614610182575b600080fd5b3480156100b857600080fd5b506100d360048036038101906100ce919061117e565b6102e7565b6040516100e091906111d9565b60405180910390f35b61010360048036038101906100fe91906111f4565b610316565b005b34801561011157600080fd5b5061012c60048036038101906101279190611221565b6108d6565b005b34801561013a57600080fd5b50610155600480360381019061015091906112b0565b610a23565b005b34801561016357600080fd5b5061016c610c72565b60405161017991906113c5565b60405180910390f35b34801561018e57600080fd5b506101a960048036038101906101a491906111f4565b610c98565b6040516101bc97969594939291906113ef565b60405180910390f35b3480156101d157600080fd5b506101da610ce7565b6040516101e7919061146d565b60405180910390f35b3480156101fc57600080fd5b50610217600480360381019061021291906111f4565b610d0d565b6040516102249190611488565b60405180910390f35b34801561023957600080fd5b50610254600480360381019061024f919061117e565b610d25565b6040516102619190611488565b60405180910390f35b34801561027657600080fd5b5061027f610d4a565b60405161028c91906114c4565b60405180910390f35b3480156102a157600080fd5b506102bc60048036038101906102b7919061150b565b610d6e565b005b3480156102ca57600080fd5b506102e560048036038101906102e09190611691565b610f08565b005b60046020528160005260406000206020528060005260406000206000915091509054906101000a900460ff1681565b60008160ff161161035c576040517f08c379a000000000000000000000000000000000000000000000000000000000815260040161035390611770565b60405180910390fd5b42600360008360ff1660ff1681526020019081526020016000206002015411156103bb576040517f08c379a00000000000000000000000000000000000000000000000000000000081526004016103b290611802565b60405180910390fd5b42600360008360ff1660ff16815260200190815260200160002060030154101561041a576040517f08c379a00000000000000000000000000000000000000000000000000000000081526004016104119061186e565b60405180910390fd5b60011515600360008360ff1660ff16815260200190815260200160002060060160009054906101000a900460ff161515036104fa5760011515600460008360ff1660ff16815260200190815260200160002060003373ffffffffffffffffffffffffffffffffffffffff1673ffffffffffffffffffffffffffffffffffffffff16815260200190815260200160002060009054906101000a900460ff161515146104f9576040517f08c379a00000000000000000000000000000000000000000000000000000000081526004016104f090611900565b60405180910390fd5b5b6000600360008360ff1660ff1681526020019081526020016000206004015434610524919061197e565b905080600010610569576040517f08c379a000000000000000000000000000000000000000000000000000000000815260040161056090611a21565b60405180910390fd5b80601410156105ad576040517f08c379a00000000000000000000000000000000000000000000000000000000081526004016105a490611ad9565b60405180910390fd5b80600660008460ff1660ff16815260200190815260200160002060003373ffffffffffffffffffffffffffffffffffffffff1673ffffffffffffffffffffffffffffffffffffffff16815260200190815260200160002060008282546106139190611af9565b92505081905550600360008360ff1660ff16815260200190815260200160002060050154600660008460ff1660ff16815260200190815260200160002060003373ffffffffffffffffffffffffffffffffffffffff1673ffffffffffffffffffffffffffffffffffffffff1681526020019081526020016000205411156106cf576040517f08c379a00000000000000000000000000000000000000000000000000000000081526004016106c690611bc1565b60405180910390fd5b6000600560008460ff1660ff16815260200190815260200160002054905081600560008560ff1660ff16815260200190815260200160002060008282546107169190611af9565b92505081905550600360008460ff1660ff168152602001908152602001600020600101546001600560008660ff1660ff168152602001908152602001600020546107609190611be1565b11156107a1576040517f08c379a000000000000000000000000000000000000000000000000000000000815260040161079890611c87565b60405180910390fd5b60005b828110156108d057600160009054906101000a900473ffffffffffffffffffffffffffffffffffffffff1673ffffffffffffffffffffffffffffffffffffffff166342842e0e600260009054906101000a900473ffffffffffffffffffffffffffffffffffffffff1633848661081a9190611af9565b6040518463ffffffff1660e01b815260040161083893929190611ca7565b600060405180830381600087803b15801561085257600080fd5b505af1158015610866573d6000803e3d6000fd5b5050505080826108769190611af9565b8460ff163373ffffffffffffffffffffffffffffffffffffffff167f9abe6afca30e7673e8c923fe25a0263b60d2951081abd0160cd8451576f94ec960405160405180910390a480806108c890611cde565b9150506107a4565b50505050565b60008054906101000a900473ffffffffffffffffffffffffffffffffffffffff1673ffffffffffffffffffffffffffffffffffffffff163373ffffffffffffffffffffffffffffffffffffffff1614610964576040517f08c379a000000000000000000000000000000000000000000000000000000000815260040161095b90611d98565b60405180910390fd5b600073ffffffffffffffffffffffffffffffffffffffff168173ffffffffffffffffffffffffffffffffffffffff16036109d3576040517f08c379a00000000000000000000000000000000000000000000000000000000081526004016109ca90611e2a565b60405180910390fd5b60008190508073ffffffffffffffffffffffffffffffffffffffff166108fc479081150290604051600060405180830381858888f19350505050158015610a1e573d6000803e3d6000fd5b505050565b60008054906101000a900473ffffffffffffffffffffffffffffffffffffffff1673ffffffffffffffffffffffffffffffffffffffff163373ffffffffffffffffffffffffffffffffffffffff1614610ab1576040517f08c379a0000000000000000000000000000000000000000000000000000000008152600401610aa890611d98565b60405180910390fd5b600360008960ff1660ff16815260200190815260200160002060020154600014610b10576040517f08c379a0000000000000000000000000000000000000000000000000000000008152600401610b0790611ebc565b60405180910390fd5b60008860ff1611610b56576040517f08c379a0000000000000000000000000000000000000000000000000000000008152600401610b4d90611f4e565b60405180910390fd5b428411610b98576040517f08c379a0000000000000000000000000000000000000000000000000000000008152600401610b8f90611fe0565b60405180910390fd5b848411610bda576040517f08c379a0000000000000000000000000000000000000000000000000000000008152600401610bd190612072565b60405180910390fd5b6000600360008a60ff1660ff1681526020019081526020016000209050878160000181905550868160010181905550858160020181905550848160030181905550838160040181905550828160050181905550818160060160006101000a81548160ff02191690831515021790555087600560008b60ff1660ff16815260200190815260200160002081905550505050505050505050565b600160009054906101000a900473ffffffffffffffffffffffffffffffffffffffff1681565b60036020528060005260406000206000915090508060000154908060010154908060020154908060030154908060040154908060050154908060060160009054906101000a900460ff16905087565b600260009054906101000a900473ffffffffffffffffffffffffffffffffffffffff1681565b60056020528060005260406000206000915090505481565b6006602052816000526040600020602052806000526040600020600091509150505481565b60008054906101000a900473ffffffffffffffffffffffffffffffffffffffff1681565b60008054906101000a900473ffffffffffffffffffffffffffffffffffffffff1673ffffffffffffffffffffffffffffffffffffffff163373ffffffffffffffffffffffffffffffffffffffff1614610dfc576040517f08c379a0000000000000000000000000000000000000000000000000000000008152600401610df390611d98565b60405180910390fd5b600073ffffffffffffffffffffffffffffffffffffffff168173ffffffffffffffffffffffffffffffffffffffff1603610e6b576040517f08c379a0000000000000000000000000000000000000000000000000000000008152600401610e62906120de565b60405180910390fd5b806000806101000a81548173ffffffffffffffffffffffffffffffffffffffff021916908373ffffffffffffffffffffffffffffffffffffffff1602179055508073ffffffffffffffffffffffffffffffffffffffff163373ffffffffffffffffffffffffffffffffffffffff167f9aecf86140d81442289f667eb72e1202a8fbb3478a686659952e145e8531965660405160405180910390a350565b60008054906101000a900473ffffffffffffffffffffffffffffffffffffffff1673ffffffffffffffffffffffffffffffffffffffff163373ffffffffffffffffffffffffffffffffffffffff1614610f96576040517f08c379a0000000000000000000000000000000000000000000000000000000008152600401610f8d90611d98565b60405180910390fd5b60008260ff1611610fdc576040517f08c379a0000000000000000000000000000000000000000000000000000000008152600401610fd390612170565b60405180910390fd5b8051600010611020576040517f08c379a000000000000000000000000000000000000000000000000000000000815260040161101790612202565b60405180910390fd5b60008151905060005b818110156110cd576001600460008660ff1660ff168152602001908152602001600020600085848151811061106157611060612222565b5b602002602001015173ffffffffffffffffffffffffffffffffffffffff1673ffffffffffffffffffffffffffffffffffffffff16815260200190815260200160002060006101000a81548160ff02191690831515021790555080806110c590611cde565b915050611029565b50505050565b6000604051905090565b600080fd5b600080fd5b600060ff82169050919050565b6110fd816110e7565b811461110857600080fd5b50565b60008135905061111a816110f4565b92915050565b600073ffffffffffffffffffffffffffffffffffffffff82169050919050565b600061114b82611120565b9050919050565b61115b81611140565b811461116657600080fd5b50565b60008135905061117881611152565b92915050565b60008060408385031215611195576111946110dd565b5b60006111a38582860161110b565b92505060206111b485828601611169565b9150509250929050565b60008115159050919050565b6111d3816111be565b82525050565b60006020820190506111ee60008301846111ca565b92915050565b60006020828403121561120a576112096110dd565b5b60006112188482850161110b565b91505092915050565b600060208284031215611237576112366110dd565b5b600061124584828501611169565b91505092915050565b6000819050919050565b6112618161124e565b811461126c57600080fd5b50565b60008135905061127e81611258565b92915050565b61128d816111be565b811461129857600080fd5b50565b6000813590506112aa81611284565b92915050565b600080600080600080600080610100898b0312156112d1576112d06110dd565b5b60006112df8b828c0161110b565b98505060206112f08b828c0161126f565b97505060406113018b828c0161126f565b96505060606113128b828c0161126f565b95505060806113238b828c0161126f565b94505060a06113348b828c0161126f565b93505060c06113458b828c0161126f565b92505060e06113568b828c0161129b565b9150509295985092959890939650565b6000819050919050565b600061138b61138661138184611120565b611366565b611120565b9050919050565b600061139d82611370565b9050919050565b60006113af82611392565b9050919050565b6113bf816113a4565b82525050565b60006020820190506113da60008301846113b6565b92915050565b6113e98161124e565b82525050565b600060e082019050611404600083018a6113e0565b61141160208301896113e0565b61141e60408301886113e0565b61142b60608301876113e0565b61143860808301866113e0565b61144560a08301856113e0565b61145260c08301846111ca565b98975050505050505050565b61146781611140565b82525050565b6000602082019050611482600083018461145e565b92915050565b600060208201905061149d60008301846113e0565b92915050565b60006114ae82611120565b9050919050565b6114be816114a3565b82525050565b60006020820190506114d960008301846114b5565b92915050565b6114e8816114a3565b81146114f357600080fd5b50565b600081359050611505816114df565b92915050565b600060208284031215611521576115206110dd565b5b600061152f848285016114f6565b91505092915050565b600080fd5b6000601f19601f8301169050919050565b7f4e487b7100000000000000000000000000000000000000000000000000000000600052604160045260246000fd5b6115868261153d565b810181811067ffffffffffffffff821117156115a5576115a461154e565b5b80604052505050565b60006115b86110d3565b90506115c4828261157d565b919050565b600067ffffffffffffffff8211156115e4576115e361154e565b5b602082029050602081019050919050565b600080fd5b600061160d611608846115c9565b6115ae565b905080838252602082019050602084028301858111156116305761162f6115f5565b5b835b8181101561165957806116458882611169565b845260208401935050602081019050611632565b5050509392505050565b600082601f83011261167857611677611538565b5b81356116888482602086016115fa565b91505092915050565b600080604083850312156116a8576116a76110dd565b5b60006116b68582860161110b565b925050602083013567ffffffffffffffff8111156116d7576116d66110e2565b5b6116e385828601611663565b9150509250929050565b600082825260208201905092915050565b7f5b544b4d496e6f415d5b73616c655d3a206f72646572206d757374206265206760008201527f726561746572207468616e207a65726f00000000000000000000000000000000602082015250565b600061175a6030836116ed565b9150611765826116fe565b604082019050919050565b600060208201905081810360008301526117898161174d565b9050919050565b7f5b544b4d496e6f415d5b73616c655d3a2073616c65206973206e6f742073746160008201527f7274656400000000000000000000000000000000000000000000000000000000602082015250565b60006117ec6024836116ed565b91506117f782611790565b604082019050919050565b6000602082019050818103600083015261181b816117df565b9050919050565b7f5b544b4d496e6f415d5b73616c655d3a2073616c6520697320656e6465640000600082015250565b6000611858601e836116ed565b915061186382611822565b602082019050919050565b600060208201905081810360008301526118878161184b565b9050919050565b7f5b544b4d496e6f415d5b73616c655d3a206e6f7420696e2077686974656c697360008201527f7400000000000000000000000000000000000000000000000000000000000000602082015250565b60006118ea6021836116ed565b91506118f58261188e565b604082019050919050565b60006020820190508181036000830152611919816118dd565b9050919050565b7f4e487b7100000000000000000000000000000000000000000000000000000000600052601260045260246000fd5b7f4e487b7100000000000000000000000000000000000000000000000000000000600052601160045260246000fd5b60006119898261124e565b91506119948361124e565b9250826119a4576119a3611920565b5b828204905092915050565b7f5b544b4d496e6f415d5b73616c655d3a20626f7820616d6f756e74206d75737460008201527f2062652067726561746572207468616e207a65726f0000000000000000000000602082015250565b6000611a0b6035836116ed565b9150611a16826119af565b604082019050919050565b60006020820190508181036000830152611a3a816119fe565b9050919050565b7f5b544b4d496e6f415d5b73616c655d3a206578636565646564206e756d62657260008201527f206f6620626f786573207075726368617361626c65206174206f6e652074696d60208201527f6500000000000000000000000000000000000000000000000000000000000000604082015250565b6000611ac36041836116ed565b9150611ace82611a41565b606082019050919050565b60006020820190508181036000830152611af281611ab6565b9050919050565b6000611b048261124e565b9150611b0f8361124e565b9250827fffffffffffffffffffffffffffffffffffffffffffffffffffffffffffffffff03821115611b4457611b4361194f565b5b828201905092915050565b7f5b544b4d496e6f415d5b73616c655d3a206578636565646564206e756d62657260008201527f206f6620626f786573207075726368617361626c650000000000000000000000602082015250565b6000611bab6035836116ed565b9150611bb682611b4f565b604082019050919050565b60006020820190508181036000830152611bda81611b9e565b9050919050565b6000611bec8261124e565b9150611bf78361124e565b925082821015611c0a57611c0961194f565b5b828203905092915050565b7f5b544b4d496e6f415d5b73616c655d3a204e6f7420656e6f75676820626f786560008201527f7320617265206c65667400000000000000000000000000000000000000000000602082015250565b6000611c71602a836116ed565b9150611c7c82611c15565b604082019050919050565b60006020820190508181036000830152611ca081611c64565b9050919050565b6000606082019050611cbc600083018661145e565b611cc9602083018561145e565b611cd660408301846113e0565b949350505050565b6000611ce98261124e565b91507fffffffffffffffffffffffffffffffffffffffffffffffffffffffffffffffff8203611d1b57611d1a61194f565b5b600182019050919050565b7f4f6e6c792074686520636f6e7472616374206f776e65722063616e2063616c6c60008201527f20746869732066756e6374696f6e000000000000000000000000000000000000602082015250565b6000611d82602e836116ed565b9150611d8d82611d26565b604082019050919050565b60006020820190508181036000830152611db181611d75565b9050919050565b7f5b544b4d496e6f415d5b77697468647261774574685d3a207472616e7366657260008201527f20746f20746865207a65726f2061646472657373000000000000000000000000602082015250565b6000611e146034836116ed565b9150611e1f82611db8565b604082019050919050565b60006020820190508181036000830152611e4381611e07565b9050919050565b7f5b544b4d496e6f415d5b73657453616c654f726465725d3a2074686973206f7260008201527f64657220616c7265616479207365740000000000000000000000000000000000602082015250565b6000611ea6602f836116ed565b9150611eb182611e4a565b604082019050919050565b60006020820190508181036000830152611ed581611e99565b9050919050565b7f5b544b4d496e6f415d5b73657453616c654f726465725d3a206f72646572206d60008201527f7573742062652067726561746572207468616e207a65726f0000000000000000602082015250565b6000611f386038836116ed565b9150611f4382611edc565b604082019050919050565b60006020820190508181036000830152611f6781611f2b565b9050919050565b7f5b544b4d496e6f415d5b73657453616c654f726465725d3a205f656e6454696d60008201527f6520697320756e646572206e6f77000000000000000000000000000000000000602082015250565b6000611fca602e836116ed565b9150611fd582611f6e565b604082019050919050565b60006020820190508181036000830152611ff981611fbd565b9050919050565b7f5b544b4d496e6f415d5b73657453616c654f726465725d3a205f656e6454696d60008201527f6520697320756e646572205f737461727454696d650000000000000000000000602082015250565b600061205c6035836116ed565b915061206782612000565b604082019050919050565b6000602082019050818103600083015261208b8161204f565b9050919050565b7f6e6f74207a65726f206164647265737320666f72206e6577206f776e65720000600082015250565b60006120c8601e836116ed565b91506120d382612092565b602082019050919050565b600060208201905081810360008301526120f7816120bb565b9050919050565b7f5b544b4d496e6f415d5b61646457686974654c6973745d3a206f72646572206d60008201527f7573742062652067726561746572207468616e207a65726f0000000000000000602082015250565b600061215a6038836116ed565b9150612165826120fe565b604082019050919050565b600060208201905081810360008301526121898161214d565b9050919050565b7f5b544b4d496e6f415d5b61646457686974654c6973745d3a206164647265737360008201527f206d7573742062652067726561746572207468616e207a65726f000000000000602082015250565b60006121ec603a836116ed565b91506121f782612190565b604082019050919050565b6000602082019050818103600083015261221b816121df565b9050919050565b7f4e487b7100000000000000000000000000000000000000000000000000000000600052603260045260246000fdfea26469706673582212207c88e3c3b04ecf82c13cba20291e9694bdacdd05332092bc0ec0bee1154d87ed64736f6c634300080e0033",
  "immutableReferences": {},
  "source": "// SPDX-License-Identifier: MIT\r\npragma solidity ^0.8.14;\r\n\r\nimport \"@openzeppelin/contracts/token/ERC721/ERC721.sol\";\r\nimport \"./Owner.sol\";\r\n\r\ncontract TKMInoA is Owner {\r\n    ERC721 public TKMBox;\r\n    address public Operator; //    \r\n\r\n    //  , NFT ID\r\n    event Sale(address indexed from, uint8 indexed order, uint256 indexed boxId);\r\n\r\n    /////////////////////////////////////////////////////\r\n    // Box Sale\r\n    // box sale \r\n    struct saleOrder {\r\n        uint256 startBoxId; //   \r\n        uint256 endBoxId; //   \r\n        uint256 startTime; //  \r\n        uint256 endTime; //  \r\n        uint256 price; //  (klay)\r\n        uint256 limitPerUser; //        \r\n        bool whiteList; //    \r\n    }\r\n    // 1~6 => Box Sale \r\n    mapping(uint8 => saleOrder) public saleOrders;\r\n    \r\n    //  \r\n    mapping(uint8 => mapping(address => bool)) public whiteLists;\r\n\r\n    //   NFT ID\r\n    mapping(uint8 => uint256) public currentNftIds;\r\n    \r\n    // -   \r\n    mapping(uint8 => mapping(address => uint256)) public boxPerUser;\r\n\r\n    constructor(address _TKMBox, address _Operator) {\r\n        TKMBox = ERC721(payable(_TKMBox));\r\n        Operator = _Operator;\r\n    }\r\n\r\n    // sale  \r\n    function setSaleOrder(\r\n        uint8 _order,\r\n        uint256 _startBoxId,\r\n        uint256 _endBoxId,\r\n        uint256 _startTime,\r\n        uint256 _endTime,\r\n        uint256 _price,\r\n        uint256 _limitPerUser,\r\n        bool _whiteList\r\n    ) public onlyOwner {\r\n        require(0 == saleOrders[_order].startTime, \"[TKMInoA][setSaleOrder]: this order already set\");\r\n\r\n        require(_order > 0, \"[TKMInoA][setSaleOrder]: order must be greater than zero\");\r\n        // require(_order < 7, \"[TKMInoA][setSaleOrder]: order must be less than seven\");\r\n\r\n        require(_endTime > block.timestamp, \"[TKMInoA][setSaleOrder]: _endTime is under now\");\r\n        require(_endTime > _startTime, \"[TKMInoA][setSaleOrder]: _endTime is under _startTime\");\r\n\r\n        saleOrder storage newOrder = saleOrders[_order];\r\n        newOrder.startBoxId = _startBoxId;\r\n        newOrder.endBoxId = _endBoxId;\r\n        newOrder.startTime = _startTime;\r\n        newOrder.endTime = _endTime;\r\n        newOrder.price = _price;\r\n        newOrder.limitPerUser = _limitPerUser;\r\n        newOrder.whiteList = _whiteList;\r\n\r\n        currentNftIds[_order] = _startBoxId;\r\n    }\r\n\r\n    //  whitelist \r\n    function addWhiteList(uint8 _order, address[] memory _addresses) public onlyOwner {\r\n        require(_order > 0, \"[TKMInoA][addWhiteList]: order must be greater than zero\");\r\n        // require(_order < 7, \"[TKMInoA][addWhiteList]: order must be less than seven\");\r\n\r\n        require(0 < _addresses.length, \"[TKMInoA][addWhiteList]: address must be greater than zero\");\r\n\r\n        uint256 length = _addresses.length;\r\n        for (uint256 i = 0; i < length; i++) {\r\n            whiteLists[_order][_addresses[i]] = true;\r\n        }\r\n    }\r\n\r\n    function sale(uint8 _order) public payable {\r\n        require(_order > 0, \"[TKMInoA][sale]: order must be greater than zero\");\r\n\r\n        //  \r\n        require(saleOrders[_order].startTime <= block.timestamp, \"[TKMInoA][sale]: sale is not started\");\r\n        require(saleOrders[_order].endTime >= block.timestamp, \"[TKMInoA][sale]: sale is ended\");\r\n\r\n        // whitelist  \r\n        if(saleOrders[_order].whiteList == true) {\r\n            require(whiteLists[_order][msg.sender] == true, \"[TKMInoA][sale]: not in whitelist\");\r\n        }\r\n\r\n        // msg.value   \r\n        uint256 boxAmount = msg.value / saleOrders[_order].price;\r\n        require(0 < boxAmount, \"[TKMInoA][sale]: box amount must be greater than zero\");\r\n        require(20 >= boxAmount, \"[TKMInoA][sale]: exceeded number of boxes purchasable at one time\");\r\n        \r\n        //     \r\n        boxPerUser[_order][msg.sender] += boxAmount;\r\n        require(boxPerUser[_order][msg.sender] <= saleOrders[_order].limitPerUser, \"[TKMInoA][sale]: exceeded number of boxes purchasable\");\r\n\r\n        //     \r\n        uint256 currentNftId = currentNftIds[_order];\r\n        currentNftIds[_order] += boxAmount;\r\n        require(currentNftIds[_order] - 1 <= saleOrders[_order].endBoxId, \"[TKMInoA][sale]: Not enough boxes are left\");\r\n        \r\n        for (uint256 i = 0; i < boxAmount; i++) {\r\n            TKMBox.safeTransferFrom(Operator, msg.sender, currentNftId + i);\r\n            emit Sale(msg.sender, _order, currentNftId + i);\r\n        }\r\n    }\r\n\r\n    // ico        \r\n    function withdrawEth(address to) public onlyOwner {\r\n        require(to != address(0), \"[TKMInoA][withdrawEth]: transfer to the zero address\");\r\n        //       \r\n        address payable receiver = payable(to);\r\n        receiver.transfer(address(this).balance);\r\n    }\r\n}\r\n",
  "sourcePath": "C:\\Works\\1_Github\\solidity_tinyping\\contracts\\TKMInoA.sol",
  "compiler": {
    "name": "solc",
    "version": "0.8.14+commit.80d49f37.Emscripten.clang"
  },
  "schemaVersion": "3.4.7",
  "updatedAt": "2022-10-06T03:30:43.410Z",
  "networkType": "ethereum",
  "devdoc": {
    "kind": "dev",
    "methods": {},
    "version": 1
  },
  "userdoc": {
    "kind": "user",
    "methods": {},
    "version": 1
  }
}