{
  "contractName": "TKMTokenSaleA",
  "abi": [
    {
      "inputs": [
        {
          "internalType": "address",
          "name": "_TKMToken",
          "type": "address"
        },
        {
          "internalType": "address",
          "name": "_Operator",
          "type": "address"
        }
      ],
      "stateMutability": "nonpayable",
      "type": "constructor"
    },
    {
      "anonymous": false,
      "inputs": [
        {
          "indexed": true,
          "internalType": "address",
          "name": "from",
          "type": "address"
        },
        {
          "indexed": true,
          "internalType": "address",
          "name": "to",
          "type": "address"
        }
      ],
      "name": "ChangeOwner",
      "type": "event"
    },
    {
      "anonymous": false,
      "inputs": [
        {
          "indexed": true,
          "internalType": "address",
          "name": "from",
          "type": "address"
        },
        {
          "indexed": false,
          "internalType": "uint8",
          "name": "order",
          "type": "uint8"
        },
        {
          "indexed": false,
          "internalType": "uint256",
          "name": "amount",
          "type": "uint256"
        }
      ],
      "name": "Claim",
      "type": "event"
    },
    {
      "anonymous": false,
      "inputs": [
        {
          "indexed": true,
          "internalType": "address",
          "name": "from",
          "type": "address"
        },
        {
          "indexed": false,
          "internalType": "uint8",
          "name": "order",
          "type": "uint8"
        },
        {
          "indexed": false,
          "internalType": "uint256",
          "name": "amount",
          "type": "uint256"
        }
      ],
      "name": "Sale",
      "type": "event"
    },
    {
      "inputs": [],
      "name": "Operator",
      "outputs": [
        {
          "internalType": "address",
          "name": "",
          "type": "address"
        }
      ],
      "stateMutability": "view",
      "type": "function",
      "constant": true
    },
    {
      "inputs": [],
      "name": "TKMToken",
      "outputs": [
        {
          "internalType": "contract ERC20",
          "name": "",
          "type": "address"
        }
      ],
      "stateMutability": "view",
      "type": "function",
      "constant": true
    },
    {
      "inputs": [
        {
          "internalType": "address payable",
          "name": "newOwner_",
          "type": "address"
        }
      ],
      "name": "changeOwner",
      "outputs": [],
      "stateMutability": "nonpayable",
      "type": "function"
    },
    {
      "inputs": [
        {
          "internalType": "address",
          "name": "",
          "type": "address"
        },
        {
          "internalType": "uint8",
          "name": "",
          "type": "uint8"
        }
      ],
      "name": "lockedTokenTransfer",
      "outputs": [
        {
          "internalType": "bool",
          "name": "",
          "type": "bool"
        }
      ],
      "stateMutability": "view",
      "type": "function",
      "constant": true
    },
    {
      "inputs": [
        {
          "internalType": "address",
          "name": "",
          "type": "address"
        }
      ],
      "name": "lockedTokens",
      "outputs": [
        {
          "internalType": "uint256",
          "name": "",
          "type": "uint256"
        }
      ],
      "stateMutability": "view",
      "type": "function",
      "constant": true
    },
    {
      "inputs": [],
      "name": "order",
      "outputs": [
        {
          "internalType": "uint8",
          "name": "",
          "type": "uint8"
        }
      ],
      "stateMutability": "view",
      "type": "function",
      "constant": true
    },
    {
      "inputs": [],
      "name": "owner",
      "outputs": [
        {
          "internalType": "address payable",
          "name": "",
          "type": "address"
        }
      ],
      "stateMutability": "view",
      "type": "function",
      "constant": true
    },
    {
      "inputs": [],
      "name": "releaseOrderCount",
      "outputs": [
        {
          "internalType": "uint8",
          "name": "",
          "type": "uint8"
        }
      ],
      "stateMutability": "view",
      "type": "function",
      "constant": true
    },
    {
      "inputs": [],
      "name": "releaseOrderDay",
      "outputs": [
        {
          "internalType": "uint8",
          "name": "",
          "type": "uint8"
        }
      ],
      "stateMutability": "view",
      "type": "function",
      "constant": true
    },
    {
      "inputs": [
        {
          "internalType": "uint8",
          "name": "",
          "type": "uint8"
        }
      ],
      "name": "saleOrders",
      "outputs": [
        {
          "internalType": "uint256",
          "name": "totalAmount",
          "type": "uint256"
        },
        {
          "internalType": "uint256",
          "name": "sellAmount",
          "type": "uint256"
        },
        {
          "internalType": "uint256",
          "name": "tokenMultiply",
          "type": "uint256"
        },
        {
          "internalType": "uint256",
          "name": "limitPerUser",
          "type": "uint256"
        },
        {
          "internalType": "uint256",
          "name": "startTime",
          "type": "uint256"
        },
        {
          "internalType": "uint256",
          "name": "endTime",
          "type": "uint256"
        }
      ],
      "stateMutability": "view",
      "type": "function",
      "constant": true
    },
    {
      "inputs": [],
      "name": "tokenClaimTime",
      "outputs": [
        {
          "internalType": "uint256",
          "name": "",
          "type": "uint256"
        }
      ],
      "stateMutability": "view",
      "type": "function",
      "constant": true
    },
    {
      "inputs": [
        {
          "internalType": "address",
          "name": "",
          "type": "address"
        },
        {
          "internalType": "uint8",
          "name": "",
          "type": "uint8"
        }
      ],
      "name": "tokenPerUser",
      "outputs": [
        {
          "internalType": "uint256",
          "name": "",
          "type": "uint256"
        }
      ],
      "stateMutability": "view",
      "type": "function",
      "constant": true
    },
    {
      "inputs": [
        {
          "internalType": "uint8",
          "name": "_order",
          "type": "uint8"
        },
        {
          "internalType": "uint256",
          "name": "_totalAmount",
          "type": "uint256"
        },
        {
          "internalType": "uint256",
          "name": "_tokenMultiply",
          "type": "uint256"
        },
        {
          "internalType": "uint256",
          "name": "_limitPerUser",
          "type": "uint256"
        },
        {
          "internalType": "uint256",
          "name": "_startTime",
          "type": "uint256"
        },
        {
          "internalType": "uint256",
          "name": "_endTime",
          "type": "uint256"
        }
      ],
      "name": "setSaleOrder",
      "outputs": [],
      "stateMutability": "nonpayable",
      "type": "function"
    },
    {
      "inputs": [],
      "name": "incOrder",
      "outputs": [],
      "stateMutability": "nonpayable",
      "type": "function"
    },
    {
      "inputs": [],
      "name": "sale",
      "outputs": [],
      "stateMutability": "payable",
      "type": "function",
      "payable": true
    },
    {
      "inputs": [
        {
          "internalType": "uint256",
          "name": "_tokenClaimTime",
          "type": "uint256"
        }
      ],
      "name": "setTokenClaimTime",
      "outputs": [],
      "stateMutability": "nonpayable",
      "type": "function"
    },
    {
      "inputs": [
        {
          "internalType": "uint8",
          "name": "claimOrder",
          "type": "uint8"
        }
      ],
      "name": "claim",
      "outputs": [],
      "stateMutability": "nonpayable",
      "type": "function"
    },
    {
      "inputs": [
        {
          "internalType": "address",
          "name": "to",
          "type": "address"
        }
      ],
      "name": "withdrawEth",
      "outputs": [],
      "stateMutability": "nonpayable",
      "type": "function"
    }
  ],
  "bytecode": "0x6080604052601e600660006101000a81548160ff021916908360ff1602179055506018600660016101000a81548160ff021916908360ff1602179055503480156200004957600080fd5b5060405162002d0438038062002d0483398181016040528101906200006f9190620001db565b336000806101000a81548173ffffffffffffffffffffffffffffffffffffffff021916908373ffffffffffffffffffffffffffffffffffffffff16021790555081600160006101000a81548173ffffffffffffffffffffffffffffffffffffffff021916908373ffffffffffffffffffffffffffffffffffffffff16021790555080600260006101000a81548173ffffffffffffffffffffffffffffffffffffffff021916908373ffffffffffffffffffffffffffffffffffffffff160217905550600a600460006101000a81548160ff021916908360ff1602179055506001600460016101000a81548160ff021916908360ff160217905550505062000222565b600080fd5b600073ffffffffffffffffffffffffffffffffffffffff82169050919050565b6000620001a38262000176565b9050919050565b620001b58162000196565b8114620001c157600080fd5b50565b600081519050620001d581620001aa565b92915050565b60008060408385031215620001f557620001f462000171565b5b60006200020585828601620001c4565b92505060206200021885828601620001c4565b9150509250929050565b612ad280620002326000396000f3fe6080604052600436106101095760003560e01c80637bb72d6211610095578063a6f9dae111610064578063a6f9dae114610351578063bf15071d1461037a578063c0755a51146103a5578063ea2bb5b2146103ce578063f2cae7f7146103f757610109565b80637bb72d62146102a75780638da5cb5b146102d2578063958e06ff146102fd57806395d4063f1461032857610109565b80633e0ac934116100dc5780633e0ac934146101e15780635eb7413a1461020c57806367f75281146102495780636ad1fe02146102605780637b4904561461026a57610109565b806325e160631461010e578063297da2a6146101375780632dd07fbc1461017957806336617b0b146101a4575b600080fd5b34801561011a57600080fd5b5061013560048036038101906101309190611809565b610422565b005b34801561014357600080fd5b5061015e6004803603810190610159919061186f565b61056f565b604051610170969594939291906118b5565b60405180910390f35b34801561018557600080fd5b5061018e6105ab565b60405161019b9190611925565b60405180910390f35b3480156101b057600080fd5b506101cb60048036038101906101c69190611940565b6105d1565b6040516101d8919061199b565b60405180910390f35b3480156101ed57600080fd5b506101f6610600565b60405161020391906119c5565b60405180910390f35b34801561021857600080fd5b50610233600480360381019061022e9190611809565b610613565b60405161024091906119e0565b60405180910390f35b34801561025557600080fd5b5061025e61062b565b005b61026861079c565b005b34801561027657600080fd5b50610291600480360381019061028c9190611940565b610dd0565b60405161029e91906119e0565b60405180910390f35b3480156102b357600080fd5b506102bc610df5565b6040516102c99190611a5a565b60405180910390f35b3480156102de57600080fd5b506102e7610e1b565b6040516102f49190611a96565b60405180910390f35b34801561030957600080fd5b50610312610e3f565b60405161031f91906119c5565b60405180910390f35b34801561033457600080fd5b5061034f600480360381019061034a919061186f565b610e52565b005b34801561035d57600080fd5b5061037860048036038101906103739190611add565b611271565b005b34801561038657600080fd5b5061038f61140b565b60405161039c91906119c5565b60405180910390f35b3480156103b157600080fd5b506103cc60048036038101906103c79190611b36565b61141e565b005b3480156103da57600080fd5b506103f560048036038101906103f09190611b63565b6114fb565b005b34801561040357600080fd5b5061040c6117a0565b60405161041991906119e0565b60405180910390f35b60008054906101000a900473ffffffffffffffffffffffffffffffffffffffff1673ffffffffffffffffffffffffffffffffffffffff163373ffffffffffffffffffffffffffffffffffffffff16146104b0576040517f08c379a00000000000000000000000000000000000000000000000000000000081526004016104a790611c73565b60405180910390fd5b600073ffffffffffffffffffffffffffffffffffffffff168173ffffffffffffffffffffffffffffffffffffffff160361051f576040517f08c379a000000000000000000000000000000000000000000000000000000000815260040161051690611d05565b60405180910390fd5b60008190508073ffffffffffffffffffffffffffffffffffffffff166108fc479081150290604051600060405180830381858888f1935050505015801561056a573d6000803e3d6000fd5b505050565b60036020528060005260406000206000915090508060000154908060010154908060020154908060030154908060040154908060050154905086565b600260009054906101000a900473ffffffffffffffffffffffffffffffffffffffff1681565b60086020528160005260406000206020528060005260406000206000915091509054906101000a900460ff1681565b600660009054906101000a900460ff1681565b60076020528060005260406000206000915090505481565b60008054906101000a900473ffffffffffffffffffffffffffffffffffffffff1673ffffffffffffffffffffffffffffffffffffffff163373ffffffffffffffffffffffffffffffffffffffff16146106b9576040517f08c379a00000000000000000000000000000000000000000000000000000000081526004016106b090611c73565b60405180910390fd5b600060036000600460019054906101000a900460ff1660ff1660ff1681526020019081526020016000206001015460036000600460019054906101000a900460ff1660ff1660ff1681526020019081526020016000206000015461071d9190611d54565b90506004600181819054906101000a900460ff168092919061073e90611d88565b91906101000a81548160ff021916908360ff160217905550508060036000600460019054906101000a900460ff1660ff1660ff16815260200190815260200160002060000160008282546107929190611db1565b9250508190555050565b60036000600460019054906101000a900460ff1660ff1660ff1681526020019081526020016000206000015460001061080a576040517f08c379a000000000000000000000000000000000000000000000000000000000815260040161080190611e79565b60405180910390fd5b34670de0b6b3a76400001115610855576040517f08c379a000000000000000000000000000000000000000000000000000000000815260040161084c90611f0b565b60405180910390fd5b4260036000600460019054906101000a900460ff1660ff1660ff1681526020019081526020016000206004015411156108c3576040517f08c379a00000000000000000000000000000000000000000000000000000000081526004016108ba90611f9d565b60405180910390fd5b4260036000600460019054906101000a900460ff1660ff1660ff168152602001908152602001600020600501541015610931576040517f08c379a00000000000000000000000000000000000000000000000000000000081526004016109289061202f565b60405180910390fd5b60003460036000600460019054906101000a900460ff1660ff1660ff1681526020019081526020016000206002015461096a919061204f565b9050600060036000600460019054906101000a900460ff1660ff1660ff1681526020019081526020016000206001015460036000600460019054906101000a900460ff1660ff1660ff168152602001908152602001600020600001546109d09190611d54565b90508160036000600460019054906101000a900460ff1660ff1660ff1681526020019081526020016000206001016000828254610a0d9190611db1565b9250508190555081811015610a57576040517f08c379a0000000000000000000000000000000000000000000000000000000008152600401610a4e9061211b565b60405180910390fd5b6000600960003373ffffffffffffffffffffffffffffffffffffffff1673ffffffffffffffffffffffffffffffffffffffff1681526020019081526020016000206000600460019054906101000a900460ff1660ff1660ff16815260200190815260200160002054905082600960003373ffffffffffffffffffffffffffffffffffffffff1673ffffffffffffffffffffffffffffffffffffffff1681526020019081526020016000206000600460019054906101000a900460ff1660ff1660ff1681526020019081526020016000206000828254610b369190611db1565b925050819055508281610b499190611db1565b60036000600460019054906101000a900460ff1660ff1660ff168152602001908152602001600020600301541015610bb6576040517f08c379a0000000000000000000000000000000000000000000000000000000008152600401610bad906121d3565b60405180910390fd5b60006064600460009054906101000a900460ff1660ff1685610bd8919061204f565b610be29190612222565b905060008185610bf29190611d54565b9050600660019054906101000a900460ff1660ff1681610c129190612222565b600760003373ffffffffffffffffffffffffffffffffffffffff1673ffffffffffffffffffffffffffffffffffffffff1681526020019081526020016000206000828254610c609190611db1565b92505081905550600160009054906101000a900473ffffffffffffffffffffffffffffffffffffffff1673ffffffffffffffffffffffffffffffffffffffff166323b872dd600260009054906101000a900473ffffffffffffffffffffffffffffffffffffffff1633856040518463ffffffff1660e01b8152600401610ce893929190612253565b6020604051808303816000875af1158015610d07573d6000803e3d6000fd5b505050506040513d601f19601f82011682018060405250810190610d2b91906122b6565b610d6a576040517f08c379a0000000000000000000000000000000000000000000000000000000008152600401610d619061237b565b60405180910390fd5b3373ffffffffffffffffffffffffffffffffffffffff167f9abe6afca30e7673e8c923fe25a0263b60d2951081abd0160cd8451576f94ec9600460019054906101000a900460ff1687604051610dc192919061239b565b60405180910390a25050505050565b6009602052816000526040600020602052806000526040600020600091509150505481565b600160009054906101000a900473ffffffffffffffffffffffffffffffffffffffff1681565b60008054906101000a900473ffffffffffffffffffffffffffffffffffffffff1681565b600660019054906101000a900460ff1681565b600554600010610e97576040517f08c379a0000000000000000000000000000000000000000000000000000000008152600401610e8e90612436565b60405180910390fd5b8060ff166000108015610ebf57508060ff16600660019054906101000a900460ff1660ff1610155b610efe576040517f08c379a0000000000000000000000000000000000000000000000000000000008152600401610ef5906124c8565b60405180910390fd5b600860003373ffffffffffffffffffffffffffffffffffffffff1673ffffffffffffffffffffffffffffffffffffffff16815260200190815260200160002060008260ff1660ff16815260200190815260200160002060009054906101000a900460ff1615156000151514610fa8576040517f08c379a0000000000000000000000000000000000000000000000000000000008152600401610f9f9061255a565b60405180910390fd5b6001600860003373ffffffffffffffffffffffffffffffffffffffff1673ffffffffffffffffffffffffffffffffffffffff16815260200190815260200160002060008360ff1660ff16815260200190815260200160002060006101000a81548160ff0219169083151502179055506000603c60018360ff1661102b9190611d54565b600f611037919061204f565b611041919061204f565b60055461104e9190611db1565b9050804211611092576040517f08c379a0000000000000000000000000000000000000000000000000000000008152600401611089906125ec565b60405180910390fd5b6000600760003373ffffffffffffffffffffffffffffffffffffffff1673ffffffffffffffffffffffffffffffffffffffff16815260200190815260200160002054905060008111611119576040517f08c379a00000000000000000000000000000000000000000000000000000000081526004016111109061267e565b60405180910390fd5b600160009054906101000a900473ffffffffffffffffffffffffffffffffffffffff1673ffffffffffffffffffffffffffffffffffffffff166323b872dd600260009054906101000a900473ffffffffffffffffffffffffffffffffffffffff1633846040518463ffffffff1660e01b815260040161119a93929190612253565b6020604051808303816000875af11580156111b9573d6000803e3d6000fd5b505050506040513d601f19601f820116820180604052508101906111dd91906122b6565b61121c576040517f08c379a000000000000000000000000000000000000000000000000000000000815260040161121390612736565b60405180910390fd5b3373ffffffffffffffffffffffffffffffffffffffff167f636597d278d22b8d2d94780ea4379f96e5e71f9c4b69444b45a6b504130bfc35848360405161126492919061239b565b60405180910390a2505050565b60008054906101000a900473ffffffffffffffffffffffffffffffffffffffff1673ffffffffffffffffffffffffffffffffffffffff163373ffffffffffffffffffffffffffffffffffffffff16146112ff576040517f08c379a00000000000000000000000000000000000000000000000000000000081526004016112f690611c73565b60405180910390fd5b600073ffffffffffffffffffffffffffffffffffffffff168173ffffffffffffffffffffffffffffffffffffffff160361136e576040517f08c379a0000000000000000000000000000000000000000000000000000000008152600401611365906127a2565b60405180910390fd5b806000806101000a81548173ffffffffffffffffffffffffffffffffffffffff021916908373ffffffffffffffffffffffffffffffffffffffff1602179055508073ffffffffffffffffffffffffffffffffffffffff163373ffffffffffffffffffffffffffffffffffffffff167f9aecf86140d81442289f667eb72e1202a8fbb3478a686659952e145e8531965660405160405180910390a350565b600460019054906101000a900460ff1681565b60008054906101000a900473ffffffffffffffffffffffffffffffffffffffff1673ffffffffffffffffffffffffffffffffffffffff163373ffffffffffffffffffffffffffffffffffffffff16146114ac576040517f08c379a00000000000000000000000000000000000000000000000000000000081526004016114a390611c73565b60405180910390fd5b6005546000146114f1576040517f08c379a00000000000000000000000000000000000000000000000000000000081526004016114e890612834565b60405180910390fd5b8060058190555050565b60008054906101000a900473ffffffffffffffffffffffffffffffffffffffff1673ffffffffffffffffffffffffffffffffffffffff163373ffffffffffffffffffffffffffffffffffffffff1614611589576040517f08c379a000000000000000000000000000000000000000000000000000000000815260040161158090611c73565b60405180910390fd5b60008660ff16116115cf576040517f08c379a00000000000000000000000000000000000000000000000000000000081526004016115c6906128c6565b60405180910390fd5b428211611611576040517f08c379a000000000000000000000000000000000000000000000000000000000815260040161160890612958565b60405180910390fd5b428111611653576040517f08c379a000000000000000000000000000000000000000000000000000000000815260040161164a906129ea565b60405180910390fd5b818111611695576040517f08c379a000000000000000000000000000000000000000000000000000000000815260040161168c90612a7c565b60405180910390fd5b600360008760ff1660ff16815260200190815260200160002060000154600003611713576000600360008860ff1660ff16815260200190815260200160002090508581600001819055506000816001018190555084816002018190555083816003018190555082816004018190555081816005018190555050611798565b83600360008860ff1660ff1681526020019081526020016000206002018190555082600360008860ff1660ff1681526020019081526020016000206003018190555081600360008860ff1660ff1681526020019081526020016000206004018190555080600360008860ff1660ff168152602001908152602001600020600501819055505b505050505050565b60055481565b600080fd5b600073ffffffffffffffffffffffffffffffffffffffff82169050919050565b60006117d6826117ab565b9050919050565b6117e6816117cb565b81146117f157600080fd5b50565b600081359050611803816117dd565b92915050565b60006020828403121561181f5761181e6117a6565b5b600061182d848285016117f4565b91505092915050565b600060ff82169050919050565b61184c81611836565b811461185757600080fd5b50565b60008135905061186981611843565b92915050565b600060208284031215611885576118846117a6565b5b60006118938482850161185a565b91505092915050565b6000819050919050565b6118af8161189c565b82525050565b600060c0820190506118ca60008301896118a6565b6118d760208301886118a6565b6118e460408301876118a6565b6118f160608301866118a6565b6118fe60808301856118a6565b61190b60a08301846118a6565b979650505050505050565b61191f816117cb565b82525050565b600060208201905061193a6000830184611916565b92915050565b60008060408385031215611957576119566117a6565b5b6000611965858286016117f4565b92505060206119768582860161185a565b9150509250929050565b60008115159050919050565b61199581611980565b82525050565b60006020820190506119b0600083018461198c565b92915050565b6119bf81611836565b82525050565b60006020820190506119da60008301846119b6565b92915050565b60006020820190506119f560008301846118a6565b92915050565b6000819050919050565b6000611a20611a1b611a16846117ab565b6119fb565b6117ab565b9050919050565b6000611a3282611a05565b9050919050565b6000611a4482611a27565b9050919050565b611a5481611a39565b82525050565b6000602082019050611a6f6000830184611a4b565b92915050565b6000611a80826117ab565b9050919050565b611a9081611a75565b82525050565b6000602082019050611aab6000830184611a87565b92915050565b611aba81611a75565b8114611ac557600080fd5b50565b600081359050611ad781611ab1565b92915050565b600060208284031215611af357611af26117a6565b5b6000611b0184828501611ac8565b91505092915050565b611b138161189c565b8114611b1e57600080fd5b50565b600081359050611b3081611b0a565b92915050565b600060208284031215611b4c57611b4b6117a6565b5b6000611b5a84828501611b21565b91505092915050565b60008060008060008060c08789031215611b8057611b7f6117a6565b5b6000611b8e89828a0161185a565b9650506020611b9f89828a01611b21565b9550506040611bb089828a01611b21565b9450506060611bc189828a01611b21565b9350506080611bd289828a01611b21565b92505060a0611be389828a01611b21565b9150509295509295509295565b600082825260208201905092915050565b7f4f6e6c792074686520636f6e7472616374206f776e65722063616e2063616c6c60008201527f20746869732066756e6374696f6e000000000000000000000000000000000000602082015250565b6000611c5d602e83611bf0565b9150611c6882611c01565b604082019050919050565b60006020820190508181036000830152611c8c81611c50565b9050919050565b7f5b544b4d546f6b656e53616c655d5b77697468647261774574685d3a2074726160008201527f6e7366657220746f20746865207a65726f206164647265737300000000000000602082015250565b6000611cef603983611bf0565b9150611cfa82611c93565b604082019050919050565b60006020820190508181036000830152611d1e81611ce2565b9050919050565b7f4e487b7100000000000000000000000000000000000000000000000000000000600052601160045260246000fd5b6000611d5f8261189c565b9150611d6a8361189c565b925082821015611d7d57611d7c611d25565b5b828203905092915050565b6000611d9382611836565b915060ff8203611da657611da5611d25565b5b600182019050919050565b6000611dbc8261189c565b9150611dc78361189c565b9250827fffffffffffffffffffffffffffffffffffffffffffffffffffffffffffffffff03821115611dfc57611dfb611d25565b5b828201905092915050565b7f5b544b4d546f6b656e53616c655d5b73616c655d3a2064617461206973206e6f60008201527f7420666f756e6400000000000000000000000000000000000000000000000000602082015250565b6000611e63602783611bf0565b9150611e6e82611e07565b604082019050919050565b60006020820190508181036000830152611e9281611e56565b9050919050565b7f5b544b4d546f6b656e53616c655d5b73616c655d3a2076616c75652073686f7560008201527f6c64206e6f74206265206c657373207468616e20312065746865720000000000602082015250565b6000611ef5603b83611bf0565b9150611f0082611e99565b604082019050919050565b60006020820190508181036000830152611f2481611ee8565b9050919050565b7f5b544b4d546f6b656e53616c655d5b73616c655d3a2073616c65206973206e6f60008201527f7420737461727465640000000000000000000000000000000000000000000000602082015250565b6000611f87602983611bf0565b9150611f9282611f2b565b604082019050919050565b60006020820190508181036000830152611fb681611f7a565b9050919050565b7f5b544b4d546f6b656e53616c655d5b73616c655d3a2073616c6520697320656e60008201527f6465640000000000000000000000000000000000000000000000000000000000602082015250565b6000612019602383611bf0565b915061202482611fbd565b604082019050919050565b600060208201905081810360008301526120488161200c565b9050919050565b600061205a8261189c565b91506120658361189c565b9250817fffffffffffffffffffffffffffffffffffffffffffffffffffffffffffffffff048311821515161561209e5761209d611d25565b5b828202905092915050565b7f5b544b4d546f6b656e53616c655d5b73616c655d3a20746f6b656e732061726560008201527f20736f6c64206f75740000000000000000000000000000000000000000000000602082015250565b6000612105602983611bf0565b9150612110826120a9565b604082019050919050565b60006020820190508181036000830152612134816120f8565b9050919050565b7f5b544b4d546f6b656e53616c655d5b73616c655d3a2063616e206e6f7420627560008201527f79206d6f7265207468616e20616c6c6f636174656420616d6d6f756e74206f6660208201527f20746f6b656e7300000000000000000000000000000000000000000000000000604082015250565b60006121bd604783611bf0565b91506121c88261213b565b606082019050919050565b600060208201905081810360008301526121ec816121b0565b9050919050565b7f4e487b7100000000000000000000000000000000000000000000000000000000600052601260045260246000fd5b600061222d8261189c565b91506122388361189c565b925082612248576122476121f3565b5b828204905092915050565b60006060820190506122686000830186611916565b6122756020830185611916565b61228260408301846118a6565b949350505050565b61229381611980565b811461229e57600080fd5b50565b6000815190506122b08161228a565b92915050565b6000602082840312156122cc576122cb6117a6565b5b60006122da848285016122a1565b91505092915050565b7f5b544b4d546f6b656e53616c655d5b73616c655d3a20756e61626c6520746f2060008201527f73656e6420746f6b656e2c20726563697069656e74206d61792068617665207260208201527f6576657274656400000000000000000000000000000000000000000000000000604082015250565b6000612365604783611bf0565b9150612370826122e3565b606082019050919050565b6000602082019050818103600083015261239481612358565b9050919050565b60006040820190506123b060008301856119b6565b6123bd60208301846118a6565b9392505050565b7f5b544b4d546f6b656e53616c655d5b636c61696d5d3a2074696d65206973206e60008201527f6f74207365747570207965740000000000000000000000000000000000000000602082015250565b6000612420602c83611bf0565b915061242b826123c4565b604082019050919050565b6000602082019050818103600083015261244f81612413565b9050919050565b7f5b544b4d546f6b656e53616c655d5b636c61696d5d3a20696e76616c6964206f60008201527f7264657200000000000000000000000000000000000000000000000000000000602082015250565b60006124b2602483611bf0565b91506124bd82612456565b604082019050919050565b600060208201905081810360008301526124e1816124a5565b9050919050565b7f5b544b4d546f6b656e53616c655d5b636c61696d5d3a20616c7265616479206360008201527f6c61696d65640000000000000000000000000000000000000000000000000000602082015250565b6000612544602683611bf0565b915061254f826124e8565b604082019050919050565b6000602082019050818103600083015261257381612537565b9050919050565b7f5b544b4d546f6b656e53616c655d5b636c61696d5d3a2072656d61696e696e6760008201527f2074696d65206973207374696c6c206c65667400000000000000000000000000602082015250565b60006125d6603383611bf0565b91506125e18261257a565b604082019050919050565b60006020820190508181036000830152612605816125c9565b9050919050565b7f5b544b4d546f6b656e53616c655d5b636c61696d5d3a2072656365697661626c60008201527f6520746f6b656e7320617265206e6f7420666f756e6400000000000000000000602082015250565b6000612668603683611bf0565b91506126738261260c565b604082019050919050565b600060208201905081810360008301526126978161265b565b9050919050565b7f5b544b4d546f6b656e53616c655d5b636c61696d5d3a20756e61626c6520746f60008201527f2073656e6420746f6b656e2c20726563697069656e74206d617920686176652060208201527f7265766572746564000000000000000000000000000000000000000000000000604082015250565b6000612720604883611bf0565b915061272b8261269e565b606082019050919050565b6000602082019050818103600083015261274f81612713565b9050919050565b7f6e6f74207a65726f206164647265737320666f72206e6577206f776e65720000600082015250565b600061278c601e83611bf0565b915061279782612756565b602082019050919050565b600060208201905081810360008301526127bb8161277f565b9050919050565b7f5b544b4d546f6b656e53616c655d5b736574546f6b656e436c61696d54696d6560008201527f5d3a20616c72656164792073657420746f6b656e20636c61696d2074696d6500602082015250565b600061281e603f83611bf0565b9150612829826127c2565b604082019050919050565b6000602082019050818103600083015261284d81612811565b9050919050565b7f5b544b4d546f6b656e53616c655d5b73657453616c654f726465725d3a206f7260008201527f646572206d7573742062652067726561746572207468616e207a65726f000000602082015250565b60006128b0603d83611bf0565b91506128bb82612854565b604082019050919050565b600060208201905081810360008301526128df816128a3565b9050919050565b7f5b544b4d546f6b656e53616c655d5b73657453616c654f726465725d3a205f7360008201527f7461727454696d6520697320756e646572206e6f770000000000000000000000602082015250565b6000612942603583611bf0565b915061294d826128e6565b604082019050919050565b6000602082019050818103600083015261297181612935565b9050919050565b7f5b544b4d546f6b656e53616c655d5b73657453616c654f726465725d3a205f6560008201527f6e6454696d6520697320756e646572206e6f7700000000000000000000000000602082015250565b60006129d4603383611bf0565b91506129df82612978565b604082019050919050565b60006020820190508181036000830152612a03816129c7565b9050919050565b7f5b544b4d546f6b656e53616c655d5b73657453616c654f726465725d3a205f6560008201527f6e6454696d6520697320756e646572205f737461727454696d65000000000000602082015250565b6000612a66603a83611bf0565b9150612a7182612a0a565b604082019050919050565b60006020820190508181036000830152612a9581612a59565b905091905056fea2646970667358221220d399de7510d1ab74148ce595ae1894ad6e2f0852f2b8ff2cf862c0af3684e0db64736f6c634300080e0033",
  "immutableReferences": {},
  "source": "// SPDX-License-Identifier: MIT\r\npragma solidity ^0.8.14;\r\n\r\nimport \"@openzeppelin/contracts/token/ERC20/ERC20.sol\";\r\nimport \"./Owner.sol\";\r\n\r\ncontract TKMTokenSaleA is Owner {\r\n    ERC20 public TKMToken;\r\n    address public Operator; //    \r\n\r\n    //  ,   (  )\r\n    event Sale(address indexed from, uint8 order, uint256 amount);\r\n\r\n    //   . order = 1 ~ 18, amount = 1  \r\n    event Claim(address indexed from, uint8 order, uint256 amount);\r\n\r\n    /////////////////////////////////////////////////////\r\n    // Token Sale\r\n    // token sale \r\n    struct saleOrder {\r\n        uint256 totalAmount; //      \r\n        uint256 sellAmount; //     \r\n        uint256 tokenMultiply; //  * {} = 3KM\r\n        uint256 limitPerUser; //        \r\n        uint256 startTime; //  \r\n        uint256 endTime; //  \r\n    }\r\n    // 1, 2, 3 => Token Sale \r\n    mapping(uint8 => saleOrder) public saleOrders;\r\n    //       \r\n    uint8 private tge_;\r\n    //   \r\n    uint8 public order;\r\n\r\n    /////////////////////////////////////////////////////\r\n    //     \r\n    //        \r\n    uint256 public tokenClaimTime;\r\n    //            \r\n    uint8 public releaseOrderDay = 30;\r\n    //         \r\n    uint8 public releaseOrderCount = 24;\r\n    //   . 1 \r\n    mapping(address => uint256) public lockedTokens;\r\n    //     \r\n    mapping(address => mapping(uint8 => bool)) public lockedTokenTransfer;\r\n    //    \r\n    mapping(address => mapping(uint8 => uint256)) public tokenPerUser;    \r\n\r\n    constructor(address _TKMToken, address _Operator) {\r\n        TKMToken = ERC20(payable(_TKMToken));\r\n        Operator = _Operator;\r\n        tge_ = 10; // sale       \r\n        order = 1;\r\n    }\r\n\r\n    // sale  \r\n    function setSaleOrder(\r\n        uint8 _order,\r\n        uint256 _totalAmount,\r\n        uint256 _tokenMultiply,\r\n        uint256 _limitPerUser,\r\n        uint256 _startTime,\r\n        uint256 _endTime\r\n    ) public onlyOwner {\r\n        require(_order > 0, \"[TKMTokenSale][setSaleOrder]: order must be greater than zero\");\r\n        // require(_order < 4, \"[TKMTokenSale][setSaleOrder]: order must be less than four\");\r\n\r\n        require(_startTime > block.timestamp, \"[TKMTokenSale][setSaleOrder]: _startTime is under now\");\r\n        require(_endTime > block.timestamp, \"[TKMTokenSale][setSaleOrder]: _endTime is under now\");\r\n        require(_endTime > _startTime, \"[TKMTokenSale][setSaleOrder]: _endTime is under _startTime\");\r\n\r\n        //  \r\n        if (0 == saleOrders[_order].totalAmount) {\r\n            saleOrder storage newOrder = saleOrders[_order];\r\n            newOrder.totalAmount = _totalAmount;\r\n            newOrder.sellAmount = 0;\r\n            newOrder.tokenMultiply = _tokenMultiply;\r\n            newOrder.limitPerUser = _limitPerUser;\r\n            newOrder.startTime = _startTime;\r\n            newOrder.endTime = _endTime;\r\n            return;\r\n        }\r\n\r\n        //     \r\n        saleOrders[_order].tokenMultiply = _tokenMultiply;\r\n        saleOrders[_order].limitPerUser = _limitPerUser;\r\n        saleOrders[_order].startTime = _startTime;\r\n        saleOrders[_order].endTime = _endTime;\r\n    }\r\n\r\n    // ico  .     \r\n    function incOrder() public onlyOwner {\r\n        //      \r\n        uint256 remainTokenAmount = saleOrders[order].totalAmount - saleOrders[order].sellAmount;\r\n\r\n        //   \r\n        order++;\r\n\r\n        //   \r\n        saleOrders[order].totalAmount += remainTokenAmount;\r\n    }\r\n\r\n/*\r\n    struct saleOrder {\r\n        uint256 totalAmount; //      \r\n        uint256 sellAmount; //     \r\n        uint256 tokenMultiply; // //  * {} = 3KM\r\n        uint256 limitPerUser; //        \r\n        uint256 startTime; //  \r\n        uint256 endTime; //  \r\n        mapping(address => uint256) tokenPerUser; //      \r\n    }\r\n*/\r\n    // ORK  \r\n    function sale() public payable {\r\n        //  \r\n        require(0 < saleOrders[order].totalAmount, \"[TKMTokenSale][sale]: data is not found\");\r\n        //   \r\n        require(1 ether <= msg.value, \"[TKMTokenSale][sale]: value should not be less than 1 ether\");\r\n        //  \r\n        require(saleOrders[order].startTime <= block.timestamp, \"[TKMTokenSale][sale]: sale is not started\");\r\n        require(saleOrders[order].endTime >= block.timestamp, \"[TKMTokenSale][sale]: sale is ended\");\r\n\r\n        //  \r\n        uint256 validBuyToken = saleOrders[order].tokenMultiply * msg.value;\r\n\r\n        //  \r\n        uint256 validSellToken = saleOrders[order].totalAmount - saleOrders[order].sellAmount;\r\n        //    \r\n        saleOrders[order].sellAmount += validBuyToken;\r\n\r\n        //   \r\n        require(validSellToken >= validBuyToken, \"[TKMTokenSale][sale]: tokens are sold out\");\r\n\r\n        //        \r\n        uint256 boughtToken = tokenPerUser[msg.sender][order];\r\n        //    \r\n        tokenPerUser[msg.sender][order] += validBuyToken;\r\n        require(saleOrders[order].limitPerUser >= boughtToken + validBuyToken, \"[TKMTokenSale][sale]: can not buy more than allocated ammount of tokens\");\r\n\r\n        //  \r\n        uint256 sendToken = (validBuyToken * tge_) / 100;\r\n        //  \r\n        uint256 remainToken = validBuyToken - sendToken;\r\n        lockedTokens[msg.sender] += remainToken / releaseOrderCount;\r\n\r\n        // ico   \r\n        require(\r\n            TKMToken.transferFrom(Operator, msg.sender, sendToken),\r\n            \"[TKMTokenSale][sale]: unable to send token, recipient may have reverted\"\r\n        );\r\n\r\n        emit Sale(msg.sender, order, validBuyToken);\r\n    }\r\n\r\n    //         .  \r\n    function setTokenClaimTime(uint256 _tokenClaimTime) public onlyOwner {\r\n        require(0 == tokenClaimTime, \"[TKMTokenSale][setTokenClaimTime]: already set token claim time\");\r\n        tokenClaimTime = _tokenClaimTime;\r\n    }\r\n/*\r\n    //        \r\n    uint256 private tokenClaimTime;\r\n    //            \r\n    uint8 public releaseOrderDay = 30;\r\n    //         \r\n    uint8 public releaseOrderCount = 18;\r\n    //   . 1 \r\n    mapping(address => uint256) public lockedTokens;\r\n    //     \r\n    mapping(address => mapping(uint8 => bool)) public lockedTokenTransfer;\r\n*/\r\n    //     \r\n    function claim(uint8 claimOrder) public {\r\n        //       \r\n        require(0 < tokenClaimTime, \"[TKMTokenSale][claim]: time is not setup yet\");\r\n        // order  \r\n        require(0 < claimOrder && releaseOrderCount >= claimOrder, \"[TKMTokenSale][claim]: invalid order\");\r\n        //   \r\n        require(false == lockedTokenTransfer[msg.sender][claimOrder], \"[TKMTokenSale][claim]: already claimed\");\r\n        //  \r\n        lockedTokenTransfer[msg.sender][claimOrder] = true;\r\n        //  \r\n        // uint256 releaseTime = tokenClaimTime + ((releaseOrderDay * (uint256(claimOrder) - 1)) * 86400); // 1 days == 86400\r\n        uint256 releaseTime = tokenClaimTime + ((15 * (uint256(claimOrder) - 1)) * 60);     // 15\r\n        require(block.timestamp > releaseTime, \"[TKMTokenSale][claim]: remaining time is still left\");\r\n        //   \r\n        uint256 tokenAmount = lockedTokens[msg.sender];\r\n        require(tokenAmount > 0, \"[TKMTokenSale][claim]: receivable tokens are not found\");\r\n        //  \r\n        require(\r\n            TKMToken.transferFrom(Operator, msg.sender, tokenAmount),\r\n            \"[TKMTokenSale][claim]: unable to send token, recipient may have reverted\"\r\n        );\r\n\r\n        emit Claim(msg.sender, claimOrder, tokenAmount);\r\n    }\r\n\r\n    // ico        \r\n    function withdrawEth(address to) public onlyOwner {\r\n        require(to != address(0), \"[TKMTokenSale][withdrawEth]: transfer to the zero address\");\r\n        //       \r\n        address payable receiver = payable(to);\r\n        receiver.transfer(address(this).balance);\r\n    }\r\n}\r\n",
  "sourcePath": "D:\\github\\solidity_tinyping\\contracts\\TKMTokenSaleA.sol",
  "compiler": {
    "name": "solc",
    "version": "0.8.14+commit.80d49f37.Emscripten.clang"
  },
  "schemaVersion": "3.4.7",
  "updatedAt": "2022-08-29T06:10:37.351Z",
  "networkType": "ethereum",
  "devdoc": {
    "kind": "dev",
    "methods": {},
    "version": 1
  },
  "userdoc": {
    "kind": "user",
    "methods": {},
    "version": 1
  }
}