{
  "contractName": "TKMBoxA",
  "abi": [
    {
      "inputs": [
        {
          "internalType": "address",
          "name": "minter_",
          "type": "address"
        }
      ],
      "stateMutability": "nonpayable",
      "type": "constructor"
    },
    {
      "anonymous": false,
      "inputs": [
        {
          "indexed": true,
          "internalType": "address",
          "name": "owner",
          "type": "address"
        },
        {
          "indexed": true,
          "internalType": "address",
          "name": "approved",
          "type": "address"
        },
        {
          "indexed": true,
          "internalType": "uint256",
          "name": "tokenId",
          "type": "uint256"
        }
      ],
      "name": "Approval",
      "type": "event"
    },
    {
      "anonymous": false,
      "inputs": [
        {
          "indexed": true,
          "internalType": "address",
          "name": "owner",
          "type": "address"
        },
        {
          "indexed": true,
          "internalType": "address",
          "name": "operator",
          "type": "address"
        },
        {
          "indexed": false,
          "internalType": "bool",
          "name": "approved",
          "type": "bool"
        }
      ],
      "name": "ApprovalForAll",
      "type": "event"
    },
    {
      "anonymous": false,
      "inputs": [
        {
          "indexed": true,
          "internalType": "address",
          "name": "opener",
          "type": "address"
        },
        {
          "indexed": true,
          "internalType": "uint256",
          "name": "tokenId",
          "type": "uint256"
        }
      ],
      "name": "BoxOpen",
      "type": "event"
    },
    {
      "anonymous": false,
      "inputs": [
        {
          "indexed": true,
          "internalType": "address",
          "name": "from",
          "type": "address"
        },
        {
          "indexed": true,
          "internalType": "address",
          "name": "to",
          "type": "address"
        }
      ],
      "name": "ChangeMinter",
      "type": "event"
    },
    {
      "anonymous": false,
      "inputs": [
        {
          "indexed": true,
          "internalType": "address",
          "name": "from",
          "type": "address"
        },
        {
          "indexed": true,
          "internalType": "address",
          "name": "to",
          "type": "address"
        }
      ],
      "name": "ChangeOwner",
      "type": "event"
    },
    {
      "anonymous": false,
      "inputs": [
        {
          "indexed": true,
          "internalType": "address",
          "name": "from",
          "type": "address"
        },
        {
          "indexed": true,
          "internalType": "address",
          "name": "to",
          "type": "address"
        },
        {
          "indexed": true,
          "internalType": "uint256",
          "name": "tokenId",
          "type": "uint256"
        }
      ],
      "name": "Transfer",
      "type": "event"
    },
    {
      "inputs": [
        {
          "internalType": "address",
          "name": "to",
          "type": "address"
        },
        {
          "internalType": "uint256",
          "name": "tokenId",
          "type": "uint256"
        }
      ],
      "name": "approve",
      "outputs": [],
      "stateMutability": "nonpayable",
      "type": "function"
    },
    {
      "inputs": [
        {
          "internalType": "address",
          "name": "owner",
          "type": "address"
        }
      ],
      "name": "balanceOf",
      "outputs": [
        {
          "internalType": "uint256",
          "name": "",
          "type": "uint256"
        }
      ],
      "stateMutability": "view",
      "type": "function"
    },
    {
      "inputs": [
        {
          "internalType": "address",
          "name": "newMinter_",
          "type": "address"
        }
      ],
      "name": "changeMinter",
      "outputs": [],
      "stateMutability": "nonpayable",
      "type": "function"
    },
    {
      "inputs": [
        {
          "internalType": "address payable",
          "name": "newOwner_",
          "type": "address"
        }
      ],
      "name": "changeOwner",
      "outputs": [],
      "stateMutability": "nonpayable",
      "type": "function"
    },
    {
      "inputs": [
        {
          "internalType": "uint256",
          "name": "tokenId",
          "type": "uint256"
        }
      ],
      "name": "getApproved",
      "outputs": [
        {
          "internalType": "address",
          "name": "",
          "type": "address"
        }
      ],
      "stateMutability": "view",
      "type": "function"
    },
    {
      "inputs": [
        {
          "internalType": "address",
          "name": "owner",
          "type": "address"
        },
        {
          "internalType": "address",
          "name": "operator",
          "type": "address"
        }
      ],
      "name": "isApprovedForAll",
      "outputs": [
        {
          "internalType": "bool",
          "name": "",
          "type": "bool"
        }
      ],
      "stateMutability": "view",
      "type": "function"
    },
    {
      "inputs": [],
      "name": "minter",
      "outputs": [
        {
          "internalType": "address",
          "name": "",
          "type": "address"
        }
      ],
      "stateMutability": "view",
      "type": "function"
    },
    {
      "inputs": [],
      "name": "name",
      "outputs": [
        {
          "internalType": "string",
          "name": "",
          "type": "string"
        }
      ],
      "stateMutability": "view",
      "type": "function"
    },
    {
      "inputs": [],
      "name": "owner",
      "outputs": [
        {
          "internalType": "address payable",
          "name": "",
          "type": "address"
        }
      ],
      "stateMutability": "view",
      "type": "function"
    },
    {
      "inputs": [
        {
          "internalType": "uint256",
          "name": "tokenId",
          "type": "uint256"
        }
      ],
      "name": "ownerOf",
      "outputs": [
        {
          "internalType": "address",
          "name": "",
          "type": "address"
        }
      ],
      "stateMutability": "view",
      "type": "function"
    },
    {
      "inputs": [
        {
          "internalType": "address",
          "name": "from",
          "type": "address"
        },
        {
          "internalType": "address",
          "name": "to",
          "type": "address"
        },
        {
          "internalType": "uint256",
          "name": "tokenId",
          "type": "uint256"
        }
      ],
      "name": "safeTransferFrom",
      "outputs": [],
      "stateMutability": "nonpayable",
      "type": "function"
    },
    {
      "inputs": [
        {
          "internalType": "address",
          "name": "from",
          "type": "address"
        },
        {
          "internalType": "address",
          "name": "to",
          "type": "address"
        },
        {
          "internalType": "uint256",
          "name": "tokenId",
          "type": "uint256"
        },
        {
          "internalType": "bytes",
          "name": "_data",
          "type": "bytes"
        }
      ],
      "name": "safeTransferFrom",
      "outputs": [],
      "stateMutability": "nonpayable",
      "type": "function"
    },
    {
      "inputs": [
        {
          "internalType": "address",
          "name": "operator",
          "type": "address"
        },
        {
          "internalType": "bool",
          "name": "approved",
          "type": "bool"
        }
      ],
      "name": "setApprovalForAll",
      "outputs": [],
      "stateMutability": "nonpayable",
      "type": "function"
    },
    {
      "inputs": [],
      "name": "symbol",
      "outputs": [
        {
          "internalType": "string",
          "name": "",
          "type": "string"
        }
      ],
      "stateMutability": "view",
      "type": "function"
    },
    {
      "inputs": [
        {
          "internalType": "uint256",
          "name": "index",
          "type": "uint256"
        }
      ],
      "name": "tokenByIndex",
      "outputs": [
        {
          "internalType": "uint256",
          "name": "",
          "type": "uint256"
        }
      ],
      "stateMutability": "view",
      "type": "function"
    },
    {
      "inputs": [
        {
          "internalType": "address",
          "name": "owner",
          "type": "address"
        },
        {
          "internalType": "uint256",
          "name": "index",
          "type": "uint256"
        }
      ],
      "name": "tokenOfOwnerByIndex",
      "outputs": [
        {
          "internalType": "uint256",
          "name": "",
          "type": "uint256"
        }
      ],
      "stateMutability": "view",
      "type": "function"
    },
    {
      "inputs": [],
      "name": "totalSupply",
      "outputs": [
        {
          "internalType": "uint256",
          "name": "",
          "type": "uint256"
        }
      ],
      "stateMutability": "view",
      "type": "function"
    },
    {
      "inputs": [
        {
          "internalType": "address",
          "name": "from",
          "type": "address"
        },
        {
          "internalType": "address",
          "name": "to",
          "type": "address"
        },
        {
          "internalType": "uint256",
          "name": "tokenId",
          "type": "uint256"
        }
      ],
      "name": "transferFrom",
      "outputs": [],
      "stateMutability": "nonpayable",
      "type": "function"
    },
    {
      "inputs": [
        {
          "internalType": "uint256",
          "name": "startId",
          "type": "uint256"
        },
        {
          "internalType": "uint256",
          "name": "endId",
          "type": "uint256"
        }
      ],
      "name": "inoMint",
      "outputs": [],
      "stateMutability": "nonpayable",
      "type": "function"
    },
    {
      "inputs": [
        {
          "internalType": "address",
          "name": "owner",
          "type": "address"
        }
      ],
      "name": "collection",
      "outputs": [
        {
          "internalType": "string",
          "name": "",
          "type": "string"
        },
        {
          "internalType": "uint256[]",
          "name": "",
          "type": "uint256[]"
        }
      ],
      "stateMutability": "view",
      "type": "function"
    },
    {
      "inputs": [
        {
          "internalType": "uint256",
          "name": "tokenId",
          "type": "uint256"
        }
      ],
      "name": "boxOpen",
      "outputs": [],
      "stateMutability": "nonpayable",
      "type": "function"
    },
    {
      "inputs": [
        {
          "internalType": "uint256",
          "name": "tokenId",
          "type": "uint256"
        }
      ],
      "name": "tokenURI",
      "outputs": [
        {
          "internalType": "string",
          "name": "",
          "type": "string"
        }
      ],
      "stateMutability": "view",
      "type": "function"
    },
    {
      "inputs": [
        {
          "internalType": "bytes4",
          "name": "interfaceId",
          "type": "bytes4"
        }
      ],
      "name": "supportsInterface",
      "outputs": [
        {
          "internalType": "bool",
          "name": "",
          "type": "bool"
        }
      ],
      "stateMutability": "view",
      "type": "function"
    }
  ],
  "bytecode": "0x60806040523480156200001157600080fd5b50604051620041503803806200415083398181016040528101906200003791906200027c565b806040518060400160405280601c81526020017f5468726565204b696e67646f6d204d756c7469766572736520426f78000000008152506040518060400160405280600881526020017f334b4d426f785f410000000000000000000000000000000000000000000000008152508160009080519060200190620000bc92919062000162565b508060019080519060200190620000d592919062000162565b50505033600b60006101000a81548173ffffffffffffffffffffffffffffffffffffffff021916908373ffffffffffffffffffffffffffffffffffffffff16021790555080600c60006101000a81548173ffffffffffffffffffffffffffffffffffffffff021916908373ffffffffffffffffffffffffffffffffffffffff160217905550505062000312565b8280546200017090620002dd565b90600052602060002090601f016020900481019282620001945760008555620001e0565b82601f10620001af57805160ff1916838001178555620001e0565b82800160010185558215620001e0579182015b82811115620001df578251825591602001919060010190620001c2565b5b509050620001ef9190620001f3565b5090565b5b808211156200020e576000816000905550600101620001f4565b5090565b600080fd5b600073ffffffffffffffffffffffffffffffffffffffff82169050919050565b6000620002448262000217565b9050919050565b620002568162000237565b81146200026257600080fd5b50565b60008151905062000276816200024b565b92915050565b60006020828403121562000295576200029462000212565b5b6000620002a58482850162000265565b91505092915050565b7f4e487b7100000000000000000000000000000000000000000000000000000000600052602260045260246000fd5b60006002820490506001821680620002f657607f821691505b6020821081036200030c576200030b620002ae565b5b50919050565b613e2e80620003226000396000f3fe608060405234801561001057600080fd5b506004361061014d5760003560e01c806356773406116100c3578063a6f9dae11161007c578063a6f9dae1146103b0578063b88d4fde146103cc578063c87b56dd146103e8578063e322b36814610418578063e94886d214610434578063e985e9c5146104655761014d565b806356773406146102dc5780636352211e146102f857806370a08231146103285780638da5cb5b1461035857806395d89b4114610376578063a22cb465146103945761014d565b806318160ddd1161011557806318160ddd1461020a57806323b872dd146102285780632c4d4d18146102445780632f745c591461026057806342842e0e146102905780634f6ccce7146102ac5761014d565b806301ffc9a71461015257806306fdde031461018257806307546172146101a0578063081812fc146101be578063095ea7b3146101ee575b600080fd5b61016c60048036038101906101679190612744565b610495565b604051610179919061278c565b60405180910390f35b61018a6104a7565b6040516101979190612840565b60405180910390f35b6101a8610539565b6040516101b591906128a3565b60405180910390f35b6101d860048036038101906101d391906128f4565b61055f565b6040516101e591906128a3565b60405180910390f35b6102086004803603810190610203919061294d565b6105e4565b005b6102126106fb565b60405161021f919061299c565b60405180910390f35b610242600480360381019061023d91906129b7565b610708565b005b61025e60048036038101906102599190612a0a565b610768565b005b61027a6004803603810190610275919061294d565b610905565b604051610287919061299c565b60405180910390f35b6102aa60048036038101906102a591906129b7565b6109aa565b005b6102c660048036038101906102c191906128f4565b6109ca565b6040516102d3919061299c565b60405180910390f35b6102f660048036038101906102f19190612a37565b610a3b565b005b610312600480360381019061030d91906128f4565b610afa565b60405161031f91906128a3565b60405180910390f35b610342600480360381019061033d9190612a0a565b610bab565b60405161034f919061299c565b60405180910390f35b610360610c62565b60405161036d9190612a98565b60405180910390f35b61037e610c88565b60405161038b9190612840565b60405180910390f35b6103ae60048036038101906103a99190612adf565b610d1a565b005b6103ca60048036038101906103c59190612b4b565b610d30565b005b6103e660048036038101906103e19190612cad565b610ecd565b005b61040260048036038101906103fd91906128f4565b610f2f565b60405161040f9190612840565b60405180910390f35b610432600480360381019061042d91906128f4565b610f41565b005b61044e60048036038101906104499190612a0a565b611007565b60405161045c929190612dee565b60405180910390f35b61047f600480360381019061047a9190612e25565b6110c6565b60405161048c919061278c565b60405180910390f35b60006104a08261115a565b9050919050565b6060600080546104b690612e94565b80601f01602080910402602001604051908101604052809291908181526020018280546104e290612e94565b801561052f5780601f106105045761010080835404028352916020019161052f565b820191906000526020600020905b81548152906001019060200180831161051257829003601f168201915b5050505050905090565b600c60009054906101000a900473ffffffffffffffffffffffffffffffffffffffff1681565b600061056a826111d4565b6105a9576040517f08c379a00000000000000000000000000000000000000000000000000000000081526004016105a090612f37565b60405180910390fd5b6004600083815260200190815260200160002060009054906101000a900473ffffffffffffffffffffffffffffffffffffffff169050919050565b60006105ef82610afa565b90508073ffffffffffffffffffffffffffffffffffffffff168373ffffffffffffffffffffffffffffffffffffffff160361065f576040517f08c379a000000000000000000000000000000000000000000000000000000000815260040161065690612fc9565b60405180910390fd5b8073ffffffffffffffffffffffffffffffffffffffff1661067e611240565b73ffffffffffffffffffffffffffffffffffffffff1614806106ad57506106ac816106a7611240565b6110c6565b5b6106ec576040517f08c379a00000000000000000000000000000000000000000000000000000000081526004016106e39061305b565b60405180910390fd5b6106f68383611248565b505050565b6000600880549050905090565b610719610713611240565b82611301565b610758576040517f08c379a000000000000000000000000000000000000000000000000000000000815260040161074f906130ed565b60405180910390fd5b6107638383836113df565b505050565b600c60009054906101000a900473ffffffffffffffffffffffffffffffffffffffff1673ffffffffffffffffffffffffffffffffffffffff163373ffffffffffffffffffffffffffffffffffffffff16146107f8576040517f08c379a00000000000000000000000000000000000000000000000000000000081526004016107ef9061317f565b60405180910390fd5b600073ffffffffffffffffffffffffffffffffffffffff168173ffffffffffffffffffffffffffffffffffffffff1603610867576040517f08c379a000000000000000000000000000000000000000000000000000000000815260040161085e906131eb565b60405180910390fd5b80600c60006101000a81548173ffffffffffffffffffffffffffffffffffffffff021916908373ffffffffffffffffffffffffffffffffffffffff1602179055508073ffffffffffffffffffffffffffffffffffffffff163373ffffffffffffffffffffffffffffffffffffffff167fcba8b2f67b1b66244252c443e6260110af641687bcceb46c810da702119ec82860405160405180910390a350565b600061091083610bab565b8210610951576040517f08c379a00000000000000000000000000000000000000000000000000000000081526004016109489061327d565b60405180910390fd5b600660008473ffffffffffffffffffffffffffffffffffffffff1673ffffffffffffffffffffffffffffffffffffffff168152602001908152602001600020600083815260200190815260200160002054905092915050565b6109c583838360405180602001604052806000815250610ecd565b505050565b60006109d46106fb565b8210610a15576040517f08c379a0000000000000000000000000000000000000000000000000000000008152600401610a0c9061330f565b60405180910390fd5b60088281548110610a2957610a2861332f565b5b90600052602060002001549050919050565b600c60009054906101000a900473ffffffffffffffffffffffffffffffffffffffff1673ffffffffffffffffffffffffffffffffffffffff163373ffffffffffffffffffffffffffffffffffffffff1614610acb576040517f08c379a0000000000000000000000000000000000000000000000000000000008152600401610ac29061317f565b60405180910390fd5b60008290505b818111610af557610ae23382611645565b8080610aed9061338d565b915050610ad1565b505050565b6000806002600084815260200190815260200160002060009054906101000a900473ffffffffffffffffffffffffffffffffffffffff169050600073ffffffffffffffffffffffffffffffffffffffff168173ffffffffffffffffffffffffffffffffffffffff1603610ba2576040517f08c379a0000000000000000000000000000000000000000000000000000000008152600401610b9990613447565b60405180910390fd5b80915050919050565b60008073ffffffffffffffffffffffffffffffffffffffff168273ffffffffffffffffffffffffffffffffffffffff1603610c1b576040517f08c379a0000000000000000000000000000000000000000000000000000000008152600401610c12906134d9565b60405180910390fd5b600360008373ffffffffffffffffffffffffffffffffffffffff1673ffffffffffffffffffffffffffffffffffffffff168152602001908152602001600020549050919050565b600b60009054906101000a900473ffffffffffffffffffffffffffffffffffffffff1681565b606060018054610c9790612e94565b80601f0160208091040260200160405190810160405280929190818152602001828054610cc390612e94565b8015610d105780601f10610ce557610100808354040283529160200191610d10565b820191906000526020600020905b815481529060010190602001808311610cf357829003601f168201915b5050505050905090565b610d2c610d25611240565b8383611663565b5050565b600b60009054906101000a900473ffffffffffffffffffffffffffffffffffffffff1673ffffffffffffffffffffffffffffffffffffffff163373ffffffffffffffffffffffffffffffffffffffff1614610dc0576040517f08c379a0000000000000000000000000000000000000000000000000000000008152600401610db79061356b565b60405180910390fd5b600073ffffffffffffffffffffffffffffffffffffffff168173ffffffffffffffffffffffffffffffffffffffff1603610e2f576040517f08c379a0000000000000000000000000000000000000000000000000000000008152600401610e26906135d7565b60405180910390fd5b80600b60006101000a81548173ffffffffffffffffffffffffffffffffffffffff021916908373ffffffffffffffffffffffffffffffffffffffff1602179055508073ffffffffffffffffffffffffffffffffffffffff163373ffffffffffffffffffffffffffffffffffffffff167f9aecf86140d81442289f667eb72e1202a8fbb3478a686659952e145e8531965660405160405180910390a350565b610ede610ed8611240565b83611301565b610f1d576040517f08c379a0000000000000000000000000000000000000000000000000000000008152600401610f14906130ed565b60405180910390fd5b610f29848484846117cf565b50505050565b6060610f3a8261182b565b9050919050565b610f4a81610afa565b73ffffffffffffffffffffffffffffffffffffffff163373ffffffffffffffffffffffffffffffffffffffff1614610fb7576040517f08c379a0000000000000000000000000000000000000000000000000000000008152600401610fae90613669565b60405180910390fd5b803373ffffffffffffffffffffffffffffffffffffffff167fb6d0f573cba3d4a03c7eaa036f7d5a9228d6fb816811d88b4a7c5c9505ffb59260405160405180910390a36110048161197c565b50565b606080600061101584610bab565b905060008167ffffffffffffffff81111561103357611032612b82565b5b6040519080825280602002602001820160405280156110615781602001602082028036833780820191505090505b50905060005b828110156110b157600061107b8783610905565b9050808383815181106110915761109061332f565b5b6020026020010181815250505080806110a99061338d565b915050611067565b506110ba611988565b81935093505050915091565b6000600560008473ffffffffffffffffffffffffffffffffffffffff1673ffffffffffffffffffffffffffffffffffffffff16815260200190815260200160002060008373ffffffffffffffffffffffffffffffffffffffff1673ffffffffffffffffffffffffffffffffffffffff16815260200190815260200160002060009054906101000a900460ff16905092915050565b60007f780e9d63000000000000000000000000000000000000000000000000000000007bffffffffffffffffffffffffffffffffffffffffffffffffffffffff1916827bffffffffffffffffffffffffffffffffffffffffffffffffffffffff191614806111cd57506111cc826119a8565b5b9050919050565b60008073ffffffffffffffffffffffffffffffffffffffff166002600084815260200190815260200160002060009054906101000a900473ffffffffffffffffffffffffffffffffffffffff1673ffffffffffffffffffffffffffffffffffffffff1614159050919050565b600033905090565b816004600083815260200190815260200160002060006101000a81548173ffffffffffffffffffffffffffffffffffffffff021916908373ffffffffffffffffffffffffffffffffffffffff160217905550808273ffffffffffffffffffffffffffffffffffffffff166112bb83610afa565b73ffffffffffffffffffffffffffffffffffffffff167f8c5be1e5ebec7d5bd14f71427d1e84f3dd0314c0f7b2291e5b200ac8c7c3b92560405160405180910390a45050565b600061130c826111d4565b61134b576040517f08c379a0000000000000000000000000000000000000000000000000000000008152600401611342906136fb565b60405180910390fd5b600061135683610afa565b90508073ffffffffffffffffffffffffffffffffffffffff168473ffffffffffffffffffffffffffffffffffffffff161480611398575061139781856110c6565b5b806113d657508373ffffffffffffffffffffffffffffffffffffffff166113be8461055f565b73ffffffffffffffffffffffffffffffffffffffff16145b91505092915050565b8273ffffffffffffffffffffffffffffffffffffffff166113ff82610afa565b73ffffffffffffffffffffffffffffffffffffffff1614611455576040517f08c379a000000000000000000000000000000000000000000000000000000000815260040161144c9061378d565b60405180910390fd5b600073ffffffffffffffffffffffffffffffffffffffff168273ffffffffffffffffffffffffffffffffffffffff16036114c4576040517f08c379a00000000000000000000000000000000000000000000000000000000081526004016114bb9061381f565b60405180910390fd5b6114cf838383611a8a565b6114da600082611248565b6001600360008573ffffffffffffffffffffffffffffffffffffffff1673ffffffffffffffffffffffffffffffffffffffff168152602001908152602001600020600082825461152a919061383f565b925050819055506001600360008473ffffffffffffffffffffffffffffffffffffffff1673ffffffffffffffffffffffffffffffffffffffff16815260200190815260200160002060008282546115819190613873565b92505081905550816002600083815260200190815260200160002060006101000a81548173ffffffffffffffffffffffffffffffffffffffff021916908373ffffffffffffffffffffffffffffffffffffffff160217905550808273ffffffffffffffffffffffffffffffffffffffff168473ffffffffffffffffffffffffffffffffffffffff167fddf252ad1be2c89b69c2b068fc378daa952ba7f163c4a11628f55a4df523b3ef60405160405180910390a4611640838383611a9a565b505050565b61165f828260405180602001604052806000815250611a9f565b5050565b8173ffffffffffffffffffffffffffffffffffffffff168373ffffffffffffffffffffffffffffffffffffffff16036116d1576040517f08c379a00000000000000000000000000000000000000000000000000000000081526004016116c890613915565b60405180910390fd5b80600560008573ffffffffffffffffffffffffffffffffffffffff1673ffffffffffffffffffffffffffffffffffffffff16815260200190815260200160002060008473ffffffffffffffffffffffffffffffffffffffff1673ffffffffffffffffffffffffffffffffffffffff16815260200190815260200160002060006101000a81548160ff0219169083151502179055508173ffffffffffffffffffffffffffffffffffffffff168373ffffffffffffffffffffffffffffffffffffffff167f17307eab39ab6107e8899845ad3d59bd9653f200f220920489ca2b5937696c31836040516117c2919061278c565b60405180910390a3505050565b6117da8484846113df565b6117e684848484611afa565b611825576040517f08c379a000000000000000000000000000000000000000000000000000000000815260040161181c906139a7565b60405180910390fd5b50505050565b6060611836826111d4565b611875576040517f08c379a000000000000000000000000000000000000000000000000000000000815260040161186c90613a39565b60405180910390fd5b6000600a6000848152602001908152602001600020805461189590612e94565b80601f01602080910402602001604051908101604052809291908181526020018280546118c190612e94565b801561190e5780601f106118e35761010080835404028352916020019161190e565b820191906000526020600020905b8154815290600101906020018083116118f157829003601f168201915b50505050509050600061191f611988565b90506000815103611934578192505050611977565b600082511115611969578082604051602001611951929190613a95565b60405160208183030381529060405292505050611977565b61197284611c81565b925050505b919050565b61198581611d28565b50565b6060604051806060016040528060328152602001613dc760329139905090565b60007f80ac58cd000000000000000000000000000000000000000000000000000000007bffffffffffffffffffffffffffffffffffffffffffffffffffffffff1916827bffffffffffffffffffffffffffffffffffffffffffffffffffffffff19161480611a7357507f5b5e139f000000000000000000000000000000000000000000000000000000007bffffffffffffffffffffffffffffffffffffffffffffffffffffffff1916827bffffffffffffffffffffffffffffffffffffffffffffffffffffffff1916145b80611a835750611a8282611d7b565b5b9050919050565b611a95838383611de5565b505050565b505050565b611aa98383611ef7565b611ab66000848484611afa565b611af5576040517f08c379a0000000000000000000000000000000000000000000000000000000008152600401611aec906139a7565b60405180910390fd5b505050565b6000611b1b8473ffffffffffffffffffffffffffffffffffffffff166120d0565b15611c74578373ffffffffffffffffffffffffffffffffffffffff1663150b7a02611b44611240565b8786866040518563ffffffff1660e01b8152600401611b669493929190613b0e565b6020604051808303816000875af1925050508015611ba257506040513d601f19601f82011682018060405250810190611b9f9190613b6f565b60015b611c24573d8060008114611bd2576040519150601f19603f3d011682016040523d82523d6000602084013e611bd7565b606091505b506000815103611c1c576040517f08c379a0000000000000000000000000000000000000000000000000000000008152600401611c13906139a7565b60405180910390fd5b805181602001fd5b63150b7a0260e01b7bffffffffffffffffffffffffffffffffffffffffffffffffffffffff1916817bffffffffffffffffffffffffffffffffffffffffffffffffffffffff191614915050611c79565b600190505b949350505050565b6060611c8c826111d4565b611ccb576040517f08c379a0000000000000000000000000000000000000000000000000000000008152600401611cc290613c0e565b60405180910390fd5b6000611cd5611988565b90506000815111611cf55760405180602001604052806000815250611d20565b80611cff846120f3565b604051602001611d10929190613a95565b6040516020818303038152906040525b915050919050565b611d3181612253565b6000600a60008381526020019081526020016000208054611d5190612e94565b905014611d7857600a60008281526020019081526020016000206000611d77919061267b565b5b50565b60007f01ffc9a7000000000000000000000000000000000000000000000000000000007bffffffffffffffffffffffffffffffffffffffffffffffffffffffff1916827bffffffffffffffffffffffffffffffffffffffffffffffffffffffff1916149050919050565b611df0838383612370565b600073ffffffffffffffffffffffffffffffffffffffff168373ffffffffffffffffffffffffffffffffffffffff1603611e3257611e2d81612375565b611e71565b8173ffffffffffffffffffffffffffffffffffffffff168373ffffffffffffffffffffffffffffffffffffffff1614611e7057611e6f83826123be565b5b5b600073ffffffffffffffffffffffffffffffffffffffff168273ffffffffffffffffffffffffffffffffffffffff1603611eb357611eae8161252b565b611ef2565b8273ffffffffffffffffffffffffffffffffffffffff168273ffffffffffffffffffffffffffffffffffffffff1614611ef157611ef082826125fc565b5b5b505050565b600073ffffffffffffffffffffffffffffffffffffffff168273ffffffffffffffffffffffffffffffffffffffff1603611f66576040517f08c379a0000000000000000000000000000000000000000000000000000000008152600401611f5d90613c7a565b60405180910390fd5b611f6f816111d4565b15611faf576040517f08c379a0000000000000000000000000000000000000000000000000000000008152600401611fa690613ce6565b60405180910390fd5b611fbb60008383611a8a565b6001600360008473ffffffffffffffffffffffffffffffffffffffff1673ffffffffffffffffffffffffffffffffffffffff168152602001908152602001600020600082825461200b9190613873565b92505081905550816002600083815260200190815260200160002060006101000a81548173ffffffffffffffffffffffffffffffffffffffff021916908373ffffffffffffffffffffffffffffffffffffffff160217905550808273ffffffffffffffffffffffffffffffffffffffff16600073ffffffffffffffffffffffffffffffffffffffff167fddf252ad1be2c89b69c2b068fc378daa952ba7f163c4a11628f55a4df523b3ef60405160405180910390a46120cc60008383611a9a565b5050565b6000808273ffffffffffffffffffffffffffffffffffffffff163b119050919050565b60606000820361213a576040518060400160405280600181526020017f3000000000000000000000000000000000000000000000000000000000000000815250905061224e565b600082905060005b6000821461216c5780806121559061338d565b915050600a826121659190613d35565b9150612142565b60008167ffffffffffffffff81111561218857612187612b82565b5b6040519080825280601f01601f1916602001820160405280156121ba5781602001600182028036833780820191505090505b5090505b60008514612247576001826121d3919061383f565b9150600a856121e29190613d66565b60306121ee9190613873565b60f81b8183815181106122045761220361332f565b5b60200101907effffffffffffffffffffffffffffffffffffffffffffffffffffffffffffff1916908160001a905350600a856122409190613d35565b94506121be565b8093505050505b919050565b600061225e82610afa565b905061226c81600084611a8a565b612277600083611248565b6001600360008373ffffffffffffffffffffffffffffffffffffffff1673ffffffffffffffffffffffffffffffffffffffff16815260200190815260200160002060008282546122c7919061383f565b925050819055506002600083815260200190815260200160002060006101000a81549073ffffffffffffffffffffffffffffffffffffffff021916905581600073ffffffffffffffffffffffffffffffffffffffff168273ffffffffffffffffffffffffffffffffffffffff167fddf252ad1be2c89b69c2b068fc378daa952ba7f163c4a11628f55a4df523b3ef60405160405180910390a461236c81600084611a9a565b5050565b505050565b6008805490506009600083815260200190815260200160002081905550600881908060018154018082558091505060019003906000526020600020016000909190919091505550565b600060016123cb84610bab565b6123d5919061383f565b90506000600760008481526020019081526020016000205490508181146124ba576000600660008673ffffffffffffffffffffffffffffffffffffffff1673ffffffffffffffffffffffffffffffffffffffff168152602001908152602001600020600084815260200190815260200160002054905080600660008773ffffffffffffffffffffffffffffffffffffffff1673ffffffffffffffffffffffffffffffffffffffff168152602001908152602001600020600084815260200190815260200160002081905550816007600083815260200190815260200160002081905550505b6007600084815260200190815260200160002060009055600660008573ffffffffffffffffffffffffffffffffffffffff1673ffffffffffffffffffffffffffffffffffffffff16815260200190815260200160002060008381526020019081526020016000206000905550505050565b6000600160088054905061253f919061383f565b905060006009600084815260200190815260200160002054905060006008838154811061256f5761256e61332f565b5b9060005260206000200154905080600883815481106125915761259061332f565b5b9060005260206000200181905550816009600083815260200190815260200160002081905550600960008581526020019081526020016000206000905560088054806125e0576125df613d97565b5b6001900381819060005260206000200160009055905550505050565b600061260783610bab565b905081600660008573ffffffffffffffffffffffffffffffffffffffff1673ffffffffffffffffffffffffffffffffffffffff168152602001908152602001600020600083815260200190815260200160002081905550806007600084815260200190815260200160002081905550505050565b50805461268790612e94565b6000825580601f1061269957506126b8565b601f0160209004906000526020600020908101906126b791906126bb565b5b50565b5b808211156126d45760008160009055506001016126bc565b5090565b6000604051905090565b600080fd5b600080fd5b60007fffffffff0000000000000000000000000000000000000000000000000000000082169050919050565b612721816126ec565b811461272c57600080fd5b50565b60008135905061273e81612718565b92915050565b60006020828403121561275a576127596126e2565b5b60006127688482850161272f565b91505092915050565b60008115159050919050565b61278681612771565b82525050565b60006020820190506127a1600083018461277d565b92915050565b600081519050919050565b600082825260208201905092915050565b60005b838110156127e15780820151818401526020810190506127c6565b838111156127f0576000848401525b50505050565b6000601f19601f8301169050919050565b6000612812826127a7565b61281c81856127b2565b935061282c8185602086016127c3565b612835816127f6565b840191505092915050565b6000602082019050818103600083015261285a8184612807565b905092915050565b600073ffffffffffffffffffffffffffffffffffffffff82169050919050565b600061288d82612862565b9050919050565b61289d81612882565b82525050565b60006020820190506128b86000830184612894565b92915050565b6000819050919050565b6128d1816128be565b81146128dc57600080fd5b50565b6000813590506128ee816128c8565b92915050565b60006020828403121561290a576129096126e2565b5b6000612918848285016128df565b91505092915050565b61292a81612882565b811461293557600080fd5b50565b60008135905061294781612921565b92915050565b60008060408385031215612964576129636126e2565b5b600061297285828601612938565b9250506020612983858286016128df565b9150509250929050565b612996816128be565b82525050565b60006020820190506129b1600083018461298d565b92915050565b6000806000606084860312156129d0576129cf6126e2565b5b60006129de86828701612938565b93505060206129ef86828701612938565b9250506040612a00868287016128df565b9150509250925092565b600060208284031215612a2057612a1f6126e2565b5b6000612a2e84828501612938565b91505092915050565b60008060408385031215612a4e57612a4d6126e2565b5b6000612a5c858286016128df565b9250506020612a6d858286016128df565b9150509250929050565b6000612a8282612862565b9050919050565b612a9281612a77565b82525050565b6000602082019050612aad6000830184612a89565b92915050565b612abc81612771565b8114612ac757600080fd5b50565b600081359050612ad981612ab3565b92915050565b60008060408385031215612af657612af56126e2565b5b6000612b0485828601612938565b9250506020612b1585828601612aca565b9150509250929050565b612b2881612a77565b8114612b3357600080fd5b50565b600081359050612b4581612b1f565b92915050565b600060208284031215612b6157612b606126e2565b5b6000612b6f84828501612b36565b91505092915050565b600080fd5b600080fd5b7f4e487b7100000000000000000000000000000000000000000000000000000000600052604160045260246000fd5b612bba826127f6565b810181811067ffffffffffffffff82111715612bd957612bd8612b82565b5b80604052505050565b6000612bec6126d8565b9050612bf88282612bb1565b919050565b600067ffffffffffffffff821115612c1857612c17612b82565b5b612c21826127f6565b9050602081019050919050565b82818337600083830152505050565b6000612c50612c4b84612bfd565b612be2565b905082815260208101848484011115612c6c57612c6b612b7d565b5b612c77848285612c2e565b509392505050565b600082601f830112612c9457612c93612b78565b5b8135612ca4848260208601612c3d565b91505092915050565b60008060008060808587031215612cc757612cc66126e2565b5b6000612cd587828801612938565b9450506020612ce687828801612938565b9350506040612cf7878288016128df565b925050606085013567ffffffffffffffff811115612d1857612d176126e7565b5b612d2487828801612c7f565b91505092959194509250565b600081519050919050565b600082825260208201905092915050565b6000819050602082019050919050565b612d65816128be565b82525050565b6000612d778383612d5c565b60208301905092915050565b6000602082019050919050565b6000612d9b82612d30565b612da58185612d3b565b9350612db083612d4c565b8060005b83811015612de1578151612dc88882612d6b565b9750612dd383612d83565b925050600181019050612db4565b5085935050505092915050565b60006040820190508181036000830152612e088185612807565b90508181036020830152612e1c8184612d90565b90509392505050565b60008060408385031215612e3c57612e3b6126e2565b5b6000612e4a85828601612938565b9250506020612e5b85828601612938565b9150509250929050565b7f4e487b7100000000000000000000000000000000000000000000000000000000600052602260045260246000fd5b60006002820490506001821680612eac57607f821691505b602082108103612ebf57612ebe612e65565b5b50919050565b7f4552433732313a20617070726f76656420717565727920666f72206e6f6e657860008201527f697374656e7420746f6b656e0000000000000000000000000000000000000000602082015250565b6000612f21602c836127b2565b9150612f2c82612ec5565b604082019050919050565b60006020820190508181036000830152612f5081612f14565b9050919050565b7f4552433732313a20617070726f76616c20746f2063757272656e74206f776e6560008201527f7200000000000000000000000000000000000000000000000000000000000000602082015250565b6000612fb36021836127b2565b9150612fbe82612f57565b604082019050919050565b60006020820190508181036000830152612fe281612fa6565b9050919050565b7f4552433732313a20617070726f76652063616c6c6572206973206e6f74206f7760008201527f6e6572206e6f7220617070726f76656420666f7220616c6c0000000000000000602082015250565b60006130456038836127b2565b915061305082612fe9565b604082019050919050565b6000602082019050818103600083015261307481613038565b9050919050565b7f4552433732313a207472616e736665722063616c6c6572206973206e6f74206f60008201527f776e6572206e6f7220617070726f766564000000000000000000000000000000602082015250565b60006130d76031836127b2565b91506130e28261307b565b604082019050919050565b60006020820190508181036000830152613106816130ca565b9050919050565b7f4f6e6c792074686520636f6e7472616374206d696e7465722063616e2063616c60008201527f6c20746869732066756e6374696f6e0000000000000000000000000000000000602082015250565b6000613169602f836127b2565b91506131748261310d565b604082019050919050565b600060208201905081810360008301526131988161315c565b9050919050565b7f6e6f74207a65726f206164647265737320666f72206e6577206d696e74657200600082015250565b60006131d5601f836127b2565b91506131e08261319f565b602082019050919050565b60006020820190508181036000830152613204816131c8565b9050919050565b7f455243373231456e756d657261626c653a206f776e657220696e646578206f7560008201527f74206f6620626f756e6473000000000000000000000000000000000000000000602082015250565b6000613267602b836127b2565b91506132728261320b565b604082019050919050565b600060208201905081810360008301526132968161325a565b9050919050565b7f455243373231456e756d657261626c653a20676c6f62616c20696e646578206f60008201527f7574206f6620626f756e64730000000000000000000000000000000000000000602082015250565b60006132f9602c836127b2565b91506133048261329d565b604082019050919050565b60006020820190508181036000830152613328816132ec565b9050919050565b7f4e487b7100000000000000000000000000000000000000000000000000000000600052603260045260246000fd5b7f4e487b7100000000000000000000000000000000000000000000000000000000600052601160045260246000fd5b6000613398826128be565b91507fffffffffffffffffffffffffffffffffffffffffffffffffffffffffffffffff82036133ca576133c961335e565b5b600182019050919050565b7f4552433732313a206f776e657220717565727920666f72206e6f6e657869737460008201527f656e7420746f6b656e0000000000000000000000000000000000000000000000602082015250565b60006134316029836127b2565b915061343c826133d5565b604082019050919050565b6000602082019050818103600083015261346081613424565b9050919050565b7f4552433732313a2062616c616e636520717565727920666f7220746865207a6560008201527f726f206164647265737300000000000000000000000000000000000000000000602082015250565b60006134c3602a836127b2565b91506134ce82613467565b604082019050919050565b600060208201905081810360008301526134f2816134b6565b9050919050565b7f4f6e6c792074686520636f6e7472616374206f776e65722063616e2063616c6c60008201527f20746869732066756e6374696f6e000000000000000000000000000000000000602082015250565b6000613555602e836127b2565b9150613560826134f9565b604082019050919050565b6000602082019050818103600083015261358481613548565b9050919050565b7f6e6f74207a65726f206164647265737320666f72206e6577206f776e65720000600082015250565b60006135c1601e836127b2565b91506135cc8261358b565b602082019050919050565b600060208201905081810360008301526135f0816135b4565b9050919050565b7f544b4d426f783a206f6e6c7920746f6b656e206f776e65722063616e206f706560008201527f6e00000000000000000000000000000000000000000000000000000000000000602082015250565b60006136536021836127b2565b915061365e826135f7565b604082019050919050565b6000602082019050818103600083015261368281613646565b9050919050565b7f4552433732313a206f70657261746f7220717565727920666f72206e6f6e657860008201527f697374656e7420746f6b656e0000000000000000000000000000000000000000602082015250565b60006136e5602c836127b2565b91506136f082613689565b604082019050919050565b60006020820190508181036000830152613714816136d8565b9050919050565b7f4552433732313a207472616e736665722066726f6d20696e636f72726563742060008201527f6f776e6572000000000000000000000000000000000000000000000000000000602082015250565b60006137776025836127b2565b91506137828261371b565b604082019050919050565b600060208201905081810360008301526137a68161376a565b9050919050565b7f4552433732313a207472616e7366657220746f20746865207a65726f2061646460008201527f7265737300000000000000000000000000000000000000000000000000000000602082015250565b60006138096024836127b2565b9150613814826137ad565b604082019050919050565b60006020820190508181036000830152613838816137fc565b9050919050565b600061384a826128be565b9150613855836128be565b9250828210156138685761386761335e565b5b828203905092915050565b600061387e826128be565b9150613889836128be565b9250827fffffffffffffffffffffffffffffffffffffffffffffffffffffffffffffffff038211156138be576138bd61335e565b5b828201905092915050565b7f4552433732313a20617070726f766520746f2063616c6c657200000000000000600082015250565b60006138ff6019836127b2565b915061390a826138c9565b602082019050919050565b6000602082019050818103600083015261392e816138f2565b9050919050565b7f4552433732313a207472616e7366657220746f206e6f6e20455243373231526560008201527f63656976657220696d706c656d656e7465720000000000000000000000000000602082015250565b60006139916032836127b2565b915061399c82613935565b604082019050919050565b600060208201905081810360008301526139c081613984565b9050919050565b7f45524337323155524953746f726167653a2055524920717565727920666f722060008201527f6e6f6e6578697374656e7420746f6b656e000000000000000000000000000000602082015250565b6000613a236031836127b2565b9150613a2e826139c7565b604082019050919050565b60006020820190508181036000830152613a5281613a16565b9050919050565b600081905092915050565b6000613a6f826127a7565b613a798185613a59565b9350613a898185602086016127c3565b80840191505092915050565b6000613aa18285613a64565b9150613aad8284613a64565b91508190509392505050565b600081519050919050565b600082825260208201905092915050565b6000613ae082613ab9565b613aea8185613ac4565b9350613afa8185602086016127c3565b613b03816127f6565b840191505092915050565b6000608082019050613b236000830187612894565b613b306020830186612894565b613b3d604083018561298d565b8181036060830152613b4f8184613ad5565b905095945050505050565b600081519050613b6981612718565b92915050565b600060208284031215613b8557613b846126e2565b5b6000613b9384828501613b5a565b91505092915050565b7f4552433732314d657461646174613a2055524920717565727920666f72206e6f60008201527f6e6578697374656e7420746f6b656e0000000000000000000000000000000000602082015250565b6000613bf8602f836127b2565b9150613c0382613b9c565b604082019050919050565b60006020820190508181036000830152613c2781613beb565b9050919050565b7f4552433732313a206d696e7420746f20746865207a65726f2061646472657373600082015250565b6000613c646020836127b2565b9150613c6f82613c2e565b602082019050919050565b60006020820190508181036000830152613c9381613c57565b9050919050565b7f4552433732313a20746f6b656e20616c7265616479206d696e74656400000000600082015250565b6000613cd0601c836127b2565b9150613cdb82613c9a565b602082019050919050565b60006020820190508181036000830152613cff81613cc3565b9050919050565b7f4e487b7100000000000000000000000000000000000000000000000000000000600052601260045260246000fd5b6000613d40826128be565b9150613d4b836128be565b925082613d5b57613d5a613d06565b5b828204905092915050565b6000613d71826128be565b9150613d7c836128be565b925082613d8c57613d8b613d06565b5b828206905092915050565b7f4e487b7100000000000000000000000000000000000000000000000000000000600052603160045260246000fdfe68747470733a2f2f616c7068612d6170692e7072756e656d61726b65742e78797a3a3535322f6e66742f696e6f2f746b6d2fa2646970667358221220989b4c7e4bd706627a16fe04a36ce4adc5dc5460c2679a08eb8d74e9806dc4a764736f6c634300080e0033",
  "immutableReferences": {},
  "source": "// SPDX-License-Identifier: MIT\r\n\r\npragma solidity ^0.8.14;\r\n\r\nimport \"@openzeppelin/contracts/token/ERC721/ERC721.sol\";\r\nimport \"@openzeppelin/contracts/token/ERC721/extensions/ERC721Enumerable.sol\";\r\nimport \"@openzeppelin/contracts/token/ERC721/extensions/ERC721URIStorage.sol\";\r\nimport \"./Owner.sol\";\r\n\r\ncontract TKMBoxA is ERC721, ERC721Enumerable, ERC721URIStorage, Owner, Minter {\r\n    event BoxOpen(address indexed opener, uint256 indexed tokenId);\r\n\r\n    constructor(address minter_)\r\n        ERC721(\"Three Kingdom Multiverse Box\", \"3KMBox_A\")\r\n        Minter(minter_)\r\n    {}\r\n\r\n    function inoMint(uint256 startId, uint256 endId) external onlyMinter {\r\n        for (uint256 k = startId; k <= endId; k++) {\r\n            _safeMint(msg.sender, k);\r\n        }\r\n    }\r\n\r\n    function collection(address owner)\r\n        public\r\n        view\r\n        returns (string memory, uint256[] memory)\r\n    {\r\n        uint256 boxAmount = ERC721.balanceOf(owner);\r\n        uint256[] memory boxes = new uint256[](boxAmount);\r\n        for (uint256 i = 0; i < boxAmount; i++) {\r\n            uint256 tokenId = ERC721Enumerable.tokenOfOwnerByIndex(owner, i);\r\n            boxes[i] = tokenId;\r\n        }\r\n        return (_baseURI(), boxes);\r\n    }\r\n\r\n    function boxOpen(uint256 tokenId) external {\r\n        require(\r\n            msg.sender == ownerOf(tokenId),\r\n            \"TKMBox: only token owner can open\"\r\n        );\r\n        \r\n        emit BoxOpen(msg.sender, tokenId);\r\n\r\n        _burn(tokenId);\r\n    }\r\n\r\n    function _baseURI() internal pure override returns (string memory) {\r\n        return \"https://alpha-api.prunemarket.xyz:552/nft/ino/tkm/\";\r\n    }\r\n\r\n    function _beforeTokenTransfer(\r\n        address from,\r\n        address to,\r\n        uint256 tokenId\r\n    ) internal override(ERC721, ERC721Enumerable) {\r\n        super._beforeTokenTransfer(from, to, tokenId);\r\n    }\r\n\r\n    function _burn(uint256 tokenId)\r\n        internal\r\n        override(ERC721, ERC721URIStorage)\r\n    {\r\n        super._burn(tokenId);\r\n    }\r\n\r\n    function tokenURI(uint256 tokenId)\r\n        public\r\n        view\r\n        override(ERC721, ERC721URIStorage)\r\n        returns (string memory)\r\n    {\r\n        return super.tokenURI(tokenId);\r\n    }\r\n\r\n    function supportsInterface(bytes4 interfaceId)\r\n        public\r\n        view\r\n        override(ERC721, ERC721Enumerable)\r\n        returns (bool)\r\n    {\r\n        return super.supportsInterface(interfaceId);\r\n    }\r\n}\r\n",
  "sourcePath": "C:\\Works\\1_Github\\solidity_tinyping\\contracts\\TKMBoxA.sol",
  "compiler": {
    "name": "solc",
    "version": "0.8.14+commit.80d49f37.Emscripten.clang"
  },
  "schemaVersion": "3.4.7",
  "updatedAt": "2022-10-25T01:45:03.393Z",
  "networkType": "ethereum",
  "devdoc": {
    "kind": "dev",
    "methods": {
      "approve(address,uint256)": {
        "details": "See {IERC721-approve}."
      },
      "balanceOf(address)": {
        "details": "See {IERC721-balanceOf}."
      },
      "getApproved(uint256)": {
        "details": "See {IERC721-getApproved}."
      },
      "isApprovedForAll(address,address)": {
        "details": "See {IERC721-isApprovedForAll}."
      },
      "name()": {
        "details": "See {IERC721Metadata-name}."
      },
      "ownerOf(uint256)": {
        "details": "See {IERC721-ownerOf}."
      },
      "safeTransferFrom(address,address,uint256)": {
        "details": "See {IERC721-safeTransferFrom}."
      },
      "safeTransferFrom(address,address,uint256,bytes)": {
        "details": "See {IERC721-safeTransferFrom}."
      },
      "setApprovalForAll(address,bool)": {
        "details": "See {IERC721-setApprovalForAll}."
      },
      "symbol()": {
        "details": "See {IERC721Metadata-symbol}."
      },
      "tokenByIndex(uint256)": {
        "details": "See {IERC721Enumerable-tokenByIndex}."
      },
      "tokenOfOwnerByIndex(address,uint256)": {
        "details": "See {IERC721Enumerable-tokenOfOwnerByIndex}."
      },
      "totalSupply()": {
        "details": "See {IERC721Enumerable-totalSupply}."
      },
      "transferFrom(address,address,uint256)": {
        "details": "See {IERC721-transferFrom}."
      }
    },
    "version": 1
  },
  "userdoc": {
    "kind": "user",
    "methods": {},
    "version": 1
  }
}