{
  "contractName": "TKMStaking2A",
  "abi": [
    {
      "inputs": [
        {
          "internalType": "address",
          "name": "_TKMNft",
          "type": "address"
        },
        {
          "internalType": "address",
          "name": "_NftHolder",
          "type": "address"
        }
      ],
      "stateMutability": "nonpayable",
      "type": "constructor"
    },
    {
      "anonymous": false,
      "inputs": [
        {
          "indexed": true,
          "internalType": "address",
          "name": "from",
          "type": "address"
        },
        {
          "indexed": false,
          "internalType": "uint256",
          "name": "blockNumber",
          "type": "uint256"
        },
        {
          "indexed": false,
          "internalType": "uint256",
          "name": "stakingIdx",
          "type": "uint256"
        }
      ],
      "name": "Harvest",
      "type": "event"
    },
    {
      "anonymous": false,
      "inputs": [
        {
          "indexed": false,
          "internalType": "address",
          "name": "account",
          "type": "address"
        }
      ],
      "name": "Paused",
      "type": "event"
    },
    {
      "anonymous": false,
      "inputs": [
        {
          "indexed": true,
          "internalType": "bytes32",
          "name": "role",
          "type": "bytes32"
        },
        {
          "indexed": true,
          "internalType": "bytes32",
          "name": "previousAdminRole",
          "type": "bytes32"
        },
        {
          "indexed": true,
          "internalType": "bytes32",
          "name": "newAdminRole",
          "type": "bytes32"
        }
      ],
      "name": "RoleAdminChanged",
      "type": "event"
    },
    {
      "anonymous": false,
      "inputs": [
        {
          "indexed": true,
          "internalType": "bytes32",
          "name": "role",
          "type": "bytes32"
        },
        {
          "indexed": true,
          "internalType": "address",
          "name": "account",
          "type": "address"
        },
        {
          "indexed": true,
          "internalType": "address",
          "name": "sender",
          "type": "address"
        }
      ],
      "name": "RoleGranted",
      "type": "event"
    },
    {
      "anonymous": false,
      "inputs": [
        {
          "indexed": true,
          "internalType": "bytes32",
          "name": "role",
          "type": "bytes32"
        },
        {
          "indexed": true,
          "internalType": "address",
          "name": "account",
          "type": "address"
        },
        {
          "indexed": true,
          "internalType": "address",
          "name": "sender",
          "type": "address"
        }
      ],
      "name": "RoleRevoked",
      "type": "event"
    },
    {
      "anonymous": false,
      "inputs": [
        {
          "indexed": true,
          "internalType": "address",
          "name": "from",
          "type": "address"
        },
        {
          "indexed": false,
          "internalType": "uint256",
          "name": "blockNumber",
          "type": "uint256"
        },
        {
          "indexed": false,
          "internalType": "uint256",
          "name": "stakeId",
          "type": "uint256"
        },
        {
          "indexed": false,
          "internalType": "uint256",
          "name": "stakingIdx",
          "type": "uint256"
        },
        {
          "indexed": false,
          "internalType": "uint256[]",
          "name": "ids",
          "type": "uint256[]"
        }
      ],
      "name": "Stake",
      "type": "event"
    },
    {
      "anonymous": false,
      "inputs": [
        {
          "indexed": false,
          "internalType": "address",
          "name": "account",
          "type": "address"
        }
      ],
      "name": "Unpaused",
      "type": "event"
    },
    {
      "anonymous": false,
      "inputs": [
        {
          "indexed": true,
          "internalType": "address",
          "name": "from",
          "type": "address"
        },
        {
          "indexed": false,
          "internalType": "uint256",
          "name": "blockNumber",
          "type": "uint256"
        },
        {
          "indexed": false,
          "internalType": "uint256",
          "name": "stakingIdx",
          "type": "uint256"
        }
      ],
      "name": "Withdraw",
      "type": "event"
    },
    {
      "inputs": [],
      "name": "DEFAULT_ADMIN_ROLE",
      "outputs": [
        {
          "internalType": "bytes32",
          "name": "",
          "type": "bytes32"
        }
      ],
      "stateMutability": "view",
      "type": "function",
      "constant": true
    },
    {
      "inputs": [],
      "name": "NftHolder",
      "outputs": [
        {
          "internalType": "address",
          "name": "",
          "type": "address"
        }
      ],
      "stateMutability": "view",
      "type": "function",
      "constant": true
    },
    {
      "inputs": [],
      "name": "TKMNft",
      "outputs": [
        {
          "internalType": "contract ERC721",
          "name": "",
          "type": "address"
        }
      ],
      "stateMutability": "view",
      "type": "function",
      "constant": true
    },
    {
      "inputs": [
        {
          "internalType": "bytes32",
          "name": "role",
          "type": "bytes32"
        }
      ],
      "name": "getRoleAdmin",
      "outputs": [
        {
          "internalType": "bytes32",
          "name": "",
          "type": "bytes32"
        }
      ],
      "stateMutability": "view",
      "type": "function",
      "constant": true
    },
    {
      "inputs": [
        {
          "internalType": "bytes32",
          "name": "role",
          "type": "bytes32"
        },
        {
          "internalType": "address",
          "name": "account",
          "type": "address"
        }
      ],
      "name": "grantRole",
      "outputs": [],
      "stateMutability": "nonpayable",
      "type": "function"
    },
    {
      "inputs": [
        {
          "internalType": "bytes32",
          "name": "role",
          "type": "bytes32"
        },
        {
          "internalType": "address",
          "name": "account",
          "type": "address"
        }
      ],
      "name": "hasRole",
      "outputs": [
        {
          "internalType": "bool",
          "name": "",
          "type": "bool"
        }
      ],
      "stateMutability": "view",
      "type": "function",
      "constant": true
    },
    {
      "inputs": [],
      "name": "paused",
      "outputs": [
        {
          "internalType": "bool",
          "name": "",
          "type": "bool"
        }
      ],
      "stateMutability": "view",
      "type": "function",
      "constant": true
    },
    {
      "inputs": [
        {
          "internalType": "uint256",
          "name": "",
          "type": "uint256"
        }
      ],
      "name": "progressing",
      "outputs": [
        {
          "internalType": "address",
          "name": "user",
          "type": "address"
        },
        {
          "internalType": "uint256",
          "name": "stakeId",
          "type": "uint256"
        }
      ],
      "stateMutability": "view",
      "type": "function",
      "constant": true
    },
    {
      "inputs": [
        {
          "internalType": "bytes32",
          "name": "role",
          "type": "bytes32"
        },
        {
          "internalType": "address",
          "name": "account",
          "type": "address"
        }
      ],
      "name": "renounceRole",
      "outputs": [],
      "stateMutability": "nonpayable",
      "type": "function"
    },
    {
      "inputs": [
        {
          "internalType": "bytes32",
          "name": "role",
          "type": "bytes32"
        },
        {
          "internalType": "address",
          "name": "account",
          "type": "address"
        }
      ],
      "name": "revokeRole",
      "outputs": [],
      "stateMutability": "nonpayable",
      "type": "function"
    },
    {
      "inputs": [
        {
          "internalType": "uint256",
          "name": "",
          "type": "uint256"
        }
      ],
      "name": "stakeIdList",
      "outputs": [
        {
          "internalType": "uint256",
          "name": "",
          "type": "uint256"
        }
      ],
      "stateMutability": "view",
      "type": "function",
      "constant": true
    },
    {
      "inputs": [
        {
          "internalType": "uint256",
          "name": "",
          "type": "uint256"
        }
      ],
      "name": "stakeIds",
      "outputs": [
        {
          "internalType": "bool",
          "name": "",
          "type": "bool"
        }
      ],
      "stateMutability": "view",
      "type": "function",
      "constant": true
    },
    {
      "inputs": [
        {
          "internalType": "uint256",
          "name": "",
          "type": "uint256"
        }
      ],
      "name": "stakedInfoList",
      "outputs": [
        {
          "internalType": "uint256",
          "name": "nftCount",
          "type": "uint256"
        },
        {
          "internalType": "uint256",
          "name": "walletCount",
          "type": "uint256"
        }
      ],
      "stateMutability": "view",
      "type": "function",
      "constant": true
    },
    {
      "inputs": [],
      "name": "stakingIdx",
      "outputs": [
        {
          "internalType": "uint256",
          "name": "",
          "type": "uint256"
        }
      ],
      "stateMutability": "view",
      "type": "function",
      "constant": true
    },
    {
      "inputs": [
        {
          "internalType": "uint256",
          "name": "",
          "type": "uint256"
        }
      ],
      "name": "stakings",
      "outputs": [
        {
          "internalType": "uint256",
          "name": "startTime",
          "type": "uint256"
        },
        {
          "internalType": "uint256",
          "name": "endTime",
          "type": "uint256"
        },
        {
          "internalType": "uint8",
          "name": "nftAmount",
          "type": "uint8"
        }
      ],
      "stateMutability": "view",
      "type": "function",
      "constant": true
    },
    {
      "inputs": [
        {
          "internalType": "bytes4",
          "name": "interfaceId",
          "type": "bytes4"
        }
      ],
      "name": "supportsInterface",
      "outputs": [
        {
          "internalType": "bool",
          "name": "",
          "type": "bool"
        }
      ],
      "stateMutability": "view",
      "type": "function",
      "constant": true
    },
    {
      "inputs": [],
      "name": "pause",
      "outputs": [],
      "stateMutability": "nonpayable",
      "type": "function"
    },
    {
      "inputs": [],
      "name": "unpause",
      "outputs": [],
      "stateMutability": "nonpayable",
      "type": "function"
    },
    {
      "inputs": [
        {
          "internalType": "uint256",
          "name": "_stakeId",
          "type": "uint256"
        },
        {
          "internalType": "uint256",
          "name": "_startTime",
          "type": "uint256"
        },
        {
          "internalType": "uint256",
          "name": "_endTime",
          "type": "uint256"
        },
        {
          "internalType": "uint8",
          "name": "_nftAmount",
          "type": "uint8"
        }
      ],
      "name": "setStaking",
      "outputs": [],
      "stateMutability": "nonpayable",
      "type": "function"
    },
    {
      "inputs": [
        {
          "internalType": "uint256",
          "name": "_stakeId",
          "type": "uint256"
        },
        {
          "internalType": "uint256[]",
          "name": "_ids",
          "type": "uint256[]"
        }
      ],
      "name": "stake",
      "outputs": [],
      "stateMutability": "nonpayable",
      "type": "function"
    },
    {
      "inputs": [
        {
          "internalType": "uint256",
          "name": "_stakingIdx",
          "type": "uint256"
        }
      ],
      "name": "withdraw",
      "outputs": [],
      "stateMutability": "nonpayable",
      "type": "function"
    },
    {
      "inputs": [
        {
          "internalType": "uint256",
          "name": "_stakingIdx",
          "type": "uint256"
        }
      ],
      "name": "harvest",
      "outputs": [],
      "stateMutability": "nonpayable",
      "type": "function"
    },
    {
      "inputs": [
        {
          "internalType": "uint256",
          "name": "_stakingIdx",
          "type": "uint256"
        }
      ],
      "name": "getIds",
      "outputs": [
        {
          "internalType": "uint256[]",
          "name": "ids",
          "type": "uint256[]"
        }
      ],
      "stateMutability": "view",
      "type": "function",
      "constant": true
    },
    {
      "inputs": [],
      "name": "getStakedInfo",
      "outputs": [
        {
          "internalType": "uint256",
          "name": "blockNumber",
          "type": "uint256"
        },
        {
          "components": [
            {
              "internalType": "uint256",
              "name": "nftCount",
              "type": "uint256"
            },
            {
              "internalType": "uint256",
              "name": "walletCount",
              "type": "uint256"
            }
          ],
          "internalType": "struct TKMStaking2A.stakedInfo[8]",
          "name": "stakedList",
          "type": "tuple[8]"
        }
      ],
      "stateMutability": "view",
      "type": "function",
      "constant": true
    }
  ],
  "bytecode": "0x6080604052604051806101000160405280600960ff168152602001600a60ff168152602001600b60ff168152602001600c60ff168152602001600d60ff168152602001600e60ff168152602001600f60ff168152602001601060ff168152506004906008620000709291906200039c565b503480156200007e57600080fd5b506040516200372a3803806200372a8339818101604052810190620000a491906200046f565b60008060006101000a81548160ff021916908315150217905550620000d36000801b336200023860201b60201c565b81600260006101000a81548173ffffffffffffffffffffffffffffffffffffffff021916908373ffffffffffffffffffffffffffffffffffffffff16021790555080600360006101000a81548173ffffffffffffffffffffffffffffffffffffffff021916908373ffffffffffffffffffffffffffffffffffffffff16021790555060005b6008811015620001bc576001600c6000600484600881106200017f576200017e620004b6565b5b0154815260200190815260200160002060006101000a81548160ff0219169083151502179055508080620001b3906200051e565b91505062000158565b5060005b60088110156200022f5760006040518060400160405280600081526020016000815250905080600e8360088110620001fd57620001fc620004b6565b5b60020201600082015181600001556020820151816001015590505050808062000226906200051e565b915050620001c0565b5050506200056b565b6200024a82826200032960201b60201c565b6200032557600180600084815260200190815260200160002060000160008373ffffffffffffffffffffffffffffffffffffffff1673ffffffffffffffffffffffffffffffffffffffff16815260200190815260200160002060006101000a81548160ff021916908315150217905550620002ca6200039460201b60201c565b73ffffffffffffffffffffffffffffffffffffffff168173ffffffffffffffffffffffffffffffffffffffff16837f2f8788117e7eff1d82e926ec794901d17c78024a50270940304540a733656f0d60405160405180910390a45b5050565b60006001600084815260200190815260200160002060000160008373ffffffffffffffffffffffffffffffffffffffff1673ffffffffffffffffffffffffffffffffffffffff16815260200190815260200160002060009054906101000a900460ff16905092915050565b600033905090565b8260088101928215620003d3579160200282015b82811115620003d2578251829060ff16905591602001919060010190620003b0565b5b509050620003e29190620003e6565b5090565b5b8082111562000401576000816000905550600101620003e7565b5090565b600080fd5b600073ffffffffffffffffffffffffffffffffffffffff82169050919050565b600062000437826200040a565b9050919050565b62000449816200042a565b81146200045557600080fd5b50565b60008151905062000469816200043e565b92915050565b6000806040838503121562000489576200048862000405565b5b6000620004998582860162000458565b9250506020620004ac8582860162000458565b9150509250929050565b7f4e487b7100000000000000000000000000000000000000000000000000000000600052603260045260246000fd5b7f4e487b7100000000000000000000000000000000000000000000000000000000600052601160045260246000fd5b6000819050919050565b60006200052b8262000514565b91507fffffffffffffffffffffffffffffffffffffffffffffffffffffffffffffffff820362000560576200055f620004e5565b5b600182019050919050565b6131af806200057b6000396000f3fe608060405234801561001057600080fd5b50600436106101585760003560e01c806361864f87116100c3578063b62888bd1161007c578063b62888bd146103c6578063c4f0c1fc146103f7578063c751600a14610429578063d547741f14610448578063dab3970814610464578063ddc632621461048257610158565b806361864f87146103165780638456cb591461033257806391d148541461033c578063a217fddf1461036c578063b3e78bed1461038a578063b58634fe146103a857610158565b80632f2ff15d116101155780632f2ff15d1461025657806333c400aa1461027257806336568abe146102a25780633f4ba83a146102be57806345c0403a146102c85780635c975abb146102f857610158565b806301ffc9a71461015d57806316f605571461018d5780631aa16ec4146101a95780631d80cf32146101da578063248a9ca31461020a5780632e1a7d4d1461023a575b600080fd5b61017760048036038101906101729190611dac565b61049e565b6040516101849190611df4565b60405180910390f35b6101a760048036038101906101a29190611f9e565b610518565b005b6101c360048036038101906101be9190611ffa565b610ac9565b6040516101d1929190612036565b60405180910390f35b6101f460048036038101906101ef9190611ffa565b610af3565b6040516102019190611df4565b60405180910390f35b610224600480360381019061021f9190612095565b610b13565b60405161023191906120d1565b60405180910390f35b610254600480360381019061024f9190611ffa565b610b33565b005b610270600480360381019061026b919061214a565b610f6d565b005b61028c60048036038101906102879190611ffa565b610f8e565b6040516102999190612248565b60405180910390f35b6102bc60048036038101906102b7919061214a565b610ffc565b005b6102c661107f565b005b6102e260048036038101906102dd9190611ffa565b611097565b6040516102ef919061226a565b60405180910390f35b6103006110b2565b60405161030d9190611df4565b60405180910390f35b610330600480360381019061032b91906122be565b6110c8565b005b61033a61123e565b005b6103566004803603810190610351919061214a565b611256565b6040516103639190611df4565b60405180910390f35b6103746112c1565b60405161038191906120d1565b60405180910390f35b6103926112c8565b60405161039f9190612334565b60405180910390f35b6103b06112ee565b6040516103bd919061226a565b60405180910390f35b6103e060048036038101906103db9190611ffa565b6112f4565b6040516103ee92919061234f565b60405180910390f35b610411600480360381019061040c9190611ffa565b611338565b60405161042093929190612387565b60405180910390f35b61043161136f565b60405161043f929190612489565b60405180910390f35b610462600480360381019061045d919061214a565b6113de565b005b61046c6113ff565b6040516104799190612512565b60405180910390f35b61049c60048036038101906104979190611ffa565b611425565b005b60007f7965db0b000000000000000000000000000000000000000000000000000000007bffffffffffffffffffffffffffffffffffffffffffffffffffffffff1916827bffffffffffffffffffffffffffffffffffffffffffffffffffffffff19161480610511575061051082611609565b5b9050919050565b6105206110b2565b15610560576040517f08c379a00000000000000000000000000000000000000000000000000000000081526004016105579061258a565b60405180910390fd5b600c600083815260200190815260200160002060009054906101000a900460ff16151560011515146105c7576040517f08c379a00000000000000000000000000000000000000000000000000000000081526004016105be9061261c565b60405180910390fd5b42601e6000848152602001908152602001600020600001541115610620576040517f08c379a0000000000000000000000000000000000000000000000000000000008152600401610617906126ae565b60405180910390fd5b42601e6000848152602001908152602001600020600101541015610679576040517f08c379a000000000000000000000000000000000000000000000000000000000815260040161067090612740565b60405180910390fd5b8051601e600084815260200190815260200160002060020160009054906101000a900460ff1660ff16146106e2576040517f08c379a00000000000000000000000000000000000000000000000000000000081526004016106d9906127d2565b60405180910390fd5b60005b601e600084815260200190815260200160002060020160009054906101000a900460ff1660ff16811015610849573373ffffffffffffffffffffffffffffffffffffffff16600260009054906101000a900473ffffffffffffffffffffffffffffffffffffffff1673ffffffffffffffffffffffffffffffffffffffff16636352211e84848151811061077b5761077a6127f2565b5b60200260200101516040518263ffffffff1660e01b815260040161079f919061226a565b602060405180830381865afa1580156107bc573d6000803e3d6000fd5b505050506040513d601f19601f820116820180604052508101906107e09190612836565b73ffffffffffffffffffffffffffffffffffffffff1614610836576040517f08c379a000000000000000000000000000000000000000000000000000000000815260040161082d906128d5565b60405180910390fd5b808061084190612924565b9150506106e5565b50600d6000815461085990612924565b9190508190555060005b601e600084815260200190815260200160002060020160009054906101000a900460ff1660ff1681101561097157600260009054906101000a900473ffffffffffffffffffffffffffffffffffffffff1673ffffffffffffffffffffffffffffffffffffffff166342842e0e33600360009054906101000a900473ffffffffffffffffffffffffffffffffffffffff16858581518110610906576109056127f2565b5b60200260200101516040518463ffffffff1660e01b815260040161092c9392919061296c565b600060405180830381600087803b15801561094657600080fd5b505af115801561095a573d6000803e3d6000fd5b50505050808061096990612924565b915050610863565b506000601f6000600d5481526020019081526020016000209050338160000160006101000a81548173ffffffffffffffffffffffffffffffffffffffff021916908373ffffffffffffffffffffffffffffffffffffffff160217905550828160010181905550818160020190805190602001906109ef929190611c6d565b506003600e600185610a0191906129a3565b60088110610a1257610a116127f2565b5b600202016000016000828254610a2891906129d7565b925050819055506001600e600185610a4091906129a3565b60088110610a5157610a506127f2565b5b600202016001016000828254610a6791906129d7565b925050819055503373ffffffffffffffffffffffffffffffffffffffff167f1ee5ed85e4ccf21a09b0d94bae9ce3d430778ea6ca542ab05c99001e698842934385600d5486604051610abc9493929190612a2d565b60405180910390a2505050565b600e8160088110610ad957600080fd5b600202016000915090508060000154908060010154905082565b600c6020528060005260406000206000915054906101000a900460ff1681565b600060016000838152602001908152602001600020600101549050919050565b610b3b6110b2565b15610b7b576040517f08c379a0000000000000000000000000000000000000000000000000000000008152600401610b729061258a565b60405180910390fd5b600073ffffffffffffffffffffffffffffffffffffffff16601f600083815260200190815260200160002060000160009054906101000a900473ffffffffffffffffffffffffffffffffffffffff1673ffffffffffffffffffffffffffffffffffffffff1603610c20576040517f08c379a0000000000000000000000000000000000000000000000000000000008152600401610c1790612aeb565b60405180910390fd5b3373ffffffffffffffffffffffffffffffffffffffff16601f600083815260200190815260200160002060000160009054906101000a900473ffffffffffffffffffffffffffffffffffffffff1673ffffffffffffffffffffffffffffffffffffffff1614610cc4576040517f08c379a0000000000000000000000000000000000000000000000000000000008152600401610cbb90612b7d565b60405180910390fd5b6003600e6001601f600085815260200190815260200160002060010154610ceb91906129a3565b60088110610cfc57610cfb6127f2565b5b600202016000016000828254610d1291906129a3565b925050819055506001600e6001601f600085815260200190815260200160002060010154610d4091906129a3565b60088110610d5157610d506127f2565b5b600202016001016000828254610d6791906129a3565b925050819055506000601f6000838152602001908152602001600020600201805480602002602001604051908101604052809291908181526020018280548015610dd057602002820191906000526020600020905b815481526020019060010190808311610dbc575b50505050509050601f6000838152602001908152602001600020600080820160006101000a81549073ffffffffffffffffffffffffffffffffffffffff02191690556001820160009055600282016000610e2a9190611cba565b505060005b8151811015610f1857600260009054906101000a900473ffffffffffffffffffffffffffffffffffffffff1673ffffffffffffffffffffffffffffffffffffffff166342842e0e600360009054906101000a900473ffffffffffffffffffffffffffffffffffffffff1633858581518110610ead57610eac6127f2565b5b60200260200101516040518463ffffffff1660e01b8152600401610ed39392919061296c565b600060405180830381600087803b158015610eed57600080fd5b505af1158015610f01573d6000803e3d6000fd5b505050508080610f1090612924565b915050610e2f565b503373ffffffffffffffffffffffffffffffffffffffff167ff279e6a1f5e320cca91135676d9cb6e44ca8a08c0b88342bcdb1144f6511b5684384604051610f61929190612036565b60405180910390a25050565b610f7682610b13565b610f7f81611673565b610f898383611687565b505050565b6060601f6000838152602001908152602001600020600201805480602002602001604051908101604052809291908181526020018280548015610ff057602002820191906000526020600020905b815481526020019060010190808311610fdc575b50505050509050919050565b611004611767565b73ffffffffffffffffffffffffffffffffffffffff168173ffffffffffffffffffffffffffffffffffffffff1614611071576040517f08c379a000000000000000000000000000000000000000000000000000000000815260040161106890612c0f565b60405180910390fd5b61107b828261176f565b5050565b6000801b61108c81611673565b611094611851565b50565b600481600881106110a757600080fd5b016000915090505481565b60008060009054906101000a900460ff16905090565b6000801b6110d581611673565b601e6000868152602001908152602001600020600001546000146111ad57601e600086815260200190815260200160002060000154831161114b576040517f08c379a000000000000000000000000000000000000000000000000000000000815260040161114290612ca1565b60405180910390fd5b42831161118d576040517f08c379a000000000000000000000000000000000000000000000000000000000815260040161118490612d33565b60405180910390fd5b82601e600087815260200190815260200160002060010181905550611237565b4283116111ef576040517f08c379a00000000000000000000000000000000000000000000000000000000081526004016111e690612d33565b60405180910390fd5b6000601e60008781526020019081526020016000209050848160000181905550838160010181905550828160020160006101000a81548160ff021916908360ff160217905550505b5050505050565b6000801b61124b81611673565b6112536118f2565b50565b60006001600084815260200190815260200160002060000160008373ffffffffffffffffffffffffffffffffffffffff1673ffffffffffffffffffffffffffffffffffffffff16815260200190815260200160002060009054906101000a900460ff16905092915050565b6000801b81565b600360009054906101000a900473ffffffffffffffffffffffffffffffffffffffff1681565b600d5481565b601f6020528060005260406000206000915090508060000160009054906101000a900473ffffffffffffffffffffffffffffffffffffffff16908060010154905082565b601e6020528060005260406000206000915090508060000154908060010154908060020160009054906101000a900460ff16905083565b6000611379611cdb565b43600e80600880602002604051908101604052809291906000905b828210156113d0578382600202016040518060400160405290816000820154815260200160018201548152505081526020019060010190611394565b505050509050915091509091565b6113e782610b13565b6113f081611673565b6113fa838361176f565b505050565b600260009054906101000a900473ffffffffffffffffffffffffffffffffffffffff1681565b61142d6110b2565b1561146d576040517f08c379a00000000000000000000000000000000000000000000000000000000081526004016114649061258a565b60405180910390fd5b600073ffffffffffffffffffffffffffffffffffffffff16601f600083815260200190815260200160002060000160009054906101000a900473ffffffffffffffffffffffffffffffffffffffff1673ffffffffffffffffffffffffffffffffffffffff1603611512576040517f08c379a000000000000000000000000000000000000000000000000000000000815260040161150990612dc5565b60405180910390fd5b3373ffffffffffffffffffffffffffffffffffffffff16601f600083815260200190815260200160002060000160009054906101000a900473ffffffffffffffffffffffffffffffffffffffff1673ffffffffffffffffffffffffffffffffffffffff16146115b6576040517f08c379a00000000000000000000000000000000000000000000000000000000081526004016115ad90612e57565b60405180910390fd5b3373ffffffffffffffffffffffffffffffffffffffff167f71bab65ced2e5750775a0613be067df48ef06cf92a496ebf7663ae066092495443836040516115fe929190612036565b60405180910390a250565b60007f01ffc9a7000000000000000000000000000000000000000000000000000000007bffffffffffffffffffffffffffffffffffffffffffffffffffffffff1916827bffffffffffffffffffffffffffffffffffffffffffffffffffffffff1916149050919050565b6116848161167f611767565b611994565b50565b6116918282611256565b61176357600180600084815260200190815260200160002060000160008373ffffffffffffffffffffffffffffffffffffffff1673ffffffffffffffffffffffffffffffffffffffff16815260200190815260200160002060006101000a81548160ff021916908315150217905550611708611767565b73ffffffffffffffffffffffffffffffffffffffff168173ffffffffffffffffffffffffffffffffffffffff16837f2f8788117e7eff1d82e926ec794901d17c78024a50270940304540a733656f0d60405160405180910390a45b5050565b600033905090565b6117798282611256565b1561184d5760006001600084815260200190815260200160002060000160008373ffffffffffffffffffffffffffffffffffffffff1673ffffffffffffffffffffffffffffffffffffffff16815260200190815260200160002060006101000a81548160ff0219169083151502179055506117f2611767565b73ffffffffffffffffffffffffffffffffffffffff168173ffffffffffffffffffffffffffffffffffffffff16837ff6391f5c32d9c69d2a47ea670b442974b53935d1edc7fd64eb21e047a839171b60405160405180910390a45b5050565b6118596110b2565b611898576040517f08c379a000000000000000000000000000000000000000000000000000000000815260040161188f90612ec3565b60405180910390fd5b60008060006101000a81548160ff0219169083151502179055507f5db9ee0a495bf2e6ff9c91a7834c1ba4fdd244a5e8aa4e537bd38aeae4b073aa6118db611767565b6040516118e89190612334565b60405180910390a1565b6118fa6110b2565b1561193a576040517f08c379a00000000000000000000000000000000000000000000000000000000081526004016119319061258a565b60405180910390fd5b60016000806101000a81548160ff0219169083151502179055507f62e78cea01bee320cd4e420270b5ea74000d11b0c9f74754ebdbfc544b05a25861197d611767565b60405161198a9190612334565b60405180910390a1565b61199e8282611256565b611a2d576119c38173ffffffffffffffffffffffffffffffffffffffff166014611a31565b6119d18360001c6020611a31565b6040516020016119e2929190612ff5565b6040516020818303038152906040526040517f08c379a0000000000000000000000000000000000000000000000000000000008152600401611a249190613068565b60405180910390fd5b5050565b606060006002836002611a44919061308a565b611a4e91906129d7565b67ffffffffffffffff811115611a6757611a66611e5b565b5b6040519080825280601f01601f191660200182016040528015611a995781602001600182028036833780820191505090505b5090507f300000000000000000000000000000000000000000000000000000000000000081600081518110611ad157611ad06127f2565b5b60200101907effffffffffffffffffffffffffffffffffffffffffffffffffffffffffffff1916908160001a9053507f780000000000000000000000000000000000000000000000000000000000000081600181518110611b3557611b346127f2565b5b60200101907effffffffffffffffffffffffffffffffffffffffffffffffffffffffffffff1916908160001a90535060006001846002611b75919061308a565b611b7f91906129d7565b90505b6001811115611c1f577f3031323334353637383961626364656600000000000000000000000000000000600f861660108110611bc157611bc06127f2565b5b1a60f81b828281518110611bd857611bd76127f2565b5b60200101907effffffffffffffffffffffffffffffffffffffffffffffffffffffffffffff1916908160001a905350600485901c945080611c18906130e4565b9050611b82565b5060008414611c63576040517f08c379a0000000000000000000000000000000000000000000000000000000008152600401611c5a90613159565b60405180910390fd5b8091505092915050565b828054828255906000526020600020908101928215611ca9579160200282015b82811115611ca8578251825591602001919060010190611c8d565b5b509050611cb69190611d09565b5090565b5080546000825590600052602060002090810190611cd89190611d09565b50565b6040518061010001604052806008905b611cf3611d26565b815260200190600190039081611ceb5790505090565b5b80821115611d22576000816000905550600101611d0a565b5090565b604051806040016040528060008152602001600081525090565b6000604051905090565b600080fd5b600080fd5b60007fffffffff0000000000000000000000000000000000000000000000000000000082169050919050565b611d8981611d54565b8114611d9457600080fd5b50565b600081359050611da681611d80565b92915050565b600060208284031215611dc257611dc1611d4a565b5b6000611dd084828501611d97565b91505092915050565b60008115159050919050565b611dee81611dd9565b82525050565b6000602082019050611e096000830184611de5565b92915050565b6000819050919050565b611e2281611e0f565b8114611e2d57600080fd5b50565b600081359050611e3f81611e19565b92915050565b600080fd5b6000601f19601f8301169050919050565b7f4e487b7100000000000000000000000000000000000000000000000000000000600052604160045260246000fd5b611e9382611e4a565b810181811067ffffffffffffffff82111715611eb257611eb1611e5b565b5b80604052505050565b6000611ec5611d40565b9050611ed18282611e8a565b919050565b600067ffffffffffffffff821115611ef157611ef0611e5b565b5b602082029050602081019050919050565b600080fd5b6000611f1a611f1584611ed6565b611ebb565b90508083825260208201905060208402830185811115611f3d57611f3c611f02565b5b835b81811015611f665780611f528882611e30565b845260208401935050602081019050611f3f565b5050509392505050565b600082601f830112611f8557611f84611e45565b5b8135611f95848260208601611f07565b91505092915050565b60008060408385031215611fb557611fb4611d4a565b5b6000611fc385828601611e30565b925050602083013567ffffffffffffffff811115611fe457611fe3611d4f565b5b611ff085828601611f70565b9150509250929050565b6000602082840312156120105761200f611d4a565b5b600061201e84828501611e30565b91505092915050565b61203081611e0f565b82525050565b600060408201905061204b6000830185612027565b6120586020830184612027565b9392505050565b6000819050919050565b6120728161205f565b811461207d57600080fd5b50565b60008135905061208f81612069565b92915050565b6000602082840312156120ab576120aa611d4a565b5b60006120b984828501612080565b91505092915050565b6120cb8161205f565b82525050565b60006020820190506120e660008301846120c2565b92915050565b600073ffffffffffffffffffffffffffffffffffffffff82169050919050565b6000612117826120ec565b9050919050565b6121278161210c565b811461213257600080fd5b50565b6000813590506121448161211e565b92915050565b6000806040838503121561216157612160611d4a565b5b600061216f85828601612080565b925050602061218085828601612135565b9150509250929050565b600081519050919050565b600082825260208201905092915050565b6000819050602082019050919050565b6121bf81611e0f565b82525050565b60006121d183836121b6565b60208301905092915050565b6000602082019050919050565b60006121f58261218a565b6121ff8185612195565b935061220a836121a6565b8060005b8381101561223b57815161222288826121c5565b975061222d836121dd565b92505060018101905061220e565b5085935050505092915050565b6000602082019050818103600083015261226281846121ea565b905092915050565b600060208201905061227f6000830184612027565b92915050565b600060ff82169050919050565b61229b81612285565b81146122a657600080fd5b50565b6000813590506122b881612292565b92915050565b600080600080608085870312156122d8576122d7611d4a565b5b60006122e687828801611e30565b94505060206122f787828801611e30565b935050604061230887828801611e30565b9250506060612319878288016122a9565b91505092959194509250565b61232e8161210c565b82525050565b60006020820190506123496000830184612325565b92915050565b60006040820190506123646000830185612325565b6123716020830184612027565b9392505050565b61238181612285565b82525050565b600060608201905061239c6000830186612027565b6123a96020830185612027565b6123b66040830184612378565b949350505050565b600060089050919050565b600081905092915050565b6000819050919050565b6040820160008201516123f460008501826121b6565b50602082015161240760208501826121b6565b50505050565b600061241983836123de565b60408301905092915050565b6000602082019050919050565b61243b816123be565b61244581846123c9565b9250612450826123d4565b8060005b83811015612481578151612468878261240d565b965061247383612425565b925050600181019050612454565b505050505050565b60006102208201905061249f6000830185612027565b6124ac6020830184612432565b9392505050565b6000819050919050565b60006124d86124d36124ce846120ec565b6124b3565b6120ec565b9050919050565b60006124ea826124bd565b9050919050565b60006124fc826124df565b9050919050565b61250c816124f1565b82525050565b60006020820190506125276000830184612503565b92915050565b600082825260208201905092915050565b7f5061757361626c653a2070617573656400000000000000000000000000000000600082015250565b600061257460108361252d565b915061257f8261253e565b602082019050919050565b600060208201905081810360008301526125a381612567565b9050919050565b7f5b544b4d5374616b696e6732415d5b7374616b655d3a20696e76616c6964207360008201527f74616b6520696400000000000000000000000000000000000000000000000000602082015250565b600061260660278361252d565b9150612611826125aa565b604082019050919050565b60006020820190508181036000830152612635816125f9565b9050919050565b7f5b544b4d5374616b696e6732415d5b7374616b696e675d3a207374616b696e6760008201527f206973206e6f7420737461727465640000000000000000000000000000000000602082015250565b6000612698602f8361252d565b91506126a38261263c565b604082019050919050565b600060208201905081810360008301526126c78161268b565b9050919050565b7f5b544b4d5374616b696e6732415d5b7374616b696e675d3a207374616b696e6760008201527f20697320656e6465640000000000000000000000000000000000000000000000602082015250565b600061272a60298361252d565b9150612735826126ce565b604082019050919050565b600060208201905081810360008301526127598161271d565b9050919050565b7f5b544b4d5374616b696e6732415d5b7374616b696e675d3a206e6f742065717560008201527f616c206e6674416d6f756e740000000000000000000000000000000000000000602082015250565b60006127bc602c8361252d565b91506127c782612760565b604082019050919050565b600060208201905081810360008301526127eb816127af565b9050919050565b7f4e487b7100000000000000000000000000000000000000000000000000000000600052603260045260246000fd5b6000815190506128308161211e565b92915050565b60006020828403121561284c5761284b611d4a565b5b600061285a84828501612821565b91505092915050565b7f5b544b4d5374616b696e6732415d5b7374616b696e675d3a206f776e6572206960008201527f6e76616c69640000000000000000000000000000000000000000000000000000602082015250565b60006128bf60268361252d565b91506128ca82612863565b604082019050919050565b600060208201905081810360008301526128ee816128b2565b9050919050565b7f4e487b7100000000000000000000000000000000000000000000000000000000600052601160045260246000fd5b600061292f82611e0f565b91507fffffffffffffffffffffffffffffffffffffffffffffffffffffffffffffffff8203612961576129606128f5565b5b600182019050919050565b60006060820190506129816000830186612325565b61298e6020830185612325565b61299b6040830184612027565b949350505050565b60006129ae82611e0f565b91506129b983611e0f565b9250828210156129cc576129cb6128f5565b5b828203905092915050565b60006129e282611e0f565b91506129ed83611e0f565b9250827fffffffffffffffffffffffffffffffffffffffffffffffffffffffffffffffff03821115612a2257612a216128f5565b5b828201905092915050565b6000608082019050612a426000830187612027565b612a4f6020830186612027565b612a5c6040830185612027565b8181036060830152612a6e81846121ea565b905095945050505050565b7f5b544b4d5374616b696e6732415d5b77697468647261775d3a206e6f7420657860008201527f697374207374616b696e67206461746100000000000000000000000000000000602082015250565b6000612ad560308361252d565b9150612ae082612a79565b604082019050919050565b60006020820190508181036000830152612b0481612ac8565b9050919050565b7f5b544b4d5374616b696e6732415d5b77697468647261775d3a206e6f74204f7760008201527f6e65720000000000000000000000000000000000000000000000000000000000602082015250565b6000612b6760238361252d565b9150612b7282612b0b565b604082019050919050565b60006020820190508181036000830152612b9681612b5a565b9050919050565b7f416363657373436f6e74726f6c3a2063616e206f6e6c792072656e6f756e636560008201527f20726f6c657320666f722073656c660000000000000000000000000000000000602082015250565b6000612bf9602f8361252d565b9150612c0482612b9d565b604082019050919050565b60006020820190508181036000830152612c2881612bec565b9050919050565b7f5b544b4d5374616b696e6732415d5b7365745374616b696e675d3a205f656e6460008201527f54696d6520697320756e646572205f737461727454696d650000000000000000602082015250565b6000612c8b60388361252d565b9150612c9682612c2f565b604082019050919050565b60006020820190508181036000830152612cba81612c7e565b9050919050565b7f5b544b4d5374616b696e6732415d5b7365745374616b696e675d3a205f656e6460008201527f54696d6520697320756e646572206e6f77000000000000000000000000000000602082015250565b6000612d1d60318361252d565b9150612d2882612cc1565b604082019050919050565b60006020820190508181036000830152612d4c81612d10565b9050919050565b7f5b544b4d5374616b696e6732415d5b686172766573745d3a206e6f742065786960008201527f7374207374616b696e6720646174610000000000000000000000000000000000602082015250565b6000612daf602f8361252d565b9150612dba82612d53565b604082019050919050565b60006020820190508181036000830152612dde81612da2565b9050919050565b7f5b544b4d5374616b696e6732415d5b686172766573745d3a206e6f74204f776e60008201527f6572000000000000000000000000000000000000000000000000000000000000602082015250565b6000612e4160228361252d565b9150612e4c82612de5565b604082019050919050565b60006020820190508181036000830152612e7081612e34565b9050919050565b7f5061757361626c653a206e6f7420706175736564000000000000000000000000600082015250565b6000612ead60148361252d565b9150612eb882612e77565b602082019050919050565b60006020820190508181036000830152612edc81612ea0565b9050919050565b600081905092915050565b7f416363657373436f6e74726f6c3a206163636f756e7420000000000000000000600082015250565b6000612f24601783612ee3565b9150612f2f82612eee565b601782019050919050565b600081519050919050565b60005b83811015612f63578082015181840152602081019050612f48565b83811115612f72576000848401525b50505050565b6000612f8382612f3a565b612f8d8185612ee3565b9350612f9d818560208601612f45565b80840191505092915050565b7f206973206d697373696e6720726f6c6520000000000000000000000000000000600082015250565b6000612fdf601183612ee3565b9150612fea82612fa9565b601182019050919050565b600061300082612f17565b915061300c8285612f78565b915061301782612fd2565b91506130238284612f78565b91508190509392505050565b600061303a82612f3a565b613044818561252d565b9350613054818560208601612f45565b61305d81611e4a565b840191505092915050565b60006020820190508181036000830152613082818461302f565b905092915050565b600061309582611e0f565b91506130a083611e0f565b9250817fffffffffffffffffffffffffffffffffffffffffffffffffffffffffffffffff04831182151516156130d9576130d86128f5565b5b828202905092915050565b60006130ef82611e0f565b915060008203613102576131016128f5565b5b600182039050919050565b7f537472696e67733a20686578206c656e67746820696e73756666696369656e74600082015250565b600061314360208361252d565b915061314e8261310d565b602082019050919050565b6000602082019050818103600083015261317281613136565b905091905056fea2646970667358221220977e36cc87a03928e79e42075962559c699cc4c9b04bc695ae3d346bb37f499a64736f6c634300080e0033",
  "immutableReferences": {},
  "source": "// SPDX-License-Identifier: MIT\r\npragma solidity ^0.8.14;\r\n\r\nimport \"@openzeppelin/contracts/token/ERC721/ERC721.sol\";\r\nimport \"@openzeppelin/contracts/security/Pausable.sol\";\r\nimport \"@openzeppelin/contracts/access/AccessControl.sol\";\r\n\r\ncontract TKMStaking2A is Pausable, AccessControl {\r\n    ERC721 public TKMNft; // tkm nft\r\n    address public NftHolder; // NFT   \r\n\r\n    // stakeId (9 ~ 12: 3km, 13 ~ 16: dtc)\r\n    uint256[8] public stakeIdList = [9, 10, 11, 12, 13, 14, 15, 16];\r\n    mapping(uint256 => bool) public stakeIds;\r\n\r\n    //  \r\n    uint256 public stakingIdx;\r\n\r\n    struct stakedInfo {\r\n        uint256 nftCount; \r\n        uint256 walletCount;\r\n    }\r\n    \r\n    //  \r\n    stakedInfo[8] public stakedInfoList;\r\n\r\n    //  ( ,  , stakeId,  , nft id )\r\n    event Stake(address indexed from, uint256 blockNumber, uint256 stakeId, uint256 stakingIdx, uint256[] ids);\r\n    //  \r\n    event Withdraw(address indexed from, uint256 blockNumber, uint256 stakingIdx);\r\n    //  \r\n    event Harvest(address indexed from, uint256 blockNumber, uint256 stakingIdx);\r\n\r\n    /////////////////////////////////////////////////////\r\n    // Staking\r\n    // Staking \r\n    struct staking {\r\n        uint256 startTime; //  \r\n        uint256 endTime; //  \r\n        uint8 nftAmount; // 1   NFT (3)\r\n    }\r\n\r\n    // stake id \r\n    mapping(uint256 => staking) public stakings;\r\n\r\n    //  \r\n    struct stakingProgress {\r\n        address user; //   \r\n        uint256 stakeId; // stake id\r\n        uint256[] ids; //  NFT ID\r\n    }\r\n\r\n    //  (  =>  )\r\n    mapping(uint256 => stakingProgress) public progressing;\r\n\r\n    constructor(address _TKMNft, address _NftHolder) {\r\n        _grantRole(DEFAULT_ADMIN_ROLE, msg.sender);\r\n        TKMNft = ERC721(payable(_TKMNft));\r\n        NftHolder = _NftHolder;\r\n\r\n        // stake id \r\n        for (uint256 i = 0; i < stakeIdList.length; i++) {\r\n            stakeIds[stakeIdList[i]] = true;\r\n        }\r\n\r\n        // stakedInfo \r\n        for (uint256 i = 0; i < stakeIdList.length; i++) {\r\n            stakedInfo memory info = stakedInfo(0, 0);\r\n            stakedInfoList[i] = info;\r\n        }\r\n    }\r\n\r\n    function pause() public onlyRole(DEFAULT_ADMIN_ROLE) {\r\n        _pause();\r\n    }\r\n\r\n    function unpause() public onlyRole(DEFAULT_ADMIN_ROLE) {\r\n        _unpause();\r\n    }\r\n\r\n    //   \r\n    function setStaking(\r\n        uint256 _stakeId,\r\n        uint256 _startTime,\r\n        uint256 _endTime,\r\n        uint8 _nftAmount\r\n    ) public onlyRole(DEFAULT_ADMIN_ROLE) {\r\n        //    \r\n        if(0 != stakings[_stakeId].startTime) {\r\n            require(_endTime > stakings[_stakeId].startTime, \"[TKMStaking2A][setStaking]: _endTime is under _startTime\");\r\n            require(_endTime > block.timestamp, \"[TKMStaking2A][setStaking]: _endTime is under now\");\r\n            stakings[_stakeId].endTime = _endTime;\r\n            return;\r\n        }\r\n\r\n        //  \r\n        require(_endTime > block.timestamp, \"[TKMStaking2A][setStaking]: _endTime is under now\");\r\n\r\n        staking storage newStake = stakings[_stakeId];\r\n        newStake.startTime = _startTime;\r\n        newStake.endTime = _endTime;\r\n        newStake.nftAmount = _nftAmount;\r\n    }\r\n\r\n    //  \r\n    function stake(uint256 _stakeId, uint256[] memory _ids) public whenNotPaused {\r\n        // stake id \r\n        require(true == stakeIds[_stakeId], \"[TKMStaking2A][stake]: invalid stake id\");\r\n\r\n        //  \r\n        require(stakings[_stakeId].startTime <= block.timestamp, \"[TKMStaking2A][staking]: staking is not started\");\r\n        require(stakings[_stakeId].endTime >= block.timestamp, \"[TKMStaking2A][staking]: staking is ended\");\r\n\r\n        // nft  \r\n        require(stakings[_stakeId].nftAmount == _ids.length, \"[TKMStaking2A][staking]: not equal nftAmount\");\r\n\r\n        //  \r\n        for (uint256 i = 0; i < stakings[_stakeId].nftAmount; i++) {\r\n            require(TKMNft.ownerOf(_ids[i]) == msg.sender, \"[TKMStaking2A][staking]: owner invalid\");\r\n        }\r\n\r\n        //   \r\n        ++stakingIdx;\r\n        for (uint256 i = 0; i < stakings[_stakeId].nftAmount; i++) {\r\n            TKMNft.safeTransferFrom(msg.sender, NftHolder, _ids[i]);\r\n        }\r\n\r\n        //  \r\n        stakingProgress storage progress = progressing[stakingIdx];\r\n        progress.user = msg.sender;\r\n        progress.stakeId = _stakeId;\r\n        progress.ids = _ids;\r\n\r\n        // stakedInfo \r\n        stakedInfoList[_stakeId - 1].nftCount += 3;\r\n        stakedInfoList[_stakeId - 1].walletCount += 1;\r\n\r\n        emit Stake(msg.sender, block.number, _stakeId, stakingIdx, _ids);\r\n    }\r\n\r\n    // \r\n    function withdraw(uint256 _stakingIdx) public whenNotPaused {\r\n        //      \r\n        require(progressing[_stakingIdx].user != address(0), \"[TKMStaking2A][withdraw]: not exist staking data\");\r\n        require(progressing[_stakingIdx].user == msg.sender, \"[TKMStaking2A][withdraw]: not Owner\");\r\n\r\n        // stakedInfo \r\n        stakedInfoList[progressing[_stakingIdx].stakeId - 1].nftCount -= 3;\r\n        stakedInfoList[progressing[_stakingIdx].stakeId - 1].walletCount -= 1;\r\n\r\n        //  \r\n        uint256[] memory ids = progressing[_stakingIdx].ids;\r\n        delete progressing[_stakingIdx];\r\n\r\n        // nft \r\n        for (uint256 i = 0; i < ids.length; i++) {\r\n            TKMNft.safeTransferFrom(NftHolder, msg.sender, ids[i]);\r\n        }\r\n\r\n        emit Withdraw(msg.sender, block.number, _stakingIdx);\r\n    }\r\n\r\n    // harvest\r\n    function harvest(uint256 _stakingIdx) public whenNotPaused {\r\n        //      \r\n        require(progressing[_stakingIdx].user != address(0), \"[TKMStaking2A][harvest]: not exist staking data\");\r\n        require(progressing[_stakingIdx].user == msg.sender, \"[TKMStaking2A][harvest]: not Owner\");\r\n\r\n        emit Harvest(msg.sender, block.number, _stakingIdx);\r\n    }\r\n\r\n    function getIds(uint256 _stakingIdx) public view returns (uint256[] memory ids) {\r\n        return progressing[_stakingIdx].ids;\r\n    }\r\n\r\n    function getStakedInfo() public view returns (uint256 blockNumber, stakedInfo[8] memory stakedList) {\r\n        return (block.number, stakedInfoList);\r\n    }\r\n}\r\n",
  "sourcePath": "C:\\Works\\1_Github\\solidity_tinyping\\contracts\\TKMStaking2A.sol",
  "compiler": {
    "name": "solc",
    "version": "0.8.14+commit.80d49f37.Emscripten.clang"
  },
  "schemaVersion": "3.4.7",
  "updatedAt": "2023-01-12T09:11:05.227Z",
  "networkType": "ethereum",
  "devdoc": {
    "kind": "dev",
    "methods": {
      "getRoleAdmin(bytes32)": {
        "details": "Returns the admin role that controls `role`. See {grantRole} and {revokeRole}. To change a role's admin, use {_setRoleAdmin}."
      },
      "grantRole(bytes32,address)": {
        "details": "Grants `role` to `account`. If `account` had not been already granted `role`, emits a {RoleGranted} event. Requirements: - the caller must have ``role``'s admin role."
      },
      "hasRole(bytes32,address)": {
        "details": "Returns `true` if `account` has been granted `role`."
      },
      "paused()": {
        "details": "Returns true if the contract is paused, and false otherwise."
      },
      "renounceRole(bytes32,address)": {
        "details": "Revokes `role` from the calling account. Roles are often managed via {grantRole} and {revokeRole}: this function's purpose is to provide a mechanism for accounts to lose their privileges if they are compromised (such as when a trusted device is misplaced). If the calling account had been revoked `role`, emits a {RoleRevoked} event. Requirements: - the caller must be `account`."
      },
      "revokeRole(bytes32,address)": {
        "details": "Revokes `role` from `account`. If `account` had been granted `role`, emits a {RoleRevoked} event. Requirements: - the caller must have ``role``'s admin role."
      },
      "supportsInterface(bytes4)": {
        "details": "See {IERC165-supportsInterface}."
      }
    },
    "version": 1
  },
  "userdoc": {
    "kind": "user",
    "methods": {},
    "version": 1
  }
}