{
  "contractName": "TKMStaking2A",
  "abi": [
    {
      "inputs": [
        {
          "internalType": "address",
          "name": "_TKMNft",
          "type": "address"
        },
        {
          "internalType": "address",
          "name": "_NftHolder",
          "type": "address"
        }
      ],
      "stateMutability": "nonpayable",
      "type": "constructor"
    },
    {
      "anonymous": false,
      "inputs": [
        {
          "indexed": true,
          "internalType": "address",
          "name": "from",
          "type": "address"
        },
        {
          "indexed": false,
          "internalType": "uint256",
          "name": "blockNumber",
          "type": "uint256"
        },
        {
          "indexed": false,
          "internalType": "uint256",
          "name": "stakingIdx",
          "type": "uint256"
        }
      ],
      "name": "Harvest",
      "type": "event"
    },
    {
      "anonymous": false,
      "inputs": [
        {
          "indexed": false,
          "internalType": "address",
          "name": "account",
          "type": "address"
        }
      ],
      "name": "Paused",
      "type": "event"
    },
    {
      "anonymous": false,
      "inputs": [
        {
          "indexed": true,
          "internalType": "bytes32",
          "name": "role",
          "type": "bytes32"
        },
        {
          "indexed": true,
          "internalType": "bytes32",
          "name": "previousAdminRole",
          "type": "bytes32"
        },
        {
          "indexed": true,
          "internalType": "bytes32",
          "name": "newAdminRole",
          "type": "bytes32"
        }
      ],
      "name": "RoleAdminChanged",
      "type": "event"
    },
    {
      "anonymous": false,
      "inputs": [
        {
          "indexed": true,
          "internalType": "bytes32",
          "name": "role",
          "type": "bytes32"
        },
        {
          "indexed": true,
          "internalType": "address",
          "name": "account",
          "type": "address"
        },
        {
          "indexed": true,
          "internalType": "address",
          "name": "sender",
          "type": "address"
        }
      ],
      "name": "RoleGranted",
      "type": "event"
    },
    {
      "anonymous": false,
      "inputs": [
        {
          "indexed": true,
          "internalType": "bytes32",
          "name": "role",
          "type": "bytes32"
        },
        {
          "indexed": true,
          "internalType": "address",
          "name": "account",
          "type": "address"
        },
        {
          "indexed": true,
          "internalType": "address",
          "name": "sender",
          "type": "address"
        }
      ],
      "name": "RoleRevoked",
      "type": "event"
    },
    {
      "anonymous": false,
      "inputs": [
        {
          "indexed": true,
          "internalType": "address",
          "name": "from",
          "type": "address"
        },
        {
          "indexed": false,
          "internalType": "uint256",
          "name": "blockNumber",
          "type": "uint256"
        },
        {
          "indexed": false,
          "internalType": "uint256",
          "name": "stakeId",
          "type": "uint256"
        },
        {
          "indexed": false,
          "internalType": "uint256",
          "name": "stakingIdx",
          "type": "uint256"
        },
        {
          "indexed": false,
          "internalType": "uint256[]",
          "name": "ids",
          "type": "uint256[]"
        }
      ],
      "name": "Stake",
      "type": "event"
    },
    {
      "anonymous": false,
      "inputs": [
        {
          "indexed": false,
          "internalType": "address",
          "name": "account",
          "type": "address"
        }
      ],
      "name": "Unpaused",
      "type": "event"
    },
    {
      "anonymous": false,
      "inputs": [
        {
          "indexed": true,
          "internalType": "address",
          "name": "from",
          "type": "address"
        },
        {
          "indexed": false,
          "internalType": "uint256",
          "name": "blockNumber",
          "type": "uint256"
        },
        {
          "indexed": false,
          "internalType": "uint256",
          "name": "stakingIdx",
          "type": "uint256"
        }
      ],
      "name": "Withdraw",
      "type": "event"
    },
    {
      "inputs": [],
      "name": "DEFAULT_ADMIN_ROLE",
      "outputs": [
        {
          "internalType": "bytes32",
          "name": "",
          "type": "bytes32"
        }
      ],
      "stateMutability": "view",
      "type": "function",
      "constant": true
    },
    {
      "inputs": [],
      "name": "NftHolder",
      "outputs": [
        {
          "internalType": "address",
          "name": "",
          "type": "address"
        }
      ],
      "stateMutability": "view",
      "type": "function",
      "constant": true
    },
    {
      "inputs": [],
      "name": "TKMNft",
      "outputs": [
        {
          "internalType": "contract ERC721",
          "name": "",
          "type": "address"
        }
      ],
      "stateMutability": "view",
      "type": "function",
      "constant": true
    },
    {
      "inputs": [],
      "name": "gapIndex",
      "outputs": [
        {
          "internalType": "uint8",
          "name": "",
          "type": "uint8"
        }
      ],
      "stateMutability": "view",
      "type": "function",
      "constant": true
    },
    {
      "inputs": [
        {
          "internalType": "bytes32",
          "name": "role",
          "type": "bytes32"
        }
      ],
      "name": "getRoleAdmin",
      "outputs": [
        {
          "internalType": "bytes32",
          "name": "",
          "type": "bytes32"
        }
      ],
      "stateMutability": "view",
      "type": "function",
      "constant": true
    },
    {
      "inputs": [
        {
          "internalType": "bytes32",
          "name": "role",
          "type": "bytes32"
        },
        {
          "internalType": "address",
          "name": "account",
          "type": "address"
        }
      ],
      "name": "grantRole",
      "outputs": [],
      "stateMutability": "nonpayable",
      "type": "function"
    },
    {
      "inputs": [
        {
          "internalType": "bytes32",
          "name": "role",
          "type": "bytes32"
        },
        {
          "internalType": "address",
          "name": "account",
          "type": "address"
        }
      ],
      "name": "hasRole",
      "outputs": [
        {
          "internalType": "bool",
          "name": "",
          "type": "bool"
        }
      ],
      "stateMutability": "view",
      "type": "function",
      "constant": true
    },
    {
      "inputs": [],
      "name": "paused",
      "outputs": [
        {
          "internalType": "bool",
          "name": "",
          "type": "bool"
        }
      ],
      "stateMutability": "view",
      "type": "function",
      "constant": true
    },
    {
      "inputs": [
        {
          "internalType": "uint256",
          "name": "",
          "type": "uint256"
        }
      ],
      "name": "progressing",
      "outputs": [
        {
          "internalType": "address",
          "name": "user",
          "type": "address"
        },
        {
          "internalType": "uint256",
          "name": "stakeId",
          "type": "uint256"
        }
      ],
      "stateMutability": "view",
      "type": "function",
      "constant": true
    },
    {
      "inputs": [
        {
          "internalType": "bytes32",
          "name": "role",
          "type": "bytes32"
        },
        {
          "internalType": "address",
          "name": "account",
          "type": "address"
        }
      ],
      "name": "renounceRole",
      "outputs": [],
      "stateMutability": "nonpayable",
      "type": "function"
    },
    {
      "inputs": [
        {
          "internalType": "bytes32",
          "name": "role",
          "type": "bytes32"
        },
        {
          "internalType": "address",
          "name": "account",
          "type": "address"
        }
      ],
      "name": "revokeRole",
      "outputs": [],
      "stateMutability": "nonpayable",
      "type": "function"
    },
    {
      "inputs": [
        {
          "internalType": "uint256",
          "name": "",
          "type": "uint256"
        }
      ],
      "name": "stakeIdList",
      "outputs": [
        {
          "internalType": "uint256",
          "name": "",
          "type": "uint256"
        }
      ],
      "stateMutability": "view",
      "type": "function",
      "constant": true
    },
    {
      "inputs": [
        {
          "internalType": "uint256",
          "name": "",
          "type": "uint256"
        }
      ],
      "name": "stakeIds",
      "outputs": [
        {
          "internalType": "bool",
          "name": "",
          "type": "bool"
        }
      ],
      "stateMutability": "view",
      "type": "function",
      "constant": true
    },
    {
      "inputs": [
        {
          "internalType": "uint256",
          "name": "",
          "type": "uint256"
        }
      ],
      "name": "stakedInfoList",
      "outputs": [
        {
          "internalType": "uint256",
          "name": "nftCount",
          "type": "uint256"
        },
        {
          "internalType": "uint256",
          "name": "walletCount",
          "type": "uint256"
        }
      ],
      "stateMutability": "view",
      "type": "function",
      "constant": true
    },
    {
      "inputs": [],
      "name": "stakingIdx",
      "outputs": [
        {
          "internalType": "uint256",
          "name": "",
          "type": "uint256"
        }
      ],
      "stateMutability": "view",
      "type": "function",
      "constant": true
    },
    {
      "inputs": [
        {
          "internalType": "uint256",
          "name": "",
          "type": "uint256"
        }
      ],
      "name": "stakings",
      "outputs": [
        {
          "internalType": "uint256",
          "name": "startTime",
          "type": "uint256"
        },
        {
          "internalType": "uint256",
          "name": "endTime",
          "type": "uint256"
        },
        {
          "internalType": "uint8",
          "name": "nftAmount",
          "type": "uint8"
        },
        {
          "internalType": "uint256",
          "name": "withdrawTime",
          "type": "uint256"
        }
      ],
      "stateMutability": "view",
      "type": "function",
      "constant": true
    },
    {
      "inputs": [
        {
          "internalType": "bytes4",
          "name": "interfaceId",
          "type": "bytes4"
        }
      ],
      "name": "supportsInterface",
      "outputs": [
        {
          "internalType": "bool",
          "name": "",
          "type": "bool"
        }
      ],
      "stateMutability": "view",
      "type": "function",
      "constant": true
    },
    {
      "inputs": [],
      "name": "pause",
      "outputs": [],
      "stateMutability": "nonpayable",
      "type": "function"
    },
    {
      "inputs": [],
      "name": "unpause",
      "outputs": [],
      "stateMutability": "nonpayable",
      "type": "function"
    },
    {
      "inputs": [
        {
          "internalType": "uint256",
          "name": "_stakeId",
          "type": "uint256"
        },
        {
          "internalType": "uint256",
          "name": "_startTime",
          "type": "uint256"
        },
        {
          "internalType": "uint256",
          "name": "_endTime",
          "type": "uint256"
        },
        {
          "internalType": "uint8",
          "name": "_nftAmount",
          "type": "uint8"
        },
        {
          "internalType": "uint256",
          "name": "_withdrawTime",
          "type": "uint256"
        }
      ],
      "name": "setStaking",
      "outputs": [],
      "stateMutability": "nonpayable",
      "type": "function"
    },
    {
      "inputs": [
        {
          "internalType": "uint256",
          "name": "_stakeId",
          "type": "uint256"
        },
        {
          "internalType": "uint256[]",
          "name": "_ids",
          "type": "uint256[]"
        }
      ],
      "name": "stake",
      "outputs": [],
      "stateMutability": "nonpayable",
      "type": "function"
    },
    {
      "inputs": [
        {
          "internalType": "uint256",
          "name": "_stakingIdx",
          "type": "uint256"
        }
      ],
      "name": "withdraw",
      "outputs": [],
      "stateMutability": "nonpayable",
      "type": "function"
    },
    {
      "inputs": [
        {
          "internalType": "uint256",
          "name": "_stakingIdx",
          "type": "uint256"
        }
      ],
      "name": "harvest",
      "outputs": [],
      "stateMutability": "nonpayable",
      "type": "function"
    },
    {
      "inputs": [
        {
          "internalType": "uint256",
          "name": "_stakingIdx",
          "type": "uint256"
        }
      ],
      "name": "getIds",
      "outputs": [
        {
          "internalType": "uint256[]",
          "name": "ids",
          "type": "uint256[]"
        }
      ],
      "stateMutability": "view",
      "type": "function",
      "constant": true
    },
    {
      "inputs": [],
      "name": "getStakedInfo",
      "outputs": [
        {
          "internalType": "uint256",
          "name": "blockNumber",
          "type": "uint256"
        },
        {
          "components": [
            {
              "internalType": "uint256",
              "name": "nftCount",
              "type": "uint256"
            },
            {
              "internalType": "uint256",
              "name": "walletCount",
              "type": "uint256"
            }
          ],
          "internalType": "struct TKMStaking2A.stakedInfo[4]",
          "name": "stakedList",
          "type": "tuple[4]"
        }
      ],
      "stateMutability": "view",
      "type": "function",
      "constant": true
    }
  ],
  "bytecode": "0x60806040526040518060800160405280600960ff168152602001600a60ff168152602001600b60ff168152602001600c60ff1681525060049060046200004792919062000373565b503480156200005557600080fd5b50604051620039133803806200391383398181016040528101906200007b919062000446565b60008060006101000a81548160ff021916908315150217905550620000aa6000801b336200020f60201b60201c565b81600260006101000a81548173ffffffffffffffffffffffffffffffffffffffff021916908373ffffffffffffffffffffffffffffffffffffffff16021790555080600360006101000a81548173ffffffffffffffffffffffffffffffffffffffff021916908373ffffffffffffffffffffffffffffffffffffffff16021790555060005b60048110156200019357600160086000600484600481106200015657620001556200048d565b5b0154815260200190815260200160002060006101000a81548160ff02191690831515021790555080806200018a90620004f5565b9150506200012f565b5060005b6004811015620002065760006040518060400160405280600081526020016000815250905080600a8360048110620001d457620001d36200048d565b5b600202016000820151816000015560208201518160010155905050508080620001fd90620004f5565b91505062000197565b50505062000542565b6200022182826200030060201b60201c565b620002fc57600180600084815260200190815260200160002060000160008373ffffffffffffffffffffffffffffffffffffffff1673ffffffffffffffffffffffffffffffffffffffff16815260200190815260200160002060006101000a81548160ff021916908315150217905550620002a16200036b60201b60201c565b73ffffffffffffffffffffffffffffffffffffffff168173ffffffffffffffffffffffffffffffffffffffff16837f2f8788117e7eff1d82e926ec794901d17c78024a50270940304540a733656f0d60405160405180910390a45b5050565b60006001600084815260200190815260200160002060000160008373ffffffffffffffffffffffffffffffffffffffff1673ffffffffffffffffffffffffffffffffffffffff16815260200190815260200160002060009054906101000a900460ff16905092915050565b600033905090565b8260048101928215620003aa579160200282015b82811115620003a9578251829060ff1690559160200191906001019062000387565b5b509050620003b99190620003bd565b5090565b5b80821115620003d8576000816000905550600101620003be565b5090565b600080fd5b600073ffffffffffffffffffffffffffffffffffffffff82169050919050565b60006200040e82620003e1565b9050919050565b620004208162000401565b81146200042c57600080fd5b50565b600081519050620004408162000415565b92915050565b6000806040838503121562000460576200045f620003dc565b5b600062000470858286016200042f565b925050602062000483858286016200042f565b9150509250929050565b7f4e487b7100000000000000000000000000000000000000000000000000000000600052603260045260246000fd5b7f4e487b7100000000000000000000000000000000000000000000000000000000600052601160045260246000fd5b6000819050919050565b60006200050282620004eb565b91507fffffffffffffffffffffffffffffffffffffffffffffffffffffffffffffffff8203620005375762000536620004bc565b5b600182019050919050565b6133c180620005526000396000f3fe608060405234801561001057600080fd5b50600436106101735760003560e01c806345c0403a116100de578063b58634fe11610097578063c751600a11610071578063c751600a14610463578063d547741f14610482578063dab397081461049e578063ddc63262146104bc57610173565b8063b58634fe146103e1578063b62888bd146103ff578063c4f0c1fc1461043057610173565b806345c0403a1461031d5780635c975abb1461034d5780638456cb591461036b57806391d1485414610375578063a217fddf146103a5578063b3e78bed146103c357610173565b80632f2ff15d116101305780632f2ff15d1461027157806333c400aa1461028d57806336568abe146102bd57806339533a4f146102d95780633bccdd69146102f75780633f4ba83a1461031357610173565b806301ffc9a71461017857806316f60557146101a85780631aa16ec4146101c45780631d80cf32146101f5578063248a9ca3146102255780632e1a7d4d14610255575b600080fd5b610192600480360381019061018d9190611eef565b6104d8565b60405161019f9190611f37565b60405180910390f35b6101c260048036038101906101bd91906120e1565b610552565b005b6101de60048036038101906101d9919061213d565b610b2e565b6040516101ec929190612179565b60405180910390f35b61020f600480360381019061020a919061213d565b610b58565b60405161021c9190611f37565b60405180910390f35b61023f600480360381019061023a91906121d8565b610b78565b60405161024c9190612214565b60405180910390f35b61026f600480360381019061026a919061213d565b610b98565b005b61028b6004803603810190610286919061228d565b611081565b005b6102a760048036038101906102a2919061213d565b6110a2565b6040516102b4919061238b565b60405180910390f35b6102d760048036038101906102d2919061228d565b611110565b005b6102e1611193565b6040516102ee91906123c9565b60405180910390f35b610311600480360381019061030c9190612410565b611198565b005b61031b611333565b005b6103376004803603810190610332919061213d565b61134b565b604051610344919061248b565b60405180910390f35b610355611366565b6040516103629190611f37565b60405180910390f35b61037361137c565b005b61038f600480360381019061038a919061228d565b611394565b60405161039c9190611f37565b60405180910390f35b6103ad6113ff565b6040516103ba9190612214565b60405180910390f35b6103cb611406565b6040516103d891906124b5565b60405180910390f35b6103e961142c565b6040516103f6919061248b565b60405180910390f35b6104196004803603810190610414919061213d565b611432565b6040516104279291906124d0565b60405180910390f35b61044a6004803603810190610445919061213d565b611476565b60405161045a94939291906124f9565b60405180910390f35b61046b6114b3565b604051610479929190612609565b60405180910390f35b61049c6004803603810190610497919061228d565b611522565b005b6104a6611543565b6040516104b39190612692565b60405180910390f35b6104d660048036038101906104d1919061213d565b611569565b005b60007f7965db0b000000000000000000000000000000000000000000000000000000007bffffffffffffffffffffffffffffffffffffffffffffffffffffffff1916827bffffffffffffffffffffffffffffffffffffffffffffffffffffffff1916148061054b575061054a8261174d565b5b9050919050565b61055a611366565b1561059a576040517f08c379a00000000000000000000000000000000000000000000000000000000081526004016105919061270a565b60405180910390fd5b6008600083815260200190815260200160002060009054906101000a900460ff1615156001151514610601576040517f08c379a00000000000000000000000000000000000000000000000000000000081526004016105f89061279c565b60405180910390fd5b426012600084815260200190815260200160002060000154111561065a576040517f08c379a00000000000000000000000000000000000000000000000000000000081526004016106519061282e565b60405180910390fd5b42601260008481526020019081526020016000206001015410156106b3576040517f08c379a00000000000000000000000000000000000000000000000000000000081526004016106aa906128c0565b60405180910390fd5b80516012600084815260200190815260200160002060020160009054906101000a900460ff1660ff161461071c576040517f08c379a000000000000000000000000000000000000000000000000000000000815260040161071390612952565b60405180910390fd5b60005b6012600084815260200190815260200160002060020160009054906101000a900460ff1660ff16811015610883573373ffffffffffffffffffffffffffffffffffffffff16600260009054906101000a900473ffffffffffffffffffffffffffffffffffffffff1673ffffffffffffffffffffffffffffffffffffffff16636352211e8484815181106107b5576107b4612972565b5b60200260200101516040518263ffffffff1660e01b81526004016107d9919061248b565b602060405180830381865afa1580156107f6573d6000803e3d6000fd5b505050506040513d601f19601f8201168201806040525081019061081a91906129b6565b73ffffffffffffffffffffffffffffffffffffffff1614610870576040517f08c379a000000000000000000000000000000000000000000000000000000000815260040161086790612a55565b60405180910390fd5b808061087b90612aa4565b91505061071f565b5060096000815461089390612aa4565b9190508190555060005b6012600084815260200190815260200160002060020160009054906101000a900460ff1660ff168110156109ab57600260009054906101000a900473ffffffffffffffffffffffffffffffffffffffff1673ffffffffffffffffffffffffffffffffffffffff166342842e0e33600360009054906101000a900473ffffffffffffffffffffffffffffffffffffffff168585815181106109405761093f612972565b5b60200260200101516040518463ffffffff1660e01b815260040161096693929190612aec565b600060405180830381600087803b15801561098057600080fd5b505af1158015610994573d6000803e3d6000fd5b5050505080806109a390612aa4565b91505061089d565b5060006013600060095481526020019081526020016000209050338160000160006101000a81548173ffffffffffffffffffffffffffffffffffffffff021916908373ffffffffffffffffffffffffffffffffffffffff16021790555082816001018190555081816002019080519060200190610a29929190611db1565b506012600084815260200190815260200160002060020160009054906101000a900460ff1660ff16600a600960ff1685610a639190612b23565b60048110610a7457610a73612972565b5b600202016000016000828254610a8a9190612b57565b925050819055506001600a600960ff1685610aa59190612b23565b60048110610ab657610ab5612972565b5b600202016001016000828254610acc9190612b57565b925050819055503373ffffffffffffffffffffffffffffffffffffffff167f1ee5ed85e4ccf21a09b0d94bae9ce3d430778ea6ca542ab05c99001e69884293438560095486604051610b219493929190612bad565b60405180910390a2505050565b600a8160048110610b3e57600080fd5b600202016000915090508060000154908060010154905082565b60086020528060005260406000206000915054906101000a900460ff1681565b600060016000838152602001908152602001600020600101549050919050565b610ba0611366565b15610be0576040517f08c379a0000000000000000000000000000000000000000000000000000000008152600401610bd79061270a565b60405180910390fd5b6012600060136000848152602001908152602001600020600101548152602001908152602001600020600301544211610c4e576040517f08c379a0000000000000000000000000000000000000000000000000000000008152600401610c4590612c6b565b60405180910390fd5b600073ffffffffffffffffffffffffffffffffffffffff166013600083815260200190815260200160002060000160009054906101000a900473ffffffffffffffffffffffffffffffffffffffff1673ffffffffffffffffffffffffffffffffffffffff1603610cf3576040517f08c379a0000000000000000000000000000000000000000000000000000000008152600401610cea90612cfd565b60405180910390fd5b3373ffffffffffffffffffffffffffffffffffffffff166013600083815260200190815260200160002060000160009054906101000a900473ffffffffffffffffffffffffffffffffffffffff1673ffffffffffffffffffffffffffffffffffffffff1614610d97576040517f08c379a0000000000000000000000000000000000000000000000000000000008152600401610d8e90612d8f565b60405180910390fd5b601260006013600084815260200190815260200160002060010154815260200190815260200160002060020160009054906101000a900460ff1660ff16600a600960ff166013600085815260200190815260200160002060010154610dfc9190612b23565b60048110610e0d57610e0c612972565b5b600202016000016000828254610e239190612b23565b925050819055506001600a600960ff166013600085815260200190815260200160002060010154610e549190612b23565b60048110610e6557610e64612972565b5b600202016001016000828254610e7b9190612b23565b92505081905550600060136000838152602001908152602001600020600201805480602002602001604051908101604052809291908181526020018280548015610ee457602002820191906000526020600020905b815481526020019060010190808311610ed0575b5050505050905060136000838152602001908152602001600020600080820160006101000a81549073ffffffffffffffffffffffffffffffffffffffff02191690556001820160009055600282016000610f3e9190611dfe565b505060005b815181101561102c57600260009054906101000a900473ffffffffffffffffffffffffffffffffffffffff1673ffffffffffffffffffffffffffffffffffffffff166342842e0e600360009054906101000a900473ffffffffffffffffffffffffffffffffffffffff1633858581518110610fc157610fc0612972565b5b60200260200101516040518463ffffffff1660e01b8152600401610fe793929190612aec565b600060405180830381600087803b15801561100157600080fd5b505af1158015611015573d6000803e3d6000fd5b50505050808061102490612aa4565b915050610f43565b503373ffffffffffffffffffffffffffffffffffffffff167ff279e6a1f5e320cca91135676d9cb6e44ca8a08c0b88342bcdb1144f6511b5684384604051611075929190612179565b60405180910390a25050565b61108a82610b78565b611093816117b7565b61109d83836117cb565b505050565b60606013600083815260200190815260200160002060020180548060200260200160405190810160405280929190818152602001828054801561110457602002820191906000526020600020905b8154815260200190600101908083116110f0575b50505050509050919050565b6111186118ab565b73ffffffffffffffffffffffffffffffffffffffff168173ffffffffffffffffffffffffffffffffffffffff1614611185576040517f08c379a000000000000000000000000000000000000000000000000000000000815260040161117c90612e21565b60405180910390fd5b61118f82826118b3565b5050565b600981565b6000801b6111a5816117b7565b6012600087815260200190815260200160002060000154600014611298576012600087815260200190815260200160002060000154841161121b576040517f08c379a000000000000000000000000000000000000000000000000000000000815260040161121290612eb3565b60405180910390fd5b42841161125d576040517f08c379a000000000000000000000000000000000000000000000000000000000815260040161125490612f45565b60405180910390fd5b83601260008881526020019081526020016000206001018190555081601260008881526020019081526020016000206003018190555061132b565b4284116112da576040517f08c379a00000000000000000000000000000000000000000000000000000000081526004016112d190612f45565b60405180910390fd5b6000601260008881526020019081526020016000209050858160000181905550848160010181905550838160020160006101000a81548160ff021916908360ff160217905550828160030181905550505b505050505050565b6000801b611340816117b7565b611348611995565b50565b6004816004811061135b57600080fd5b016000915090505481565b60008060009054906101000a900460ff16905090565b6000801b611389816117b7565b611391611a36565b50565b60006001600084815260200190815260200160002060000160008373ffffffffffffffffffffffffffffffffffffffff1673ffffffffffffffffffffffffffffffffffffffff16815260200190815260200160002060009054906101000a900460ff16905092915050565b6000801b81565b600360009054906101000a900473ffffffffffffffffffffffffffffffffffffffff1681565b60095481565b60136020528060005260406000206000915090508060000160009054906101000a900473ffffffffffffffffffffffffffffffffffffffff16908060010154905082565b60126020528060005260406000206000915090508060000154908060010154908060020160009054906101000a900460ff16908060030154905084565b60006114bd611e1f565b43600a80600480602002604051908101604052809291906000905b828210156115145783826002020160405180604001604052908160008201548152602001600182015481525050815260200190600101906114d8565b505050509050915091509091565b61152b82610b78565b611534816117b7565b61153e83836118b3565b505050565b600260009054906101000a900473ffffffffffffffffffffffffffffffffffffffff1681565b611571611366565b156115b1576040517f08c379a00000000000000000000000000000000000000000000000000000000081526004016115a89061270a565b60405180910390fd5b600073ffffffffffffffffffffffffffffffffffffffff166013600083815260200190815260200160002060000160009054906101000a900473ffffffffffffffffffffffffffffffffffffffff1673ffffffffffffffffffffffffffffffffffffffff1603611656576040517f08c379a000000000000000000000000000000000000000000000000000000000815260040161164d90612fd7565b60405180910390fd5b3373ffffffffffffffffffffffffffffffffffffffff166013600083815260200190815260200160002060000160009054906101000a900473ffffffffffffffffffffffffffffffffffffffff1673ffffffffffffffffffffffffffffffffffffffff16146116fa576040517f08c379a00000000000000000000000000000000000000000000000000000000081526004016116f190613069565b60405180910390fd5b3373ffffffffffffffffffffffffffffffffffffffff167f71bab65ced2e5750775a0613be067df48ef06cf92a496ebf7663ae06609249544383604051611742929190612179565b60405180910390a250565b60007f01ffc9a7000000000000000000000000000000000000000000000000000000007bffffffffffffffffffffffffffffffffffffffffffffffffffffffff1916827bffffffffffffffffffffffffffffffffffffffffffffffffffffffff1916149050919050565b6117c8816117c36118ab565b611ad8565b50565b6117d58282611394565b6118a757600180600084815260200190815260200160002060000160008373ffffffffffffffffffffffffffffffffffffffff1673ffffffffffffffffffffffffffffffffffffffff16815260200190815260200160002060006101000a81548160ff02191690831515021790555061184c6118ab565b73ffffffffffffffffffffffffffffffffffffffff168173ffffffffffffffffffffffffffffffffffffffff16837f2f8788117e7eff1d82e926ec794901d17c78024a50270940304540a733656f0d60405160405180910390a45b5050565b600033905090565b6118bd8282611394565b156119915760006001600084815260200190815260200160002060000160008373ffffffffffffffffffffffffffffffffffffffff1673ffffffffffffffffffffffffffffffffffffffff16815260200190815260200160002060006101000a81548160ff0219169083151502179055506119366118ab565b73ffffffffffffffffffffffffffffffffffffffff168173ffffffffffffffffffffffffffffffffffffffff16837ff6391f5c32d9c69d2a47ea670b442974b53935d1edc7fd64eb21e047a839171b60405160405180910390a45b5050565b61199d611366565b6119dc576040517f08c379a00000000000000000000000000000000000000000000000000000000081526004016119d3906130d5565b60405180910390fd5b60008060006101000a81548160ff0219169083151502179055507f5db9ee0a495bf2e6ff9c91a7834c1ba4fdd244a5e8aa4e537bd38aeae4b073aa611a1f6118ab565b604051611a2c91906124b5565b60405180910390a1565b611a3e611366565b15611a7e576040517f08c379a0000000000000000000000000000000000000000000000000000000008152600401611a759061270a565b60405180910390fd5b60016000806101000a81548160ff0219169083151502179055507f62e78cea01bee320cd4e420270b5ea74000d11b0c9f74754ebdbfc544b05a258611ac16118ab565b604051611ace91906124b5565b60405180910390a1565b611ae28282611394565b611b7157611b078173ffffffffffffffffffffffffffffffffffffffff166014611b75565b611b158360001c6020611b75565b604051602001611b26929190613207565b6040516020818303038152906040526040517f08c379a0000000000000000000000000000000000000000000000000000000008152600401611b68919061327a565b60405180910390fd5b5050565b606060006002836002611b88919061329c565b611b929190612b57565b67ffffffffffffffff811115611bab57611baa611f9e565b5b6040519080825280601f01601f191660200182016040528015611bdd5781602001600182028036833780820191505090505b5090507f300000000000000000000000000000000000000000000000000000000000000081600081518110611c1557611c14612972565b5b60200101907effffffffffffffffffffffffffffffffffffffffffffffffffffffffffffff1916908160001a9053507f780000000000000000000000000000000000000000000000000000000000000081600181518110611c7957611c78612972565b5b60200101907effffffffffffffffffffffffffffffffffffffffffffffffffffffffffffff1916908160001a90535060006001846002611cb9919061329c565b611cc39190612b57565b90505b6001811115611d63577f3031323334353637383961626364656600000000000000000000000000000000600f861660108110611d0557611d04612972565b5b1a60f81b828281518110611d1c57611d1b612972565b5b60200101907effffffffffffffffffffffffffffffffffffffffffffffffffffffffffffff1916908160001a905350600485901c945080611d5c906132f6565b9050611cc6565b5060008414611da7576040517f08c379a0000000000000000000000000000000000000000000000000000000008152600401611d9e9061336b565b60405180910390fd5b8091505092915050565b828054828255906000526020600020908101928215611ded579160200282015b82811115611dec578251825591602001919060010190611dd1565b5b509050611dfa9190611e4c565b5090565b5080546000825590600052602060002090810190611e1c9190611e4c565b50565b60405180608001604052806004905b611e36611e69565b815260200190600190039081611e2e5790505090565b5b80821115611e65576000816000905550600101611e4d565b5090565b604051806040016040528060008152602001600081525090565b6000604051905090565b600080fd5b600080fd5b60007fffffffff0000000000000000000000000000000000000000000000000000000082169050919050565b611ecc81611e97565b8114611ed757600080fd5b50565b600081359050611ee981611ec3565b92915050565b600060208284031215611f0557611f04611e8d565b5b6000611f1384828501611eda565b91505092915050565b60008115159050919050565b611f3181611f1c565b82525050565b6000602082019050611f4c6000830184611f28565b92915050565b6000819050919050565b611f6581611f52565b8114611f7057600080fd5b50565b600081359050611f8281611f5c565b92915050565b600080fd5b6000601f19601f8301169050919050565b7f4e487b7100000000000000000000000000000000000000000000000000000000600052604160045260246000fd5b611fd682611f8d565b810181811067ffffffffffffffff82111715611ff557611ff4611f9e565b5b80604052505050565b6000612008611e83565b90506120148282611fcd565b919050565b600067ffffffffffffffff82111561203457612033611f9e565b5b602082029050602081019050919050565b600080fd5b600061205d61205884612019565b611ffe565b905080838252602082019050602084028301858111156120805761207f612045565b5b835b818110156120a957806120958882611f73565b845260208401935050602081019050612082565b5050509392505050565b600082601f8301126120c8576120c7611f88565b5b81356120d884826020860161204a565b91505092915050565b600080604083850312156120f8576120f7611e8d565b5b600061210685828601611f73565b925050602083013567ffffffffffffffff81111561212757612126611e92565b5b612133858286016120b3565b9150509250929050565b60006020828403121561215357612152611e8d565b5b600061216184828501611f73565b91505092915050565b61217381611f52565b82525050565b600060408201905061218e600083018561216a565b61219b602083018461216a565b9392505050565b6000819050919050565b6121b5816121a2565b81146121c057600080fd5b50565b6000813590506121d2816121ac565b92915050565b6000602082840312156121ee576121ed611e8d565b5b60006121fc848285016121c3565b91505092915050565b61220e816121a2565b82525050565b60006020820190506122296000830184612205565b92915050565b600073ffffffffffffffffffffffffffffffffffffffff82169050919050565b600061225a8261222f565b9050919050565b61226a8161224f565b811461227557600080fd5b50565b60008135905061228781612261565b92915050565b600080604083850312156122a4576122a3611e8d565b5b60006122b2858286016121c3565b92505060206122c385828601612278565b9150509250929050565b600081519050919050565b600082825260208201905092915050565b6000819050602082019050919050565b61230281611f52565b82525050565b600061231483836122f9565b60208301905092915050565b6000602082019050919050565b6000612338826122cd565b61234281856122d8565b935061234d836122e9565b8060005b8381101561237e5781516123658882612308565b975061237083612320565b925050600181019050612351565b5085935050505092915050565b600060208201905081810360008301526123a5818461232d565b905092915050565b600060ff82169050919050565b6123c3816123ad565b82525050565b60006020820190506123de60008301846123ba565b92915050565b6123ed816123ad565b81146123f857600080fd5b50565b60008135905061240a816123e4565b92915050565b600080600080600060a0868803121561242c5761242b611e8d565b5b600061243a88828901611f73565b955050602061244b88828901611f73565b945050604061245c88828901611f73565b935050606061246d888289016123fb565b925050608061247e88828901611f73565b9150509295509295909350565b60006020820190506124a0600083018461216a565b92915050565b6124af8161224f565b82525050565b60006020820190506124ca60008301846124a6565b92915050565b60006040820190506124e560008301856124a6565b6124f2602083018461216a565b9392505050565b600060808201905061250e600083018761216a565b61251b602083018661216a565b61252860408301856123ba565b612535606083018461216a565b95945050505050565b600060049050919050565b600081905092915050565b6000819050919050565b60408201600082015161257460008501826122f9565b50602082015161258760208501826122f9565b50505050565b6000612599838361255e565b60408301905092915050565b6000602082019050919050565b6125bb8161253e565b6125c58184612549565b92506125d082612554565b8060005b838110156126015781516125e8878261258d565b96506125f3836125a5565b9250506001810190506125d4565b505050505050565b60006101208201905061261f600083018561216a565b61262c60208301846125b2565b9392505050565b6000819050919050565b600061265861265361264e8461222f565b612633565b61222f565b9050919050565b600061266a8261263d565b9050919050565b600061267c8261265f565b9050919050565b61268c81612671565b82525050565b60006020820190506126a76000830184612683565b92915050565b600082825260208201905092915050565b7f5061757361626c653a2070617573656400000000000000000000000000000000600082015250565b60006126f46010836126ad565b91506126ff826126be565b602082019050919050565b60006020820190508181036000830152612723816126e7565b9050919050565b7f5b544b4d5374616b696e6732415d5b7374616b655d3a20696e76616c6964207360008201527f74616b6520696400000000000000000000000000000000000000000000000000602082015250565b60006127866027836126ad565b91506127918261272a565b604082019050919050565b600060208201905081810360008301526127b581612779565b9050919050565b7f5b544b4d5374616b696e6732415d5b7374616b696e675d3a207374616b696e6760008201527f206973206e6f7420737461727465640000000000000000000000000000000000602082015250565b6000612818602f836126ad565b9150612823826127bc565b604082019050919050565b600060208201905081810360008301526128478161280b565b9050919050565b7f5b544b4d5374616b696e6732415d5b7374616b696e675d3a207374616b696e6760008201527f20697320656e6465640000000000000000000000000000000000000000000000602082015250565b60006128aa6029836126ad565b91506128b58261284e565b604082019050919050565b600060208201905081810360008301526128d98161289d565b9050919050565b7f5b544b4d5374616b696e6732415d5b7374616b696e675d3a206e6f742065717560008201527f616c206e6674416d6f756e740000000000000000000000000000000000000000602082015250565b600061293c602c836126ad565b9150612947826128e0565b604082019050919050565b6000602082019050818103600083015261296b8161292f565b9050919050565b7f4e487b7100000000000000000000000000000000000000000000000000000000600052603260045260246000fd5b6000815190506129b081612261565b92915050565b6000602082840312156129cc576129cb611e8d565b5b60006129da848285016129a1565b91505092915050565b7f5b544b4d5374616b696e6732415d5b7374616b696e675d3a206f776e6572206960008201527f6e76616c69640000000000000000000000000000000000000000000000000000602082015250565b6000612a3f6026836126ad565b9150612a4a826129e3565b604082019050919050565b60006020820190508181036000830152612a6e81612a32565b9050919050565b7f4e487b7100000000000000000000000000000000000000000000000000000000600052601160045260246000fd5b6000612aaf82611f52565b91507fffffffffffffffffffffffffffffffffffffffffffffffffffffffffffffffff8203612ae157612ae0612a75565b5b600182019050919050565b6000606082019050612b0160008301866124a6565b612b0e60208301856124a6565b612b1b604083018461216a565b949350505050565b6000612b2e82611f52565b9150612b3983611f52565b925082821015612b4c57612b4b612a75565b5b828203905092915050565b6000612b6282611f52565b9150612b6d83611f52565b9250827fffffffffffffffffffffffffffffffffffffffffffffffffffffffffffffffff03821115612ba257612ba1612a75565b5b828201905092915050565b6000608082019050612bc2600083018761216a565b612bcf602083018661216a565b612bdc604083018561216a565b8181036060830152612bee818461232d565b905095945050505050565b7f5b544b4d5374616b696e6732415d5b77697468647261775d3a2077697468647260008201527f61772074696d65206973207374696c6c206c6566740000000000000000000000602082015250565b6000612c556035836126ad565b9150612c6082612bf9565b604082019050919050565b60006020820190508181036000830152612c8481612c48565b9050919050565b7f5b544b4d5374616b696e6732415d5b77697468647261775d3a206e6f7420657860008201527f697374207374616b696e67206461746100000000000000000000000000000000602082015250565b6000612ce76030836126ad565b9150612cf282612c8b565b604082019050919050565b60006020820190508181036000830152612d1681612cda565b9050919050565b7f5b544b4d5374616b696e6732415d5b77697468647261775d3a206e6f74204f7760008201527f6e65720000000000000000000000000000000000000000000000000000000000602082015250565b6000612d796023836126ad565b9150612d8482612d1d565b604082019050919050565b60006020820190508181036000830152612da881612d6c565b9050919050565b7f416363657373436f6e74726f6c3a2063616e206f6e6c792072656e6f756e636560008201527f20726f6c657320666f722073656c660000000000000000000000000000000000602082015250565b6000612e0b602f836126ad565b9150612e1682612daf565b604082019050919050565b60006020820190508181036000830152612e3a81612dfe565b9050919050565b7f5b544b4d5374616b696e6732415d5b7365745374616b696e675d3a205f656e6460008201527f54696d6520697320756e646572205f737461727454696d650000000000000000602082015250565b6000612e9d6038836126ad565b9150612ea882612e41565b604082019050919050565b60006020820190508181036000830152612ecc81612e90565b9050919050565b7f5b544b4d5374616b696e6732415d5b7365745374616b696e675d3a205f656e6460008201527f54696d6520697320756e646572206e6f77000000000000000000000000000000602082015250565b6000612f2f6031836126ad565b9150612f3a82612ed3565b604082019050919050565b60006020820190508181036000830152612f5e81612f22565b9050919050565b7f5b544b4d5374616b696e6732415d5b686172766573745d3a206e6f742065786960008201527f7374207374616b696e6720646174610000000000000000000000000000000000602082015250565b6000612fc1602f836126ad565b9150612fcc82612f65565b604082019050919050565b60006020820190508181036000830152612ff081612fb4565b9050919050565b7f5b544b4d5374616b696e6732415d5b686172766573745d3a206e6f74204f776e60008201527f6572000000000000000000000000000000000000000000000000000000000000602082015250565b60006130536022836126ad565b915061305e82612ff7565b604082019050919050565b6000602082019050818103600083015261308281613046565b9050919050565b7f5061757361626c653a206e6f7420706175736564000000000000000000000000600082015250565b60006130bf6014836126ad565b91506130ca82613089565b602082019050919050565b600060208201905081810360008301526130ee816130b2565b9050919050565b600081905092915050565b7f416363657373436f6e74726f6c3a206163636f756e7420000000000000000000600082015250565b60006131366017836130f5565b915061314182613100565b601782019050919050565b600081519050919050565b60005b8381101561317557808201518184015260208101905061315a565b83811115613184576000848401525b50505050565b60006131958261314c565b61319f81856130f5565b93506131af818560208601613157565b80840191505092915050565b7f206973206d697373696e6720726f6c6520000000000000000000000000000000600082015250565b60006131f16011836130f5565b91506131fc826131bb565b601182019050919050565b600061321282613129565b915061321e828561318a565b9150613229826131e4565b9150613235828461318a565b91508190509392505050565b600061324c8261314c565b61325681856126ad565b9350613266818560208601613157565b61326f81611f8d565b840191505092915050565b600060208201905081810360008301526132948184613241565b905092915050565b60006132a782611f52565b91506132b283611f52565b9250817fffffffffffffffffffffffffffffffffffffffffffffffffffffffffffffffff04831182151516156132eb576132ea612a75565b5b828202905092915050565b600061330182611f52565b91506000820361331457613313612a75565b5b600182039050919050565b7f537472696e67733a20686578206c656e67746820696e73756666696369656e74600082015250565b60006133556020836126ad565b91506133608261331f565b602082019050919050565b6000602082019050818103600083015261338481613348565b905091905056fea2646970667358221220b1e43405fbb13bdf5e3188a3e71061f925189a1a09cb4dac8102862aae09821c64736f6c634300080e0033",
  "immutableReferences": {},
  "source": "// SPDX-License-Identifier: MIT\r\npragma solidity ^0.8.14;\r\n\r\nimport \"@openzeppelin/contracts/token/ERC721/ERC721.sol\";\r\nimport \"@openzeppelin/contracts/security/Pausable.sol\";\r\nimport \"@openzeppelin/contracts/access/AccessControl.sol\";\r\n\r\ncontract TKMStaking2A is Pausable, AccessControl {\r\n    ERC721 public TKMNft; // tkm nft\r\n    address public NftHolder; // NFT   \r\n\r\n    uint8 public constant gapIndex = 9; // TKMStaking1,2  \r\n\r\n    // stakeId (9 ~ 12: 3km)\r\n    uint256[4] public stakeIdList = [9, 10, 11, 12];\r\n    mapping(uint256 => bool) public stakeIds;\r\n\r\n    //  \r\n    uint256 public stakingIdx;\r\n\r\n    struct stakedInfo {\r\n        uint256 nftCount; \r\n        uint256 walletCount;\r\n    }\r\n    \r\n    //  \r\n    stakedInfo[4] public stakedInfoList;\r\n\r\n    //  ( ,  , stakeId,  , nft id )\r\n    event Stake(address indexed from, uint256 blockNumber, uint256 stakeId, uint256 stakingIdx, uint256[] ids);\r\n    //  \r\n    event Withdraw(address indexed from, uint256 blockNumber, uint256 stakingIdx);\r\n    //  \r\n    event Harvest(address indexed from, uint256 blockNumber, uint256 stakingIdx);\r\n\r\n    /////////////////////////////////////////////////////\r\n    // Staking\r\n    // Staking \r\n    struct staking {\r\n        uint256 startTime; //  \r\n        uint256 endTime; //  \r\n        uint8 nftAmount; // 1   NFT (1, 3, 5, 7)\r\n        uint256 withdrawTime; //   \r\n    }\r\n\r\n    // stake id \r\n    mapping(uint256 => staking) public stakings;\r\n\r\n    //  \r\n    struct stakingProgress {\r\n        address user; //   \r\n        uint256 stakeId; // stake id\r\n        uint256[] ids; //  NFT ID\r\n    }\r\n\r\n    //  (  =>  )\r\n    mapping(uint256 => stakingProgress) public progressing;\r\n\r\n    constructor(address _TKMNft, address _NftHolder) {\r\n        _grantRole(DEFAULT_ADMIN_ROLE, msg.sender);\r\n        TKMNft = ERC721(payable(_TKMNft));\r\n        NftHolder = _NftHolder;\r\n\r\n        // stake id \r\n        for (uint256 i = 0; i < stakeIdList.length; i++) {\r\n            stakeIds[stakeIdList[i]] = true;\r\n        }\r\n\r\n        // stakedInfo \r\n        for (uint256 i = 0; i < stakeIdList.length; i++) {\r\n            stakedInfo memory info = stakedInfo(0, 0);\r\n            stakedInfoList[i] = info;\r\n        }\r\n    }\r\n\r\n    function pause() public onlyRole(DEFAULT_ADMIN_ROLE) {\r\n        _pause();\r\n    }\r\n\r\n    function unpause() public onlyRole(DEFAULT_ADMIN_ROLE) {\r\n        _unpause();\r\n    }\r\n\r\n    //   \r\n    function setStaking(\r\n        uint256 _stakeId,\r\n        uint256 _startTime,\r\n        uint256 _endTime,\r\n        uint8 _nftAmount,\r\n        uint256 _withdrawTime\r\n    ) public onlyRole(DEFAULT_ADMIN_ROLE) {\r\n        //  ,    \r\n        if(0 != stakings[_stakeId].startTime) {\r\n            require(_endTime > stakings[_stakeId].startTime, \"[TKMStaking2A][setStaking]: _endTime is under _startTime\");\r\n            require(_endTime > block.timestamp, \"[TKMStaking2A][setStaking]: _endTime is under now\");\r\n            stakings[_stakeId].endTime = _endTime;\r\n            stakings[_stakeId].withdrawTime = _withdrawTime;\r\n            return;\r\n        }\r\n\r\n        //  \r\n        require(_endTime > block.timestamp, \"[TKMStaking2A][setStaking]: _endTime is under now\");\r\n\r\n        staking storage newStake = stakings[_stakeId];\r\n        newStake.startTime = _startTime;\r\n        newStake.endTime = _endTime;\r\n        newStake.nftAmount = _nftAmount;\r\n        newStake.withdrawTime = _withdrawTime;\r\n    }\r\n\r\n    //  \r\n    function stake(uint256 _stakeId, uint256[] memory _ids) public whenNotPaused {\r\n        // stake id \r\n        require(true == stakeIds[_stakeId], \"[TKMStaking2A][stake]: invalid stake id\");\r\n\r\n        //  \r\n        require(stakings[_stakeId].startTime <= block.timestamp, \"[TKMStaking2A][staking]: staking is not started\");\r\n        require(stakings[_stakeId].endTime >= block.timestamp, \"[TKMStaking2A][staking]: staking is ended\");\r\n\r\n        // nft  \r\n        require(stakings[_stakeId].nftAmount == _ids.length, \"[TKMStaking2A][staking]: not equal nftAmount\");\r\n\r\n        //  \r\n        for (uint256 i = 0; i < stakings[_stakeId].nftAmount; i++) {\r\n            require(TKMNft.ownerOf(_ids[i]) == msg.sender, \"[TKMStaking2A][staking]: owner invalid\");\r\n        }\r\n\r\n        //   \r\n        ++stakingIdx;\r\n        for (uint256 i = 0; i < stakings[_stakeId].nftAmount; i++) {\r\n            TKMNft.safeTransferFrom(msg.sender, NftHolder, _ids[i]);\r\n        }\r\n\r\n        //  \r\n        stakingProgress storage progress = progressing[stakingIdx];\r\n        progress.user = msg.sender;\r\n        progress.stakeId = _stakeId;\r\n        progress.ids = _ids;\r\n\r\n        // stakedInfo \r\n        stakedInfoList[_stakeId - gapIndex].nftCount += stakings[_stakeId].nftAmount;\r\n        stakedInfoList[_stakeId - gapIndex].walletCount += 1;\r\n\r\n        emit Stake(msg.sender, block.number, _stakeId, stakingIdx, _ids);\r\n    }\r\n\r\n    // \r\n    function withdraw(uint256 _stakingIdx) public whenNotPaused {\r\n        //    \r\n        require(block.timestamp > stakings[progressing[_stakingIdx].stakeId].withdrawTime, \"[TKMStaking2A][withdraw]: withdraw time is still left\");\r\n\r\n        //      \r\n        require(progressing[_stakingIdx].user != address(0), \"[TKMStaking2A][withdraw]: not exist staking data\");\r\n        require(progressing[_stakingIdx].user == msg.sender, \"[TKMStaking2A][withdraw]: not Owner\");\r\n\r\n        // stakedInfo \r\n        stakedInfoList[progressing[_stakingIdx].stakeId - gapIndex].nftCount -= stakings[progressing[_stakingIdx].stakeId].nftAmount;\r\n        stakedInfoList[progressing[_stakingIdx].stakeId - gapIndex].walletCount -= 1;\r\n\r\n        //  \r\n        uint256[] memory ids = progressing[_stakingIdx].ids;\r\n        delete progressing[_stakingIdx];\r\n\r\n        // nft \r\n        for (uint256 i = 0; i < ids.length; i++) {\r\n            TKMNft.safeTransferFrom(NftHolder, msg.sender, ids[i]);\r\n        }\r\n\r\n        emit Withdraw(msg.sender, block.number, _stakingIdx);\r\n    }\r\n\r\n    // harvest\r\n    function harvest(uint256 _stakingIdx) public whenNotPaused {\r\n        //      \r\n        require(progressing[_stakingIdx].user != address(0), \"[TKMStaking2A][harvest]: not exist staking data\");\r\n        require(progressing[_stakingIdx].user == msg.sender, \"[TKMStaking2A][harvest]: not Owner\");\r\n\r\n        emit Harvest(msg.sender, block.number, _stakingIdx);\r\n    }\r\n\r\n    function getIds(uint256 _stakingIdx) public view returns (uint256[] memory ids) {\r\n        return progressing[_stakingIdx].ids;\r\n    }\r\n\r\n    function getStakedInfo() public view returns (uint256 blockNumber, stakedInfo[4] memory stakedList) {\r\n        return (block.number, stakedInfoList);\r\n    }\r\n}\r\n",
  "sourcePath": "D:\\github\\solidity_tinyping\\contracts\\TKMStaking2A.sol",
  "compiler": {
    "name": "solc",
    "version": "0.8.14+commit.80d49f37.Emscripten.clang"
  },
  "schemaVersion": "3.4.7",
  "updatedAt": "2023-01-26T02:24:29.918Z",
  "networkType": "ethereum",
  "devdoc": {
    "kind": "dev",
    "methods": {
      "getRoleAdmin(bytes32)": {
        "details": "Returns the admin role that controls `role`. See {grantRole} and {revokeRole}. To change a role's admin, use {_setRoleAdmin}."
      },
      "grantRole(bytes32,address)": {
        "details": "Grants `role` to `account`. If `account` had not been already granted `role`, emits a {RoleGranted} event. Requirements: - the caller must have ``role``'s admin role."
      },
      "hasRole(bytes32,address)": {
        "details": "Returns `true` if `account` has been granted `role`."
      },
      "paused()": {
        "details": "Returns true if the contract is paused, and false otherwise."
      },
      "renounceRole(bytes32,address)": {
        "details": "Revokes `role` from the calling account. Roles are often managed via {grantRole} and {revokeRole}: this function's purpose is to provide a mechanism for accounts to lose their privileges if they are compromised (such as when a trusted device is misplaced). If the calling account had been revoked `role`, emits a {RoleRevoked} event. Requirements: - the caller must be `account`."
      },
      "revokeRole(bytes32,address)": {
        "details": "Revokes `role` from `account`. If `account` had been granted `role`, emits a {RoleRevoked} event. Requirements: - the caller must have ``role``'s admin role."
      },
      "supportsInterface(bytes4)": {
        "details": "See {IERC165-supportsInterface}."
      }
    },
    "version": 1
  },
  "userdoc": {
    "kind": "user",
    "methods": {},
    "version": 1
  }
}